{
	"contracts/Candidatos.sol": {
		"Candidatos": {
			"abi": [
				{
					"inputs": [],
					"stateMutability": "nonpayable",
					"type": "constructor"
				},
				{
					"inputs": [
						{
							"internalType": "address",
							"name": "owner",
							"type": "address"
						}
					],
					"name": "OwnableInvalidOwner",
					"type": "error"
				},
				{
					"inputs": [
						{
							"internalType": "address",
							"name": "account",
							"type": "address"
						}
					],
					"name": "OwnableUnauthorizedAccount",
					"type": "error"
				},
				{
					"anonymous": false,
					"inputs": [
						{
							"indexed": false,
							"internalType": "string",
							"name": "nombre",
							"type": "string"
						}
					],
					"name": "CandidatoAgregado",
					"type": "event"
				},
				{
					"anonymous": false,
					"inputs": [
						{
							"indexed": true,
							"internalType": "address",
							"name": "previousOwner",
							"type": "address"
						},
						{
							"indexed": true,
							"internalType": "address",
							"name": "newOwner",
							"type": "address"
						}
					],
					"name": "OwnershipTransferred",
					"type": "event"
				},
				{
					"inputs": [
						{
							"internalType": "string",
							"name": "_nombre",
							"type": "string"
						}
					],
					"name": "agregarCandidato",
					"outputs": [],
					"stateMutability": "nonpayable",
					"type": "function"
				},
				{
					"inputs": [],
					"name": "getAllCandidatos",
					"outputs": [
						{
							"components": [
								{
									"internalType": "string",
									"name": "name",
									"type": "string"
								},
								{
									"internalType": "uint256",
									"name": "votos",
									"type": "uint256"
								}
							],
							"internalType": "struct Candidatos.Candidato[]",
							"name": "",
							"type": "tuple[]"
						}
					],
					"stateMutability": "view",
					"type": "function"
				},
				{
					"inputs": [],
					"name": "owner",
					"outputs": [
						{
							"internalType": "address",
							"name": "",
							"type": "address"
						}
					],
					"stateMutability": "view",
					"type": "function"
				},
				{
					"inputs": [],
					"name": "renounceOwnership",
					"outputs": [],
					"stateMutability": "nonpayable",
					"type": "function"
				},
				{
					"inputs": [
						{
							"internalType": "address",
							"name": "newOwner",
							"type": "address"
						}
					],
					"name": "transferOwnership",
					"outputs": [],
					"stateMutability": "nonpayable",
					"type": "function"
				}
			],
			"devdoc": {
				"errors": {
					"OwnableInvalidOwner(address)": [
						{
							"details": "The owner is not a valid owner account. (eg. `address(0)`)"
						}
					],
					"OwnableUnauthorizedAccount(address)": [
						{
							"details": "The caller account is not authorized to perform an operation."
						}
					]
				},
				"kind": "dev",
				"methods": {
					"owner()": {
						"details": "Returns the address of the current owner."
					},
					"renounceOwnership()": {
						"details": "Leaves the contract without owner. It will not be possible to call `onlyOwner` functions. Can only be called by the current owner. NOTE: Renouncing ownership will leave the contract without an owner, thereby disabling any functionality that is only available to the owner."
					},
					"transferOwnership(address)": {
						"details": "Transfers ownership of the contract to a new account (`newOwner`). Can only be called by the current owner."
					}
				},
				"version": 1
			},
			"evm": {
				"assembly": "    /* \"contracts/Candidatos.sol\":117:1060  contract Candidatos is Ownable {... */\n  mstore(0x40, 0x80)\n    /* \"contracts/Candidatos.sol\":616:652  constructor() Ownable(msg.sender) {} */\n  callvalue\n  dup1\n  iszero\n  tag_1\n  jumpi\n  0x00\n  dup1\n  revert\ntag_1:\n  pop\n    /* \"contracts/Candidatos.sol\":638:648  msg.sender */\n  caller\n    /* \"@openzeppelin/contracts/access/Ownable.sol\":1297:1298  0 */\n  0x00\n    /* \"@openzeppelin/contracts/access/Ownable.sol\":1273:1299  initialOwner == address(0) */\n  0xffffffffffffffffffffffffffffffffffffffff\n  and\n    /* \"@openzeppelin/contracts/access/Ownable.sol\":1273:1285  initialOwner */\n  dup2\n    /* \"@openzeppelin/contracts/access/Ownable.sol\":1273:1299  initialOwner == address(0) */\n  0xffffffffffffffffffffffffffffffffffffffff\n  and\n  sub\n    /* \"@openzeppelin/contracts/access/Ownable.sol\":1269:1364  if (initialOwner == address(0)) {... */\n  tag_5\n  jumpi\n    /* \"@openzeppelin/contracts/access/Ownable.sol\":1350:1351  0 */\n  0x00\n    /* \"@openzeppelin/contracts/access/Ownable.sol\":1322:1353  OwnableInvalidOwner(address(0)) */\n  mload(0x40)\n  0x1e4fbdf700000000000000000000000000000000000000000000000000000000\n  dup2\n  mstore\n  0x04\n  add\n  tag_6\n  swap2\n  swap1\n  tag_7\n  jump\t// in\ntag_6:\n  mload(0x40)\n  dup1\n  swap2\n  sub\n  swap1\n  revert\n    /* \"@openzeppelin/contracts/access/Ownable.sol\":1269:1364  if (initialOwner == address(0)) {... */\ntag_5:\n    /* \"@openzeppelin/contracts/access/Ownable.sol\":1373:1405  _transferOwnership(initialOwner) */\n  tag_8\n    /* \"@openzeppelin/contracts/access/Ownable.sol\":1392:1404  initialOwner */\n  dup2\n    /* \"@openzeppelin/contracts/access/Ownable.sol\":1373:1391  _transferOwnership */\n  shl(0x20, tag_9)\n    /* \"@openzeppelin/contracts/access/Ownable.sol\":1373:1405  _transferOwnership(initialOwner) */\n  0x20\n  shr\n  jump\t// in\ntag_8:\n    /* \"@openzeppelin/contracts/access/Ownable.sol\":1225:1412  constructor(address initialOwner) {... */\n  pop\n    /* \"contracts/Candidatos.sol\":117:1060  contract Candidatos is Ownable {... */\n  jump(tag_11)\n    /* \"@openzeppelin/contracts/access/Ownable.sol\":2912:3099  function _transferOwnership(address newOwner) internal virtual {... */\ntag_9:\n    /* \"@openzeppelin/contracts/access/Ownable.sol\":2985:3001  address oldOwner */\n  0x00\n    /* \"@openzeppelin/contracts/access/Ownable.sol\":3004:3010  _owner */\n  dup1\n  0x00\n  swap1\n  sload\n  swap1\n  0x0100\n  exp\n  swap1\n  div\n  0xffffffffffffffffffffffffffffffffffffffff\n  and\n    /* \"@openzeppelin/contracts/access/Ownable.sol\":2985:3010  address oldOwner = _owner */\n  swap1\n  pop\n    /* \"@openzeppelin/contracts/access/Ownable.sol\":3029:3037  newOwner */\n  dup2\n    /* \"@openzeppelin/contracts/access/Ownable.sol\":3020:3026  _owner */\n  0x00\n  dup1\n    /* \"@openzeppelin/contracts/access/Ownable.sol\":3020:3037  _owner = newOwner */\n  0x0100\n  exp\n  dup2\n  sload\n  dup2\n  0xffffffffffffffffffffffffffffffffffffffff\n  mul\n  not\n  and\n  swap1\n  dup4\n  0xffffffffffffffffffffffffffffffffffffffff\n  and\n  mul\n  or\n  swap1\n  sstore\n  pop\n    /* \"@openzeppelin/contracts/access/Ownable.sol\":3083:3091  newOwner */\n  dup2\n    /* \"@openzeppelin/contracts/access/Ownable.sol\":3052:3092  OwnershipTransferred(oldOwner, newOwner) */\n  0xffffffffffffffffffffffffffffffffffffffff\n  and\n    /* \"@openzeppelin/contracts/access/Ownable.sol\":3073:3081  oldOwner */\n  dup2\n    /* \"@openzeppelin/contracts/access/Ownable.sol\":3052:3092  OwnershipTransferred(oldOwner, newOwner) */\n  0xffffffffffffffffffffffffffffffffffffffff\n  and\n  0x8be0079c531659141344cd1fd0a4f28419497f9722a3daafe3b4186f6b6457e0\n  mload(0x40)\n  mload(0x40)\n  dup1\n  swap2\n  sub\n  swap1\n  log3\n    /* \"@openzeppelin/contracts/access/Ownable.sol\":2975:3099  {... */\n  pop\n    /* \"@openzeppelin/contracts/access/Ownable.sol\":2912:3099  function _transferOwnership(address newOwner) internal virtual {... */\n  pop\n  jump\t// out\n    /* \"#utility.yul\":7:133   */\ntag_13:\n    /* \"#utility.yul\":44:51   */\n  0x00\n    /* \"#utility.yul\":84:126   */\n  0xffffffffffffffffffffffffffffffffffffffff\n    /* \"#utility.yul\":77:82   */\n  dup3\n    /* \"#utility.yul\":73:127   */\n  and\n    /* \"#utility.yul\":62:127   */\n  swap1\n  pop\n    /* \"#utility.yul\":7:133   */\n  swap2\n  swap1\n  pop\n  jump\t// out\n    /* \"#utility.yul\":139:235   */\ntag_14:\n    /* \"#utility.yul\":176:183   */\n  0x00\n    /* \"#utility.yul\":205:229   */\n  tag_19\n    /* \"#utility.yul\":223:228   */\n  dup3\n    /* \"#utility.yul\":205:229   */\n  tag_13\n  jump\t// in\ntag_19:\n    /* \"#utility.yul\":194:229   */\n  swap1\n  pop\n    /* \"#utility.yul\":139:235   */\n  swap2\n  swap1\n  pop\n  jump\t// out\n    /* \"#utility.yul\":241:359   */\ntag_15:\n    /* \"#utility.yul\":328:352   */\n  tag_21\n    /* \"#utility.yul\":346:351   */\n  dup2\n    /* \"#utility.yul\":328:352   */\n  tag_14\n  jump\t// in\ntag_21:\n    /* \"#utility.yul\":323:326   */\n  dup3\n    /* \"#utility.yul\":316:353   */\n  mstore\n    /* \"#utility.yul\":241:359   */\n  pop\n  pop\n  jump\t// out\n    /* \"#utility.yul\":365:587   */\ntag_7:\n    /* \"#utility.yul\":458:462   */\n  0x00\n    /* \"#utility.yul\":496:498   */\n  0x20\n    /* \"#utility.yul\":485:494   */\n  dup3\n    /* \"#utility.yul\":481:499   */\n  add\n    /* \"#utility.yul\":473:499   */\n  swap1\n  pop\n    /* \"#utility.yul\":509:580   */\n  tag_23\n    /* \"#utility.yul\":577:578   */\n  0x00\n    /* \"#utility.yul\":566:575   */\n  dup4\n    /* \"#utility.yul\":562:579   */\n  add\n    /* \"#utility.yul\":553:559   */\n  dup5\n    /* \"#utility.yul\":509:580   */\n  tag_15\n  jump\t// in\ntag_23:\n    /* \"#utility.yul\":365:587   */\n  swap3\n  swap2\n  pop\n  pop\n  jump\t// out\n    /* \"contracts/Candidatos.sol\":117:1060  contract Candidatos is Ownable {... */\ntag_11:\n  dataSize(sub_0)\n  dup1\n  dataOffset(sub_0)\n  0x00\n  codecopy\n  0x00\n  return\nstop\n\nsub_0: assembly {\n        /* \"contracts/Candidatos.sol\":117:1060  contract Candidatos is Ownable {... */\n      mstore(0x40, 0x80)\n      callvalue\n      dup1\n      iszero\n      tag_1\n      jumpi\n      0x00\n      dup1\n      revert\n    tag_1:\n      pop\n      jumpi(tag_2, lt(calldatasize, 0x04))\n      shr(0xe0, calldataload(0x00))\n      dup1\n      0x198cc691\n      eq\n      tag_3\n      jumpi\n      dup1\n      0x503c560f\n      eq\n      tag_4\n      jumpi\n      dup1\n      0x715018a6\n      eq\n      tag_5\n      jumpi\n      dup1\n      0x8da5cb5b\n      eq\n      tag_6\n      jumpi\n      dup1\n      0xf2fde38b\n      eq\n      tag_7\n      jumpi\n    tag_2:\n      0x00\n      dup1\n      revert\n        /* \"contracts/Candidatos.sol\":952:1057  function getAllCandidatos() public view returns (Candidato[] memory) {... */\n    tag_3:\n      tag_8\n      tag_9\n      jump\t// in\n    tag_8:\n      mload(0x40)\n      tag_10\n      swap2\n      swap1\n      tag_11\n      jump\t// in\n    tag_10:\n      mload(0x40)\n      dup1\n      swap2\n      sub\n      swap1\n      return\n        /* \"contracts/Candidatos.sol\":709:874  function agregarCandidato(string memory _nombre) public onlyOwner {... */\n    tag_4:\n      tag_12\n      0x04\n      dup1\n      calldatasize\n      sub\n      dup2\n      add\n      swap1\n      tag_13\n      swap2\n      swap1\n      tag_14\n      jump\t// in\n    tag_13:\n      tag_15\n      jump\t// in\n    tag_12:\n      stop\n        /* \"@openzeppelin/contracts/access/Ownable.sol\":2293:2394  function renounceOwnership() public virtual onlyOwner {... */\n    tag_5:\n      tag_16\n      tag_17\n      jump\t// in\n    tag_16:\n      stop\n        /* \"@openzeppelin/contracts/access/Ownable.sol\":1638:1723  function owner() public view virtual returns (address) {... */\n    tag_6:\n      tag_18\n      tag_19\n      jump\t// in\n    tag_18:\n      mload(0x40)\n      tag_20\n      swap2\n      swap1\n      tag_21\n      jump\t// in\n    tag_20:\n      mload(0x40)\n      dup1\n      swap2\n      sub\n      swap1\n      return\n        /* \"@openzeppelin/contracts/access/Ownable.sol\":2543:2758  function transferOwnership(address newOwner) public virtual onlyOwner {... */\n    tag_7:\n      tag_22\n      0x04\n      dup1\n      calldatasize\n      sub\n      dup2\n      add\n      swap1\n      tag_23\n      swap2\n      swap1\n      tag_24\n      jump\t// in\n    tag_23:\n      tag_25\n      jump\t// in\n    tag_22:\n      stop\n        /* \"contracts/Candidatos.sol\":952:1057  function getAllCandidatos() public view returns (Candidato[] memory) {... */\n    tag_9:\n        /* \"contracts/Candidatos.sol\":1001:1019  Candidato[] memory */\n      0x60\n        /* \"contracts/Candidatos.sol\":1039:1049  candidatos */\n      0x01\n        /* \"contracts/Candidatos.sol\":1032:1049  return candidatos */\n      dup1\n      sload\n      dup1\n      0x20\n      mul\n      0x20\n      add\n      mload(0x40)\n      swap1\n      dup2\n      add\n      0x40\n      mstore\n      dup1\n      swap3\n      swap2\n      swap1\n      dup2\n      dup2\n      mstore\n      0x20\n      add\n      0x00\n      swap1\n    tag_27:\n      dup3\n      dup3\n      lt\n      iszero\n      tag_28\n      jumpi\n      dup4\n      dup3\n      swap1\n      0x00\n      mstore\n      keccak256(0x00, 0x20)\n      swap1\n      0x02\n      mul\n      add\n      mload(0x40)\n      dup1\n      0x40\n      add\n      0x40\n      mstore\n      swap1\n      dup2\n      0x00\n      dup3\n      add\n      dup1\n      sload\n      tag_30\n      swap1\n      tag_31\n      jump\t// in\n    tag_30:\n      dup1\n      0x1f\n      add\n      0x20\n      dup1\n      swap2\n      div\n      mul\n      0x20\n      add\n      mload(0x40)\n      swap1\n      dup2\n      add\n      0x40\n      mstore\n      dup1\n      swap3\n      swap2\n      swap1\n      dup2\n      dup2\n      mstore\n      0x20\n      add\n      dup3\n      dup1\n      sload\n      tag_32\n      swap1\n      tag_31\n      jump\t// in\n    tag_32:\n      dup1\n      iszero\n      tag_33\n      jumpi\n      dup1\n      0x1f\n      lt\n      tag_34\n      jumpi\n      0x0100\n      dup1\n      dup4\n      sload\n      div\n      mul\n      dup4\n      mstore\n      swap2\n      0x20\n      add\n      swap2\n      jump(tag_33)\n    tag_34:\n      dup3\n      add\n      swap2\n      swap1\n      0x00\n      mstore\n      keccak256(0x00, 0x20)\n      swap1\n    tag_35:\n      dup2\n      sload\n      dup2\n      mstore\n      swap1\n      0x01\n      add\n      swap1\n      0x20\n      add\n      dup1\n      dup4\n      gt\n      tag_35\n      jumpi\n      dup3\n      swap1\n      sub\n      0x1f\n      and\n      dup3\n      add\n      swap2\n    tag_33:\n      pop\n      pop\n      pop\n      pop\n      pop\n      dup2\n      mstore\n      0x20\n      add\n      0x01\n      dup3\n      add\n      sload\n      dup2\n      mstore\n      pop\n      pop\n      dup2\n      mstore\n      0x20\n      add\n      swap1\n      0x01\n      add\n      swap1\n      jump(tag_27)\n    tag_28:\n      pop\n      pop\n      pop\n      pop\n      swap1\n      pop\n        /* \"contracts/Candidatos.sol\":952:1057  function getAllCandidatos() public view returns (Candidato[] memory) {... */\n      swap1\n      jump\t// out\n        /* \"contracts/Candidatos.sol\":709:874  function agregarCandidato(string memory _nombre) public onlyOwner {... */\n    tag_15:\n        /* \"@openzeppelin/contracts/access/Ownable.sol\":1531:1544  _checkOwner() */\n      tag_37\n        /* \"@openzeppelin/contracts/access/Ownable.sol\":1531:1542  _checkOwner */\n      tag_38\n        /* \"@openzeppelin/contracts/access/Ownable.sol\":1531:1544  _checkOwner() */\n      jump\t// in\n    tag_37:\n        /* \"contracts/Candidatos.sol\":786:796  candidatos */\n      0x01\n        /* \"contracts/Candidatos.sol\":802:823  Candidato(_nombre, 0) */\n      mload(0x40)\n      dup1\n      0x40\n      add\n      0x40\n      mstore\n      dup1\n        /* \"contracts/Candidatos.sol\":812:819  _nombre */\n      dup4\n        /* \"contracts/Candidatos.sol\":802:823  Candidato(_nombre, 0) */\n      dup2\n      mstore\n      0x20\n      add\n        /* \"contracts/Candidatos.sol\":821:822  0 */\n      0x00\n        /* \"contracts/Candidatos.sol\":802:823  Candidato(_nombre, 0) */\n      dup2\n      mstore\n      pop\n        /* \"contracts/Candidatos.sol\":786:824  candidatos.push(Candidato(_nombre, 0)) */\n      swap1\n      dup1\n      0x01\n      dup2\n      sload\n      add\n      dup1\n      dup3\n      sstore\n      dup1\n      swap2\n      pop\n      pop\n      0x01\n      swap1\n      sub\n      swap1\n      0x00\n      mstore\n      keccak256(0x00, 0x20)\n      swap1\n      0x02\n      mul\n      add\n      0x00\n      swap1\n      swap2\n      swap1\n      swap2\n      swap1\n      swap2\n      pop\n      0x00\n      dup3\n      add\n      mload\n      dup2\n      0x00\n      add\n      swap1\n      dup2\n      tag_41\n      swap2\n      swap1\n      tag_42\n      jump\t// in\n    tag_41:\n      pop\n      0x20\n      dup3\n      add\n      mload\n      dup2\n      0x01\n      add\n      sstore\n      pop\n      pop\n        /* \"contracts/Candidatos.sol\":840:866  CandidatoAgregado(_nombre) */\n      0x566c2d39711b082cc685ade507dee6291f47044333d9aba4037034cdc3cfac9e\n        /* \"contracts/Candidatos.sol\":858:865  _nombre */\n      dup2\n        /* \"contracts/Candidatos.sol\":840:866  CandidatoAgregado(_nombre) */\n      mload(0x40)\n      tag_43\n      swap2\n      swap1\n      tag_44\n      jump\t// in\n    tag_43:\n      mload(0x40)\n      dup1\n      swap2\n      sub\n      swap1\n      log1\n        /* \"contracts/Candidatos.sol\":709:874  function agregarCandidato(string memory _nombre) public onlyOwner {... */\n      pop\n      jump\t// out\n        /* \"@openzeppelin/contracts/access/Ownable.sol\":2293:2394  function renounceOwnership() public virtual onlyOwner {... */\n    tag_17:\n        /* \"@openzeppelin/contracts/access/Ownable.sol\":1531:1544  _checkOwner() */\n      tag_46\n        /* \"@openzeppelin/contracts/access/Ownable.sol\":1531:1542  _checkOwner */\n      tag_38\n        /* \"@openzeppelin/contracts/access/Ownable.sol\":1531:1544  _checkOwner() */\n      jump\t// in\n    tag_46:\n        /* \"@openzeppelin/contracts/access/Ownable.sol\":2357:2387  _transferOwnership(address(0)) */\n      tag_48\n        /* \"@openzeppelin/contracts/access/Ownable.sol\":2384:2385  0 */\n      0x00\n        /* \"@openzeppelin/contracts/access/Ownable.sol\":2357:2375  _transferOwnership */\n      tag_49\n        /* \"@openzeppelin/contracts/access/Ownable.sol\":2357:2387  _transferOwnership(address(0)) */\n      jump\t// in\n    tag_48:\n        /* \"@openzeppelin/contracts/access/Ownable.sol\":2293:2394  function renounceOwnership() public virtual onlyOwner {... */\n      jump\t// out\n        /* \"@openzeppelin/contracts/access/Ownable.sol\":1638:1723  function owner() public view virtual returns (address) {... */\n    tag_19:\n        /* \"@openzeppelin/contracts/access/Ownable.sol\":1684:1691  address */\n      0x00\n        /* \"@openzeppelin/contracts/access/Ownable.sol\":1710:1716  _owner */\n      dup1\n      0x00\n      swap1\n      sload\n      swap1\n      0x0100\n      exp\n      swap1\n      div\n      0xffffffffffffffffffffffffffffffffffffffff\n      and\n        /* \"@openzeppelin/contracts/access/Ownable.sol\":1703:1716  return _owner */\n      swap1\n      pop\n        /* \"@openzeppelin/contracts/access/Ownable.sol\":1638:1723  function owner() public view virtual returns (address) {... */\n      swap1\n      jump\t// out\n        /* \"@openzeppelin/contracts/access/Ownable.sol\":2543:2758  function transferOwnership(address newOwner) public virtual onlyOwner {... */\n    tag_25:\n        /* \"@openzeppelin/contracts/access/Ownable.sol\":1531:1544  _checkOwner() */\n      tag_52\n        /* \"@openzeppelin/contracts/access/Ownable.sol\":1531:1542  _checkOwner */\n      tag_38\n        /* \"@openzeppelin/contracts/access/Ownable.sol\":1531:1544  _checkOwner() */\n      jump\t// in\n    tag_52:\n        /* \"@openzeppelin/contracts/access/Ownable.sol\":2647:2648  0 */\n      0x00\n        /* \"@openzeppelin/contracts/access/Ownable.sol\":2627:2649  newOwner == address(0) */\n      0xffffffffffffffffffffffffffffffffffffffff\n      and\n        /* \"@openzeppelin/contracts/access/Ownable.sol\":2627:2635  newOwner */\n      dup2\n        /* \"@openzeppelin/contracts/access/Ownable.sol\":2627:2649  newOwner == address(0) */\n      0xffffffffffffffffffffffffffffffffffffffff\n      and\n      sub\n        /* \"@openzeppelin/contracts/access/Ownable.sol\":2623:2714  if (newOwner == address(0)) {... */\n      tag_54\n      jumpi\n        /* \"@openzeppelin/contracts/access/Ownable.sol\":2700:2701  0 */\n      0x00\n        /* \"@openzeppelin/contracts/access/Ownable.sol\":2672:2703  OwnableInvalidOwner(address(0)) */\n      mload(0x40)\n      0x1e4fbdf700000000000000000000000000000000000000000000000000000000\n      dup2\n      mstore\n      0x04\n      add\n      tag_55\n      swap2\n      swap1\n      tag_21\n      jump\t// in\n    tag_55:\n      mload(0x40)\n      dup1\n      swap2\n      sub\n      swap1\n      revert\n        /* \"@openzeppelin/contracts/access/Ownable.sol\":2623:2714  if (newOwner == address(0)) {... */\n    tag_54:\n        /* \"@openzeppelin/contracts/access/Ownable.sol\":2723:2751  _transferOwnership(newOwner) */\n      tag_56\n        /* \"@openzeppelin/contracts/access/Ownable.sol\":2742:2750  newOwner */\n      dup2\n        /* \"@openzeppelin/contracts/access/Ownable.sol\":2723:2741  _transferOwnership */\n      tag_49\n        /* \"@openzeppelin/contracts/access/Ownable.sol\":2723:2751  _transferOwnership(newOwner) */\n      jump\t// in\n    tag_56:\n        /* \"@openzeppelin/contracts/access/Ownable.sol\":2543:2758  function transferOwnership(address newOwner) public virtual onlyOwner {... */\n      pop\n      jump\t// out\n        /* \"@openzeppelin/contracts/access/Ownable.sol\":1796:1958  function _checkOwner() internal view virtual {... */\n    tag_38:\n        /* \"@openzeppelin/contracts/access/Ownable.sol\":1866:1878  _msgSender() */\n      tag_58\n        /* \"@openzeppelin/contracts/access/Ownable.sol\":1866:1876  _msgSender */\n      tag_59\n        /* \"@openzeppelin/contracts/access/Ownable.sol\":1866:1878  _msgSender() */\n      jump\t// in\n    tag_58:\n        /* \"@openzeppelin/contracts/access/Ownable.sol\":1855:1878  owner() != _msgSender() */\n      0xffffffffffffffffffffffffffffffffffffffff\n      and\n        /* \"@openzeppelin/contracts/access/Ownable.sol\":1855:1862  owner() */\n      tag_60\n        /* \"@openzeppelin/contracts/access/Ownable.sol\":1855:1860  owner */\n      tag_19\n        /* \"@openzeppelin/contracts/access/Ownable.sol\":1855:1862  owner() */\n      jump\t// in\n    tag_60:\n        /* \"@openzeppelin/contracts/access/Ownable.sol\":1855:1878  owner() != _msgSender() */\n      0xffffffffffffffffffffffffffffffffffffffff\n      and\n      eq\n        /* \"@openzeppelin/contracts/access/Ownable.sol\":1851:1952  if (owner() != _msgSender()) {... */\n      tag_61\n      jumpi\n        /* \"@openzeppelin/contracts/access/Ownable.sol\":1928:1940  _msgSender() */\n      tag_62\n        /* \"@openzeppelin/contracts/access/Ownable.sol\":1928:1938  _msgSender */\n      tag_59\n        /* \"@openzeppelin/contracts/access/Ownable.sol\":1928:1940  _msgSender() */\n      jump\t// in\n    tag_62:\n        /* \"@openzeppelin/contracts/access/Ownable.sol\":1901:1941  OwnableUnauthorizedAccount(_msgSender()) */\n      mload(0x40)\n      0x118cdaa700000000000000000000000000000000000000000000000000000000\n      dup2\n      mstore\n      0x04\n      add\n      tag_63\n      swap2\n      swap1\n      tag_21\n      jump\t// in\n    tag_63:\n      mload(0x40)\n      dup1\n      swap2\n      sub\n      swap1\n      revert\n        /* \"@openzeppelin/contracts/access/Ownable.sol\":1851:1952  if (owner() != _msgSender()) {... */\n    tag_61:\n        /* \"@openzeppelin/contracts/access/Ownable.sol\":1796:1958  function _checkOwner() internal view virtual {... */\n      jump\t// out\n        /* \"@openzeppelin/contracts/access/Ownable.sol\":2912:3099  function _transferOwnership(address newOwner) internal virtual {... */\n    tag_49:\n        /* \"@openzeppelin/contracts/access/Ownable.sol\":2985:3001  address oldOwner */\n      0x00\n        /* \"@openzeppelin/contracts/access/Ownable.sol\":3004:3010  _owner */\n      dup1\n      0x00\n      swap1\n      sload\n      swap1\n      0x0100\n      exp\n      swap1\n      div\n      0xffffffffffffffffffffffffffffffffffffffff\n      and\n        /* \"@openzeppelin/contracts/access/Ownable.sol\":2985:3010  address oldOwner = _owner */\n      swap1\n      pop\n        /* \"@openzeppelin/contracts/access/Ownable.sol\":3029:3037  newOwner */\n      dup2\n        /* \"@openzeppelin/contracts/access/Ownable.sol\":3020:3026  _owner */\n      0x00\n      dup1\n        /* \"@openzeppelin/contracts/access/Ownable.sol\":3020:3037  _owner = newOwner */\n      0x0100\n      exp\n      dup2\n      sload\n      dup2\n      0xffffffffffffffffffffffffffffffffffffffff\n      mul\n      not\n      and\n      swap1\n      dup4\n      0xffffffffffffffffffffffffffffffffffffffff\n      and\n      mul\n      or\n      swap1\n      sstore\n      pop\n        /* \"@openzeppelin/contracts/access/Ownable.sol\":3083:3091  newOwner */\n      dup2\n        /* \"@openzeppelin/contracts/access/Ownable.sol\":3052:3092  OwnershipTransferred(oldOwner, newOwner) */\n      0xffffffffffffffffffffffffffffffffffffffff\n      and\n        /* \"@openzeppelin/contracts/access/Ownable.sol\":3073:3081  oldOwner */\n      dup2\n        /* \"@openzeppelin/contracts/access/Ownable.sol\":3052:3092  OwnershipTransferred(oldOwner, newOwner) */\n      0xffffffffffffffffffffffffffffffffffffffff\n      and\n      0x8be0079c531659141344cd1fd0a4f28419497f9722a3daafe3b4186f6b6457e0\n      mload(0x40)\n      mload(0x40)\n      dup1\n      swap2\n      sub\n      swap1\n      log3\n        /* \"@openzeppelin/contracts/access/Ownable.sol\":2975:3099  {... */\n      pop\n        /* \"@openzeppelin/contracts/access/Ownable.sol\":2912:3099  function _transferOwnership(address newOwner) internal virtual {... */\n      pop\n      jump\t// out\n        /* \"@openzeppelin/contracts/utils/Context.sol\":656:752  function _msgSender() internal view virtual returns (address) {... */\n    tag_59:\n        /* \"@openzeppelin/contracts/utils/Context.sol\":709:716  address */\n      0x00\n        /* \"@openzeppelin/contracts/utils/Context.sol\":735:745  msg.sender */\n      caller\n        /* \"@openzeppelin/contracts/utils/Context.sol\":728:745  return msg.sender */\n      swap1\n      pop\n        /* \"@openzeppelin/contracts/utils/Context.sol\":656:752  function _msgSender() internal view virtual returns (address) {... */\n      swap1\n      jump\t// out\n        /* \"#utility.yul\":7:147   */\n    tag_66:\n        /* \"#utility.yul\":100:106   */\n      0x00\n        /* \"#utility.yul\":134:139   */\n      dup2\n        /* \"#utility.yul\":128:140   */\n      mload\n        /* \"#utility.yul\":118:140   */\n      swap1\n      pop\n        /* \"#utility.yul\":7:147   */\n      swap2\n      swap1\n      pop\n      jump\t// out\n        /* \"#utility.yul\":153:363   */\n    tag_67:\n        /* \"#utility.yul\":278:289   */\n      0x00\n        /* \"#utility.yul\":312:318   */\n      dup3\n        /* \"#utility.yul\":307:310   */\n      dup3\n        /* \"#utility.yul\":300:319   */\n      mstore\n        /* \"#utility.yul\":352:356   */\n      0x20\n        /* \"#utility.yul\":347:350   */\n      dup3\n        /* \"#utility.yul\":343:357   */\n      add\n        /* \"#utility.yul\":328:357   */\n      swap1\n      pop\n        /* \"#utility.yul\":153:363   */\n      swap3\n      swap2\n      pop\n      pop\n      jump\t// out\n        /* \"#utility.yul\":369:527   */\n    tag_68:\n        /* \"#utility.yul\":462:466   */\n      0x00\n        /* \"#utility.yul\":485:488   */\n      dup2\n        /* \"#utility.yul\":477:488   */\n      swap1\n      pop\n        /* \"#utility.yul\":515:519   */\n      0x20\n        /* \"#utility.yul\":510:513   */\n      dup3\n        /* \"#utility.yul\":506:520   */\n      add\n        /* \"#utility.yul\":498:520   */\n      swap1\n      pop\n        /* \"#utility.yul\":369:527   */\n      swap2\n      swap1\n      pop\n      jump\t// out\n        /* \"#utility.yul\":533:632   */\n    tag_69:\n        /* \"#utility.yul\":585:591   */\n      0x00\n        /* \"#utility.yul\":619:624   */\n      dup2\n        /* \"#utility.yul\":613:625   */\n      mload\n        /* \"#utility.yul\":603:625   */\n      swap1\n      pop\n        /* \"#utility.yul\":533:632   */\n      swap2\n      swap1\n      pop\n      jump\t// out\n        /* \"#utility.yul\":638:797   */\n    tag_70:\n        /* \"#utility.yul\":712:723   */\n      0x00\n        /* \"#utility.yul\":746:752   */\n      dup3\n        /* \"#utility.yul\":741:744   */\n      dup3\n        /* \"#utility.yul\":734:753   */\n      mstore\n        /* \"#utility.yul\":786:790   */\n      0x20\n        /* \"#utility.yul\":781:784   */\n      dup3\n        /* \"#utility.yul\":777:791   */\n      add\n        /* \"#utility.yul\":762:791   */\n      swap1\n      pop\n        /* \"#utility.yul\":638:797   */\n      swap3\n      swap2\n      pop\n      pop\n      jump\t// out\n        /* \"#utility.yul\":803:942   */\n    tag_71:\n        /* \"#utility.yul\":892:898   */\n      dup3\n        /* \"#utility.yul\":887:890   */\n      dup2\n        /* \"#utility.yul\":882:885   */\n      dup4\n        /* \"#utility.yul\":876:899   */\n      mcopy\n        /* \"#utility.yul\":933:934   */\n      0x00\n        /* \"#utility.yul\":924:930   */\n      dup4\n        /* \"#utility.yul\":919:922   */\n      dup4\n        /* \"#utility.yul\":915:931   */\n      add\n        /* \"#utility.yul\":908:935   */\n      mstore\n        /* \"#utility.yul\":803:942   */\n      pop\n      pop\n      pop\n      jump\t// out\n        /* \"#utility.yul\":948:1050   */\n    tag_72:\n        /* \"#utility.yul\":989:995   */\n      0x00\n        /* \"#utility.yul\":1040:1042   */\n      0x1f\n        /* \"#utility.yul\":1036:1043   */\n      not\n        /* \"#utility.yul\":1031:1033   */\n      0x1f\n        /* \"#utility.yul\":1024:1029   */\n      dup4\n        /* \"#utility.yul\":1020:1034   */\n      add\n        /* \"#utility.yul\":1016:1044   */\n      and\n        /* \"#utility.yul\":1006:1044   */\n      swap1\n      pop\n        /* \"#utility.yul\":948:1050   */\n      swap2\n      swap1\n      pop\n      jump\t// out\n        /* \"#utility.yul\":1056:1413   */\n    tag_73:\n        /* \"#utility.yul\":1134:1137   */\n      0x00\n        /* \"#utility.yul\":1162:1201   */\n      tag_124\n        /* \"#utility.yul\":1195:1200   */\n      dup3\n        /* \"#utility.yul\":1162:1201   */\n      tag_69\n      jump\t// in\n    tag_124:\n        /* \"#utility.yul\":1217:1278   */\n      tag_125\n        /* \"#utility.yul\":1271:1277   */\n      dup2\n        /* \"#utility.yul\":1266:1269   */\n      dup6\n        /* \"#utility.yul\":1217:1278   */\n      tag_70\n      jump\t// in\n    tag_125:\n        /* \"#utility.yul\":1210:1278   */\n      swap4\n      pop\n        /* \"#utility.yul\":1287:1352   */\n      tag_126\n        /* \"#utility.yul\":1345:1351   */\n      dup2\n        /* \"#utility.yul\":1340:1343   */\n      dup6\n        /* \"#utility.yul\":1333:1337   */\n      0x20\n        /* \"#utility.yul\":1326:1331   */\n      dup7\n        /* \"#utility.yul\":1322:1338   */\n      add\n        /* \"#utility.yul\":1287:1352   */\n      tag_71\n      jump\t// in\n    tag_126:\n        /* \"#utility.yul\":1377:1406   */\n      tag_127\n        /* \"#utility.yul\":1399:1405   */\n      dup2\n        /* \"#utility.yul\":1377:1406   */\n      tag_72\n      jump\t// in\n    tag_127:\n        /* \"#utility.yul\":1372:1375   */\n      dup5\n        /* \"#utility.yul\":1368:1407   */\n      add\n        /* \"#utility.yul\":1361:1407   */\n      swap2\n      pop\n        /* \"#utility.yul\":1138:1413   */\n      pop\n        /* \"#utility.yul\":1056:1413   */\n      swap3\n      swap2\n      pop\n      pop\n      jump\t// out\n        /* \"#utility.yul\":1419:1496   */\n    tag_74:\n        /* \"#utility.yul\":1456:1463   */\n      0x00\n        /* \"#utility.yul\":1485:1490   */\n      dup2\n        /* \"#utility.yul\":1474:1490   */\n      swap1\n      pop\n        /* \"#utility.yul\":1419:1496   */\n      swap2\n      swap1\n      pop\n      jump\t// out\n        /* \"#utility.yul\":1502:1610   */\n    tag_75:\n        /* \"#utility.yul\":1579:1603   */\n      tag_130\n        /* \"#utility.yul\":1597:1602   */\n      dup2\n        /* \"#utility.yul\":1579:1603   */\n      tag_74\n      jump\t// in\n    tag_130:\n        /* \"#utility.yul\":1574:1577   */\n      dup3\n        /* \"#utility.yul\":1567:1604   */\n      mstore\n        /* \"#utility.yul\":1502:1610   */\n      pop\n      pop\n      jump\t// out\n        /* \"#utility.yul\":1682:2281   */\n    tag_76:\n        /* \"#utility.yul\":1793:1796   */\n      0x00\n        /* \"#utility.yul\":1829:1833   */\n      0x40\n        /* \"#utility.yul\":1824:1827   */\n      dup4\n        /* \"#utility.yul\":1820:1834   */\n      add\n        /* \"#utility.yul\":1916:1920   */\n      0x00\n        /* \"#utility.yul\":1909:1914   */\n      dup4\n        /* \"#utility.yul\":1905:1921   */\n      add\n        /* \"#utility.yul\":1899:1922   */\n      mload\n        /* \"#utility.yul\":1969:1972   */\n      dup5\n        /* \"#utility.yul\":1963:1967   */\n      dup3\n        /* \"#utility.yul\":1959:1973   */\n      sub\n        /* \"#utility.yul\":1952:1956   */\n      0x00\n        /* \"#utility.yul\":1947:1950   */\n      dup7\n        /* \"#utility.yul\":1943:1957   */\n      add\n        /* \"#utility.yul\":1936:1974   */\n      mstore\n        /* \"#utility.yul\":1995:2068   */\n      tag_132\n        /* \"#utility.yul\":2063:2067   */\n      dup3\n        /* \"#utility.yul\":2049:2061   */\n      dup3\n        /* \"#utility.yul\":1995:2068   */\n      tag_73\n      jump\t// in\n    tag_132:\n        /* \"#utility.yul\":1987:2068   */\n      swap2\n      pop\n        /* \"#utility.yul\":1844:2079   */\n      pop\n        /* \"#utility.yul\":2162:2166   */\n      0x20\n        /* \"#utility.yul\":2155:2160   */\n      dup4\n        /* \"#utility.yul\":2151:2167   */\n      add\n        /* \"#utility.yul\":2145:2168   */\n      mload\n        /* \"#utility.yul\":2181:2244   */\n      tag_133\n        /* \"#utility.yul\":2238:2242   */\n      0x20\n        /* \"#utility.yul\":2233:2236   */\n      dup7\n        /* \"#utility.yul\":2229:2243   */\n      add\n        /* \"#utility.yul\":2215:2227   */\n      dup3\n        /* \"#utility.yul\":2181:2244   */\n      tag_75\n      jump\t// in\n    tag_133:\n        /* \"#utility.yul\":2089:2254   */\n      pop\n        /* \"#utility.yul\":2271:2275   */\n      dup1\n        /* \"#utility.yul\":2264:2275   */\n      swap2\n      pop\n        /* \"#utility.yul\":1798:2281   */\n      pop\n        /* \"#utility.yul\":1682:2281   */\n      swap3\n      swap2\n      pop\n      pop\n      jump\t// out\n        /* \"#utility.yul\":2287:2547   */\n    tag_77:\n        /* \"#utility.yul\":2408:2418   */\n      0x00\n        /* \"#utility.yul\":2443:2541   */\n      tag_135\n        /* \"#utility.yul\":2537:2540   */\n      dup4\n        /* \"#utility.yul\":2529:2535   */\n      dup4\n        /* \"#utility.yul\":2443:2541   */\n      tag_76\n      jump\t// in\n    tag_135:\n        /* \"#utility.yul\":2429:2541   */\n      swap1\n      pop\n        /* \"#utility.yul\":2287:2547   */\n      swap3\n      swap2\n      pop\n      pop\n      jump\t// out\n        /* \"#utility.yul\":2553:2692   */\n    tag_78:\n        /* \"#utility.yul\":2649:2653   */\n      0x00\n        /* \"#utility.yul\":2681:2685   */\n      0x20\n        /* \"#utility.yul\":2676:2679   */\n      dup3\n        /* \"#utility.yul\":2672:2686   */\n      add\n        /* \"#utility.yul\":2664:2686   */\n      swap1\n      pop\n        /* \"#utility.yul\":2553:2692   */\n      swap2\n      swap1\n      pop\n      jump\t// out\n        /* \"#utility.yul\":2768:3887   */\n    tag_79:\n        /* \"#utility.yul\":2939:2942   */\n      0x00\n        /* \"#utility.yul\":2968:3048   */\n      tag_138\n        /* \"#utility.yul\":3042:3047   */\n      dup3\n        /* \"#utility.yul\":2968:3048   */\n      tag_66\n      jump\t// in\n    tag_138:\n        /* \"#utility.yul\":3064:3176   */\n      tag_139\n        /* \"#utility.yul\":3169:3175   */\n      dup2\n        /* \"#utility.yul\":3164:3167   */\n      dup6\n        /* \"#utility.yul\":3064:3176   */\n      tag_67\n      jump\t// in\n    tag_139:\n        /* \"#utility.yul\":3057:3176   */\n      swap4\n      pop\n        /* \"#utility.yul\":3202:3205   */\n      dup4\n        /* \"#utility.yul\":3247:3251   */\n      0x20\n        /* \"#utility.yul\":3239:3245   */\n      dup3\n        /* \"#utility.yul\":3235:3252   */\n      mul\n        /* \"#utility.yul\":3230:3233   */\n      dup6\n        /* \"#utility.yul\":3226:3253   */\n      add\n        /* \"#utility.yul\":3277:3359   */\n      tag_140\n        /* \"#utility.yul\":3353:3358   */\n      dup6\n        /* \"#utility.yul\":3277:3359   */\n      tag_68\n      jump\t// in\n    tag_140:\n        /* \"#utility.yul\":3382:3389   */\n      dup1\n        /* \"#utility.yul\":3413:3414   */\n      0x00\n        /* \"#utility.yul\":3398:3842   */\n    tag_141:\n        /* \"#utility.yul\":3423:3429   */\n      dup6\n        /* \"#utility.yul\":3420:3421   */\n      dup2\n        /* \"#utility.yul\":3417:3430   */\n      lt\n        /* \"#utility.yul\":3398:3842   */\n      iszero\n      tag_143\n      jumpi\n        /* \"#utility.yul\":3494:3503   */\n      dup5\n        /* \"#utility.yul\":3488:3492   */\n      dup5\n        /* \"#utility.yul\":3484:3504   */\n      sub\n        /* \"#utility.yul\":3479:3482   */\n      dup10\n        /* \"#utility.yul\":3472:3505   */\n      mstore\n        /* \"#utility.yul\":3545:3551   */\n      dup2\n        /* \"#utility.yul\":3539:3552   */\n      mload\n        /* \"#utility.yul\":3573:3689   */\n      tag_144\n        /* \"#utility.yul\":3684:3688   */\n      dup6\n        /* \"#utility.yul\":3669:3682   */\n      dup3\n        /* \"#utility.yul\":3573:3689   */\n      tag_77\n      jump\t// in\n    tag_144:\n        /* \"#utility.yul\":3565:3689   */\n      swap5\n      pop\n        /* \"#utility.yul\":3712:3798   */\n      tag_145\n        /* \"#utility.yul\":3791:3797   */\n      dup4\n        /* \"#utility.yul\":3712:3798   */\n      tag_78\n      jump\t// in\n    tag_145:\n        /* \"#utility.yul\":3702:3798   */\n      swap3\n      pop\n        /* \"#utility.yul\":3827:3831   */\n      0x20\n        /* \"#utility.yul\":3822:3825   */\n      dup11\n        /* \"#utility.yul\":3818:3832   */\n      add\n        /* \"#utility.yul\":3811:3832   */\n      swap10\n      pop\n        /* \"#utility.yul\":3458:3842   */\n      pop\n        /* \"#utility.yul\":3445:3446   */\n      0x01\n        /* \"#utility.yul\":3442:3443   */\n      dup2\n        /* \"#utility.yul\":3438:3447   */\n      add\n        /* \"#utility.yul\":3433:3447   */\n      swap1\n      pop\n        /* \"#utility.yul\":3398:3842   */\n      jump(tag_141)\n    tag_143:\n        /* \"#utility.yul\":3402:3416   */\n      pop\n        /* \"#utility.yul\":3858:3862   */\n      dup3\n        /* \"#utility.yul\":3851:3862   */\n      swap8\n      pop\n        /* \"#utility.yul\":3878:3881   */\n      dup8\n        /* \"#utility.yul\":3871:3881   */\n      swap6\n      pop\n        /* \"#utility.yul\":2944:3887   */\n      pop\n      pop\n      pop\n      pop\n      pop\n        /* \"#utility.yul\":2768:3887   */\n      swap3\n      swap2\n      pop\n      pop\n      jump\t// out\n        /* \"#utility.yul\":3893:4370   */\n    tag_11:\n        /* \"#utility.yul\":4088:4092   */\n      0x00\n        /* \"#utility.yul\":4126:4128   */\n      0x20\n        /* \"#utility.yul\":4115:4124   */\n      dup3\n        /* \"#utility.yul\":4111:4129   */\n      add\n        /* \"#utility.yul\":4103:4129   */\n      swap1\n      pop\n        /* \"#utility.yul\":4175:4184   */\n      dup2\n        /* \"#utility.yul\":4169:4173   */\n      dup2\n        /* \"#utility.yul\":4165:4185   */\n      sub\n        /* \"#utility.yul\":4161:4162   */\n      0x00\n        /* \"#utility.yul\":4150:4159   */\n      dup4\n        /* \"#utility.yul\":4146:4163   */\n      add\n        /* \"#utility.yul\":4139:4186   */\n      mstore\n        /* \"#utility.yul\":4203:4363   */\n      tag_147\n        /* \"#utility.yul\":4358:4362   */\n      dup2\n        /* \"#utility.yul\":4349:4355   */\n      dup5\n        /* \"#utility.yul\":4203:4363   */\n      tag_79\n      jump\t// in\n    tag_147:\n        /* \"#utility.yul\":4195:4363   */\n      swap1\n      pop\n        /* \"#utility.yul\":3893:4370   */\n      swap3\n      swap2\n      pop\n      pop\n      jump\t// out\n        /* \"#utility.yul\":4376:4451   */\n    tag_80:\n        /* \"#utility.yul\":4409:4415   */\n      0x00\n        /* \"#utility.yul\":4442:4444   */\n      0x40\n        /* \"#utility.yul\":4436:4445   */\n      mload\n        /* \"#utility.yul\":4426:4445   */\n      swap1\n      pop\n        /* \"#utility.yul\":4376:4451   */\n      swap1\n      jump\t// out\n        /* \"#utility.yul\":4457:4574   */\n    tag_81:\n        /* \"#utility.yul\":4566:4567   */\n      0x00\n        /* \"#utility.yul\":4563:4564   */\n      dup1\n        /* \"#utility.yul\":4556:4568   */\n      revert\n        /* \"#utility.yul\":4580:4697   */\n    tag_82:\n        /* \"#utility.yul\":4689:4690   */\n      0x00\n        /* \"#utility.yul\":4686:4687   */\n      dup1\n        /* \"#utility.yul\":4679:4691   */\n      revert\n        /* \"#utility.yul\":4703:4820   */\n    tag_83:\n        /* \"#utility.yul\":4812:4813   */\n      0x00\n        /* \"#utility.yul\":4809:4810   */\n      dup1\n        /* \"#utility.yul\":4802:4814   */\n      revert\n        /* \"#utility.yul\":4826:4943   */\n    tag_84:\n        /* \"#utility.yul\":4935:4936   */\n      0x00\n        /* \"#utility.yul\":4932:4933   */\n      dup1\n        /* \"#utility.yul\":4925:4937   */\n      revert\n        /* \"#utility.yul\":4949:5129   */\n    tag_85:\n        /* \"#utility.yul\":4997:5074   */\n      0x4e487b7100000000000000000000000000000000000000000000000000000000\n        /* \"#utility.yul\":4994:4995   */\n      0x00\n        /* \"#utility.yul\":4987:5075   */\n      mstore\n        /* \"#utility.yul\":5094:5098   */\n      0x41\n        /* \"#utility.yul\":5091:5092   */\n      0x04\n        /* \"#utility.yul\":5084:5099   */\n      mstore\n        /* \"#utility.yul\":5118:5122   */\n      0x24\n        /* \"#utility.yul\":5115:5116   */\n      0x00\n        /* \"#utility.yul\":5108:5123   */\n      revert\n        /* \"#utility.yul\":5135:5416   */\n    tag_86:\n        /* \"#utility.yul\":5218:5245   */\n      tag_155\n        /* \"#utility.yul\":5240:5244   */\n      dup3\n        /* \"#utility.yul\":5218:5245   */\n      tag_72\n      jump\t// in\n    tag_155:\n        /* \"#utility.yul\":5210:5216   */\n      dup2\n        /* \"#utility.yul\":5206:5246   */\n      add\n        /* \"#utility.yul\":5348:5354   */\n      dup2\n        /* \"#utility.yul\":5336:5346   */\n      dup2\n        /* \"#utility.yul\":5333:5355   */\n      lt\n        /* \"#utility.yul\":5312:5330   */\n      0xffffffffffffffff\n        /* \"#utility.yul\":5300:5310   */\n      dup3\n        /* \"#utility.yul\":5297:5331   */\n      gt\n        /* \"#utility.yul\":5294:5356   */\n      or\n        /* \"#utility.yul\":5291:5379   */\n      iszero\n      tag_156\n      jumpi\n        /* \"#utility.yul\":5359:5377   */\n      tag_157\n      tag_85\n      jump\t// in\n    tag_157:\n        /* \"#utility.yul\":5291:5379   */\n    tag_156:\n        /* \"#utility.yul\":5399:5409   */\n      dup1\n        /* \"#utility.yul\":5395:5397   */\n      0x40\n        /* \"#utility.yul\":5388:5410   */\n      mstore\n        /* \"#utility.yul\":5178:5416   */\n      pop\n        /* \"#utility.yul\":5135:5416   */\n      pop\n      pop\n      jump\t// out\n        /* \"#utility.yul\":5422:5551   */\n    tag_87:\n        /* \"#utility.yul\":5456:5462   */\n      0x00\n        /* \"#utility.yul\":5483:5503   */\n      tag_159\n      tag_80\n      jump\t// in\n    tag_159:\n        /* \"#utility.yul\":5473:5503   */\n      swap1\n      pop\n        /* \"#utility.yul\":5512:5545   */\n      tag_160\n        /* \"#utility.yul\":5540:5544   */\n      dup3\n        /* \"#utility.yul\":5532:5538   */\n      dup3\n        /* \"#utility.yul\":5512:5545   */\n      tag_86\n      jump\t// in\n    tag_160:\n        /* \"#utility.yul\":5422:5551   */\n      swap2\n      swap1\n      pop\n      jump\t// out\n        /* \"#utility.yul\":5557:5865   */\n    tag_88:\n        /* \"#utility.yul\":5619:5623   */\n      0x00\n        /* \"#utility.yul\":5709:5727   */\n      0xffffffffffffffff\n        /* \"#utility.yul\":5701:5707   */\n      dup3\n        /* \"#utility.yul\":5698:5728   */\n      gt\n        /* \"#utility.yul\":5695:5751   */\n      iszero\n      tag_162\n      jumpi\n        /* \"#utility.yul\":5731:5749   */\n      tag_163\n      tag_85\n      jump\t// in\n    tag_163:\n        /* \"#utility.yul\":5695:5751   */\n    tag_162:\n        /* \"#utility.yul\":5769:5798   */\n      tag_164\n        /* \"#utility.yul\":5791:5797   */\n      dup3\n        /* \"#utility.yul\":5769:5798   */\n      tag_72\n      jump\t// in\n    tag_164:\n        /* \"#utility.yul\":5761:5798   */\n      swap1\n      pop\n        /* \"#utility.yul\":5853:5857   */\n      0x20\n        /* \"#utility.yul\":5847:5851   */\n      dup2\n        /* \"#utility.yul\":5843:5858   */\n      add\n        /* \"#utility.yul\":5835:5858   */\n      swap1\n      pop\n        /* \"#utility.yul\":5557:5865   */\n      swap2\n      swap1\n      pop\n      jump\t// out\n        /* \"#utility.yul\":5871:6019   */\n    tag_89:\n        /* \"#utility.yul\":5969:5975   */\n      dup3\n        /* \"#utility.yul\":5964:5967   */\n      dup2\n        /* \"#utility.yul\":5959:5962   */\n      dup4\n        /* \"#utility.yul\":5946:5976   */\n      calldatacopy\n        /* \"#utility.yul\":6010:6011   */\n      0x00\n        /* \"#utility.yul\":6001:6007   */\n      dup4\n        /* \"#utility.yul\":5996:5999   */\n      dup4\n        /* \"#utility.yul\":5992:6008   */\n      add\n        /* \"#utility.yul\":5985:6012   */\n      mstore\n        /* \"#utility.yul\":5871:6019   */\n      pop\n      pop\n      pop\n      jump\t// out\n        /* \"#utility.yul\":6025:6450   */\n    tag_90:\n        /* \"#utility.yul\":6103:6108   */\n      0x00\n        /* \"#utility.yul\":6128:6194   */\n      tag_167\n        /* \"#utility.yul\":6144:6193   */\n      tag_168\n        /* \"#utility.yul\":6186:6192   */\n      dup5\n        /* \"#utility.yul\":6144:6193   */\n      tag_88\n      jump\t// in\n    tag_168:\n        /* \"#utility.yul\":6128:6194   */\n      tag_87\n      jump\t// in\n    tag_167:\n        /* \"#utility.yul\":6119:6194   */\n      swap1\n      pop\n        /* \"#utility.yul\":6217:6223   */\n      dup3\n        /* \"#utility.yul\":6210:6215   */\n      dup2\n        /* \"#utility.yul\":6203:6224   */\n      mstore\n        /* \"#utility.yul\":6255:6259   */\n      0x20\n        /* \"#utility.yul\":6248:6253   */\n      dup2\n        /* \"#utility.yul\":6244:6260   */\n      add\n        /* \"#utility.yul\":6293:6296   */\n      dup5\n        /* \"#utility.yul\":6284:6290   */\n      dup5\n        /* \"#utility.yul\":6279:6282   */\n      dup5\n        /* \"#utility.yul\":6275:6291   */\n      add\n        /* \"#utility.yul\":6272:6297   */\n      gt\n        /* \"#utility.yul\":6269:6381   */\n      iszero\n      tag_169\n      jumpi\n        /* \"#utility.yul\":6300:6379   */\n      tag_170\n      tag_84\n      jump\t// in\n    tag_170:\n        /* \"#utility.yul\":6269:6381   */\n    tag_169:\n        /* \"#utility.yul\":6390:6444   */\n      tag_171\n        /* \"#utility.yul\":6437:6443   */\n      dup5\n        /* \"#utility.yul\":6432:6435   */\n      dup3\n        /* \"#utility.yul\":6427:6430   */\n      dup6\n        /* \"#utility.yul\":6390:6444   */\n      tag_89\n      jump\t// in\n    tag_171:\n        /* \"#utility.yul\":6109:6450   */\n      pop\n        /* \"#utility.yul\":6025:6450   */\n      swap4\n      swap3\n      pop\n      pop\n      pop\n      jump\t// out\n        /* \"#utility.yul\":6470:6810   */\n    tag_91:\n        /* \"#utility.yul\":6526:6531   */\n      0x00\n        /* \"#utility.yul\":6575:6578   */\n      dup3\n        /* \"#utility.yul\":6568:6572   */\n      0x1f\n        /* \"#utility.yul\":6560:6566   */\n      dup4\n        /* \"#utility.yul\":6556:6573   */\n      add\n        /* \"#utility.yul\":6552:6579   */\n      slt\n        /* \"#utility.yul\":6542:6664   */\n      tag_173\n      jumpi\n        /* \"#utility.yul\":6583:6662   */\n      tag_174\n      tag_83\n      jump\t// in\n    tag_174:\n        /* \"#utility.yul\":6542:6664   */\n    tag_173:\n        /* \"#utility.yul\":6700:6706   */\n      dup2\n        /* \"#utility.yul\":6687:6707   */\n      calldataload\n        /* \"#utility.yul\":6725:6804   */\n      tag_175\n        /* \"#utility.yul\":6800:6803   */\n      dup5\n        /* \"#utility.yul\":6792:6798   */\n      dup3\n        /* \"#utility.yul\":6785:6789   */\n      0x20\n        /* \"#utility.yul\":6777:6783   */\n      dup7\n        /* \"#utility.yul\":6773:6790   */\n      add\n        /* \"#utility.yul\":6725:6804   */\n      tag_90\n      jump\t// in\n    tag_175:\n        /* \"#utility.yul\":6716:6804   */\n      swap2\n      pop\n        /* \"#utility.yul\":6532:6810   */\n      pop\n        /* \"#utility.yul\":6470:6810   */\n      swap3\n      swap2\n      pop\n      pop\n      jump\t// out\n        /* \"#utility.yul\":6816:7325   */\n    tag_14:\n        /* \"#utility.yul\":6885:6891   */\n      0x00\n        /* \"#utility.yul\":6934:6936   */\n      0x20\n        /* \"#utility.yul\":6922:6931   */\n      dup3\n        /* \"#utility.yul\":6913:6920   */\n      dup5\n        /* \"#utility.yul\":6909:6932   */\n      sub\n        /* \"#utility.yul\":6905:6937   */\n      slt\n        /* \"#utility.yul\":6902:7021   */\n      iszero\n      tag_177\n      jumpi\n        /* \"#utility.yul\":6940:7019   */\n      tag_178\n      tag_81\n      jump\t// in\n    tag_178:\n        /* \"#utility.yul\":6902:7021   */\n    tag_177:\n        /* \"#utility.yul\":7088:7089   */\n      0x00\n        /* \"#utility.yul\":7077:7086   */\n      dup3\n        /* \"#utility.yul\":7073:7090   */\n      add\n        /* \"#utility.yul\":7060:7091   */\n      calldataload\n        /* \"#utility.yul\":7118:7136   */\n      0xffffffffffffffff\n        /* \"#utility.yul\":7110:7116   */\n      dup2\n        /* \"#utility.yul\":7107:7137   */\n      gt\n        /* \"#utility.yul\":7104:7221   */\n      iszero\n      tag_179\n      jumpi\n        /* \"#utility.yul\":7140:7219   */\n      tag_180\n      tag_82\n      jump\t// in\n    tag_180:\n        /* \"#utility.yul\":7104:7221   */\n    tag_179:\n        /* \"#utility.yul\":7245:7308   */\n      tag_181\n        /* \"#utility.yul\":7300:7307   */\n      dup5\n        /* \"#utility.yul\":7291:7297   */\n      dup3\n        /* \"#utility.yul\":7280:7289   */\n      dup6\n        /* \"#utility.yul\":7276:7298   */\n      add\n        /* \"#utility.yul\":7245:7308   */\n      tag_91\n      jump\t// in\n    tag_181:\n        /* \"#utility.yul\":7235:7308   */\n      swap2\n      pop\n        /* \"#utility.yul\":7031:7318   */\n      pop\n        /* \"#utility.yul\":6816:7325   */\n      swap3\n      swap2\n      pop\n      pop\n      jump\t// out\n        /* \"#utility.yul\":7331:7457   */\n    tag_92:\n        /* \"#utility.yul\":7368:7375   */\n      0x00\n        /* \"#utility.yul\":7408:7450   */\n      0xffffffffffffffffffffffffffffffffffffffff\n        /* \"#utility.yul\":7401:7406   */\n      dup3\n        /* \"#utility.yul\":7397:7451   */\n      and\n        /* \"#utility.yul\":7386:7451   */\n      swap1\n      pop\n        /* \"#utility.yul\":7331:7457   */\n      swap2\n      swap1\n      pop\n      jump\t// out\n        /* \"#utility.yul\":7463:7559   */\n    tag_93:\n        /* \"#utility.yul\":7500:7507   */\n      0x00\n        /* \"#utility.yul\":7529:7553   */\n      tag_184\n        /* \"#utility.yul\":7547:7552   */\n      dup3\n        /* \"#utility.yul\":7529:7553   */\n      tag_92\n      jump\t// in\n    tag_184:\n        /* \"#utility.yul\":7518:7553   */\n      swap1\n      pop\n        /* \"#utility.yul\":7463:7559   */\n      swap2\n      swap1\n      pop\n      jump\t// out\n        /* \"#utility.yul\":7565:7683   */\n    tag_94:\n        /* \"#utility.yul\":7652:7676   */\n      tag_186\n        /* \"#utility.yul\":7670:7675   */\n      dup2\n        /* \"#utility.yul\":7652:7676   */\n      tag_93\n      jump\t// in\n    tag_186:\n        /* \"#utility.yul\":7647:7650   */\n      dup3\n        /* \"#utility.yul\":7640:7677   */\n      mstore\n        /* \"#utility.yul\":7565:7683   */\n      pop\n      pop\n      jump\t// out\n        /* \"#utility.yul\":7689:7911   */\n    tag_21:\n        /* \"#utility.yul\":7782:7786   */\n      0x00\n        /* \"#utility.yul\":7820:7822   */\n      0x20\n        /* \"#utility.yul\":7809:7818   */\n      dup3\n        /* \"#utility.yul\":7805:7823   */\n      add\n        /* \"#utility.yul\":7797:7823   */\n      swap1\n      pop\n        /* \"#utility.yul\":7833:7904   */\n      tag_188\n        /* \"#utility.yul\":7901:7902   */\n      0x00\n        /* \"#utility.yul\":7890:7899   */\n      dup4\n        /* \"#utility.yul\":7886:7903   */\n      add\n        /* \"#utility.yul\":7877:7883   */\n      dup5\n        /* \"#utility.yul\":7833:7904   */\n      tag_94\n      jump\t// in\n    tag_188:\n        /* \"#utility.yul\":7689:7911   */\n      swap3\n      swap2\n      pop\n      pop\n      jump\t// out\n        /* \"#utility.yul\":7917:8039   */\n    tag_95:\n        /* \"#utility.yul\":7990:8014   */\n      tag_190\n        /* \"#utility.yul\":8008:8013   */\n      dup2\n        /* \"#utility.yul\":7990:8014   */\n      tag_93\n      jump\t// in\n    tag_190:\n        /* \"#utility.yul\":7983:7988   */\n      dup2\n        /* \"#utility.yul\":7980:8015   */\n      eq\n        /* \"#utility.yul\":7970:8033   */\n      tag_191\n      jumpi\n        /* \"#utility.yul\":8029:8030   */\n      0x00\n        /* \"#utility.yul\":8026:8027   */\n      dup1\n        /* \"#utility.yul\":8019:8031   */\n      revert\n        /* \"#utility.yul\":7970:8033   */\n    tag_191:\n        /* \"#utility.yul\":7917:8039   */\n      pop\n      jump\t// out\n        /* \"#utility.yul\":8045:8184   */\n    tag_96:\n        /* \"#utility.yul\":8091:8096   */\n      0x00\n        /* \"#utility.yul\":8129:8135   */\n      dup2\n        /* \"#utility.yul\":8116:8136   */\n      calldataload\n        /* \"#utility.yul\":8107:8136   */\n      swap1\n      pop\n        /* \"#utility.yul\":8145:8178   */\n      tag_193\n        /* \"#utility.yul\":8172:8177   */\n      dup2\n        /* \"#utility.yul\":8145:8178   */\n      tag_95\n      jump\t// in\n    tag_193:\n        /* \"#utility.yul\":8045:8184   */\n      swap3\n      swap2\n      pop\n      pop\n      jump\t// out\n        /* \"#utility.yul\":8190:8519   */\n    tag_24:\n        /* \"#utility.yul\":8249:8255   */\n      0x00\n        /* \"#utility.yul\":8298:8300   */\n      0x20\n        /* \"#utility.yul\":8286:8295   */\n      dup3\n        /* \"#utility.yul\":8277:8284   */\n      dup5\n        /* \"#utility.yul\":8273:8296   */\n      sub\n        /* \"#utility.yul\":8269:8301   */\n      slt\n        /* \"#utility.yul\":8266:8385   */\n      iszero\n      tag_195\n      jumpi\n        /* \"#utility.yul\":8304:8383   */\n      tag_196\n      tag_81\n      jump\t// in\n    tag_196:\n        /* \"#utility.yul\":8266:8385   */\n    tag_195:\n        /* \"#utility.yul\":8424:8425   */\n      0x00\n        /* \"#utility.yul\":8449:8502   */\n      tag_197\n        /* \"#utility.yul\":8494:8501   */\n      dup5\n        /* \"#utility.yul\":8485:8491   */\n      dup3\n        /* \"#utility.yul\":8474:8483   */\n      dup6\n        /* \"#utility.yul\":8470:8492   */\n      add\n        /* \"#utility.yul\":8449:8502   */\n      tag_96\n      jump\t// in\n    tag_197:\n        /* \"#utility.yul\":8439:8502   */\n      swap2\n      pop\n        /* \"#utility.yul\":8395:8512   */\n      pop\n        /* \"#utility.yul\":8190:8519   */\n      swap3\n      swap2\n      pop\n      pop\n      jump\t// out\n        /* \"#utility.yul\":8525:8705   */\n    tag_97:\n        /* \"#utility.yul\":8573:8650   */\n      0x4e487b7100000000000000000000000000000000000000000000000000000000\n        /* \"#utility.yul\":8570:8571   */\n      0x00\n        /* \"#utility.yul\":8563:8651   */\n      mstore\n        /* \"#utility.yul\":8670:8674   */\n      0x22\n        /* \"#utility.yul\":8667:8668   */\n      0x04\n        /* \"#utility.yul\":8660:8675   */\n      mstore\n        /* \"#utility.yul\":8694:8698   */\n      0x24\n        /* \"#utility.yul\":8691:8692   */\n      0x00\n        /* \"#utility.yul\":8684:8699   */\n      revert\n        /* \"#utility.yul\":8711:9031   */\n    tag_31:\n        /* \"#utility.yul\":8755:8761   */\n      0x00\n        /* \"#utility.yul\":8792:8793   */\n      0x02\n        /* \"#utility.yul\":8786:8790   */\n      dup3\n        /* \"#utility.yul\":8782:8794   */\n      div\n        /* \"#utility.yul\":8772:8794   */\n      swap1\n      pop\n        /* \"#utility.yul\":8839:8840   */\n      0x01\n        /* \"#utility.yul\":8833:8837   */\n      dup3\n        /* \"#utility.yul\":8829:8841   */\n      and\n        /* \"#utility.yul\":8860:8878   */\n      dup1\n        /* \"#utility.yul\":8850:8931   */\n      tag_200\n      jumpi\n        /* \"#utility.yul\":8916:8920   */\n      0x7f\n        /* \"#utility.yul\":8908:8914   */\n      dup3\n        /* \"#utility.yul\":8904:8921   */\n      and\n        /* \"#utility.yul\":8894:8921   */\n      swap2\n      pop\n        /* \"#utility.yul\":8850:8931   */\n    tag_200:\n        /* \"#utility.yul\":8978:8980   */\n      0x20\n        /* \"#utility.yul\":8970:8976   */\n      dup3\n        /* \"#utility.yul\":8967:8981   */\n      lt\n        /* \"#utility.yul\":8947:8965   */\n      dup2\n        /* \"#utility.yul\":8944:8982   */\n      sub\n        /* \"#utility.yul\":8941:9025   */\n      tag_201\n      jumpi\n        /* \"#utility.yul\":8997:9015   */\n      tag_202\n      tag_97\n      jump\t// in\n    tag_202:\n        /* \"#utility.yul\":8941:9025   */\n    tag_201:\n        /* \"#utility.yul\":8762:9031   */\n      pop\n        /* \"#utility.yul\":8711:9031   */\n      swap2\n      swap1\n      pop\n      jump\t// out\n        /* \"#utility.yul\":9037:9178   */\n    tag_98:\n        /* \"#utility.yul\":9086:9090   */\n      0x00\n        /* \"#utility.yul\":9109:9112   */\n      dup2\n        /* \"#utility.yul\":9101:9112   */\n      swap1\n      pop\n        /* \"#utility.yul\":9132:9135   */\n      dup2\n        /* \"#utility.yul\":9129:9130   */\n      0x00\n        /* \"#utility.yul\":9122:9136   */\n      mstore\n        /* \"#utility.yul\":9166:9170   */\n      0x20\n        /* \"#utility.yul\":9163:9164   */\n      0x00\n        /* \"#utility.yul\":9153:9171   */\n      keccak256\n        /* \"#utility.yul\":9145:9171   */\n      swap1\n      pop\n        /* \"#utility.yul\":9037:9178   */\n      swap2\n      swap1\n      pop\n      jump\t// out\n        /* \"#utility.yul\":9184:9277   */\n    tag_99:\n        /* \"#utility.yul\":9221:9227   */\n      0x00\n        /* \"#utility.yul\":9268:9270   */\n      0x20\n        /* \"#utility.yul\":9263:9265   */\n      0x1f\n        /* \"#utility.yul\":9256:9261   */\n      dup4\n        /* \"#utility.yul\":9252:9266   */\n      add\n        /* \"#utility.yul\":9248:9271   */\n      div\n        /* \"#utility.yul\":9238:9271   */\n      swap1\n      pop\n        /* \"#utility.yul\":9184:9277   */\n      swap2\n      swap1\n      pop\n      jump\t// out\n        /* \"#utility.yul\":9283:9390   */\n    tag_100:\n        /* \"#utility.yul\":9327:9335   */\n      0x00\n        /* \"#utility.yul\":9377:9382   */\n      dup3\n        /* \"#utility.yul\":9371:9375   */\n      dup3\n        /* \"#utility.yul\":9367:9383   */\n      shl\n        /* \"#utility.yul\":9346:9383   */\n      swap1\n      pop\n        /* \"#utility.yul\":9283:9390   */\n      swap3\n      swap2\n      pop\n      pop\n      jump\t// out\n        /* \"#utility.yul\":9396:9789   */\n    tag_101:\n        /* \"#utility.yul\":9465:9471   */\n      0x00\n        /* \"#utility.yul\":9515:9516   */\n      0x08\n        /* \"#utility.yul\":9503:9513   */\n      dup4\n        /* \"#utility.yul\":9499:9517   */\n      mul\n        /* \"#utility.yul\":9538:9635   */\n      tag_207\n        /* \"#utility.yul\":9568:9634   */\n      0xffffffffffffffffffffffffffffffffffffffffffffffffffffffffffffffff\n        /* \"#utility.yul\":9557:9566   */\n      dup3\n        /* \"#utility.yul\":9538:9635   */\n      tag_100\n      jump\t// in\n    tag_207:\n        /* \"#utility.yul\":9656:9695   */\n      tag_208\n        /* \"#utility.yul\":9686:9694   */\n      dup7\n        /* \"#utility.yul\":9675:9684   */\n      dup4\n        /* \"#utility.yul\":9656:9695   */\n      tag_100\n      jump\t// in\n    tag_208:\n        /* \"#utility.yul\":9644:9695   */\n      swap6\n      pop\n        /* \"#utility.yul\":9728:9732   */\n      dup1\n        /* \"#utility.yul\":9724:9733   */\n      not\n        /* \"#utility.yul\":9717:9722   */\n      dup5\n        /* \"#utility.yul\":9713:9734   */\n      and\n        /* \"#utility.yul\":9704:9734   */\n      swap4\n      pop\n        /* \"#utility.yul\":9777:9781   */\n      dup1\n        /* \"#utility.yul\":9767:9775   */\n      dup7\n        /* \"#utility.yul\":9763:9782   */\n      and\n        /* \"#utility.yul\":9756:9761   */\n      dup5\n        /* \"#utility.yul\":9753:9783   */\n      or\n        /* \"#utility.yul\":9743:9783   */\n      swap3\n      pop\n        /* \"#utility.yul\":9472:9789   */\n      pop\n      pop\n        /* \"#utility.yul\":9396:9789   */\n      swap4\n      swap3\n      pop\n      pop\n      pop\n      jump\t// out\n        /* \"#utility.yul\":9795:9855   */\n    tag_102:\n        /* \"#utility.yul\":9823:9826   */\n      0x00\n        /* \"#utility.yul\":9844:9849   */\n      dup2\n        /* \"#utility.yul\":9837:9849   */\n      swap1\n      pop\n        /* \"#utility.yul\":9795:9855   */\n      swap2\n      swap1\n      pop\n      jump\t// out\n        /* \"#utility.yul\":9861:10003   */\n    tag_103:\n        /* \"#utility.yul\":9911:9920   */\n      0x00\n        /* \"#utility.yul\":9944:9997   */\n      tag_211\n        /* \"#utility.yul\":9962:9996   */\n      tag_212\n        /* \"#utility.yul\":9971:9995   */\n      tag_213\n        /* \"#utility.yul\":9989:9994   */\n      dup5\n        /* \"#utility.yul\":9971:9995   */\n      tag_74\n      jump\t// in\n    tag_213:\n        /* \"#utility.yul\":9962:9996   */\n      tag_102\n      jump\t// in\n    tag_212:\n        /* \"#utility.yul\":9944:9997   */\n      tag_74\n      jump\t// in\n    tag_211:\n        /* \"#utility.yul\":9931:9997   */\n      swap1\n      pop\n        /* \"#utility.yul\":9861:10003   */\n      swap2\n      swap1\n      pop\n      jump\t// out\n        /* \"#utility.yul\":10009:10084   */\n    tag_104:\n        /* \"#utility.yul\":10052:10055   */\n      0x00\n        /* \"#utility.yul\":10073:10078   */\n      dup2\n        /* \"#utility.yul\":10066:10078   */\n      swap1\n      pop\n        /* \"#utility.yul\":10009:10084   */\n      swap2\n      swap1\n      pop\n      jump\t// out\n        /* \"#utility.yul\":10090:10359   */\n    tag_105:\n        /* \"#utility.yul\":10200:10239   */\n      tag_216\n        /* \"#utility.yul\":10231:10238   */\n      dup4\n        /* \"#utility.yul\":10200:10239   */\n      tag_103\n      jump\t// in\n    tag_216:\n        /* \"#utility.yul\":10261:10352   */\n      tag_217\n        /* \"#utility.yul\":10310:10351   */\n      tag_218\n        /* \"#utility.yul\":10334:10350   */\n      dup3\n        /* \"#utility.yul\":10310:10351   */\n      tag_104\n      jump\t// in\n    tag_218:\n        /* \"#utility.yul\":10302:10308   */\n      dup5\n        /* \"#utility.yul\":10295:10299   */\n      dup5\n        /* \"#utility.yul\":10289:10300   */\n      sload\n        /* \"#utility.yul\":10261:10352   */\n      tag_101\n      jump\t// in\n    tag_217:\n        /* \"#utility.yul\":10255:10259   */\n      dup3\n        /* \"#utility.yul\":10248:10353   */\n      sstore\n        /* \"#utility.yul\":10166:10359   */\n      pop\n        /* \"#utility.yul\":10090:10359   */\n      pop\n      pop\n      pop\n      jump\t// out\n        /* \"#utility.yul\":10365:10438   */\n    tag_106:\n        /* \"#utility.yul\":10410:10413   */\n      0x00\n        /* \"#utility.yul\":10365:10438   */\n      swap1\n      jump\t// out\n        /* \"#utility.yul\":10444:10633   */\n    tag_107:\n        /* \"#utility.yul\":10521:10553   */\n      tag_221\n      tag_106\n      jump\t// in\n    tag_221:\n        /* \"#utility.yul\":10562:10627   */\n      tag_222\n        /* \"#utility.yul\":10620:10626   */\n      dup2\n        /* \"#utility.yul\":10612:10618   */\n      dup5\n        /* \"#utility.yul\":10606:10610   */\n      dup5\n        /* \"#utility.yul\":10562:10627   */\n      tag_105\n      jump\t// in\n    tag_222:\n        /* \"#utility.yul\":10497:10633   */\n      pop\n        /* \"#utility.yul\":10444:10633   */\n      pop\n      pop\n      jump\t// out\n        /* \"#utility.yul\":10639:10825   */\n    tag_108:\n        /* \"#utility.yul\":10699:10819   */\n    tag_224:\n        /* \"#utility.yul\":10716:10719   */\n      dup2\n        /* \"#utility.yul\":10709:10714   */\n      dup2\n        /* \"#utility.yul\":10706:10720   */\n      lt\n        /* \"#utility.yul\":10699:10819   */\n      iszero\n      tag_226\n      jumpi\n        /* \"#utility.yul\":10770:10809   */\n      tag_227\n        /* \"#utility.yul\":10807:10808   */\n      0x00\n        /* \"#utility.yul\":10800:10805   */\n      dup3\n        /* \"#utility.yul\":10770:10809   */\n      tag_107\n      jump\t// in\n    tag_227:\n        /* \"#utility.yul\":10743:10744   */\n      0x01\n        /* \"#utility.yul\":10736:10741   */\n      dup2\n        /* \"#utility.yul\":10732:10745   */\n      add\n        /* \"#utility.yul\":10723:10745   */\n      swap1\n      pop\n        /* \"#utility.yul\":10699:10819   */\n      jump(tag_224)\n    tag_226:\n        /* \"#utility.yul\":10639:10825   */\n      pop\n      pop\n      jump\t// out\n        /* \"#utility.yul\":10831:11374   */\n    tag_109:\n        /* \"#utility.yul\":10932:10934   */\n      0x1f\n        /* \"#utility.yul\":10927:10930   */\n      dup3\n        /* \"#utility.yul\":10924:10935   */\n      gt\n        /* \"#utility.yul\":10921:11367   */\n      iszero\n      tag_229\n      jumpi\n        /* \"#utility.yul\":10966:11004   */\n      tag_230\n        /* \"#utility.yul\":10998:11003   */\n      dup2\n        /* \"#utility.yul\":10966:11004   */\n      tag_98\n      jump\t// in\n    tag_230:\n        /* \"#utility.yul\":11050:11079   */\n      tag_231\n        /* \"#utility.yul\":11068:11078   */\n      dup5\n        /* \"#utility.yul\":11050:11079   */\n      tag_99\n      jump\t// in\n    tag_231:\n        /* \"#utility.yul\":11040:11048   */\n      dup2\n        /* \"#utility.yul\":11036:11080   */\n      add\n        /* \"#utility.yul\":11233:11235   */\n      0x20\n        /* \"#utility.yul\":11221:11231   */\n      dup6\n        /* \"#utility.yul\":11218:11236   */\n      lt\n        /* \"#utility.yul\":11215:11264   */\n      iszero\n      tag_232\n      jumpi\n        /* \"#utility.yul\":11254:11262   */\n      dup2\n        /* \"#utility.yul\":11239:11262   */\n      swap1\n      pop\n        /* \"#utility.yul\":11215:11264   */\n    tag_232:\n        /* \"#utility.yul\":11277:11357   */\n      tag_233\n        /* \"#utility.yul\":11333:11355   */\n      tag_234\n        /* \"#utility.yul\":11351:11354   */\n      dup6\n        /* \"#utility.yul\":11333:11355   */\n      tag_99\n      jump\t// in\n    tag_234:\n        /* \"#utility.yul\":11323:11331   */\n      dup4\n        /* \"#utility.yul\":11319:11356   */\n      add\n        /* \"#utility.yul\":11306:11317   */\n      dup3\n        /* \"#utility.yul\":11277:11357   */\n      tag_108\n      jump\t// in\n    tag_233:\n        /* \"#utility.yul\":10936:11367   */\n      pop\n      pop\n        /* \"#utility.yul\":10921:11367   */\n    tag_229:\n        /* \"#utility.yul\":10831:11374   */\n      pop\n      pop\n      pop\n      jump\t// out\n        /* \"#utility.yul\":11380:11497   */\n    tag_110:\n        /* \"#utility.yul\":11434:11442   */\n      0x00\n        /* \"#utility.yul\":11484:11489   */\n      dup3\n        /* \"#utility.yul\":11478:11482   */\n      dup3\n        /* \"#utility.yul\":11474:11490   */\n      shr\n        /* \"#utility.yul\":11453:11490   */\n      swap1\n      pop\n        /* \"#utility.yul\":11380:11497   */\n      swap3\n      swap2\n      pop\n      pop\n      jump\t// out\n        /* \"#utility.yul\":11503:11672   */\n    tag_111:\n        /* \"#utility.yul\":11547:11553   */\n      0x00\n        /* \"#utility.yul\":11580:11631   */\n      tag_237\n        /* \"#utility.yul\":11628:11629   */\n      0x00\n        /* \"#utility.yul\":11624:11630   */\n      not\n        /* \"#utility.yul\":11616:11621   */\n      dup5\n        /* \"#utility.yul\":11613:11614   */\n      0x08\n        /* \"#utility.yul\":11609:11622   */\n      mul\n        /* \"#utility.yul\":11580:11631   */\n      tag_110\n      jump\t// in\n    tag_237:\n        /* \"#utility.yul\":11576:11632   */\n      not\n        /* \"#utility.yul\":11661:11665   */\n      dup1\n        /* \"#utility.yul\":11655:11659   */\n      dup4\n        /* \"#utility.yul\":11651:11666   */\n      and\n        /* \"#utility.yul\":11641:11666   */\n      swap2\n      pop\n        /* \"#utility.yul\":11554:11672   */\n      pop\n        /* \"#utility.yul\":11503:11672   */\n      swap3\n      swap2\n      pop\n      pop\n      jump\t// out\n        /* \"#utility.yul\":11677:11972   */\n    tag_112:\n        /* \"#utility.yul\":11753:11757   */\n      0x00\n        /* \"#utility.yul\":11899:11928   */\n      tag_239\n        /* \"#utility.yul\":11924:11927   */\n      dup4\n        /* \"#utility.yul\":11918:11922   */\n      dup4\n        /* \"#utility.yul\":11899:11928   */\n      tag_111\n      jump\t// in\n    tag_239:\n        /* \"#utility.yul\":11891:11928   */\n      swap2\n      pop\n        /* \"#utility.yul\":11961:11964   */\n      dup3\n        /* \"#utility.yul\":11958:11959   */\n      0x02\n        /* \"#utility.yul\":11954:11965   */\n      mul\n        /* \"#utility.yul\":11948:11952   */\n      dup3\n        /* \"#utility.yul\":11945:11966   */\n      or\n        /* \"#utility.yul\":11937:11966   */\n      swap1\n      pop\n        /* \"#utility.yul\":11677:11972   */\n      swap3\n      swap2\n      pop\n      pop\n      jump\t// out\n        /* \"#utility.yul\":11977:13372   */\n    tag_42:\n        /* \"#utility.yul\":12094:12131   */\n      tag_241\n        /* \"#utility.yul\":12127:12130   */\n      dup3\n        /* \"#utility.yul\":12094:12131   */\n      tag_69\n      jump\t// in\n    tag_241:\n        /* \"#utility.yul\":12196:12214   */\n      0xffffffffffffffff\n        /* \"#utility.yul\":12188:12194   */\n      dup2\n        /* \"#utility.yul\":12185:12215   */\n      gt\n        /* \"#utility.yul\":12182:12238   */\n      iszero\n      tag_242\n      jumpi\n        /* \"#utility.yul\":12218:12236   */\n      tag_243\n      tag_85\n      jump\t// in\n    tag_243:\n        /* \"#utility.yul\":12182:12238   */\n    tag_242:\n        /* \"#utility.yul\":12262:12300   */\n      tag_244\n        /* \"#utility.yul\":12294:12298   */\n      dup3\n        /* \"#utility.yul\":12288:12299   */\n      sload\n        /* \"#utility.yul\":12262:12300   */\n      tag_31\n      jump\t// in\n    tag_244:\n        /* \"#utility.yul\":12347:12414   */\n      tag_245\n        /* \"#utility.yul\":12407:12413   */\n      dup3\n        /* \"#utility.yul\":12399:12405   */\n      dup3\n        /* \"#utility.yul\":12393:12397   */\n      dup6\n        /* \"#utility.yul\":12347:12414   */\n      tag_109\n      jump\t// in\n    tag_245:\n        /* \"#utility.yul\":12441:12442   */\n      0x00\n        /* \"#utility.yul\":12465:12469   */\n      0x20\n        /* \"#utility.yul\":12452:12469   */\n      swap1\n      pop\n        /* \"#utility.yul\":12497:12499   */\n      0x1f\n        /* \"#utility.yul\":12489:12495   */\n      dup4\n        /* \"#utility.yul\":12486:12500   */\n      gt\n        /* \"#utility.yul\":12514:12515   */\n      0x01\n        /* \"#utility.yul\":12509:13127   */\n      dup2\n      eq\n      tag_247\n      jumpi\n        /* \"#utility.yul\":13171:13172   */\n      0x00\n        /* \"#utility.yul\":13188:13194   */\n      dup5\n        /* \"#utility.yul\":13185:13262   */\n      iszero\n      tag_248\n      jumpi\n        /* \"#utility.yul\":13237:13246   */\n      dup3\n        /* \"#utility.yul\":13232:13235   */\n      dup8\n        /* \"#utility.yul\":13228:13247   */\n      add\n        /* \"#utility.yul\":13222:13248   */\n      mload\n        /* \"#utility.yul\":13213:13248   */\n      swap1\n      pop\n        /* \"#utility.yul\":13185:13262   */\n    tag_248:\n        /* \"#utility.yul\":13288:13355   */\n      tag_249\n        /* \"#utility.yul\":13348:13354   */\n      dup6\n        /* \"#utility.yul\":13341:13346   */\n      dup3\n        /* \"#utility.yul\":13288:13355   */\n      tag_112\n      jump\t// in\n    tag_249:\n        /* \"#utility.yul\":13282:13286   */\n      dup7\n        /* \"#utility.yul\":13275:13356   */\n      sstore\n        /* \"#utility.yul\":13144:13366   */\n      pop\n        /* \"#utility.yul\":12479:13366   */\n      jump(tag_246)\n        /* \"#utility.yul\":12509:13127   */\n    tag_247:\n        /* \"#utility.yul\":12561:12565   */\n      0x1f\n        /* \"#utility.yul\":12557:12566   */\n      not\n        /* \"#utility.yul\":12549:12555   */\n      dup5\n        /* \"#utility.yul\":12545:12567   */\n      and\n        /* \"#utility.yul\":12595:12632   */\n      tag_250\n        /* \"#utility.yul\":12627:12631   */\n      dup7\n        /* \"#utility.yul\":12595:12632   */\n      tag_98\n      jump\t// in\n    tag_250:\n        /* \"#utility.yul\":12654:12655   */\n      0x00\n        /* \"#utility.yul\":12668:12876   */\n    tag_251:\n        /* \"#utility.yul\":12682:12689   */\n      dup3\n        /* \"#utility.yul\":12679:12680   */\n      dup2\n        /* \"#utility.yul\":12676:12690   */\n      lt\n        /* \"#utility.yul\":12668:12876   */\n      iszero\n      tag_253\n      jumpi\n        /* \"#utility.yul\":12761:12770   */\n      dup5\n        /* \"#utility.yul\":12756:12759   */\n      dup10\n        /* \"#utility.yul\":12752:12771   */\n      add\n        /* \"#utility.yul\":12746:12772   */\n      mload\n        /* \"#utility.yul\":12738:12744   */\n      dup3\n        /* \"#utility.yul\":12731:12773   */\n      sstore\n        /* \"#utility.yul\":12812:12813   */\n      0x01\n        /* \"#utility.yul\":12804:12810   */\n      dup3\n        /* \"#utility.yul\":12800:12814   */\n      add\n        /* \"#utility.yul\":12790:12814   */\n      swap2\n      pop\n        /* \"#utility.yul\":12859:12861   */\n      0x20\n        /* \"#utility.yul\":12848:12857   */\n      dup6\n        /* \"#utility.yul\":12844:12862   */\n      add\n        /* \"#utility.yul\":12831:12862   */\n      swap5\n      pop\n        /* \"#utility.yul\":12705:12709   */\n      0x20\n        /* \"#utility.yul\":12702:12703   */\n      dup2\n        /* \"#utility.yul\":12698:12710   */\n      add\n        /* \"#utility.yul\":12693:12710   */\n      swap1\n      pop\n        /* \"#utility.yul\":12668:12876   */\n      jump(tag_251)\n    tag_253:\n        /* \"#utility.yul\":12904:12910   */\n      dup7\n        /* \"#utility.yul\":12895:12902   */\n      dup4\n        /* \"#utility.yul\":12892:12911   */\n      lt\n        /* \"#utility.yul\":12889:13068   */\n      iszero\n      tag_254\n      jumpi\n        /* \"#utility.yul\":12962:12971   */\n      dup5\n        /* \"#utility.yul\":12957:12960   */\n      dup10\n        /* \"#utility.yul\":12953:12972   */\n      add\n        /* \"#utility.yul\":12947:12973   */\n      mload\n        /* \"#utility.yul\":13005:13053   */\n      tag_255\n        /* \"#utility.yul\":13047:13051   */\n      0x1f\n        /* \"#utility.yul\":13039:13045   */\n      dup10\n        /* \"#utility.yul\":13035:13052   */\n      and\n        /* \"#utility.yul\":13024:13033   */\n      dup3\n        /* \"#utility.yul\":13005:13053   */\n      tag_111\n      jump\t// in\n    tag_255:\n        /* \"#utility.yul\":12997:13003   */\n      dup4\n        /* \"#utility.yul\":12990:13054   */\n      sstore\n        /* \"#utility.yul\":12912:13068   */\n      pop\n        /* \"#utility.yul\":12889:13068   */\n    tag_254:\n        /* \"#utility.yul\":13114:13115   */\n      0x01\n        /* \"#utility.yul\":13110:13111   */\n      0x02\n        /* \"#utility.yul\":13102:13108   */\n      dup9\n        /* \"#utility.yul\":13098:13112   */\n      mul\n        /* \"#utility.yul\":13094:13116   */\n      add\n        /* \"#utility.yul\":13088:13092   */\n      dup9\n        /* \"#utility.yul\":13081:13117   */\n      sstore\n        /* \"#utility.yul\":12516:13127   */\n      pop\n      pop\n      pop\n        /* \"#utility.yul\":12479:13366   */\n    tag_246:\n      pop\n        /* \"#utility.yul\":12069:13372   */\n      pop\n      pop\n      pop\n        /* \"#utility.yul\":11977:13372   */\n      pop\n      pop\n      jump\t// out\n        /* \"#utility.yul\":13378:13547   */\n    tag_113:\n        /* \"#utility.yul\":13462:13473   */\n      0x00\n        /* \"#utility.yul\":13496:13502   */\n      dup3\n        /* \"#utility.yul\":13491:13494   */\n      dup3\n        /* \"#utility.yul\":13484:13503   */\n      mstore\n        /* \"#utility.yul\":13536:13540   */\n      0x20\n        /* \"#utility.yul\":13531:13534   */\n      dup3\n        /* \"#utility.yul\":13527:13541   */\n      add\n        /* \"#utility.yul\":13512:13541   */\n      swap1\n      pop\n        /* \"#utility.yul\":13378:13547   */\n      swap3\n      swap2\n      pop\n      pop\n      jump\t// out\n        /* \"#utility.yul\":13553:13930   */\n    tag_114:\n        /* \"#utility.yul\":13641:13644   */\n      0x00\n        /* \"#utility.yul\":13669:13708   */\n      tag_258\n        /* \"#utility.yul\":13702:13707   */\n      dup3\n        /* \"#utility.yul\":13669:13708   */\n      tag_69\n      jump\t// in\n    tag_258:\n        /* \"#utility.yul\":13724:13795   */\n      tag_259\n        /* \"#utility.yul\":13788:13794   */\n      dup2\n        /* \"#utility.yul\":13783:13786   */\n      dup6\n        /* \"#utility.yul\":13724:13795   */\n      tag_113\n      jump\t// in\n    tag_259:\n        /* \"#utility.yul\":13717:13795   */\n      swap4\n      pop\n        /* \"#utility.yul\":13804:13869   */\n      tag_260\n        /* \"#utility.yul\":13862:13868   */\n      dup2\n        /* \"#utility.yul\":13857:13860   */\n      dup6\n        /* \"#utility.yul\":13850:13854   */\n      0x20\n        /* \"#utility.yul\":13843:13848   */\n      dup7\n        /* \"#utility.yul\":13839:13855   */\n      add\n        /* \"#utility.yul\":13804:13869   */\n      tag_71\n      jump\t// in\n    tag_260:\n        /* \"#utility.yul\":13894:13923   */\n      tag_261\n        /* \"#utility.yul\":13916:13922   */\n      dup2\n        /* \"#utility.yul\":13894:13923   */\n      tag_72\n      jump\t// in\n    tag_261:\n        /* \"#utility.yul\":13889:13892   */\n      dup5\n        /* \"#utility.yul\":13885:13924   */\n      add\n        /* \"#utility.yul\":13878:13924   */\n      swap2\n      pop\n        /* \"#utility.yul\":13645:13930   */\n      pop\n        /* \"#utility.yul\":13553:13930   */\n      swap3\n      swap2\n      pop\n      pop\n      jump\t// out\n        /* \"#utility.yul\":13936:14249   */\n    tag_44:\n        /* \"#utility.yul\":14049:14053   */\n      0x00\n        /* \"#utility.yul\":14087:14089   */\n      0x20\n        /* \"#utility.yul\":14076:14085   */\n      dup3\n        /* \"#utility.yul\":14072:14090   */\n      add\n        /* \"#utility.yul\":14064:14090   */\n      swap1\n      pop\n        /* \"#utility.yul\":14136:14145   */\n      dup2\n        /* \"#utility.yul\":14130:14134   */\n      dup2\n        /* \"#utility.yul\":14126:14146   */\n      sub\n        /* \"#utility.yul\":14122:14123   */\n      0x00\n        /* \"#utility.yul\":14111:14120   */\n      dup4\n        /* \"#utility.yul\":14107:14124   */\n      add\n        /* \"#utility.yul\":14100:14147   */\n      mstore\n        /* \"#utility.yul\":14164:14242   */\n      tag_263\n        /* \"#utility.yul\":14237:14241   */\n      dup2\n        /* \"#utility.yul\":14228:14234   */\n      dup5\n        /* \"#utility.yul\":14164:14242   */\n      tag_114\n      jump\t// in\n    tag_263:\n        /* \"#utility.yul\":14156:14242   */\n      swap1\n      pop\n        /* \"#utility.yul\":13936:14249   */\n      swap3\n      swap2\n      pop\n      pop\n      jump\t// out\n\n    auxdata: 0xa2646970667358221220c9791ed4a95b8f32223fca2c343bd2cb430d8e5532e487f97799ea97c53cf20f64736f6c63430008190033\n}\n",
				"bytecode": {
					"linkReferences": {},
					"object": "608060405234801561000f575f80fd5b50335f73ffffffffffffffffffffffffffffffffffffffff168173ffffffffffffffffffffffffffffffffffffffff1603610081575f6040517f1e4fbdf70000000000000000000000000000000000000000000000000000000081526004016100789190610196565b60405180910390fd5b6100908161009660201b60201c565b506101af565b5f805f9054906101000a900473ffffffffffffffffffffffffffffffffffffffff169050815f806101000a81548173ffffffffffffffffffffffffffffffffffffffff021916908373ffffffffffffffffffffffffffffffffffffffff1602179055508173ffffffffffffffffffffffffffffffffffffffff168173ffffffffffffffffffffffffffffffffffffffff167f8be0079c531659141344cd1fd0a4f28419497f9722a3daafe3b4186f6b6457e060405160405180910390a35050565b5f73ffffffffffffffffffffffffffffffffffffffff82169050919050565b5f61018082610157565b9050919050565b61019081610176565b82525050565b5f6020820190506101a95f830184610187565b92915050565b610bad806101bc5f395ff3fe608060405234801561000f575f80fd5b5060043610610055575f3560e01c8063198cc69114610059578063503c560f14610077578063715018a6146100935780638da5cb5b1461009d578063f2fde38b146100bb575b5f80fd5b6100616100d7565b60405161006e91906105f5565b60405180910390f35b610091600480360381019061008c9190610752565b6101cc565b005b61009b61026b565b005b6100a561027e565b6040516100b291906107d8565b60405180910390f35b6100d560048036038101906100d0919061081b565b6102a5565b005b60606001805480602002602001604051908101604052809291908181526020015f905b828210156101c3578382905f5260205f2090600202016040518060400160405290815f8201805461012a90610873565b80601f016020809104026020016040519081016040528092919081815260200182805461015690610873565b80156101a15780601f10610178576101008083540402835291602001916101a1565b820191905f5260205f20905b81548152906001019060200180831161018457829003601f168201915b50505050508152602001600182015481525050815260200190600101906100fa565b50505050905090565b6101d4610329565b600160405180604001604052808381526020015f815250908060018154018082558091505060019003905f5260205f2090600202015f909190919091505f820151815f0190816102249190610a40565b506020820151816001015550507f566c2d39711b082cc685ade507dee6291f47044333d9aba4037034cdc3cfac9e816040516102609190610b57565b60405180910390a150565b610273610329565b61027c5f6103b0565b565b5f805f9054906101000a900473ffffffffffffffffffffffffffffffffffffffff16905090565b6102ad610329565b5f73ffffffffffffffffffffffffffffffffffffffff168173ffffffffffffffffffffffffffffffffffffffff160361031d575f6040517f1e4fbdf700000000000000000000000000000000000000000000000000000000815260040161031491906107d8565b60405180910390fd5b610326816103b0565b50565b610331610471565b73ffffffffffffffffffffffffffffffffffffffff1661034f61027e565b73ffffffffffffffffffffffffffffffffffffffff16146103ae57610372610471565b6040517f118cdaa70000000000000000000000000000000000000000000000000000000081526004016103a591906107d8565b60405180910390fd5b565b5f805f9054906101000a900473ffffffffffffffffffffffffffffffffffffffff169050815f806101000a81548173ffffffffffffffffffffffffffffffffffffffff021916908373ffffffffffffffffffffffffffffffffffffffff1602179055508173ffffffffffffffffffffffffffffffffffffffff168173ffffffffffffffffffffffffffffffffffffffff167f8be0079c531659141344cd1fd0a4f28419497f9722a3daafe3b4186f6b6457e060405160405180910390a35050565b5f33905090565b5f81519050919050565b5f82825260208201905092915050565b5f819050602082019050919050565b5f81519050919050565b5f82825260208201905092915050565b8281835e5f83830152505050565b5f601f19601f8301169050919050565b5f6104e3826104a1565b6104ed81856104ab565b93506104fd8185602086016104bb565b610506816104c9565b840191505092915050565b5f819050919050565b61052381610511565b82525050565b5f604083015f8301518482035f86015261054382826104d9565b9150506020830151610558602086018261051a565b508091505092915050565b5f61056e8383610529565b905092915050565b5f602082019050919050565b5f61058c82610478565b6105968185610482565b9350836020820285016105a885610492565b805f5b858110156105e357848403895281516105c48582610563565b94506105cf83610576565b925060208a019950506001810190506105ab565b50829750879550505050505092915050565b5f6020820190508181035f83015261060d8184610582565b905092915050565b5f604051905090565b5f80fd5b5f80fd5b5f80fd5b5f80fd5b7f4e487b71000000000000000000000000000000000000000000000000000000005f52604160045260245ffd5b610664826104c9565b810181811067ffffffffffffffff821117156106835761068261062e565b5b80604052505050565b5f610695610615565b90506106a1828261065b565b919050565b5f67ffffffffffffffff8211156106c0576106bf61062e565b5b6106c9826104c9565b9050602081019050919050565b828183375f83830152505050565b5f6106f66106f1846106a6565b61068c565b9050828152602081018484840111156107125761071161062a565b5b61071d8482856106d6565b509392505050565b5f82601f83011261073957610738610626565b5b81356107498482602086016106e4565b91505092915050565b5f602082840312156107675761076661061e565b5b5f82013567ffffffffffffffff81111561078457610783610622565b5b61079084828501610725565b91505092915050565b5f73ffffffffffffffffffffffffffffffffffffffff82169050919050565b5f6107c282610799565b9050919050565b6107d2816107b8565b82525050565b5f6020820190506107eb5f8301846107c9565b92915050565b6107fa816107b8565b8114610804575f80fd5b50565b5f81359050610815816107f1565b92915050565b5f602082840312156108305761082f61061e565b5b5f61083d84828501610807565b91505092915050565b7f4e487b71000000000000000000000000000000000000000000000000000000005f52602260045260245ffd5b5f600282049050600182168061088a57607f821691505b60208210810361089d5761089c610846565b5b50919050565b5f819050815f5260205f209050919050565b5f6020601f8301049050919050565b5f82821b905092915050565b5f600883026108ff7fffffffffffffffffffffffffffffffffffffffffffffffffffffffffffffffff826108c4565b61090986836108c4565b95508019841693508086168417925050509392505050565b5f819050919050565b5f61094461093f61093a84610511565b610921565b610511565b9050919050565b5f819050919050565b61095d8361092a565b6109716109698261094b565b8484546108d0565b825550505050565b5f90565b610985610979565b610990818484610954565b505050565b5b818110156109b3576109a85f8261097d565b600181019050610996565b5050565b601f8211156109f8576109c9816108a3565b6109d2846108b5565b810160208510156109e1578190505b6109f56109ed856108b5565b830182610995565b50505b505050565b5f82821c905092915050565b5f610a185f19846008026109fd565b1980831691505092915050565b5f610a308383610a09565b9150826002028217905092915050565b610a49826104a1565b67ffffffffffffffff811115610a6257610a6161062e565b5b610a6c8254610873565b610a778282856109b7565b5f60209050601f831160018114610aa8575f8415610a96578287015190505b610aa08582610a25565b865550610b07565b601f198416610ab6866108a3565b5f5b82811015610add57848901518255600182019150602085019450602081019050610ab8565b86831015610afa5784890151610af6601f891682610a09565b8355505b6001600288020188555050505b505050505050565b5f82825260208201905092915050565b5f610b29826104a1565b610b338185610b0f565b9350610b438185602086016104bb565b610b4c816104c9565b840191505092915050565b5f6020820190508181035f830152610b6f8184610b1f565b90509291505056fea2646970667358221220c9791ed4a95b8f32223fca2c343bd2cb430d8e5532e487f97799ea97c53cf20f64736f6c63430008190033",
					"opcodes": "PUSH1 0x80 PUSH1 0x40 MSTORE CALLVALUE DUP1 ISZERO PUSH2 0xF JUMPI PUSH0 DUP1 REVERT JUMPDEST POP CALLER PUSH0 PUSH20 0xFFFFFFFFFFFFFFFFFFFFFFFFFFFFFFFFFFFFFFFF AND DUP2 PUSH20 0xFFFFFFFFFFFFFFFFFFFFFFFFFFFFFFFFFFFFFFFF AND SUB PUSH2 0x81 JUMPI PUSH0 PUSH1 0x40 MLOAD PUSH32 0x1E4FBDF700000000000000000000000000000000000000000000000000000000 DUP2 MSTORE PUSH1 0x4 ADD PUSH2 0x78 SWAP2 SWAP1 PUSH2 0x196 JUMP JUMPDEST PUSH1 0x40 MLOAD DUP1 SWAP2 SUB SWAP1 REVERT JUMPDEST PUSH2 0x90 DUP2 PUSH2 0x96 PUSH1 0x20 SHL PUSH1 0x20 SHR JUMP JUMPDEST POP PUSH2 0x1AF JUMP JUMPDEST PUSH0 DUP1 PUSH0 SWAP1 SLOAD SWAP1 PUSH2 0x100 EXP SWAP1 DIV PUSH20 0xFFFFFFFFFFFFFFFFFFFFFFFFFFFFFFFFFFFFFFFF AND SWAP1 POP DUP2 PUSH0 DUP1 PUSH2 0x100 EXP DUP2 SLOAD DUP2 PUSH20 0xFFFFFFFFFFFFFFFFFFFFFFFFFFFFFFFFFFFFFFFF MUL NOT AND SWAP1 DUP4 PUSH20 0xFFFFFFFFFFFFFFFFFFFFFFFFFFFFFFFFFFFFFFFF AND MUL OR SWAP1 SSTORE POP DUP2 PUSH20 0xFFFFFFFFFFFFFFFFFFFFFFFFFFFFFFFFFFFFFFFF AND DUP2 PUSH20 0xFFFFFFFFFFFFFFFFFFFFFFFFFFFFFFFFFFFFFFFF AND PUSH32 0x8BE0079C531659141344CD1FD0A4F28419497F9722A3DAAFE3B4186F6B6457E0 PUSH1 0x40 MLOAD PUSH1 0x40 MLOAD DUP1 SWAP2 SUB SWAP1 LOG3 POP POP JUMP JUMPDEST PUSH0 PUSH20 0xFFFFFFFFFFFFFFFFFFFFFFFFFFFFFFFFFFFFFFFF DUP3 AND SWAP1 POP SWAP2 SWAP1 POP JUMP JUMPDEST PUSH0 PUSH2 0x180 DUP3 PUSH2 0x157 JUMP JUMPDEST SWAP1 POP SWAP2 SWAP1 POP JUMP JUMPDEST PUSH2 0x190 DUP2 PUSH2 0x176 JUMP JUMPDEST DUP3 MSTORE POP POP JUMP JUMPDEST PUSH0 PUSH1 0x20 DUP3 ADD SWAP1 POP PUSH2 0x1A9 PUSH0 DUP4 ADD DUP5 PUSH2 0x187 JUMP JUMPDEST SWAP3 SWAP2 POP POP JUMP JUMPDEST PUSH2 0xBAD DUP1 PUSH2 0x1BC PUSH0 CODECOPY PUSH0 RETURN INVALID PUSH1 0x80 PUSH1 0x40 MSTORE CALLVALUE DUP1 ISZERO PUSH2 0xF JUMPI PUSH0 DUP1 REVERT JUMPDEST POP PUSH1 0x4 CALLDATASIZE LT PUSH2 0x55 JUMPI PUSH0 CALLDATALOAD PUSH1 0xE0 SHR DUP1 PUSH4 0x198CC691 EQ PUSH2 0x59 JUMPI DUP1 PUSH4 0x503C560F EQ PUSH2 0x77 JUMPI DUP1 PUSH4 0x715018A6 EQ PUSH2 0x93 JUMPI DUP1 PUSH4 0x8DA5CB5B EQ PUSH2 0x9D JUMPI DUP1 PUSH4 0xF2FDE38B EQ PUSH2 0xBB JUMPI JUMPDEST PUSH0 DUP1 REVERT JUMPDEST PUSH2 0x61 PUSH2 0xD7 JUMP JUMPDEST PUSH1 0x40 MLOAD PUSH2 0x6E SWAP2 SWAP1 PUSH2 0x5F5 JUMP JUMPDEST PUSH1 0x40 MLOAD DUP1 SWAP2 SUB SWAP1 RETURN JUMPDEST PUSH2 0x91 PUSH1 0x4 DUP1 CALLDATASIZE SUB DUP2 ADD SWAP1 PUSH2 0x8C SWAP2 SWAP1 PUSH2 0x752 JUMP JUMPDEST PUSH2 0x1CC JUMP JUMPDEST STOP JUMPDEST PUSH2 0x9B PUSH2 0x26B JUMP JUMPDEST STOP JUMPDEST PUSH2 0xA5 PUSH2 0x27E JUMP JUMPDEST PUSH1 0x40 MLOAD PUSH2 0xB2 SWAP2 SWAP1 PUSH2 0x7D8 JUMP JUMPDEST PUSH1 0x40 MLOAD DUP1 SWAP2 SUB SWAP1 RETURN JUMPDEST PUSH2 0xD5 PUSH1 0x4 DUP1 CALLDATASIZE SUB DUP2 ADD SWAP1 PUSH2 0xD0 SWAP2 SWAP1 PUSH2 0x81B JUMP JUMPDEST PUSH2 0x2A5 JUMP JUMPDEST STOP JUMPDEST PUSH1 0x60 PUSH1 0x1 DUP1 SLOAD DUP1 PUSH1 0x20 MUL PUSH1 0x20 ADD PUSH1 0x40 MLOAD SWAP1 DUP2 ADD PUSH1 0x40 MSTORE DUP1 SWAP3 SWAP2 SWAP1 DUP2 DUP2 MSTORE PUSH1 0x20 ADD PUSH0 SWAP1 JUMPDEST DUP3 DUP3 LT ISZERO PUSH2 0x1C3 JUMPI DUP4 DUP3 SWAP1 PUSH0 MSTORE PUSH1 0x20 PUSH0 KECCAK256 SWAP1 PUSH1 0x2 MUL ADD PUSH1 0x40 MLOAD DUP1 PUSH1 0x40 ADD PUSH1 0x40 MSTORE SWAP1 DUP2 PUSH0 DUP3 ADD DUP1 SLOAD PUSH2 0x12A SWAP1 PUSH2 0x873 JUMP JUMPDEST DUP1 PUSH1 0x1F ADD PUSH1 0x20 DUP1 SWAP2 DIV MUL PUSH1 0x20 ADD PUSH1 0x40 MLOAD SWAP1 DUP2 ADD PUSH1 0x40 MSTORE DUP1 SWAP3 SWAP2 SWAP1 DUP2 DUP2 MSTORE PUSH1 0x20 ADD DUP3 DUP1 SLOAD PUSH2 0x156 SWAP1 PUSH2 0x873 JUMP JUMPDEST DUP1 ISZERO PUSH2 0x1A1 JUMPI DUP1 PUSH1 0x1F LT PUSH2 0x178 JUMPI PUSH2 0x100 DUP1 DUP4 SLOAD DIV MUL DUP4 MSTORE SWAP2 PUSH1 0x20 ADD SWAP2 PUSH2 0x1A1 JUMP JUMPDEST DUP3 ADD SWAP2 SWAP1 PUSH0 MSTORE PUSH1 0x20 PUSH0 KECCAK256 SWAP1 JUMPDEST DUP2 SLOAD DUP2 MSTORE SWAP1 PUSH1 0x1 ADD SWAP1 PUSH1 0x20 ADD DUP1 DUP4 GT PUSH2 0x184 JUMPI DUP3 SWAP1 SUB PUSH1 0x1F AND DUP3 ADD SWAP2 JUMPDEST POP POP POP POP POP DUP2 MSTORE PUSH1 0x20 ADD PUSH1 0x1 DUP3 ADD SLOAD DUP2 MSTORE POP POP DUP2 MSTORE PUSH1 0x20 ADD SWAP1 PUSH1 0x1 ADD SWAP1 PUSH2 0xFA JUMP JUMPDEST POP POP POP POP SWAP1 POP SWAP1 JUMP JUMPDEST PUSH2 0x1D4 PUSH2 0x329 JUMP JUMPDEST PUSH1 0x1 PUSH1 0x40 MLOAD DUP1 PUSH1 0x40 ADD PUSH1 0x40 MSTORE DUP1 DUP4 DUP2 MSTORE PUSH1 0x20 ADD PUSH0 DUP2 MSTORE POP SWAP1 DUP1 PUSH1 0x1 DUP2 SLOAD ADD DUP1 DUP3 SSTORE DUP1 SWAP2 POP POP PUSH1 0x1 SWAP1 SUB SWAP1 PUSH0 MSTORE PUSH1 0x20 PUSH0 KECCAK256 SWAP1 PUSH1 0x2 MUL ADD PUSH0 SWAP1 SWAP2 SWAP1 SWAP2 SWAP1 SWAP2 POP PUSH0 DUP3 ADD MLOAD DUP2 PUSH0 ADD SWAP1 DUP2 PUSH2 0x224 SWAP2 SWAP1 PUSH2 0xA40 JUMP JUMPDEST POP PUSH1 0x20 DUP3 ADD MLOAD DUP2 PUSH1 0x1 ADD SSTORE POP POP PUSH32 0x566C2D39711B082CC685ADE507DEE6291F47044333D9ABA4037034CDC3CFAC9E DUP2 PUSH1 0x40 MLOAD PUSH2 0x260 SWAP2 SWAP1 PUSH2 0xB57 JUMP JUMPDEST PUSH1 0x40 MLOAD DUP1 SWAP2 SUB SWAP1 LOG1 POP JUMP JUMPDEST PUSH2 0x273 PUSH2 0x329 JUMP JUMPDEST PUSH2 0x27C PUSH0 PUSH2 0x3B0 JUMP JUMPDEST JUMP JUMPDEST PUSH0 DUP1 PUSH0 SWAP1 SLOAD SWAP1 PUSH2 0x100 EXP SWAP1 DIV PUSH20 0xFFFFFFFFFFFFFFFFFFFFFFFFFFFFFFFFFFFFFFFF AND SWAP1 POP SWAP1 JUMP JUMPDEST PUSH2 0x2AD PUSH2 0x329 JUMP JUMPDEST PUSH0 PUSH20 0xFFFFFFFFFFFFFFFFFFFFFFFFFFFFFFFFFFFFFFFF AND DUP2 PUSH20 0xFFFFFFFFFFFFFFFFFFFFFFFFFFFFFFFFFFFFFFFF AND SUB PUSH2 0x31D JUMPI PUSH0 PUSH1 0x40 MLOAD PUSH32 0x1E4FBDF700000000000000000000000000000000000000000000000000000000 DUP2 MSTORE PUSH1 0x4 ADD PUSH2 0x314 SWAP2 SWAP1 PUSH2 0x7D8 JUMP JUMPDEST PUSH1 0x40 MLOAD DUP1 SWAP2 SUB SWAP1 REVERT JUMPDEST PUSH2 0x326 DUP2 PUSH2 0x3B0 JUMP JUMPDEST POP JUMP JUMPDEST PUSH2 0x331 PUSH2 0x471 JUMP JUMPDEST PUSH20 0xFFFFFFFFFFFFFFFFFFFFFFFFFFFFFFFFFFFFFFFF AND PUSH2 0x34F PUSH2 0x27E JUMP JUMPDEST PUSH20 0xFFFFFFFFFFFFFFFFFFFFFFFFFFFFFFFFFFFFFFFF AND EQ PUSH2 0x3AE JUMPI PUSH2 0x372 PUSH2 0x471 JUMP JUMPDEST PUSH1 0x40 MLOAD PUSH32 0x118CDAA700000000000000000000000000000000000000000000000000000000 DUP2 MSTORE PUSH1 0x4 ADD PUSH2 0x3A5 SWAP2 SWAP1 PUSH2 0x7D8 JUMP JUMPDEST PUSH1 0x40 MLOAD DUP1 SWAP2 SUB SWAP1 REVERT JUMPDEST JUMP JUMPDEST PUSH0 DUP1 PUSH0 SWAP1 SLOAD SWAP1 PUSH2 0x100 EXP SWAP1 DIV PUSH20 0xFFFFFFFFFFFFFFFFFFFFFFFFFFFFFFFFFFFFFFFF AND SWAP1 POP DUP2 PUSH0 DUP1 PUSH2 0x100 EXP DUP2 SLOAD DUP2 PUSH20 0xFFFFFFFFFFFFFFFFFFFFFFFFFFFFFFFFFFFFFFFF MUL NOT AND SWAP1 DUP4 PUSH20 0xFFFFFFFFFFFFFFFFFFFFFFFFFFFFFFFFFFFFFFFF AND MUL OR SWAP1 SSTORE POP DUP2 PUSH20 0xFFFFFFFFFFFFFFFFFFFFFFFFFFFFFFFFFFFFFFFF AND DUP2 PUSH20 0xFFFFFFFFFFFFFFFFFFFFFFFFFFFFFFFFFFFFFFFF AND PUSH32 0x8BE0079C531659141344CD1FD0A4F28419497F9722A3DAAFE3B4186F6B6457E0 PUSH1 0x40 MLOAD PUSH1 0x40 MLOAD DUP1 SWAP2 SUB SWAP1 LOG3 POP POP JUMP JUMPDEST PUSH0 CALLER SWAP1 POP SWAP1 JUMP JUMPDEST PUSH0 DUP2 MLOAD SWAP1 POP SWAP2 SWAP1 POP JUMP JUMPDEST PUSH0 DUP3 DUP3 MSTORE PUSH1 0x20 DUP3 ADD SWAP1 POP SWAP3 SWAP2 POP POP JUMP JUMPDEST PUSH0 DUP2 SWAP1 POP PUSH1 0x20 DUP3 ADD SWAP1 POP SWAP2 SWAP1 POP JUMP JUMPDEST PUSH0 DUP2 MLOAD SWAP1 POP SWAP2 SWAP1 POP JUMP JUMPDEST PUSH0 DUP3 DUP3 MSTORE PUSH1 0x20 DUP3 ADD SWAP1 POP SWAP3 SWAP2 POP POP JUMP JUMPDEST DUP3 DUP2 DUP4 MCOPY PUSH0 DUP4 DUP4 ADD MSTORE POP POP POP JUMP JUMPDEST PUSH0 PUSH1 0x1F NOT PUSH1 0x1F DUP4 ADD AND SWAP1 POP SWAP2 SWAP1 POP JUMP JUMPDEST PUSH0 PUSH2 0x4E3 DUP3 PUSH2 0x4A1 JUMP JUMPDEST PUSH2 0x4ED DUP2 DUP6 PUSH2 0x4AB JUMP JUMPDEST SWAP4 POP PUSH2 0x4FD DUP2 DUP6 PUSH1 0x20 DUP7 ADD PUSH2 0x4BB JUMP JUMPDEST PUSH2 0x506 DUP2 PUSH2 0x4C9 JUMP JUMPDEST DUP5 ADD SWAP2 POP POP SWAP3 SWAP2 POP POP JUMP JUMPDEST PUSH0 DUP2 SWAP1 POP SWAP2 SWAP1 POP JUMP JUMPDEST PUSH2 0x523 DUP2 PUSH2 0x511 JUMP JUMPDEST DUP3 MSTORE POP POP JUMP JUMPDEST PUSH0 PUSH1 0x40 DUP4 ADD PUSH0 DUP4 ADD MLOAD DUP5 DUP3 SUB PUSH0 DUP7 ADD MSTORE PUSH2 0x543 DUP3 DUP3 PUSH2 0x4D9 JUMP JUMPDEST SWAP2 POP POP PUSH1 0x20 DUP4 ADD MLOAD PUSH2 0x558 PUSH1 0x20 DUP7 ADD DUP3 PUSH2 0x51A JUMP JUMPDEST POP DUP1 SWAP2 POP POP SWAP3 SWAP2 POP POP JUMP JUMPDEST PUSH0 PUSH2 0x56E DUP4 DUP4 PUSH2 0x529 JUMP JUMPDEST SWAP1 POP SWAP3 SWAP2 POP POP JUMP JUMPDEST PUSH0 PUSH1 0x20 DUP3 ADD SWAP1 POP SWAP2 SWAP1 POP JUMP JUMPDEST PUSH0 PUSH2 0x58C DUP3 PUSH2 0x478 JUMP JUMPDEST PUSH2 0x596 DUP2 DUP6 PUSH2 0x482 JUMP JUMPDEST SWAP4 POP DUP4 PUSH1 0x20 DUP3 MUL DUP6 ADD PUSH2 0x5A8 DUP6 PUSH2 0x492 JUMP JUMPDEST DUP1 PUSH0 JUMPDEST DUP6 DUP2 LT ISZERO PUSH2 0x5E3 JUMPI DUP5 DUP5 SUB DUP10 MSTORE DUP2 MLOAD PUSH2 0x5C4 DUP6 DUP3 PUSH2 0x563 JUMP JUMPDEST SWAP5 POP PUSH2 0x5CF DUP4 PUSH2 0x576 JUMP JUMPDEST SWAP3 POP PUSH1 0x20 DUP11 ADD SWAP10 POP POP PUSH1 0x1 DUP2 ADD SWAP1 POP PUSH2 0x5AB JUMP JUMPDEST POP DUP3 SWAP8 POP DUP8 SWAP6 POP POP POP POP POP POP SWAP3 SWAP2 POP POP JUMP JUMPDEST PUSH0 PUSH1 0x20 DUP3 ADD SWAP1 POP DUP2 DUP2 SUB PUSH0 DUP4 ADD MSTORE PUSH2 0x60D DUP2 DUP5 PUSH2 0x582 JUMP JUMPDEST SWAP1 POP SWAP3 SWAP2 POP POP JUMP JUMPDEST PUSH0 PUSH1 0x40 MLOAD SWAP1 POP SWAP1 JUMP JUMPDEST PUSH0 DUP1 REVERT JUMPDEST PUSH0 DUP1 REVERT JUMPDEST PUSH0 DUP1 REVERT JUMPDEST PUSH0 DUP1 REVERT JUMPDEST PUSH32 0x4E487B7100000000000000000000000000000000000000000000000000000000 PUSH0 MSTORE PUSH1 0x41 PUSH1 0x4 MSTORE PUSH1 0x24 PUSH0 REVERT JUMPDEST PUSH2 0x664 DUP3 PUSH2 0x4C9 JUMP JUMPDEST DUP2 ADD DUP2 DUP2 LT PUSH8 0xFFFFFFFFFFFFFFFF DUP3 GT OR ISZERO PUSH2 0x683 JUMPI PUSH2 0x682 PUSH2 0x62E JUMP JUMPDEST JUMPDEST DUP1 PUSH1 0x40 MSTORE POP POP POP JUMP JUMPDEST PUSH0 PUSH2 0x695 PUSH2 0x615 JUMP JUMPDEST SWAP1 POP PUSH2 0x6A1 DUP3 DUP3 PUSH2 0x65B JUMP JUMPDEST SWAP2 SWAP1 POP JUMP JUMPDEST PUSH0 PUSH8 0xFFFFFFFFFFFFFFFF DUP3 GT ISZERO PUSH2 0x6C0 JUMPI PUSH2 0x6BF PUSH2 0x62E JUMP JUMPDEST JUMPDEST PUSH2 0x6C9 DUP3 PUSH2 0x4C9 JUMP JUMPDEST SWAP1 POP PUSH1 0x20 DUP2 ADD SWAP1 POP SWAP2 SWAP1 POP JUMP JUMPDEST DUP3 DUP2 DUP4 CALLDATACOPY PUSH0 DUP4 DUP4 ADD MSTORE POP POP POP JUMP JUMPDEST PUSH0 PUSH2 0x6F6 PUSH2 0x6F1 DUP5 PUSH2 0x6A6 JUMP JUMPDEST PUSH2 0x68C JUMP JUMPDEST SWAP1 POP DUP3 DUP2 MSTORE PUSH1 0x20 DUP2 ADD DUP5 DUP5 DUP5 ADD GT ISZERO PUSH2 0x712 JUMPI PUSH2 0x711 PUSH2 0x62A JUMP JUMPDEST JUMPDEST PUSH2 0x71D DUP5 DUP3 DUP6 PUSH2 0x6D6 JUMP JUMPDEST POP SWAP4 SWAP3 POP POP POP JUMP JUMPDEST PUSH0 DUP3 PUSH1 0x1F DUP4 ADD SLT PUSH2 0x739 JUMPI PUSH2 0x738 PUSH2 0x626 JUMP JUMPDEST JUMPDEST DUP2 CALLDATALOAD PUSH2 0x749 DUP5 DUP3 PUSH1 0x20 DUP7 ADD PUSH2 0x6E4 JUMP JUMPDEST SWAP2 POP POP SWAP3 SWAP2 POP POP JUMP JUMPDEST PUSH0 PUSH1 0x20 DUP3 DUP5 SUB SLT ISZERO PUSH2 0x767 JUMPI PUSH2 0x766 PUSH2 0x61E JUMP JUMPDEST JUMPDEST PUSH0 DUP3 ADD CALLDATALOAD PUSH8 0xFFFFFFFFFFFFFFFF DUP2 GT ISZERO PUSH2 0x784 JUMPI PUSH2 0x783 PUSH2 0x622 JUMP JUMPDEST JUMPDEST PUSH2 0x790 DUP5 DUP3 DUP6 ADD PUSH2 0x725 JUMP JUMPDEST SWAP2 POP POP SWAP3 SWAP2 POP POP JUMP JUMPDEST PUSH0 PUSH20 0xFFFFFFFFFFFFFFFFFFFFFFFFFFFFFFFFFFFFFFFF DUP3 AND SWAP1 POP SWAP2 SWAP1 POP JUMP JUMPDEST PUSH0 PUSH2 0x7C2 DUP3 PUSH2 0x799 JUMP JUMPDEST SWAP1 POP SWAP2 SWAP1 POP JUMP JUMPDEST PUSH2 0x7D2 DUP2 PUSH2 0x7B8 JUMP JUMPDEST DUP3 MSTORE POP POP JUMP JUMPDEST PUSH0 PUSH1 0x20 DUP3 ADD SWAP1 POP PUSH2 0x7EB PUSH0 DUP4 ADD DUP5 PUSH2 0x7C9 JUMP JUMPDEST SWAP3 SWAP2 POP POP JUMP JUMPDEST PUSH2 0x7FA DUP2 PUSH2 0x7B8 JUMP JUMPDEST DUP2 EQ PUSH2 0x804 JUMPI PUSH0 DUP1 REVERT JUMPDEST POP JUMP JUMPDEST PUSH0 DUP2 CALLDATALOAD SWAP1 POP PUSH2 0x815 DUP2 PUSH2 0x7F1 JUMP JUMPDEST SWAP3 SWAP2 POP POP JUMP JUMPDEST PUSH0 PUSH1 0x20 DUP3 DUP5 SUB SLT ISZERO PUSH2 0x830 JUMPI PUSH2 0x82F PUSH2 0x61E JUMP JUMPDEST JUMPDEST PUSH0 PUSH2 0x83D DUP5 DUP3 DUP6 ADD PUSH2 0x807 JUMP JUMPDEST SWAP2 POP POP SWAP3 SWAP2 POP POP JUMP JUMPDEST PUSH32 0x4E487B7100000000000000000000000000000000000000000000000000000000 PUSH0 MSTORE PUSH1 0x22 PUSH1 0x4 MSTORE PUSH1 0x24 PUSH0 REVERT JUMPDEST PUSH0 PUSH1 0x2 DUP3 DIV SWAP1 POP PUSH1 0x1 DUP3 AND DUP1 PUSH2 0x88A JUMPI PUSH1 0x7F DUP3 AND SWAP2 POP JUMPDEST PUSH1 0x20 DUP3 LT DUP2 SUB PUSH2 0x89D JUMPI PUSH2 0x89C PUSH2 0x846 JUMP JUMPDEST JUMPDEST POP SWAP2 SWAP1 POP JUMP JUMPDEST PUSH0 DUP2 SWAP1 POP DUP2 PUSH0 MSTORE PUSH1 0x20 PUSH0 KECCAK256 SWAP1 POP SWAP2 SWAP1 POP JUMP JUMPDEST PUSH0 PUSH1 0x20 PUSH1 0x1F DUP4 ADD DIV SWAP1 POP SWAP2 SWAP1 POP JUMP JUMPDEST PUSH0 DUP3 DUP3 SHL SWAP1 POP SWAP3 SWAP2 POP POP JUMP JUMPDEST PUSH0 PUSH1 0x8 DUP4 MUL PUSH2 0x8FF PUSH32 0xFFFFFFFFFFFFFFFFFFFFFFFFFFFFFFFFFFFFFFFFFFFFFFFFFFFFFFFFFFFFFFFF DUP3 PUSH2 0x8C4 JUMP JUMPDEST PUSH2 0x909 DUP7 DUP4 PUSH2 0x8C4 JUMP JUMPDEST SWAP6 POP DUP1 NOT DUP5 AND SWAP4 POP DUP1 DUP7 AND DUP5 OR SWAP3 POP POP POP SWAP4 SWAP3 POP POP POP JUMP JUMPDEST PUSH0 DUP2 SWAP1 POP SWAP2 SWAP1 POP JUMP JUMPDEST PUSH0 PUSH2 0x944 PUSH2 0x93F PUSH2 0x93A DUP5 PUSH2 0x511 JUMP JUMPDEST PUSH2 0x921 JUMP JUMPDEST PUSH2 0x511 JUMP JUMPDEST SWAP1 POP SWAP2 SWAP1 POP JUMP JUMPDEST PUSH0 DUP2 SWAP1 POP SWAP2 SWAP1 POP JUMP JUMPDEST PUSH2 0x95D DUP4 PUSH2 0x92A JUMP JUMPDEST PUSH2 0x971 PUSH2 0x969 DUP3 PUSH2 0x94B JUMP JUMPDEST DUP5 DUP5 SLOAD PUSH2 0x8D0 JUMP JUMPDEST DUP3 SSTORE POP POP POP POP JUMP JUMPDEST PUSH0 SWAP1 JUMP JUMPDEST PUSH2 0x985 PUSH2 0x979 JUMP JUMPDEST PUSH2 0x990 DUP2 DUP5 DUP5 PUSH2 0x954 JUMP JUMPDEST POP POP POP JUMP JUMPDEST JUMPDEST DUP2 DUP2 LT ISZERO PUSH2 0x9B3 JUMPI PUSH2 0x9A8 PUSH0 DUP3 PUSH2 0x97D JUMP JUMPDEST PUSH1 0x1 DUP2 ADD SWAP1 POP PUSH2 0x996 JUMP JUMPDEST POP POP JUMP JUMPDEST PUSH1 0x1F DUP3 GT ISZERO PUSH2 0x9F8 JUMPI PUSH2 0x9C9 DUP2 PUSH2 0x8A3 JUMP JUMPDEST PUSH2 0x9D2 DUP5 PUSH2 0x8B5 JUMP JUMPDEST DUP2 ADD PUSH1 0x20 DUP6 LT ISZERO PUSH2 0x9E1 JUMPI DUP2 SWAP1 POP JUMPDEST PUSH2 0x9F5 PUSH2 0x9ED DUP6 PUSH2 0x8B5 JUMP JUMPDEST DUP4 ADD DUP3 PUSH2 0x995 JUMP JUMPDEST POP POP JUMPDEST POP POP POP JUMP JUMPDEST PUSH0 DUP3 DUP3 SHR SWAP1 POP SWAP3 SWAP2 POP POP JUMP JUMPDEST PUSH0 PUSH2 0xA18 PUSH0 NOT DUP5 PUSH1 0x8 MUL PUSH2 0x9FD JUMP JUMPDEST NOT DUP1 DUP4 AND SWAP2 POP POP SWAP3 SWAP2 POP POP JUMP JUMPDEST PUSH0 PUSH2 0xA30 DUP4 DUP4 PUSH2 0xA09 JUMP JUMPDEST SWAP2 POP DUP3 PUSH1 0x2 MUL DUP3 OR SWAP1 POP SWAP3 SWAP2 POP POP JUMP JUMPDEST PUSH2 0xA49 DUP3 PUSH2 0x4A1 JUMP JUMPDEST PUSH8 0xFFFFFFFFFFFFFFFF DUP2 GT ISZERO PUSH2 0xA62 JUMPI PUSH2 0xA61 PUSH2 0x62E JUMP JUMPDEST JUMPDEST PUSH2 0xA6C DUP3 SLOAD PUSH2 0x873 JUMP JUMPDEST PUSH2 0xA77 DUP3 DUP3 DUP6 PUSH2 0x9B7 JUMP JUMPDEST PUSH0 PUSH1 0x20 SWAP1 POP PUSH1 0x1F DUP4 GT PUSH1 0x1 DUP2 EQ PUSH2 0xAA8 JUMPI PUSH0 DUP5 ISZERO PUSH2 0xA96 JUMPI DUP3 DUP8 ADD MLOAD SWAP1 POP JUMPDEST PUSH2 0xAA0 DUP6 DUP3 PUSH2 0xA25 JUMP JUMPDEST DUP7 SSTORE POP PUSH2 0xB07 JUMP JUMPDEST PUSH1 0x1F NOT DUP5 AND PUSH2 0xAB6 DUP7 PUSH2 0x8A3 JUMP JUMPDEST PUSH0 JUMPDEST DUP3 DUP2 LT ISZERO PUSH2 0xADD JUMPI DUP5 DUP10 ADD MLOAD DUP3 SSTORE PUSH1 0x1 DUP3 ADD SWAP2 POP PUSH1 0x20 DUP6 ADD SWAP5 POP PUSH1 0x20 DUP2 ADD SWAP1 POP PUSH2 0xAB8 JUMP JUMPDEST DUP7 DUP4 LT ISZERO PUSH2 0xAFA JUMPI DUP5 DUP10 ADD MLOAD PUSH2 0xAF6 PUSH1 0x1F DUP10 AND DUP3 PUSH2 0xA09 JUMP JUMPDEST DUP4 SSTORE POP JUMPDEST PUSH1 0x1 PUSH1 0x2 DUP9 MUL ADD DUP9 SSTORE POP POP POP JUMPDEST POP POP POP POP POP POP JUMP JUMPDEST PUSH0 DUP3 DUP3 MSTORE PUSH1 0x20 DUP3 ADD SWAP1 POP SWAP3 SWAP2 POP POP JUMP JUMPDEST PUSH0 PUSH2 0xB29 DUP3 PUSH2 0x4A1 JUMP JUMPDEST PUSH2 0xB33 DUP2 DUP6 PUSH2 0xB0F JUMP JUMPDEST SWAP4 POP PUSH2 0xB43 DUP2 DUP6 PUSH1 0x20 DUP7 ADD PUSH2 0x4BB JUMP JUMPDEST PUSH2 0xB4C DUP2 PUSH2 0x4C9 JUMP JUMPDEST DUP5 ADD SWAP2 POP POP SWAP3 SWAP2 POP POP JUMP JUMPDEST PUSH0 PUSH1 0x20 DUP3 ADD SWAP1 POP DUP2 DUP2 SUB PUSH0 DUP4 ADD MSTORE PUSH2 0xB6F DUP2 DUP5 PUSH2 0xB1F JUMP JUMPDEST SWAP1 POP SWAP3 SWAP2 POP POP JUMP INVALID LOG2 PUSH5 0x6970667358 0x22 SLT KECCAK256 0xC9 PUSH26 0x1ED4A95B8F32223FCA2C343BD2CB430D8E5532E487F97799EA97 0xC5 EXTCODECOPY CALLCODE 0xF PUSH5 0x736F6C6343 STOP ADDMOD NOT STOP CALLER "
				},
				"gasEstimates": {
					"creation": {
						"codeDepositCost": "597800",
						"executionCost": "infinite",
						"totalCost": "infinite"
					},
					"external": {
						"agregarCandidato(string)": "infinite",
						"getAllCandidatos()": "infinite",
						"owner()": "2559",
						"renounceOwnership()": "infinite",
						"transferOwnership(address)": "infinite"
					}
				},
				"methodIdentifiers": {
					"agregarCandidato(string)": "503c560f",
					"getAllCandidatos()": "198cc691",
					"owner()": "8da5cb5b",
					"renounceOwnership()": "715018a6",
					"transferOwnership(address)": "f2fde38b"
				}
			},
			"storageLayout": {
				"storage": [
					{
						"astId": 8,
						"contract": "contracts/Candidatos.sol:Candidatos",
						"label": "_owner",
						"offset": 0,
						"slot": "0",
						"type": "t_address"
					},
					{
						"astId": 191,
						"contract": "contracts/Candidatos.sol:Candidatos",
						"label": "candidatos",
						"offset": 0,
						"slot": "1",
						"type": "t_array(t_struct(Candidato)187_storage)dyn_storage"
					},
					{
						"astId": 199,
						"contract": "contracts/Candidatos.sol:Candidatos",
						"label": "hasVoted",
						"offset": 0,
						"slot": "2",
						"type": "t_mapping(t_address,t_bool)"
					}
				],
				"types": {
					"t_address": {
						"encoding": "inplace",
						"label": "address",
						"numberOfBytes": "20"
					},
					"t_array(t_struct(Candidato)187_storage)dyn_storage": {
						"base": "t_struct(Candidato)187_storage",
						"encoding": "dynamic_array",
						"label": "struct Candidatos.Candidato[]",
						"numberOfBytes": "32"
					},
					"t_bool": {
						"encoding": "inplace",
						"label": "bool",
						"numberOfBytes": "1"
					},
					"t_mapping(t_address,t_bool)": {
						"encoding": "mapping",
						"key": "t_address",
						"label": "mapping(address => bool)",
						"numberOfBytes": "32",
						"value": "t_bool"
					},
					"t_string_storage": {
						"encoding": "bytes",
						"label": "string",
						"numberOfBytes": "32"
					},
					"t_struct(Candidato)187_storage": {
						"encoding": "inplace",
						"label": "struct Candidatos.Candidato",
						"members": [
							{
								"astId": 184,
								"contract": "contracts/Candidatos.sol:Candidatos",
								"label": "name",
								"offset": 0,
								"slot": "0",
								"type": "t_string_storage"
							},
							{
								"astId": 186,
								"contract": "contracts/Candidatos.sol:Candidatos",
								"label": "votos",
								"offset": 0,
								"slot": "1",
								"type": "t_uint256"
							}
						],
						"numberOfBytes": "64"
					},
					"t_uint256": {
						"encoding": "inplace",
						"label": "uint256",
						"numberOfBytes": "32"
					}
				}
			},
			"userdoc": {
				"kind": "user",
				"methods": {},
				"version": 1
			}
		}
	}
}