{
	"contracts/Gas.sol": {
		"FeelessCalculator": {
			"abi": [
				{
					"inputs": [],
					"stateMutability": "nonpayable",
					"type": "constructor"
				},
				{
					"anonymous": false,
					"inputs": [
						{
							"indexed": true,
							"internalType": "uint256",
							"name": "a",
							"type": "uint256"
						},
						{
							"indexed": true,
							"internalType": "uint256",
							"name": "b",
							"type": "uint256"
						},
						{
							"indexed": false,
							"internalType": "uint256",
							"name": "result",
							"type": "uint256"
						}
					],
					"name": "Sum",
					"type": "event"
				},
				{
					"inputs": [],
					"name": "giveMoneyToContract",
					"outputs": [],
					"stateMutability": "payable",
					"type": "function"
				},
				{
					"inputs": [],
					"name": "owner",
					"outputs": [
						{
							"internalType": "address",
							"name": "",
							"type": "address"
						}
					],
					"stateMutability": "view",
					"type": "function"
				},
				{
					"inputs": [
						{
							"internalType": "uint256",
							"name": "_a",
							"type": "uint256"
						},
						{
							"internalType": "uint256",
							"name": "_b",
							"type": "uint256"
						}
					],
					"name": "sum",
					"outputs": [
						{
							"internalType": "uint256",
							"name": "",
							"type": "uint256"
						}
					],
					"stateMutability": "nonpayable",
					"type": "function"
				},
				{
					"stateMutability": "payable",
					"type": "receive"
				}
			],
			"devdoc": {
				"kind": "dev",
				"methods": {},
				"version": 1
			},
			"evm": {
				"assembly": "    /* \"contracts/Gas.sol\":60:789  contract FeelessCalculator {... */\n  mstore(0x40, 0x80)\n    /* \"contracts/Gas.sol\":203:254  constructor() {... */\n  callvalue\n  dup1\n  iszero\n  tag_1\n  jumpi\n  0x00\n  dup1\n  revert\ntag_1:\n  pop\n    /* \"contracts/Gas.sol\":236:246  msg.sender */\n  caller\n    /* \"contracts/Gas.sol\":228:233  owner */\n  0x00\n  dup1\n    /* \"contracts/Gas.sol\":228:246  owner = msg.sender */\n  0x0100\n  exp\n  dup2\n  sload\n  dup2\n  0xffffffffffffffffffffffffffffffffffffffff\n  mul\n  not\n  and\n  swap1\n  dup4\n  0xffffffffffffffffffffffffffffffffffffffff\n  and\n  mul\n  or\n  swap1\n  sstore\n  pop\n    /* \"contracts/Gas.sol\":60:789  contract FeelessCalculator {... */\n  dataSize(sub_0)\n  dup1\n  dataOffset(sub_0)\n  0x00\n  codecopy\n  0x00\n  return\nstop\n\nsub_0: assembly {\n        /* \"contracts/Gas.sol\":60:789  contract FeelessCalculator {... */\n      mstore(0x40, 0x80)\n      jumpi(tag_1, lt(calldatasize, 0x04))\n      shr(0xe0, calldataload(0x00))\n      dup1\n      0x31bc9b9c\n      eq\n      tag_3\n      jumpi\n      dup1\n      0x8da5cb5b\n      eq\n      tag_4\n      jumpi\n      dup1\n      0xcad0899b\n      eq\n      tag_5\n      jumpi\n      jump(tag_2)\n    tag_1:\n      jumpi(tag_2, calldatasize)\n      stop\n    tag_2:\n      0x00\n      dup1\n      revert\n        /* \"contracts/Gas.sol\":573:685  function giveMoneyToContract() external payable onlyOwner {... */\n    tag_3:\n      tag_8\n      tag_9\n      jump\t// in\n    tag_8:\n      stop\n        /* \"contracts/Gas.sol\":94:114  address public owner */\n    tag_4:\n      callvalue\n      dup1\n      iszero\n      tag_10\n      jumpi\n      0x00\n      dup1\n      revert\n    tag_10:\n      pop\n      tag_11\n      tag_12\n      jump\t// in\n    tag_11:\n      mload(0x40)\n      tag_13\n      swap2\n      swap1\n      tag_14\n      jump\t// in\n    tag_13:\n      mload(0x40)\n      dup1\n      swap2\n      sub\n      swap1\n      return\n        /* \"contracts/Gas.sol\":395:561  function sum(uint256 _a, uint256 _b) external returns (uint256) {... */\n    tag_5:\n      callvalue\n      dup1\n      iszero\n      tag_15\n      jumpi\n      0x00\n      dup1\n      revert\n    tag_15:\n      pop\n      tag_16\n      0x04\n      dup1\n      calldatasize\n      sub\n      dup2\n      add\n      swap1\n      tag_17\n      swap2\n      swap1\n      tag_18\n      jump\t// in\n    tag_17:\n      tag_19\n      jump\t// in\n    tag_16:\n      mload(0x40)\n      tag_20\n      swap2\n      swap1\n      tag_21\n      jump\t// in\n    tag_20:\n      mload(0x40)\n      dup1\n      swap2\n      sub\n      swap1\n      return\n        /* \"contracts/Gas.sol\":573:685  function giveMoneyToContract() external payable onlyOwner {... */\n    tag_9:\n        /* \"contracts/Gas.sol\":320:325  owner */\n      0x00\n      dup1\n      sload\n      swap1\n      0x0100\n      exp\n      swap1\n      div\n      0xffffffffffffffffffffffffffffffffffffffff\n      and\n        /* \"contracts/Gas.sol\":306:325  msg.sender == owner */\n      0xffffffffffffffffffffffffffffffffffffffff\n      and\n        /* \"contracts/Gas.sol\":306:316  msg.sender */\n      caller\n        /* \"contracts/Gas.sol\":306:325  msg.sender == owner */\n      0xffffffffffffffffffffffffffffffffffffffff\n      and\n      eq\n        /* \"contracts/Gas.sol\":298:363  require(msg.sender == owner, \"Only owner can call this function\") */\n      tag_23\n      jumpi\n      mload(0x40)\n      0x08c379a000000000000000000000000000000000000000000000000000000000\n      dup2\n      mstore\n      0x04\n      add\n      tag_24\n      swap1\n      tag_25\n      jump\t// in\n    tag_24:\n      mload(0x40)\n      dup1\n      swap2\n      sub\n      swap1\n      revert\n    tag_23:\n        /* \"contracts/Gas.sol\":573:685  function giveMoneyToContract() external payable onlyOwner {... */\n      jump\t// out\n        /* \"contracts/Gas.sol\":94:114  address public owner */\n    tag_12:\n      0x00\n      dup1\n      sload\n      swap1\n      0x0100\n      exp\n      swap1\n      div\n      0xffffffffffffffffffffffffffffffffffffffff\n      and\n      dup2\n      jump\t// out\n        /* \"contracts/Gas.sol\":395:561  function sum(uint256 _a, uint256 _b) external returns (uint256) {... */\n    tag_19:\n        /* \"contracts/Gas.sol\":450:457  uint256 */\n      0x00\n        /* \"contracts/Gas.sol\":470:484  uint256 result */\n      dup1\n        /* \"contracts/Gas.sol\":492:494  _b */\n      dup3\n        /* \"contracts/Gas.sol\":487:489  _a */\n      dup5\n        /* \"contracts/Gas.sol\":487:494  _a + _b */\n      tag_28\n      swap2\n      swap1\n      tag_29\n      jump\t// in\n    tag_28:\n        /* \"contracts/Gas.sol\":470:494  uint256 result = _a + _b */\n      swap1\n      pop\n        /* \"contracts/Gas.sol\":518:520  _b */\n      dup3\n        /* \"contracts/Gas.sol\":514:516  _a */\n      dup5\n        /* \"contracts/Gas.sol\":510:529  Sum(_a, _b, result) */\n      0xed389495059e3255c7a92671d5719bf4fd25064cd6bbbe911affd790ed681541\n        /* \"contracts/Gas.sol\":522:528  result */\n      dup4\n        /* \"contracts/Gas.sol\":510:529  Sum(_a, _b, result) */\n      mload(0x40)\n      tag_30\n      swap2\n      swap1\n      tag_21\n      jump\t// in\n    tag_30:\n      mload(0x40)\n      dup1\n      swap2\n      sub\n      swap1\n      log3\n        /* \"contracts/Gas.sol\":547:553  result */\n      dup1\n        /* \"contracts/Gas.sol\":540:553  return result */\n      swap2\n      pop\n      pop\n        /* \"contracts/Gas.sol\":395:561  function sum(uint256 _a, uint256 _b) external returns (uint256) {... */\n      swap3\n      swap2\n      pop\n      pop\n      jump\t// out\n        /* \"#utility.yul\":7:133   */\n    tag_31:\n        /* \"#utility.yul\":44:51   */\n      0x00\n        /* \"#utility.yul\":84:126   */\n      0xffffffffffffffffffffffffffffffffffffffff\n        /* \"#utility.yul\":77:82   */\n      dup3\n        /* \"#utility.yul\":73:127   */\n      and\n        /* \"#utility.yul\":62:127   */\n      swap1\n      pop\n        /* \"#utility.yul\":7:133   */\n      swap2\n      swap1\n      pop\n      jump\t// out\n        /* \"#utility.yul\":139:235   */\n    tag_32:\n        /* \"#utility.yul\":176:183   */\n      0x00\n        /* \"#utility.yul\":205:229   */\n      tag_48\n        /* \"#utility.yul\":223:228   */\n      dup3\n        /* \"#utility.yul\":205:229   */\n      tag_31\n      jump\t// in\n    tag_48:\n        /* \"#utility.yul\":194:229   */\n      swap1\n      pop\n        /* \"#utility.yul\":139:235   */\n      swap2\n      swap1\n      pop\n      jump\t// out\n        /* \"#utility.yul\":241:359   */\n    tag_33:\n        /* \"#utility.yul\":328:352   */\n      tag_50\n        /* \"#utility.yul\":346:351   */\n      dup2\n        /* \"#utility.yul\":328:352   */\n      tag_32\n      jump\t// in\n    tag_50:\n        /* \"#utility.yul\":323:326   */\n      dup3\n        /* \"#utility.yul\":316:353   */\n      mstore\n        /* \"#utility.yul\":241:359   */\n      pop\n      pop\n      jump\t// out\n        /* \"#utility.yul\":365:587   */\n    tag_14:\n        /* \"#utility.yul\":458:462   */\n      0x00\n        /* \"#utility.yul\":496:498   */\n      0x20\n        /* \"#utility.yul\":485:494   */\n      dup3\n        /* \"#utility.yul\":481:499   */\n      add\n        /* \"#utility.yul\":473:499   */\n      swap1\n      pop\n        /* \"#utility.yul\":509:580   */\n      tag_52\n        /* \"#utility.yul\":577:578   */\n      0x00\n        /* \"#utility.yul\":566:575   */\n      dup4\n        /* \"#utility.yul\":562:579   */\n      add\n        /* \"#utility.yul\":553:559   */\n      dup5\n        /* \"#utility.yul\":509:580   */\n      tag_33\n      jump\t// in\n    tag_52:\n        /* \"#utility.yul\":365:587   */\n      swap3\n      swap2\n      pop\n      pop\n      jump\t// out\n        /* \"#utility.yul\":674:791   */\n    tag_35:\n        /* \"#utility.yul\":783:784   */\n      0x00\n        /* \"#utility.yul\":780:781   */\n      dup1\n        /* \"#utility.yul\":773:785   */\n      revert\n        /* \"#utility.yul\":920:997   */\n    tag_37:\n        /* \"#utility.yul\":957:964   */\n      0x00\n        /* \"#utility.yul\":986:991   */\n      dup2\n        /* \"#utility.yul\":975:991   */\n      swap1\n      pop\n        /* \"#utility.yul\":920:997   */\n      swap2\n      swap1\n      pop\n      jump\t// out\n        /* \"#utility.yul\":1003:1125   */\n    tag_38:\n        /* \"#utility.yul\":1076:1100   */\n      tag_58\n        /* \"#utility.yul\":1094:1099   */\n      dup2\n        /* \"#utility.yul\":1076:1100   */\n      tag_37\n      jump\t// in\n    tag_58:\n        /* \"#utility.yul\":1069:1074   */\n      dup2\n        /* \"#utility.yul\":1066:1101   */\n      eq\n        /* \"#utility.yul\":1056:1119   */\n      tag_59\n      jumpi\n        /* \"#utility.yul\":1115:1116   */\n      0x00\n        /* \"#utility.yul\":1112:1113   */\n      dup1\n        /* \"#utility.yul\":1105:1117   */\n      revert\n        /* \"#utility.yul\":1056:1119   */\n    tag_59:\n        /* \"#utility.yul\":1003:1125   */\n      pop\n      jump\t// out\n        /* \"#utility.yul\":1131:1270   */\n    tag_39:\n        /* \"#utility.yul\":1177:1182   */\n      0x00\n        /* \"#utility.yul\":1215:1221   */\n      dup2\n        /* \"#utility.yul\":1202:1222   */\n      calldataload\n        /* \"#utility.yul\":1193:1222   */\n      swap1\n      pop\n        /* \"#utility.yul\":1231:1264   */\n      tag_61\n        /* \"#utility.yul\":1258:1263   */\n      dup2\n        /* \"#utility.yul\":1231:1264   */\n      tag_38\n      jump\t// in\n    tag_61:\n        /* \"#utility.yul\":1131:1270   */\n      swap3\n      swap2\n      pop\n      pop\n      jump\t// out\n        /* \"#utility.yul\":1276:1750   */\n    tag_18:\n        /* \"#utility.yul\":1344:1350   */\n      0x00\n        /* \"#utility.yul\":1352:1358   */\n      dup1\n        /* \"#utility.yul\":1401:1403   */\n      0x40\n        /* \"#utility.yul\":1389:1398   */\n      dup4\n        /* \"#utility.yul\":1380:1387   */\n      dup6\n        /* \"#utility.yul\":1376:1399   */\n      sub\n        /* \"#utility.yul\":1372:1404   */\n      slt\n        /* \"#utility.yul\":1369:1488   */\n      iszero\n      tag_63\n      jumpi\n        /* \"#utility.yul\":1407:1486   */\n      tag_64\n      tag_35\n      jump\t// in\n    tag_64:\n        /* \"#utility.yul\":1369:1488   */\n    tag_63:\n        /* \"#utility.yul\":1527:1528   */\n      0x00\n        /* \"#utility.yul\":1552:1605   */\n      tag_65\n        /* \"#utility.yul\":1597:1604   */\n      dup6\n        /* \"#utility.yul\":1588:1594   */\n      dup3\n        /* \"#utility.yul\":1577:1586   */\n      dup7\n        /* \"#utility.yul\":1573:1595   */\n      add\n        /* \"#utility.yul\":1552:1605   */\n      tag_39\n      jump\t// in\n    tag_65:\n        /* \"#utility.yul\":1542:1605   */\n      swap3\n      pop\n        /* \"#utility.yul\":1498:1615   */\n      pop\n        /* \"#utility.yul\":1654:1656   */\n      0x20\n        /* \"#utility.yul\":1680:1733   */\n      tag_66\n        /* \"#utility.yul\":1725:1732   */\n      dup6\n        /* \"#utility.yul\":1716:1722   */\n      dup3\n        /* \"#utility.yul\":1705:1714   */\n      dup7\n        /* \"#utility.yul\":1701:1723   */\n      add\n        /* \"#utility.yul\":1680:1733   */\n      tag_39\n      jump\t// in\n    tag_66:\n        /* \"#utility.yul\":1670:1733   */\n      swap2\n      pop\n        /* \"#utility.yul\":1625:1743   */\n      pop\n        /* \"#utility.yul\":1276:1750   */\n      swap3\n      pop\n      swap3\n      swap1\n      pop\n      jump\t// out\n        /* \"#utility.yul\":1756:1874   */\n    tag_40:\n        /* \"#utility.yul\":1843:1867   */\n      tag_68\n        /* \"#utility.yul\":1861:1866   */\n      dup2\n        /* \"#utility.yul\":1843:1867   */\n      tag_37\n      jump\t// in\n    tag_68:\n        /* \"#utility.yul\":1838:1841   */\n      dup3\n        /* \"#utility.yul\":1831:1868   */\n      mstore\n        /* \"#utility.yul\":1756:1874   */\n      pop\n      pop\n      jump\t// out\n        /* \"#utility.yul\":1880:2102   */\n    tag_21:\n        /* \"#utility.yul\":1973:1977   */\n      0x00\n        /* \"#utility.yul\":2011:2013   */\n      0x20\n        /* \"#utility.yul\":2000:2009   */\n      dup3\n        /* \"#utility.yul\":1996:2014   */\n      add\n        /* \"#utility.yul\":1988:2014   */\n      swap1\n      pop\n        /* \"#utility.yul\":2024:2095   */\n      tag_70\n        /* \"#utility.yul\":2092:2093   */\n      0x00\n        /* \"#utility.yul\":2081:2090   */\n      dup4\n        /* \"#utility.yul\":2077:2094   */\n      add\n        /* \"#utility.yul\":2068:2074   */\n      dup5\n        /* \"#utility.yul\":2024:2095   */\n      tag_40\n      jump\t// in\n    tag_70:\n        /* \"#utility.yul\":1880:2102   */\n      swap3\n      swap2\n      pop\n      pop\n      jump\t// out\n        /* \"#utility.yul\":2108:2277   */\n    tag_41:\n        /* \"#utility.yul\":2192:2203   */\n      0x00\n        /* \"#utility.yul\":2226:2232   */\n      dup3\n        /* \"#utility.yul\":2221:2224   */\n      dup3\n        /* \"#utility.yul\":2214:2233   */\n      mstore\n        /* \"#utility.yul\":2266:2270   */\n      0x20\n        /* \"#utility.yul\":2261:2264   */\n      dup3\n        /* \"#utility.yul\":2257:2271   */\n      add\n        /* \"#utility.yul\":2242:2271   */\n      swap1\n      pop\n        /* \"#utility.yul\":2108:2277   */\n      swap3\n      swap2\n      pop\n      pop\n      jump\t// out\n        /* \"#utility.yul\":2283:2503   */\n    tag_42:\n        /* \"#utility.yul\":2423:2457   */\n      0x4f6e6c79206f776e65722063616e2063616c6c20746869732066756e6374696f\n        /* \"#utility.yul\":2419:2420   */\n      0x00\n        /* \"#utility.yul\":2411:2417   */\n      dup3\n        /* \"#utility.yul\":2407:2421   */\n      add\n        /* \"#utility.yul\":2400:2458   */\n      mstore\n        /* \"#utility.yul\":2492:2495   */\n      0x6e00000000000000000000000000000000000000000000000000000000000000\n        /* \"#utility.yul\":2487:2489   */\n      0x20\n        /* \"#utility.yul\":2479:2485   */\n      dup3\n        /* \"#utility.yul\":2475:2490   */\n      add\n        /* \"#utility.yul\":2468:2496   */\n      mstore\n        /* \"#utility.yul\":2283:2503   */\n      pop\n      jump\t// out\n        /* \"#utility.yul\":2509:2875   */\n    tag_43:\n        /* \"#utility.yul\":2651:2654   */\n      0x00\n        /* \"#utility.yul\":2672:2739   */\n      tag_74\n        /* \"#utility.yul\":2736:2738   */\n      0x21\n        /* \"#utility.yul\":2731:2734   */\n      dup4\n        /* \"#utility.yul\":2672:2739   */\n      tag_41\n      jump\t// in\n    tag_74:\n        /* \"#utility.yul\":2665:2739   */\n      swap2\n      pop\n        /* \"#utility.yul\":2748:2841   */\n      tag_75\n        /* \"#utility.yul\":2837:2840   */\n      dup3\n        /* \"#utility.yul\":2748:2841   */\n      tag_42\n      jump\t// in\n    tag_75:\n        /* \"#utility.yul\":2866:2868   */\n      0x40\n        /* \"#utility.yul\":2861:2864   */\n      dup3\n        /* \"#utility.yul\":2857:2869   */\n      add\n        /* \"#utility.yul\":2850:2869   */\n      swap1\n      pop\n        /* \"#utility.yul\":2509:2875   */\n      swap2\n      swap1\n      pop\n      jump\t// out\n        /* \"#utility.yul\":2881:3300   */\n    tag_25:\n        /* \"#utility.yul\":3047:3051   */\n      0x00\n        /* \"#utility.yul\":3085:3087   */\n      0x20\n        /* \"#utility.yul\":3074:3083   */\n      dup3\n        /* \"#utility.yul\":3070:3088   */\n      add\n        /* \"#utility.yul\":3062:3088   */\n      swap1\n      pop\n        /* \"#utility.yul\":3134:3143   */\n      dup2\n        /* \"#utility.yul\":3128:3132   */\n      dup2\n        /* \"#utility.yul\":3124:3144   */\n      sub\n        /* \"#utility.yul\":3120:3121   */\n      0x00\n        /* \"#utility.yul\":3109:3118   */\n      dup4\n        /* \"#utility.yul\":3105:3122   */\n      add\n        /* \"#utility.yul\":3098:3145   */\n      mstore\n        /* \"#utility.yul\":3162:3293   */\n      tag_77\n        /* \"#utility.yul\":3288:3292   */\n      dup2\n        /* \"#utility.yul\":3162:3293   */\n      tag_43\n      jump\t// in\n    tag_77:\n        /* \"#utility.yul\":3154:3293   */\n      swap1\n      pop\n        /* \"#utility.yul\":2881:3300   */\n      swap2\n      swap1\n      pop\n      jump\t// out\n        /* \"#utility.yul\":3306:3486   */\n    tag_44:\n        /* \"#utility.yul\":3354:3431   */\n      0x4e487b7100000000000000000000000000000000000000000000000000000000\n        /* \"#utility.yul\":3351:3352   */\n      0x00\n        /* \"#utility.yul\":3344:3432   */\n      mstore\n        /* \"#utility.yul\":3451:3455   */\n      0x11\n        /* \"#utility.yul\":3448:3449   */\n      0x04\n        /* \"#utility.yul\":3441:3456   */\n      mstore\n        /* \"#utility.yul\":3475:3479   */\n      0x24\n        /* \"#utility.yul\":3472:3473   */\n      0x00\n        /* \"#utility.yul\":3465:3480   */\n      revert\n        /* \"#utility.yul\":3492:3683   */\n    tag_29:\n        /* \"#utility.yul\":3532:3535   */\n      0x00\n        /* \"#utility.yul\":3551:3571   */\n      tag_80\n        /* \"#utility.yul\":3569:3570   */\n      dup3\n        /* \"#utility.yul\":3551:3571   */\n      tag_37\n      jump\t// in\n    tag_80:\n        /* \"#utility.yul\":3546:3571   */\n      swap2\n      pop\n        /* \"#utility.yul\":3585:3605   */\n      tag_81\n        /* \"#utility.yul\":3603:3604   */\n      dup4\n        /* \"#utility.yul\":3585:3605   */\n      tag_37\n      jump\t// in\n    tag_81:\n        /* \"#utility.yul\":3580:3605   */\n      swap3\n      pop\n        /* \"#utility.yul\":3628:3629   */\n      dup3\n        /* \"#utility.yul\":3625:3626   */\n      dup3\n        /* \"#utility.yul\":3621:3630   */\n      add\n        /* \"#utility.yul\":3614:3630   */\n      swap1\n      pop\n        /* \"#utility.yul\":3649:3652   */\n      dup1\n        /* \"#utility.yul\":3646:3647   */\n      dup3\n        /* \"#utility.yul\":3643:3653   */\n      gt\n        /* \"#utility.yul\":3640:3676   */\n      iszero\n      tag_82\n      jumpi\n        /* \"#utility.yul\":3656:3674   */\n      tag_83\n      tag_44\n      jump\t// in\n    tag_83:\n        /* \"#utility.yul\":3640:3676   */\n    tag_82:\n        /* \"#utility.yul\":3492:3683   */\n      swap3\n      swap2\n      pop\n      pop\n      jump\t// out\n\n    auxdata: 0xa2646970667358221220b905cf0d95cf4a59d496d13e97ce3958df24278081b7304c20dfc7c87671239064736f6c63430008190033\n}\n",
				"bytecode": {
					"linkReferences": {},
					"object": "6080604052348015600e575f80fd5b50335f806101000a81548173ffffffffffffffffffffffffffffffffffffffff021916908373ffffffffffffffffffffffffffffffffffffffff1602179055506103e08061005b5f395ff3fe608060405260043610610037575f3560e01c806331bc9b9c146100425780638da5cb5b1461004c578063cad0899b146100765761003e565b3661003e57005b5f80fd5b61004a6100b2565b005b348015610057575f80fd5b50610060610141565b60405161006d91906101f6565b60405180910390f35b348015610081575f80fd5b5061009c60048036038101906100979190610246565b610164565b6040516100a99190610293565b60405180910390f35b5f8054906101000a900473ffffffffffffffffffffffffffffffffffffffff1673ffffffffffffffffffffffffffffffffffffffff163373ffffffffffffffffffffffffffffffffffffffff161461013f576040517f08c379a00000000000000000000000000000000000000000000000000000000081526004016101369061032c565b60405180910390fd5b565b5f8054906101000a900473ffffffffffffffffffffffffffffffffffffffff1681565b5f8082846101729190610377565b905082847fed389495059e3255c7a92671d5719bf4fd25064cd6bbbe911affd790ed681541836040516101a59190610293565b60405180910390a38091505092915050565b5f73ffffffffffffffffffffffffffffffffffffffff82169050919050565b5f6101e0826101b7565b9050919050565b6101f0816101d6565b82525050565b5f6020820190506102095f8301846101e7565b92915050565b5f80fd5b5f819050919050565b61022581610213565b811461022f575f80fd5b50565b5f813590506102408161021c565b92915050565b5f806040838503121561025c5761025b61020f565b5b5f61026985828601610232565b925050602061027a85828601610232565b9150509250929050565b61028d81610213565b82525050565b5f6020820190506102a65f830184610284565b92915050565b5f82825260208201905092915050565b7f4f6e6c79206f776e65722063616e2063616c6c20746869732066756e6374696f5f8201527f6e00000000000000000000000000000000000000000000000000000000000000602082015250565b5f6103166021836102ac565b9150610321826102bc565b604082019050919050565b5f6020820190508181035f8301526103438161030a565b9050919050565b7f4e487b71000000000000000000000000000000000000000000000000000000005f52601160045260245ffd5b5f61038182610213565b915061038c83610213565b92508282019050808211156103a4576103a361034a565b5b9291505056fea2646970667358221220b905cf0d95cf4a59d496d13e97ce3958df24278081b7304c20dfc7c87671239064736f6c63430008190033",
					"opcodes": "PUSH1 0x80 PUSH1 0x40 MSTORE CALLVALUE DUP1 ISZERO PUSH1 0xE JUMPI PUSH0 DUP1 REVERT JUMPDEST POP CALLER PUSH0 DUP1 PUSH2 0x100 EXP DUP2 SLOAD DUP2 PUSH20 0xFFFFFFFFFFFFFFFFFFFFFFFFFFFFFFFFFFFFFFFF MUL NOT AND SWAP1 DUP4 PUSH20 0xFFFFFFFFFFFFFFFFFFFFFFFFFFFFFFFFFFFFFFFF AND MUL OR SWAP1 SSTORE POP PUSH2 0x3E0 DUP1 PUSH2 0x5B PUSH0 CODECOPY PUSH0 RETURN INVALID PUSH1 0x80 PUSH1 0x40 MSTORE PUSH1 0x4 CALLDATASIZE LT PUSH2 0x37 JUMPI PUSH0 CALLDATALOAD PUSH1 0xE0 SHR DUP1 PUSH4 0x31BC9B9C EQ PUSH2 0x42 JUMPI DUP1 PUSH4 0x8DA5CB5B EQ PUSH2 0x4C JUMPI DUP1 PUSH4 0xCAD0899B EQ PUSH2 0x76 JUMPI PUSH2 0x3E JUMP JUMPDEST CALLDATASIZE PUSH2 0x3E JUMPI STOP JUMPDEST PUSH0 DUP1 REVERT JUMPDEST PUSH2 0x4A PUSH2 0xB2 JUMP JUMPDEST STOP JUMPDEST CALLVALUE DUP1 ISZERO PUSH2 0x57 JUMPI PUSH0 DUP1 REVERT JUMPDEST POP PUSH2 0x60 PUSH2 0x141 JUMP JUMPDEST PUSH1 0x40 MLOAD PUSH2 0x6D SWAP2 SWAP1 PUSH2 0x1F6 JUMP JUMPDEST PUSH1 0x40 MLOAD DUP1 SWAP2 SUB SWAP1 RETURN JUMPDEST CALLVALUE DUP1 ISZERO PUSH2 0x81 JUMPI PUSH0 DUP1 REVERT JUMPDEST POP PUSH2 0x9C PUSH1 0x4 DUP1 CALLDATASIZE SUB DUP2 ADD SWAP1 PUSH2 0x97 SWAP2 SWAP1 PUSH2 0x246 JUMP JUMPDEST PUSH2 0x164 JUMP JUMPDEST PUSH1 0x40 MLOAD PUSH2 0xA9 SWAP2 SWAP1 PUSH2 0x293 JUMP JUMPDEST PUSH1 0x40 MLOAD DUP1 SWAP2 SUB SWAP1 RETURN JUMPDEST PUSH0 DUP1 SLOAD SWAP1 PUSH2 0x100 EXP SWAP1 DIV PUSH20 0xFFFFFFFFFFFFFFFFFFFFFFFFFFFFFFFFFFFFFFFF AND PUSH20 0xFFFFFFFFFFFFFFFFFFFFFFFFFFFFFFFFFFFFFFFF AND CALLER PUSH20 0xFFFFFFFFFFFFFFFFFFFFFFFFFFFFFFFFFFFFFFFF AND EQ PUSH2 0x13F JUMPI PUSH1 0x40 MLOAD PUSH32 0x8C379A000000000000000000000000000000000000000000000000000000000 DUP2 MSTORE PUSH1 0x4 ADD PUSH2 0x136 SWAP1 PUSH2 0x32C JUMP JUMPDEST PUSH1 0x40 MLOAD DUP1 SWAP2 SUB SWAP1 REVERT JUMPDEST JUMP JUMPDEST PUSH0 DUP1 SLOAD SWAP1 PUSH2 0x100 EXP SWAP1 DIV PUSH20 0xFFFFFFFFFFFFFFFFFFFFFFFFFFFFFFFFFFFFFFFF AND DUP2 JUMP JUMPDEST PUSH0 DUP1 DUP3 DUP5 PUSH2 0x172 SWAP2 SWAP1 PUSH2 0x377 JUMP JUMPDEST SWAP1 POP DUP3 DUP5 PUSH32 0xED389495059E3255C7A92671D5719BF4FD25064CD6BBBE911AFFD790ED681541 DUP4 PUSH1 0x40 MLOAD PUSH2 0x1A5 SWAP2 SWAP1 PUSH2 0x293 JUMP JUMPDEST PUSH1 0x40 MLOAD DUP1 SWAP2 SUB SWAP1 LOG3 DUP1 SWAP2 POP POP SWAP3 SWAP2 POP POP JUMP JUMPDEST PUSH0 PUSH20 0xFFFFFFFFFFFFFFFFFFFFFFFFFFFFFFFFFFFFFFFF DUP3 AND SWAP1 POP SWAP2 SWAP1 POP JUMP JUMPDEST PUSH0 PUSH2 0x1E0 DUP3 PUSH2 0x1B7 JUMP JUMPDEST SWAP1 POP SWAP2 SWAP1 POP JUMP JUMPDEST PUSH2 0x1F0 DUP2 PUSH2 0x1D6 JUMP JUMPDEST DUP3 MSTORE POP POP JUMP JUMPDEST PUSH0 PUSH1 0x20 DUP3 ADD SWAP1 POP PUSH2 0x209 PUSH0 DUP4 ADD DUP5 PUSH2 0x1E7 JUMP JUMPDEST SWAP3 SWAP2 POP POP JUMP JUMPDEST PUSH0 DUP1 REVERT JUMPDEST PUSH0 DUP2 SWAP1 POP SWAP2 SWAP1 POP JUMP JUMPDEST PUSH2 0x225 DUP2 PUSH2 0x213 JUMP JUMPDEST DUP2 EQ PUSH2 0x22F JUMPI PUSH0 DUP1 REVERT JUMPDEST POP JUMP JUMPDEST PUSH0 DUP2 CALLDATALOAD SWAP1 POP PUSH2 0x240 DUP2 PUSH2 0x21C JUMP JUMPDEST SWAP3 SWAP2 POP POP JUMP JUMPDEST PUSH0 DUP1 PUSH1 0x40 DUP4 DUP6 SUB SLT ISZERO PUSH2 0x25C JUMPI PUSH2 0x25B PUSH2 0x20F JUMP JUMPDEST JUMPDEST PUSH0 PUSH2 0x269 DUP6 DUP3 DUP7 ADD PUSH2 0x232 JUMP JUMPDEST SWAP3 POP POP PUSH1 0x20 PUSH2 0x27A DUP6 DUP3 DUP7 ADD PUSH2 0x232 JUMP JUMPDEST SWAP2 POP POP SWAP3 POP SWAP3 SWAP1 POP JUMP JUMPDEST PUSH2 0x28D DUP2 PUSH2 0x213 JUMP JUMPDEST DUP3 MSTORE POP POP JUMP JUMPDEST PUSH0 PUSH1 0x20 DUP3 ADD SWAP1 POP PUSH2 0x2A6 PUSH0 DUP4 ADD DUP5 PUSH2 0x284 JUMP JUMPDEST SWAP3 SWAP2 POP POP JUMP JUMPDEST PUSH0 DUP3 DUP3 MSTORE PUSH1 0x20 DUP3 ADD SWAP1 POP SWAP3 SWAP2 POP POP JUMP JUMPDEST PUSH32 0x4F6E6C79206F776E65722063616E2063616C6C20746869732066756E6374696F PUSH0 DUP3 ADD MSTORE PUSH32 0x6E00000000000000000000000000000000000000000000000000000000000000 PUSH1 0x20 DUP3 ADD MSTORE POP JUMP JUMPDEST PUSH0 PUSH2 0x316 PUSH1 0x21 DUP4 PUSH2 0x2AC JUMP JUMPDEST SWAP2 POP PUSH2 0x321 DUP3 PUSH2 0x2BC JUMP JUMPDEST PUSH1 0x40 DUP3 ADD SWAP1 POP SWAP2 SWAP1 POP JUMP JUMPDEST PUSH0 PUSH1 0x20 DUP3 ADD SWAP1 POP DUP2 DUP2 SUB PUSH0 DUP4 ADD MSTORE PUSH2 0x343 DUP2 PUSH2 0x30A JUMP JUMPDEST SWAP1 POP SWAP2 SWAP1 POP JUMP JUMPDEST PUSH32 0x4E487B7100000000000000000000000000000000000000000000000000000000 PUSH0 MSTORE PUSH1 0x11 PUSH1 0x4 MSTORE PUSH1 0x24 PUSH0 REVERT JUMPDEST PUSH0 PUSH2 0x381 DUP3 PUSH2 0x213 JUMP JUMPDEST SWAP2 POP PUSH2 0x38C DUP4 PUSH2 0x213 JUMP JUMPDEST SWAP3 POP DUP3 DUP3 ADD SWAP1 POP DUP1 DUP3 GT ISZERO PUSH2 0x3A4 JUMPI PUSH2 0x3A3 PUSH2 0x34A JUMP JUMPDEST JUMPDEST SWAP3 SWAP2 POP POP JUMP INVALID LOG2 PUSH5 0x6970667358 0x22 SLT KECCAK256 0xB9 SDIV 0xCF 0xD SWAP6 0xCF BLOBBASEFEE MSIZE 0xD4 SWAP7 0xD1 RETURNDATACOPY SWAP8 0xCE CODECOPY PC 0xDF 0x24 0x27 DUP1 DUP2 0xB7 ADDRESS 0x4C KECCAK256 0xDF 0xC7 0xC8 PUSH23 0x71239064736F6C63430008190033000000000000000000 "
				},
				"gasEstimates": {
					"creation": {
						"codeDepositCost": "198400",
						"executionCost": "24501",
						"totalCost": "222901"
					},
					"external": {
						"giveMoneyToContract()": "2565",
						"owner()": "2505",
						"sum(uint256,uint256)": "infinite"
					}
				},
				"methodIdentifiers": {
					"giveMoneyToContract()": "31bc9b9c",
					"owner()": "8da5cb5b",
					"sum(uint256,uint256)": "cad0899b"
				}
			},
			"storageLayout": {
				"storage": [
					{
						"astId": 3,
						"contract": "contracts/Gas.sol:FeelessCalculator",
						"label": "owner",
						"offset": 0,
						"slot": "0",
						"type": "t_address"
					}
				],
				"types": {
					"t_address": {
						"encoding": "inplace",
						"label": "address",
						"numberOfBytes": "20"
					}
				}
			},
			"userdoc": {
				"kind": "user",
				"methods": {},
				"version": 1
			}
		}
	}
}