{
	"contracts/Candidatos.sol": {
		"Candidatos": {
			"abi": [
				{
					"inputs": [],
					"stateMutability": "nonpayable",
					"type": "constructor"
				},
				{
					"inputs": [
						{
							"internalType": "address",
							"name": "owner",
							"type": "address"
						}
					],
					"name": "OwnableInvalidOwner",
					"type": "error"
				},
				{
					"inputs": [
						{
							"internalType": "address",
							"name": "account",
							"type": "address"
						}
					],
					"name": "OwnableUnauthorizedAccount",
					"type": "error"
				},
				{
					"anonymous": false,
					"inputs": [
						{
							"indexed": false,
							"internalType": "string",
							"name": "nombre",
							"type": "string"
						}
					],
					"name": "CandidatoAgregado",
					"type": "event"
				},
				{
					"anonymous": false,
					"inputs": [
						{
							"indexed": true,
							"internalType": "address",
							"name": "previousOwner",
							"type": "address"
						},
						{
							"indexed": true,
							"internalType": "address",
							"name": "newOwner",
							"type": "address"
						}
					],
					"name": "OwnershipTransferred",
					"type": "event"
				},
				{
					"inputs": [
						{
							"internalType": "string",
							"name": "_nombre",
							"type": "string"
						}
					],
					"name": "agregarCandidato",
					"outputs": [],
					"stateMutability": "nonpayable",
					"type": "function"
				},
				{
					"inputs": [
						{
							"internalType": "uint256",
							"name": "",
							"type": "uint256"
						}
					],
					"name": "candidatos",
					"outputs": [
						{
							"internalType": "string",
							"name": "name",
							"type": "string"
						},
						{
							"internalType": "uint256",
							"name": "votos",
							"type": "uint256"
						}
					],
					"stateMutability": "view",
					"type": "function"
				},
				{
					"inputs": [],
					"name": "getAllCandidatos",
					"outputs": [
						{
							"components": [
								{
									"internalType": "string",
									"name": "name",
									"type": "string"
								},
								{
									"internalType": "uint256",
									"name": "votos",
									"type": "uint256"
								}
							],
							"internalType": "struct Candidatos.Candidato[]",
							"name": "",
							"type": "tuple[]"
						}
					],
					"stateMutability": "view",
					"type": "function"
				},
				{
					"inputs": [],
					"name": "owner",
					"outputs": [
						{
							"internalType": "address",
							"name": "",
							"type": "address"
						}
					],
					"stateMutability": "view",
					"type": "function"
				},
				{
					"inputs": [],
					"name": "renounceOwnership",
					"outputs": [],
					"stateMutability": "nonpayable",
					"type": "function"
				},
				{
					"inputs": [
						{
							"internalType": "address",
							"name": "newOwner",
							"type": "address"
						}
					],
					"name": "transferOwnership",
					"outputs": [],
					"stateMutability": "nonpayable",
					"type": "function"
				}
			],
			"devdoc": {
				"errors": {
					"OwnableInvalidOwner(address)": [
						{
							"details": "The owner is not a valid owner account. (eg. `address(0)`)"
						}
					],
					"OwnableUnauthorizedAccount(address)": [
						{
							"details": "The caller account is not authorized to perform an operation."
						}
					]
				},
				"kind": "dev",
				"methods": {
					"owner()": {
						"details": "Returns the address of the current owner."
					},
					"renounceOwnership()": {
						"details": "Leaves the contract without owner. It will not be possible to call `onlyOwner` functions. Can only be called by the current owner. NOTE: Renouncing ownership will leave the contract without an owner, thereby disabling any functionality that is only available to the owner."
					},
					"transferOwnership(address)": {
						"details": "Transfers ownership of the contract to a new account (`newOwner`). Can only be called by the current owner."
					}
				},
				"version": 1
			},
			"evm": {
				"assembly": "    /* \"contracts/Candidatos.sol\":116:1056  contract Candidatos is Ownable {... */\n  mstore(0x40, 0x80)\n    /* \"contracts/Candidatos.sol\":612:648  constructor() Ownable(msg.sender) {} */\n  callvalue\n  dup1\n  iszero\n  tag_1\n  jumpi\n  0x00\n  dup1\n  revert\ntag_1:\n  pop\n    /* \"contracts/Candidatos.sol\":634:644  msg.sender */\n  caller\n    /* \"@openzeppelin/contracts/access/Ownable.sol\":1297:1298  0 */\n  0x00\n    /* \"@openzeppelin/contracts/access/Ownable.sol\":1273:1299  initialOwner == address(0) */\n  0xffffffffffffffffffffffffffffffffffffffff\n  and\n    /* \"@openzeppelin/contracts/access/Ownable.sol\":1273:1285  initialOwner */\n  dup2\n    /* \"@openzeppelin/contracts/access/Ownable.sol\":1273:1299  initialOwner == address(0) */\n  0xffffffffffffffffffffffffffffffffffffffff\n  and\n  sub\n    /* \"@openzeppelin/contracts/access/Ownable.sol\":1269:1364  if (initialOwner == address(0)) {... */\n  tag_5\n  jumpi\n    /* \"@openzeppelin/contracts/access/Ownable.sol\":1350:1351  0 */\n  0x00\n    /* \"@openzeppelin/contracts/access/Ownable.sol\":1322:1353  OwnableInvalidOwner(address(0)) */\n  mload(0x40)\n  0x1e4fbdf700000000000000000000000000000000000000000000000000000000\n  dup2\n  mstore\n  0x04\n  add\n  tag_6\n  swap2\n  swap1\n  tag_7\n  jump\t// in\ntag_6:\n  mload(0x40)\n  dup1\n  swap2\n  sub\n  swap1\n  revert\n    /* \"@openzeppelin/contracts/access/Ownable.sol\":1269:1364  if (initialOwner == address(0)) {... */\ntag_5:\n    /* \"@openzeppelin/contracts/access/Ownable.sol\":1373:1405  _transferOwnership(initialOwner) */\n  tag_8\n    /* \"@openzeppelin/contracts/access/Ownable.sol\":1392:1404  initialOwner */\n  dup2\n    /* \"@openzeppelin/contracts/access/Ownable.sol\":1373:1391  _transferOwnership */\n  shl(0x20, tag_9)\n    /* \"@openzeppelin/contracts/access/Ownable.sol\":1373:1405  _transferOwnership(initialOwner) */\n  0x20\n  shr\n  jump\t// in\ntag_8:\n    /* \"@openzeppelin/contracts/access/Ownable.sol\":1225:1412  constructor(address initialOwner) {... */\n  pop\n    /* \"contracts/Candidatos.sol\":116:1056  contract Candidatos is Ownable {... */\n  jump(tag_11)\n    /* \"@openzeppelin/contracts/access/Ownable.sol\":2912:3099  function _transferOwnership(address newOwner) internal virtual {... */\ntag_9:\n    /* \"@openzeppelin/contracts/access/Ownable.sol\":2985:3001  address oldOwner */\n  0x00\n    /* \"@openzeppelin/contracts/access/Ownable.sol\":3004:3010  _owner */\n  dup1\n  0x00\n  swap1\n  sload\n  swap1\n  0x0100\n  exp\n  swap1\n  div\n  0xffffffffffffffffffffffffffffffffffffffff\n  and\n    /* \"@openzeppelin/contracts/access/Ownable.sol\":2985:3010  address oldOwner = _owner */\n  swap1\n  pop\n    /* \"@openzeppelin/contracts/access/Ownable.sol\":3029:3037  newOwner */\n  dup2\n    /* \"@openzeppelin/contracts/access/Ownable.sol\":3020:3026  _owner */\n  0x00\n  dup1\n    /* \"@openzeppelin/contracts/access/Ownable.sol\":3020:3037  _owner = newOwner */\n  0x0100\n  exp\n  dup2\n  sload\n  dup2\n  0xffffffffffffffffffffffffffffffffffffffff\n  mul\n  not\n  and\n  swap1\n  dup4\n  0xffffffffffffffffffffffffffffffffffffffff\n  and\n  mul\n  or\n  swap1\n  sstore\n  pop\n    /* \"@openzeppelin/contracts/access/Ownable.sol\":3083:3091  newOwner */\n  dup2\n    /* \"@openzeppelin/contracts/access/Ownable.sol\":3052:3092  OwnershipTransferred(oldOwner, newOwner) */\n  0xffffffffffffffffffffffffffffffffffffffff\n  and\n    /* \"@openzeppelin/contracts/access/Ownable.sol\":3073:3081  oldOwner */\n  dup2\n    /* \"@openzeppelin/contracts/access/Ownable.sol\":3052:3092  OwnershipTransferred(oldOwner, newOwner) */\n  0xffffffffffffffffffffffffffffffffffffffff\n  and\n  0x8be0079c531659141344cd1fd0a4f28419497f9722a3daafe3b4186f6b6457e0\n  mload(0x40)\n  mload(0x40)\n  dup1\n  swap2\n  sub\n  swap1\n  log3\n    /* \"@openzeppelin/contracts/access/Ownable.sol\":2975:3099  {... */\n  pop\n    /* \"@openzeppelin/contracts/access/Ownable.sol\":2912:3099  function _transferOwnership(address newOwner) internal virtual {... */\n  pop\n  jump\t// out\n    /* \"#utility.yul\":7:133   */\ntag_13:\n    /* \"#utility.yul\":44:51   */\n  0x00\n    /* \"#utility.yul\":84:126   */\n  0xffffffffffffffffffffffffffffffffffffffff\n    /* \"#utility.yul\":77:82   */\n  dup3\n    /* \"#utility.yul\":73:127   */\n  and\n    /* \"#utility.yul\":62:127   */\n  swap1\n  pop\n    /* \"#utility.yul\":7:133   */\n  swap2\n  swap1\n  pop\n  jump\t// out\n    /* \"#utility.yul\":139:235   */\ntag_14:\n    /* \"#utility.yul\":176:183   */\n  0x00\n    /* \"#utility.yul\":205:229   */\n  tag_19\n    /* \"#utility.yul\":223:228   */\n  dup3\n    /* \"#utility.yul\":205:229   */\n  tag_13\n  jump\t// in\ntag_19:\n    /* \"#utility.yul\":194:229   */\n  swap1\n  pop\n    /* \"#utility.yul\":139:235   */\n  swap2\n  swap1\n  pop\n  jump\t// out\n    /* \"#utility.yul\":241:359   */\ntag_15:\n    /* \"#utility.yul\":328:352   */\n  tag_21\n    /* \"#utility.yul\":346:351   */\n  dup2\n    /* \"#utility.yul\":328:352   */\n  tag_14\n  jump\t// in\ntag_21:\n    /* \"#utility.yul\":323:326   */\n  dup3\n    /* \"#utility.yul\":316:353   */\n  mstore\n    /* \"#utility.yul\":241:359   */\n  pop\n  pop\n  jump\t// out\n    /* \"#utility.yul\":365:587   */\ntag_7:\n    /* \"#utility.yul\":458:462   */\n  0x00\n    /* \"#utility.yul\":496:498   */\n  0x20\n    /* \"#utility.yul\":485:494   */\n  dup3\n    /* \"#utility.yul\":481:499   */\n  add\n    /* \"#utility.yul\":473:499   */\n  swap1\n  pop\n    /* \"#utility.yul\":509:580   */\n  tag_23\n    /* \"#utility.yul\":577:578   */\n  0x00\n    /* \"#utility.yul\":566:575   */\n  dup4\n    /* \"#utility.yul\":562:579   */\n  add\n    /* \"#utility.yul\":553:559   */\n  dup5\n    /* \"#utility.yul\":509:580   */\n  tag_15\n  jump\t// in\ntag_23:\n    /* \"#utility.yul\":365:587   */\n  swap3\n  swap2\n  pop\n  pop\n  jump\t// out\n    /* \"contracts/Candidatos.sol\":116:1056  contract Candidatos is Ownable {... */\ntag_11:\n  dataSize(sub_0)\n  dup1\n  dataOffset(sub_0)\n  0x00\n  codecopy\n  0x00\n  return\nstop\n\nsub_0: assembly {\n        /* \"contracts/Candidatos.sol\":116:1056  contract Candidatos is Ownable {... */\n      mstore(0x40, 0x80)\n      callvalue\n      dup1\n      iszero\n      tag_1\n      jumpi\n      0x00\n      dup1\n      revert\n    tag_1:\n      pop\n      jumpi(tag_2, lt(calldatasize, 0x04))\n      shr(0xe0, calldataload(0x00))\n      dup1\n      0x198cc691\n      eq\n      tag_3\n      jumpi\n      dup1\n      0x503c560f\n      eq\n      tag_4\n      jumpi\n      dup1\n      0x715018a6\n      eq\n      tag_5\n      jumpi\n      dup1\n      0x8da5cb5b\n      eq\n      tag_6\n      jumpi\n      dup1\n      0x8f023f85\n      eq\n      tag_7\n      jumpi\n      dup1\n      0xf2fde38b\n      eq\n      tag_8\n      jumpi\n    tag_2:\n      0x00\n      dup1\n      revert\n        /* \"contracts/Candidatos.sol\":948:1053  function getAllCandidatos() public view returns (Candidato[] memory) {... */\n    tag_3:\n      tag_9\n      tag_10\n      jump\t// in\n    tag_9:\n      mload(0x40)\n      tag_11\n      swap2\n      swap1\n      tag_12\n      jump\t// in\n    tag_11:\n      mload(0x40)\n      dup1\n      swap2\n      sub\n      swap1\n      return\n        /* \"contracts/Candidatos.sol\":705:870  function agregarCandidato(string memory _nombre) public onlyOwner {... */\n    tag_4:\n      tag_13\n      0x04\n      dup1\n      calldatasize\n      sub\n      dup2\n      add\n      swap1\n      tag_14\n      swap2\n      swap1\n      tag_15\n      jump\t// in\n    tag_14:\n      tag_16\n      jump\t// in\n    tag_13:\n      stop\n        /* \"@openzeppelin/contracts/access/Ownable.sol\":2293:2394  function renounceOwnership() public virtual onlyOwner {... */\n    tag_5:\n      tag_17\n      tag_18\n      jump\t// in\n    tag_17:\n      stop\n        /* \"@openzeppelin/contracts/access/Ownable.sol\":1638:1723  function owner() public view virtual returns (address) {... */\n    tag_6:\n      tag_19\n      tag_20\n      jump\t// in\n    tag_19:\n      mload(0x40)\n      tag_21\n      swap2\n      swap1\n      tag_22\n      jump\t// in\n    tag_21:\n      mload(0x40)\n      dup1\n      swap2\n      sub\n      swap1\n      return\n        /* \"contracts/Candidatos.sol\":364:393  Candidato[] public candidatos */\n    tag_7:\n      tag_23\n      0x04\n      dup1\n      calldatasize\n      sub\n      dup2\n      add\n      swap1\n      tag_24\n      swap2\n      swap1\n      tag_25\n      jump\t// in\n    tag_24:\n      tag_26\n      jump\t// in\n    tag_23:\n      mload(0x40)\n      tag_27\n      swap3\n      swap2\n      swap1\n      tag_28\n      jump\t// in\n    tag_27:\n      mload(0x40)\n      dup1\n      swap2\n      sub\n      swap1\n      return\n        /* \"@openzeppelin/contracts/access/Ownable.sol\":2543:2758  function transferOwnership(address newOwner) public virtual onlyOwner {... */\n    tag_8:\n      tag_29\n      0x04\n      dup1\n      calldatasize\n      sub\n      dup2\n      add\n      swap1\n      tag_30\n      swap2\n      swap1\n      tag_31\n      jump\t// in\n    tag_30:\n      tag_32\n      jump\t// in\n    tag_29:\n      stop\n        /* \"contracts/Candidatos.sol\":948:1053  function getAllCandidatos() public view returns (Candidato[] memory) {... */\n    tag_10:\n        /* \"contracts/Candidatos.sol\":997:1015  Candidato[] memory */\n      0x60\n        /* \"contracts/Candidatos.sol\":1035:1045  candidatos */\n      0x01\n        /* \"contracts/Candidatos.sol\":1028:1045  return candidatos */\n      dup1\n      sload\n      dup1\n      0x20\n      mul\n      0x20\n      add\n      mload(0x40)\n      swap1\n      dup2\n      add\n      0x40\n      mstore\n      dup1\n      swap3\n      swap2\n      swap1\n      dup2\n      dup2\n      mstore\n      0x20\n      add\n      0x00\n      swap1\n    tag_34:\n      dup3\n      dup3\n      lt\n      iszero\n      tag_35\n      jumpi\n      dup4\n      dup3\n      swap1\n      0x00\n      mstore\n      keccak256(0x00, 0x20)\n      swap1\n      0x02\n      mul\n      add\n      mload(0x40)\n      dup1\n      0x40\n      add\n      0x40\n      mstore\n      swap1\n      dup2\n      0x00\n      dup3\n      add\n      dup1\n      sload\n      tag_37\n      swap1\n      tag_38\n      jump\t// in\n    tag_37:\n      dup1\n      0x1f\n      add\n      0x20\n      dup1\n      swap2\n      div\n      mul\n      0x20\n      add\n      mload(0x40)\n      swap1\n      dup2\n      add\n      0x40\n      mstore\n      dup1\n      swap3\n      swap2\n      swap1\n      dup2\n      dup2\n      mstore\n      0x20\n      add\n      dup3\n      dup1\n      sload\n      tag_39\n      swap1\n      tag_38\n      jump\t// in\n    tag_39:\n      dup1\n      iszero\n      tag_40\n      jumpi\n      dup1\n      0x1f\n      lt\n      tag_41\n      jumpi\n      0x0100\n      dup1\n      dup4\n      sload\n      div\n      mul\n      dup4\n      mstore\n      swap2\n      0x20\n      add\n      swap2\n      jump(tag_40)\n    tag_41:\n      dup3\n      add\n      swap2\n      swap1\n      0x00\n      mstore\n      keccak256(0x00, 0x20)\n      swap1\n    tag_42:\n      dup2\n      sload\n      dup2\n      mstore\n      swap1\n      0x01\n      add\n      swap1\n      0x20\n      add\n      dup1\n      dup4\n      gt\n      tag_42\n      jumpi\n      dup3\n      swap1\n      sub\n      0x1f\n      and\n      dup3\n      add\n      swap2\n    tag_40:\n      pop\n      pop\n      pop\n      pop\n      pop\n      dup2\n      mstore\n      0x20\n      add\n      0x01\n      dup3\n      add\n      sload\n      dup2\n      mstore\n      pop\n      pop\n      dup2\n      mstore\n      0x20\n      add\n      swap1\n      0x01\n      add\n      swap1\n      jump(tag_34)\n    tag_35:\n      pop\n      pop\n      pop\n      pop\n      swap1\n      pop\n        /* \"contracts/Candidatos.sol\":948:1053  function getAllCandidatos() public view returns (Candidato[] memory) {... */\n      swap1\n      jump\t// out\n        /* \"contracts/Candidatos.sol\":705:870  function agregarCandidato(string memory _nombre) public onlyOwner {... */\n    tag_16:\n        /* \"@openzeppelin/contracts/access/Ownable.sol\":1531:1544  _checkOwner() */\n      tag_44\n        /* \"@openzeppelin/contracts/access/Ownable.sol\":1531:1542  _checkOwner */\n      tag_45\n        /* \"@openzeppelin/contracts/access/Ownable.sol\":1531:1544  _checkOwner() */\n      jump\t// in\n    tag_44:\n        /* \"contracts/Candidatos.sol\":782:792  candidatos */\n      0x01\n        /* \"contracts/Candidatos.sol\":798:819  Candidato(_nombre, 0) */\n      mload(0x40)\n      dup1\n      0x40\n      add\n      0x40\n      mstore\n      dup1\n        /* \"contracts/Candidatos.sol\":808:815  _nombre */\n      dup4\n        /* \"contracts/Candidatos.sol\":798:819  Candidato(_nombre, 0) */\n      dup2\n      mstore\n      0x20\n      add\n        /* \"contracts/Candidatos.sol\":817:818  0 */\n      0x00\n        /* \"contracts/Candidatos.sol\":798:819  Candidato(_nombre, 0) */\n      dup2\n      mstore\n      pop\n        /* \"contracts/Candidatos.sol\":782:820  candidatos.push(Candidato(_nombre, 0)) */\n      swap1\n      dup1\n      0x01\n      dup2\n      sload\n      add\n      dup1\n      dup3\n      sstore\n      dup1\n      swap2\n      pop\n      pop\n      0x01\n      swap1\n      sub\n      swap1\n      0x00\n      mstore\n      keccak256(0x00, 0x20)\n      swap1\n      0x02\n      mul\n      add\n      0x00\n      swap1\n      swap2\n      swap1\n      swap2\n      swap1\n      swap2\n      pop\n      0x00\n      dup3\n      add\n      mload\n      dup2\n      0x00\n      add\n      swap1\n      dup2\n      tag_48\n      swap2\n      swap1\n      tag_49\n      jump\t// in\n    tag_48:\n      pop\n      0x20\n      dup3\n      add\n      mload\n      dup2\n      0x01\n      add\n      sstore\n      pop\n      pop\n        /* \"contracts/Candidatos.sol\":836:862  CandidatoAgregado(_nombre) */\n      0x566c2d39711b082cc685ade507dee6291f47044333d9aba4037034cdc3cfac9e\n        /* \"contracts/Candidatos.sol\":854:861  _nombre */\n      dup2\n        /* \"contracts/Candidatos.sol\":836:862  CandidatoAgregado(_nombre) */\n      mload(0x40)\n      tag_50\n      swap2\n      swap1\n      tag_51\n      jump\t// in\n    tag_50:\n      mload(0x40)\n      dup1\n      swap2\n      sub\n      swap1\n      log1\n        /* \"contracts/Candidatos.sol\":705:870  function agregarCandidato(string memory _nombre) public onlyOwner {... */\n      pop\n      jump\t// out\n        /* \"@openzeppelin/contracts/access/Ownable.sol\":2293:2394  function renounceOwnership() public virtual onlyOwner {... */\n    tag_18:\n        /* \"@openzeppelin/contracts/access/Ownable.sol\":1531:1544  _checkOwner() */\n      tag_53\n        /* \"@openzeppelin/contracts/access/Ownable.sol\":1531:1542  _checkOwner */\n      tag_45\n        /* \"@openzeppelin/contracts/access/Ownable.sol\":1531:1544  _checkOwner() */\n      jump\t// in\n    tag_53:\n        /* \"@openzeppelin/contracts/access/Ownable.sol\":2357:2387  _transferOwnership(address(0)) */\n      tag_55\n        /* \"@openzeppelin/contracts/access/Ownable.sol\":2384:2385  0 */\n      0x00\n        /* \"@openzeppelin/contracts/access/Ownable.sol\":2357:2375  _transferOwnership */\n      tag_56\n        /* \"@openzeppelin/contracts/access/Ownable.sol\":2357:2387  _transferOwnership(address(0)) */\n      jump\t// in\n    tag_55:\n        /* \"@openzeppelin/contracts/access/Ownable.sol\":2293:2394  function renounceOwnership() public virtual onlyOwner {... */\n      jump\t// out\n        /* \"@openzeppelin/contracts/access/Ownable.sol\":1638:1723  function owner() public view virtual returns (address) {... */\n    tag_20:\n        /* \"@openzeppelin/contracts/access/Ownable.sol\":1684:1691  address */\n      0x00\n        /* \"@openzeppelin/contracts/access/Ownable.sol\":1710:1716  _owner */\n      dup1\n      0x00\n      swap1\n      sload\n      swap1\n      0x0100\n      exp\n      swap1\n      div\n      0xffffffffffffffffffffffffffffffffffffffff\n      and\n        /* \"@openzeppelin/contracts/access/Ownable.sol\":1703:1716  return _owner */\n      swap1\n      pop\n        /* \"@openzeppelin/contracts/access/Ownable.sol\":1638:1723  function owner() public view virtual returns (address) {... */\n      swap1\n      jump\t// out\n        /* \"contracts/Candidatos.sol\":364:393  Candidato[] public candidatos */\n    tag_26:\n      0x01\n      dup2\n      dup2\n      sload\n      dup2\n      lt\n      tag_58\n      jumpi\n      0x00\n      dup1\n      revert\n    tag_58:\n      swap1\n      0x00\n      mstore\n      keccak256(0x00, 0x20)\n      swap1\n      0x02\n      mul\n      add\n      0x00\n      swap2\n      pop\n      swap1\n      pop\n      dup1\n      0x00\n      add\n      dup1\n      sload\n      tag_60\n      swap1\n      tag_38\n      jump\t// in\n    tag_60:\n      dup1\n      0x1f\n      add\n      0x20\n      dup1\n      swap2\n      div\n      mul\n      0x20\n      add\n      mload(0x40)\n      swap1\n      dup2\n      add\n      0x40\n      mstore\n      dup1\n      swap3\n      swap2\n      swap1\n      dup2\n      dup2\n      mstore\n      0x20\n      add\n      dup3\n      dup1\n      sload\n      tag_61\n      swap1\n      tag_38\n      jump\t// in\n    tag_61:\n      dup1\n      iszero\n      tag_62\n      jumpi\n      dup1\n      0x1f\n      lt\n      tag_63\n      jumpi\n      0x0100\n      dup1\n      dup4\n      sload\n      div\n      mul\n      dup4\n      mstore\n      swap2\n      0x20\n      add\n      swap2\n      jump(tag_62)\n    tag_63:\n      dup3\n      add\n      swap2\n      swap1\n      0x00\n      mstore\n      keccak256(0x00, 0x20)\n      swap1\n    tag_64:\n      dup2\n      sload\n      dup2\n      mstore\n      swap1\n      0x01\n      add\n      swap1\n      0x20\n      add\n      dup1\n      dup4\n      gt\n      tag_64\n      jumpi\n      dup3\n      swap1\n      sub\n      0x1f\n      and\n      dup3\n      add\n      swap2\n    tag_62:\n      pop\n      pop\n      pop\n      pop\n      pop\n      swap1\n      dup1\n      0x01\n      add\n      sload\n      swap1\n      pop\n      dup3\n      jump\t// out\n        /* \"@openzeppelin/contracts/access/Ownable.sol\":2543:2758  function transferOwnership(address newOwner) public virtual onlyOwner {... */\n    tag_32:\n        /* \"@openzeppelin/contracts/access/Ownable.sol\":1531:1544  _checkOwner() */\n      tag_66\n        /* \"@openzeppelin/contracts/access/Ownable.sol\":1531:1542  _checkOwner */\n      tag_45\n        /* \"@openzeppelin/contracts/access/Ownable.sol\":1531:1544  _checkOwner() */\n      jump\t// in\n    tag_66:\n        /* \"@openzeppelin/contracts/access/Ownable.sol\":2647:2648  0 */\n      0x00\n        /* \"@openzeppelin/contracts/access/Ownable.sol\":2627:2649  newOwner == address(0) */\n      0xffffffffffffffffffffffffffffffffffffffff\n      and\n        /* \"@openzeppelin/contracts/access/Ownable.sol\":2627:2635  newOwner */\n      dup2\n        /* \"@openzeppelin/contracts/access/Ownable.sol\":2627:2649  newOwner == address(0) */\n      0xffffffffffffffffffffffffffffffffffffffff\n      and\n      sub\n        /* \"@openzeppelin/contracts/access/Ownable.sol\":2623:2714  if (newOwner == address(0)) {... */\n      tag_68\n      jumpi\n        /* \"@openzeppelin/contracts/access/Ownable.sol\":2700:2701  0 */\n      0x00\n        /* \"@openzeppelin/contracts/access/Ownable.sol\":2672:2703  OwnableInvalidOwner(address(0)) */\n      mload(0x40)\n      0x1e4fbdf700000000000000000000000000000000000000000000000000000000\n      dup2\n      mstore\n      0x04\n      add\n      tag_69\n      swap2\n      swap1\n      tag_22\n      jump\t// in\n    tag_69:\n      mload(0x40)\n      dup1\n      swap2\n      sub\n      swap1\n      revert\n        /* \"@openzeppelin/contracts/access/Ownable.sol\":2623:2714  if (newOwner == address(0)) {... */\n    tag_68:\n        /* \"@openzeppelin/contracts/access/Ownable.sol\":2723:2751  _transferOwnership(newOwner) */\n      tag_70\n        /* \"@openzeppelin/contracts/access/Ownable.sol\":2742:2750  newOwner */\n      dup2\n        /* \"@openzeppelin/contracts/access/Ownable.sol\":2723:2741  _transferOwnership */\n      tag_56\n        /* \"@openzeppelin/contracts/access/Ownable.sol\":2723:2751  _transferOwnership(newOwner) */\n      jump\t// in\n    tag_70:\n        /* \"@openzeppelin/contracts/access/Ownable.sol\":2543:2758  function transferOwnership(address newOwner) public virtual onlyOwner {... */\n      pop\n      jump\t// out\n        /* \"@openzeppelin/contracts/access/Ownable.sol\":1796:1958  function _checkOwner() internal view virtual {... */\n    tag_45:\n        /* \"@openzeppelin/contracts/access/Ownable.sol\":1866:1878  _msgSender() */\n      tag_72\n        /* \"@openzeppelin/contracts/access/Ownable.sol\":1866:1876  _msgSender */\n      tag_73\n        /* \"@openzeppelin/contracts/access/Ownable.sol\":1866:1878  _msgSender() */\n      jump\t// in\n    tag_72:\n        /* \"@openzeppelin/contracts/access/Ownable.sol\":1855:1878  owner() != _msgSender() */\n      0xffffffffffffffffffffffffffffffffffffffff\n      and\n        /* \"@openzeppelin/contracts/access/Ownable.sol\":1855:1862  owner() */\n      tag_74\n        /* \"@openzeppelin/contracts/access/Ownable.sol\":1855:1860  owner */\n      tag_20\n        /* \"@openzeppelin/contracts/access/Ownable.sol\":1855:1862  owner() */\n      jump\t// in\n    tag_74:\n        /* \"@openzeppelin/contracts/access/Ownable.sol\":1855:1878  owner() != _msgSender() */\n      0xffffffffffffffffffffffffffffffffffffffff\n      and\n      eq\n        /* \"@openzeppelin/contracts/access/Ownable.sol\":1851:1952  if (owner() != _msgSender()) {... */\n      tag_75\n      jumpi\n        /* \"@openzeppelin/contracts/access/Ownable.sol\":1928:1940  _msgSender() */\n      tag_76\n        /* \"@openzeppelin/contracts/access/Ownable.sol\":1928:1938  _msgSender */\n      tag_73\n        /* \"@openzeppelin/contracts/access/Ownable.sol\":1928:1940  _msgSender() */\n      jump\t// in\n    tag_76:\n        /* \"@openzeppelin/contracts/access/Ownable.sol\":1901:1941  OwnableUnauthorizedAccount(_msgSender()) */\n      mload(0x40)\n      0x118cdaa700000000000000000000000000000000000000000000000000000000\n      dup2\n      mstore\n      0x04\n      add\n      tag_77\n      swap2\n      swap1\n      tag_22\n      jump\t// in\n    tag_77:\n      mload(0x40)\n      dup1\n      swap2\n      sub\n      swap1\n      revert\n        /* \"@openzeppelin/contracts/access/Ownable.sol\":1851:1952  if (owner() != _msgSender()) {... */\n    tag_75:\n        /* \"@openzeppelin/contracts/access/Ownable.sol\":1796:1958  function _checkOwner() internal view virtual {... */\n      jump\t// out\n        /* \"@openzeppelin/contracts/access/Ownable.sol\":2912:3099  function _transferOwnership(address newOwner) internal virtual {... */\n    tag_56:\n        /* \"@openzeppelin/contracts/access/Ownable.sol\":2985:3001  address oldOwner */\n      0x00\n        /* \"@openzeppelin/contracts/access/Ownable.sol\":3004:3010  _owner */\n      dup1\n      0x00\n      swap1\n      sload\n      swap1\n      0x0100\n      exp\n      swap1\n      div\n      0xffffffffffffffffffffffffffffffffffffffff\n      and\n        /* \"@openzeppelin/contracts/access/Ownable.sol\":2985:3010  address oldOwner = _owner */\n      swap1\n      pop\n        /* \"@openzeppelin/contracts/access/Ownable.sol\":3029:3037  newOwner */\n      dup2\n        /* \"@openzeppelin/contracts/access/Ownable.sol\":3020:3026  _owner */\n      0x00\n      dup1\n        /* \"@openzeppelin/contracts/access/Ownable.sol\":3020:3037  _owner = newOwner */\n      0x0100\n      exp\n      dup2\n      sload\n      dup2\n      0xffffffffffffffffffffffffffffffffffffffff\n      mul\n      not\n      and\n      swap1\n      dup4\n      0xffffffffffffffffffffffffffffffffffffffff\n      and\n      mul\n      or\n      swap1\n      sstore\n      pop\n        /* \"@openzeppelin/contracts/access/Ownable.sol\":3083:3091  newOwner */\n      dup2\n        /* \"@openzeppelin/contracts/access/Ownable.sol\":3052:3092  OwnershipTransferred(oldOwner, newOwner) */\n      0xffffffffffffffffffffffffffffffffffffffff\n      and\n        /* \"@openzeppelin/contracts/access/Ownable.sol\":3073:3081  oldOwner */\n      dup2\n        /* \"@openzeppelin/contracts/access/Ownable.sol\":3052:3092  OwnershipTransferred(oldOwner, newOwner) */\n      0xffffffffffffffffffffffffffffffffffffffff\n      and\n      0x8be0079c531659141344cd1fd0a4f28419497f9722a3daafe3b4186f6b6457e0\n      mload(0x40)\n      mload(0x40)\n      dup1\n      swap2\n      sub\n      swap1\n      log3\n        /* \"@openzeppelin/contracts/access/Ownable.sol\":2975:3099  {... */\n      pop\n        /* \"@openzeppelin/contracts/access/Ownable.sol\":2912:3099  function _transferOwnership(address newOwner) internal virtual {... */\n      pop\n      jump\t// out\n        /* \"@openzeppelin/contracts/utils/Context.sol\":656:752  function _msgSender() internal view virtual returns (address) {... */\n    tag_73:\n        /* \"@openzeppelin/contracts/utils/Context.sol\":709:716  address */\n      0x00\n        /* \"@openzeppelin/contracts/utils/Context.sol\":735:745  msg.sender */\n      caller\n        /* \"@openzeppelin/contracts/utils/Context.sol\":728:745  return msg.sender */\n      swap1\n      pop\n        /* \"@openzeppelin/contracts/utils/Context.sol\":656:752  function _msgSender() internal view virtual returns (address) {... */\n      swap1\n      jump\t// out\n        /* \"#utility.yul\":7:147   */\n    tag_80:\n        /* \"#utility.yul\":100:106   */\n      0x00\n        /* \"#utility.yul\":134:139   */\n      dup2\n        /* \"#utility.yul\":128:140   */\n      mload\n        /* \"#utility.yul\":118:140   */\n      swap1\n      pop\n        /* \"#utility.yul\":7:147   */\n      swap2\n      swap1\n      pop\n      jump\t// out\n        /* \"#utility.yul\":153:363   */\n    tag_81:\n        /* \"#utility.yul\":278:289   */\n      0x00\n        /* \"#utility.yul\":312:318   */\n      dup3\n        /* \"#utility.yul\":307:310   */\n      dup3\n        /* \"#utility.yul\":300:319   */\n      mstore\n        /* \"#utility.yul\":352:356   */\n      0x20\n        /* \"#utility.yul\":347:350   */\n      dup3\n        /* \"#utility.yul\":343:357   */\n      add\n        /* \"#utility.yul\":328:357   */\n      swap1\n      pop\n        /* \"#utility.yul\":153:363   */\n      swap3\n      swap2\n      pop\n      pop\n      jump\t// out\n        /* \"#utility.yul\":369:527   */\n    tag_82:\n        /* \"#utility.yul\":462:466   */\n      0x00\n        /* \"#utility.yul\":485:488   */\n      dup2\n        /* \"#utility.yul\":477:488   */\n      swap1\n      pop\n        /* \"#utility.yul\":515:519   */\n      0x20\n        /* \"#utility.yul\":510:513   */\n      dup3\n        /* \"#utility.yul\":506:520   */\n      add\n        /* \"#utility.yul\":498:520   */\n      swap1\n      pop\n        /* \"#utility.yul\":369:527   */\n      swap2\n      swap1\n      pop\n      jump\t// out\n        /* \"#utility.yul\":533:632   */\n    tag_83:\n        /* \"#utility.yul\":585:591   */\n      0x00\n        /* \"#utility.yul\":619:624   */\n      dup2\n        /* \"#utility.yul\":613:625   */\n      mload\n        /* \"#utility.yul\":603:625   */\n      swap1\n      pop\n        /* \"#utility.yul\":533:632   */\n      swap2\n      swap1\n      pop\n      jump\t// out\n        /* \"#utility.yul\":638:797   */\n    tag_84:\n        /* \"#utility.yul\":712:723   */\n      0x00\n        /* \"#utility.yul\":746:752   */\n      dup3\n        /* \"#utility.yul\":741:744   */\n      dup3\n        /* \"#utility.yul\":734:753   */\n      mstore\n        /* \"#utility.yul\":786:790   */\n      0x20\n        /* \"#utility.yul\":781:784   */\n      dup3\n        /* \"#utility.yul\":777:791   */\n      add\n        /* \"#utility.yul\":762:791   */\n      swap1\n      pop\n        /* \"#utility.yul\":638:797   */\n      swap3\n      swap2\n      pop\n      pop\n      jump\t// out\n        /* \"#utility.yul\":803:942   */\n    tag_85:\n        /* \"#utility.yul\":892:898   */\n      dup3\n        /* \"#utility.yul\":887:890   */\n      dup2\n        /* \"#utility.yul\":882:885   */\n      dup4\n        /* \"#utility.yul\":876:899   */\n      mcopy\n        /* \"#utility.yul\":933:934   */\n      0x00\n        /* \"#utility.yul\":924:930   */\n      dup4\n        /* \"#utility.yul\":919:922   */\n      dup4\n        /* \"#utility.yul\":915:931   */\n      add\n        /* \"#utility.yul\":908:935   */\n      mstore\n        /* \"#utility.yul\":803:942   */\n      pop\n      pop\n      pop\n      jump\t// out\n        /* \"#utility.yul\":948:1050   */\n    tag_86:\n        /* \"#utility.yul\":989:995   */\n      0x00\n        /* \"#utility.yul\":1040:1042   */\n      0x1f\n        /* \"#utility.yul\":1036:1043   */\n      not\n        /* \"#utility.yul\":1031:1033   */\n      0x1f\n        /* \"#utility.yul\":1024:1029   */\n      dup4\n        /* \"#utility.yul\":1020:1034   */\n      add\n        /* \"#utility.yul\":1016:1044   */\n      and\n        /* \"#utility.yul\":1006:1044   */\n      swap1\n      pop\n        /* \"#utility.yul\":948:1050   */\n      swap2\n      swap1\n      pop\n      jump\t// out\n        /* \"#utility.yul\":1056:1413   */\n    tag_87:\n        /* \"#utility.yul\":1134:1137   */\n      0x00\n        /* \"#utility.yul\":1162:1201   */\n      tag_141\n        /* \"#utility.yul\":1195:1200   */\n      dup3\n        /* \"#utility.yul\":1162:1201   */\n      tag_83\n      jump\t// in\n    tag_141:\n        /* \"#utility.yul\":1217:1278   */\n      tag_142\n        /* \"#utility.yul\":1271:1277   */\n      dup2\n        /* \"#utility.yul\":1266:1269   */\n      dup6\n        /* \"#utility.yul\":1217:1278   */\n      tag_84\n      jump\t// in\n    tag_142:\n        /* \"#utility.yul\":1210:1278   */\n      swap4\n      pop\n        /* \"#utility.yul\":1287:1352   */\n      tag_143\n        /* \"#utility.yul\":1345:1351   */\n      dup2\n        /* \"#utility.yul\":1340:1343   */\n      dup6\n        /* \"#utility.yul\":1333:1337   */\n      0x20\n        /* \"#utility.yul\":1326:1331   */\n      dup7\n        /* \"#utility.yul\":1322:1338   */\n      add\n        /* \"#utility.yul\":1287:1352   */\n      tag_85\n      jump\t// in\n    tag_143:\n        /* \"#utility.yul\":1377:1406   */\n      tag_144\n        /* \"#utility.yul\":1399:1405   */\n      dup2\n        /* \"#utility.yul\":1377:1406   */\n      tag_86\n      jump\t// in\n    tag_144:\n        /* \"#utility.yul\":1372:1375   */\n      dup5\n        /* \"#utility.yul\":1368:1407   */\n      add\n        /* \"#utility.yul\":1361:1407   */\n      swap2\n      pop\n        /* \"#utility.yul\":1138:1413   */\n      pop\n        /* \"#utility.yul\":1056:1413   */\n      swap3\n      swap2\n      pop\n      pop\n      jump\t// out\n        /* \"#utility.yul\":1419:1496   */\n    tag_88:\n        /* \"#utility.yul\":1456:1463   */\n      0x00\n        /* \"#utility.yul\":1485:1490   */\n      dup2\n        /* \"#utility.yul\":1474:1490   */\n      swap1\n      pop\n        /* \"#utility.yul\":1419:1496   */\n      swap2\n      swap1\n      pop\n      jump\t// out\n        /* \"#utility.yul\":1502:1610   */\n    tag_89:\n        /* \"#utility.yul\":1579:1603   */\n      tag_147\n        /* \"#utility.yul\":1597:1602   */\n      dup2\n        /* \"#utility.yul\":1579:1603   */\n      tag_88\n      jump\t// in\n    tag_147:\n        /* \"#utility.yul\":1574:1577   */\n      dup3\n        /* \"#utility.yul\":1567:1604   */\n      mstore\n        /* \"#utility.yul\":1502:1610   */\n      pop\n      pop\n      jump\t// out\n        /* \"#utility.yul\":1682:2281   */\n    tag_90:\n        /* \"#utility.yul\":1793:1796   */\n      0x00\n        /* \"#utility.yul\":1829:1833   */\n      0x40\n        /* \"#utility.yul\":1824:1827   */\n      dup4\n        /* \"#utility.yul\":1820:1834   */\n      add\n        /* \"#utility.yul\":1916:1920   */\n      0x00\n        /* \"#utility.yul\":1909:1914   */\n      dup4\n        /* \"#utility.yul\":1905:1921   */\n      add\n        /* \"#utility.yul\":1899:1922   */\n      mload\n        /* \"#utility.yul\":1969:1972   */\n      dup5\n        /* \"#utility.yul\":1963:1967   */\n      dup3\n        /* \"#utility.yul\":1959:1973   */\n      sub\n        /* \"#utility.yul\":1952:1956   */\n      0x00\n        /* \"#utility.yul\":1947:1950   */\n      dup7\n        /* \"#utility.yul\":1943:1957   */\n      add\n        /* \"#utility.yul\":1936:1974   */\n      mstore\n        /* \"#utility.yul\":1995:2068   */\n      tag_149\n        /* \"#utility.yul\":2063:2067   */\n      dup3\n        /* \"#utility.yul\":2049:2061   */\n      dup3\n        /* \"#utility.yul\":1995:2068   */\n      tag_87\n      jump\t// in\n    tag_149:\n        /* \"#utility.yul\":1987:2068   */\n      swap2\n      pop\n        /* \"#utility.yul\":1844:2079   */\n      pop\n        /* \"#utility.yul\":2162:2166   */\n      0x20\n        /* \"#utility.yul\":2155:2160   */\n      dup4\n        /* \"#utility.yul\":2151:2167   */\n      add\n        /* \"#utility.yul\":2145:2168   */\n      mload\n        /* \"#utility.yul\":2181:2244   */\n      tag_150\n        /* \"#utility.yul\":2238:2242   */\n      0x20\n        /* \"#utility.yul\":2233:2236   */\n      dup7\n        /* \"#utility.yul\":2229:2243   */\n      add\n        /* \"#utility.yul\":2215:2227   */\n      dup3\n        /* \"#utility.yul\":2181:2244   */\n      tag_89\n      jump\t// in\n    tag_150:\n        /* \"#utility.yul\":2089:2254   */\n      pop\n        /* \"#utility.yul\":2271:2275   */\n      dup1\n        /* \"#utility.yul\":2264:2275   */\n      swap2\n      pop\n        /* \"#utility.yul\":1798:2281   */\n      pop\n        /* \"#utility.yul\":1682:2281   */\n      swap3\n      swap2\n      pop\n      pop\n      jump\t// out\n        /* \"#utility.yul\":2287:2547   */\n    tag_91:\n        /* \"#utility.yul\":2408:2418   */\n      0x00\n        /* \"#utility.yul\":2443:2541   */\n      tag_152\n        /* \"#utility.yul\":2537:2540   */\n      dup4\n        /* \"#utility.yul\":2529:2535   */\n      dup4\n        /* \"#utility.yul\":2443:2541   */\n      tag_90\n      jump\t// in\n    tag_152:\n        /* \"#utility.yul\":2429:2541   */\n      swap1\n      pop\n        /* \"#utility.yul\":2287:2547   */\n      swap3\n      swap2\n      pop\n      pop\n      jump\t// out\n        /* \"#utility.yul\":2553:2692   */\n    tag_92:\n        /* \"#utility.yul\":2649:2653   */\n      0x00\n        /* \"#utility.yul\":2681:2685   */\n      0x20\n        /* \"#utility.yul\":2676:2679   */\n      dup3\n        /* \"#utility.yul\":2672:2686   */\n      add\n        /* \"#utility.yul\":2664:2686   */\n      swap1\n      pop\n        /* \"#utility.yul\":2553:2692   */\n      swap2\n      swap1\n      pop\n      jump\t// out\n        /* \"#utility.yul\":2768:3887   */\n    tag_93:\n        /* \"#utility.yul\":2939:2942   */\n      0x00\n        /* \"#utility.yul\":2968:3048   */\n      tag_155\n        /* \"#utility.yul\":3042:3047   */\n      dup3\n        /* \"#utility.yul\":2968:3048   */\n      tag_80\n      jump\t// in\n    tag_155:\n        /* \"#utility.yul\":3064:3176   */\n      tag_156\n        /* \"#utility.yul\":3169:3175   */\n      dup2\n        /* \"#utility.yul\":3164:3167   */\n      dup6\n        /* \"#utility.yul\":3064:3176   */\n      tag_81\n      jump\t// in\n    tag_156:\n        /* \"#utility.yul\":3057:3176   */\n      swap4\n      pop\n        /* \"#utility.yul\":3202:3205   */\n      dup4\n        /* \"#utility.yul\":3247:3251   */\n      0x20\n        /* \"#utility.yul\":3239:3245   */\n      dup3\n        /* \"#utility.yul\":3235:3252   */\n      mul\n        /* \"#utility.yul\":3230:3233   */\n      dup6\n        /* \"#utility.yul\":3226:3253   */\n      add\n        /* \"#utility.yul\":3277:3359   */\n      tag_157\n        /* \"#utility.yul\":3353:3358   */\n      dup6\n        /* \"#utility.yul\":3277:3359   */\n      tag_82\n      jump\t// in\n    tag_157:\n        /* \"#utility.yul\":3382:3389   */\n      dup1\n        /* \"#utility.yul\":3413:3414   */\n      0x00\n        /* \"#utility.yul\":3398:3842   */\n    tag_158:\n        /* \"#utility.yul\":3423:3429   */\n      dup6\n        /* \"#utility.yul\":3420:3421   */\n      dup2\n        /* \"#utility.yul\":3417:3430   */\n      lt\n        /* \"#utility.yul\":3398:3842   */\n      iszero\n      tag_160\n      jumpi\n        /* \"#utility.yul\":3494:3503   */\n      dup5\n        /* \"#utility.yul\":3488:3492   */\n      dup5\n        /* \"#utility.yul\":3484:3504   */\n      sub\n        /* \"#utility.yul\":3479:3482   */\n      dup10\n        /* \"#utility.yul\":3472:3505   */\n      mstore\n        /* \"#utility.yul\":3545:3551   */\n      dup2\n        /* \"#utility.yul\":3539:3552   */\n      mload\n        /* \"#utility.yul\":3573:3689   */\n      tag_161\n        /* \"#utility.yul\":3684:3688   */\n      dup6\n        /* \"#utility.yul\":3669:3682   */\n      dup3\n        /* \"#utility.yul\":3573:3689   */\n      tag_91\n      jump\t// in\n    tag_161:\n        /* \"#utility.yul\":3565:3689   */\n      swap5\n      pop\n        /* \"#utility.yul\":3712:3798   */\n      tag_162\n        /* \"#utility.yul\":3791:3797   */\n      dup4\n        /* \"#utility.yul\":3712:3798   */\n      tag_92\n      jump\t// in\n    tag_162:\n        /* \"#utility.yul\":3702:3798   */\n      swap3\n      pop\n        /* \"#utility.yul\":3827:3831   */\n      0x20\n        /* \"#utility.yul\":3822:3825   */\n      dup11\n        /* \"#utility.yul\":3818:3832   */\n      add\n        /* \"#utility.yul\":3811:3832   */\n      swap10\n      pop\n        /* \"#utility.yul\":3458:3842   */\n      pop\n        /* \"#utility.yul\":3445:3446   */\n      0x01\n        /* \"#utility.yul\":3442:3443   */\n      dup2\n        /* \"#utility.yul\":3438:3447   */\n      add\n        /* \"#utility.yul\":3433:3447   */\n      swap1\n      pop\n        /* \"#utility.yul\":3398:3842   */\n      jump(tag_158)\n    tag_160:\n        /* \"#utility.yul\":3402:3416   */\n      pop\n        /* \"#utility.yul\":3858:3862   */\n      dup3\n        /* \"#utility.yul\":3851:3862   */\n      swap8\n      pop\n        /* \"#utility.yul\":3878:3881   */\n      dup8\n        /* \"#utility.yul\":3871:3881   */\n      swap6\n      pop\n        /* \"#utility.yul\":2944:3887   */\n      pop\n      pop\n      pop\n      pop\n      pop\n        /* \"#utility.yul\":2768:3887   */\n      swap3\n      swap2\n      pop\n      pop\n      jump\t// out\n        /* \"#utility.yul\":3893:4370   */\n    tag_12:\n        /* \"#utility.yul\":4088:4092   */\n      0x00\n        /* \"#utility.yul\":4126:4128   */\n      0x20\n        /* \"#utility.yul\":4115:4124   */\n      dup3\n        /* \"#utility.yul\":4111:4129   */\n      add\n        /* \"#utility.yul\":4103:4129   */\n      swap1\n      pop\n        /* \"#utility.yul\":4175:4184   */\n      dup2\n        /* \"#utility.yul\":4169:4173   */\n      dup2\n        /* \"#utility.yul\":4165:4185   */\n      sub\n        /* \"#utility.yul\":4161:4162   */\n      0x00\n        /* \"#utility.yul\":4150:4159   */\n      dup4\n        /* \"#utility.yul\":4146:4163   */\n      add\n        /* \"#utility.yul\":4139:4186   */\n      mstore\n        /* \"#utility.yul\":4203:4363   */\n      tag_164\n        /* \"#utility.yul\":4358:4362   */\n      dup2\n        /* \"#utility.yul\":4349:4355   */\n      dup5\n        /* \"#utility.yul\":4203:4363   */\n      tag_93\n      jump\t// in\n    tag_164:\n        /* \"#utility.yul\":4195:4363   */\n      swap1\n      pop\n        /* \"#utility.yul\":3893:4370   */\n      swap3\n      swap2\n      pop\n      pop\n      jump\t// out\n        /* \"#utility.yul\":4376:4451   */\n    tag_94:\n        /* \"#utility.yul\":4409:4415   */\n      0x00\n        /* \"#utility.yul\":4442:4444   */\n      0x40\n        /* \"#utility.yul\":4436:4445   */\n      mload\n        /* \"#utility.yul\":4426:4445   */\n      swap1\n      pop\n        /* \"#utility.yul\":4376:4451   */\n      swap1\n      jump\t// out\n        /* \"#utility.yul\":4457:4574   */\n    tag_95:\n        /* \"#utility.yul\":4566:4567   */\n      0x00\n        /* \"#utility.yul\":4563:4564   */\n      dup1\n        /* \"#utility.yul\":4556:4568   */\n      revert\n        /* \"#utility.yul\":4580:4697   */\n    tag_96:\n        /* \"#utility.yul\":4689:4690   */\n      0x00\n        /* \"#utility.yul\":4686:4687   */\n      dup1\n        /* \"#utility.yul\":4679:4691   */\n      revert\n        /* \"#utility.yul\":4703:4820   */\n    tag_97:\n        /* \"#utility.yul\":4812:4813   */\n      0x00\n        /* \"#utility.yul\":4809:4810   */\n      dup1\n        /* \"#utility.yul\":4802:4814   */\n      revert\n        /* \"#utility.yul\":4826:4943   */\n    tag_98:\n        /* \"#utility.yul\":4935:4936   */\n      0x00\n        /* \"#utility.yul\":4932:4933   */\n      dup1\n        /* \"#utility.yul\":4925:4937   */\n      revert\n        /* \"#utility.yul\":4949:5129   */\n    tag_99:\n        /* \"#utility.yul\":4997:5074   */\n      0x4e487b7100000000000000000000000000000000000000000000000000000000\n        /* \"#utility.yul\":4994:4995   */\n      0x00\n        /* \"#utility.yul\":4987:5075   */\n      mstore\n        /* \"#utility.yul\":5094:5098   */\n      0x41\n        /* \"#utility.yul\":5091:5092   */\n      0x04\n        /* \"#utility.yul\":5084:5099   */\n      mstore\n        /* \"#utility.yul\":5118:5122   */\n      0x24\n        /* \"#utility.yul\":5115:5116   */\n      0x00\n        /* \"#utility.yul\":5108:5123   */\n      revert\n        /* \"#utility.yul\":5135:5416   */\n    tag_100:\n        /* \"#utility.yul\":5218:5245   */\n      tag_172\n        /* \"#utility.yul\":5240:5244   */\n      dup3\n        /* \"#utility.yul\":5218:5245   */\n      tag_86\n      jump\t// in\n    tag_172:\n        /* \"#utility.yul\":5210:5216   */\n      dup2\n        /* \"#utility.yul\":5206:5246   */\n      add\n        /* \"#utility.yul\":5348:5354   */\n      dup2\n        /* \"#utility.yul\":5336:5346   */\n      dup2\n        /* \"#utility.yul\":5333:5355   */\n      lt\n        /* \"#utility.yul\":5312:5330   */\n      0xffffffffffffffff\n        /* \"#utility.yul\":5300:5310   */\n      dup3\n        /* \"#utility.yul\":5297:5331   */\n      gt\n        /* \"#utility.yul\":5294:5356   */\n      or\n        /* \"#utility.yul\":5291:5379   */\n      iszero\n      tag_173\n      jumpi\n        /* \"#utility.yul\":5359:5377   */\n      tag_174\n      tag_99\n      jump\t// in\n    tag_174:\n        /* \"#utility.yul\":5291:5379   */\n    tag_173:\n        /* \"#utility.yul\":5399:5409   */\n      dup1\n        /* \"#utility.yul\":5395:5397   */\n      0x40\n        /* \"#utility.yul\":5388:5410   */\n      mstore\n        /* \"#utility.yul\":5178:5416   */\n      pop\n        /* \"#utility.yul\":5135:5416   */\n      pop\n      pop\n      jump\t// out\n        /* \"#utility.yul\":5422:5551   */\n    tag_101:\n        /* \"#utility.yul\":5456:5462   */\n      0x00\n        /* \"#utility.yul\":5483:5503   */\n      tag_176\n      tag_94\n      jump\t// in\n    tag_176:\n        /* \"#utility.yul\":5473:5503   */\n      swap1\n      pop\n        /* \"#utility.yul\":5512:5545   */\n      tag_177\n        /* \"#utility.yul\":5540:5544   */\n      dup3\n        /* \"#utility.yul\":5532:5538   */\n      dup3\n        /* \"#utility.yul\":5512:5545   */\n      tag_100\n      jump\t// in\n    tag_177:\n        /* \"#utility.yul\":5422:5551   */\n      swap2\n      swap1\n      pop\n      jump\t// out\n        /* \"#utility.yul\":5557:5865   */\n    tag_102:\n        /* \"#utility.yul\":5619:5623   */\n      0x00\n        /* \"#utility.yul\":5709:5727   */\n      0xffffffffffffffff\n        /* \"#utility.yul\":5701:5707   */\n      dup3\n        /* \"#utility.yul\":5698:5728   */\n      gt\n        /* \"#utility.yul\":5695:5751   */\n      iszero\n      tag_179\n      jumpi\n        /* \"#utility.yul\":5731:5749   */\n      tag_180\n      tag_99\n      jump\t// in\n    tag_180:\n        /* \"#utility.yul\":5695:5751   */\n    tag_179:\n        /* \"#utility.yul\":5769:5798   */\n      tag_181\n        /* \"#utility.yul\":5791:5797   */\n      dup3\n        /* \"#utility.yul\":5769:5798   */\n      tag_86\n      jump\t// in\n    tag_181:\n        /* \"#utility.yul\":5761:5798   */\n      swap1\n      pop\n        /* \"#utility.yul\":5853:5857   */\n      0x20\n        /* \"#utility.yul\":5847:5851   */\n      dup2\n        /* \"#utility.yul\":5843:5858   */\n      add\n        /* \"#utility.yul\":5835:5858   */\n      swap1\n      pop\n        /* \"#utility.yul\":5557:5865   */\n      swap2\n      swap1\n      pop\n      jump\t// out\n        /* \"#utility.yul\":5871:6019   */\n    tag_103:\n        /* \"#utility.yul\":5969:5975   */\n      dup3\n        /* \"#utility.yul\":5964:5967   */\n      dup2\n        /* \"#utility.yul\":5959:5962   */\n      dup4\n        /* \"#utility.yul\":5946:5976   */\n      calldatacopy\n        /* \"#utility.yul\":6010:6011   */\n      0x00\n        /* \"#utility.yul\":6001:6007   */\n      dup4\n        /* \"#utility.yul\":5996:5999   */\n      dup4\n        /* \"#utility.yul\":5992:6008   */\n      add\n        /* \"#utility.yul\":5985:6012   */\n      mstore\n        /* \"#utility.yul\":5871:6019   */\n      pop\n      pop\n      pop\n      jump\t// out\n        /* \"#utility.yul\":6025:6450   */\n    tag_104:\n        /* \"#utility.yul\":6103:6108   */\n      0x00\n        /* \"#utility.yul\":6128:6194   */\n      tag_184\n        /* \"#utility.yul\":6144:6193   */\n      tag_185\n        /* \"#utility.yul\":6186:6192   */\n      dup5\n        /* \"#utility.yul\":6144:6193   */\n      tag_102\n      jump\t// in\n    tag_185:\n        /* \"#utility.yul\":6128:6194   */\n      tag_101\n      jump\t// in\n    tag_184:\n        /* \"#utility.yul\":6119:6194   */\n      swap1\n      pop\n        /* \"#utility.yul\":6217:6223   */\n      dup3\n        /* \"#utility.yul\":6210:6215   */\n      dup2\n        /* \"#utility.yul\":6203:6224   */\n      mstore\n        /* \"#utility.yul\":6255:6259   */\n      0x20\n        /* \"#utility.yul\":6248:6253   */\n      dup2\n        /* \"#utility.yul\":6244:6260   */\n      add\n        /* \"#utility.yul\":6293:6296   */\n      dup5\n        /* \"#utility.yul\":6284:6290   */\n      dup5\n        /* \"#utility.yul\":6279:6282   */\n      dup5\n        /* \"#utility.yul\":6275:6291   */\n      add\n        /* \"#utility.yul\":6272:6297   */\n      gt\n        /* \"#utility.yul\":6269:6381   */\n      iszero\n      tag_186\n      jumpi\n        /* \"#utility.yul\":6300:6379   */\n      tag_187\n      tag_98\n      jump\t// in\n    tag_187:\n        /* \"#utility.yul\":6269:6381   */\n    tag_186:\n        /* \"#utility.yul\":6390:6444   */\n      tag_188\n        /* \"#utility.yul\":6437:6443   */\n      dup5\n        /* \"#utility.yul\":6432:6435   */\n      dup3\n        /* \"#utility.yul\":6427:6430   */\n      dup6\n        /* \"#utility.yul\":6390:6444   */\n      tag_103\n      jump\t// in\n    tag_188:\n        /* \"#utility.yul\":6109:6450   */\n      pop\n        /* \"#utility.yul\":6025:6450   */\n      swap4\n      swap3\n      pop\n      pop\n      pop\n      jump\t// out\n        /* \"#utility.yul\":6470:6810   */\n    tag_105:\n        /* \"#utility.yul\":6526:6531   */\n      0x00\n        /* \"#utility.yul\":6575:6578   */\n      dup3\n        /* \"#utility.yul\":6568:6572   */\n      0x1f\n        /* \"#utility.yul\":6560:6566   */\n      dup4\n        /* \"#utility.yul\":6556:6573   */\n      add\n        /* \"#utility.yul\":6552:6579   */\n      slt\n        /* \"#utility.yul\":6542:6664   */\n      tag_190\n      jumpi\n        /* \"#utility.yul\":6583:6662   */\n      tag_191\n      tag_97\n      jump\t// in\n    tag_191:\n        /* \"#utility.yul\":6542:6664   */\n    tag_190:\n        /* \"#utility.yul\":6700:6706   */\n      dup2\n        /* \"#utility.yul\":6687:6707   */\n      calldataload\n        /* \"#utility.yul\":6725:6804   */\n      tag_192\n        /* \"#utility.yul\":6800:6803   */\n      dup5\n        /* \"#utility.yul\":6792:6798   */\n      dup3\n        /* \"#utility.yul\":6785:6789   */\n      0x20\n        /* \"#utility.yul\":6777:6783   */\n      dup7\n        /* \"#utility.yul\":6773:6790   */\n      add\n        /* \"#utility.yul\":6725:6804   */\n      tag_104\n      jump\t// in\n    tag_192:\n        /* \"#utility.yul\":6716:6804   */\n      swap2\n      pop\n        /* \"#utility.yul\":6532:6810   */\n      pop\n        /* \"#utility.yul\":6470:6810   */\n      swap3\n      swap2\n      pop\n      pop\n      jump\t// out\n        /* \"#utility.yul\":6816:7325   */\n    tag_15:\n        /* \"#utility.yul\":6885:6891   */\n      0x00\n        /* \"#utility.yul\":6934:6936   */\n      0x20\n        /* \"#utility.yul\":6922:6931   */\n      dup3\n        /* \"#utility.yul\":6913:6920   */\n      dup5\n        /* \"#utility.yul\":6909:6932   */\n      sub\n        /* \"#utility.yul\":6905:6937   */\n      slt\n        /* \"#utility.yul\":6902:7021   */\n      iszero\n      tag_194\n      jumpi\n        /* \"#utility.yul\":6940:7019   */\n      tag_195\n      tag_95\n      jump\t// in\n    tag_195:\n        /* \"#utility.yul\":6902:7021   */\n    tag_194:\n        /* \"#utility.yul\":7088:7089   */\n      0x00\n        /* \"#utility.yul\":7077:7086   */\n      dup3\n        /* \"#utility.yul\":7073:7090   */\n      add\n        /* \"#utility.yul\":7060:7091   */\n      calldataload\n        /* \"#utility.yul\":7118:7136   */\n      0xffffffffffffffff\n        /* \"#utility.yul\":7110:7116   */\n      dup2\n        /* \"#utility.yul\":7107:7137   */\n      gt\n        /* \"#utility.yul\":7104:7221   */\n      iszero\n      tag_196\n      jumpi\n        /* \"#utility.yul\":7140:7219   */\n      tag_197\n      tag_96\n      jump\t// in\n    tag_197:\n        /* \"#utility.yul\":7104:7221   */\n    tag_196:\n        /* \"#utility.yul\":7245:7308   */\n      tag_198\n        /* \"#utility.yul\":7300:7307   */\n      dup5\n        /* \"#utility.yul\":7291:7297   */\n      dup3\n        /* \"#utility.yul\":7280:7289   */\n      dup6\n        /* \"#utility.yul\":7276:7298   */\n      add\n        /* \"#utility.yul\":7245:7308   */\n      tag_105\n      jump\t// in\n    tag_198:\n        /* \"#utility.yul\":7235:7308   */\n      swap2\n      pop\n        /* \"#utility.yul\":7031:7318   */\n      pop\n        /* \"#utility.yul\":6816:7325   */\n      swap3\n      swap2\n      pop\n      pop\n      jump\t// out\n        /* \"#utility.yul\":7331:7457   */\n    tag_106:\n        /* \"#utility.yul\":7368:7375   */\n      0x00\n        /* \"#utility.yul\":7408:7450   */\n      0xffffffffffffffffffffffffffffffffffffffff\n        /* \"#utility.yul\":7401:7406   */\n      dup3\n        /* \"#utility.yul\":7397:7451   */\n      and\n        /* \"#utility.yul\":7386:7451   */\n      swap1\n      pop\n        /* \"#utility.yul\":7331:7457   */\n      swap2\n      swap1\n      pop\n      jump\t// out\n        /* \"#utility.yul\":7463:7559   */\n    tag_107:\n        /* \"#utility.yul\":7500:7507   */\n      0x00\n        /* \"#utility.yul\":7529:7553   */\n      tag_201\n        /* \"#utility.yul\":7547:7552   */\n      dup3\n        /* \"#utility.yul\":7529:7553   */\n      tag_106\n      jump\t// in\n    tag_201:\n        /* \"#utility.yul\":7518:7553   */\n      swap1\n      pop\n        /* \"#utility.yul\":7463:7559   */\n      swap2\n      swap1\n      pop\n      jump\t// out\n        /* \"#utility.yul\":7565:7683   */\n    tag_108:\n        /* \"#utility.yul\":7652:7676   */\n      tag_203\n        /* \"#utility.yul\":7670:7675   */\n      dup2\n        /* \"#utility.yul\":7652:7676   */\n      tag_107\n      jump\t// in\n    tag_203:\n        /* \"#utility.yul\":7647:7650   */\n      dup3\n        /* \"#utility.yul\":7640:7677   */\n      mstore\n        /* \"#utility.yul\":7565:7683   */\n      pop\n      pop\n      jump\t// out\n        /* \"#utility.yul\":7689:7911   */\n    tag_22:\n        /* \"#utility.yul\":7782:7786   */\n      0x00\n        /* \"#utility.yul\":7820:7822   */\n      0x20\n        /* \"#utility.yul\":7809:7818   */\n      dup3\n        /* \"#utility.yul\":7805:7823   */\n      add\n        /* \"#utility.yul\":7797:7823   */\n      swap1\n      pop\n        /* \"#utility.yul\":7833:7904   */\n      tag_205\n        /* \"#utility.yul\":7901:7902   */\n      0x00\n        /* \"#utility.yul\":7890:7899   */\n      dup4\n        /* \"#utility.yul\":7886:7903   */\n      add\n        /* \"#utility.yul\":7877:7883   */\n      dup5\n        /* \"#utility.yul\":7833:7904   */\n      tag_108\n      jump\t// in\n    tag_205:\n        /* \"#utility.yul\":7689:7911   */\n      swap3\n      swap2\n      pop\n      pop\n      jump\t// out\n        /* \"#utility.yul\":7917:8039   */\n    tag_109:\n        /* \"#utility.yul\":7990:8014   */\n      tag_207\n        /* \"#utility.yul\":8008:8013   */\n      dup2\n        /* \"#utility.yul\":7990:8014   */\n      tag_88\n      jump\t// in\n    tag_207:\n        /* \"#utility.yul\":7983:7988   */\n      dup2\n        /* \"#utility.yul\":7980:8015   */\n      eq\n        /* \"#utility.yul\":7970:8033   */\n      tag_208\n      jumpi\n        /* \"#utility.yul\":8029:8030   */\n      0x00\n        /* \"#utility.yul\":8026:8027   */\n      dup1\n        /* \"#utility.yul\":8019:8031   */\n      revert\n        /* \"#utility.yul\":7970:8033   */\n    tag_208:\n        /* \"#utility.yul\":7917:8039   */\n      pop\n      jump\t// out\n        /* \"#utility.yul\":8045:8184   */\n    tag_110:\n        /* \"#utility.yul\":8091:8096   */\n      0x00\n        /* \"#utility.yul\":8129:8135   */\n      dup2\n        /* \"#utility.yul\":8116:8136   */\n      calldataload\n        /* \"#utility.yul\":8107:8136   */\n      swap1\n      pop\n        /* \"#utility.yul\":8145:8178   */\n      tag_210\n        /* \"#utility.yul\":8172:8177   */\n      dup2\n        /* \"#utility.yul\":8145:8178   */\n      tag_109\n      jump\t// in\n    tag_210:\n        /* \"#utility.yul\":8045:8184   */\n      swap3\n      swap2\n      pop\n      pop\n      jump\t// out\n        /* \"#utility.yul\":8190:8519   */\n    tag_25:\n        /* \"#utility.yul\":8249:8255   */\n      0x00\n        /* \"#utility.yul\":8298:8300   */\n      0x20\n        /* \"#utility.yul\":8286:8295   */\n      dup3\n        /* \"#utility.yul\":8277:8284   */\n      dup5\n        /* \"#utility.yul\":8273:8296   */\n      sub\n        /* \"#utility.yul\":8269:8301   */\n      slt\n        /* \"#utility.yul\":8266:8385   */\n      iszero\n      tag_212\n      jumpi\n        /* \"#utility.yul\":8304:8383   */\n      tag_213\n      tag_95\n      jump\t// in\n    tag_213:\n        /* \"#utility.yul\":8266:8385   */\n    tag_212:\n        /* \"#utility.yul\":8424:8425   */\n      0x00\n        /* \"#utility.yul\":8449:8502   */\n      tag_214\n        /* \"#utility.yul\":8494:8501   */\n      dup5\n        /* \"#utility.yul\":8485:8491   */\n      dup3\n        /* \"#utility.yul\":8474:8483   */\n      dup6\n        /* \"#utility.yul\":8470:8492   */\n      add\n        /* \"#utility.yul\":8449:8502   */\n      tag_110\n      jump\t// in\n    tag_214:\n        /* \"#utility.yul\":8439:8502   */\n      swap2\n      pop\n        /* \"#utility.yul\":8395:8512   */\n      pop\n        /* \"#utility.yul\":8190:8519   */\n      swap3\n      swap2\n      pop\n      pop\n      jump\t// out\n        /* \"#utility.yul\":8525:8694   */\n    tag_111:\n        /* \"#utility.yul\":8609:8620   */\n      0x00\n        /* \"#utility.yul\":8643:8649   */\n      dup3\n        /* \"#utility.yul\":8638:8641   */\n      dup3\n        /* \"#utility.yul\":8631:8650   */\n      mstore\n        /* \"#utility.yul\":8683:8687   */\n      0x20\n        /* \"#utility.yul\":8678:8681   */\n      dup3\n        /* \"#utility.yul\":8674:8688   */\n      add\n        /* \"#utility.yul\":8659:8688   */\n      swap1\n      pop\n        /* \"#utility.yul\":8525:8694   */\n      swap3\n      swap2\n      pop\n      pop\n      jump\t// out\n        /* \"#utility.yul\":8700:9077   */\n    tag_112:\n        /* \"#utility.yul\":8788:8791   */\n      0x00\n        /* \"#utility.yul\":8816:8855   */\n      tag_217\n        /* \"#utility.yul\":8849:8854   */\n      dup3\n        /* \"#utility.yul\":8816:8855   */\n      tag_83\n      jump\t// in\n    tag_217:\n        /* \"#utility.yul\":8871:8942   */\n      tag_218\n        /* \"#utility.yul\":8935:8941   */\n      dup2\n        /* \"#utility.yul\":8930:8933   */\n      dup6\n        /* \"#utility.yul\":8871:8942   */\n      tag_111\n      jump\t// in\n    tag_218:\n        /* \"#utility.yul\":8864:8942   */\n      swap4\n      pop\n        /* \"#utility.yul\":8951:9016   */\n      tag_219\n        /* \"#utility.yul\":9009:9015   */\n      dup2\n        /* \"#utility.yul\":9004:9007   */\n      dup6\n        /* \"#utility.yul\":8997:9001   */\n      0x20\n        /* \"#utility.yul\":8990:8995   */\n      dup7\n        /* \"#utility.yul\":8986:9002   */\n      add\n        /* \"#utility.yul\":8951:9016   */\n      tag_85\n      jump\t// in\n    tag_219:\n        /* \"#utility.yul\":9041:9070   */\n      tag_220\n        /* \"#utility.yul\":9063:9069   */\n      dup2\n        /* \"#utility.yul\":9041:9070   */\n      tag_86\n      jump\t// in\n    tag_220:\n        /* \"#utility.yul\":9036:9039   */\n      dup5\n        /* \"#utility.yul\":9032:9071   */\n      add\n        /* \"#utility.yul\":9025:9071   */\n      swap2\n      pop\n        /* \"#utility.yul\":8792:9077   */\n      pop\n        /* \"#utility.yul\":8700:9077   */\n      swap3\n      swap2\n      pop\n      pop\n      jump\t// out\n        /* \"#utility.yul\":9083:9201   */\n    tag_113:\n        /* \"#utility.yul\":9170:9194   */\n      tag_222\n        /* \"#utility.yul\":9188:9193   */\n      dup2\n        /* \"#utility.yul\":9170:9194   */\n      tag_88\n      jump\t// in\n    tag_222:\n        /* \"#utility.yul\":9165:9168   */\n      dup3\n        /* \"#utility.yul\":9158:9195   */\n      mstore\n        /* \"#utility.yul\":9083:9201   */\n      pop\n      pop\n      jump\t// out\n        /* \"#utility.yul\":9207:9630   */\n    tag_28:\n        /* \"#utility.yul\":9348:9352   */\n      0x00\n        /* \"#utility.yul\":9386:9388   */\n      0x40\n        /* \"#utility.yul\":9375:9384   */\n      dup3\n        /* \"#utility.yul\":9371:9389   */\n      add\n        /* \"#utility.yul\":9363:9389   */\n      swap1\n      pop\n        /* \"#utility.yul\":9435:9444   */\n      dup2\n        /* \"#utility.yul\":9429:9433   */\n      dup2\n        /* \"#utility.yul\":9425:9445   */\n      sub\n        /* \"#utility.yul\":9421:9422   */\n      0x00\n        /* \"#utility.yul\":9410:9419   */\n      dup4\n        /* \"#utility.yul\":9406:9423   */\n      add\n        /* \"#utility.yul\":9399:9446   */\n      mstore\n        /* \"#utility.yul\":9463:9541   */\n      tag_224\n        /* \"#utility.yul\":9536:9540   */\n      dup2\n        /* \"#utility.yul\":9527:9533   */\n      dup6\n        /* \"#utility.yul\":9463:9541   */\n      tag_112\n      jump\t// in\n    tag_224:\n        /* \"#utility.yul\":9455:9541   */\n      swap1\n      pop\n        /* \"#utility.yul\":9551:9623   */\n      tag_225\n        /* \"#utility.yul\":9619:9621   */\n      0x20\n        /* \"#utility.yul\":9608:9617   */\n      dup4\n        /* \"#utility.yul\":9604:9622   */\n      add\n        /* \"#utility.yul\":9595:9601   */\n      dup5\n        /* \"#utility.yul\":9551:9623   */\n      tag_113\n      jump\t// in\n    tag_225:\n        /* \"#utility.yul\":9207:9630   */\n      swap4\n      swap3\n      pop\n      pop\n      pop\n      jump\t// out\n        /* \"#utility.yul\":9636:9758   */\n    tag_114:\n        /* \"#utility.yul\":9709:9733   */\n      tag_227\n        /* \"#utility.yul\":9727:9732   */\n      dup2\n        /* \"#utility.yul\":9709:9733   */\n      tag_107\n      jump\t// in\n    tag_227:\n        /* \"#utility.yul\":9702:9707   */\n      dup2\n        /* \"#utility.yul\":9699:9734   */\n      eq\n        /* \"#utility.yul\":9689:9752   */\n      tag_228\n      jumpi\n        /* \"#utility.yul\":9748:9749   */\n      0x00\n        /* \"#utility.yul\":9745:9746   */\n      dup1\n        /* \"#utility.yul\":9738:9750   */\n      revert\n        /* \"#utility.yul\":9689:9752   */\n    tag_228:\n        /* \"#utility.yul\":9636:9758   */\n      pop\n      jump\t// out\n        /* \"#utility.yul\":9764:9903   */\n    tag_115:\n        /* \"#utility.yul\":9810:9815   */\n      0x00\n        /* \"#utility.yul\":9848:9854   */\n      dup2\n        /* \"#utility.yul\":9835:9855   */\n      calldataload\n        /* \"#utility.yul\":9826:9855   */\n      swap1\n      pop\n        /* \"#utility.yul\":9864:9897   */\n      tag_230\n        /* \"#utility.yul\":9891:9896   */\n      dup2\n        /* \"#utility.yul\":9864:9897   */\n      tag_114\n      jump\t// in\n    tag_230:\n        /* \"#utility.yul\":9764:9903   */\n      swap3\n      swap2\n      pop\n      pop\n      jump\t// out\n        /* \"#utility.yul\":9909:10238   */\n    tag_31:\n        /* \"#utility.yul\":9968:9974   */\n      0x00\n        /* \"#utility.yul\":10017:10019   */\n      0x20\n        /* \"#utility.yul\":10005:10014   */\n      dup3\n        /* \"#utility.yul\":9996:10003   */\n      dup5\n        /* \"#utility.yul\":9992:10015   */\n      sub\n        /* \"#utility.yul\":9988:10020   */\n      slt\n        /* \"#utility.yul\":9985:10104   */\n      iszero\n      tag_232\n      jumpi\n        /* \"#utility.yul\":10023:10102   */\n      tag_233\n      tag_95\n      jump\t// in\n    tag_233:\n        /* \"#utility.yul\":9985:10104   */\n    tag_232:\n        /* \"#utility.yul\":10143:10144   */\n      0x00\n        /* \"#utility.yul\":10168:10221   */\n      tag_234\n        /* \"#utility.yul\":10213:10220   */\n      dup5\n        /* \"#utility.yul\":10204:10210   */\n      dup3\n        /* \"#utility.yul\":10193:10202   */\n      dup6\n        /* \"#utility.yul\":10189:10211   */\n      add\n        /* \"#utility.yul\":10168:10221   */\n      tag_115\n      jump\t// in\n    tag_234:\n        /* \"#utility.yul\":10158:10221   */\n      swap2\n      pop\n        /* \"#utility.yul\":10114:10231   */\n      pop\n        /* \"#utility.yul\":9909:10238   */\n      swap3\n      swap2\n      pop\n      pop\n      jump\t// out\n        /* \"#utility.yul\":10244:10424   */\n    tag_116:\n        /* \"#utility.yul\":10292:10369   */\n      0x4e487b7100000000000000000000000000000000000000000000000000000000\n        /* \"#utility.yul\":10289:10290   */\n      0x00\n        /* \"#utility.yul\":10282:10370   */\n      mstore\n        /* \"#utility.yul\":10389:10393   */\n      0x22\n        /* \"#utility.yul\":10386:10387   */\n      0x04\n        /* \"#utility.yul\":10379:10394   */\n      mstore\n        /* \"#utility.yul\":10413:10417   */\n      0x24\n        /* \"#utility.yul\":10410:10411   */\n      0x00\n        /* \"#utility.yul\":10403:10418   */\n      revert\n        /* \"#utility.yul\":10430:10750   */\n    tag_38:\n        /* \"#utility.yul\":10474:10480   */\n      0x00\n        /* \"#utility.yul\":10511:10512   */\n      0x02\n        /* \"#utility.yul\":10505:10509   */\n      dup3\n        /* \"#utility.yul\":10501:10513   */\n      div\n        /* \"#utility.yul\":10491:10513   */\n      swap1\n      pop\n        /* \"#utility.yul\":10558:10559   */\n      0x01\n        /* \"#utility.yul\":10552:10556   */\n      dup3\n        /* \"#utility.yul\":10548:10560   */\n      and\n        /* \"#utility.yul\":10579:10597   */\n      dup1\n        /* \"#utility.yul\":10569:10650   */\n      tag_237\n      jumpi\n        /* \"#utility.yul\":10635:10639   */\n      0x7f\n        /* \"#utility.yul\":10627:10633   */\n      dup3\n        /* \"#utility.yul\":10623:10640   */\n      and\n        /* \"#utility.yul\":10613:10640   */\n      swap2\n      pop\n        /* \"#utility.yul\":10569:10650   */\n    tag_237:\n        /* \"#utility.yul\":10697:10699   */\n      0x20\n        /* \"#utility.yul\":10689:10695   */\n      dup3\n        /* \"#utility.yul\":10686:10700   */\n      lt\n        /* \"#utility.yul\":10666:10684   */\n      dup2\n        /* \"#utility.yul\":10663:10701   */\n      sub\n        /* \"#utility.yul\":10660:10744   */\n      tag_238\n      jumpi\n        /* \"#utility.yul\":10716:10734   */\n      tag_239\n      tag_116\n      jump\t// in\n    tag_239:\n        /* \"#utility.yul\":10660:10744   */\n    tag_238:\n        /* \"#utility.yul\":10481:10750   */\n      pop\n        /* \"#utility.yul\":10430:10750   */\n      swap2\n      swap1\n      pop\n      jump\t// out\n        /* \"#utility.yul\":10756:10897   */\n    tag_117:\n        /* \"#utility.yul\":10805:10809   */\n      0x00\n        /* \"#utility.yul\":10828:10831   */\n      dup2\n        /* \"#utility.yul\":10820:10831   */\n      swap1\n      pop\n        /* \"#utility.yul\":10851:10854   */\n      dup2\n        /* \"#utility.yul\":10848:10849   */\n      0x00\n        /* \"#utility.yul\":10841:10855   */\n      mstore\n        /* \"#utility.yul\":10885:10889   */\n      0x20\n        /* \"#utility.yul\":10882:10883   */\n      0x00\n        /* \"#utility.yul\":10872:10890   */\n      keccak256\n        /* \"#utility.yul\":10864:10890   */\n      swap1\n      pop\n        /* \"#utility.yul\":10756:10897   */\n      swap2\n      swap1\n      pop\n      jump\t// out\n        /* \"#utility.yul\":10903:10996   */\n    tag_118:\n        /* \"#utility.yul\":10940:10946   */\n      0x00\n        /* \"#utility.yul\":10987:10989   */\n      0x20\n        /* \"#utility.yul\":10982:10984   */\n      0x1f\n        /* \"#utility.yul\":10975:10980   */\n      dup4\n        /* \"#utility.yul\":10971:10985   */\n      add\n        /* \"#utility.yul\":10967:10990   */\n      div\n        /* \"#utility.yul\":10957:10990   */\n      swap1\n      pop\n        /* \"#utility.yul\":10903:10996   */\n      swap2\n      swap1\n      pop\n      jump\t// out\n        /* \"#utility.yul\":11002:11109   */\n    tag_119:\n        /* \"#utility.yul\":11046:11054   */\n      0x00\n        /* \"#utility.yul\":11096:11101   */\n      dup3\n        /* \"#utility.yul\":11090:11094   */\n      dup3\n        /* \"#utility.yul\":11086:11102   */\n      shl\n        /* \"#utility.yul\":11065:11102   */\n      swap1\n      pop\n        /* \"#utility.yul\":11002:11109   */\n      swap3\n      swap2\n      pop\n      pop\n      jump\t// out\n        /* \"#utility.yul\":11115:11508   */\n    tag_120:\n        /* \"#utility.yul\":11184:11190   */\n      0x00\n        /* \"#utility.yul\":11234:11235   */\n      0x08\n        /* \"#utility.yul\":11222:11232   */\n      dup4\n        /* \"#utility.yul\":11218:11236   */\n      mul\n        /* \"#utility.yul\":11257:11354   */\n      tag_244\n        /* \"#utility.yul\":11287:11353   */\n      0xffffffffffffffffffffffffffffffffffffffffffffffffffffffffffffffff\n        /* \"#utility.yul\":11276:11285   */\n      dup3\n        /* \"#utility.yul\":11257:11354   */\n      tag_119\n      jump\t// in\n    tag_244:\n        /* \"#utility.yul\":11375:11414   */\n      tag_245\n        /* \"#utility.yul\":11405:11413   */\n      dup7\n        /* \"#utility.yul\":11394:11403   */\n      dup4\n        /* \"#utility.yul\":11375:11414   */\n      tag_119\n      jump\t// in\n    tag_245:\n        /* \"#utility.yul\":11363:11414   */\n      swap6\n      pop\n        /* \"#utility.yul\":11447:11451   */\n      dup1\n        /* \"#utility.yul\":11443:11452   */\n      not\n        /* \"#utility.yul\":11436:11441   */\n      dup5\n        /* \"#utility.yul\":11432:11453   */\n      and\n        /* \"#utility.yul\":11423:11453   */\n      swap4\n      pop\n        /* \"#utility.yul\":11496:11500   */\n      dup1\n        /* \"#utility.yul\":11486:11494   */\n      dup7\n        /* \"#utility.yul\":11482:11501   */\n      and\n        /* \"#utility.yul\":11475:11480   */\n      dup5\n        /* \"#utility.yul\":11472:11502   */\n      or\n        /* \"#utility.yul\":11462:11502   */\n      swap3\n      pop\n        /* \"#utility.yul\":11191:11508   */\n      pop\n      pop\n        /* \"#utility.yul\":11115:11508   */\n      swap4\n      swap3\n      pop\n      pop\n      pop\n      jump\t// out\n        /* \"#utility.yul\":11514:11574   */\n    tag_121:\n        /* \"#utility.yul\":11542:11545   */\n      0x00\n        /* \"#utility.yul\":11563:11568   */\n      dup2\n        /* \"#utility.yul\":11556:11568   */\n      swap1\n      pop\n        /* \"#utility.yul\":11514:11574   */\n      swap2\n      swap1\n      pop\n      jump\t// out\n        /* \"#utility.yul\":11580:11722   */\n    tag_122:\n        /* \"#utility.yul\":11630:11639   */\n      0x00\n        /* \"#utility.yul\":11663:11716   */\n      tag_248\n        /* \"#utility.yul\":11681:11715   */\n      tag_249\n        /* \"#utility.yul\":11690:11714   */\n      tag_250\n        /* \"#utility.yul\":11708:11713   */\n      dup5\n        /* \"#utility.yul\":11690:11714   */\n      tag_88\n      jump\t// in\n    tag_250:\n        /* \"#utility.yul\":11681:11715   */\n      tag_121\n      jump\t// in\n    tag_249:\n        /* \"#utility.yul\":11663:11716   */\n      tag_88\n      jump\t// in\n    tag_248:\n        /* \"#utility.yul\":11650:11716   */\n      swap1\n      pop\n        /* \"#utility.yul\":11580:11722   */\n      swap2\n      swap1\n      pop\n      jump\t// out\n        /* \"#utility.yul\":11728:11803   */\n    tag_123:\n        /* \"#utility.yul\":11771:11774   */\n      0x00\n        /* \"#utility.yul\":11792:11797   */\n      dup2\n        /* \"#utility.yul\":11785:11797   */\n      swap1\n      pop\n        /* \"#utility.yul\":11728:11803   */\n      swap2\n      swap1\n      pop\n      jump\t// out\n        /* \"#utility.yul\":11809:12078   */\n    tag_124:\n        /* \"#utility.yul\":11919:11958   */\n      tag_253\n        /* \"#utility.yul\":11950:11957   */\n      dup4\n        /* \"#utility.yul\":11919:11958   */\n      tag_122\n      jump\t// in\n    tag_253:\n        /* \"#utility.yul\":11980:12071   */\n      tag_254\n        /* \"#utility.yul\":12029:12070   */\n      tag_255\n        /* \"#utility.yul\":12053:12069   */\n      dup3\n        /* \"#utility.yul\":12029:12070   */\n      tag_123\n      jump\t// in\n    tag_255:\n        /* \"#utility.yul\":12021:12027   */\n      dup5\n        /* \"#utility.yul\":12014:12018   */\n      dup5\n        /* \"#utility.yul\":12008:12019   */\n      sload\n        /* \"#utility.yul\":11980:12071   */\n      tag_120\n      jump\t// in\n    tag_254:\n        /* \"#utility.yul\":11974:11978   */\n      dup3\n        /* \"#utility.yul\":11967:12072   */\n      sstore\n        /* \"#utility.yul\":11885:12078   */\n      pop\n        /* \"#utility.yul\":11809:12078   */\n      pop\n      pop\n      pop\n      jump\t// out\n        /* \"#utility.yul\":12084:12157   */\n    tag_125:\n        /* \"#utility.yul\":12129:12132   */\n      0x00\n        /* \"#utility.yul\":12084:12157   */\n      swap1\n      jump\t// out\n        /* \"#utility.yul\":12163:12352   */\n    tag_126:\n        /* \"#utility.yul\":12240:12272   */\n      tag_258\n      tag_125\n      jump\t// in\n    tag_258:\n        /* \"#utility.yul\":12281:12346   */\n      tag_259\n        /* \"#utility.yul\":12339:12345   */\n      dup2\n        /* \"#utility.yul\":12331:12337   */\n      dup5\n        /* \"#utility.yul\":12325:12329   */\n      dup5\n        /* \"#utility.yul\":12281:12346   */\n      tag_124\n      jump\t// in\n    tag_259:\n        /* \"#utility.yul\":12216:12352   */\n      pop\n        /* \"#utility.yul\":12163:12352   */\n      pop\n      pop\n      jump\t// out\n        /* \"#utility.yul\":12358:12544   */\n    tag_127:\n        /* \"#utility.yul\":12418:12538   */\n    tag_261:\n        /* \"#utility.yul\":12435:12438   */\n      dup2\n        /* \"#utility.yul\":12428:12433   */\n      dup2\n        /* \"#utility.yul\":12425:12439   */\n      lt\n        /* \"#utility.yul\":12418:12538   */\n      iszero\n      tag_263\n      jumpi\n        /* \"#utility.yul\":12489:12528   */\n      tag_264\n        /* \"#utility.yul\":12526:12527   */\n      0x00\n        /* \"#utility.yul\":12519:12524   */\n      dup3\n        /* \"#utility.yul\":12489:12528   */\n      tag_126\n      jump\t// in\n    tag_264:\n        /* \"#utility.yul\":12462:12463   */\n      0x01\n        /* \"#utility.yul\":12455:12460   */\n      dup2\n        /* \"#utility.yul\":12451:12464   */\n      add\n        /* \"#utility.yul\":12442:12464   */\n      swap1\n      pop\n        /* \"#utility.yul\":12418:12538   */\n      jump(tag_261)\n    tag_263:\n        /* \"#utility.yul\":12358:12544   */\n      pop\n      pop\n      jump\t// out\n        /* \"#utility.yul\":12550:13093   */\n    tag_128:\n        /* \"#utility.yul\":12651:12653   */\n      0x1f\n        /* \"#utility.yul\":12646:12649   */\n      dup3\n        /* \"#utility.yul\":12643:12654   */\n      gt\n        /* \"#utility.yul\":12640:13086   */\n      iszero\n      tag_266\n      jumpi\n        /* \"#utility.yul\":12685:12723   */\n      tag_267\n        /* \"#utility.yul\":12717:12722   */\n      dup2\n        /* \"#utility.yul\":12685:12723   */\n      tag_117\n      jump\t// in\n    tag_267:\n        /* \"#utility.yul\":12769:12798   */\n      tag_268\n        /* \"#utility.yul\":12787:12797   */\n      dup5\n        /* \"#utility.yul\":12769:12798   */\n      tag_118\n      jump\t// in\n    tag_268:\n        /* \"#utility.yul\":12759:12767   */\n      dup2\n        /* \"#utility.yul\":12755:12799   */\n      add\n        /* \"#utility.yul\":12952:12954   */\n      0x20\n        /* \"#utility.yul\":12940:12950   */\n      dup6\n        /* \"#utility.yul\":12937:12955   */\n      lt\n        /* \"#utility.yul\":12934:12983   */\n      iszero\n      tag_269\n      jumpi\n        /* \"#utility.yul\":12973:12981   */\n      dup2\n        /* \"#utility.yul\":12958:12981   */\n      swap1\n      pop\n        /* \"#utility.yul\":12934:12983   */\n    tag_269:\n        /* \"#utility.yul\":12996:13076   */\n      tag_270\n        /* \"#utility.yul\":13052:13074   */\n      tag_271\n        /* \"#utility.yul\":13070:13073   */\n      dup6\n        /* \"#utility.yul\":13052:13074   */\n      tag_118\n      jump\t// in\n    tag_271:\n        /* \"#utility.yul\":13042:13050   */\n      dup4\n        /* \"#utility.yul\":13038:13075   */\n      add\n        /* \"#utility.yul\":13025:13036   */\n      dup3\n        /* \"#utility.yul\":12996:13076   */\n      tag_127\n      jump\t// in\n    tag_270:\n        /* \"#utility.yul\":12655:13086   */\n      pop\n      pop\n        /* \"#utility.yul\":12640:13086   */\n    tag_266:\n        /* \"#utility.yul\":12550:13093   */\n      pop\n      pop\n      pop\n      jump\t// out\n        /* \"#utility.yul\":13099:13216   */\n    tag_129:\n        /* \"#utility.yul\":13153:13161   */\n      0x00\n        /* \"#utility.yul\":13203:13208   */\n      dup3\n        /* \"#utility.yul\":13197:13201   */\n      dup3\n        /* \"#utility.yul\":13193:13209   */\n      shr\n        /* \"#utility.yul\":13172:13209   */\n      swap1\n      pop\n        /* \"#utility.yul\":13099:13216   */\n      swap3\n      swap2\n      pop\n      pop\n      jump\t// out\n        /* \"#utility.yul\":13222:13391   */\n    tag_130:\n        /* \"#utility.yul\":13266:13272   */\n      0x00\n        /* \"#utility.yul\":13299:13350   */\n      tag_274\n        /* \"#utility.yul\":13347:13348   */\n      0x00\n        /* \"#utility.yul\":13343:13349   */\n      not\n        /* \"#utility.yul\":13335:13340   */\n      dup5\n        /* \"#utility.yul\":13332:13333   */\n      0x08\n        /* \"#utility.yul\":13328:13341   */\n      mul\n        /* \"#utility.yul\":13299:13350   */\n      tag_129\n      jump\t// in\n    tag_274:\n        /* \"#utility.yul\":13295:13351   */\n      not\n        /* \"#utility.yul\":13380:13384   */\n      dup1\n        /* \"#utility.yul\":13374:13378   */\n      dup4\n        /* \"#utility.yul\":13370:13385   */\n      and\n        /* \"#utility.yul\":13360:13385   */\n      swap2\n      pop\n        /* \"#utility.yul\":13273:13391   */\n      pop\n        /* \"#utility.yul\":13222:13391   */\n      swap3\n      swap2\n      pop\n      pop\n      jump\t// out\n        /* \"#utility.yul\":13396:13691   */\n    tag_131:\n        /* \"#utility.yul\":13472:13476   */\n      0x00\n        /* \"#utility.yul\":13618:13647   */\n      tag_276\n        /* \"#utility.yul\":13643:13646   */\n      dup4\n        /* \"#utility.yul\":13637:13641   */\n      dup4\n        /* \"#utility.yul\":13618:13647   */\n      tag_130\n      jump\t// in\n    tag_276:\n        /* \"#utility.yul\":13610:13647   */\n      swap2\n      pop\n        /* \"#utility.yul\":13680:13683   */\n      dup3\n        /* \"#utility.yul\":13677:13678   */\n      0x02\n        /* \"#utility.yul\":13673:13684   */\n      mul\n        /* \"#utility.yul\":13667:13671   */\n      dup3\n        /* \"#utility.yul\":13664:13685   */\n      or\n        /* \"#utility.yul\":13656:13685   */\n      swap1\n      pop\n        /* \"#utility.yul\":13396:13691   */\n      swap3\n      swap2\n      pop\n      pop\n      jump\t// out\n        /* \"#utility.yul\":13696:15091   */\n    tag_49:\n        /* \"#utility.yul\":13813:13850   */\n      tag_278\n        /* \"#utility.yul\":13846:13849   */\n      dup3\n        /* \"#utility.yul\":13813:13850   */\n      tag_83\n      jump\t// in\n    tag_278:\n        /* \"#utility.yul\":13915:13933   */\n      0xffffffffffffffff\n        /* \"#utility.yul\":13907:13913   */\n      dup2\n        /* \"#utility.yul\":13904:13934   */\n      gt\n        /* \"#utility.yul\":13901:13957   */\n      iszero\n      tag_279\n      jumpi\n        /* \"#utility.yul\":13937:13955   */\n      tag_280\n      tag_99\n      jump\t// in\n    tag_280:\n        /* \"#utility.yul\":13901:13957   */\n    tag_279:\n        /* \"#utility.yul\":13981:14019   */\n      tag_281\n        /* \"#utility.yul\":14013:14017   */\n      dup3\n        /* \"#utility.yul\":14007:14018   */\n      sload\n        /* \"#utility.yul\":13981:14019   */\n      tag_38\n      jump\t// in\n    tag_281:\n        /* \"#utility.yul\":14066:14133   */\n      tag_282\n        /* \"#utility.yul\":14126:14132   */\n      dup3\n        /* \"#utility.yul\":14118:14124   */\n      dup3\n        /* \"#utility.yul\":14112:14116   */\n      dup6\n        /* \"#utility.yul\":14066:14133   */\n      tag_128\n      jump\t// in\n    tag_282:\n        /* \"#utility.yul\":14160:14161   */\n      0x00\n        /* \"#utility.yul\":14184:14188   */\n      0x20\n        /* \"#utility.yul\":14171:14188   */\n      swap1\n      pop\n        /* \"#utility.yul\":14216:14218   */\n      0x1f\n        /* \"#utility.yul\":14208:14214   */\n      dup4\n        /* \"#utility.yul\":14205:14219   */\n      gt\n        /* \"#utility.yul\":14233:14234   */\n      0x01\n        /* \"#utility.yul\":14228:14846   */\n      dup2\n      eq\n      tag_284\n      jumpi\n        /* \"#utility.yul\":14890:14891   */\n      0x00\n        /* \"#utility.yul\":14907:14913   */\n      dup5\n        /* \"#utility.yul\":14904:14981   */\n      iszero\n      tag_285\n      jumpi\n        /* \"#utility.yul\":14956:14965   */\n      dup3\n        /* \"#utility.yul\":14951:14954   */\n      dup8\n        /* \"#utility.yul\":14947:14966   */\n      add\n        /* \"#utility.yul\":14941:14967   */\n      mload\n        /* \"#utility.yul\":14932:14967   */\n      swap1\n      pop\n        /* \"#utility.yul\":14904:14981   */\n    tag_285:\n        /* \"#utility.yul\":15007:15074   */\n      tag_286\n        /* \"#utility.yul\":15067:15073   */\n      dup6\n        /* \"#utility.yul\":15060:15065   */\n      dup3\n        /* \"#utility.yul\":15007:15074   */\n      tag_131\n      jump\t// in\n    tag_286:\n        /* \"#utility.yul\":15001:15005   */\n      dup7\n        /* \"#utility.yul\":14994:15075   */\n      sstore\n        /* \"#utility.yul\":14863:15085   */\n      pop\n        /* \"#utility.yul\":14198:15085   */\n      jump(tag_283)\n        /* \"#utility.yul\":14228:14846   */\n    tag_284:\n        /* \"#utility.yul\":14280:14284   */\n      0x1f\n        /* \"#utility.yul\":14276:14285   */\n      not\n        /* \"#utility.yul\":14268:14274   */\n      dup5\n        /* \"#utility.yul\":14264:14286   */\n      and\n        /* \"#utility.yul\":14314:14351   */\n      tag_287\n        /* \"#utility.yul\":14346:14350   */\n      dup7\n        /* \"#utility.yul\":14314:14351   */\n      tag_117\n      jump\t// in\n    tag_287:\n        /* \"#utility.yul\":14373:14374   */\n      0x00\n        /* \"#utility.yul\":14387:14595   */\n    tag_288:\n        /* \"#utility.yul\":14401:14408   */\n      dup3\n        /* \"#utility.yul\":14398:14399   */\n      dup2\n        /* \"#utility.yul\":14395:14409   */\n      lt\n        /* \"#utility.yul\":14387:14595   */\n      iszero\n      tag_290\n      jumpi\n        /* \"#utility.yul\":14480:14489   */\n      dup5\n        /* \"#utility.yul\":14475:14478   */\n      dup10\n        /* \"#utility.yul\":14471:14490   */\n      add\n        /* \"#utility.yul\":14465:14491   */\n      mload\n        /* \"#utility.yul\":14457:14463   */\n      dup3\n        /* \"#utility.yul\":14450:14492   */\n      sstore\n        /* \"#utility.yul\":14531:14532   */\n      0x01\n        /* \"#utility.yul\":14523:14529   */\n      dup3\n        /* \"#utility.yul\":14519:14533   */\n      add\n        /* \"#utility.yul\":14509:14533   */\n      swap2\n      pop\n        /* \"#utility.yul\":14578:14580   */\n      0x20\n        /* \"#utility.yul\":14567:14576   */\n      dup6\n        /* \"#utility.yul\":14563:14581   */\n      add\n        /* \"#utility.yul\":14550:14581   */\n      swap5\n      pop\n        /* \"#utility.yul\":14424:14428   */\n      0x20\n        /* \"#utility.yul\":14421:14422   */\n      dup2\n        /* \"#utility.yul\":14417:14429   */\n      add\n        /* \"#utility.yul\":14412:14429   */\n      swap1\n      pop\n        /* \"#utility.yul\":14387:14595   */\n      jump(tag_288)\n    tag_290:\n        /* \"#utility.yul\":14623:14629   */\n      dup7\n        /* \"#utility.yul\":14614:14621   */\n      dup4\n        /* \"#utility.yul\":14611:14630   */\n      lt\n        /* \"#utility.yul\":14608:14787   */\n      iszero\n      tag_291\n      jumpi\n        /* \"#utility.yul\":14681:14690   */\n      dup5\n        /* \"#utility.yul\":14676:14679   */\n      dup10\n        /* \"#utility.yul\":14672:14691   */\n      add\n        /* \"#utility.yul\":14666:14692   */\n      mload\n        /* \"#utility.yul\":14724:14772   */\n      tag_292\n        /* \"#utility.yul\":14766:14770   */\n      0x1f\n        /* \"#utility.yul\":14758:14764   */\n      dup10\n        /* \"#utility.yul\":14754:14771   */\n      and\n        /* \"#utility.yul\":14743:14752   */\n      dup3\n        /* \"#utility.yul\":14724:14772   */\n      tag_130\n      jump\t// in\n    tag_292:\n        /* \"#utility.yul\":14716:14722   */\n      dup4\n        /* \"#utility.yul\":14709:14773   */\n      sstore\n        /* \"#utility.yul\":14631:14787   */\n      pop\n        /* \"#utility.yul\":14608:14787   */\n    tag_291:\n        /* \"#utility.yul\":14833:14834   */\n      0x01\n        /* \"#utility.yul\":14829:14830   */\n      0x02\n        /* \"#utility.yul\":14821:14827   */\n      dup9\n        /* \"#utility.yul\":14817:14831   */\n      mul\n        /* \"#utility.yul\":14813:14835   */\n      add\n        /* \"#utility.yul\":14807:14811   */\n      dup9\n        /* \"#utility.yul\":14800:14836   */\n      sstore\n        /* \"#utility.yul\":14235:14846   */\n      pop\n      pop\n      pop\n        /* \"#utility.yul\":14198:15085   */\n    tag_283:\n      pop\n        /* \"#utility.yul\":13788:15091   */\n      pop\n      pop\n      pop\n        /* \"#utility.yul\":13696:15091   */\n      pop\n      pop\n      jump\t// out\n        /* \"#utility.yul\":15097:15410   */\n    tag_51:\n        /* \"#utility.yul\":15210:15214   */\n      0x00\n        /* \"#utility.yul\":15248:15250   */\n      0x20\n        /* \"#utility.yul\":15237:15246   */\n      dup3\n        /* \"#utility.yul\":15233:15251   */\n      add\n        /* \"#utility.yul\":15225:15251   */\n      swap1\n      pop\n        /* \"#utility.yul\":15297:15306   */\n      dup2\n        /* \"#utility.yul\":15291:15295   */\n      dup2\n        /* \"#utility.yul\":15287:15307   */\n      sub\n        /* \"#utility.yul\":15283:15284   */\n      0x00\n        /* \"#utility.yul\":15272:15281   */\n      dup4\n        /* \"#utility.yul\":15268:15285   */\n      add\n        /* \"#utility.yul\":15261:15308   */\n      mstore\n        /* \"#utility.yul\":15325:15403   */\n      tag_294\n        /* \"#utility.yul\":15398:15402   */\n      dup2\n        /* \"#utility.yul\":15389:15395   */\n      dup5\n        /* \"#utility.yul\":15325:15403   */\n      tag_112\n      jump\t// in\n    tag_294:\n        /* \"#utility.yul\":15317:15403   */\n      swap1\n      pop\n        /* \"#utility.yul\":15097:15410   */\n      swap3\n      swap2\n      pop\n      pop\n      jump\t// out\n\n    auxdata: 0xa2646970667358221220f0e3fa0e3745f8376f9b303aef0680ae8e472073f685f81dafe72868157d180064736f6c63430008190033\n}\n",
				"bytecode": {
					"linkReferences": {},
					"object": "608060405234801561000f575f80fd5b50335f73ffffffffffffffffffffffffffffffffffffffff168173ffffffffffffffffffffffffffffffffffffffff1603610081575f6040517f1e4fbdf70000000000000000000000000000000000000000000000000000000081526004016100789190610196565b60405180910390fd5b6100908161009660201b60201c565b506101af565b5f805f9054906101000a900473ffffffffffffffffffffffffffffffffffffffff169050815f806101000a81548173ffffffffffffffffffffffffffffffffffffffff021916908373ffffffffffffffffffffffffffffffffffffffff1602179055508173ffffffffffffffffffffffffffffffffffffffff168173ffffffffffffffffffffffffffffffffffffffff167f8be0079c531659141344cd1fd0a4f28419497f9722a3daafe3b4186f6b6457e060405160405180910390a35050565b5f73ffffffffffffffffffffffffffffffffffffffff82169050919050565b5f61018082610157565b9050919050565b61019081610176565b82525050565b5f6020820190506101a95f830184610187565b92915050565b610d30806101bc5f395ff3fe608060405234801561000f575f80fd5b5060043610610060575f3560e01c8063198cc69114610064578063503c560f14610082578063715018a61461009e5780638da5cb5b146100a85780638f023f85146100c6578063f2fde38b146100f7575b5f80fd5b61006c610113565b60405161007991906106e6565b60405180910390f35b61009c60048036038101906100979190610843565b610208565b005b6100a66102a7565b005b6100b06102ba565b6040516100bd91906108c9565b60405180910390f35b6100e060048036038101906100db919061090c565b6102e1565b6040516100ee92919061098e565b60405180910390f35b610111600480360381019061010c91906109e6565b610396565b005b60606001805480602002602001604051908101604052809291908181526020015f905b828210156101ff578382905f5260205f2090600202016040518060400160405290815f8201805461016690610a3e565b80601f016020809104026020016040519081016040528092919081815260200182805461019290610a3e565b80156101dd5780601f106101b4576101008083540402835291602001916101dd565b820191905f5260205f20905b8154815290600101906020018083116101c057829003601f168201915b5050505050815260200160018201548152505081526020019060010190610136565b50505050905090565b61021061041a565b600160405180604001604052808381526020015f815250908060018154018082558091505060019003905f5260205f2090600202015f909190919091505f820151815f0190816102609190610c0b565b506020820151816001015550507f566c2d39711b082cc685ade507dee6291f47044333d9aba4037034cdc3cfac9e8160405161029c9190610cda565b60405180910390a150565b6102af61041a565b6102b85f6104a1565b565b5f805f9054906101000a900473ffffffffffffffffffffffffffffffffffffffff16905090565b600181815481106102f0575f80fd5b905f5260205f2090600202015f91509050805f01805461030f90610a3e565b80601f016020809104026020016040519081016040528092919081815260200182805461033b90610a3e565b80156103865780601f1061035d57610100808354040283529160200191610386565b820191905f5260205f20905b81548152906001019060200180831161036957829003601f168201915b5050505050908060010154905082565b61039e61041a565b5f73ffffffffffffffffffffffffffffffffffffffff168173ffffffffffffffffffffffffffffffffffffffff160361040e575f6040517f1e4fbdf700000000000000000000000000000000000000000000000000000000815260040161040591906108c9565b60405180910390fd5b610417816104a1565b50565b610422610562565b73ffffffffffffffffffffffffffffffffffffffff166104406102ba565b73ffffffffffffffffffffffffffffffffffffffff161461049f57610463610562565b6040517f118cdaa700000000000000000000000000000000000000000000000000000000815260040161049691906108c9565b60405180910390fd5b565b5f805f9054906101000a900473ffffffffffffffffffffffffffffffffffffffff169050815f806101000a81548173ffffffffffffffffffffffffffffffffffffffff021916908373ffffffffffffffffffffffffffffffffffffffff1602179055508173ffffffffffffffffffffffffffffffffffffffff168173ffffffffffffffffffffffffffffffffffffffff167f8be0079c531659141344cd1fd0a4f28419497f9722a3daafe3b4186f6b6457e060405160405180910390a35050565b5f33905090565b5f81519050919050565b5f82825260208201905092915050565b5f819050602082019050919050565b5f81519050919050565b5f82825260208201905092915050565b8281835e5f83830152505050565b5f601f19601f8301169050919050565b5f6105d482610592565b6105de818561059c565b93506105ee8185602086016105ac565b6105f7816105ba565b840191505092915050565b5f819050919050565b61061481610602565b82525050565b5f604083015f8301518482035f86015261063482826105ca565b9150506020830151610649602086018261060b565b508091505092915050565b5f61065f838361061a565b905092915050565b5f602082019050919050565b5f61067d82610569565b6106878185610573565b93508360208202850161069985610583565b805f5b858110156106d457848403895281516106b58582610654565b94506106c083610667565b925060208a0199505060018101905061069c565b50829750879550505050505092915050565b5f6020820190508181035f8301526106fe8184610673565b905092915050565b5f604051905090565b5f80fd5b5f80fd5b5f80fd5b5f80fd5b7f4e487b71000000000000000000000000000000000000000000000000000000005f52604160045260245ffd5b610755826105ba565b810181811067ffffffffffffffff821117156107745761077361071f565b5b80604052505050565b5f610786610706565b9050610792828261074c565b919050565b5f67ffffffffffffffff8211156107b1576107b061071f565b5b6107ba826105ba565b9050602081019050919050565b828183375f83830152505050565b5f6107e76107e284610797565b61077d565b9050828152602081018484840111156108035761080261071b565b5b61080e8482856107c7565b509392505050565b5f82601f83011261082a57610829610717565b5b813561083a8482602086016107d5565b91505092915050565b5f602082840312156108585761085761070f565b5b5f82013567ffffffffffffffff81111561087557610874610713565b5b61088184828501610816565b91505092915050565b5f73ffffffffffffffffffffffffffffffffffffffff82169050919050565b5f6108b38261088a565b9050919050565b6108c3816108a9565b82525050565b5f6020820190506108dc5f8301846108ba565b92915050565b6108eb81610602565b81146108f5575f80fd5b50565b5f81359050610906816108e2565b92915050565b5f602082840312156109215761092061070f565b5b5f61092e848285016108f8565b91505092915050565b5f82825260208201905092915050565b5f61095182610592565b61095b8185610937565b935061096b8185602086016105ac565b610974816105ba565b840191505092915050565b61098881610602565b82525050565b5f6040820190508181035f8301526109a68185610947565b90506109b5602083018461097f565b9392505050565b6109c5816108a9565b81146109cf575f80fd5b50565b5f813590506109e0816109bc565b92915050565b5f602082840312156109fb576109fa61070f565b5b5f610a08848285016109d2565b91505092915050565b7f4e487b71000000000000000000000000000000000000000000000000000000005f52602260045260245ffd5b5f6002820490506001821680610a5557607f821691505b602082108103610a6857610a67610a11565b5b50919050565b5f819050815f5260205f209050919050565b5f6020601f8301049050919050565b5f82821b905092915050565b5f60088302610aca7fffffffffffffffffffffffffffffffffffffffffffffffffffffffffffffffff82610a8f565b610ad48683610a8f565b95508019841693508086168417925050509392505050565b5f819050919050565b5f610b0f610b0a610b0584610602565b610aec565b610602565b9050919050565b5f819050919050565b610b2883610af5565b610b3c610b3482610b16565b848454610a9b565b825550505050565b5f90565b610b50610b44565b610b5b818484610b1f565b505050565b5b81811015610b7e57610b735f82610b48565b600181019050610b61565b5050565b601f821115610bc357610b9481610a6e565b610b9d84610a80565b81016020851015610bac578190505b610bc0610bb885610a80565b830182610b60565b50505b505050565b5f82821c905092915050565b5f610be35f1984600802610bc8565b1980831691505092915050565b5f610bfb8383610bd4565b9150826002028217905092915050565b610c1482610592565b67ffffffffffffffff811115610c2d57610c2c61071f565b5b610c378254610a3e565b610c42828285610b82565b5f60209050601f831160018114610c73575f8415610c61578287015190505b610c6b8582610bf0565b865550610cd2565b601f198416610c8186610a6e565b5f5b82811015610ca857848901518255600182019150602085019450602081019050610c83565b86831015610cc55784890151610cc1601f891682610bd4565b8355505b6001600288020188555050505b505050505050565b5f6020820190508181035f830152610cf28184610947565b90509291505056fea2646970667358221220f0e3fa0e3745f8376f9b303aef0680ae8e472073f685f81dafe72868157d180064736f6c63430008190033",
					"opcodes": "PUSH1 0x80 PUSH1 0x40 MSTORE CALLVALUE DUP1 ISZERO PUSH2 0xF JUMPI PUSH0 DUP1 REVERT JUMPDEST POP CALLER PUSH0 PUSH20 0xFFFFFFFFFFFFFFFFFFFFFFFFFFFFFFFFFFFFFFFF AND DUP2 PUSH20 0xFFFFFFFFFFFFFFFFFFFFFFFFFFFFFFFFFFFFFFFF AND SUB PUSH2 0x81 JUMPI PUSH0 PUSH1 0x40 MLOAD PUSH32 0x1E4FBDF700000000000000000000000000000000000000000000000000000000 DUP2 MSTORE PUSH1 0x4 ADD PUSH2 0x78 SWAP2 SWAP1 PUSH2 0x196 JUMP JUMPDEST PUSH1 0x40 MLOAD DUP1 SWAP2 SUB SWAP1 REVERT JUMPDEST PUSH2 0x90 DUP2 PUSH2 0x96 PUSH1 0x20 SHL PUSH1 0x20 SHR JUMP JUMPDEST POP PUSH2 0x1AF JUMP JUMPDEST PUSH0 DUP1 PUSH0 SWAP1 SLOAD SWAP1 PUSH2 0x100 EXP SWAP1 DIV PUSH20 0xFFFFFFFFFFFFFFFFFFFFFFFFFFFFFFFFFFFFFFFF AND SWAP1 POP DUP2 PUSH0 DUP1 PUSH2 0x100 EXP DUP2 SLOAD DUP2 PUSH20 0xFFFFFFFFFFFFFFFFFFFFFFFFFFFFFFFFFFFFFFFF MUL NOT AND SWAP1 DUP4 PUSH20 0xFFFFFFFFFFFFFFFFFFFFFFFFFFFFFFFFFFFFFFFF AND MUL OR SWAP1 SSTORE POP DUP2 PUSH20 0xFFFFFFFFFFFFFFFFFFFFFFFFFFFFFFFFFFFFFFFF AND DUP2 PUSH20 0xFFFFFFFFFFFFFFFFFFFFFFFFFFFFFFFFFFFFFFFF AND PUSH32 0x8BE0079C531659141344CD1FD0A4F28419497F9722A3DAAFE3B4186F6B6457E0 PUSH1 0x40 MLOAD PUSH1 0x40 MLOAD DUP1 SWAP2 SUB SWAP1 LOG3 POP POP JUMP JUMPDEST PUSH0 PUSH20 0xFFFFFFFFFFFFFFFFFFFFFFFFFFFFFFFFFFFFFFFF DUP3 AND SWAP1 POP SWAP2 SWAP1 POP JUMP JUMPDEST PUSH0 PUSH2 0x180 DUP3 PUSH2 0x157 JUMP JUMPDEST SWAP1 POP SWAP2 SWAP1 POP JUMP JUMPDEST PUSH2 0x190 DUP2 PUSH2 0x176 JUMP JUMPDEST DUP3 MSTORE POP POP JUMP JUMPDEST PUSH0 PUSH1 0x20 DUP3 ADD SWAP1 POP PUSH2 0x1A9 PUSH0 DUP4 ADD DUP5 PUSH2 0x187 JUMP JUMPDEST SWAP3 SWAP2 POP POP JUMP JUMPDEST PUSH2 0xD30 DUP1 PUSH2 0x1BC PUSH0 CODECOPY PUSH0 RETURN INVALID PUSH1 0x80 PUSH1 0x40 MSTORE CALLVALUE DUP1 ISZERO PUSH2 0xF JUMPI PUSH0 DUP1 REVERT JUMPDEST POP PUSH1 0x4 CALLDATASIZE LT PUSH2 0x60 JUMPI PUSH0 CALLDATALOAD PUSH1 0xE0 SHR DUP1 PUSH4 0x198CC691 EQ PUSH2 0x64 JUMPI DUP1 PUSH4 0x503C560F EQ PUSH2 0x82 JUMPI DUP1 PUSH4 0x715018A6 EQ PUSH2 0x9E JUMPI DUP1 PUSH4 0x8DA5CB5B EQ PUSH2 0xA8 JUMPI DUP1 PUSH4 0x8F023F85 EQ PUSH2 0xC6 JUMPI DUP1 PUSH4 0xF2FDE38B EQ PUSH2 0xF7 JUMPI JUMPDEST PUSH0 DUP1 REVERT JUMPDEST PUSH2 0x6C PUSH2 0x113 JUMP JUMPDEST PUSH1 0x40 MLOAD PUSH2 0x79 SWAP2 SWAP1 PUSH2 0x6E6 JUMP JUMPDEST PUSH1 0x40 MLOAD DUP1 SWAP2 SUB SWAP1 RETURN JUMPDEST PUSH2 0x9C PUSH1 0x4 DUP1 CALLDATASIZE SUB DUP2 ADD SWAP1 PUSH2 0x97 SWAP2 SWAP1 PUSH2 0x843 JUMP JUMPDEST PUSH2 0x208 JUMP JUMPDEST STOP JUMPDEST PUSH2 0xA6 PUSH2 0x2A7 JUMP JUMPDEST STOP JUMPDEST PUSH2 0xB0 PUSH2 0x2BA JUMP JUMPDEST PUSH1 0x40 MLOAD PUSH2 0xBD SWAP2 SWAP1 PUSH2 0x8C9 JUMP JUMPDEST PUSH1 0x40 MLOAD DUP1 SWAP2 SUB SWAP1 RETURN JUMPDEST PUSH2 0xE0 PUSH1 0x4 DUP1 CALLDATASIZE SUB DUP2 ADD SWAP1 PUSH2 0xDB SWAP2 SWAP1 PUSH2 0x90C JUMP JUMPDEST PUSH2 0x2E1 JUMP JUMPDEST PUSH1 0x40 MLOAD PUSH2 0xEE SWAP3 SWAP2 SWAP1 PUSH2 0x98E JUMP JUMPDEST PUSH1 0x40 MLOAD DUP1 SWAP2 SUB SWAP1 RETURN JUMPDEST PUSH2 0x111 PUSH1 0x4 DUP1 CALLDATASIZE SUB DUP2 ADD SWAP1 PUSH2 0x10C SWAP2 SWAP1 PUSH2 0x9E6 JUMP JUMPDEST PUSH2 0x396 JUMP JUMPDEST STOP JUMPDEST PUSH1 0x60 PUSH1 0x1 DUP1 SLOAD DUP1 PUSH1 0x20 MUL PUSH1 0x20 ADD PUSH1 0x40 MLOAD SWAP1 DUP2 ADD PUSH1 0x40 MSTORE DUP1 SWAP3 SWAP2 SWAP1 DUP2 DUP2 MSTORE PUSH1 0x20 ADD PUSH0 SWAP1 JUMPDEST DUP3 DUP3 LT ISZERO PUSH2 0x1FF JUMPI DUP4 DUP3 SWAP1 PUSH0 MSTORE PUSH1 0x20 PUSH0 KECCAK256 SWAP1 PUSH1 0x2 MUL ADD PUSH1 0x40 MLOAD DUP1 PUSH1 0x40 ADD PUSH1 0x40 MSTORE SWAP1 DUP2 PUSH0 DUP3 ADD DUP1 SLOAD PUSH2 0x166 SWAP1 PUSH2 0xA3E JUMP JUMPDEST DUP1 PUSH1 0x1F ADD PUSH1 0x20 DUP1 SWAP2 DIV MUL PUSH1 0x20 ADD PUSH1 0x40 MLOAD SWAP1 DUP2 ADD PUSH1 0x40 MSTORE DUP1 SWAP3 SWAP2 SWAP1 DUP2 DUP2 MSTORE PUSH1 0x20 ADD DUP3 DUP1 SLOAD PUSH2 0x192 SWAP1 PUSH2 0xA3E JUMP JUMPDEST DUP1 ISZERO PUSH2 0x1DD JUMPI DUP1 PUSH1 0x1F LT PUSH2 0x1B4 JUMPI PUSH2 0x100 DUP1 DUP4 SLOAD DIV MUL DUP4 MSTORE SWAP2 PUSH1 0x20 ADD SWAP2 PUSH2 0x1DD JUMP JUMPDEST DUP3 ADD SWAP2 SWAP1 PUSH0 MSTORE PUSH1 0x20 PUSH0 KECCAK256 SWAP1 JUMPDEST DUP2 SLOAD DUP2 MSTORE SWAP1 PUSH1 0x1 ADD SWAP1 PUSH1 0x20 ADD DUP1 DUP4 GT PUSH2 0x1C0 JUMPI DUP3 SWAP1 SUB PUSH1 0x1F AND DUP3 ADD SWAP2 JUMPDEST POP POP POP POP POP DUP2 MSTORE PUSH1 0x20 ADD PUSH1 0x1 DUP3 ADD SLOAD DUP2 MSTORE POP POP DUP2 MSTORE PUSH1 0x20 ADD SWAP1 PUSH1 0x1 ADD SWAP1 PUSH2 0x136 JUMP JUMPDEST POP POP POP POP SWAP1 POP SWAP1 JUMP JUMPDEST PUSH2 0x210 PUSH2 0x41A JUMP JUMPDEST PUSH1 0x1 PUSH1 0x40 MLOAD DUP1 PUSH1 0x40 ADD PUSH1 0x40 MSTORE DUP1 DUP4 DUP2 MSTORE PUSH1 0x20 ADD PUSH0 DUP2 MSTORE POP SWAP1 DUP1 PUSH1 0x1 DUP2 SLOAD ADD DUP1 DUP3 SSTORE DUP1 SWAP2 POP POP PUSH1 0x1 SWAP1 SUB SWAP1 PUSH0 MSTORE PUSH1 0x20 PUSH0 KECCAK256 SWAP1 PUSH1 0x2 MUL ADD PUSH0 SWAP1 SWAP2 SWAP1 SWAP2 SWAP1 SWAP2 POP PUSH0 DUP3 ADD MLOAD DUP2 PUSH0 ADD SWAP1 DUP2 PUSH2 0x260 SWAP2 SWAP1 PUSH2 0xC0B JUMP JUMPDEST POP PUSH1 0x20 DUP3 ADD MLOAD DUP2 PUSH1 0x1 ADD SSTORE POP POP PUSH32 0x566C2D39711B082CC685ADE507DEE6291F47044333D9ABA4037034CDC3CFAC9E DUP2 PUSH1 0x40 MLOAD PUSH2 0x29C SWAP2 SWAP1 PUSH2 0xCDA JUMP JUMPDEST PUSH1 0x40 MLOAD DUP1 SWAP2 SUB SWAP1 LOG1 POP JUMP JUMPDEST PUSH2 0x2AF PUSH2 0x41A JUMP JUMPDEST PUSH2 0x2B8 PUSH0 PUSH2 0x4A1 JUMP JUMPDEST JUMP JUMPDEST PUSH0 DUP1 PUSH0 SWAP1 SLOAD SWAP1 PUSH2 0x100 EXP SWAP1 DIV PUSH20 0xFFFFFFFFFFFFFFFFFFFFFFFFFFFFFFFFFFFFFFFF AND SWAP1 POP SWAP1 JUMP JUMPDEST PUSH1 0x1 DUP2 DUP2 SLOAD DUP2 LT PUSH2 0x2F0 JUMPI PUSH0 DUP1 REVERT JUMPDEST SWAP1 PUSH0 MSTORE PUSH1 0x20 PUSH0 KECCAK256 SWAP1 PUSH1 0x2 MUL ADD PUSH0 SWAP2 POP SWAP1 POP DUP1 PUSH0 ADD DUP1 SLOAD PUSH2 0x30F SWAP1 PUSH2 0xA3E JUMP JUMPDEST DUP1 PUSH1 0x1F ADD PUSH1 0x20 DUP1 SWAP2 DIV MUL PUSH1 0x20 ADD PUSH1 0x40 MLOAD SWAP1 DUP2 ADD PUSH1 0x40 MSTORE DUP1 SWAP3 SWAP2 SWAP1 DUP2 DUP2 MSTORE PUSH1 0x20 ADD DUP3 DUP1 SLOAD PUSH2 0x33B SWAP1 PUSH2 0xA3E JUMP JUMPDEST DUP1 ISZERO PUSH2 0x386 JUMPI DUP1 PUSH1 0x1F LT PUSH2 0x35D JUMPI PUSH2 0x100 DUP1 DUP4 SLOAD DIV MUL DUP4 MSTORE SWAP2 PUSH1 0x20 ADD SWAP2 PUSH2 0x386 JUMP JUMPDEST DUP3 ADD SWAP2 SWAP1 PUSH0 MSTORE PUSH1 0x20 PUSH0 KECCAK256 SWAP1 JUMPDEST DUP2 SLOAD DUP2 MSTORE SWAP1 PUSH1 0x1 ADD SWAP1 PUSH1 0x20 ADD DUP1 DUP4 GT PUSH2 0x369 JUMPI DUP3 SWAP1 SUB PUSH1 0x1F AND DUP3 ADD SWAP2 JUMPDEST POP POP POP POP POP SWAP1 DUP1 PUSH1 0x1 ADD SLOAD SWAP1 POP DUP3 JUMP JUMPDEST PUSH2 0x39E PUSH2 0x41A JUMP JUMPDEST PUSH0 PUSH20 0xFFFFFFFFFFFFFFFFFFFFFFFFFFFFFFFFFFFFFFFF AND DUP2 PUSH20 0xFFFFFFFFFFFFFFFFFFFFFFFFFFFFFFFFFFFFFFFF AND SUB PUSH2 0x40E JUMPI PUSH0 PUSH1 0x40 MLOAD PUSH32 0x1E4FBDF700000000000000000000000000000000000000000000000000000000 DUP2 MSTORE PUSH1 0x4 ADD PUSH2 0x405 SWAP2 SWAP1 PUSH2 0x8C9 JUMP JUMPDEST PUSH1 0x40 MLOAD DUP1 SWAP2 SUB SWAP1 REVERT JUMPDEST PUSH2 0x417 DUP2 PUSH2 0x4A1 JUMP JUMPDEST POP JUMP JUMPDEST PUSH2 0x422 PUSH2 0x562 JUMP JUMPDEST PUSH20 0xFFFFFFFFFFFFFFFFFFFFFFFFFFFFFFFFFFFFFFFF AND PUSH2 0x440 PUSH2 0x2BA JUMP JUMPDEST PUSH20 0xFFFFFFFFFFFFFFFFFFFFFFFFFFFFFFFFFFFFFFFF AND EQ PUSH2 0x49F JUMPI PUSH2 0x463 PUSH2 0x562 JUMP JUMPDEST PUSH1 0x40 MLOAD PUSH32 0x118CDAA700000000000000000000000000000000000000000000000000000000 DUP2 MSTORE PUSH1 0x4 ADD PUSH2 0x496 SWAP2 SWAP1 PUSH2 0x8C9 JUMP JUMPDEST PUSH1 0x40 MLOAD DUP1 SWAP2 SUB SWAP1 REVERT JUMPDEST JUMP JUMPDEST PUSH0 DUP1 PUSH0 SWAP1 SLOAD SWAP1 PUSH2 0x100 EXP SWAP1 DIV PUSH20 0xFFFFFFFFFFFFFFFFFFFFFFFFFFFFFFFFFFFFFFFF AND SWAP1 POP DUP2 PUSH0 DUP1 PUSH2 0x100 EXP DUP2 SLOAD DUP2 PUSH20 0xFFFFFFFFFFFFFFFFFFFFFFFFFFFFFFFFFFFFFFFF MUL NOT AND SWAP1 DUP4 PUSH20 0xFFFFFFFFFFFFFFFFFFFFFFFFFFFFFFFFFFFFFFFF AND MUL OR SWAP1 SSTORE POP DUP2 PUSH20 0xFFFFFFFFFFFFFFFFFFFFFFFFFFFFFFFFFFFFFFFF AND DUP2 PUSH20 0xFFFFFFFFFFFFFFFFFFFFFFFFFFFFFFFFFFFFFFFF AND PUSH32 0x8BE0079C531659141344CD1FD0A4F28419497F9722A3DAAFE3B4186F6B6457E0 PUSH1 0x40 MLOAD PUSH1 0x40 MLOAD DUP1 SWAP2 SUB SWAP1 LOG3 POP POP JUMP JUMPDEST PUSH0 CALLER SWAP1 POP SWAP1 JUMP JUMPDEST PUSH0 DUP2 MLOAD SWAP1 POP SWAP2 SWAP1 POP JUMP JUMPDEST PUSH0 DUP3 DUP3 MSTORE PUSH1 0x20 DUP3 ADD SWAP1 POP SWAP3 SWAP2 POP POP JUMP JUMPDEST PUSH0 DUP2 SWAP1 POP PUSH1 0x20 DUP3 ADD SWAP1 POP SWAP2 SWAP1 POP JUMP JUMPDEST PUSH0 DUP2 MLOAD SWAP1 POP SWAP2 SWAP1 POP JUMP JUMPDEST PUSH0 DUP3 DUP3 MSTORE PUSH1 0x20 DUP3 ADD SWAP1 POP SWAP3 SWAP2 POP POP JUMP JUMPDEST DUP3 DUP2 DUP4 MCOPY PUSH0 DUP4 DUP4 ADD MSTORE POP POP POP JUMP JUMPDEST PUSH0 PUSH1 0x1F NOT PUSH1 0x1F DUP4 ADD AND SWAP1 POP SWAP2 SWAP1 POP JUMP JUMPDEST PUSH0 PUSH2 0x5D4 DUP3 PUSH2 0x592 JUMP JUMPDEST PUSH2 0x5DE DUP2 DUP6 PUSH2 0x59C JUMP JUMPDEST SWAP4 POP PUSH2 0x5EE DUP2 DUP6 PUSH1 0x20 DUP7 ADD PUSH2 0x5AC JUMP JUMPDEST PUSH2 0x5F7 DUP2 PUSH2 0x5BA JUMP JUMPDEST DUP5 ADD SWAP2 POP POP SWAP3 SWAP2 POP POP JUMP JUMPDEST PUSH0 DUP2 SWAP1 POP SWAP2 SWAP1 POP JUMP JUMPDEST PUSH2 0x614 DUP2 PUSH2 0x602 JUMP JUMPDEST DUP3 MSTORE POP POP JUMP JUMPDEST PUSH0 PUSH1 0x40 DUP4 ADD PUSH0 DUP4 ADD MLOAD DUP5 DUP3 SUB PUSH0 DUP7 ADD MSTORE PUSH2 0x634 DUP3 DUP3 PUSH2 0x5CA JUMP JUMPDEST SWAP2 POP POP PUSH1 0x20 DUP4 ADD MLOAD PUSH2 0x649 PUSH1 0x20 DUP7 ADD DUP3 PUSH2 0x60B JUMP JUMPDEST POP DUP1 SWAP2 POP POP SWAP3 SWAP2 POP POP JUMP JUMPDEST PUSH0 PUSH2 0x65F DUP4 DUP4 PUSH2 0x61A JUMP JUMPDEST SWAP1 POP SWAP3 SWAP2 POP POP JUMP JUMPDEST PUSH0 PUSH1 0x20 DUP3 ADD SWAP1 POP SWAP2 SWAP1 POP JUMP JUMPDEST PUSH0 PUSH2 0x67D DUP3 PUSH2 0x569 JUMP JUMPDEST PUSH2 0x687 DUP2 DUP6 PUSH2 0x573 JUMP JUMPDEST SWAP4 POP DUP4 PUSH1 0x20 DUP3 MUL DUP6 ADD PUSH2 0x699 DUP6 PUSH2 0x583 JUMP JUMPDEST DUP1 PUSH0 JUMPDEST DUP6 DUP2 LT ISZERO PUSH2 0x6D4 JUMPI DUP5 DUP5 SUB DUP10 MSTORE DUP2 MLOAD PUSH2 0x6B5 DUP6 DUP3 PUSH2 0x654 JUMP JUMPDEST SWAP5 POP PUSH2 0x6C0 DUP4 PUSH2 0x667 JUMP JUMPDEST SWAP3 POP PUSH1 0x20 DUP11 ADD SWAP10 POP POP PUSH1 0x1 DUP2 ADD SWAP1 POP PUSH2 0x69C JUMP JUMPDEST POP DUP3 SWAP8 POP DUP8 SWAP6 POP POP POP POP POP POP SWAP3 SWAP2 POP POP JUMP JUMPDEST PUSH0 PUSH1 0x20 DUP3 ADD SWAP1 POP DUP2 DUP2 SUB PUSH0 DUP4 ADD MSTORE PUSH2 0x6FE DUP2 DUP5 PUSH2 0x673 JUMP JUMPDEST SWAP1 POP SWAP3 SWAP2 POP POP JUMP JUMPDEST PUSH0 PUSH1 0x40 MLOAD SWAP1 POP SWAP1 JUMP JUMPDEST PUSH0 DUP1 REVERT JUMPDEST PUSH0 DUP1 REVERT JUMPDEST PUSH0 DUP1 REVERT JUMPDEST PUSH0 DUP1 REVERT JUMPDEST PUSH32 0x4E487B7100000000000000000000000000000000000000000000000000000000 PUSH0 MSTORE PUSH1 0x41 PUSH1 0x4 MSTORE PUSH1 0x24 PUSH0 REVERT JUMPDEST PUSH2 0x755 DUP3 PUSH2 0x5BA JUMP JUMPDEST DUP2 ADD DUP2 DUP2 LT PUSH8 0xFFFFFFFFFFFFFFFF DUP3 GT OR ISZERO PUSH2 0x774 JUMPI PUSH2 0x773 PUSH2 0x71F JUMP JUMPDEST JUMPDEST DUP1 PUSH1 0x40 MSTORE POP POP POP JUMP JUMPDEST PUSH0 PUSH2 0x786 PUSH2 0x706 JUMP JUMPDEST SWAP1 POP PUSH2 0x792 DUP3 DUP3 PUSH2 0x74C JUMP JUMPDEST SWAP2 SWAP1 POP JUMP JUMPDEST PUSH0 PUSH8 0xFFFFFFFFFFFFFFFF DUP3 GT ISZERO PUSH2 0x7B1 JUMPI PUSH2 0x7B0 PUSH2 0x71F JUMP JUMPDEST JUMPDEST PUSH2 0x7BA DUP3 PUSH2 0x5BA JUMP JUMPDEST SWAP1 POP PUSH1 0x20 DUP2 ADD SWAP1 POP SWAP2 SWAP1 POP JUMP JUMPDEST DUP3 DUP2 DUP4 CALLDATACOPY PUSH0 DUP4 DUP4 ADD MSTORE POP POP POP JUMP JUMPDEST PUSH0 PUSH2 0x7E7 PUSH2 0x7E2 DUP5 PUSH2 0x797 JUMP JUMPDEST PUSH2 0x77D JUMP JUMPDEST SWAP1 POP DUP3 DUP2 MSTORE PUSH1 0x20 DUP2 ADD DUP5 DUP5 DUP5 ADD GT ISZERO PUSH2 0x803 JUMPI PUSH2 0x802 PUSH2 0x71B JUMP JUMPDEST JUMPDEST PUSH2 0x80E DUP5 DUP3 DUP6 PUSH2 0x7C7 JUMP JUMPDEST POP SWAP4 SWAP3 POP POP POP JUMP JUMPDEST PUSH0 DUP3 PUSH1 0x1F DUP4 ADD SLT PUSH2 0x82A JUMPI PUSH2 0x829 PUSH2 0x717 JUMP JUMPDEST JUMPDEST DUP2 CALLDATALOAD PUSH2 0x83A DUP5 DUP3 PUSH1 0x20 DUP7 ADD PUSH2 0x7D5 JUMP JUMPDEST SWAP2 POP POP SWAP3 SWAP2 POP POP JUMP JUMPDEST PUSH0 PUSH1 0x20 DUP3 DUP5 SUB SLT ISZERO PUSH2 0x858 JUMPI PUSH2 0x857 PUSH2 0x70F JUMP JUMPDEST JUMPDEST PUSH0 DUP3 ADD CALLDATALOAD PUSH8 0xFFFFFFFFFFFFFFFF DUP2 GT ISZERO PUSH2 0x875 JUMPI PUSH2 0x874 PUSH2 0x713 JUMP JUMPDEST JUMPDEST PUSH2 0x881 DUP5 DUP3 DUP6 ADD PUSH2 0x816 JUMP JUMPDEST SWAP2 POP POP SWAP3 SWAP2 POP POP JUMP JUMPDEST PUSH0 PUSH20 0xFFFFFFFFFFFFFFFFFFFFFFFFFFFFFFFFFFFFFFFF DUP3 AND SWAP1 POP SWAP2 SWAP1 POP JUMP JUMPDEST PUSH0 PUSH2 0x8B3 DUP3 PUSH2 0x88A JUMP JUMPDEST SWAP1 POP SWAP2 SWAP1 POP JUMP JUMPDEST PUSH2 0x8C3 DUP2 PUSH2 0x8A9 JUMP JUMPDEST DUP3 MSTORE POP POP JUMP JUMPDEST PUSH0 PUSH1 0x20 DUP3 ADD SWAP1 POP PUSH2 0x8DC PUSH0 DUP4 ADD DUP5 PUSH2 0x8BA JUMP JUMPDEST SWAP3 SWAP2 POP POP JUMP JUMPDEST PUSH2 0x8EB DUP2 PUSH2 0x602 JUMP JUMPDEST DUP2 EQ PUSH2 0x8F5 JUMPI PUSH0 DUP1 REVERT JUMPDEST POP JUMP JUMPDEST PUSH0 DUP2 CALLDATALOAD SWAP1 POP PUSH2 0x906 DUP2 PUSH2 0x8E2 JUMP JUMPDEST SWAP3 SWAP2 POP POP JUMP JUMPDEST PUSH0 PUSH1 0x20 DUP3 DUP5 SUB SLT ISZERO PUSH2 0x921 JUMPI PUSH2 0x920 PUSH2 0x70F JUMP JUMPDEST JUMPDEST PUSH0 PUSH2 0x92E DUP5 DUP3 DUP6 ADD PUSH2 0x8F8 JUMP JUMPDEST SWAP2 POP POP SWAP3 SWAP2 POP POP JUMP JUMPDEST PUSH0 DUP3 DUP3 MSTORE PUSH1 0x20 DUP3 ADD SWAP1 POP SWAP3 SWAP2 POP POP JUMP JUMPDEST PUSH0 PUSH2 0x951 DUP3 PUSH2 0x592 JUMP JUMPDEST PUSH2 0x95B DUP2 DUP6 PUSH2 0x937 JUMP JUMPDEST SWAP4 POP PUSH2 0x96B DUP2 DUP6 PUSH1 0x20 DUP7 ADD PUSH2 0x5AC JUMP JUMPDEST PUSH2 0x974 DUP2 PUSH2 0x5BA JUMP JUMPDEST DUP5 ADD SWAP2 POP POP SWAP3 SWAP2 POP POP JUMP JUMPDEST PUSH2 0x988 DUP2 PUSH2 0x602 JUMP JUMPDEST DUP3 MSTORE POP POP JUMP JUMPDEST PUSH0 PUSH1 0x40 DUP3 ADD SWAP1 POP DUP2 DUP2 SUB PUSH0 DUP4 ADD MSTORE PUSH2 0x9A6 DUP2 DUP6 PUSH2 0x947 JUMP JUMPDEST SWAP1 POP PUSH2 0x9B5 PUSH1 0x20 DUP4 ADD DUP5 PUSH2 0x97F JUMP JUMPDEST SWAP4 SWAP3 POP POP POP JUMP JUMPDEST PUSH2 0x9C5 DUP2 PUSH2 0x8A9 JUMP JUMPDEST DUP2 EQ PUSH2 0x9CF JUMPI PUSH0 DUP1 REVERT JUMPDEST POP JUMP JUMPDEST PUSH0 DUP2 CALLDATALOAD SWAP1 POP PUSH2 0x9E0 DUP2 PUSH2 0x9BC JUMP JUMPDEST SWAP3 SWAP2 POP POP JUMP JUMPDEST PUSH0 PUSH1 0x20 DUP3 DUP5 SUB SLT ISZERO PUSH2 0x9FB JUMPI PUSH2 0x9FA PUSH2 0x70F JUMP JUMPDEST JUMPDEST PUSH0 PUSH2 0xA08 DUP5 DUP3 DUP6 ADD PUSH2 0x9D2 JUMP JUMPDEST SWAP2 POP POP SWAP3 SWAP2 POP POP JUMP JUMPDEST PUSH32 0x4E487B7100000000000000000000000000000000000000000000000000000000 PUSH0 MSTORE PUSH1 0x22 PUSH1 0x4 MSTORE PUSH1 0x24 PUSH0 REVERT JUMPDEST PUSH0 PUSH1 0x2 DUP3 DIV SWAP1 POP PUSH1 0x1 DUP3 AND DUP1 PUSH2 0xA55 JUMPI PUSH1 0x7F DUP3 AND SWAP2 POP JUMPDEST PUSH1 0x20 DUP3 LT DUP2 SUB PUSH2 0xA68 JUMPI PUSH2 0xA67 PUSH2 0xA11 JUMP JUMPDEST JUMPDEST POP SWAP2 SWAP1 POP JUMP JUMPDEST PUSH0 DUP2 SWAP1 POP DUP2 PUSH0 MSTORE PUSH1 0x20 PUSH0 KECCAK256 SWAP1 POP SWAP2 SWAP1 POP JUMP JUMPDEST PUSH0 PUSH1 0x20 PUSH1 0x1F DUP4 ADD DIV SWAP1 POP SWAP2 SWAP1 POP JUMP JUMPDEST PUSH0 DUP3 DUP3 SHL SWAP1 POP SWAP3 SWAP2 POP POP JUMP JUMPDEST PUSH0 PUSH1 0x8 DUP4 MUL PUSH2 0xACA PUSH32 0xFFFFFFFFFFFFFFFFFFFFFFFFFFFFFFFFFFFFFFFFFFFFFFFFFFFFFFFFFFFFFFFF DUP3 PUSH2 0xA8F JUMP JUMPDEST PUSH2 0xAD4 DUP7 DUP4 PUSH2 0xA8F JUMP JUMPDEST SWAP6 POP DUP1 NOT DUP5 AND SWAP4 POP DUP1 DUP7 AND DUP5 OR SWAP3 POP POP POP SWAP4 SWAP3 POP POP POP JUMP JUMPDEST PUSH0 DUP2 SWAP1 POP SWAP2 SWAP1 POP JUMP JUMPDEST PUSH0 PUSH2 0xB0F PUSH2 0xB0A PUSH2 0xB05 DUP5 PUSH2 0x602 JUMP JUMPDEST PUSH2 0xAEC JUMP JUMPDEST PUSH2 0x602 JUMP JUMPDEST SWAP1 POP SWAP2 SWAP1 POP JUMP JUMPDEST PUSH0 DUP2 SWAP1 POP SWAP2 SWAP1 POP JUMP JUMPDEST PUSH2 0xB28 DUP4 PUSH2 0xAF5 JUMP JUMPDEST PUSH2 0xB3C PUSH2 0xB34 DUP3 PUSH2 0xB16 JUMP JUMPDEST DUP5 DUP5 SLOAD PUSH2 0xA9B JUMP JUMPDEST DUP3 SSTORE POP POP POP POP JUMP JUMPDEST PUSH0 SWAP1 JUMP JUMPDEST PUSH2 0xB50 PUSH2 0xB44 JUMP JUMPDEST PUSH2 0xB5B DUP2 DUP5 DUP5 PUSH2 0xB1F JUMP JUMPDEST POP POP POP JUMP JUMPDEST JUMPDEST DUP2 DUP2 LT ISZERO PUSH2 0xB7E JUMPI PUSH2 0xB73 PUSH0 DUP3 PUSH2 0xB48 JUMP JUMPDEST PUSH1 0x1 DUP2 ADD SWAP1 POP PUSH2 0xB61 JUMP JUMPDEST POP POP JUMP JUMPDEST PUSH1 0x1F DUP3 GT ISZERO PUSH2 0xBC3 JUMPI PUSH2 0xB94 DUP2 PUSH2 0xA6E JUMP JUMPDEST PUSH2 0xB9D DUP5 PUSH2 0xA80 JUMP JUMPDEST DUP2 ADD PUSH1 0x20 DUP6 LT ISZERO PUSH2 0xBAC JUMPI DUP2 SWAP1 POP JUMPDEST PUSH2 0xBC0 PUSH2 0xBB8 DUP6 PUSH2 0xA80 JUMP JUMPDEST DUP4 ADD DUP3 PUSH2 0xB60 JUMP JUMPDEST POP POP JUMPDEST POP POP POP JUMP JUMPDEST PUSH0 DUP3 DUP3 SHR SWAP1 POP SWAP3 SWAP2 POP POP JUMP JUMPDEST PUSH0 PUSH2 0xBE3 PUSH0 NOT DUP5 PUSH1 0x8 MUL PUSH2 0xBC8 JUMP JUMPDEST NOT DUP1 DUP4 AND SWAP2 POP POP SWAP3 SWAP2 POP POP JUMP JUMPDEST PUSH0 PUSH2 0xBFB DUP4 DUP4 PUSH2 0xBD4 JUMP JUMPDEST SWAP2 POP DUP3 PUSH1 0x2 MUL DUP3 OR SWAP1 POP SWAP3 SWAP2 POP POP JUMP JUMPDEST PUSH2 0xC14 DUP3 PUSH2 0x592 JUMP JUMPDEST PUSH8 0xFFFFFFFFFFFFFFFF DUP2 GT ISZERO PUSH2 0xC2D JUMPI PUSH2 0xC2C PUSH2 0x71F JUMP JUMPDEST JUMPDEST PUSH2 0xC37 DUP3 SLOAD PUSH2 0xA3E JUMP JUMPDEST PUSH2 0xC42 DUP3 DUP3 DUP6 PUSH2 0xB82 JUMP JUMPDEST PUSH0 PUSH1 0x20 SWAP1 POP PUSH1 0x1F DUP4 GT PUSH1 0x1 DUP2 EQ PUSH2 0xC73 JUMPI PUSH0 DUP5 ISZERO PUSH2 0xC61 JUMPI DUP3 DUP8 ADD MLOAD SWAP1 POP JUMPDEST PUSH2 0xC6B DUP6 DUP3 PUSH2 0xBF0 JUMP JUMPDEST DUP7 SSTORE POP PUSH2 0xCD2 JUMP JUMPDEST PUSH1 0x1F NOT DUP5 AND PUSH2 0xC81 DUP7 PUSH2 0xA6E JUMP JUMPDEST PUSH0 JUMPDEST DUP3 DUP2 LT ISZERO PUSH2 0xCA8 JUMPI DUP5 DUP10 ADD MLOAD DUP3 SSTORE PUSH1 0x1 DUP3 ADD SWAP2 POP PUSH1 0x20 DUP6 ADD SWAP5 POP PUSH1 0x20 DUP2 ADD SWAP1 POP PUSH2 0xC83 JUMP JUMPDEST DUP7 DUP4 LT ISZERO PUSH2 0xCC5 JUMPI DUP5 DUP10 ADD MLOAD PUSH2 0xCC1 PUSH1 0x1F DUP10 AND DUP3 PUSH2 0xBD4 JUMP JUMPDEST DUP4 SSTORE POP JUMPDEST PUSH1 0x1 PUSH1 0x2 DUP9 MUL ADD DUP9 SSTORE POP POP POP JUMPDEST POP POP POP POP POP POP JUMP JUMPDEST PUSH0 PUSH1 0x20 DUP3 ADD SWAP1 POP DUP2 DUP2 SUB PUSH0 DUP4 ADD MSTORE PUSH2 0xCF2 DUP2 DUP5 PUSH2 0x947 JUMP JUMPDEST SWAP1 POP SWAP3 SWAP2 POP POP JUMP INVALID LOG2 PUSH5 0x6970667358 0x22 SLT KECCAK256 CREATE 0xE3 STATICCALL 0xE CALLDATACOPY GASLIMIT 0xF8 CALLDATACOPY PUSH16 0x9B303AEF0680AE8E472073F685F81DAF 0xE7 0x28 PUSH9 0x157D180064736F6C63 NUMBER STOP ADDMOD NOT STOP CALLER "
				},
				"gasEstimates": {
					"creation": {
						"codeDepositCost": "675200",
						"executionCost": "infinite",
						"totalCost": "infinite"
					},
					"external": {
						"agregarCandidato(string)": "infinite",
						"candidatos(uint256)": "infinite",
						"getAllCandidatos()": "infinite",
						"owner()": "2559",
						"renounceOwnership()": "infinite",
						"transferOwnership(address)": "infinite"
					}
				},
				"methodIdentifiers": {
					"agregarCandidato(string)": "503c560f",
					"candidatos(uint256)": "8f023f85",
					"getAllCandidatos()": "198cc691",
					"owner()": "8da5cb5b",
					"renounceOwnership()": "715018a6",
					"transferOwnership(address)": "f2fde38b"
				}
			},
			"storageLayout": {
				"storage": [
					{
						"astId": 8,
						"contract": "contracts/Candidatos.sol:Candidatos",
						"label": "_owner",
						"offset": 0,
						"slot": "0",
						"type": "t_address"
					},
					{
						"astId": 947,
						"contract": "contracts/Candidatos.sol:Candidatos",
						"label": "candidatos",
						"offset": 0,
						"slot": "1",
						"type": "t_array(t_struct(Candidato)943_storage)dyn_storage"
					},
					{
						"astId": 955,
						"contract": "contracts/Candidatos.sol:Candidatos",
						"label": "hasVoted",
						"offset": 0,
						"slot": "2",
						"type": "t_mapping(t_address,t_bool)"
					}
				],
				"types": {
					"t_address": {
						"encoding": "inplace",
						"label": "address",
						"numberOfBytes": "20"
					},
					"t_array(t_struct(Candidato)943_storage)dyn_storage": {
						"base": "t_struct(Candidato)943_storage",
						"encoding": "dynamic_array",
						"label": "struct Candidatos.Candidato[]",
						"numberOfBytes": "32"
					},
					"t_bool": {
						"encoding": "inplace",
						"label": "bool",
						"numberOfBytes": "1"
					},
					"t_mapping(t_address,t_bool)": {
						"encoding": "mapping",
						"key": "t_address",
						"label": "mapping(address => bool)",
						"numberOfBytes": "32",
						"value": "t_bool"
					},
					"t_string_storage": {
						"encoding": "bytes",
						"label": "string",
						"numberOfBytes": "32"
					},
					"t_struct(Candidato)943_storage": {
						"encoding": "inplace",
						"label": "struct Candidatos.Candidato",
						"members": [
							{
								"astId": 940,
								"contract": "contracts/Candidatos.sol:Candidatos",
								"label": "name",
								"offset": 0,
								"slot": "0",
								"type": "t_string_storage"
							},
							{
								"astId": 942,
								"contract": "contracts/Candidatos.sol:Candidatos",
								"label": "votos",
								"offset": 0,
								"slot": "1",
								"type": "t_uint256"
							}
						],
						"numberOfBytes": "64"
					},
					"t_uint256": {
						"encoding": "inplace",
						"label": "uint256",
						"numberOfBytes": "32"
					}
				}
			},
			"userdoc": {
				"kind": "user",
				"methods": {},
				"version": 1
			}
		}
	}
}