{
	"contracts/Mesa_Votantes.sol": {
		"Mesa_Votantes": {
			"abi": [
				{
					"inputs": [],
					"stateMutability": "nonpayable",
					"type": "constructor"
				},
				{
					"inputs": [
						{
							"internalType": "address",
							"name": "spender",
							"type": "address"
						},
						{
							"internalType": "uint256",
							"name": "allowance",
							"type": "uint256"
						},
						{
							"internalType": "uint256",
							"name": "needed",
							"type": "uint256"
						}
					],
					"name": "ERC20InsufficientAllowance",
					"type": "error"
				},
				{
					"inputs": [
						{
							"internalType": "address",
							"name": "sender",
							"type": "address"
						},
						{
							"internalType": "uint256",
							"name": "balance",
							"type": "uint256"
						},
						{
							"internalType": "uint256",
							"name": "needed",
							"type": "uint256"
						}
					],
					"name": "ERC20InsufficientBalance",
					"type": "error"
				},
				{
					"inputs": [
						{
							"internalType": "address",
							"name": "approver",
							"type": "address"
						}
					],
					"name": "ERC20InvalidApprover",
					"type": "error"
				},
				{
					"inputs": [
						{
							"internalType": "address",
							"name": "receiver",
							"type": "address"
						}
					],
					"name": "ERC20InvalidReceiver",
					"type": "error"
				},
				{
					"inputs": [
						{
							"internalType": "address",
							"name": "sender",
							"type": "address"
						}
					],
					"name": "ERC20InvalidSender",
					"type": "error"
				},
				{
					"inputs": [
						{
							"internalType": "address",
							"name": "spender",
							"type": "address"
						}
					],
					"name": "ERC20InvalidSpender",
					"type": "error"
				},
				{
					"inputs": [
						{
							"internalType": "address",
							"name": "owner",
							"type": "address"
						}
					],
					"name": "OwnableInvalidOwner",
					"type": "error"
				},
				{
					"inputs": [
						{
							"internalType": "address",
							"name": "account",
							"type": "address"
						}
					],
					"name": "OwnableUnauthorizedAccount",
					"type": "error"
				},
				{
					"anonymous": false,
					"inputs": [
						{
							"indexed": true,
							"internalType": "address",
							"name": "owner",
							"type": "address"
						},
						{
							"indexed": true,
							"internalType": "address",
							"name": "spender",
							"type": "address"
						},
						{
							"indexed": false,
							"internalType": "uint256",
							"name": "value",
							"type": "uint256"
						}
					],
					"name": "Approval",
					"type": "event"
				},
				{
					"anonymous": false,
					"inputs": [
						{
							"indexed": false,
							"internalType": "string",
							"name": "nombre",
							"type": "string"
						}
					],
					"name": "CandidatoAgregado",
					"type": "event"
				},
				{
					"anonymous": false,
					"inputs": [
						{
							"indexed": true,
							"internalType": "uint256",
							"name": "mesaIndex",
							"type": "uint256"
						},
						{
							"indexed": false,
							"internalType": "string",
							"name": "nombreMesa",
							"type": "string"
						}
					],
					"name": "NuevaMesaAbierta",
					"type": "event"
				},
				{
					"anonymous": false,
					"inputs": [
						{
							"indexed": true,
							"internalType": "address",
							"name": "previousOwner",
							"type": "address"
						},
						{
							"indexed": true,
							"internalType": "address",
							"name": "newOwner",
							"type": "address"
						}
					],
					"name": "OwnershipTransferred",
					"type": "event"
				},
				{
					"anonymous": false,
					"inputs": [
						{
							"indexed": true,
							"internalType": "address",
							"name": "from",
							"type": "address"
						},
						{
							"indexed": true,
							"internalType": "address",
							"name": "to",
							"type": "address"
						},
						{
							"indexed": false,
							"internalType": "uint256",
							"name": "value",
							"type": "uint256"
						}
					],
					"name": "Transfer",
					"type": "event"
				},
				{
					"inputs": [
						{
							"internalType": "string",
							"name": "_nombre",
							"type": "string"
						}
					],
					"name": "agregarCandidato",
					"outputs": [],
					"stateMutability": "nonpayable",
					"type": "function"
				},
				{
					"inputs": [
						{
							"internalType": "string",
							"name": "_nombre",
							"type": "string"
						},
						{
							"internalType": "address",
							"name": "_owner",
							"type": "address"
						}
					],
					"name": "agregarMesa",
					"outputs": [],
					"stateMutability": "nonpayable",
					"type": "function"
				},
				{
					"inputs": [
						{
							"internalType": "address",
							"name": "owner",
							"type": "address"
						},
						{
							"internalType": "address",
							"name": "spender",
							"type": "address"
						}
					],
					"name": "allowance",
					"outputs": [
						{
							"internalType": "uint256",
							"name": "",
							"type": "uint256"
						}
					],
					"stateMutability": "view",
					"type": "function"
				},
				{
					"inputs": [
						{
							"internalType": "address",
							"name": "spender",
							"type": "address"
						},
						{
							"internalType": "uint256",
							"name": "value",
							"type": "uint256"
						}
					],
					"name": "approve",
					"outputs": [
						{
							"internalType": "bool",
							"name": "",
							"type": "bool"
						}
					],
					"stateMutability": "nonpayable",
					"type": "function"
				},
				{
					"inputs": [
						{
							"internalType": "address",
							"name": "account",
							"type": "address"
						}
					],
					"name": "balanceOf",
					"outputs": [
						{
							"internalType": "uint256",
							"name": "",
							"type": "uint256"
						}
					],
					"stateMutability": "view",
					"type": "function"
				},
				{
					"inputs": [
						{
							"internalType": "uint256",
							"name": "",
							"type": "uint256"
						}
					],
					"name": "candidatos",
					"outputs": [
						{
							"internalType": "string",
							"name": "name",
							"type": "string"
						},
						{
							"internalType": "uint256",
							"name": "votos",
							"type": "uint256"
						}
					],
					"stateMutability": "view",
					"type": "function"
				},
				{
					"inputs": [
						{
							"internalType": "uint256",
							"name": "_mesaIndex",
							"type": "uint256"
						}
					],
					"name": "cerrarMesa",
					"outputs": [],
					"stateMutability": "nonpayable",
					"type": "function"
				},
				{
					"inputs": [],
					"name": "contarRecuentoTotal",
					"outputs": [
						{
							"internalType": "string[]",
							"name": "nombres",
							"type": "string[]"
						},
						{
							"internalType": "uint256[]",
							"name": "votos",
							"type": "uint256[]"
						}
					],
					"stateMutability": "view",
					"type": "function"
				},
				{
					"inputs": [],
					"name": "decimals",
					"outputs": [
						{
							"internalType": "uint8",
							"name": "",
							"type": "uint8"
						}
					],
					"stateMutability": "view",
					"type": "function"
				},
				{
					"inputs": [],
					"name": "getAllCandidatos",
					"outputs": [
						{
							"components": [
								{
									"internalType": "string",
									"name": "name",
									"type": "string"
								},
								{
									"internalType": "uint256",
									"name": "votos",
									"type": "uint256"
								}
							],
							"internalType": "struct Candidatos.Candidato[]",
							"name": "",
							"type": "tuple[]"
						}
					],
					"stateMutability": "view",
					"type": "function"
				},
				{
					"inputs": [],
					"name": "getTokenRecipients",
					"outputs": [
						{
							"internalType": "address[]",
							"name": "",
							"type": "address[]"
						}
					],
					"stateMutability": "view",
					"type": "function"
				},
				{
					"inputs": [
						{
							"internalType": "uint256",
							"name": "",
							"type": "uint256"
						}
					],
					"name": "mesas",
					"outputs": [
						{
							"internalType": "address",
							"name": "owner",
							"type": "address"
						},
						{
							"internalType": "bool",
							"name": "isOpen",
							"type": "bool"
						}
					],
					"stateMutability": "view",
					"type": "function"
				},
				{
					"inputs": [
						{
							"internalType": "uint256",
							"name": "_cantidad",
							"type": "uint256"
						}
					],
					"name": "mint",
					"outputs": [],
					"stateMutability": "nonpayable",
					"type": "function"
				},
				{
					"inputs": [],
					"name": "name",
					"outputs": [
						{
							"internalType": "string",
							"name": "",
							"type": "string"
						}
					],
					"stateMutability": "view",
					"type": "function"
				},
				{
					"inputs": [],
					"name": "numMesas",
					"outputs": [
						{
							"internalType": "uint256",
							"name": "",
							"type": "uint256"
						}
					],
					"stateMutability": "view",
					"type": "function"
				},
				{
					"inputs": [
						{
							"internalType": "uint256",
							"name": "_mesaIndex",
							"type": "uint256"
						}
					],
					"name": "obtenerRecuentoVotos",
					"outputs": [
						{
							"internalType": "uint256[]",
							"name": "",
							"type": "uint256[]"
						}
					],
					"stateMutability": "view",
					"type": "function"
				},
				{
					"inputs": [],
					"name": "owner",
					"outputs": [
						{
							"internalType": "address",
							"name": "",
							"type": "address"
						}
					],
					"stateMutability": "view",
					"type": "function"
				},
				{
					"inputs": [],
					"name": "renounceOwnership",
					"outputs": [],
					"stateMutability": "nonpayable",
					"type": "function"
				},
				{
					"inputs": [],
					"name": "symbol",
					"outputs": [
						{
							"internalType": "string",
							"name": "",
							"type": "string"
						}
					],
					"stateMutability": "view",
					"type": "function"
				},
				{
					"inputs": [],
					"name": "totalSupply",
					"outputs": [
						{
							"internalType": "uint256",
							"name": "",
							"type": "uint256"
						}
					],
					"stateMutability": "view",
					"type": "function"
				},
				{
					"inputs": [
						{
							"internalType": "address",
							"name": "to",
							"type": "address"
						},
						{
							"internalType": "uint256",
							"name": "value",
							"type": "uint256"
						}
					],
					"name": "transfer",
					"outputs": [
						{
							"internalType": "bool",
							"name": "",
							"type": "bool"
						}
					],
					"stateMutability": "nonpayable",
					"type": "function"
				},
				{
					"inputs": [
						{
							"internalType": "address",
							"name": "from",
							"type": "address"
						},
						{
							"internalType": "address",
							"name": "to",
							"type": "address"
						},
						{
							"internalType": "uint256",
							"name": "value",
							"type": "uint256"
						}
					],
					"name": "transferFrom",
					"outputs": [
						{
							"internalType": "bool",
							"name": "",
							"type": "bool"
						}
					],
					"stateMutability": "nonpayable",
					"type": "function"
				},
				{
					"inputs": [
						{
							"internalType": "address",
							"name": "newOwner",
							"type": "address"
						}
					],
					"name": "transferOwnership",
					"outputs": [],
					"stateMutability": "nonpayable",
					"type": "function"
				},
				{
					"inputs": [
						{
							"internalType": "address",
							"name": "_to",
							"type": "address"
						}
					],
					"name": "transferToken",
					"outputs": [
						{
							"internalType": "bool",
							"name": "",
							"type": "bool"
						}
					],
					"stateMutability": "nonpayable",
					"type": "function"
				},
				{
					"inputs": [
						{
							"internalType": "uint256",
							"name": "_candidatoIndex",
							"type": "uint256"
						},
						{
							"internalType": "uint256",
							"name": "_mesaIndex",
							"type": "uint256"
						}
					],
					"name": "vote",
					"outputs": [],
					"stateMutability": "payable",
					"type": "function"
				}
			],
			"devdoc": {
				"errors": {
					"ERC20InsufficientAllowance(address,uint256,uint256)": [
						{
							"details": "Indicates a failure with the `spender`’s `allowance`. Used in transfers.",
							"params": {
								"allowance": "Amount of tokens a `spender` is allowed to operate with.",
								"needed": "Minimum amount required to perform a transfer.",
								"spender": "Address that may be allowed to operate on tokens without being their owner."
							}
						}
					],
					"ERC20InsufficientBalance(address,uint256,uint256)": [
						{
							"details": "Indicates an error related to the current `balance` of a `sender`. Used in transfers.",
							"params": {
								"balance": "Current balance for the interacting account.",
								"needed": "Minimum amount required to perform a transfer.",
								"sender": "Address whose tokens are being transferred."
							}
						}
					],
					"ERC20InvalidApprover(address)": [
						{
							"details": "Indicates a failure with the `approver` of a token to be approved. Used in approvals.",
							"params": {
								"approver": "Address initiating an approval operation."
							}
						}
					],
					"ERC20InvalidReceiver(address)": [
						{
							"details": "Indicates a failure with the token `receiver`. Used in transfers.",
							"params": {
								"receiver": "Address to which tokens are being transferred."
							}
						}
					],
					"ERC20InvalidSender(address)": [
						{
							"details": "Indicates a failure with the token `sender`. Used in transfers.",
							"params": {
								"sender": "Address whose tokens are being transferred."
							}
						}
					],
					"ERC20InvalidSpender(address)": [
						{
							"details": "Indicates a failure with the `spender` to be approved. Used in approvals.",
							"params": {
								"spender": "Address that may be allowed to operate on tokens without being their owner."
							}
						}
					],
					"OwnableInvalidOwner(address)": [
						{
							"details": "The owner is not a valid owner account. (eg. `address(0)`)"
						}
					],
					"OwnableUnauthorizedAccount(address)": [
						{
							"details": "The caller account is not authorized to perform an operation."
						}
					]
				},
				"events": {
					"Approval(address,address,uint256)": {
						"details": "Emitted when the allowance of a `spender` for an `owner` is set by a call to {approve}. `value` is the new allowance."
					},
					"Transfer(address,address,uint256)": {
						"details": "Emitted when `value` tokens are moved from one account (`from`) to another (`to`). Note that `value` may be zero."
					}
				},
				"kind": "dev",
				"methods": {
					"allowance(address,address)": {
						"details": "See {IERC20-allowance}."
					},
					"approve(address,uint256)": {
						"details": "See {IERC20-approve}. NOTE: If `value` is the maximum `uint256`, the allowance is not updated on `transferFrom`. This is semantically equivalent to an infinite approval. Requirements: - `spender` cannot be the zero address."
					},
					"balanceOf(address)": {
						"details": "See {IERC20-balanceOf}."
					},
					"decimals()": {
						"details": "Returns the number of decimals used to get its user representation. For example, if `decimals` equals `2`, a balance of `505` tokens should be displayed to a user as `5.05` (`505 / 10 ** 2`). Tokens usually opt for a value of 18, imitating the relationship between Ether and Wei. This is the default value returned by this function, unless it's overridden. NOTE: This information is only used for _display_ purposes: it in no way affects any of the arithmetic of the contract, including {IERC20-balanceOf} and {IERC20-transfer}."
					},
					"name()": {
						"details": "Returns the name of the token."
					},
					"owner()": {
						"details": "Returns the address of the current owner."
					},
					"renounceOwnership()": {
						"details": "Leaves the contract without owner. It will not be possible to call `onlyOwner` functions. Can only be called by the current owner. NOTE: Renouncing ownership will leave the contract without an owner, thereby disabling any functionality that is only available to the owner."
					},
					"symbol()": {
						"details": "Returns the symbol of the token, usually a shorter version of the name."
					},
					"totalSupply()": {
						"details": "See {IERC20-totalSupply}."
					},
					"transfer(address,uint256)": {
						"details": "See {IERC20-transfer}. Requirements: - `to` cannot be the zero address. - the caller must have a balance of at least `value`."
					},
					"transferFrom(address,address,uint256)": {
						"details": "See {IERC20-transferFrom}. Emits an {Approval} event indicating the updated allowance. This is not required by the EIP. See the note at the beginning of {ERC20}. NOTE: Does not update the allowance if the current allowance is the maximum `uint256`. Requirements: - `from` and `to` cannot be the zero address. - `from` must have a balance of at least `value`. - the caller must have allowance for ``from``'s tokens of at least `value`."
					},
					"transferOwnership(address)": {
						"details": "Transfers ownership of the contract to a new account (`newOwner`). Can only be called by the current owner."
					}
				},
				"version": 1
			},
			"evm": {
				"assembly": "    /* \"contracts/Mesa_Votantes.sol\":147:4274  contract Mesa_Votantes is ERC20, Candidatos {... */\n  mstore(0x40, 0x80)\n    /* \"contracts/Mesa_Votantes.sol\":836:919  constructor() ERC20(\"MyToken\", \"MTK\") {... */\n  callvalue\n  dup1\n  iszero\n  tag_1\n  jumpi\n  0x00\n  dup1\n  revert\ntag_1:\n  pop\n    /* \"contracts/Candidatos.sol\":634:644  msg.sender */\n  caller\n    /* \"@openzeppelin/contracts/token/ERC20/ERC20.sol\":1896:2009  constructor(string memory name_, string memory symbol_) {... */\n  mload(0x40)\n  dup1\n  0x40\n  add\n  0x40\n  mstore\n  dup1\n  0x07\n  dup2\n  mstore\n  0x20\n  add\n  0x4d79546f6b656e00000000000000000000000000000000000000000000000000\n  dup2\n  mstore\n  pop\n  mload(0x40)\n  dup1\n  0x40\n  add\n  0x40\n  mstore\n  dup1\n  0x03\n  dup2\n  mstore\n  0x20\n  add\n  0x4d544b0000000000000000000000000000000000000000000000000000000000\n  dup2\n  mstore\n  pop\n    /* \"@openzeppelin/contracts/token/ERC20/ERC20.sol\":1970:1975  name_ */\n  dup2\n    /* \"@openzeppelin/contracts/token/ERC20/ERC20.sol\":1962:1967  _name */\n  0x03\n    /* \"@openzeppelin/contracts/token/ERC20/ERC20.sol\":1962:1975  _name = name_ */\n  swap1\n  dup2\n  tag_7\n  swap2\n  swap1\n  tag_8\n  jump\t// in\ntag_7:\n  pop\n    /* \"@openzeppelin/contracts/token/ERC20/ERC20.sol\":1995:2002  symbol_ */\n  dup1\n    /* \"@openzeppelin/contracts/token/ERC20/ERC20.sol\":1985:1992  _symbol */\n  0x04\n    /* \"@openzeppelin/contracts/token/ERC20/ERC20.sol\":1985:2002  _symbol = symbol_ */\n  swap1\n  dup2\n  tag_9\n  swap2\n  swap1\n  tag_8\n  jump\t// in\ntag_9:\n  pop\n    /* \"@openzeppelin/contracts/token/ERC20/ERC20.sol\":1896:2009  constructor(string memory name_, string memory symbol_) {... */\n  pop\n  pop\n    /* \"@openzeppelin/contracts/access/Ownable.sol\":1297:1298  0 */\n  0x00\n    /* \"@openzeppelin/contracts/access/Ownable.sol\":1273:1299  initialOwner == address(0) */\n  0xffffffffffffffffffffffffffffffffffffffff\n  and\n    /* \"@openzeppelin/contracts/access/Ownable.sol\":1273:1285  initialOwner */\n  dup2\n    /* \"@openzeppelin/contracts/access/Ownable.sol\":1273:1299  initialOwner == address(0) */\n  0xffffffffffffffffffffffffffffffffffffffff\n  and\n  sub\n    /* \"@openzeppelin/contracts/access/Ownable.sol\":1269:1364  if (initialOwner == address(0)) {... */\n  tag_11\n  jumpi\n    /* \"@openzeppelin/contracts/access/Ownable.sol\":1350:1351  0 */\n  0x00\n    /* \"@openzeppelin/contracts/access/Ownable.sol\":1322:1353  OwnableInvalidOwner(address(0)) */\n  mload(0x40)\n  0x1e4fbdf700000000000000000000000000000000000000000000000000000000\n  dup2\n  mstore\n  0x04\n  add\n  tag_12\n  swap2\n  swap1\n  tag_13\n  jump\t// in\ntag_12:\n  mload(0x40)\n  dup1\n  swap2\n  sub\n  swap1\n  revert\n    /* \"@openzeppelin/contracts/access/Ownable.sol\":1269:1364  if (initialOwner == address(0)) {... */\ntag_11:\n    /* \"@openzeppelin/contracts/access/Ownable.sol\":1373:1405  _transferOwnership(initialOwner) */\n  tag_14\n    /* \"@openzeppelin/contracts/access/Ownable.sol\":1392:1404  initialOwner */\n  dup2\n    /* \"@openzeppelin/contracts/access/Ownable.sol\":1373:1391  _transferOwnership */\n  shl(0x20, tag_15)\n    /* \"@openzeppelin/contracts/access/Ownable.sol\":1373:1405  _transferOwnership(initialOwner) */\n  0x20\n  shr\n  jump\t// in\ntag_14:\n    /* \"@openzeppelin/contracts/access/Ownable.sol\":1225:1412  constructor(address initialOwner) {... */\n  pop\n    /* \"contracts/Mesa_Votantes.sol\":885:911  _mint(address(this), 1000) */\n  tag_18\n    /* \"contracts/Mesa_Votantes.sol\":899:903  this */\n  address\n    /* \"contracts/Mesa_Votantes.sol\":906:910  1000 */\n  0x03e8\n    /* \"contracts/Mesa_Votantes.sol\":885:890  _mint */\n  shl(0x20, tag_19)\n    /* \"contracts/Mesa_Votantes.sol\":885:911  _mint(address(this), 1000) */\n  0x20\n  shr\n  jump\t// in\ntag_18:\n    /* \"contracts/Mesa_Votantes.sol\":147:4274  contract Mesa_Votantes is ERC20, Candidatos {... */\n  jump(tag_20)\n    /* \"@openzeppelin/contracts/access/Ownable.sol\":2912:3099  function _transferOwnership(address newOwner) internal virtual {... */\ntag_15:\n    /* \"@openzeppelin/contracts/access/Ownable.sol\":2985:3001  address oldOwner */\n  0x00\n    /* \"@openzeppelin/contracts/access/Ownable.sol\":3004:3010  _owner */\n  0x05\n  0x00\n  swap1\n  sload\n  swap1\n  0x0100\n  exp\n  swap1\n  div\n  0xffffffffffffffffffffffffffffffffffffffff\n  and\n    /* \"@openzeppelin/contracts/access/Ownable.sol\":2985:3010  address oldOwner = _owner */\n  swap1\n  pop\n    /* \"@openzeppelin/contracts/access/Ownable.sol\":3029:3037  newOwner */\n  dup2\n    /* \"@openzeppelin/contracts/access/Ownable.sol\":3020:3026  _owner */\n  0x05\n  0x00\n    /* \"@openzeppelin/contracts/access/Ownable.sol\":3020:3037  _owner = newOwner */\n  0x0100\n  exp\n  dup2\n  sload\n  dup2\n  0xffffffffffffffffffffffffffffffffffffffff\n  mul\n  not\n  and\n  swap1\n  dup4\n  0xffffffffffffffffffffffffffffffffffffffff\n  and\n  mul\n  or\n  swap1\n  sstore\n  pop\n    /* \"@openzeppelin/contracts/access/Ownable.sol\":3083:3091  newOwner */\n  dup2\n    /* \"@openzeppelin/contracts/access/Ownable.sol\":3052:3092  OwnershipTransferred(oldOwner, newOwner) */\n  0xffffffffffffffffffffffffffffffffffffffff\n  and\n    /* \"@openzeppelin/contracts/access/Ownable.sol\":3073:3081  oldOwner */\n  dup2\n    /* \"@openzeppelin/contracts/access/Ownable.sol\":3052:3092  OwnershipTransferred(oldOwner, newOwner) */\n  0xffffffffffffffffffffffffffffffffffffffff\n  and\n  0x8be0079c531659141344cd1fd0a4f28419497f9722a3daafe3b4186f6b6457e0\n  mload(0x40)\n  mload(0x40)\n  dup1\n  swap2\n  sub\n  swap1\n  log3\n    /* \"@openzeppelin/contracts/access/Ownable.sol\":2975:3099  {... */\n  pop\n    /* \"@openzeppelin/contracts/access/Ownable.sol\":2912:3099  function _transferOwnership(address newOwner) internal virtual {... */\n  pop\n  jump\t// out\n    /* \"@openzeppelin/contracts/token/ERC20/ERC20.sol\":7721:7929  function _mint(address account, uint256 value) internal {... */\ntag_19:\n    /* \"@openzeppelin/contracts/token/ERC20/ERC20.sol\":7810:7811  0 */\n  0x00\n    /* \"@openzeppelin/contracts/token/ERC20/ERC20.sol\":7791:7812  account == address(0) */\n  0xffffffffffffffffffffffffffffffffffffffff\n  and\n    /* \"@openzeppelin/contracts/token/ERC20/ERC20.sol\":7791:7798  account */\n  dup3\n    /* \"@openzeppelin/contracts/token/ERC20/ERC20.sol\":7791:7812  account == address(0) */\n  0xffffffffffffffffffffffffffffffffffffffff\n  and\n  sub\n    /* \"@openzeppelin/contracts/token/ERC20/ERC20.sol\":7787:7878  if (account == address(0)) {... */\n  tag_23\n  jumpi\n    /* \"@openzeppelin/contracts/token/ERC20/ERC20.sol\":7864:7865  0 */\n  0x00\n    /* \"@openzeppelin/contracts/token/ERC20/ERC20.sol\":7835:7867  ERC20InvalidReceiver(address(0)) */\n  mload(0x40)\n  0xec442f0500000000000000000000000000000000000000000000000000000000\n  dup2\n  mstore\n  0x04\n  add\n  tag_24\n  swap2\n  swap1\n  tag_13\n  jump\t// in\ntag_24:\n  mload(0x40)\n  dup1\n  swap2\n  sub\n  swap1\n  revert\n    /* \"@openzeppelin/contracts/token/ERC20/ERC20.sol\":7787:7878  if (account == address(0)) {... */\ntag_23:\n    /* \"@openzeppelin/contracts/token/ERC20/ERC20.sol\":7887:7922  _update(address(0), account, value) */\n  tag_25\n    /* \"@openzeppelin/contracts/token/ERC20/ERC20.sol\":7903:7904  0 */\n  0x00\n    /* \"@openzeppelin/contracts/token/ERC20/ERC20.sol\":7907:7914  account */\n  dup4\n    /* \"@openzeppelin/contracts/token/ERC20/ERC20.sol\":7916:7921  value */\n  dup4\n    /* \"@openzeppelin/contracts/token/ERC20/ERC20.sol\":7887:7894  _update */\n  shl(0x20, tag_26)\n    /* \"@openzeppelin/contracts/token/ERC20/ERC20.sol\":7887:7922  _update(address(0), account, value) */\n  0x20\n  shr\n  jump\t// in\ntag_25:\n    /* \"@openzeppelin/contracts/token/ERC20/ERC20.sol\":7721:7929  function _mint(address account, uint256 value) internal {... */\n  pop\n  pop\n  jump\t// out\n    /* \"@openzeppelin/contracts/token/ERC20/ERC20.sol\":6271:7378  function _update(address from, address to, uint256 value) internal virtual {... */\ntag_26:\n    /* \"@openzeppelin/contracts/token/ERC20/ERC20.sol\":6376:6377  0 */\n  0x00\n    /* \"@openzeppelin/contracts/token/ERC20/ERC20.sol\":6360:6378  from == address(0) */\n  0xffffffffffffffffffffffffffffffffffffffff\n  and\n    /* \"@openzeppelin/contracts/token/ERC20/ERC20.sol\":6360:6364  from */\n  dup4\n    /* \"@openzeppelin/contracts/token/ERC20/ERC20.sol\":6360:6378  from == address(0) */\n  0xffffffffffffffffffffffffffffffffffffffff\n  and\n  sub\n    /* \"@openzeppelin/contracts/token/ERC20/ERC20.sol\":6356:6896  if (from == address(0)) {... */\n  tag_28\n  jumpi\n    /* \"@openzeppelin/contracts/token/ERC20/ERC20.sol\":6512:6517  value */\n  dup1\n    /* \"@openzeppelin/contracts/token/ERC20/ERC20.sol\":6496:6508  _totalSupply */\n  0x02\n  0x00\n    /* \"@openzeppelin/contracts/token/ERC20/ERC20.sol\":6496:6517  _totalSupply += value */\n  dup3\n  dup3\n  sload\n  tag_29\n  swap2\n  swap1\n  tag_30\n  jump\t// in\ntag_29:\n  swap3\n  pop\n  pop\n  dup2\n  swap1\n  sstore\n  pop\n    /* \"@openzeppelin/contracts/token/ERC20/ERC20.sol\":6356:6896  if (from == address(0)) {... */\n  jump(tag_31)\ntag_28:\n    /* \"@openzeppelin/contracts/token/ERC20/ERC20.sol\":6548:6567  uint256 fromBalance */\n  0x00\n    /* \"@openzeppelin/contracts/token/ERC20/ERC20.sol\":6570:6579  _balances */\n  dup1\n    /* \"@openzeppelin/contracts/token/ERC20/ERC20.sol\":6570:6585  _balances[from] */\n  0x00\n    /* \"@openzeppelin/contracts/token/ERC20/ERC20.sol\":6580:6584  from */\n  dup6\n    /* \"@openzeppelin/contracts/token/ERC20/ERC20.sol\":6570:6585  _balances[from] */\n  0xffffffffffffffffffffffffffffffffffffffff\n  and\n  0xffffffffffffffffffffffffffffffffffffffff\n  and\n  dup2\n  mstore\n  0x20\n  add\n  swap1\n  dup2\n  mstore\n  0x20\n  add\n  0x00\n  keccak256\n  sload\n    /* \"@openzeppelin/contracts/token/ERC20/ERC20.sol\":6548:6585  uint256 fromBalance = _balances[from] */\n  swap1\n  pop\n    /* \"@openzeppelin/contracts/token/ERC20/ERC20.sol\":6617:6622  value */\n  dup2\n    /* \"@openzeppelin/contracts/token/ERC20/ERC20.sol\":6603:6614  fromBalance */\n  dup2\n    /* \"@openzeppelin/contracts/token/ERC20/ERC20.sol\":6603:6622  fromBalance < value */\n  lt\n    /* \"@openzeppelin/contracts/token/ERC20/ERC20.sol\":6599:6714  if (fromBalance < value) {... */\n  iszero\n  tag_32\n  jumpi\n    /* \"@openzeppelin/contracts/token/ERC20/ERC20.sol\":6674:6678  from */\n  dup4\n    /* \"@openzeppelin/contracts/token/ERC20/ERC20.sol\":6680:6691  fromBalance */\n  dup2\n    /* \"@openzeppelin/contracts/token/ERC20/ERC20.sol\":6693:6698  value */\n  dup4\n    /* \"@openzeppelin/contracts/token/ERC20/ERC20.sol\":6649:6699  ERC20InsufficientBalance(from, fromBalance, value) */\n  mload(0x40)\n  0xe450d38c00000000000000000000000000000000000000000000000000000000\n  dup2\n  mstore\n  0x04\n  add\n  tag_33\n  swap4\n  swap3\n  swap2\n  swap1\n  tag_34\n  jump\t// in\ntag_33:\n  mload(0x40)\n  dup1\n  swap2\n  sub\n  swap1\n  revert\n    /* \"@openzeppelin/contracts/token/ERC20/ERC20.sol\":6599:6714  if (fromBalance < value) {... */\ntag_32:\n    /* \"@openzeppelin/contracts/token/ERC20/ERC20.sol\":6866:6871  value */\n  dup2\n    /* \"@openzeppelin/contracts/token/ERC20/ERC20.sol\":6852:6863  fromBalance */\n  dup2\n    /* \"@openzeppelin/contracts/token/ERC20/ERC20.sol\":6852:6871  fromBalance - value */\n  sub\n    /* \"@openzeppelin/contracts/token/ERC20/ERC20.sol\":6834:6843  _balances */\n  0x00\n    /* \"@openzeppelin/contracts/token/ERC20/ERC20.sol\":6834:6849  _balances[from] */\n  dup1\n    /* \"@openzeppelin/contracts/token/ERC20/ERC20.sol\":6844:6848  from */\n  dup7\n    /* \"@openzeppelin/contracts/token/ERC20/ERC20.sol\":6834:6849  _balances[from] */\n  0xffffffffffffffffffffffffffffffffffffffff\n  and\n  0xffffffffffffffffffffffffffffffffffffffff\n  and\n  dup2\n  mstore\n  0x20\n  add\n  swap1\n  dup2\n  mstore\n  0x20\n  add\n  0x00\n  keccak256\n    /* \"@openzeppelin/contracts/token/ERC20/ERC20.sol\":6834:6871  _balances[from] = fromBalance - value */\n  dup2\n  swap1\n  sstore\n  pop\n    /* \"@openzeppelin/contracts/token/ERC20/ERC20.sol\":6534:6896  {... */\n  pop\n    /* \"@openzeppelin/contracts/token/ERC20/ERC20.sol\":6356:6896  if (from == address(0)) {... */\ntag_31:\n    /* \"@openzeppelin/contracts/token/ERC20/ERC20.sol\":6924:6925  0 */\n  0x00\n    /* \"@openzeppelin/contracts/token/ERC20/ERC20.sol\":6910:6926  to == address(0) */\n  0xffffffffffffffffffffffffffffffffffffffff\n  and\n    /* \"@openzeppelin/contracts/token/ERC20/ERC20.sol\":6910:6912  to */\n  dup3\n    /* \"@openzeppelin/contracts/token/ERC20/ERC20.sol\":6910:6926  to == address(0) */\n  0xffffffffffffffffffffffffffffffffffffffff\n  and\n  sub\n    /* \"@openzeppelin/contracts/token/ERC20/ERC20.sol\":6906:7331  if (to == address(0)) {... */\n  tag_35\n  jumpi\n    /* \"@openzeppelin/contracts/token/ERC20/ERC20.sol\":7089:7094  value */\n  dup1\n    /* \"@openzeppelin/contracts/token/ERC20/ERC20.sol\":7073:7085  _totalSupply */\n  0x02\n  0x00\n    /* \"@openzeppelin/contracts/token/ERC20/ERC20.sol\":7073:7094  _totalSupply -= value */\n  dup3\n  dup3\n  sload\n  sub\n  swap3\n  pop\n  pop\n  dup2\n  swap1\n  sstore\n  pop\n    /* \"@openzeppelin/contracts/token/ERC20/ERC20.sol\":6906:7331  if (to == address(0)) {... */\n  jump(tag_36)\ntag_35:\n    /* \"@openzeppelin/contracts/token/ERC20/ERC20.sol\":7301:7306  value */\n  dup1\n    /* \"@openzeppelin/contracts/token/ERC20/ERC20.sol\":7284:7293  _balances */\n  0x00\n    /* \"@openzeppelin/contracts/token/ERC20/ERC20.sol\":7284:7297  _balances[to] */\n  dup1\n    /* \"@openzeppelin/contracts/token/ERC20/ERC20.sol\":7294:7296  to */\n  dup5\n    /* \"@openzeppelin/contracts/token/ERC20/ERC20.sol\":7284:7297  _balances[to] */\n  0xffffffffffffffffffffffffffffffffffffffff\n  and\n  0xffffffffffffffffffffffffffffffffffffffff\n  and\n  dup2\n  mstore\n  0x20\n  add\n  swap1\n  dup2\n  mstore\n  0x20\n  add\n  0x00\n  keccak256\n  0x00\n    /* \"@openzeppelin/contracts/token/ERC20/ERC20.sol\":7284:7306  _balances[to] += value */\n  dup3\n  dup3\n  sload\n  add\n  swap3\n  pop\n  pop\n  dup2\n  swap1\n  sstore\n  pop\n    /* \"@openzeppelin/contracts/token/ERC20/ERC20.sol\":6906:7331  if (to == address(0)) {... */\ntag_36:\n    /* \"@openzeppelin/contracts/token/ERC20/ERC20.sol\":7361:7363  to */\n  dup2\n    /* \"@openzeppelin/contracts/token/ERC20/ERC20.sol\":7346:7371  Transfer(from, to, value) */\n  0xffffffffffffffffffffffffffffffffffffffff\n  and\n    /* \"@openzeppelin/contracts/token/ERC20/ERC20.sol\":7355:7359  from */\n  dup4\n    /* \"@openzeppelin/contracts/token/ERC20/ERC20.sol\":7346:7371  Transfer(from, to, value) */\n  0xffffffffffffffffffffffffffffffffffffffff\n  and\n  0xddf252ad1be2c89b69c2b068fc378daa952ba7f163c4a11628f55a4df523b3ef\n    /* \"@openzeppelin/contracts/token/ERC20/ERC20.sol\":7365:7370  value */\n  dup4\n    /* \"@openzeppelin/contracts/token/ERC20/ERC20.sol\":7346:7371  Transfer(from, to, value) */\n  mload(0x40)\n  tag_37\n  swap2\n  swap1\n  tag_38\n  jump\t// in\ntag_37:\n  mload(0x40)\n  dup1\n  swap2\n  sub\n  swap1\n  log3\n    /* \"@openzeppelin/contracts/token/ERC20/ERC20.sol\":6271:7378  function _update(address from, address to, uint256 value) internal virtual {... */\n  pop\n  pop\n  pop\n  jump\t// out\n    /* \"#utility.yul\":7:106   */\ntag_39:\n    /* \"#utility.yul\":59:65   */\n  0x00\n    /* \"#utility.yul\":93:98   */\n  dup2\n    /* \"#utility.yul\":87:99   */\n  mload\n    /* \"#utility.yul\":77:99   */\n  swap1\n  pop\n    /* \"#utility.yul\":7:106   */\n  swap2\n  swap1\n  pop\n  jump\t// out\n    /* \"#utility.yul\":112:292   */\ntag_40:\n    /* \"#utility.yul\":160:237   */\n  0x4e487b7100000000000000000000000000000000000000000000000000000000\n    /* \"#utility.yul\":157:158   */\n  0x00\n    /* \"#utility.yul\":150:238   */\n  mstore\n    /* \"#utility.yul\":257:261   */\n  0x41\n    /* \"#utility.yul\":254:255   */\n  0x04\n    /* \"#utility.yul\":247:262   */\n  mstore\n    /* \"#utility.yul\":281:285   */\n  0x24\n    /* \"#utility.yul\":278:279   */\n  0x00\n    /* \"#utility.yul\":271:286   */\n  revert\n    /* \"#utility.yul\":298:478   */\ntag_41:\n    /* \"#utility.yul\":346:423   */\n  0x4e487b7100000000000000000000000000000000000000000000000000000000\n    /* \"#utility.yul\":343:344   */\n  0x00\n    /* \"#utility.yul\":336:424   */\n  mstore\n    /* \"#utility.yul\":443:447   */\n  0x22\n    /* \"#utility.yul\":440:441   */\n  0x04\n    /* \"#utility.yul\":433:448   */\n  mstore\n    /* \"#utility.yul\":467:471   */\n  0x24\n    /* \"#utility.yul\":464:465   */\n  0x00\n    /* \"#utility.yul\":457:472   */\n  revert\n    /* \"#utility.yul\":484:804   */\ntag_42:\n    /* \"#utility.yul\":528:534   */\n  0x00\n    /* \"#utility.yul\":565:566   */\n  0x02\n    /* \"#utility.yul\":559:563   */\n  dup3\n    /* \"#utility.yul\":555:567   */\n  div\n    /* \"#utility.yul\":545:567   */\n  swap1\n  pop\n    /* \"#utility.yul\":612:613   */\n  0x01\n    /* \"#utility.yul\":606:610   */\n  dup3\n    /* \"#utility.yul\":602:614   */\n  and\n    /* \"#utility.yul\":633:651   */\n  dup1\n    /* \"#utility.yul\":623:704   */\n  tag_69\n  jumpi\n    /* \"#utility.yul\":689:693   */\n  0x7f\n    /* \"#utility.yul\":681:687   */\n  dup3\n    /* \"#utility.yul\":677:694   */\n  and\n    /* \"#utility.yul\":667:694   */\n  swap2\n  pop\n    /* \"#utility.yul\":623:704   */\ntag_69:\n    /* \"#utility.yul\":751:753   */\n  0x20\n    /* \"#utility.yul\":743:749   */\n  dup3\n    /* \"#utility.yul\":740:754   */\n  lt\n    /* \"#utility.yul\":720:738   */\n  dup2\n    /* \"#utility.yul\":717:755   */\n  sub\n    /* \"#utility.yul\":714:798   */\n  tag_70\n  jumpi\n    /* \"#utility.yul\":770:788   */\n  tag_71\n  tag_41\n  jump\t// in\ntag_71:\n    /* \"#utility.yul\":714:798   */\ntag_70:\n    /* \"#utility.yul\":535:804   */\n  pop\n    /* \"#utility.yul\":484:804   */\n  swap2\n  swap1\n  pop\n  jump\t// out\n    /* \"#utility.yul\":810:951   */\ntag_43:\n    /* \"#utility.yul\":859:863   */\n  0x00\n    /* \"#utility.yul\":882:885   */\n  dup2\n    /* \"#utility.yul\":874:885   */\n  swap1\n  pop\n    /* \"#utility.yul\":905:908   */\n  dup2\n    /* \"#utility.yul\":902:903   */\n  0x00\n    /* \"#utility.yul\":895:909   */\n  mstore\n    /* \"#utility.yul\":939:943   */\n  0x20\n    /* \"#utility.yul\":936:937   */\n  0x00\n    /* \"#utility.yul\":926:944   */\n  keccak256\n    /* \"#utility.yul\":918:944   */\n  swap1\n  pop\n    /* \"#utility.yul\":810:951   */\n  swap2\n  swap1\n  pop\n  jump\t// out\n    /* \"#utility.yul\":957:1050   */\ntag_44:\n    /* \"#utility.yul\":994:1000   */\n  0x00\n    /* \"#utility.yul\":1041:1043   */\n  0x20\n    /* \"#utility.yul\":1036:1038   */\n  0x1f\n    /* \"#utility.yul\":1029:1034   */\n  dup4\n    /* \"#utility.yul\":1025:1039   */\n  add\n    /* \"#utility.yul\":1021:1044   */\n  div\n    /* \"#utility.yul\":1011:1044   */\n  swap1\n  pop\n    /* \"#utility.yul\":957:1050   */\n  swap2\n  swap1\n  pop\n  jump\t// out\n    /* \"#utility.yul\":1056:1163   */\ntag_45:\n    /* \"#utility.yul\":1100:1108   */\n  0x00\n    /* \"#utility.yul\":1150:1155   */\n  dup3\n    /* \"#utility.yul\":1144:1148   */\n  dup3\n    /* \"#utility.yul\":1140:1156   */\n  shl\n    /* \"#utility.yul\":1119:1156   */\n  swap1\n  pop\n    /* \"#utility.yul\":1056:1163   */\n  swap3\n  swap2\n  pop\n  pop\n  jump\t// out\n    /* \"#utility.yul\":1169:1562   */\ntag_46:\n    /* \"#utility.yul\":1238:1244   */\n  0x00\n    /* \"#utility.yul\":1288:1289   */\n  0x08\n    /* \"#utility.yul\":1276:1286   */\n  dup4\n    /* \"#utility.yul\":1272:1290   */\n  mul\n    /* \"#utility.yul\":1311:1408   */\n  tag_76\n    /* \"#utility.yul\":1341:1407   */\n  0xffffffffffffffffffffffffffffffffffffffffffffffffffffffffffffffff\n    /* \"#utility.yul\":1330:1339   */\n  dup3\n    /* \"#utility.yul\":1311:1408   */\n  tag_45\n  jump\t// in\ntag_76:\n    /* \"#utility.yul\":1429:1468   */\n  tag_77\n    /* \"#utility.yul\":1459:1467   */\n  dup7\n    /* \"#utility.yul\":1448:1457   */\n  dup4\n    /* \"#utility.yul\":1429:1468   */\n  tag_45\n  jump\t// in\ntag_77:\n    /* \"#utility.yul\":1417:1468   */\n  swap6\n  pop\n    /* \"#utility.yul\":1501:1505   */\n  dup1\n    /* \"#utility.yul\":1497:1506   */\n  not\n    /* \"#utility.yul\":1490:1495   */\n  dup5\n    /* \"#utility.yul\":1486:1507   */\n  and\n    /* \"#utility.yul\":1477:1507   */\n  swap4\n  pop\n    /* \"#utility.yul\":1550:1554   */\n  dup1\n    /* \"#utility.yul\":1540:1548   */\n  dup7\n    /* \"#utility.yul\":1536:1555   */\n  and\n    /* \"#utility.yul\":1529:1534   */\n  dup5\n    /* \"#utility.yul\":1526:1556   */\n  or\n    /* \"#utility.yul\":1516:1556   */\n  swap3\n  pop\n    /* \"#utility.yul\":1245:1562   */\n  pop\n  pop\n    /* \"#utility.yul\":1169:1562   */\n  swap4\n  swap3\n  pop\n  pop\n  pop\n  jump\t// out\n    /* \"#utility.yul\":1568:1645   */\ntag_47:\n    /* \"#utility.yul\":1605:1612   */\n  0x00\n    /* \"#utility.yul\":1634:1639   */\n  dup2\n    /* \"#utility.yul\":1623:1639   */\n  swap1\n  pop\n    /* \"#utility.yul\":1568:1645   */\n  swap2\n  swap1\n  pop\n  jump\t// out\n    /* \"#utility.yul\":1651:1711   */\ntag_48:\n    /* \"#utility.yul\":1679:1682   */\n  0x00\n    /* \"#utility.yul\":1700:1705   */\n  dup2\n    /* \"#utility.yul\":1693:1705   */\n  swap1\n  pop\n    /* \"#utility.yul\":1651:1711   */\n  swap2\n  swap1\n  pop\n  jump\t// out\n    /* \"#utility.yul\":1717:1859   */\ntag_49:\n    /* \"#utility.yul\":1767:1776   */\n  0x00\n    /* \"#utility.yul\":1800:1853   */\n  tag_81\n    /* \"#utility.yul\":1818:1852   */\n  tag_82\n    /* \"#utility.yul\":1827:1851   */\n  tag_83\n    /* \"#utility.yul\":1845:1850   */\n  dup5\n    /* \"#utility.yul\":1827:1851   */\n  tag_47\n  jump\t// in\ntag_83:\n    /* \"#utility.yul\":1818:1852   */\n  tag_48\n  jump\t// in\ntag_82:\n    /* \"#utility.yul\":1800:1853   */\n  tag_47\n  jump\t// in\ntag_81:\n    /* \"#utility.yul\":1787:1853   */\n  swap1\n  pop\n    /* \"#utility.yul\":1717:1859   */\n  swap2\n  swap1\n  pop\n  jump\t// out\n    /* \"#utility.yul\":1865:1940   */\ntag_50:\n    /* \"#utility.yul\":1908:1911   */\n  0x00\n    /* \"#utility.yul\":1929:1934   */\n  dup2\n    /* \"#utility.yul\":1922:1934   */\n  swap1\n  pop\n    /* \"#utility.yul\":1865:1940   */\n  swap2\n  swap1\n  pop\n  jump\t// out\n    /* \"#utility.yul\":1946:2215   */\ntag_51:\n    /* \"#utility.yul\":2056:2095   */\n  tag_86\n    /* \"#utility.yul\":2087:2094   */\n  dup4\n    /* \"#utility.yul\":2056:2095   */\n  tag_49\n  jump\t// in\ntag_86:\n    /* \"#utility.yul\":2117:2208   */\n  tag_87\n    /* \"#utility.yul\":2166:2207   */\n  tag_88\n    /* \"#utility.yul\":2190:2206   */\n  dup3\n    /* \"#utility.yul\":2166:2207   */\n  tag_50\n  jump\t// in\ntag_88:\n    /* \"#utility.yul\":2158:2164   */\n  dup5\n    /* \"#utility.yul\":2151:2155   */\n  dup5\n    /* \"#utility.yul\":2145:2156   */\n  sload\n    /* \"#utility.yul\":2117:2208   */\n  tag_46\n  jump\t// in\ntag_87:\n    /* \"#utility.yul\":2111:2115   */\n  dup3\n    /* \"#utility.yul\":2104:2209   */\n  sstore\n    /* \"#utility.yul\":2022:2215   */\n  pop\n    /* \"#utility.yul\":1946:2215   */\n  pop\n  pop\n  pop\n  jump\t// out\n    /* \"#utility.yul\":2221:2294   */\ntag_52:\n    /* \"#utility.yul\":2266:2269   */\n  0x00\n    /* \"#utility.yul\":2221:2294   */\n  swap1\n  jump\t// out\n    /* \"#utility.yul\":2300:2489   */\ntag_53:\n    /* \"#utility.yul\":2377:2409   */\n  tag_91\n  tag_52\n  jump\t// in\ntag_91:\n    /* \"#utility.yul\":2418:2483   */\n  tag_92\n    /* \"#utility.yul\":2476:2482   */\n  dup2\n    /* \"#utility.yul\":2468:2474   */\n  dup5\n    /* \"#utility.yul\":2462:2466   */\n  dup5\n    /* \"#utility.yul\":2418:2483   */\n  tag_51\n  jump\t// in\ntag_92:\n    /* \"#utility.yul\":2353:2489   */\n  pop\n    /* \"#utility.yul\":2300:2489   */\n  pop\n  pop\n  jump\t// out\n    /* \"#utility.yul\":2495:2681   */\ntag_54:\n    /* \"#utility.yul\":2555:2675   */\ntag_94:\n    /* \"#utility.yul\":2572:2575   */\n  dup2\n    /* \"#utility.yul\":2565:2570   */\n  dup2\n    /* \"#utility.yul\":2562:2576   */\n  lt\n    /* \"#utility.yul\":2555:2675   */\n  iszero\n  tag_96\n  jumpi\n    /* \"#utility.yul\":2626:2665   */\n  tag_97\n    /* \"#utility.yul\":2663:2664   */\n  0x00\n    /* \"#utility.yul\":2656:2661   */\n  dup3\n    /* \"#utility.yul\":2626:2665   */\n  tag_53\n  jump\t// in\ntag_97:\n    /* \"#utility.yul\":2599:2600   */\n  0x01\n    /* \"#utility.yul\":2592:2597   */\n  dup2\n    /* \"#utility.yul\":2588:2601   */\n  add\n    /* \"#utility.yul\":2579:2601   */\n  swap1\n  pop\n    /* \"#utility.yul\":2555:2675   */\n  jump(tag_94)\ntag_96:\n    /* \"#utility.yul\":2495:2681   */\n  pop\n  pop\n  jump\t// out\n    /* \"#utility.yul\":2687:3230   */\ntag_55:\n    /* \"#utility.yul\":2788:2790   */\n  0x1f\n    /* \"#utility.yul\":2783:2786   */\n  dup3\n    /* \"#utility.yul\":2780:2791   */\n  gt\n    /* \"#utility.yul\":2777:3223   */\n  iszero\n  tag_99\n  jumpi\n    /* \"#utility.yul\":2822:2860   */\n  tag_100\n    /* \"#utility.yul\":2854:2859   */\n  dup2\n    /* \"#utility.yul\":2822:2860   */\n  tag_43\n  jump\t// in\ntag_100:\n    /* \"#utility.yul\":2906:2935   */\n  tag_101\n    /* \"#utility.yul\":2924:2934   */\n  dup5\n    /* \"#utility.yul\":2906:2935   */\n  tag_44\n  jump\t// in\ntag_101:\n    /* \"#utility.yul\":2896:2904   */\n  dup2\n    /* \"#utility.yul\":2892:2936   */\n  add\n    /* \"#utility.yul\":3089:3091   */\n  0x20\n    /* \"#utility.yul\":3077:3087   */\n  dup6\n    /* \"#utility.yul\":3074:3092   */\n  lt\n    /* \"#utility.yul\":3071:3120   */\n  iszero\n  tag_102\n  jumpi\n    /* \"#utility.yul\":3110:3118   */\n  dup2\n    /* \"#utility.yul\":3095:3118   */\n  swap1\n  pop\n    /* \"#utility.yul\":3071:3120   */\ntag_102:\n    /* \"#utility.yul\":3133:3213   */\n  tag_103\n    /* \"#utility.yul\":3189:3211   */\n  tag_104\n    /* \"#utility.yul\":3207:3210   */\n  dup6\n    /* \"#utility.yul\":3189:3211   */\n  tag_44\n  jump\t// in\ntag_104:\n    /* \"#utility.yul\":3179:3187   */\n  dup4\n    /* \"#utility.yul\":3175:3212   */\n  add\n    /* \"#utility.yul\":3162:3173   */\n  dup3\n    /* \"#utility.yul\":3133:3213   */\n  tag_54\n  jump\t// in\ntag_103:\n    /* \"#utility.yul\":2792:3223   */\n  pop\n  pop\n    /* \"#utility.yul\":2777:3223   */\ntag_99:\n    /* \"#utility.yul\":2687:3230   */\n  pop\n  pop\n  pop\n  jump\t// out\n    /* \"#utility.yul\":3236:3353   */\ntag_56:\n    /* \"#utility.yul\":3290:3298   */\n  0x00\n    /* \"#utility.yul\":3340:3345   */\n  dup3\n    /* \"#utility.yul\":3334:3338   */\n  dup3\n    /* \"#utility.yul\":3330:3346   */\n  shr\n    /* \"#utility.yul\":3309:3346   */\n  swap1\n  pop\n    /* \"#utility.yul\":3236:3353   */\n  swap3\n  swap2\n  pop\n  pop\n  jump\t// out\n    /* \"#utility.yul\":3359:3528   */\ntag_57:\n    /* \"#utility.yul\":3403:3409   */\n  0x00\n    /* \"#utility.yul\":3436:3487   */\n  tag_107\n    /* \"#utility.yul\":3484:3485   */\n  0x00\n    /* \"#utility.yul\":3480:3486   */\n  not\n    /* \"#utility.yul\":3472:3477   */\n  dup5\n    /* \"#utility.yul\":3469:3470   */\n  0x08\n    /* \"#utility.yul\":3465:3478   */\n  mul\n    /* \"#utility.yul\":3436:3487   */\n  tag_56\n  jump\t// in\ntag_107:\n    /* \"#utility.yul\":3432:3488   */\n  not\n    /* \"#utility.yul\":3517:3521   */\n  dup1\n    /* \"#utility.yul\":3511:3515   */\n  dup4\n    /* \"#utility.yul\":3507:3522   */\n  and\n    /* \"#utility.yul\":3497:3522   */\n  swap2\n  pop\n    /* \"#utility.yul\":3410:3528   */\n  pop\n    /* \"#utility.yul\":3359:3528   */\n  swap3\n  swap2\n  pop\n  pop\n  jump\t// out\n    /* \"#utility.yul\":3533:3828   */\ntag_58:\n    /* \"#utility.yul\":3609:3613   */\n  0x00\n    /* \"#utility.yul\":3755:3784   */\n  tag_109\n    /* \"#utility.yul\":3780:3783   */\n  dup4\n    /* \"#utility.yul\":3774:3778   */\n  dup4\n    /* \"#utility.yul\":3755:3784   */\n  tag_57\n  jump\t// in\ntag_109:\n    /* \"#utility.yul\":3747:3784   */\n  swap2\n  pop\n    /* \"#utility.yul\":3817:3820   */\n  dup3\n    /* \"#utility.yul\":3814:3815   */\n  0x02\n    /* \"#utility.yul\":3810:3821   */\n  mul\n    /* \"#utility.yul\":3804:3808   */\n  dup3\n    /* \"#utility.yul\":3801:3822   */\n  or\n    /* \"#utility.yul\":3793:3822   */\n  swap1\n  pop\n    /* \"#utility.yul\":3533:3828   */\n  swap3\n  swap2\n  pop\n  pop\n  jump\t// out\n    /* \"#utility.yul\":3833:5228   */\ntag_8:\n    /* \"#utility.yul\":3950:3987   */\n  tag_111\n    /* \"#utility.yul\":3983:3986   */\n  dup3\n    /* \"#utility.yul\":3950:3987   */\n  tag_39\n  jump\t// in\ntag_111:\n    /* \"#utility.yul\":4052:4070   */\n  0xffffffffffffffff\n    /* \"#utility.yul\":4044:4050   */\n  dup2\n    /* \"#utility.yul\":4041:4071   */\n  gt\n    /* \"#utility.yul\":4038:4094   */\n  iszero\n  tag_112\n  jumpi\n    /* \"#utility.yul\":4074:4092   */\n  tag_113\n  tag_40\n  jump\t// in\ntag_113:\n    /* \"#utility.yul\":4038:4094   */\ntag_112:\n    /* \"#utility.yul\":4118:4156   */\n  tag_114\n    /* \"#utility.yul\":4150:4154   */\n  dup3\n    /* \"#utility.yul\":4144:4155   */\n  sload\n    /* \"#utility.yul\":4118:4156   */\n  tag_42\n  jump\t// in\ntag_114:\n    /* \"#utility.yul\":4203:4270   */\n  tag_115\n    /* \"#utility.yul\":4263:4269   */\n  dup3\n    /* \"#utility.yul\":4255:4261   */\n  dup3\n    /* \"#utility.yul\":4249:4253   */\n  dup6\n    /* \"#utility.yul\":4203:4270   */\n  tag_55\n  jump\t// in\ntag_115:\n    /* \"#utility.yul\":4297:4298   */\n  0x00\n    /* \"#utility.yul\":4321:4325   */\n  0x20\n    /* \"#utility.yul\":4308:4325   */\n  swap1\n  pop\n    /* \"#utility.yul\":4353:4355   */\n  0x1f\n    /* \"#utility.yul\":4345:4351   */\n  dup4\n    /* \"#utility.yul\":4342:4356   */\n  gt\n    /* \"#utility.yul\":4370:4371   */\n  0x01\n    /* \"#utility.yul\":4365:4983   */\n  dup2\n  eq\n  tag_117\n  jumpi\n    /* \"#utility.yul\":5027:5028   */\n  0x00\n    /* \"#utility.yul\":5044:5050   */\n  dup5\n    /* \"#utility.yul\":5041:5118   */\n  iszero\n  tag_118\n  jumpi\n    /* \"#utility.yul\":5093:5102   */\n  dup3\n    /* \"#utility.yul\":5088:5091   */\n  dup8\n    /* \"#utility.yul\":5084:5103   */\n  add\n    /* \"#utility.yul\":5078:5104   */\n  mload\n    /* \"#utility.yul\":5069:5104   */\n  swap1\n  pop\n    /* \"#utility.yul\":5041:5118   */\ntag_118:\n    /* \"#utility.yul\":5144:5211   */\n  tag_119\n    /* \"#utility.yul\":5204:5210   */\n  dup6\n    /* \"#utility.yul\":5197:5202   */\n  dup3\n    /* \"#utility.yul\":5144:5211   */\n  tag_58\n  jump\t// in\ntag_119:\n    /* \"#utility.yul\":5138:5142   */\n  dup7\n    /* \"#utility.yul\":5131:5212   */\n  sstore\n    /* \"#utility.yul\":5000:5222   */\n  pop\n    /* \"#utility.yul\":4335:5222   */\n  jump(tag_116)\n    /* \"#utility.yul\":4365:4983   */\ntag_117:\n    /* \"#utility.yul\":4417:4421   */\n  0x1f\n    /* \"#utility.yul\":4413:4422   */\n  not\n    /* \"#utility.yul\":4405:4411   */\n  dup5\n    /* \"#utility.yul\":4401:4423   */\n  and\n    /* \"#utility.yul\":4451:4488   */\n  tag_120\n    /* \"#utility.yul\":4483:4487   */\n  dup7\n    /* \"#utility.yul\":4451:4488   */\n  tag_43\n  jump\t// in\ntag_120:\n    /* \"#utility.yul\":4510:4511   */\n  0x00\n    /* \"#utility.yul\":4524:4732   */\ntag_121:\n    /* \"#utility.yul\":4538:4545   */\n  dup3\n    /* \"#utility.yul\":4535:4536   */\n  dup2\n    /* \"#utility.yul\":4532:4546   */\n  lt\n    /* \"#utility.yul\":4524:4732   */\n  iszero\n  tag_123\n  jumpi\n    /* \"#utility.yul\":4617:4626   */\n  dup5\n    /* \"#utility.yul\":4612:4615   */\n  dup10\n    /* \"#utility.yul\":4608:4627   */\n  add\n    /* \"#utility.yul\":4602:4628   */\n  mload\n    /* \"#utility.yul\":4594:4600   */\n  dup3\n    /* \"#utility.yul\":4587:4629   */\n  sstore\n    /* \"#utility.yul\":4668:4669   */\n  0x01\n    /* \"#utility.yul\":4660:4666   */\n  dup3\n    /* \"#utility.yul\":4656:4670   */\n  add\n    /* \"#utility.yul\":4646:4670   */\n  swap2\n  pop\n    /* \"#utility.yul\":4715:4717   */\n  0x20\n    /* \"#utility.yul\":4704:4713   */\n  dup6\n    /* \"#utility.yul\":4700:4718   */\n  add\n    /* \"#utility.yul\":4687:4718   */\n  swap5\n  pop\n    /* \"#utility.yul\":4561:4565   */\n  0x20\n    /* \"#utility.yul\":4558:4559   */\n  dup2\n    /* \"#utility.yul\":4554:4566   */\n  add\n    /* \"#utility.yul\":4549:4566   */\n  swap1\n  pop\n    /* \"#utility.yul\":4524:4732   */\n  jump(tag_121)\ntag_123:\n    /* \"#utility.yul\":4760:4766   */\n  dup7\n    /* \"#utility.yul\":4751:4758   */\n  dup4\n    /* \"#utility.yul\":4748:4767   */\n  lt\n    /* \"#utility.yul\":4745:4924   */\n  iszero\n  tag_124\n  jumpi\n    /* \"#utility.yul\":4818:4827   */\n  dup5\n    /* \"#utility.yul\":4813:4816   */\n  dup10\n    /* \"#utility.yul\":4809:4828   */\n  add\n    /* \"#utility.yul\":4803:4829   */\n  mload\n    /* \"#utility.yul\":4861:4909   */\n  tag_125\n    /* \"#utility.yul\":4903:4907   */\n  0x1f\n    /* \"#utility.yul\":4895:4901   */\n  dup10\n    /* \"#utility.yul\":4891:4908   */\n  and\n    /* \"#utility.yul\":4880:4889   */\n  dup3\n    /* \"#utility.yul\":4861:4909   */\n  tag_57\n  jump\t// in\ntag_125:\n    /* \"#utility.yul\":4853:4859   */\n  dup4\n    /* \"#utility.yul\":4846:4910   */\n  sstore\n    /* \"#utility.yul\":4768:4924   */\n  pop\n    /* \"#utility.yul\":4745:4924   */\ntag_124:\n    /* \"#utility.yul\":4970:4971   */\n  0x01\n    /* \"#utility.yul\":4966:4967   */\n  0x02\n    /* \"#utility.yul\":4958:4964   */\n  dup9\n    /* \"#utility.yul\":4954:4968   */\n  mul\n    /* \"#utility.yul\":4950:4972   */\n  add\n    /* \"#utility.yul\":4944:4948   */\n  dup9\n    /* \"#utility.yul\":4937:4973   */\n  sstore\n    /* \"#utility.yul\":4372:4983   */\n  pop\n  pop\n  pop\n    /* \"#utility.yul\":4335:5222   */\ntag_116:\n  pop\n    /* \"#utility.yul\":3925:5228   */\n  pop\n  pop\n  pop\n    /* \"#utility.yul\":3833:5228   */\n  pop\n  pop\n  jump\t// out\n    /* \"#utility.yul\":5234:5360   */\ntag_59:\n    /* \"#utility.yul\":5271:5278   */\n  0x00\n    /* \"#utility.yul\":5311:5353   */\n  0xffffffffffffffffffffffffffffffffffffffff\n    /* \"#utility.yul\":5304:5309   */\n  dup3\n    /* \"#utility.yul\":5300:5354   */\n  and\n    /* \"#utility.yul\":5289:5354   */\n  swap1\n  pop\n    /* \"#utility.yul\":5234:5360   */\n  swap2\n  swap1\n  pop\n  jump\t// out\n    /* \"#utility.yul\":5366:5462   */\ntag_60:\n    /* \"#utility.yul\":5403:5410   */\n  0x00\n    /* \"#utility.yul\":5432:5456   */\n  tag_128\n    /* \"#utility.yul\":5450:5455   */\n  dup3\n    /* \"#utility.yul\":5432:5456   */\n  tag_59\n  jump\t// in\ntag_128:\n    /* \"#utility.yul\":5421:5456   */\n  swap1\n  pop\n    /* \"#utility.yul\":5366:5462   */\n  swap2\n  swap1\n  pop\n  jump\t// out\n    /* \"#utility.yul\":5468:5586   */\ntag_61:\n    /* \"#utility.yul\":5555:5579   */\n  tag_130\n    /* \"#utility.yul\":5573:5578   */\n  dup2\n    /* \"#utility.yul\":5555:5579   */\n  tag_60\n  jump\t// in\ntag_130:\n    /* \"#utility.yul\":5550:5553   */\n  dup3\n    /* \"#utility.yul\":5543:5580   */\n  mstore\n    /* \"#utility.yul\":5468:5586   */\n  pop\n  pop\n  jump\t// out\n    /* \"#utility.yul\":5592:5814   */\ntag_13:\n    /* \"#utility.yul\":5685:5689   */\n  0x00\n    /* \"#utility.yul\":5723:5725   */\n  0x20\n    /* \"#utility.yul\":5712:5721   */\n  dup3\n    /* \"#utility.yul\":5708:5726   */\n  add\n    /* \"#utility.yul\":5700:5726   */\n  swap1\n  pop\n    /* \"#utility.yul\":5736:5807   */\n  tag_132\n    /* \"#utility.yul\":5804:5805   */\n  0x00\n    /* \"#utility.yul\":5793:5802   */\n  dup4\n    /* \"#utility.yul\":5789:5806   */\n  add\n    /* \"#utility.yul\":5780:5786   */\n  dup5\n    /* \"#utility.yul\":5736:5807   */\n  tag_61\n  jump\t// in\ntag_132:\n    /* \"#utility.yul\":5592:5814   */\n  swap3\n  swap2\n  pop\n  pop\n  jump\t// out\n    /* \"#utility.yul\":5820:6000   */\ntag_62:\n    /* \"#utility.yul\":5868:5945   */\n  0x4e487b7100000000000000000000000000000000000000000000000000000000\n    /* \"#utility.yul\":5865:5866   */\n  0x00\n    /* \"#utility.yul\":5858:5946   */\n  mstore\n    /* \"#utility.yul\":5965:5969   */\n  0x11\n    /* \"#utility.yul\":5962:5963   */\n  0x04\n    /* \"#utility.yul\":5955:5970   */\n  mstore\n    /* \"#utility.yul\":5989:5993   */\n  0x24\n    /* \"#utility.yul\":5986:5987   */\n  0x00\n    /* \"#utility.yul\":5979:5994   */\n  revert\n    /* \"#utility.yul\":6006:6197   */\ntag_30:\n    /* \"#utility.yul\":6046:6049   */\n  0x00\n    /* \"#utility.yul\":6065:6085   */\n  tag_135\n    /* \"#utility.yul\":6083:6084   */\n  dup3\n    /* \"#utility.yul\":6065:6085   */\n  tag_47\n  jump\t// in\ntag_135:\n    /* \"#utility.yul\":6060:6085   */\n  swap2\n  pop\n    /* \"#utility.yul\":6099:6119   */\n  tag_136\n    /* \"#utility.yul\":6117:6118   */\n  dup4\n    /* \"#utility.yul\":6099:6119   */\n  tag_47\n  jump\t// in\ntag_136:\n    /* \"#utility.yul\":6094:6119   */\n  swap3\n  pop\n    /* \"#utility.yul\":6142:6143   */\n  dup3\n    /* \"#utility.yul\":6139:6140   */\n  dup3\n    /* \"#utility.yul\":6135:6144   */\n  add\n    /* \"#utility.yul\":6128:6144   */\n  swap1\n  pop\n    /* \"#utility.yul\":6163:6166   */\n  dup1\n    /* \"#utility.yul\":6160:6161   */\n  dup3\n    /* \"#utility.yul\":6157:6167   */\n  gt\n    /* \"#utility.yul\":6154:6190   */\n  iszero\n  tag_137\n  jumpi\n    /* \"#utility.yul\":6170:6188   */\n  tag_138\n  tag_62\n  jump\t// in\ntag_138:\n    /* \"#utility.yul\":6154:6190   */\ntag_137:\n    /* \"#utility.yul\":6006:6197   */\n  swap3\n  swap2\n  pop\n  pop\n  jump\t// out\n    /* \"#utility.yul\":6203:6321   */\ntag_63:\n    /* \"#utility.yul\":6290:6314   */\n  tag_140\n    /* \"#utility.yul\":6308:6313   */\n  dup2\n    /* \"#utility.yul\":6290:6314   */\n  tag_47\n  jump\t// in\ntag_140:\n    /* \"#utility.yul\":6285:6288   */\n  dup3\n    /* \"#utility.yul\":6278:6315   */\n  mstore\n    /* \"#utility.yul\":6203:6321   */\n  pop\n  pop\n  jump\t// out\n    /* \"#utility.yul\":6327:6769   */\ntag_34:\n    /* \"#utility.yul\":6476:6480   */\n  0x00\n    /* \"#utility.yul\":6514:6516   */\n  0x60\n    /* \"#utility.yul\":6503:6512   */\n  dup3\n    /* \"#utility.yul\":6499:6517   */\n  add\n    /* \"#utility.yul\":6491:6517   */\n  swap1\n  pop\n    /* \"#utility.yul\":6527:6598   */\n  tag_142\n    /* \"#utility.yul\":6595:6596   */\n  0x00\n    /* \"#utility.yul\":6584:6593   */\n  dup4\n    /* \"#utility.yul\":6580:6597   */\n  add\n    /* \"#utility.yul\":6571:6577   */\n  dup7\n    /* \"#utility.yul\":6527:6598   */\n  tag_61\n  jump\t// in\ntag_142:\n    /* \"#utility.yul\":6608:6680   */\n  tag_143\n    /* \"#utility.yul\":6676:6678   */\n  0x20\n    /* \"#utility.yul\":6665:6674   */\n  dup4\n    /* \"#utility.yul\":6661:6679   */\n  add\n    /* \"#utility.yul\":6652:6658   */\n  dup6\n    /* \"#utility.yul\":6608:6680   */\n  tag_63\n  jump\t// in\ntag_143:\n    /* \"#utility.yul\":6690:6762   */\n  tag_144\n    /* \"#utility.yul\":6758:6760   */\n  0x40\n    /* \"#utility.yul\":6747:6756   */\n  dup4\n    /* \"#utility.yul\":6743:6761   */\n  add\n    /* \"#utility.yul\":6734:6740   */\n  dup5\n    /* \"#utility.yul\":6690:6762   */\n  tag_63\n  jump\t// in\ntag_144:\n    /* \"#utility.yul\":6327:6769   */\n  swap5\n  swap4\n  pop\n  pop\n  pop\n  pop\n  jump\t// out\n    /* \"#utility.yul\":6775:6997   */\ntag_38:\n    /* \"#utility.yul\":6868:6872   */\n  0x00\n    /* \"#utility.yul\":6906:6908   */\n  0x20\n    /* \"#utility.yul\":6895:6904   */\n  dup3\n    /* \"#utility.yul\":6891:6909   */\n  add\n    /* \"#utility.yul\":6883:6909   */\n  swap1\n  pop\n    /* \"#utility.yul\":6919:6990   */\n  tag_146\n    /* \"#utility.yul\":6987:6988   */\n  0x00\n    /* \"#utility.yul\":6976:6985   */\n  dup4\n    /* \"#utility.yul\":6972:6989   */\n  add\n    /* \"#utility.yul\":6963:6969   */\n  dup5\n    /* \"#utility.yul\":6919:6990   */\n  tag_63\n  jump\t// in\ntag_146:\n    /* \"#utility.yul\":6775:6997   */\n  swap3\n  swap2\n  pop\n  pop\n  jump\t// out\n    /* \"contracts/Mesa_Votantes.sol\":147:4274  contract Mesa_Votantes is ERC20, Candidatos {... */\ntag_20:\n  dataSize(sub_0)\n  dup1\n  dataOffset(sub_0)\n  0x00\n  codecopy\n  0x00\n  return\nstop\n\nsub_0: assembly {\n        /* \"contracts/Mesa_Votantes.sol\":147:4274  contract Mesa_Votantes is ERC20, Candidatos {... */\n      mstore(0x40, 0x80)\n      jumpi(tag_1, lt(calldatasize, 0x04))\n      shr(0xe0, calldataload(0x00))\n      dup1\n      0x8da5cb5b\n      gt\n      tag_27\n      jumpi\n      dup1\n      0xb384abef\n      gt\n      tag_28\n      jumpi\n      dup1\n      0xdeebeac9\n      gt\n      tag_29\n      jumpi\n      dup1\n      0xdeebeac9\n      eq\n      tag_23\n      jumpi\n      dup1\n      0xebc34d24\n      eq\n      tag_24\n      jumpi\n      dup1\n      0xf2fde38b\n      eq\n      tag_25\n      jumpi\n      dup1\n      0xfac07d2a\n      eq\n      tag_26\n      jumpi\n      jump(tag_1)\n    tag_29:\n      dup1\n      0xb384abef\n      eq\n      tag_20\n      jumpi\n      dup1\n      0xdd62ed3e\n      eq\n      tag_21\n      jumpi\n      dup1\n      0xdd670ed7\n      eq\n      tag_22\n      jumpi\n      jump(tag_1)\n    tag_28:\n      dup1\n      0x8da5cb5b\n      eq\n      tag_14\n      jumpi\n      dup1\n      0x8f023f85\n      eq\n      tag_15\n      jumpi\n      dup1\n      0x95d89b41\n      eq\n      tag_16\n      jumpi\n      dup1\n      0xa0712d68\n      eq\n      tag_17\n      jumpi\n      dup1\n      0xa0bdafda\n      eq\n      tag_18\n      jumpi\n      dup1\n      0xa9059cbb\n      eq\n      tag_19\n      jumpi\n      jump(tag_1)\n    tag_27:\n      dup1\n      0x32bf68d4\n      gt\n      tag_30\n      jumpi\n      dup1\n      0x32bf68d4\n      eq\n      tag_8\n      jumpi\n      dup1\n      0x503c560f\n      eq\n      tag_9\n      jumpi\n      dup1\n      0x5b94ea10\n      eq\n      tag_10\n      jumpi\n      dup1\n      0x70a08231\n      eq\n      tag_11\n      jumpi\n      dup1\n      0x715018a6\n      eq\n      tag_12\n      jumpi\n      dup1\n      0x8a9ac1d2\n      eq\n      tag_13\n      jumpi\n      jump(tag_1)\n    tag_30:\n      dup1\n      0x06fdde03\n      eq\n      tag_2\n      jumpi\n      dup1\n      0x095ea7b3\n      eq\n      tag_3\n      jumpi\n      dup1\n      0x18160ddd\n      eq\n      tag_4\n      jumpi\n      dup1\n      0x198cc691\n      eq\n      tag_5\n      jumpi\n      dup1\n      0x23b872dd\n      eq\n      tag_6\n      jumpi\n      dup1\n      0x313ce567\n      eq\n      tag_7\n      jumpi\n    tag_1:\n      0x00\n      dup1\n      revert\n        /* \"@openzeppelin/contracts/token/ERC20/ERC20.sol\":2074:2163  function name() public view virtual returns (string memory) {... */\n    tag_2:\n      callvalue\n      dup1\n      iszero\n      tag_31\n      jumpi\n      0x00\n      dup1\n      revert\n    tag_31:\n      pop\n      tag_32\n      tag_33\n      jump\t// in\n    tag_32:\n      mload(0x40)\n      tag_34\n      swap2\n      swap1\n      tag_35\n      jump\t// in\n    tag_34:\n      mload(0x40)\n      dup1\n      swap2\n      sub\n      swap1\n      return\n        /* \"@openzeppelin/contracts/token/ERC20/ERC20.sol\":4293:4479  function approve(address spender, uint256 value) public virtual returns (bool) {... */\n    tag_3:\n      callvalue\n      dup1\n      iszero\n      tag_36\n      jumpi\n      0x00\n      dup1\n      revert\n    tag_36:\n      pop\n      tag_37\n      0x04\n      dup1\n      calldatasize\n      sub\n      dup2\n      add\n      swap1\n      tag_38\n      swap2\n      swap1\n      tag_39\n      jump\t// in\n    tag_38:\n      tag_40\n      jump\t// in\n    tag_37:\n      mload(0x40)\n      tag_41\n      swap2\n      swap1\n      tag_42\n      jump\t// in\n    tag_41:\n      mload(0x40)\n      dup1\n      swap2\n      sub\n      swap1\n      return\n        /* \"@openzeppelin/contracts/token/ERC20/ERC20.sol\":3144:3241  function totalSupply() public view virtual returns (uint256) {... */\n    tag_4:\n      callvalue\n      dup1\n      iszero\n      tag_43\n      jumpi\n      0x00\n      dup1\n      revert\n    tag_43:\n      pop\n      tag_44\n      tag_45\n      jump\t// in\n    tag_44:\n      mload(0x40)\n      tag_46\n      swap2\n      swap1\n      tag_47\n      jump\t// in\n    tag_46:\n      mload(0x40)\n      dup1\n      swap2\n      sub\n      swap1\n      return\n        /* \"contracts/Candidatos.sol\":948:1053  function getAllCandidatos() public view returns (Candidato[] memory) {... */\n    tag_5:\n      callvalue\n      dup1\n      iszero\n      tag_48\n      jumpi\n      0x00\n      dup1\n      revert\n    tag_48:\n      pop\n      tag_49\n      tag_50\n      jump\t// in\n    tag_49:\n      mload(0x40)\n      tag_51\n      swap2\n      swap1\n      tag_52\n      jump\t// in\n    tag_51:\n      mload(0x40)\n      dup1\n      swap2\n      sub\n      swap1\n      return\n        /* \"@openzeppelin/contracts/token/ERC20/ERC20.sol\":5039:5283  function transferFrom(address from, address to, uint256 value) public virtual returns (bool) {... */\n    tag_6:\n      callvalue\n      dup1\n      iszero\n      tag_53\n      jumpi\n      0x00\n      dup1\n      revert\n    tag_53:\n      pop\n      tag_54\n      0x04\n      dup1\n      calldatasize\n      sub\n      dup2\n      add\n      swap1\n      tag_55\n      swap2\n      swap1\n      tag_56\n      jump\t// in\n    tag_55:\n      tag_57\n      jump\t// in\n    tag_54:\n      mload(0x40)\n      tag_58\n      swap2\n      swap1\n      tag_42\n      jump\t// in\n    tag_58:\n      mload(0x40)\n      dup1\n      swap2\n      sub\n      swap1\n      return\n        /* \"@openzeppelin/contracts/token/ERC20/ERC20.sol\":3002:3084  function decimals() public view virtual returns (uint8) {... */\n    tag_7:\n      callvalue\n      dup1\n      iszero\n      tag_59\n      jumpi\n      0x00\n      dup1\n      revert\n    tag_59:\n      pop\n      tag_60\n      tag_61\n      jump\t// in\n    tag_60:\n      mload(0x40)\n      tag_62\n      swap2\n      swap1\n      tag_63\n      jump\t// in\n    tag_62:\n      mload(0x40)\n      dup1\n      swap2\n      sub\n      swap1\n      return\n        /* \"contracts/Mesa_Votantes.sol\":3472:3582  function getTokenRecipients() public view returns (address[] memory) {... */\n    tag_8:\n      callvalue\n      dup1\n      iszero\n      tag_64\n      jumpi\n      0x00\n      dup1\n      revert\n    tag_64:\n      pop\n      tag_65\n      tag_66\n      jump\t// in\n    tag_65:\n      mload(0x40)\n      tag_67\n      swap2\n      swap1\n      tag_68\n      jump\t// in\n    tag_67:\n      mload(0x40)\n      dup1\n      swap2\n      sub\n      swap1\n      return\n        /* \"contracts/Candidatos.sol\":705:870  function agregarCandidato(string memory _nombre) public onlyOwner {... */\n    tag_9:\n      callvalue\n      dup1\n      iszero\n      tag_69\n      jumpi\n      0x00\n      dup1\n      revert\n    tag_69:\n      pop\n      tag_70\n      0x04\n      dup1\n      calldatasize\n      sub\n      dup2\n      add\n      swap1\n      tag_71\n      swap2\n      swap1\n      tag_72\n      jump\t// in\n    tag_71:\n      tag_73\n      jump\t// in\n    tag_70:\n      stop\n        /* \"contracts/Mesa_Votantes.sol\":526:563  mapping(uint256 => Mesa) public mesas */\n    tag_10:\n      callvalue\n      dup1\n      iszero\n      tag_74\n      jumpi\n      0x00\n      dup1\n      revert\n    tag_74:\n      pop\n      tag_75\n      0x04\n      dup1\n      calldatasize\n      sub\n      dup2\n      add\n      swap1\n      tag_76\n      swap2\n      swap1\n      tag_77\n      jump\t// in\n    tag_76:\n      tag_78\n      jump\t// in\n    tag_75:\n      mload(0x40)\n      tag_79\n      swap3\n      swap2\n      swap1\n      tag_80\n      jump\t// in\n    tag_79:\n      mload(0x40)\n      dup1\n      swap2\n      sub\n      swap1\n      return\n        /* \"@openzeppelin/contracts/token/ERC20/ERC20.sol\":3299:3415  function balanceOf(address account) public view virtual returns (uint256) {... */\n    tag_11:\n      callvalue\n      dup1\n      iszero\n      tag_81\n      jumpi\n      0x00\n      dup1\n      revert\n    tag_81:\n      pop\n      tag_82\n      0x04\n      dup1\n      calldatasize\n      sub\n      dup2\n      add\n      swap1\n      tag_83\n      swap2\n      swap1\n      tag_84\n      jump\t// in\n    tag_83:\n      tag_85\n      jump\t// in\n    tag_82:\n      mload(0x40)\n      tag_86\n      swap2\n      swap1\n      tag_47\n      jump\t// in\n    tag_86:\n      mload(0x40)\n      dup1\n      swap2\n      sub\n      swap1\n      return\n        /* \"@openzeppelin/contracts/access/Ownable.sol\":2293:2394  function renounceOwnership() public virtual onlyOwner {... */\n    tag_12:\n      callvalue\n      dup1\n      iszero\n      tag_87\n      jumpi\n      0x00\n      dup1\n      revert\n    tag_87:\n      pop\n      tag_88\n      tag_89\n      jump\t// in\n    tag_88:\n      stop\n        /* \"contracts/Mesa_Votantes.sol\":2900:3169  function cerrarMesa(uint256 _mesaIndex) public {... */\n    tag_13:\n      callvalue\n      dup1\n      iszero\n      tag_90\n      jumpi\n      0x00\n      dup1\n      revert\n    tag_90:\n      pop\n      tag_91\n      0x04\n      dup1\n      calldatasize\n      sub\n      dup2\n      add\n      swap1\n      tag_92\n      swap2\n      swap1\n      tag_77\n      jump\t// in\n    tag_92:\n      tag_93\n      jump\t// in\n    tag_91:\n      stop\n        /* \"@openzeppelin/contracts/access/Ownable.sol\":1638:1723  function owner() public view virtual returns (address) {... */\n    tag_14:\n      callvalue\n      dup1\n      iszero\n      tag_94\n      jumpi\n      0x00\n      dup1\n      revert\n    tag_94:\n      pop\n      tag_95\n      tag_96\n      jump\t// in\n    tag_95:\n      mload(0x40)\n      tag_97\n      swap2\n      swap1\n      tag_98\n      jump\t// in\n    tag_97:\n      mload(0x40)\n      dup1\n      swap2\n      sub\n      swap1\n      return\n        /* \"contracts/Candidatos.sol\":364:393  Candidato[] public candidatos */\n    tag_15:\n      callvalue\n      dup1\n      iszero\n      tag_99\n      jumpi\n      0x00\n      dup1\n      revert\n    tag_99:\n      pop\n      tag_100\n      0x04\n      dup1\n      calldatasize\n      sub\n      dup2\n      add\n      swap1\n      tag_101\n      swap2\n      swap1\n      tag_77\n      jump\t// in\n    tag_101:\n      tag_102\n      jump\t// in\n    tag_100:\n      mload(0x40)\n      tag_103\n      swap3\n      swap2\n      swap1\n      tag_104\n      jump\t// in\n    tag_103:\n      mload(0x40)\n      dup1\n      swap2\n      sub\n      swap1\n      return\n        /* \"@openzeppelin/contracts/token/ERC20/ERC20.sol\":2276:2369  function symbol() public view virtual returns (string memory) {... */\n    tag_16:\n      callvalue\n      dup1\n      iszero\n      tag_105\n      jumpi\n      0x00\n      dup1\n      revert\n    tag_105:\n      pop\n      tag_106\n      tag_107\n      jump\t// in\n    tag_106:\n      mload(0x40)\n      tag_108\n      swap2\n      swap1\n      tag_35\n      jump\t// in\n    tag_108:\n      mload(0x40)\n      dup1\n      swap2\n      sub\n      swap1\n      return\n        /* \"contracts/Mesa_Votantes.sol\":971:1071  function mint(uint256 _cantidad) public onlyOwner {... */\n    tag_17:\n      callvalue\n      dup1\n      iszero\n      tag_109\n      jumpi\n      0x00\n      dup1\n      revert\n    tag_109:\n      pop\n      tag_110\n      0x04\n      dup1\n      calldatasize\n      sub\n      dup2\n      add\n      swap1\n      tag_111\n      swap2\n      swap1\n      tag_77\n      jump\t// in\n    tag_111:\n      tag_112\n      jump\t// in\n    tag_110:\n      stop\n        /* \"contracts/Mesa_Votantes.sol\":2502:2852  function agregarMesa(string memory _nombre, address _owner) public onlyOwner {... */\n    tag_18:\n      callvalue\n      dup1\n      iszero\n      tag_113\n      jumpi\n      0x00\n      dup1\n      revert\n    tag_113:\n      pop\n      tag_114\n      0x04\n      dup1\n      calldatasize\n      sub\n      dup2\n      add\n      swap1\n      tag_115\n      swap2\n      swap1\n      tag_116\n      jump\t// in\n    tag_115:\n      tag_117\n      jump\t// in\n    tag_114:\n      stop\n        /* \"@openzeppelin/contracts/token/ERC20/ERC20.sol\":3610:3788  function transfer(address to, uint256 value) public virtual returns (bool) {... */\n    tag_19:\n      callvalue\n      dup1\n      iszero\n      tag_118\n      jumpi\n      0x00\n      dup1\n      revert\n    tag_118:\n      pop\n      tag_119\n      0x04\n      dup1\n      calldatasize\n      sub\n      dup2\n      add\n      swap1\n      tag_120\n      swap2\n      swap1\n      tag_39\n      jump\t// in\n    tag_120:\n      tag_121\n      jump\t// in\n    tag_119:\n      mload(0x40)\n      tag_122\n      swap2\n      swap1\n      tag_42\n      jump\t// in\n    tag_122:\n      mload(0x40)\n      dup1\n      swap2\n      sub\n      swap1\n      return\n        /* \"contracts/Mesa_Votantes.sol\":1663:2423  function vote(uint256 _candidatoIndex, uint256 _mesaIndex) public payable {... */\n    tag_20:\n      tag_123\n      0x04\n      dup1\n      calldatasize\n      sub\n      dup2\n      add\n      swap1\n      tag_124\n      swap2\n      swap1\n      tag_125\n      jump\t// in\n    tag_124:\n      tag_126\n      jump\t// in\n    tag_123:\n      stop\n        /* \"@openzeppelin/contracts/token/ERC20/ERC20.sol\":3846:3986  function allowance(address owner, address spender) public view virtual returns (uint256) {... */\n    tag_21:\n      callvalue\n      dup1\n      iszero\n      tag_127\n      jumpi\n      0x00\n      dup1\n      revert\n    tag_127:\n      pop\n      tag_128\n      0x04\n      dup1\n      calldatasize\n      sub\n      dup2\n      add\n      swap1\n      tag_129\n      swap2\n      swap1\n      tag_130\n      jump\t// in\n    tag_129:\n      tag_131\n      jump\t// in\n    tag_128:\n      mload(0x40)\n      tag_132\n      swap2\n      swap1\n      tag_47\n      jump\t// in\n    tag_132:\n      mload(0x40)\n      dup1\n      swap2\n      sub\n      swap1\n      return\n        /* \"contracts/Mesa_Votantes.sol\":698:721  uint256 public numMesas */\n    tag_22:\n      callvalue\n      dup1\n      iszero\n      tag_133\n      jumpi\n      0x00\n      dup1\n      revert\n    tag_133:\n      pop\n      tag_134\n      tag_135\n      jump\t// in\n    tag_134:\n      mload(0x40)\n      tag_136\n      swap2\n      swap1\n      tag_47\n      jump\t// in\n    tag_136:\n      mload(0x40)\n      dup1\n      swap2\n      sub\n      swap1\n      return\n        /* \"contracts/Mesa_Votantes.sol\":1143:1655  function transferToken(address _to) public onlyOwner returns (bool) {... */\n    tag_23:\n      callvalue\n      dup1\n      iszero\n      tag_137\n      jumpi\n      0x00\n      dup1\n      revert\n    tag_137:\n      pop\n      tag_138\n      0x04\n      dup1\n      calldatasize\n      sub\n      dup2\n      add\n      swap1\n      tag_139\n      swap2\n      swap1\n      tag_84\n      jump\t// in\n    tag_139:\n      tag_140\n      jump\t// in\n    tag_138:\n      mload(0x40)\n      tag_141\n      swap2\n      swap1\n      tag_42\n      jump\t// in\n    tag_141:\n      mload(0x40)\n      dup1\n      swap2\n      sub\n      swap1\n      return\n        /* \"contracts/Mesa_Votantes.sol\":3240:3388  function obtenerRecuentoVotos(uint256 _mesaIndex) public view returns (uint256[] memory) {... */\n    tag_24:\n      callvalue\n      dup1\n      iszero\n      tag_142\n      jumpi\n      0x00\n      dup1\n      revert\n    tag_142:\n      pop\n      tag_143\n      0x04\n      dup1\n      calldatasize\n      sub\n      dup2\n      add\n      swap1\n      tag_144\n      swap2\n      swap1\n      tag_77\n      jump\t// in\n    tag_144:\n      tag_145\n      jump\t// in\n    tag_143:\n      mload(0x40)\n      tag_146\n      swap2\n      swap1\n      tag_147\n      jump\t// in\n    tag_146:\n      mload(0x40)\n      dup1\n      swap2\n      sub\n      swap1\n      return\n        /* \"@openzeppelin/contracts/access/Ownable.sol\":2543:2758  function transferOwnership(address newOwner) public virtual onlyOwner {... */\n    tag_25:\n      callvalue\n      dup1\n      iszero\n      tag_148\n      jumpi\n      0x00\n      dup1\n      revert\n    tag_148:\n      pop\n      tag_149\n      0x04\n      dup1\n      calldatasize\n      sub\n      dup2\n      add\n      swap1\n      tag_150\n      swap2\n      swap1\n      tag_84\n      jump\t// in\n    tag_150:\n      tag_151\n      jump\t// in\n    tag_149:\n      stop\n        /* \"contracts/Mesa_Votantes.sol\":3685:4271  function contarRecuentoTotal() public view returns (string[] memory nombres, uint256[] memory votos) {... */\n    tag_26:\n      callvalue\n      dup1\n      iszero\n      tag_152\n      jumpi\n      0x00\n      dup1\n      revert\n    tag_152:\n      pop\n      tag_153\n      tag_154\n      jump\t// in\n    tag_153:\n      mload(0x40)\n      tag_155\n      swap3\n      swap2\n      swap1\n      tag_156\n      jump\t// in\n    tag_155:\n      mload(0x40)\n      dup1\n      swap2\n      sub\n      swap1\n      return\n        /* \"@openzeppelin/contracts/token/ERC20/ERC20.sol\":2074:2163  function name() public view virtual returns (string memory) {... */\n    tag_33:\n        /* \"@openzeppelin/contracts/token/ERC20/ERC20.sol\":2119:2132  string memory */\n      0x60\n        /* \"@openzeppelin/contracts/token/ERC20/ERC20.sol\":2151:2156  _name */\n      0x03\n        /* \"@openzeppelin/contracts/token/ERC20/ERC20.sol\":2144:2156  return _name */\n      dup1\n      sload\n      tag_158\n      swap1\n      tag_159\n      jump\t// in\n    tag_158:\n      dup1\n      0x1f\n      add\n      0x20\n      dup1\n      swap2\n      div\n      mul\n      0x20\n      add\n      mload(0x40)\n      swap1\n      dup2\n      add\n      0x40\n      mstore\n      dup1\n      swap3\n      swap2\n      swap1\n      dup2\n      dup2\n      mstore\n      0x20\n      add\n      dup3\n      dup1\n      sload\n      tag_160\n      swap1\n      tag_159\n      jump\t// in\n    tag_160:\n      dup1\n      iszero\n      tag_161\n      jumpi\n      dup1\n      0x1f\n      lt\n      tag_162\n      jumpi\n      0x0100\n      dup1\n      dup4\n      sload\n      div\n      mul\n      dup4\n      mstore\n      swap2\n      0x20\n      add\n      swap2\n      jump(tag_161)\n    tag_162:\n      dup3\n      add\n      swap2\n      swap1\n      0x00\n      mstore\n      keccak256(0x00, 0x20)\n      swap1\n    tag_163:\n      dup2\n      sload\n      dup2\n      mstore\n      swap1\n      0x01\n      add\n      swap1\n      0x20\n      add\n      dup1\n      dup4\n      gt\n      tag_163\n      jumpi\n      dup3\n      swap1\n      sub\n      0x1f\n      and\n      dup3\n      add\n      swap2\n    tag_161:\n      pop\n      pop\n      pop\n      pop\n      pop\n      swap1\n      pop\n        /* \"@openzeppelin/contracts/token/ERC20/ERC20.sol\":2074:2163  function name() public view virtual returns (string memory) {... */\n      swap1\n      jump\t// out\n        /* \"@openzeppelin/contracts/token/ERC20/ERC20.sol\":4293:4479  function approve(address spender, uint256 value) public virtual returns (bool) {... */\n    tag_40:\n        /* \"@openzeppelin/contracts/token/ERC20/ERC20.sol\":4366:4370  bool */\n      0x00\n        /* \"@openzeppelin/contracts/token/ERC20/ERC20.sol\":4382:4395  address owner */\n      dup1\n        /* \"@openzeppelin/contracts/token/ERC20/ERC20.sol\":4398:4410  _msgSender() */\n      tag_165\n        /* \"@openzeppelin/contracts/token/ERC20/ERC20.sol\":4398:4408  _msgSender */\n      tag_166\n        /* \"@openzeppelin/contracts/token/ERC20/ERC20.sol\":4398:4410  _msgSender() */\n      jump\t// in\n    tag_165:\n        /* \"@openzeppelin/contracts/token/ERC20/ERC20.sol\":4382:4410  address owner = _msgSender() */\n      swap1\n      pop\n        /* \"@openzeppelin/contracts/token/ERC20/ERC20.sol\":4420:4451  _approve(owner, spender, value) */\n      tag_167\n        /* \"@openzeppelin/contracts/token/ERC20/ERC20.sol\":4429:4434  owner */\n      dup2\n        /* \"@openzeppelin/contracts/token/ERC20/ERC20.sol\":4436:4443  spender */\n      dup6\n        /* \"@openzeppelin/contracts/token/ERC20/ERC20.sol\":4445:4450  value */\n      dup6\n        /* \"@openzeppelin/contracts/token/ERC20/ERC20.sol\":4420:4428  _approve */\n      tag_168\n        /* \"@openzeppelin/contracts/token/ERC20/ERC20.sol\":4420:4451  _approve(owner, spender, value) */\n      jump\t// in\n    tag_167:\n        /* \"@openzeppelin/contracts/token/ERC20/ERC20.sol\":4468:4472  true */\n      0x01\n        /* \"@openzeppelin/contracts/token/ERC20/ERC20.sol\":4461:4472  return true */\n      swap2\n      pop\n      pop\n        /* \"@openzeppelin/contracts/token/ERC20/ERC20.sol\":4293:4479  function approve(address spender, uint256 value) public virtual returns (bool) {... */\n      swap3\n      swap2\n      pop\n      pop\n      jump\t// out\n        /* \"@openzeppelin/contracts/token/ERC20/ERC20.sol\":3144:3241  function totalSupply() public view virtual returns (uint256) {... */\n    tag_45:\n        /* \"@openzeppelin/contracts/token/ERC20/ERC20.sol\":3196:3203  uint256 */\n      0x00\n        /* \"@openzeppelin/contracts/token/ERC20/ERC20.sol\":3222:3234  _totalSupply */\n      sload(0x02)\n        /* \"@openzeppelin/contracts/token/ERC20/ERC20.sol\":3215:3234  return _totalSupply */\n      swap1\n      pop\n        /* \"@openzeppelin/contracts/token/ERC20/ERC20.sol\":3144:3241  function totalSupply() public view virtual returns (uint256) {... */\n      swap1\n      jump\t// out\n        /* \"contracts/Candidatos.sol\":948:1053  function getAllCandidatos() public view returns (Candidato[] memory) {... */\n    tag_50:\n        /* \"contracts/Candidatos.sol\":997:1015  Candidato[] memory */\n      0x60\n        /* \"contracts/Candidatos.sol\":1035:1045  candidatos */\n      0x06\n        /* \"contracts/Candidatos.sol\":1028:1045  return candidatos */\n      dup1\n      sload\n      dup1\n      0x20\n      mul\n      0x20\n      add\n      mload(0x40)\n      swap1\n      dup2\n      add\n      0x40\n      mstore\n      dup1\n      swap3\n      swap2\n      swap1\n      dup2\n      dup2\n      mstore\n      0x20\n      add\n      0x00\n      swap1\n    tag_171:\n      dup3\n      dup3\n      lt\n      iszero\n      tag_172\n      jumpi\n      dup4\n      dup3\n      swap1\n      0x00\n      mstore\n      keccak256(0x00, 0x20)\n      swap1\n      0x02\n      mul\n      add\n      mload(0x40)\n      dup1\n      0x40\n      add\n      0x40\n      mstore\n      swap1\n      dup2\n      0x00\n      dup3\n      add\n      dup1\n      sload\n      tag_174\n      swap1\n      tag_159\n      jump\t// in\n    tag_174:\n      dup1\n      0x1f\n      add\n      0x20\n      dup1\n      swap2\n      div\n      mul\n      0x20\n      add\n      mload(0x40)\n      swap1\n      dup2\n      add\n      0x40\n      mstore\n      dup1\n      swap3\n      swap2\n      swap1\n      dup2\n      dup2\n      mstore\n      0x20\n      add\n      dup3\n      dup1\n      sload\n      tag_175\n      swap1\n      tag_159\n      jump\t// in\n    tag_175:\n      dup1\n      iszero\n      tag_176\n      jumpi\n      dup1\n      0x1f\n      lt\n      tag_177\n      jumpi\n      0x0100\n      dup1\n      dup4\n      sload\n      div\n      mul\n      dup4\n      mstore\n      swap2\n      0x20\n      add\n      swap2\n      jump(tag_176)\n    tag_177:\n      dup3\n      add\n      swap2\n      swap1\n      0x00\n      mstore\n      keccak256(0x00, 0x20)\n      swap1\n    tag_178:\n      dup2\n      sload\n      dup2\n      mstore\n      swap1\n      0x01\n      add\n      swap1\n      0x20\n      add\n      dup1\n      dup4\n      gt\n      tag_178\n      jumpi\n      dup3\n      swap1\n      sub\n      0x1f\n      and\n      dup3\n      add\n      swap2\n    tag_176:\n      pop\n      pop\n      pop\n      pop\n      pop\n      dup2\n      mstore\n      0x20\n      add\n      0x01\n      dup3\n      add\n      sload\n      dup2\n      mstore\n      pop\n      pop\n      dup2\n      mstore\n      0x20\n      add\n      swap1\n      0x01\n      add\n      swap1\n      jump(tag_171)\n    tag_172:\n      pop\n      pop\n      pop\n      pop\n      swap1\n      pop\n        /* \"contracts/Candidatos.sol\":948:1053  function getAllCandidatos() public view returns (Candidato[] memory) {... */\n      swap1\n      jump\t// out\n        /* \"@openzeppelin/contracts/token/ERC20/ERC20.sol\":5039:5283  function transferFrom(address from, address to, uint256 value) public virtual returns (bool) {... */\n    tag_57:\n        /* \"@openzeppelin/contracts/token/ERC20/ERC20.sol\":5126:5130  bool */\n      0x00\n        /* \"@openzeppelin/contracts/token/ERC20/ERC20.sol\":5142:5157  address spender */\n      dup1\n        /* \"@openzeppelin/contracts/token/ERC20/ERC20.sol\":5160:5172  _msgSender() */\n      tag_180\n        /* \"@openzeppelin/contracts/token/ERC20/ERC20.sol\":5160:5170  _msgSender */\n      tag_166\n        /* \"@openzeppelin/contracts/token/ERC20/ERC20.sol\":5160:5172  _msgSender() */\n      jump\t// in\n    tag_180:\n        /* \"@openzeppelin/contracts/token/ERC20/ERC20.sol\":5142:5172  address spender = _msgSender() */\n      swap1\n      pop\n        /* \"@openzeppelin/contracts/token/ERC20/ERC20.sol\":5182:5219  _spendAllowance(from, spender, value) */\n      tag_181\n        /* \"@openzeppelin/contracts/token/ERC20/ERC20.sol\":5198:5202  from */\n      dup6\n        /* \"@openzeppelin/contracts/token/ERC20/ERC20.sol\":5204:5211  spender */\n      dup3\n        /* \"@openzeppelin/contracts/token/ERC20/ERC20.sol\":5213:5218  value */\n      dup6\n        /* \"@openzeppelin/contracts/token/ERC20/ERC20.sol\":5182:5197  _spendAllowance */\n      tag_182\n        /* \"@openzeppelin/contracts/token/ERC20/ERC20.sol\":5182:5219  _spendAllowance(from, spender, value) */\n      jump\t// in\n    tag_181:\n        /* \"@openzeppelin/contracts/token/ERC20/ERC20.sol\":5229:5255  _transfer(from, to, value) */\n      tag_183\n        /* \"@openzeppelin/contracts/token/ERC20/ERC20.sol\":5239:5243  from */\n      dup6\n        /* \"@openzeppelin/contracts/token/ERC20/ERC20.sol\":5245:5247  to */\n      dup6\n        /* \"@openzeppelin/contracts/token/ERC20/ERC20.sol\":5249:5254  value */\n      dup6\n        /* \"@openzeppelin/contracts/token/ERC20/ERC20.sol\":5229:5238  _transfer */\n      tag_184\n        /* \"@openzeppelin/contracts/token/ERC20/ERC20.sol\":5229:5255  _transfer(from, to, value) */\n      jump\t// in\n    tag_183:\n        /* \"@openzeppelin/contracts/token/ERC20/ERC20.sol\":5272:5276  true */\n      0x01\n        /* \"@openzeppelin/contracts/token/ERC20/ERC20.sol\":5265:5276  return true */\n      swap2\n      pop\n      pop\n        /* \"@openzeppelin/contracts/token/ERC20/ERC20.sol\":5039:5283  function transferFrom(address from, address to, uint256 value) public virtual returns (bool) {... */\n      swap4\n      swap3\n      pop\n      pop\n      pop\n      jump\t// out\n        /* \"@openzeppelin/contracts/token/ERC20/ERC20.sol\":3002:3084  function decimals() public view virtual returns (uint8) {... */\n    tag_61:\n        /* \"@openzeppelin/contracts/token/ERC20/ERC20.sol\":3051:3056  uint8 */\n      0x00\n        /* \"@openzeppelin/contracts/token/ERC20/ERC20.sol\":3075:3077  18 */\n      0x12\n        /* \"@openzeppelin/contracts/token/ERC20/ERC20.sol\":3068:3077  return 18 */\n      swap1\n      pop\n        /* \"@openzeppelin/contracts/token/ERC20/ERC20.sol\":3002:3084  function decimals() public view virtual returns (uint8) {... */\n      swap1\n      jump\t// out\n        /* \"contracts/Mesa_Votantes.sol\":3472:3582  function getTokenRecipients() public view returns (address[] memory) {... */\n    tag_66:\n        /* \"contracts/Mesa_Votantes.sol\":3523:3539  address[] memory */\n      0x60\n        /* \"contracts/Mesa_Votantes.sol\":3559:3574  tokenRecipients */\n      0x09\n        /* \"contracts/Mesa_Votantes.sol\":3552:3574  return tokenRecipients */\n      dup1\n      sload\n      dup1\n      0x20\n      mul\n      0x20\n      add\n      mload(0x40)\n      swap1\n      dup2\n      add\n      0x40\n      mstore\n      dup1\n      swap3\n      swap2\n      swap1\n      dup2\n      dup2\n      mstore\n      0x20\n      add\n      dup3\n      dup1\n      sload\n      dup1\n      iszero\n      tag_187\n      jumpi\n      0x20\n      mul\n      dup3\n      add\n      swap2\n      swap1\n      0x00\n      mstore\n      keccak256(0x00, 0x20)\n      swap1\n    tag_188:\n      dup2\n      0x00\n      swap1\n      sload\n      swap1\n      0x0100\n      exp\n      swap1\n      div\n      0xffffffffffffffffffffffffffffffffffffffff\n      and\n      0xffffffffffffffffffffffffffffffffffffffff\n      and\n      dup2\n      mstore\n      0x20\n      add\n      swap1\n      0x01\n      add\n      swap1\n      dup1\n      dup4\n      gt\n      tag_188\n      jumpi\n    tag_187:\n      pop\n      pop\n      pop\n      pop\n      pop\n      swap1\n      pop\n        /* \"contracts/Mesa_Votantes.sol\":3472:3582  function getTokenRecipients() public view returns (address[] memory) {... */\n      swap1\n      jump\t// out\n        /* \"contracts/Candidatos.sol\":705:870  function agregarCandidato(string memory _nombre) public onlyOwner {... */\n    tag_73:\n        /* \"@openzeppelin/contracts/access/Ownable.sol\":1531:1544  _checkOwner() */\n      tag_190\n        /* \"@openzeppelin/contracts/access/Ownable.sol\":1531:1542  _checkOwner */\n      tag_191\n        /* \"@openzeppelin/contracts/access/Ownable.sol\":1531:1544  _checkOwner() */\n      jump\t// in\n    tag_190:\n        /* \"contracts/Candidatos.sol\":782:792  candidatos */\n      0x06\n        /* \"contracts/Candidatos.sol\":798:819  Candidato(_nombre, 0) */\n      mload(0x40)\n      dup1\n      0x40\n      add\n      0x40\n      mstore\n      dup1\n        /* \"contracts/Candidatos.sol\":808:815  _nombre */\n      dup4\n        /* \"contracts/Candidatos.sol\":798:819  Candidato(_nombre, 0) */\n      dup2\n      mstore\n      0x20\n      add\n        /* \"contracts/Candidatos.sol\":817:818  0 */\n      0x00\n        /* \"contracts/Candidatos.sol\":798:819  Candidato(_nombre, 0) */\n      dup2\n      mstore\n      pop\n        /* \"contracts/Candidatos.sol\":782:820  candidatos.push(Candidato(_nombre, 0)) */\n      swap1\n      dup1\n      0x01\n      dup2\n      sload\n      add\n      dup1\n      dup3\n      sstore\n      dup1\n      swap2\n      pop\n      pop\n      0x01\n      swap1\n      sub\n      swap1\n      0x00\n      mstore\n      keccak256(0x00, 0x20)\n      swap1\n      0x02\n      mul\n      add\n      0x00\n      swap1\n      swap2\n      swap1\n      swap2\n      swap1\n      swap2\n      pop\n      0x00\n      dup3\n      add\n      mload\n      dup2\n      0x00\n      add\n      swap1\n      dup2\n      tag_194\n      swap2\n      swap1\n      tag_195\n      jump\t// in\n    tag_194:\n      pop\n      0x20\n      dup3\n      add\n      mload\n      dup2\n      0x01\n      add\n      sstore\n      pop\n      pop\n        /* \"contracts/Candidatos.sol\":836:862  CandidatoAgregado(_nombre) */\n      0x566c2d39711b082cc685ade507dee6291f47044333d9aba4037034cdc3cfac9e\n        /* \"contracts/Candidatos.sol\":854:861  _nombre */\n      dup2\n        /* \"contracts/Candidatos.sol\":836:862  CandidatoAgregado(_nombre) */\n      mload(0x40)\n      tag_196\n      swap2\n      swap1\n      tag_35\n      jump\t// in\n    tag_196:\n      mload(0x40)\n      dup1\n      swap2\n      sub\n      swap1\n      log1\n        /* \"contracts/Candidatos.sol\":705:870  function agregarCandidato(string memory _nombre) public onlyOwner {... */\n      pop\n      jump\t// out\n        /* \"contracts/Mesa_Votantes.sol\":526:563  mapping(uint256 => Mesa) public mesas */\n    tag_78:\n      mstore(0x20, 0x08)\n      dup1\n      0x00\n      mstore\n      keccak256(0x00, 0x40)\n      0x00\n      swap2\n      pop\n      swap1\n      pop\n      dup1\n      0x00\n      add\n      0x00\n      swap1\n      sload\n      swap1\n      0x0100\n      exp\n      swap1\n      div\n      0xffffffffffffffffffffffffffffffffffffffff\n      and\n      swap1\n      dup1\n      0x03\n      add\n      0x00\n      swap1\n      sload\n      swap1\n      0x0100\n      exp\n      swap1\n      div\n      0xff\n      and\n      swap1\n      pop\n      dup3\n      jump\t// out\n        /* \"@openzeppelin/contracts/token/ERC20/ERC20.sol\":3299:3415  function balanceOf(address account) public view virtual returns (uint256) {... */\n    tag_85:\n        /* \"@openzeppelin/contracts/token/ERC20/ERC20.sol\":3364:3371  uint256 */\n      0x00\n        /* \"@openzeppelin/contracts/token/ERC20/ERC20.sol\":3390:3399  _balances */\n      dup1\n        /* \"@openzeppelin/contracts/token/ERC20/ERC20.sol\":3390:3408  _balances[account] */\n      0x00\n        /* \"@openzeppelin/contracts/token/ERC20/ERC20.sol\":3400:3407  account */\n      dup4\n        /* \"@openzeppelin/contracts/token/ERC20/ERC20.sol\":3390:3408  _balances[account] */\n      0xffffffffffffffffffffffffffffffffffffffff\n      and\n      0xffffffffffffffffffffffffffffffffffffffff\n      and\n      dup2\n      mstore\n      0x20\n      add\n      swap1\n      dup2\n      mstore\n      0x20\n      add\n      0x00\n      keccak256\n      sload\n        /* \"@openzeppelin/contracts/token/ERC20/ERC20.sol\":3383:3408  return _balances[account] */\n      swap1\n      pop\n        /* \"@openzeppelin/contracts/token/ERC20/ERC20.sol\":3299:3415  function balanceOf(address account) public view virtual returns (uint256) {... */\n      swap2\n      swap1\n      pop\n      jump\t// out\n        /* \"@openzeppelin/contracts/access/Ownable.sol\":2293:2394  function renounceOwnership() public virtual onlyOwner {... */\n    tag_89:\n        /* \"@openzeppelin/contracts/access/Ownable.sol\":1531:1544  _checkOwner() */\n      tag_199\n        /* \"@openzeppelin/contracts/access/Ownable.sol\":1531:1542  _checkOwner */\n      tag_191\n        /* \"@openzeppelin/contracts/access/Ownable.sol\":1531:1544  _checkOwner() */\n      jump\t// in\n    tag_199:\n        /* \"@openzeppelin/contracts/access/Ownable.sol\":2357:2387  _transferOwnership(address(0)) */\n      tag_201\n        /* \"@openzeppelin/contracts/access/Ownable.sol\":2384:2385  0 */\n      0x00\n        /* \"@openzeppelin/contracts/access/Ownable.sol\":2357:2375  _transferOwnership */\n      tag_202\n        /* \"@openzeppelin/contracts/access/Ownable.sol\":2357:2387  _transferOwnership(address(0)) */\n      jump\t// in\n    tag_201:\n        /* \"@openzeppelin/contracts/access/Ownable.sol\":2293:2394  function renounceOwnership() public virtual onlyOwner {... */\n      jump\t// out\n        /* \"contracts/Mesa_Votantes.sol\":2900:3169  function cerrarMesa(uint256 _mesaIndex) public {... */\n    tag_93:\n        /* \"contracts/Mesa_Votantes.sol\":2980:2985  mesas */\n      0x08\n        /* \"contracts/Mesa_Votantes.sol\":2980:2997  mesas[_mesaIndex] */\n      0x00\n        /* \"contracts/Mesa_Votantes.sol\":2986:2996  _mesaIndex */\n      dup3\n        /* \"contracts/Mesa_Votantes.sol\":2980:2997  mesas[_mesaIndex] */\n      dup2\n      mstore\n      0x20\n      add\n      swap1\n      dup2\n      mstore\n      0x20\n      add\n      0x00\n      keccak256\n        /* \"contracts/Mesa_Votantes.sol\":2980:3003  mesas[_mesaIndex].owner */\n      0x00\n      add\n      0x00\n      swap1\n      sload\n      swap1\n      0x0100\n      exp\n      swap1\n      div\n      0xffffffffffffffffffffffffffffffffffffffff\n      and\n        /* \"contracts/Mesa_Votantes.sol\":2966:3003  msg.sender == mesas[_mesaIndex].owner */\n      0xffffffffffffffffffffffffffffffffffffffff\n      and\n        /* \"contracts/Mesa_Votantes.sol\":2966:2976  msg.sender */\n      caller\n        /* \"contracts/Mesa_Votantes.sol\":2966:3003  msg.sender == mesas[_mesaIndex].owner */\n      0xffffffffffffffffffffffffffffffffffffffff\n      and\n      eq\n        /* \"contracts/Mesa_Votantes.sol\":2958:3043  require(msg.sender == mesas[_mesaIndex].owner, \"No eres el propietario de esta mesa\") */\n      tag_204\n      jumpi\n      mload(0x40)\n      0x08c379a000000000000000000000000000000000000000000000000000000000\n      dup2\n      mstore\n      0x04\n      add\n      tag_205\n      swap1\n      tag_206\n      jump\t// in\n    tag_205:\n      mload(0x40)\n      dup1\n      swap2\n      sub\n      swap1\n      revert\n    tag_204:\n        /* \"contracts/Mesa_Votantes.sol\":3062:3067  mesas */\n      0x08\n        /* \"contracts/Mesa_Votantes.sol\":3062:3079  mesas[_mesaIndex] */\n      0x00\n        /* \"contracts/Mesa_Votantes.sol\":3068:3078  _mesaIndex */\n      dup3\n        /* \"contracts/Mesa_Votantes.sol\":3062:3079  mesas[_mesaIndex] */\n      dup2\n      mstore\n      0x20\n      add\n      swap1\n      dup2\n      mstore\n      0x20\n      add\n      0x00\n      keccak256\n        /* \"contracts/Mesa_Votantes.sol\":3062:3086  mesas[_mesaIndex].isOpen */\n      0x03\n      add\n      0x00\n      swap1\n      sload\n      swap1\n      0x0100\n      exp\n      swap1\n      div\n      0xff\n      and\n        /* \"contracts/Mesa_Votantes.sol\":3054:3116  require(mesas[_mesaIndex].isOpen, \"Esta mesa ya esta cerrada\") */\n      tag_207\n      jumpi\n      mload(0x40)\n      0x08c379a000000000000000000000000000000000000000000000000000000000\n      dup2\n      mstore\n      0x04\n      add\n      tag_208\n      swap1\n      tag_209\n      jump\t// in\n    tag_208:\n      mload(0x40)\n      dup1\n      swap2\n      sub\n      swap1\n      revert\n    tag_207:\n        /* \"contracts/Mesa_Votantes.sol\":3156:3161  false */\n      0x00\n        /* \"contracts/Mesa_Votantes.sol\":3129:3134  mesas */\n      0x08\n        /* \"contracts/Mesa_Votantes.sol\":3129:3146  mesas[_mesaIndex] */\n      0x00\n        /* \"contracts/Mesa_Votantes.sol\":3135:3145  _mesaIndex */\n      dup4\n        /* \"contracts/Mesa_Votantes.sol\":3129:3146  mesas[_mesaIndex] */\n      dup2\n      mstore\n      0x20\n      add\n      swap1\n      dup2\n      mstore\n      0x20\n      add\n      0x00\n      keccak256\n        /* \"contracts/Mesa_Votantes.sol\":3129:3153  mesas[_mesaIndex].isOpen */\n      0x03\n      add\n      0x00\n        /* \"contracts/Mesa_Votantes.sol\":3129:3161  mesas[_mesaIndex].isOpen = false */\n      0x0100\n      exp\n      dup2\n      sload\n      dup2\n      0xff\n      mul\n      not\n      and\n      swap1\n      dup4\n      iszero\n      iszero\n      mul\n      or\n      swap1\n      sstore\n      pop\n        /* \"contracts/Mesa_Votantes.sol\":2900:3169  function cerrarMesa(uint256 _mesaIndex) public {... */\n      pop\n      jump\t// out\n        /* \"@openzeppelin/contracts/access/Ownable.sol\":1638:1723  function owner() public view virtual returns (address) {... */\n    tag_96:\n        /* \"@openzeppelin/contracts/access/Ownable.sol\":1684:1691  address */\n      0x00\n        /* \"@openzeppelin/contracts/access/Ownable.sol\":1710:1716  _owner */\n      0x05\n      0x00\n      swap1\n      sload\n      swap1\n      0x0100\n      exp\n      swap1\n      div\n      0xffffffffffffffffffffffffffffffffffffffff\n      and\n        /* \"@openzeppelin/contracts/access/Ownable.sol\":1703:1716  return _owner */\n      swap1\n      pop\n        /* \"@openzeppelin/contracts/access/Ownable.sol\":1638:1723  function owner() public view virtual returns (address) {... */\n      swap1\n      jump\t// out\n        /* \"contracts/Candidatos.sol\":364:393  Candidato[] public candidatos */\n    tag_102:\n      0x06\n      dup2\n      dup2\n      sload\n      dup2\n      lt\n      tag_211\n      jumpi\n      0x00\n      dup1\n      revert\n    tag_211:\n      swap1\n      0x00\n      mstore\n      keccak256(0x00, 0x20)\n      swap1\n      0x02\n      mul\n      add\n      0x00\n      swap2\n      pop\n      swap1\n      pop\n      dup1\n      0x00\n      add\n      dup1\n      sload\n      tag_213\n      swap1\n      tag_159\n      jump\t// in\n    tag_213:\n      dup1\n      0x1f\n      add\n      0x20\n      dup1\n      swap2\n      div\n      mul\n      0x20\n      add\n      mload(0x40)\n      swap1\n      dup2\n      add\n      0x40\n      mstore\n      dup1\n      swap3\n      swap2\n      swap1\n      dup2\n      dup2\n      mstore\n      0x20\n      add\n      dup3\n      dup1\n      sload\n      tag_214\n      swap1\n      tag_159\n      jump\t// in\n    tag_214:\n      dup1\n      iszero\n      tag_215\n      jumpi\n      dup1\n      0x1f\n      lt\n      tag_216\n      jumpi\n      0x0100\n      dup1\n      dup4\n      sload\n      div\n      mul\n      dup4\n      mstore\n      swap2\n      0x20\n      add\n      swap2\n      jump(tag_215)\n    tag_216:\n      dup3\n      add\n      swap2\n      swap1\n      0x00\n      mstore\n      keccak256(0x00, 0x20)\n      swap1\n    tag_217:\n      dup2\n      sload\n      dup2\n      mstore\n      swap1\n      0x01\n      add\n      swap1\n      0x20\n      add\n      dup1\n      dup4\n      gt\n      tag_217\n      jumpi\n      dup3\n      swap1\n      sub\n      0x1f\n      and\n      dup3\n      add\n      swap2\n    tag_215:\n      pop\n      pop\n      pop\n      pop\n      pop\n      swap1\n      dup1\n      0x01\n      add\n      sload\n      swap1\n      pop\n      dup3\n      jump\t// out\n        /* \"@openzeppelin/contracts/token/ERC20/ERC20.sol\":2276:2369  function symbol() public view virtual returns (string memory) {... */\n    tag_107:\n        /* \"@openzeppelin/contracts/token/ERC20/ERC20.sol\":2323:2336  string memory */\n      0x60\n        /* \"@openzeppelin/contracts/token/ERC20/ERC20.sol\":2355:2362  _symbol */\n      0x04\n        /* \"@openzeppelin/contracts/token/ERC20/ERC20.sol\":2348:2362  return _symbol */\n      dup1\n      sload\n      tag_219\n      swap1\n      tag_159\n      jump\t// in\n    tag_219:\n      dup1\n      0x1f\n      add\n      0x20\n      dup1\n      swap2\n      div\n      mul\n      0x20\n      add\n      mload(0x40)\n      swap1\n      dup2\n      add\n      0x40\n      mstore\n      dup1\n      swap3\n      swap2\n      swap1\n      dup2\n      dup2\n      mstore\n      0x20\n      add\n      dup3\n      dup1\n      sload\n      tag_220\n      swap1\n      tag_159\n      jump\t// in\n    tag_220:\n      dup1\n      iszero\n      tag_221\n      jumpi\n      dup1\n      0x1f\n      lt\n      tag_222\n      jumpi\n      0x0100\n      dup1\n      dup4\n      sload\n      div\n      mul\n      dup4\n      mstore\n      swap2\n      0x20\n      add\n      swap2\n      jump(tag_221)\n    tag_222:\n      dup3\n      add\n      swap2\n      swap1\n      0x00\n      mstore\n      keccak256(0x00, 0x20)\n      swap1\n    tag_223:\n      dup2\n      sload\n      dup2\n      mstore\n      swap1\n      0x01\n      add\n      swap1\n      0x20\n      add\n      dup1\n      dup4\n      gt\n      tag_223\n      jumpi\n      dup3\n      swap1\n      sub\n      0x1f\n      and\n      dup3\n      add\n      swap2\n    tag_221:\n      pop\n      pop\n      pop\n      pop\n      pop\n      swap1\n      pop\n        /* \"@openzeppelin/contracts/token/ERC20/ERC20.sol\":2276:2369  function symbol() public view virtual returns (string memory) {... */\n      swap1\n      jump\t// out\n        /* \"contracts/Mesa_Votantes.sol\":971:1071  function mint(uint256 _cantidad) public onlyOwner {... */\n    tag_112:\n        /* \"@openzeppelin/contracts/access/Ownable.sol\":1531:1544  _checkOwner() */\n      tag_225\n        /* \"@openzeppelin/contracts/access/Ownable.sol\":1531:1542  _checkOwner */\n      tag_191\n        /* \"@openzeppelin/contracts/access/Ownable.sol\":1531:1544  _checkOwner() */\n      jump\t// in\n    tag_225:\n        /* \"contracts/Mesa_Votantes.sol\":1032:1063  _mint(address(this), _cantidad) */\n      tag_227\n        /* \"contracts/Mesa_Votantes.sol\":1046:1050  this */\n      address\n        /* \"contracts/Mesa_Votantes.sol\":1053:1062  _cantidad */\n      dup3\n        /* \"contracts/Mesa_Votantes.sol\":1032:1037  _mint */\n      tag_228\n        /* \"contracts/Mesa_Votantes.sol\":1032:1063  _mint(address(this), _cantidad) */\n      jump\t// in\n    tag_227:\n        /* \"contracts/Mesa_Votantes.sol\":971:1071  function mint(uint256 _cantidad) public onlyOwner {... */\n      pop\n      jump\t// out\n        /* \"contracts/Mesa_Votantes.sol\":2502:2852  function agregarMesa(string memory _nombre, address _owner) public onlyOwner {... */\n    tag_117:\n        /* \"@openzeppelin/contracts/access/Ownable.sol\":1531:1544  _checkOwner() */\n      tag_230\n        /* \"@openzeppelin/contracts/access/Ownable.sol\":1531:1542  _checkOwner */\n      tag_191\n        /* \"@openzeppelin/contracts/access/Ownable.sol\":1531:1544  _checkOwner() */\n      jump\t// in\n    tag_230:\n        /* \"contracts/Mesa_Votantes.sol\":2590:2598  numMesas */\n      0x0a\n      0x00\n        /* \"contracts/Mesa_Votantes.sol\":2590:2600  numMesas++ */\n      dup2\n      sload\n      dup1\n      swap3\n      swap2\n      swap1\n      tag_232\n      swap1\n      tag_233\n      jump\t// in\n    tag_232:\n      swap2\n      swap1\n      pop\n      sstore\n      pop\n        /* \"contracts/Mesa_Votantes.sol\":2611:2633  Mesa storage nuevaMesa */\n      0x00\n        /* \"contracts/Mesa_Votantes.sol\":2636:2641  mesas */\n      0x08\n        /* \"contracts/Mesa_Votantes.sol\":2636:2653  mesas[numMesas-1] */\n      0x00\n        /* \"contracts/Mesa_Votantes.sol\":2651:2652  1 */\n      0x01\n        /* \"contracts/Mesa_Votantes.sol\":2642:2650  numMesas */\n      sload(0x0a)\n        /* \"contracts/Mesa_Votantes.sol\":2642:2652  numMesas-1 */\n      tag_234\n      swap2\n      swap1\n      tag_235\n      jump\t// in\n    tag_234:\n        /* \"contracts/Mesa_Votantes.sol\":2636:2653  mesas[numMesas-1] */\n      dup2\n      mstore\n      0x20\n      add\n      swap1\n      dup2\n      mstore\n      0x20\n      add\n      0x00\n      keccak256\n        /* \"contracts/Mesa_Votantes.sol\":2611:2653  Mesa storage nuevaMesa = mesas[numMesas-1] */\n      swap1\n      pop\n        /* \"contracts/Mesa_Votantes.sol\":2682:2688  _owner */\n      dup2\n        /* \"contracts/Mesa_Votantes.sol\":2664:2673  nuevaMesa */\n      dup2\n        /* \"contracts/Mesa_Votantes.sol\":2664:2679  nuevaMesa.owner */\n      0x00\n      add\n      0x00\n        /* \"contracts/Mesa_Votantes.sol\":2664:2688  nuevaMesa.owner = _owner */\n      0x0100\n      exp\n      dup2\n      sload\n      dup2\n      0xffffffffffffffffffffffffffffffffffffffff\n      mul\n      not\n      and\n      swap1\n      dup4\n      0xffffffffffffffffffffffffffffffffffffffff\n      and\n      mul\n      or\n      swap1\n      sstore\n      pop\n        /* \"contracts/Mesa_Votantes.sol\":2718:2722  true */\n      0x01\n        /* \"contracts/Mesa_Votantes.sol\":2699:2708  nuevaMesa */\n      dup2\n        /* \"contracts/Mesa_Votantes.sol\":2699:2715  nuevaMesa.isOpen */\n      0x03\n      add\n      0x00\n        /* \"contracts/Mesa_Votantes.sol\":2699:2722  nuevaMesa.isOpen = true */\n      0x0100\n      exp\n      dup2\n      sload\n      dup2\n      0xff\n      mul\n      not\n      and\n      swap1\n      dup4\n      iszero\n      iszero\n      mul\n      or\n      swap1\n      sstore\n      pop\n        /* \"contracts/Mesa_Votantes.sol\":2775:2785  candidatos */\n      0x06\n        /* \"contracts/Mesa_Votantes.sol\":2775:2792  candidatos.length */\n      dup1\n      sload\n      swap1\n      pop\n        /* \"contracts/Mesa_Votantes.sol\":2761:2793  new uint256[](candidatos.length) */\n      0xffffffffffffffff\n      dup2\n      gt\n      iszero\n      tag_236\n      jumpi\n      tag_237\n      tag_238\n      jump\t// in\n    tag_237:\n    tag_236:\n      mload(0x40)\n      swap1\n      dup1\n      dup3\n      mstore\n      dup1\n      0x20\n      mul\n      0x20\n      add\n      dup3\n      add\n      0x40\n      mstore\n      dup1\n      iszero\n      tag_239\n      jumpi\n      dup2\n      0x20\n      add\n      0x20\n      dup3\n      mul\n      dup1\n      calldatasize\n      dup4\n      calldatacopy\n      dup1\n      dup3\n      add\n      swap2\n      pop\n      pop\n      swap1\n      pop\n    tag_239:\n      pop\n        /* \"contracts/Mesa_Votantes.sol\":2733:2742  nuevaMesa */\n      dup2\n        /* \"contracts/Mesa_Votantes.sol\":2733:2758  nuevaMesa.votosCandidatos */\n      0x02\n      add\n        /* \"contracts/Mesa_Votantes.sol\":2733:2793  nuevaMesa.votosCandidatos = new uint256[](candidatos.length) */\n      swap1\n      dup1\n      mload\n      swap1\n      0x20\n      add\n      swap1\n      tag_240\n      swap3\n      swap2\n      swap1\n      tag_241\n      jump\t// in\n    tag_240:\n      pop\n        /* \"contracts/Mesa_Votantes.sol\":2826:2834  numMesas */\n      sload(0x0a)\n        /* \"contracts/Mesa_Votantes.sol\":2809:2844  NuevaMesaAbierta(numMesas, _nombre) */\n      0x475e637cd3c90ecc459eddf548f62cfca3117407751685fce1ff08330f83f3c7\n        /* \"contracts/Mesa_Votantes.sol\":2836:2843  _nombre */\n      dup5\n        /* \"contracts/Mesa_Votantes.sol\":2809:2844  NuevaMesaAbierta(numMesas, _nombre) */\n      mload(0x40)\n      tag_242\n      swap2\n      swap1\n      tag_35\n      jump\t// in\n    tag_242:\n      mload(0x40)\n      dup1\n      swap2\n      sub\n      swap1\n      log2\n        /* \"contracts/Mesa_Votantes.sol\":2579:2852  {... */\n      pop\n        /* \"contracts/Mesa_Votantes.sol\":2502:2852  function agregarMesa(string memory _nombre, address _owner) public onlyOwner {... */\n      pop\n      pop\n      jump\t// out\n        /* \"@openzeppelin/contracts/token/ERC20/ERC20.sol\":3610:3788  function transfer(address to, uint256 value) public virtual returns (bool) {... */\n    tag_121:\n        /* \"@openzeppelin/contracts/token/ERC20/ERC20.sol\":3679:3683  bool */\n      0x00\n        /* \"@openzeppelin/contracts/token/ERC20/ERC20.sol\":3695:3708  address owner */\n      dup1\n        /* \"@openzeppelin/contracts/token/ERC20/ERC20.sol\":3711:3723  _msgSender() */\n      tag_244\n        /* \"@openzeppelin/contracts/token/ERC20/ERC20.sol\":3711:3721  _msgSender */\n      tag_166\n        /* \"@openzeppelin/contracts/token/ERC20/ERC20.sol\":3711:3723  _msgSender() */\n      jump\t// in\n    tag_244:\n        /* \"@openzeppelin/contracts/token/ERC20/ERC20.sol\":3695:3723  address owner = _msgSender() */\n      swap1\n      pop\n        /* \"@openzeppelin/contracts/token/ERC20/ERC20.sol\":3733:3760  _transfer(owner, to, value) */\n      tag_245\n        /* \"@openzeppelin/contracts/token/ERC20/ERC20.sol\":3743:3748  owner */\n      dup2\n        /* \"@openzeppelin/contracts/token/ERC20/ERC20.sol\":3750:3752  to */\n      dup6\n        /* \"@openzeppelin/contracts/token/ERC20/ERC20.sol\":3754:3759  value */\n      dup6\n        /* \"@openzeppelin/contracts/token/ERC20/ERC20.sol\":3733:3742  _transfer */\n      tag_184\n        /* \"@openzeppelin/contracts/token/ERC20/ERC20.sol\":3733:3760  _transfer(owner, to, value) */\n      jump\t// in\n    tag_245:\n        /* \"@openzeppelin/contracts/token/ERC20/ERC20.sol\":3777:3781  true */\n      0x01\n        /* \"@openzeppelin/contracts/token/ERC20/ERC20.sol\":3770:3781  return true */\n      swap2\n      pop\n      pop\n        /* \"@openzeppelin/contracts/token/ERC20/ERC20.sol\":3610:3788  function transfer(address to, uint256 value) public virtual returns (bool) {... */\n      swap3\n      swap2\n      pop\n      pop\n      jump\t// out\n        /* \"contracts/Mesa_Votantes.sol\":1663:2423  function vote(uint256 _candidatoIndex, uint256 _mesaIndex) public payable {... */\n    tag_126:\n        /* \"contracts/Mesa_Votantes.sol\":1781:1782  1 */\n      0x01\n        /* \"contracts/Mesa_Votantes.sol\":1756:1777  balanceOf(msg.sender) */\n      tag_247\n        /* \"contracts/Mesa_Votantes.sol\":1766:1776  msg.sender */\n      caller\n        /* \"contracts/Mesa_Votantes.sol\":1756:1765  balanceOf */\n      tag_85\n        /* \"contracts/Mesa_Votantes.sol\":1756:1777  balanceOf(msg.sender) */\n      jump\t// in\n    tag_247:\n        /* \"contracts/Mesa_Votantes.sol\":1756:1782  balanceOf(msg.sender) >= 1 */\n      lt\n      iszero\n        /* \"contracts/Mesa_Votantes.sol\":1748:1826  require(balanceOf(msg.sender) >= 1, \"No tienes suficientes tokens para votar\") */\n      tag_248\n      jumpi\n      mload(0x40)\n      0x08c379a000000000000000000000000000000000000000000000000000000000\n      dup2\n      mstore\n      0x04\n      add\n      tag_249\n      swap1\n      tag_250\n      jump\t// in\n    tag_249:\n      mload(0x40)\n      dup1\n      swap2\n      sub\n      swap1\n      revert\n    tag_248:\n        /* \"contracts/Mesa_Votantes.sol\":1846:1851  mesas */\n      0x08\n        /* \"contracts/Mesa_Votantes.sol\":1846:1863  mesas[_mesaIndex] */\n      0x00\n        /* \"contracts/Mesa_Votantes.sol\":1852:1862  _mesaIndex */\n      dup3\n        /* \"contracts/Mesa_Votantes.sol\":1846:1863  mesas[_mesaIndex] */\n      dup2\n      mstore\n      0x20\n      add\n      swap1\n      dup2\n      mstore\n      0x20\n      add\n      0x00\n      keccak256\n        /* \"contracts/Mesa_Votantes.sol\":1846:1872  mesas[_mesaIndex].hasVoted */\n      0x01\n      add\n        /* \"contracts/Mesa_Votantes.sol\":1846:1884  mesas[_mesaIndex].hasVoted[msg.sender] */\n      0x00\n        /* \"contracts/Mesa_Votantes.sol\":1873:1883  msg.sender */\n      caller\n        /* \"contracts/Mesa_Votantes.sol\":1846:1884  mesas[_mesaIndex].hasVoted[msg.sender] */\n      0xffffffffffffffffffffffffffffffffffffffff\n      and\n      0xffffffffffffffffffffffffffffffffffffffff\n      and\n      dup2\n      mstore\n      0x20\n      add\n      swap1\n      dup2\n      mstore\n      0x20\n      add\n      0x00\n      keccak256\n      0x00\n      swap1\n      sload\n      swap1\n      0x0100\n      exp\n      swap1\n      div\n      0xff\n      and\n        /* \"contracts/Mesa_Votantes.sol\":1845:1884  !mesas[_mesaIndex].hasVoted[msg.sender] */\n      iszero\n        /* \"contracts/Mesa_Votantes.sol\":1837:1915  require(!mesas[_mesaIndex].hasVoted[msg.sender], \"Ya has votado en esta mesa\") */\n      tag_251\n      jumpi\n      mload(0x40)\n      0x08c379a000000000000000000000000000000000000000000000000000000000\n      dup2\n      mstore\n      0x04\n      add\n      tag_252\n      swap1\n      tag_253\n      jump\t// in\n    tag_252:\n      mload(0x40)\n      dup1\n      swap2\n      sub\n      swap1\n      revert\n    tag_251:\n        /* \"contracts/Mesa_Votantes.sol\":1952:1962  candidatos */\n      0x06\n        /* \"contracts/Mesa_Votantes.sol\":1952:1969  candidatos.length */\n      dup1\n      sload\n      swap1\n      pop\n        /* \"contracts/Mesa_Votantes.sol\":1934:1949  _candidatoIndex */\n      dup3\n        /* \"contracts/Mesa_Votantes.sol\":1934:1969  _candidatoIndex < candidatos.length */\n      lt\n        /* \"contracts/Mesa_Votantes.sol\":1926:1997  require(_candidatoIndex < candidatos.length, \"Candidato no encontrado\") */\n      tag_254\n      jumpi\n      mload(0x40)\n      0x08c379a000000000000000000000000000000000000000000000000000000000\n      dup2\n      mstore\n      0x04\n      add\n      tag_255\n      swap1\n      tag_256\n      jump\t// in\n    tag_255:\n      mload(0x40)\n      dup1\n      swap2\n      sub\n      swap1\n      revert\n    tag_254:\n        /* \"contracts/Mesa_Votantes.sol\":2016:2021  mesas */\n      0x08\n        /* \"contracts/Mesa_Votantes.sol\":2016:2033  mesas[_mesaIndex] */\n      0x00\n        /* \"contracts/Mesa_Votantes.sol\":2022:2032  _mesaIndex */\n      dup3\n        /* \"contracts/Mesa_Votantes.sol\":2016:2033  mesas[_mesaIndex] */\n      dup2\n      mstore\n      0x20\n      add\n      swap1\n      dup2\n      mstore\n      0x20\n      add\n      0x00\n      keccak256\n        /* \"contracts/Mesa_Votantes.sol\":2016:2040  mesas[_mesaIndex].isOpen */\n      0x03\n      add\n      0x00\n      swap1\n      sload\n      swap1\n      0x0100\n      exp\n      swap1\n      div\n      0xff\n      and\n        /* \"contracts/Mesa_Votantes.sol\":2008:2084  require(mesas[_mesaIndex].isOpen, \"Esta mesa no esta abierta para votacion\") */\n      tag_257\n      jumpi\n      mload(0x40)\n      0x08c379a000000000000000000000000000000000000000000000000000000000\n      dup2\n      mstore\n      0x04\n      add\n      tag_258\n      swap1\n      tag_259\n      jump\t// in\n    tag_258:\n      mload(0x40)\n      dup1\n      swap2\n      sub\n      swap1\n      revert\n    tag_257:\n        /* \"contracts/Mesa_Votantes.sol\":2125:2145  _burn(msg.sender, 1) */\n      tag_260\n        /* \"contracts/Mesa_Votantes.sol\":2131:2141  msg.sender */\n      caller\n        /* \"contracts/Mesa_Votantes.sol\":2143:2144  1 */\n      0x01\n        /* \"contracts/Mesa_Votantes.sol\":2125:2130  _burn */\n      tag_261\n        /* \"contracts/Mesa_Votantes.sol\":2125:2145  _burn(msg.sender, 1) */\n      jump\t// in\n    tag_260:\n        /* \"contracts/Mesa_Votantes.sol\":2244:2249  mesas */\n      0x08\n        /* \"contracts/Mesa_Votantes.sol\":2244:2261  mesas[_mesaIndex] */\n      0x00\n        /* \"contracts/Mesa_Votantes.sol\":2250:2260  _mesaIndex */\n      dup3\n        /* \"contracts/Mesa_Votantes.sol\":2244:2261  mesas[_mesaIndex] */\n      dup2\n      mstore\n      0x20\n      add\n      swap1\n      dup2\n      mstore\n      0x20\n      add\n      0x00\n      keccak256\n        /* \"contracts/Mesa_Votantes.sol\":2244:2277  mesas[_mesaIndex].votosCandidatos */\n      0x02\n      add\n        /* \"contracts/Mesa_Votantes.sol\":2278:2293  _candidatoIndex */\n      dup3\n        /* \"contracts/Mesa_Votantes.sol\":2244:2294  mesas[_mesaIndex].votosCandidatos[_candidatoIndex] */\n      dup2\n      sload\n      dup2\n      lt\n      tag_262\n      jumpi\n      tag_263\n      tag_264\n      jump\t// in\n    tag_263:\n    tag_262:\n      swap1\n      0x00\n      mstore\n      keccak256(0x00, 0x20)\n      add\n      0x00\n        /* \"contracts/Mesa_Votantes.sol\":2244:2296  mesas[_mesaIndex].votosCandidatos[_candidatoIndex]++ */\n      dup2\n      sload\n      dup1\n      swap3\n      swap2\n      swap1\n      tag_266\n      swap1\n      tag_233\n      jump\t// in\n    tag_266:\n      swap2\n      swap1\n      pop\n      sstore\n      pop\n        /* \"contracts/Mesa_Votantes.sol\":2411:2415  true */\n      0x01\n        /* \"contracts/Mesa_Votantes.sol\":2370:2375  mesas */\n      0x08\n        /* \"contracts/Mesa_Votantes.sol\":2370:2387  mesas[_mesaIndex] */\n      0x00\n        /* \"contracts/Mesa_Votantes.sol\":2376:2386  _mesaIndex */\n      dup4\n        /* \"contracts/Mesa_Votantes.sol\":2370:2387  mesas[_mesaIndex] */\n      dup2\n      mstore\n      0x20\n      add\n      swap1\n      dup2\n      mstore\n      0x20\n      add\n      0x00\n      keccak256\n        /* \"contracts/Mesa_Votantes.sol\":2370:2396  mesas[_mesaIndex].hasVoted */\n      0x01\n      add\n        /* \"contracts/Mesa_Votantes.sol\":2370:2408  mesas[_mesaIndex].hasVoted[msg.sender] */\n      0x00\n        /* \"contracts/Mesa_Votantes.sol\":2397:2407  msg.sender */\n      caller\n        /* \"contracts/Mesa_Votantes.sol\":2370:2408  mesas[_mesaIndex].hasVoted[msg.sender] */\n      0xffffffffffffffffffffffffffffffffffffffff\n      and\n      0xffffffffffffffffffffffffffffffffffffffff\n      and\n      dup2\n      mstore\n      0x20\n      add\n      swap1\n      dup2\n      mstore\n      0x20\n      add\n      0x00\n      keccak256\n      0x00\n        /* \"contracts/Mesa_Votantes.sol\":2370:2415  mesas[_mesaIndex].hasVoted[msg.sender] = true */\n      0x0100\n      exp\n      dup2\n      sload\n      dup2\n      0xff\n      mul\n      not\n      and\n      swap1\n      dup4\n      iszero\n      iszero\n      mul\n      or\n      swap1\n      sstore\n      pop\n        /* \"contracts/Mesa_Votantes.sol\":1663:2423  function vote(uint256 _candidatoIndex, uint256 _mesaIndex) public payable {... */\n      pop\n      pop\n      jump\t// out\n        /* \"@openzeppelin/contracts/token/ERC20/ERC20.sol\":3846:3986  function allowance(address owner, address spender) public view virtual returns (uint256) {... */\n    tag_131:\n        /* \"@openzeppelin/contracts/token/ERC20/ERC20.sol\":3926:3933  uint256 */\n      0x00\n        /* \"@openzeppelin/contracts/token/ERC20/ERC20.sol\":3952:3963  _allowances */\n      0x01\n        /* \"@openzeppelin/contracts/token/ERC20/ERC20.sol\":3952:3970  _allowances[owner] */\n      0x00\n        /* \"@openzeppelin/contracts/token/ERC20/ERC20.sol\":3964:3969  owner */\n      dup5\n        /* \"@openzeppelin/contracts/token/ERC20/ERC20.sol\":3952:3970  _allowances[owner] */\n      0xffffffffffffffffffffffffffffffffffffffff\n      and\n      0xffffffffffffffffffffffffffffffffffffffff\n      and\n      dup2\n      mstore\n      0x20\n      add\n      swap1\n      dup2\n      mstore\n      0x20\n      add\n      0x00\n      keccak256\n        /* \"@openzeppelin/contracts/token/ERC20/ERC20.sol\":3952:3979  _allowances[owner][spender] */\n      0x00\n        /* \"@openzeppelin/contracts/token/ERC20/ERC20.sol\":3971:3978  spender */\n      dup4\n        /* \"@openzeppelin/contracts/token/ERC20/ERC20.sol\":3952:3979  _allowances[owner][spender] */\n      0xffffffffffffffffffffffffffffffffffffffff\n      and\n      0xffffffffffffffffffffffffffffffffffffffff\n      and\n      dup2\n      mstore\n      0x20\n      add\n      swap1\n      dup2\n      mstore\n      0x20\n      add\n      0x00\n      keccak256\n      sload\n        /* \"@openzeppelin/contracts/token/ERC20/ERC20.sol\":3945:3979  return _allowances[owner][spender] */\n      swap1\n      pop\n        /* \"@openzeppelin/contracts/token/ERC20/ERC20.sol\":3846:3986  function allowance(address owner, address spender) public view virtual returns (uint256) {... */\n      swap3\n      swap2\n      pop\n      pop\n      jump\t// out\n        /* \"contracts/Mesa_Votantes.sol\":698:721  uint256 public numMesas */\n    tag_135:\n      sload(0x0a)\n      dup2\n      jump\t// out\n        /* \"contracts/Mesa_Votantes.sol\":1143:1655  function transferToken(address _to) public onlyOwner returns (bool) {... */\n    tag_140:\n        /* \"contracts/Mesa_Votantes.sol\":1205:1209  bool */\n      0x00\n        /* \"@openzeppelin/contracts/access/Ownable.sol\":1531:1544  _checkOwner() */\n      tag_269\n        /* \"@openzeppelin/contracts/access/Ownable.sol\":1531:1542  _checkOwner */\n      tag_191\n        /* \"@openzeppelin/contracts/access/Ownable.sol\":1531:1544  _checkOwner() */\n      jump\t// in\n    tag_269:\n        /* \"contracts/Mesa_Votantes.sol\":1287:1296  uint256 i */\n      0x00\n        /* \"contracts/Mesa_Votantes.sol\":1282:1456  for (uint256 i = 0; i < tokenRecipients.length; i++) {... */\n    tag_271:\n        /* \"contracts/Mesa_Votantes.sol\":1306:1321  tokenRecipients */\n      0x09\n        /* \"contracts/Mesa_Votantes.sol\":1306:1328  tokenRecipients.length */\n      dup1\n      sload\n      swap1\n      pop\n        /* \"contracts/Mesa_Votantes.sol\":1302:1303  i */\n      dup2\n        /* \"contracts/Mesa_Votantes.sol\":1302:1328  i < tokenRecipients.length */\n      lt\n        /* \"contracts/Mesa_Votantes.sol\":1282:1456  for (uint256 i = 0; i < tokenRecipients.length; i++) {... */\n      iszero\n      tag_272\n      jumpi\n        /* \"contracts/Mesa_Votantes.sol\":1380:1383  _to */\n      dup3\n        /* \"contracts/Mesa_Votantes.sol\":1358:1383  tokenRecipients[i] != _to */\n      0xffffffffffffffffffffffffffffffffffffffff\n      and\n        /* \"contracts/Mesa_Votantes.sol\":1358:1373  tokenRecipients */\n      0x09\n        /* \"contracts/Mesa_Votantes.sol\":1374:1375  i */\n      dup3\n        /* \"contracts/Mesa_Votantes.sol\":1358:1376  tokenRecipients[i] */\n      dup2\n      sload\n      dup2\n      lt\n      tag_274\n      jumpi\n      tag_275\n      tag_264\n      jump\t// in\n    tag_275:\n    tag_274:\n      swap1\n      0x00\n      mstore\n      keccak256(0x00, 0x20)\n      add\n      0x00\n      swap1\n      sload\n      swap1\n      0x0100\n      exp\n      swap1\n      div\n      0xffffffffffffffffffffffffffffffffffffffff\n      and\n        /* \"contracts/Mesa_Votantes.sol\":1358:1383  tokenRecipients[i] != _to */\n      0xffffffffffffffffffffffffffffffffffffffff\n      and\n      sub\n        /* \"contracts/Mesa_Votantes.sol\":1350:1444  require(tokenRecipients[i] != _to, \"Esta direccion ya recibio su token y no se puede dar mas\") */\n      tag_277\n      jumpi\n      mload(0x40)\n      0x08c379a000000000000000000000000000000000000000000000000000000000\n      dup2\n      mstore\n      0x04\n      add\n      tag_278\n      swap1\n      tag_279\n      jump\t// in\n    tag_278:\n      mload(0x40)\n      dup1\n      swap2\n      sub\n      swap1\n      revert\n    tag_277:\n        /* \"contracts/Mesa_Votantes.sol\":1330:1333  i++ */\n      dup1\n      dup1\n      0x01\n      add\n      swap2\n      pop\n      pop\n        /* \"contracts/Mesa_Votantes.sol\":1282:1456  for (uint256 i = 0; i < tokenRecipients.length; i++) {... */\n      jump(tag_271)\n    tag_272:\n      pop\n        /* \"contracts/Mesa_Votantes.sol\":1500:1532  _transfer(address(this), _to, 1) */\n      tag_280\n        /* \"contracts/Mesa_Votantes.sol\":1518:1522  this */\n      address\n        /* \"contracts/Mesa_Votantes.sol\":1525:1528  _to */\n      dup4\n        /* \"contracts/Mesa_Votantes.sol\":1530:1531  1 */\n      0x01\n        /* \"contracts/Mesa_Votantes.sol\":1500:1509  _transfer */\n      tag_184\n        /* \"contracts/Mesa_Votantes.sol\":1500:1532  _transfer(address(this), _to, 1) */\n      jump\t// in\n    tag_280:\n        /* \"contracts/Mesa_Votantes.sol\":1598:1613  tokenRecipients */\n      0x09\n        /* \"contracts/Mesa_Votantes.sol\":1619:1622  _to */\n      dup3\n        /* \"contracts/Mesa_Votantes.sol\":1598:1623  tokenRecipients.push(_to) */\n      swap1\n      dup1\n      0x01\n      dup2\n      sload\n      add\n      dup1\n      dup3\n      sstore\n      dup1\n      swap2\n      pop\n      pop\n      0x01\n      swap1\n      sub\n      swap1\n      0x00\n      mstore\n      keccak256(0x00, 0x20)\n      add\n      0x00\n      swap1\n      swap2\n      swap1\n      swap2\n      swap1\n      swap2\n      0x0100\n      exp\n      dup2\n      sload\n      dup2\n      0xffffffffffffffffffffffffffffffffffffffff\n      mul\n      not\n      and\n      swap1\n      dup4\n      0xffffffffffffffffffffffffffffffffffffffff\n      and\n      mul\n      or\n      swap1\n      sstore\n      pop\n        /* \"contracts/Mesa_Votantes.sol\":1643:1647  true */\n      0x01\n        /* \"contracts/Mesa_Votantes.sol\":1636:1647  return true */\n      swap1\n      pop\n        /* \"contracts/Mesa_Votantes.sol\":1143:1655  function transferToken(address _to) public onlyOwner returns (bool) {... */\n      swap2\n      swap1\n      pop\n      jump\t// out\n        /* \"contracts/Mesa_Votantes.sol\":3240:3388  function obtenerRecuentoVotos(uint256 _mesaIndex) public view returns (uint256[] memory) {... */\n    tag_145:\n        /* \"contracts/Mesa_Votantes.sol\":3311:3327  uint256[] memory */\n      0x60\n        /* \"contracts/Mesa_Votantes.sol\":3347:3352  mesas */\n      0x08\n        /* \"contracts/Mesa_Votantes.sol\":3347:3364  mesas[_mesaIndex] */\n      0x00\n        /* \"contracts/Mesa_Votantes.sol\":3353:3363  _mesaIndex */\n      dup4\n        /* \"contracts/Mesa_Votantes.sol\":3347:3364  mesas[_mesaIndex] */\n      dup2\n      mstore\n      0x20\n      add\n      swap1\n      dup2\n      mstore\n      0x20\n      add\n      0x00\n      keccak256\n        /* \"contracts/Mesa_Votantes.sol\":3347:3380  mesas[_mesaIndex].votosCandidatos */\n      0x02\n      add\n        /* \"contracts/Mesa_Votantes.sol\":3340:3380  return mesas[_mesaIndex].votosCandidatos */\n      dup1\n      sload\n      dup1\n      0x20\n      mul\n      0x20\n      add\n      mload(0x40)\n      swap1\n      dup2\n      add\n      0x40\n      mstore\n      dup1\n      swap3\n      swap2\n      swap1\n      dup2\n      dup2\n      mstore\n      0x20\n      add\n      dup3\n      dup1\n      sload\n      dup1\n      iszero\n      tag_283\n      jumpi\n      0x20\n      mul\n      dup3\n      add\n      swap2\n      swap1\n      0x00\n      mstore\n      keccak256(0x00, 0x20)\n      swap1\n    tag_284:\n      dup2\n      sload\n      dup2\n      mstore\n      0x20\n      add\n      swap1\n      0x01\n      add\n      swap1\n      dup1\n      dup4\n      gt\n      tag_284\n      jumpi\n    tag_283:\n      pop\n      pop\n      pop\n      pop\n      pop\n      swap1\n      pop\n        /* \"contracts/Mesa_Votantes.sol\":3240:3388  function obtenerRecuentoVotos(uint256 _mesaIndex) public view returns (uint256[] memory) {... */\n      swap2\n      swap1\n      pop\n      jump\t// out\n        /* \"@openzeppelin/contracts/access/Ownable.sol\":2543:2758  function transferOwnership(address newOwner) public virtual onlyOwner {... */\n    tag_151:\n        /* \"@openzeppelin/contracts/access/Ownable.sol\":1531:1544  _checkOwner() */\n      tag_286\n        /* \"@openzeppelin/contracts/access/Ownable.sol\":1531:1542  _checkOwner */\n      tag_191\n        /* \"@openzeppelin/contracts/access/Ownable.sol\":1531:1544  _checkOwner() */\n      jump\t// in\n    tag_286:\n        /* \"@openzeppelin/contracts/access/Ownable.sol\":2647:2648  0 */\n      0x00\n        /* \"@openzeppelin/contracts/access/Ownable.sol\":2627:2649  newOwner == address(0) */\n      0xffffffffffffffffffffffffffffffffffffffff\n      and\n        /* \"@openzeppelin/contracts/access/Ownable.sol\":2627:2635  newOwner */\n      dup2\n        /* \"@openzeppelin/contracts/access/Ownable.sol\":2627:2649  newOwner == address(0) */\n      0xffffffffffffffffffffffffffffffffffffffff\n      and\n      sub\n        /* \"@openzeppelin/contracts/access/Ownable.sol\":2623:2714  if (newOwner == address(0)) {... */\n      tag_288\n      jumpi\n        /* \"@openzeppelin/contracts/access/Ownable.sol\":2700:2701  0 */\n      0x00\n        /* \"@openzeppelin/contracts/access/Ownable.sol\":2672:2703  OwnableInvalidOwner(address(0)) */\n      mload(0x40)\n      0x1e4fbdf700000000000000000000000000000000000000000000000000000000\n      dup2\n      mstore\n      0x04\n      add\n      tag_289\n      swap2\n      swap1\n      tag_98\n      jump\t// in\n    tag_289:\n      mload(0x40)\n      dup1\n      swap2\n      sub\n      swap1\n      revert\n        /* \"@openzeppelin/contracts/access/Ownable.sol\":2623:2714  if (newOwner == address(0)) {... */\n    tag_288:\n        /* \"@openzeppelin/contracts/access/Ownable.sol\":2723:2751  _transferOwnership(newOwner) */\n      tag_290\n        /* \"@openzeppelin/contracts/access/Ownable.sol\":2742:2750  newOwner */\n      dup2\n        /* \"@openzeppelin/contracts/access/Ownable.sol\":2723:2741  _transferOwnership */\n      tag_202\n        /* \"@openzeppelin/contracts/access/Ownable.sol\":2723:2751  _transferOwnership(newOwner) */\n      jump\t// in\n    tag_290:\n        /* \"@openzeppelin/contracts/access/Ownable.sol\":2543:2758  function transferOwnership(address newOwner) public virtual onlyOwner {... */\n      pop\n      jump\t// out\n        /* \"contracts/Mesa_Votantes.sol\":3685:4271  function contarRecuentoTotal() public view returns (string[] memory nombres, uint256[] memory votos) {... */\n    tag_154:\n        /* \"contracts/Mesa_Votantes.sol\":3737:3760  string[] memory nombres */\n      0x60\n        /* \"contracts/Mesa_Votantes.sol\":3762:3784  uint256[] memory votos */\n      dup1\n        /* \"contracts/Mesa_Votantes.sol\":3820:3830  candidatos */\n      0x06\n        /* \"contracts/Mesa_Votantes.sol\":3820:3837  candidatos.length */\n      dup1\n      sload\n      swap1\n      pop\n        /* \"contracts/Mesa_Votantes.sol\":3807:3838  new string[](candidatos.length) */\n      0xffffffffffffffff\n      dup2\n      gt\n      iszero\n      tag_292\n      jumpi\n      tag_293\n      tag_238\n      jump\t// in\n    tag_293:\n    tag_292:\n      mload(0x40)\n      swap1\n      dup1\n      dup3\n      mstore\n      dup1\n      0x20\n      mul\n      0x20\n      add\n      dup3\n      add\n      0x40\n      mstore\n      dup1\n      iszero\n      tag_294\n      jumpi\n      dup2\n      0x20\n      add\n    tag_295:\n      0x60\n      dup2\n      mstore\n      0x20\n      add\n      swap1\n      0x01\n      swap1\n      sub\n      swap1\n      dup2\n      tag_295\n      jumpi\n      swap1\n      pop\n    tag_294:\n      pop\n        /* \"contracts/Mesa_Votantes.sol\":3797:3838  nombres = new string[](candidatos.length) */\n      swap2\n      pop\n        /* \"contracts/Mesa_Votantes.sol\":3871:3881  candidatos */\n      0x06\n        /* \"contracts/Mesa_Votantes.sol\":3871:3888  candidatos.length */\n      dup1\n      sload\n      swap1\n      pop\n        /* \"contracts/Mesa_Votantes.sol\":3857:3889  new uint256[](candidatos.length) */\n      0xffffffffffffffff\n      dup2\n      gt\n      iszero\n      tag_296\n      jumpi\n      tag_297\n      tag_238\n      jump\t// in\n    tag_297:\n    tag_296:\n      mload(0x40)\n      swap1\n      dup1\n      dup3\n      mstore\n      dup1\n      0x20\n      mul\n      0x20\n      add\n      dup3\n      add\n      0x40\n      mstore\n      dup1\n      iszero\n      tag_298\n      jumpi\n      dup2\n      0x20\n      add\n      0x20\n      dup3\n      mul\n      dup1\n      calldatasize\n      dup4\n      calldatacopy\n      dup1\n      dup3\n      add\n      swap2\n      pop\n      pop\n      swap1\n      pop\n    tag_298:\n      pop\n        /* \"contracts/Mesa_Votantes.sol\":3849:3889  votos = new uint256[](candidatos.length) */\n      swap1\n      pop\n        /* \"contracts/Mesa_Votantes.sol\":3905:3914  uint256 i */\n      0x00\n        /* \"contracts/Mesa_Votantes.sol\":3900:4006  for (uint256 i = 0; i < candidatos.length; i++) {... */\n    tag_299:\n        /* \"contracts/Mesa_Votantes.sol\":3924:3934  candidatos */\n      0x06\n        /* \"contracts/Mesa_Votantes.sol\":3924:3941  candidatos.length */\n      dup1\n      sload\n      swap1\n      pop\n        /* \"contracts/Mesa_Votantes.sol\":3920:3921  i */\n      dup2\n        /* \"contracts/Mesa_Votantes.sol\":3920:3941  i < candidatos.length */\n      lt\n        /* \"contracts/Mesa_Votantes.sol\":3900:4006  for (uint256 i = 0; i < candidatos.length; i++) {... */\n      iszero\n      tag_300\n      jumpi\n        /* \"contracts/Mesa_Votantes.sol\":3976:3986  candidatos */\n      0x06\n        /* \"contracts/Mesa_Votantes.sol\":3987:3988  i */\n      dup2\n        /* \"contracts/Mesa_Votantes.sol\":3976:3989  candidatos[i] */\n      dup2\n      sload\n      dup2\n      lt\n      tag_302\n      jumpi\n      tag_303\n      tag_264\n      jump\t// in\n    tag_303:\n    tag_302:\n      swap1\n      0x00\n      mstore\n      keccak256(0x00, 0x20)\n      swap1\n      0x02\n      mul\n      add\n        /* \"contracts/Mesa_Votantes.sol\":3976:3994  candidatos[i].name */\n      0x00\n      add\n        /* \"contracts/Mesa_Votantes.sol\":3963:3994  nombres[i] = candidatos[i].name */\n      dup1\n      sload\n      tag_305\n      swap1\n      tag_159\n      jump\t// in\n    tag_305:\n      dup1\n      0x1f\n      add\n      0x20\n      dup1\n      swap2\n      div\n      mul\n      0x20\n      add\n      mload(0x40)\n      swap1\n      dup2\n      add\n      0x40\n      mstore\n      dup1\n      swap3\n      swap2\n      swap1\n      dup2\n      dup2\n      mstore\n      0x20\n      add\n      dup3\n      dup1\n      sload\n      tag_306\n      swap1\n      tag_159\n      jump\t// in\n    tag_306:\n      dup1\n      iszero\n      tag_307\n      jumpi\n      dup1\n      0x1f\n      lt\n      tag_308\n      jumpi\n      0x0100\n      dup1\n      dup4\n      sload\n      div\n      mul\n      dup4\n      mstore\n      swap2\n      0x20\n      add\n      swap2\n      jump(tag_307)\n    tag_308:\n      dup3\n      add\n      swap2\n      swap1\n      0x00\n      mstore\n      keccak256(0x00, 0x20)\n      swap1\n    tag_309:\n      dup2\n      sload\n      dup2\n      mstore\n      swap1\n      0x01\n      add\n      swap1\n      0x20\n      add\n      dup1\n      dup4\n      gt\n      tag_309\n      jumpi\n      dup3\n      swap1\n      sub\n      0x1f\n      and\n      dup3\n      add\n      swap2\n    tag_307:\n      pop\n      pop\n      pop\n      pop\n      pop\n        /* \"contracts/Mesa_Votantes.sol\":3963:3970  nombres */\n      dup4\n        /* \"contracts/Mesa_Votantes.sol\":3971:3972  i */\n      dup3\n        /* \"contracts/Mesa_Votantes.sol\":3963:3973  nombres[i] */\n      dup2\n      mload\n      dup2\n      lt\n      tag_310\n      jumpi\n      tag_311\n      tag_264\n      jump\t// in\n    tag_311:\n    tag_310:\n      0x20\n      mul\n      0x20\n      add\n      add\n        /* \"contracts/Mesa_Votantes.sol\":3963:3994  nombres[i] = candidatos[i].name */\n      dup2\n      swap1\n      mstore\n      pop\n        /* \"contracts/Mesa_Votantes.sol\":3943:3946  i++ */\n      dup1\n      dup1\n      0x01\n      add\n      swap2\n      pop\n      pop\n        /* \"contracts/Mesa_Votantes.sol\":3900:4006  for (uint256 i = 0; i < candidatos.length; i++) {... */\n      jump(tag_299)\n    tag_300:\n      pop\n        /* \"contracts/Mesa_Votantes.sol\":4021:4030  uint256 i */\n      0x00\n        /* \"contracts/Mesa_Votantes.sol\":4033:4034  1 */\n      0x01\n        /* \"contracts/Mesa_Votantes.sol\":4021:4034  uint256 i = 1 */\n      swap1\n      pop\n        /* \"contracts/Mesa_Votantes.sol\":4016:4264  for (uint256 i = 1; i <= numMesas; i++) {... */\n    tag_312:\n        /* \"contracts/Mesa_Votantes.sol\":4041:4049  numMesas */\n      sload(0x0a)\n        /* \"contracts/Mesa_Votantes.sol\":4036:4037  i */\n      dup2\n        /* \"contracts/Mesa_Votantes.sol\":4036:4049  i <= numMesas */\n      gt\n        /* \"contracts/Mesa_Votantes.sol\":4016:4264  for (uint256 i = 1; i <= numMesas; i++) {... */\n      tag_313\n      jumpi\n        /* \"contracts/Mesa_Votantes.sol\":4071:4100  uint256[] memory recuentoMesa */\n      0x00\n        /* \"contracts/Mesa_Votantes.sol\":4103:4126  obtenerRecuentoVotos(i) */\n      tag_315\n        /* \"contracts/Mesa_Votantes.sol\":4124:4125  i */\n      dup3\n        /* \"contracts/Mesa_Votantes.sol\":4103:4123  obtenerRecuentoVotos */\n      tag_145\n        /* \"contracts/Mesa_Votantes.sol\":4103:4126  obtenerRecuentoVotos(i) */\n      jump\t// in\n    tag_315:\n        /* \"contracts/Mesa_Votantes.sol\":4071:4126  uint256[] memory recuentoMesa = obtenerRecuentoVotos(i) */\n      swap1\n      pop\n        /* \"contracts/Mesa_Votantes.sol\":4146:4155  uint256 j */\n      0x00\n        /* \"contracts/Mesa_Votantes.sol\":4141:4253  for (uint256 j = 0; j < recuentoMesa.length; j++) {... */\n    tag_316:\n        /* \"contracts/Mesa_Votantes.sol\":4165:4177  recuentoMesa */\n      dup2\n        /* \"contracts/Mesa_Votantes.sol\":4165:4184  recuentoMesa.length */\n      mload\n        /* \"contracts/Mesa_Votantes.sol\":4161:4162  j */\n      dup2\n        /* \"contracts/Mesa_Votantes.sol\":4161:4184  j < recuentoMesa.length */\n      lt\n        /* \"contracts/Mesa_Votantes.sol\":4141:4253  for (uint256 j = 0; j < recuentoMesa.length; j++) {... */\n      iszero\n      tag_317\n      jumpi\n        /* \"contracts/Mesa_Votantes.sol\":4222:4234  recuentoMesa */\n      dup2\n        /* \"contracts/Mesa_Votantes.sol\":4235:4236  j */\n      dup2\n        /* \"contracts/Mesa_Votantes.sol\":4222:4237  recuentoMesa[j] */\n      dup2\n      mload\n      dup2\n      lt\n      tag_319\n      jumpi\n      tag_320\n      tag_264\n      jump\t// in\n    tag_320:\n    tag_319:\n      0x20\n      mul\n      0x20\n      add\n      add\n      mload\n        /* \"contracts/Mesa_Votantes.sol\":4210:4215  votos */\n      dup5\n        /* \"contracts/Mesa_Votantes.sol\":4216:4217  j */\n      dup3\n        /* \"contracts/Mesa_Votantes.sol\":4210:4218  votos[j] */\n      dup2\n      mload\n      dup2\n      lt\n      tag_321\n      jumpi\n      tag_322\n      tag_264\n      jump\t// in\n    tag_322:\n    tag_321:\n      0x20\n      mul\n      0x20\n      add\n      add\n        /* \"contracts/Mesa_Votantes.sol\":4210:4237  votos[j] += recuentoMesa[j] */\n      dup2\n      dup2\n      mload\n      tag_323\n      swap2\n      swap1\n      tag_324\n      jump\t// in\n    tag_323:\n      swap2\n      pop\n      dup2\n      dup2\n      mstore\n      pop\n      pop\n        /* \"contracts/Mesa_Votantes.sol\":4186:4189  j++ */\n      dup1\n      dup1\n      0x01\n      add\n      swap2\n      pop\n      pop\n        /* \"contracts/Mesa_Votantes.sol\":4141:4253  for (uint256 j = 0; j < recuentoMesa.length; j++) {... */\n      jump(tag_316)\n    tag_317:\n      pop\n        /* \"contracts/Mesa_Votantes.sol\":4056:4264  {... */\n      pop\n        /* \"contracts/Mesa_Votantes.sol\":4051:4054  i++ */\n      dup1\n      dup1\n      tag_325\n      swap1\n      tag_233\n      jump\t// in\n    tag_325:\n      swap2\n      pop\n      pop\n        /* \"contracts/Mesa_Votantes.sol\":4016:4264  for (uint256 i = 1; i <= numMesas; i++) {... */\n      jump(tag_312)\n    tag_313:\n      pop\n        /* \"contracts/Mesa_Votantes.sol\":3685:4271  function contarRecuentoTotal() public view returns (string[] memory nombres, uint256[] memory votos) {... */\n      swap1\n      swap2\n      jump\t// out\n        /* \"@openzeppelin/contracts/utils/Context.sol\":656:752  function _msgSender() internal view virtual returns (address) {... */\n    tag_166:\n        /* \"@openzeppelin/contracts/utils/Context.sol\":709:716  address */\n      0x00\n        /* \"@openzeppelin/contracts/utils/Context.sol\":735:745  msg.sender */\n      caller\n        /* \"@openzeppelin/contracts/utils/Context.sol\":728:745  return msg.sender */\n      swap1\n      pop\n        /* \"@openzeppelin/contracts/utils/Context.sol\":656:752  function _msgSender() internal view virtual returns (address) {... */\n      swap1\n      jump\t// out\n        /* \"@openzeppelin/contracts/token/ERC20/ERC20.sol\":8989:9117  function _approve(address owner, address spender, uint256 value) internal {... */\n    tag_168:\n        /* \"@openzeppelin/contracts/token/ERC20/ERC20.sol\":9073:9110  _approve(owner, spender, value, true) */\n      tag_328\n        /* \"@openzeppelin/contracts/token/ERC20/ERC20.sol\":9082:9087  owner */\n      dup4\n        /* \"@openzeppelin/contracts/token/ERC20/ERC20.sol\":9089:9096  spender */\n      dup4\n        /* \"@openzeppelin/contracts/token/ERC20/ERC20.sol\":9098:9103  value */\n      dup4\n        /* \"@openzeppelin/contracts/token/ERC20/ERC20.sol\":9105:9109  true */\n      0x01\n        /* \"@openzeppelin/contracts/token/ERC20/ERC20.sol\":9073:9081  _approve */\n      tag_329\n        /* \"@openzeppelin/contracts/token/ERC20/ERC20.sol\":9073:9110  _approve(owner, spender, value, true) */\n      jump\t// in\n    tag_328:\n        /* \"@openzeppelin/contracts/token/ERC20/ERC20.sol\":8989:9117  function _approve(address owner, address spender, uint256 value) internal {... */\n      pop\n      pop\n      pop\n      jump\t// out\n        /* \"@openzeppelin/contracts/token/ERC20/ERC20.sol\":10663:11140  function _spendAllowance(address owner, address spender, uint256 value) internal virtual {... */\n    tag_182:\n        /* \"@openzeppelin/contracts/token/ERC20/ERC20.sol\":10762:10786  uint256 currentAllowance */\n      0x00\n        /* \"@openzeppelin/contracts/token/ERC20/ERC20.sol\":10789:10814  allowance(owner, spender) */\n      tag_331\n        /* \"@openzeppelin/contracts/token/ERC20/ERC20.sol\":10799:10804  owner */\n      dup5\n        /* \"@openzeppelin/contracts/token/ERC20/ERC20.sol\":10806:10813  spender */\n      dup5\n        /* \"@openzeppelin/contracts/token/ERC20/ERC20.sol\":10789:10798  allowance */\n      tag_131\n        /* \"@openzeppelin/contracts/token/ERC20/ERC20.sol\":10789:10814  allowance(owner, spender) */\n      jump\t// in\n    tag_331:\n        /* \"@openzeppelin/contracts/token/ERC20/ERC20.sol\":10762:10814  uint256 currentAllowance = allowance(owner, spender) */\n      swap1\n      pop\n        /* \"@openzeppelin/contracts/token/ERC20/ERC20.sol\":10848:10865  type(uint256).max */\n      0xffffffffffffffffffffffffffffffffffffffffffffffffffffffffffffffff\n        /* \"@openzeppelin/contracts/token/ERC20/ERC20.sol\":10828:10844  currentAllowance */\n      dup2\n        /* \"@openzeppelin/contracts/token/ERC20/ERC20.sol\":10828:10865  currentAllowance != type(uint256).max */\n      eq\n        /* \"@openzeppelin/contracts/token/ERC20/ERC20.sol\":10824:11134  if (currentAllowance != type(uint256).max) {... */\n      tag_332\n      jumpi\n        /* \"@openzeppelin/contracts/token/ERC20/ERC20.sol\":10904:10909  value */\n      dup2\n        /* \"@openzeppelin/contracts/token/ERC20/ERC20.sol\":10885:10901  currentAllowance */\n      dup2\n        /* \"@openzeppelin/contracts/token/ERC20/ERC20.sol\":10885:10909  currentAllowance < value */\n      lt\n        /* \"@openzeppelin/contracts/token/ERC20/ERC20.sol\":10881:11011  if (currentAllowance < value) {... */\n      iszero\n      tag_333\n      jumpi\n        /* \"@openzeppelin/contracts/token/ERC20/ERC20.sol\":10963:10970  spender */\n      dup3\n        /* \"@openzeppelin/contracts/token/ERC20/ERC20.sol\":10972:10988  currentAllowance */\n      dup2\n        /* \"@openzeppelin/contracts/token/ERC20/ERC20.sol\":10990:10995  value */\n      dup4\n        /* \"@openzeppelin/contracts/token/ERC20/ERC20.sol\":10936:10996  ERC20InsufficientAllowance(spender, currentAllowance, value) */\n      mload(0x40)\n      0xfb8f41b200000000000000000000000000000000000000000000000000000000\n      dup2\n      mstore\n      0x04\n      add\n      tag_334\n      swap4\n      swap3\n      swap2\n      swap1\n      tag_335\n      jump\t// in\n    tag_334:\n      mload(0x40)\n      dup1\n      swap2\n      sub\n      swap1\n      revert\n        /* \"@openzeppelin/contracts/token/ERC20/ERC20.sol\":10881:11011  if (currentAllowance < value) {... */\n    tag_333:\n        /* \"@openzeppelin/contracts/token/ERC20/ERC20.sol\":11052:11109  _approve(owner, spender, currentAllowance - value, false) */\n      tag_336\n        /* \"@openzeppelin/contracts/token/ERC20/ERC20.sol\":11061:11066  owner */\n      dup5\n        /* \"@openzeppelin/contracts/token/ERC20/ERC20.sol\":11068:11075  spender */\n      dup5\n        /* \"@openzeppelin/contracts/token/ERC20/ERC20.sol\":11096:11101  value */\n      dup5\n        /* \"@openzeppelin/contracts/token/ERC20/ERC20.sol\":11077:11093  currentAllowance */\n      dup5\n        /* \"@openzeppelin/contracts/token/ERC20/ERC20.sol\":11077:11101  currentAllowance - value */\n      sub\n        /* \"@openzeppelin/contracts/token/ERC20/ERC20.sol\":11103:11108  false */\n      0x00\n        /* \"@openzeppelin/contracts/token/ERC20/ERC20.sol\":11052:11060  _approve */\n      tag_329\n        /* \"@openzeppelin/contracts/token/ERC20/ERC20.sol\":11052:11109  _approve(owner, spender, currentAllowance - value, false) */\n      jump\t// in\n    tag_336:\n        /* \"@openzeppelin/contracts/token/ERC20/ERC20.sol\":10824:11134  if (currentAllowance != type(uint256).max) {... */\n    tag_332:\n        /* \"@openzeppelin/contracts/token/ERC20/ERC20.sol\":10752:11140  {... */\n      pop\n        /* \"@openzeppelin/contracts/token/ERC20/ERC20.sol\":10663:11140  function _spendAllowance(address owner, address spender, uint256 value) internal virtual {... */\n      pop\n      pop\n      pop\n      jump\t// out\n        /* \"@openzeppelin/contracts/token/ERC20/ERC20.sol\":5656:5956  function _transfer(address from, address to, uint256 value) internal {... */\n    tag_184:\n        /* \"@openzeppelin/contracts/token/ERC20/ERC20.sol\":5755:5756  0 */\n      0x00\n        /* \"@openzeppelin/contracts/token/ERC20/ERC20.sol\":5739:5757  from == address(0) */\n      0xffffffffffffffffffffffffffffffffffffffff\n      and\n        /* \"@openzeppelin/contracts/token/ERC20/ERC20.sol\":5739:5743  from */\n      dup4\n        /* \"@openzeppelin/contracts/token/ERC20/ERC20.sol\":5739:5757  from == address(0) */\n      0xffffffffffffffffffffffffffffffffffffffff\n      and\n      sub\n        /* \"@openzeppelin/contracts/token/ERC20/ERC20.sol\":5735:5821  if (from == address(0)) {... */\n      tag_338\n      jumpi\n        /* \"@openzeppelin/contracts/token/ERC20/ERC20.sol\":5807:5808  0 */\n      0x00\n        /* \"@openzeppelin/contracts/token/ERC20/ERC20.sol\":5780:5810  ERC20InvalidSender(address(0)) */\n      mload(0x40)\n      0x96c6fd1e00000000000000000000000000000000000000000000000000000000\n      dup2\n      mstore\n      0x04\n      add\n      tag_339\n      swap2\n      swap1\n      tag_98\n      jump\t// in\n    tag_339:\n      mload(0x40)\n      dup1\n      swap2\n      sub\n      swap1\n      revert\n        /* \"@openzeppelin/contracts/token/ERC20/ERC20.sol\":5735:5821  if (from == address(0)) {... */\n    tag_338:\n        /* \"@openzeppelin/contracts/token/ERC20/ERC20.sol\":5848:5849  0 */\n      0x00\n        /* \"@openzeppelin/contracts/token/ERC20/ERC20.sol\":5834:5850  to == address(0) */\n      0xffffffffffffffffffffffffffffffffffffffff\n      and\n        /* \"@openzeppelin/contracts/token/ERC20/ERC20.sol\":5834:5836  to */\n      dup3\n        /* \"@openzeppelin/contracts/token/ERC20/ERC20.sol\":5834:5850  to == address(0) */\n      0xffffffffffffffffffffffffffffffffffffffff\n      and\n      sub\n        /* \"@openzeppelin/contracts/token/ERC20/ERC20.sol\":5830:5916  if (to == address(0)) {... */\n      tag_340\n      jumpi\n        /* \"@openzeppelin/contracts/token/ERC20/ERC20.sol\":5902:5903  0 */\n      0x00\n        /* \"@openzeppelin/contracts/token/ERC20/ERC20.sol\":5873:5905  ERC20InvalidReceiver(address(0)) */\n      mload(0x40)\n      0xec442f0500000000000000000000000000000000000000000000000000000000\n      dup2\n      mstore\n      0x04\n      add\n      tag_341\n      swap2\n      swap1\n      tag_98\n      jump\t// in\n    tag_341:\n      mload(0x40)\n      dup1\n      swap2\n      sub\n      swap1\n      revert\n        /* \"@openzeppelin/contracts/token/ERC20/ERC20.sol\":5830:5916  if (to == address(0)) {... */\n    tag_340:\n        /* \"@openzeppelin/contracts/token/ERC20/ERC20.sol\":5925:5949  _update(from, to, value) */\n      tag_342\n        /* \"@openzeppelin/contracts/token/ERC20/ERC20.sol\":5933:5937  from */\n      dup4\n        /* \"@openzeppelin/contracts/token/ERC20/ERC20.sol\":5939:5941  to */\n      dup4\n        /* \"@openzeppelin/contracts/token/ERC20/ERC20.sol\":5943:5948  value */\n      dup4\n        /* \"@openzeppelin/contracts/token/ERC20/ERC20.sol\":5925:5932  _update */\n      tag_343\n        /* \"@openzeppelin/contracts/token/ERC20/ERC20.sol\":5925:5949  _update(from, to, value) */\n      jump\t// in\n    tag_342:\n        /* \"@openzeppelin/contracts/token/ERC20/ERC20.sol\":5656:5956  function _transfer(address from, address to, uint256 value) internal {... */\n      pop\n      pop\n      pop\n      jump\t// out\n        /* \"@openzeppelin/contracts/access/Ownable.sol\":1796:1958  function _checkOwner() internal view virtual {... */\n    tag_191:\n        /* \"@openzeppelin/contracts/access/Ownable.sol\":1866:1878  _msgSender() */\n      tag_345\n        /* \"@openzeppelin/contracts/access/Ownable.sol\":1866:1876  _msgSender */\n      tag_166\n        /* \"@openzeppelin/contracts/access/Ownable.sol\":1866:1878  _msgSender() */\n      jump\t// in\n    tag_345:\n        /* \"@openzeppelin/contracts/access/Ownable.sol\":1855:1878  owner() != _msgSender() */\n      0xffffffffffffffffffffffffffffffffffffffff\n      and\n        /* \"@openzeppelin/contracts/access/Ownable.sol\":1855:1862  owner() */\n      tag_346\n        /* \"@openzeppelin/contracts/access/Ownable.sol\":1855:1860  owner */\n      tag_96\n        /* \"@openzeppelin/contracts/access/Ownable.sol\":1855:1862  owner() */\n      jump\t// in\n    tag_346:\n        /* \"@openzeppelin/contracts/access/Ownable.sol\":1855:1878  owner() != _msgSender() */\n      0xffffffffffffffffffffffffffffffffffffffff\n      and\n      eq\n        /* \"@openzeppelin/contracts/access/Ownable.sol\":1851:1952  if (owner() != _msgSender()) {... */\n      tag_347\n      jumpi\n        /* \"@openzeppelin/contracts/access/Ownable.sol\":1928:1940  _msgSender() */\n      tag_348\n        /* \"@openzeppelin/contracts/access/Ownable.sol\":1928:1938  _msgSender */\n      tag_166\n        /* \"@openzeppelin/contracts/access/Ownable.sol\":1928:1940  _msgSender() */\n      jump\t// in\n    tag_348:\n        /* \"@openzeppelin/contracts/access/Ownable.sol\":1901:1941  OwnableUnauthorizedAccount(_msgSender()) */\n      mload(0x40)\n      0x118cdaa700000000000000000000000000000000000000000000000000000000\n      dup2\n      mstore\n      0x04\n      add\n      tag_349\n      swap2\n      swap1\n      tag_98\n      jump\t// in\n    tag_349:\n      mload(0x40)\n      dup1\n      swap2\n      sub\n      swap1\n      revert\n        /* \"@openzeppelin/contracts/access/Ownable.sol\":1851:1952  if (owner() != _msgSender()) {... */\n    tag_347:\n        /* \"@openzeppelin/contracts/access/Ownable.sol\":1796:1958  function _checkOwner() internal view virtual {... */\n      jump\t// out\n        /* \"@openzeppelin/contracts/access/Ownable.sol\":2912:3099  function _transferOwnership(address newOwner) internal virtual {... */\n    tag_202:\n        /* \"@openzeppelin/contracts/access/Ownable.sol\":2985:3001  address oldOwner */\n      0x00\n        /* \"@openzeppelin/contracts/access/Ownable.sol\":3004:3010  _owner */\n      0x05\n      0x00\n      swap1\n      sload\n      swap1\n      0x0100\n      exp\n      swap1\n      div\n      0xffffffffffffffffffffffffffffffffffffffff\n      and\n        /* \"@openzeppelin/contracts/access/Ownable.sol\":2985:3010  address oldOwner = _owner */\n      swap1\n      pop\n        /* \"@openzeppelin/contracts/access/Ownable.sol\":3029:3037  newOwner */\n      dup2\n        /* \"@openzeppelin/contracts/access/Ownable.sol\":3020:3026  _owner */\n      0x05\n      0x00\n        /* \"@openzeppelin/contracts/access/Ownable.sol\":3020:3037  _owner = newOwner */\n      0x0100\n      exp\n      dup2\n      sload\n      dup2\n      0xffffffffffffffffffffffffffffffffffffffff\n      mul\n      not\n      and\n      swap1\n      dup4\n      0xffffffffffffffffffffffffffffffffffffffff\n      and\n      mul\n      or\n      swap1\n      sstore\n      pop\n        /* \"@openzeppelin/contracts/access/Ownable.sol\":3083:3091  newOwner */\n      dup2\n        /* \"@openzeppelin/contracts/access/Ownable.sol\":3052:3092  OwnershipTransferred(oldOwner, newOwner) */\n      0xffffffffffffffffffffffffffffffffffffffff\n      and\n        /* \"@openzeppelin/contracts/access/Ownable.sol\":3073:3081  oldOwner */\n      dup2\n        /* \"@openzeppelin/contracts/access/Ownable.sol\":3052:3092  OwnershipTransferred(oldOwner, newOwner) */\n      0xffffffffffffffffffffffffffffffffffffffff\n      and\n      0x8be0079c531659141344cd1fd0a4f28419497f9722a3daafe3b4186f6b6457e0\n      mload(0x40)\n      mload(0x40)\n      dup1\n      swap2\n      sub\n      swap1\n      log3\n        /* \"@openzeppelin/contracts/access/Ownable.sol\":2975:3099  {... */\n      pop\n        /* \"@openzeppelin/contracts/access/Ownable.sol\":2912:3099  function _transferOwnership(address newOwner) internal virtual {... */\n      pop\n      jump\t// out\n        /* \"@openzeppelin/contracts/token/ERC20/ERC20.sol\":7721:7929  function _mint(address account, uint256 value) internal {... */\n    tag_228:\n        /* \"@openzeppelin/contracts/token/ERC20/ERC20.sol\":7810:7811  0 */\n      0x00\n        /* \"@openzeppelin/contracts/token/ERC20/ERC20.sol\":7791:7812  account == address(0) */\n      0xffffffffffffffffffffffffffffffffffffffff\n      and\n        /* \"@openzeppelin/contracts/token/ERC20/ERC20.sol\":7791:7798  account */\n      dup3\n        /* \"@openzeppelin/contracts/token/ERC20/ERC20.sol\":7791:7812  account == address(0) */\n      0xffffffffffffffffffffffffffffffffffffffff\n      and\n      sub\n        /* \"@openzeppelin/contracts/token/ERC20/ERC20.sol\":7787:7878  if (account == address(0)) {... */\n      tag_352\n      jumpi\n        /* \"@openzeppelin/contracts/token/ERC20/ERC20.sol\":7864:7865  0 */\n      0x00\n        /* \"@openzeppelin/contracts/token/ERC20/ERC20.sol\":7835:7867  ERC20InvalidReceiver(address(0)) */\n      mload(0x40)\n      0xec442f0500000000000000000000000000000000000000000000000000000000\n      dup2\n      mstore\n      0x04\n      add\n      tag_353\n      swap2\n      swap1\n      tag_98\n      jump\t// in\n    tag_353:\n      mload(0x40)\n      dup1\n      swap2\n      sub\n      swap1\n      revert\n        /* \"@openzeppelin/contracts/token/ERC20/ERC20.sol\":7787:7878  if (account == address(0)) {... */\n    tag_352:\n        /* \"@openzeppelin/contracts/token/ERC20/ERC20.sol\":7887:7922  _update(address(0), account, value) */\n      tag_354\n        /* \"@openzeppelin/contracts/token/ERC20/ERC20.sol\":7903:7904  0 */\n      0x00\n        /* \"@openzeppelin/contracts/token/ERC20/ERC20.sol\":7907:7914  account */\n      dup4\n        /* \"@openzeppelin/contracts/token/ERC20/ERC20.sol\":7916:7921  value */\n      dup4\n        /* \"@openzeppelin/contracts/token/ERC20/ERC20.sol\":7887:7894  _update */\n      tag_343\n        /* \"@openzeppelin/contracts/token/ERC20/ERC20.sol\":7887:7922  _update(address(0), account, value) */\n      jump\t// in\n    tag_354:\n        /* \"@openzeppelin/contracts/token/ERC20/ERC20.sol\":7721:7929  function _mint(address account, uint256 value) internal {... */\n      pop\n      pop\n      jump\t// out\n        /* \"@openzeppelin/contracts/token/ERC20/ERC20.sol\":8247:8453  function _burn(address account, uint256 value) internal {... */\n    tag_261:\n        /* \"@openzeppelin/contracts/token/ERC20/ERC20.sol\":8336:8337  0 */\n      0x00\n        /* \"@openzeppelin/contracts/token/ERC20/ERC20.sol\":8317:8338  account == address(0) */\n      0xffffffffffffffffffffffffffffffffffffffff\n      and\n        /* \"@openzeppelin/contracts/token/ERC20/ERC20.sol\":8317:8324  account */\n      dup3\n        /* \"@openzeppelin/contracts/token/ERC20/ERC20.sol\":8317:8338  account == address(0) */\n      0xffffffffffffffffffffffffffffffffffffffff\n      and\n      sub\n        /* \"@openzeppelin/contracts/token/ERC20/ERC20.sol\":8313:8402  if (account == address(0)) {... */\n      tag_356\n      jumpi\n        /* \"@openzeppelin/contracts/token/ERC20/ERC20.sol\":8388:8389  0 */\n      0x00\n        /* \"@openzeppelin/contracts/token/ERC20/ERC20.sol\":8361:8391  ERC20InvalidSender(address(0)) */\n      mload(0x40)\n      0x96c6fd1e00000000000000000000000000000000000000000000000000000000\n      dup2\n      mstore\n      0x04\n      add\n      tag_357\n      swap2\n      swap1\n      tag_98\n      jump\t// in\n    tag_357:\n      mload(0x40)\n      dup1\n      swap2\n      sub\n      swap1\n      revert\n        /* \"@openzeppelin/contracts/token/ERC20/ERC20.sol\":8313:8402  if (account == address(0)) {... */\n    tag_356:\n        /* \"@openzeppelin/contracts/token/ERC20/ERC20.sol\":8411:8446  _update(account, address(0), value) */\n      tag_358\n        /* \"@openzeppelin/contracts/token/ERC20/ERC20.sol\":8419:8426  account */\n      dup3\n        /* \"@openzeppelin/contracts/token/ERC20/ERC20.sol\":8436:8437  0 */\n      0x00\n        /* \"@openzeppelin/contracts/token/ERC20/ERC20.sol\":8440:8445  value */\n      dup4\n        /* \"@openzeppelin/contracts/token/ERC20/ERC20.sol\":8411:8418  _update */\n      tag_343\n        /* \"@openzeppelin/contracts/token/ERC20/ERC20.sol\":8411:8446  _update(account, address(0), value) */\n      jump\t// in\n    tag_358:\n        /* \"@openzeppelin/contracts/token/ERC20/ERC20.sol\":8247:8453  function _burn(address account, uint256 value) internal {... */\n      pop\n      pop\n      jump\t// out\n        /* \"@openzeppelin/contracts/token/ERC20/ERC20.sol\":9949:10381  function _approve(address owner, address spender, uint256 value, bool emitEvent) internal virtual {... */\n    tag_329:\n        /* \"@openzeppelin/contracts/token/ERC20/ERC20.sol\":10078:10079  0 */\n      0x00\n        /* \"@openzeppelin/contracts/token/ERC20/ERC20.sol\":10061:10080  owner == address(0) */\n      0xffffffffffffffffffffffffffffffffffffffff\n      and\n        /* \"@openzeppelin/contracts/token/ERC20/ERC20.sol\":10061:10066  owner */\n      dup5\n        /* \"@openzeppelin/contracts/token/ERC20/ERC20.sol\":10061:10080  owner == address(0) */\n      0xffffffffffffffffffffffffffffffffffffffff\n      and\n      sub\n        /* \"@openzeppelin/contracts/token/ERC20/ERC20.sol\":10057:10146  if (owner == address(0)) {... */\n      tag_360\n      jumpi\n        /* \"@openzeppelin/contracts/token/ERC20/ERC20.sol\":10132:10133  0 */\n      0x00\n        /* \"@openzeppelin/contracts/token/ERC20/ERC20.sol\":10103:10135  ERC20InvalidApprover(address(0)) */\n      mload(0x40)\n      0xe602df0500000000000000000000000000000000000000000000000000000000\n      dup2\n      mstore\n      0x04\n      add\n      tag_361\n      swap2\n      swap1\n      tag_98\n      jump\t// in\n    tag_361:\n      mload(0x40)\n      dup1\n      swap2\n      sub\n      swap1\n      revert\n        /* \"@openzeppelin/contracts/token/ERC20/ERC20.sol\":10057:10146  if (owner == address(0)) {... */\n    tag_360:\n        /* \"@openzeppelin/contracts/token/ERC20/ERC20.sol\":10178:10179  0 */\n      0x00\n        /* \"@openzeppelin/contracts/token/ERC20/ERC20.sol\":10159:10180  spender == address(0) */\n      0xffffffffffffffffffffffffffffffffffffffff\n      and\n        /* \"@openzeppelin/contracts/token/ERC20/ERC20.sol\":10159:10166  spender */\n      dup4\n        /* \"@openzeppelin/contracts/token/ERC20/ERC20.sol\":10159:10180  spender == address(0) */\n      0xffffffffffffffffffffffffffffffffffffffff\n      and\n      sub\n        /* \"@openzeppelin/contracts/token/ERC20/ERC20.sol\":10155:10245  if (spender == address(0)) {... */\n      tag_362\n      jumpi\n        /* \"@openzeppelin/contracts/token/ERC20/ERC20.sol\":10231:10232  0 */\n      0x00\n        /* \"@openzeppelin/contracts/token/ERC20/ERC20.sol\":10203:10234  ERC20InvalidSpender(address(0)) */\n      mload(0x40)\n      0x94280d6200000000000000000000000000000000000000000000000000000000\n      dup2\n      mstore\n      0x04\n      add\n      tag_363\n      swap2\n      swap1\n      tag_98\n      jump\t// in\n    tag_363:\n      mload(0x40)\n      dup1\n      swap2\n      sub\n      swap1\n      revert\n        /* \"@openzeppelin/contracts/token/ERC20/ERC20.sol\":10155:10245  if (spender == address(0)) {... */\n    tag_362:\n        /* \"@openzeppelin/contracts/token/ERC20/ERC20.sol\":10284:10289  value */\n      dup2\n        /* \"@openzeppelin/contracts/token/ERC20/ERC20.sol\":10254:10265  _allowances */\n      0x01\n        /* \"@openzeppelin/contracts/token/ERC20/ERC20.sol\":10254:10272  _allowances[owner] */\n      0x00\n        /* \"@openzeppelin/contracts/token/ERC20/ERC20.sol\":10266:10271  owner */\n      dup7\n        /* \"@openzeppelin/contracts/token/ERC20/ERC20.sol\":10254:10272  _allowances[owner] */\n      0xffffffffffffffffffffffffffffffffffffffff\n      and\n      0xffffffffffffffffffffffffffffffffffffffff\n      and\n      dup2\n      mstore\n      0x20\n      add\n      swap1\n      dup2\n      mstore\n      0x20\n      add\n      0x00\n      keccak256\n        /* \"@openzeppelin/contracts/token/ERC20/ERC20.sol\":10254:10281  _allowances[owner][spender] */\n      0x00\n        /* \"@openzeppelin/contracts/token/ERC20/ERC20.sol\":10273:10280  spender */\n      dup6\n        /* \"@openzeppelin/contracts/token/ERC20/ERC20.sol\":10254:10281  _allowances[owner][spender] */\n      0xffffffffffffffffffffffffffffffffffffffff\n      and\n      0xffffffffffffffffffffffffffffffffffffffff\n      and\n      dup2\n      mstore\n      0x20\n      add\n      swap1\n      dup2\n      mstore\n      0x20\n      add\n      0x00\n      keccak256\n        /* \"@openzeppelin/contracts/token/ERC20/ERC20.sol\":10254:10289  _allowances[owner][spender] = value */\n      dup2\n      swap1\n      sstore\n      pop\n        /* \"@openzeppelin/contracts/token/ERC20/ERC20.sol\":10303:10312  emitEvent */\n      dup1\n        /* \"@openzeppelin/contracts/token/ERC20/ERC20.sol\":10299:10375  if (emitEvent) {... */\n      iszero\n      tag_364\n      jumpi\n        /* \"@openzeppelin/contracts/token/ERC20/ERC20.sol\":10349:10356  spender */\n      dup3\n        /* \"@openzeppelin/contracts/token/ERC20/ERC20.sol\":10333:10364  Approval(owner, spender, value) */\n      0xffffffffffffffffffffffffffffffffffffffff\n      and\n        /* \"@openzeppelin/contracts/token/ERC20/ERC20.sol\":10342:10347  owner */\n      dup5\n        /* \"@openzeppelin/contracts/token/ERC20/ERC20.sol\":10333:10364  Approval(owner, spender, value) */\n      0xffffffffffffffffffffffffffffffffffffffff\n      and\n      0x8c5be1e5ebec7d5bd14f71427d1e84f3dd0314c0f7b2291e5b200ac8c7c3b925\n        /* \"@openzeppelin/contracts/token/ERC20/ERC20.sol\":10358:10363  value */\n      dup5\n        /* \"@openzeppelin/contracts/token/ERC20/ERC20.sol\":10333:10364  Approval(owner, spender, value) */\n      mload(0x40)\n      tag_365\n      swap2\n      swap1\n      tag_47\n      jump\t// in\n    tag_365:\n      mload(0x40)\n      dup1\n      swap2\n      sub\n      swap1\n      log3\n        /* \"@openzeppelin/contracts/token/ERC20/ERC20.sol\":10299:10375  if (emitEvent) {... */\n    tag_364:\n        /* \"@openzeppelin/contracts/token/ERC20/ERC20.sol\":9949:10381  function _approve(address owner, address spender, uint256 value, bool emitEvent) internal virtual {... */\n      pop\n      pop\n      pop\n      pop\n      jump\t// out\n        /* \"@openzeppelin/contracts/token/ERC20/ERC20.sol\":6271:7378  function _update(address from, address to, uint256 value) internal virtual {... */\n    tag_343:\n        /* \"@openzeppelin/contracts/token/ERC20/ERC20.sol\":6376:6377  0 */\n      0x00\n        /* \"@openzeppelin/contracts/token/ERC20/ERC20.sol\":6360:6378  from == address(0) */\n      0xffffffffffffffffffffffffffffffffffffffff\n      and\n        /* \"@openzeppelin/contracts/token/ERC20/ERC20.sol\":6360:6364  from */\n      dup4\n        /* \"@openzeppelin/contracts/token/ERC20/ERC20.sol\":6360:6378  from == address(0) */\n      0xffffffffffffffffffffffffffffffffffffffff\n      and\n      sub\n        /* \"@openzeppelin/contracts/token/ERC20/ERC20.sol\":6356:6896  if (from == address(0)) {... */\n      tag_367\n      jumpi\n        /* \"@openzeppelin/contracts/token/ERC20/ERC20.sol\":6512:6517  value */\n      dup1\n        /* \"@openzeppelin/contracts/token/ERC20/ERC20.sol\":6496:6508  _totalSupply */\n      0x02\n      0x00\n        /* \"@openzeppelin/contracts/token/ERC20/ERC20.sol\":6496:6517  _totalSupply += value */\n      dup3\n      dup3\n      sload\n      tag_368\n      swap2\n      swap1\n      tag_324\n      jump\t// in\n    tag_368:\n      swap3\n      pop\n      pop\n      dup2\n      swap1\n      sstore\n      pop\n        /* \"@openzeppelin/contracts/token/ERC20/ERC20.sol\":6356:6896  if (from == address(0)) {... */\n      jump(tag_369)\n    tag_367:\n        /* \"@openzeppelin/contracts/token/ERC20/ERC20.sol\":6548:6567  uint256 fromBalance */\n      0x00\n        /* \"@openzeppelin/contracts/token/ERC20/ERC20.sol\":6570:6579  _balances */\n      dup1\n        /* \"@openzeppelin/contracts/token/ERC20/ERC20.sol\":6570:6585  _balances[from] */\n      0x00\n        /* \"@openzeppelin/contracts/token/ERC20/ERC20.sol\":6580:6584  from */\n      dup6\n        /* \"@openzeppelin/contracts/token/ERC20/ERC20.sol\":6570:6585  _balances[from] */\n      0xffffffffffffffffffffffffffffffffffffffff\n      and\n      0xffffffffffffffffffffffffffffffffffffffff\n      and\n      dup2\n      mstore\n      0x20\n      add\n      swap1\n      dup2\n      mstore\n      0x20\n      add\n      0x00\n      keccak256\n      sload\n        /* \"@openzeppelin/contracts/token/ERC20/ERC20.sol\":6548:6585  uint256 fromBalance = _balances[from] */\n      swap1\n      pop\n        /* \"@openzeppelin/contracts/token/ERC20/ERC20.sol\":6617:6622  value */\n      dup2\n        /* \"@openzeppelin/contracts/token/ERC20/ERC20.sol\":6603:6614  fromBalance */\n      dup2\n        /* \"@openzeppelin/contracts/token/ERC20/ERC20.sol\":6603:6622  fromBalance < value */\n      lt\n        /* \"@openzeppelin/contracts/token/ERC20/ERC20.sol\":6599:6714  if (fromBalance < value) {... */\n      iszero\n      tag_370\n      jumpi\n        /* \"@openzeppelin/contracts/token/ERC20/ERC20.sol\":6674:6678  from */\n      dup4\n        /* \"@openzeppelin/contracts/token/ERC20/ERC20.sol\":6680:6691  fromBalance */\n      dup2\n        /* \"@openzeppelin/contracts/token/ERC20/ERC20.sol\":6693:6698  value */\n      dup4\n        /* \"@openzeppelin/contracts/token/ERC20/ERC20.sol\":6649:6699  ERC20InsufficientBalance(from, fromBalance, value) */\n      mload(0x40)\n      0xe450d38c00000000000000000000000000000000000000000000000000000000\n      dup2\n      mstore\n      0x04\n      add\n      tag_371\n      swap4\n      swap3\n      swap2\n      swap1\n      tag_335\n      jump\t// in\n    tag_371:\n      mload(0x40)\n      dup1\n      swap2\n      sub\n      swap1\n      revert\n        /* \"@openzeppelin/contracts/token/ERC20/ERC20.sol\":6599:6714  if (fromBalance < value) {... */\n    tag_370:\n        /* \"@openzeppelin/contracts/token/ERC20/ERC20.sol\":6866:6871  value */\n      dup2\n        /* \"@openzeppelin/contracts/token/ERC20/ERC20.sol\":6852:6863  fromBalance */\n      dup2\n        /* \"@openzeppelin/contracts/token/ERC20/ERC20.sol\":6852:6871  fromBalance - value */\n      sub\n        /* \"@openzeppelin/contracts/token/ERC20/ERC20.sol\":6834:6843  _balances */\n      0x00\n        /* \"@openzeppelin/contracts/token/ERC20/ERC20.sol\":6834:6849  _balances[from] */\n      dup1\n        /* \"@openzeppelin/contracts/token/ERC20/ERC20.sol\":6844:6848  from */\n      dup7\n        /* \"@openzeppelin/contracts/token/ERC20/ERC20.sol\":6834:6849  _balances[from] */\n      0xffffffffffffffffffffffffffffffffffffffff\n      and\n      0xffffffffffffffffffffffffffffffffffffffff\n      and\n      dup2\n      mstore\n      0x20\n      add\n      swap1\n      dup2\n      mstore\n      0x20\n      add\n      0x00\n      keccak256\n        /* \"@openzeppelin/contracts/token/ERC20/ERC20.sol\":6834:6871  _balances[from] = fromBalance - value */\n      dup2\n      swap1\n      sstore\n      pop\n        /* \"@openzeppelin/contracts/token/ERC20/ERC20.sol\":6534:6896  {... */\n      pop\n        /* \"@openzeppelin/contracts/token/ERC20/ERC20.sol\":6356:6896  if (from == address(0)) {... */\n    tag_369:\n        /* \"@openzeppelin/contracts/token/ERC20/ERC20.sol\":6924:6925  0 */\n      0x00\n        /* \"@openzeppelin/contracts/token/ERC20/ERC20.sol\":6910:6926  to == address(0) */\n      0xffffffffffffffffffffffffffffffffffffffff\n      and\n        /* \"@openzeppelin/contracts/token/ERC20/ERC20.sol\":6910:6912  to */\n      dup3\n        /* \"@openzeppelin/contracts/token/ERC20/ERC20.sol\":6910:6926  to == address(0) */\n      0xffffffffffffffffffffffffffffffffffffffff\n      and\n      sub\n        /* \"@openzeppelin/contracts/token/ERC20/ERC20.sol\":6906:7331  if (to == address(0)) {... */\n      tag_372\n      jumpi\n        /* \"@openzeppelin/contracts/token/ERC20/ERC20.sol\":7089:7094  value */\n      dup1\n        /* \"@openzeppelin/contracts/token/ERC20/ERC20.sol\":7073:7085  _totalSupply */\n      0x02\n      0x00\n        /* \"@openzeppelin/contracts/token/ERC20/ERC20.sol\":7073:7094  _totalSupply -= value */\n      dup3\n      dup3\n      sload\n      sub\n      swap3\n      pop\n      pop\n      dup2\n      swap1\n      sstore\n      pop\n        /* \"@openzeppelin/contracts/token/ERC20/ERC20.sol\":6906:7331  if (to == address(0)) {... */\n      jump(tag_373)\n    tag_372:\n        /* \"@openzeppelin/contracts/token/ERC20/ERC20.sol\":7301:7306  value */\n      dup1\n        /* \"@openzeppelin/contracts/token/ERC20/ERC20.sol\":7284:7293  _balances */\n      0x00\n        /* \"@openzeppelin/contracts/token/ERC20/ERC20.sol\":7284:7297  _balances[to] */\n      dup1\n        /* \"@openzeppelin/contracts/token/ERC20/ERC20.sol\":7294:7296  to */\n      dup5\n        /* \"@openzeppelin/contracts/token/ERC20/ERC20.sol\":7284:7297  _balances[to] */\n      0xffffffffffffffffffffffffffffffffffffffff\n      and\n      0xffffffffffffffffffffffffffffffffffffffff\n      and\n      dup2\n      mstore\n      0x20\n      add\n      swap1\n      dup2\n      mstore\n      0x20\n      add\n      0x00\n      keccak256\n      0x00\n        /* \"@openzeppelin/contracts/token/ERC20/ERC20.sol\":7284:7306  _balances[to] += value */\n      dup3\n      dup3\n      sload\n      add\n      swap3\n      pop\n      pop\n      dup2\n      swap1\n      sstore\n      pop\n        /* \"@openzeppelin/contracts/token/ERC20/ERC20.sol\":6906:7331  if (to == address(0)) {... */\n    tag_373:\n        /* \"@openzeppelin/contracts/token/ERC20/ERC20.sol\":7361:7363  to */\n      dup2\n        /* \"@openzeppelin/contracts/token/ERC20/ERC20.sol\":7346:7371  Transfer(from, to, value) */\n      0xffffffffffffffffffffffffffffffffffffffff\n      and\n        /* \"@openzeppelin/contracts/token/ERC20/ERC20.sol\":7355:7359  from */\n      dup4\n        /* \"@openzeppelin/contracts/token/ERC20/ERC20.sol\":7346:7371  Transfer(from, to, value) */\n      0xffffffffffffffffffffffffffffffffffffffff\n      and\n      0xddf252ad1be2c89b69c2b068fc378daa952ba7f163c4a11628f55a4df523b3ef\n        /* \"@openzeppelin/contracts/token/ERC20/ERC20.sol\":7365:7370  value */\n      dup4\n        /* \"@openzeppelin/contracts/token/ERC20/ERC20.sol\":7346:7371  Transfer(from, to, value) */\n      mload(0x40)\n      tag_374\n      swap2\n      swap1\n      tag_47\n      jump\t// in\n    tag_374:\n      mload(0x40)\n      dup1\n      swap2\n      sub\n      swap1\n      log3\n        /* \"@openzeppelin/contracts/token/ERC20/ERC20.sol\":6271:7378  function _update(address from, address to, uint256 value) internal virtual {... */\n      pop\n      pop\n      pop\n      jump\t// out\n    tag_241:\n      dup3\n      dup1\n      sload\n      dup3\n      dup3\n      sstore\n      swap1\n      0x00\n      mstore\n      keccak256(0x00, 0x20)\n      swap1\n      dup2\n      add\n      swap3\n      dup3\n      iszero\n      tag_375\n      jumpi\n      swap2\n      0x20\n      mul\n      dup3\n      add\n    tag_376:\n      dup3\n      dup2\n      gt\n      iszero\n      tag_377\n      jumpi\n      dup3\n      mload\n      dup3\n      sstore\n      swap2\n      0x20\n      add\n      swap2\n      swap1\n      0x01\n      add\n      swap1\n      jump(tag_376)\n    tag_377:\n    tag_375:\n      pop\n      swap1\n      pop\n      tag_378\n      swap2\n      swap1\n      tag_379\n      jump\t// in\n    tag_378:\n      pop\n      swap1\n      jump\t// out\n    tag_379:\n    tag_380:\n      dup1\n      dup3\n      gt\n      iszero\n      tag_381\n      jumpi\n      0x00\n      dup2\n      0x00\n      swap1\n      sstore\n      pop\n      0x01\n      add\n      jump(tag_380)\n    tag_381:\n      pop\n      swap1\n      jump\t// out\n        /* \"#utility.yul\":7:106   */\n    tag_382:\n        /* \"#utility.yul\":59:65   */\n      0x00\n        /* \"#utility.yul\":93:98   */\n      dup2\n        /* \"#utility.yul\":87:99   */\n      mload\n        /* \"#utility.yul\":77:99   */\n      swap1\n      pop\n        /* \"#utility.yul\":7:106   */\n      swap2\n      swap1\n      pop\n      jump\t// out\n        /* \"#utility.yul\":112:281   */\n    tag_383:\n        /* \"#utility.yul\":196:207   */\n      0x00\n        /* \"#utility.yul\":230:236   */\n      dup3\n        /* \"#utility.yul\":225:228   */\n      dup3\n        /* \"#utility.yul\":218:237   */\n      mstore\n        /* \"#utility.yul\":270:274   */\n      0x20\n        /* \"#utility.yul\":265:268   */\n      dup3\n        /* \"#utility.yul\":261:275   */\n      add\n        /* \"#utility.yul\":246:275   */\n      swap1\n      pop\n        /* \"#utility.yul\":112:281   */\n      swap3\n      swap2\n      pop\n      pop\n      jump\t// out\n        /* \"#utility.yul\":287:426   */\n    tag_384:\n        /* \"#utility.yul\":376:382   */\n      dup3\n        /* \"#utility.yul\":371:374   */\n      dup2\n        /* \"#utility.yul\":366:369   */\n      dup4\n        /* \"#utility.yul\":360:383   */\n      mcopy\n        /* \"#utility.yul\":417:418   */\n      0x00\n        /* \"#utility.yul\":408:414   */\n      dup4\n        /* \"#utility.yul\":403:406   */\n      dup4\n        /* \"#utility.yul\":399:415   */\n      add\n        /* \"#utility.yul\":392:419   */\n      mstore\n        /* \"#utility.yul\":287:426   */\n      pop\n      pop\n      pop\n      jump\t// out\n        /* \"#utility.yul\":432:534   */\n    tag_385:\n        /* \"#utility.yul\":473:479   */\n      0x00\n        /* \"#utility.yul\":524:526   */\n      0x1f\n        /* \"#utility.yul\":520:527   */\n      not\n        /* \"#utility.yul\":515:517   */\n      0x1f\n        /* \"#utility.yul\":508:513   */\n      dup4\n        /* \"#utility.yul\":504:518   */\n      add\n        /* \"#utility.yul\":500:528   */\n      and\n        /* \"#utility.yul\":490:528   */\n      swap1\n      pop\n        /* \"#utility.yul\":432:534   */\n      swap2\n      swap1\n      pop\n      jump\t// out\n        /* \"#utility.yul\":540:917   */\n    tag_386:\n        /* \"#utility.yul\":628:631   */\n      0x00\n        /* \"#utility.yul\":656:695   */\n      tag_477\n        /* \"#utility.yul\":689:694   */\n      dup3\n        /* \"#utility.yul\":656:695   */\n      tag_382\n      jump\t// in\n    tag_477:\n        /* \"#utility.yul\":711:782   */\n      tag_478\n        /* \"#utility.yul\":775:781   */\n      dup2\n        /* \"#utility.yul\":770:773   */\n      dup6\n        /* \"#utility.yul\":711:782   */\n      tag_383\n      jump\t// in\n    tag_478:\n        /* \"#utility.yul\":704:782   */\n      swap4\n      pop\n        /* \"#utility.yul\":791:856   */\n      tag_479\n        /* \"#utility.yul\":849:855   */\n      dup2\n        /* \"#utility.yul\":844:847   */\n      dup6\n        /* \"#utility.yul\":837:841   */\n      0x20\n        /* \"#utility.yul\":830:835   */\n      dup7\n        /* \"#utility.yul\":826:842   */\n      add\n        /* \"#utility.yul\":791:856   */\n      tag_384\n      jump\t// in\n    tag_479:\n        /* \"#utility.yul\":881:910   */\n      tag_480\n        /* \"#utility.yul\":903:909   */\n      dup2\n        /* \"#utility.yul\":881:910   */\n      tag_385\n      jump\t// in\n    tag_480:\n        /* \"#utility.yul\":876:879   */\n      dup5\n        /* \"#utility.yul\":872:911   */\n      add\n        /* \"#utility.yul\":865:911   */\n      swap2\n      pop\n        /* \"#utility.yul\":632:917   */\n      pop\n        /* \"#utility.yul\":540:917   */\n      swap3\n      swap2\n      pop\n      pop\n      jump\t// out\n        /* \"#utility.yul\":923:1236   */\n    tag_35:\n        /* \"#utility.yul\":1036:1040   */\n      0x00\n        /* \"#utility.yul\":1074:1076   */\n      0x20\n        /* \"#utility.yul\":1063:1072   */\n      dup3\n        /* \"#utility.yul\":1059:1077   */\n      add\n        /* \"#utility.yul\":1051:1077   */\n      swap1\n      pop\n        /* \"#utility.yul\":1123:1132   */\n      dup2\n        /* \"#utility.yul\":1117:1121   */\n      dup2\n        /* \"#utility.yul\":1113:1133   */\n      sub\n        /* \"#utility.yul\":1109:1110   */\n      0x00\n        /* \"#utility.yul\":1098:1107   */\n      dup4\n        /* \"#utility.yul\":1094:1111   */\n      add\n        /* \"#utility.yul\":1087:1134   */\n      mstore\n        /* \"#utility.yul\":1151:1229   */\n      tag_482\n        /* \"#utility.yul\":1224:1228   */\n      dup2\n        /* \"#utility.yul\":1215:1221   */\n      dup5\n        /* \"#utility.yul\":1151:1229   */\n      tag_386\n      jump\t// in\n    tag_482:\n        /* \"#utility.yul\":1143:1229   */\n      swap1\n      pop\n        /* \"#utility.yul\":923:1236   */\n      swap3\n      swap2\n      pop\n      pop\n      jump\t// out\n        /* \"#utility.yul\":1242:1317   */\n    tag_387:\n        /* \"#utility.yul\":1275:1281   */\n      0x00\n        /* \"#utility.yul\":1308:1310   */\n      0x40\n        /* \"#utility.yul\":1302:1311   */\n      mload\n        /* \"#utility.yul\":1292:1311   */\n      swap1\n      pop\n        /* \"#utility.yul\":1242:1317   */\n      swap1\n      jump\t// out\n        /* \"#utility.yul\":1323:1440   */\n    tag_388:\n        /* \"#utility.yul\":1432:1433   */\n      0x00\n        /* \"#utility.yul\":1429:1430   */\n      dup1\n        /* \"#utility.yul\":1422:1434   */\n      revert\n        /* \"#utility.yul\":1446:1563   */\n    tag_389:\n        /* \"#utility.yul\":1555:1556   */\n      0x00\n        /* \"#utility.yul\":1552:1553   */\n      dup1\n        /* \"#utility.yul\":1545:1557   */\n      revert\n        /* \"#utility.yul\":1569:1695   */\n    tag_390:\n        /* \"#utility.yul\":1606:1613   */\n      0x00\n        /* \"#utility.yul\":1646:1688   */\n      0xffffffffffffffffffffffffffffffffffffffff\n        /* \"#utility.yul\":1639:1644   */\n      dup3\n        /* \"#utility.yul\":1635:1689   */\n      and\n        /* \"#utility.yul\":1624:1689   */\n      swap1\n      pop\n        /* \"#utility.yul\":1569:1695   */\n      swap2\n      swap1\n      pop\n      jump\t// out\n        /* \"#utility.yul\":1701:1797   */\n    tag_391:\n        /* \"#utility.yul\":1738:1745   */\n      0x00\n        /* \"#utility.yul\":1767:1791   */\n      tag_488\n        /* \"#utility.yul\":1785:1790   */\n      dup3\n        /* \"#utility.yul\":1767:1791   */\n      tag_390\n      jump\t// in\n    tag_488:\n        /* \"#utility.yul\":1756:1791   */\n      swap1\n      pop\n        /* \"#utility.yul\":1701:1797   */\n      swap2\n      swap1\n      pop\n      jump\t// out\n        /* \"#utility.yul\":1803:1925   */\n    tag_392:\n        /* \"#utility.yul\":1876:1900   */\n      tag_490\n        /* \"#utility.yul\":1894:1899   */\n      dup2\n        /* \"#utility.yul\":1876:1900   */\n      tag_391\n      jump\t// in\n    tag_490:\n        /* \"#utility.yul\":1869:1874   */\n      dup2\n        /* \"#utility.yul\":1866:1901   */\n      eq\n        /* \"#utility.yul\":1856:1919   */\n      tag_491\n      jumpi\n        /* \"#utility.yul\":1915:1916   */\n      0x00\n        /* \"#utility.yul\":1912:1913   */\n      dup1\n        /* \"#utility.yul\":1905:1917   */\n      revert\n        /* \"#utility.yul\":1856:1919   */\n    tag_491:\n        /* \"#utility.yul\":1803:1925   */\n      pop\n      jump\t// out\n        /* \"#utility.yul\":1931:2070   */\n    tag_393:\n        /* \"#utility.yul\":1977:1982   */\n      0x00\n        /* \"#utility.yul\":2015:2021   */\n      dup2\n        /* \"#utility.yul\":2002:2022   */\n      calldataload\n        /* \"#utility.yul\":1993:2022   */\n      swap1\n      pop\n        /* \"#utility.yul\":2031:2064   */\n      tag_493\n        /* \"#utility.yul\":2058:2063   */\n      dup2\n        /* \"#utility.yul\":2031:2064   */\n      tag_392\n      jump\t// in\n    tag_493:\n        /* \"#utility.yul\":1931:2070   */\n      swap3\n      swap2\n      pop\n      pop\n      jump\t// out\n        /* \"#utility.yul\":2076:2153   */\n    tag_394:\n        /* \"#utility.yul\":2113:2120   */\n      0x00\n        /* \"#utility.yul\":2142:2147   */\n      dup2\n        /* \"#utility.yul\":2131:2147   */\n      swap1\n      pop\n        /* \"#utility.yul\":2076:2153   */\n      swap2\n      swap1\n      pop\n      jump\t// out\n        /* \"#utility.yul\":2159:2281   */\n    tag_395:\n        /* \"#utility.yul\":2232:2256   */\n      tag_496\n        /* \"#utility.yul\":2250:2255   */\n      dup2\n        /* \"#utility.yul\":2232:2256   */\n      tag_394\n      jump\t// in\n    tag_496:\n        /* \"#utility.yul\":2225:2230   */\n      dup2\n        /* \"#utility.yul\":2222:2257   */\n      eq\n        /* \"#utility.yul\":2212:2275   */\n      tag_497\n      jumpi\n        /* \"#utility.yul\":2271:2272   */\n      0x00\n        /* \"#utility.yul\":2268:2269   */\n      dup1\n        /* \"#utility.yul\":2261:2273   */\n      revert\n        /* \"#utility.yul\":2212:2275   */\n    tag_497:\n        /* \"#utility.yul\":2159:2281   */\n      pop\n      jump\t// out\n        /* \"#utility.yul\":2287:2426   */\n    tag_396:\n        /* \"#utility.yul\":2333:2338   */\n      0x00\n        /* \"#utility.yul\":2371:2377   */\n      dup2\n        /* \"#utility.yul\":2358:2378   */\n      calldataload\n        /* \"#utility.yul\":2349:2378   */\n      swap1\n      pop\n        /* \"#utility.yul\":2387:2420   */\n      tag_499\n        /* \"#utility.yul\":2414:2419   */\n      dup2\n        /* \"#utility.yul\":2387:2420   */\n      tag_395\n      jump\t// in\n    tag_499:\n        /* \"#utility.yul\":2287:2426   */\n      swap3\n      swap2\n      pop\n      pop\n      jump\t// out\n        /* \"#utility.yul\":2432:2906   */\n    tag_39:\n        /* \"#utility.yul\":2500:2506   */\n      0x00\n        /* \"#utility.yul\":2508:2514   */\n      dup1\n        /* \"#utility.yul\":2557:2559   */\n      0x40\n        /* \"#utility.yul\":2545:2554   */\n      dup4\n        /* \"#utility.yul\":2536:2543   */\n      dup6\n        /* \"#utility.yul\":2532:2555   */\n      sub\n        /* \"#utility.yul\":2528:2560   */\n      slt\n        /* \"#utility.yul\":2525:2644   */\n      iszero\n      tag_501\n      jumpi\n        /* \"#utility.yul\":2563:2642   */\n      tag_502\n      tag_388\n      jump\t// in\n    tag_502:\n        /* \"#utility.yul\":2525:2644   */\n    tag_501:\n        /* \"#utility.yul\":2683:2684   */\n      0x00\n        /* \"#utility.yul\":2708:2761   */\n      tag_503\n        /* \"#utility.yul\":2753:2760   */\n      dup6\n        /* \"#utility.yul\":2744:2750   */\n      dup3\n        /* \"#utility.yul\":2733:2742   */\n      dup7\n        /* \"#utility.yul\":2729:2751   */\n      add\n        /* \"#utility.yul\":2708:2761   */\n      tag_393\n      jump\t// in\n    tag_503:\n        /* \"#utility.yul\":2698:2761   */\n      swap3\n      pop\n        /* \"#utility.yul\":2654:2771   */\n      pop\n        /* \"#utility.yul\":2810:2812   */\n      0x20\n        /* \"#utility.yul\":2836:2889   */\n      tag_504\n        /* \"#utility.yul\":2881:2888   */\n      dup6\n        /* \"#utility.yul\":2872:2878   */\n      dup3\n        /* \"#utility.yul\":2861:2870   */\n      dup7\n        /* \"#utility.yul\":2857:2879   */\n      add\n        /* \"#utility.yul\":2836:2889   */\n      tag_396\n      jump\t// in\n    tag_504:\n        /* \"#utility.yul\":2826:2889   */\n      swap2\n      pop\n        /* \"#utility.yul\":2781:2899   */\n      pop\n        /* \"#utility.yul\":2432:2906   */\n      swap3\n      pop\n      swap3\n      swap1\n      pop\n      jump\t// out\n        /* \"#utility.yul\":2912:3002   */\n    tag_397:\n        /* \"#utility.yul\":2946:2953   */\n      0x00\n        /* \"#utility.yul\":2989:2994   */\n      dup2\n        /* \"#utility.yul\":2982:2995   */\n      iszero\n        /* \"#utility.yul\":2975:2996   */\n      iszero\n        /* \"#utility.yul\":2964:2996   */\n      swap1\n      pop\n        /* \"#utility.yul\":2912:3002   */\n      swap2\n      swap1\n      pop\n      jump\t// out\n        /* \"#utility.yul\":3008:3117   */\n    tag_398:\n        /* \"#utility.yul\":3089:3110   */\n      tag_507\n        /* \"#utility.yul\":3104:3109   */\n      dup2\n        /* \"#utility.yul\":3089:3110   */\n      tag_397\n      jump\t// in\n    tag_507:\n        /* \"#utility.yul\":3084:3087   */\n      dup3\n        /* \"#utility.yul\":3077:3111   */\n      mstore\n        /* \"#utility.yul\":3008:3117   */\n      pop\n      pop\n      jump\t// out\n        /* \"#utility.yul\":3123:3333   */\n    tag_42:\n        /* \"#utility.yul\":3210:3214   */\n      0x00\n        /* \"#utility.yul\":3248:3250   */\n      0x20\n        /* \"#utility.yul\":3237:3246   */\n      dup3\n        /* \"#utility.yul\":3233:3251   */\n      add\n        /* \"#utility.yul\":3225:3251   */\n      swap1\n      pop\n        /* \"#utility.yul\":3261:3326   */\n      tag_509\n        /* \"#utility.yul\":3323:3324   */\n      0x00\n        /* \"#utility.yul\":3312:3321   */\n      dup4\n        /* \"#utility.yul\":3308:3325   */\n      add\n        /* \"#utility.yul\":3299:3305   */\n      dup5\n        /* \"#utility.yul\":3261:3326   */\n      tag_398\n      jump\t// in\n    tag_509:\n        /* \"#utility.yul\":3123:3333   */\n      swap3\n      swap2\n      pop\n      pop\n      jump\t// out\n        /* \"#utility.yul\":3339:3457   */\n    tag_399:\n        /* \"#utility.yul\":3426:3450   */\n      tag_511\n        /* \"#utility.yul\":3444:3449   */\n      dup2\n        /* \"#utility.yul\":3426:3450   */\n      tag_394\n      jump\t// in\n    tag_511:\n        /* \"#utility.yul\":3421:3424   */\n      dup3\n        /* \"#utility.yul\":3414:3451   */\n      mstore\n        /* \"#utility.yul\":3339:3457   */\n      pop\n      pop\n      jump\t// out\n        /* \"#utility.yul\":3463:3685   */\n    tag_47:\n        /* \"#utility.yul\":3556:3560   */\n      0x00\n        /* \"#utility.yul\":3594:3596   */\n      0x20\n        /* \"#utility.yul\":3583:3592   */\n      dup3\n        /* \"#utility.yul\":3579:3597   */\n      add\n        /* \"#utility.yul\":3571:3597   */\n      swap1\n      pop\n        /* \"#utility.yul\":3607:3678   */\n      tag_513\n        /* \"#utility.yul\":3675:3676   */\n      0x00\n        /* \"#utility.yul\":3664:3673   */\n      dup4\n        /* \"#utility.yul\":3660:3677   */\n      add\n        /* \"#utility.yul\":3651:3657   */\n      dup5\n        /* \"#utility.yul\":3607:3678   */\n      tag_399\n      jump\t// in\n    tag_513:\n        /* \"#utility.yul\":3463:3685   */\n      swap3\n      swap2\n      pop\n      pop\n      jump\t// out\n        /* \"#utility.yul\":3691:3831   */\n    tag_400:\n        /* \"#utility.yul\":3784:3790   */\n      0x00\n        /* \"#utility.yul\":3818:3823   */\n      dup2\n        /* \"#utility.yul\":3812:3824   */\n      mload\n        /* \"#utility.yul\":3802:3824   */\n      swap1\n      pop\n        /* \"#utility.yul\":3691:3831   */\n      swap2\n      swap1\n      pop\n      jump\t// out\n        /* \"#utility.yul\":3837:4047   */\n    tag_401:\n        /* \"#utility.yul\":3962:3973   */\n      0x00\n        /* \"#utility.yul\":3996:4002   */\n      dup3\n        /* \"#utility.yul\":3991:3994   */\n      dup3\n        /* \"#utility.yul\":3984:4003   */\n      mstore\n        /* \"#utility.yul\":4036:4040   */\n      0x20\n        /* \"#utility.yul\":4031:4034   */\n      dup3\n        /* \"#utility.yul\":4027:4041   */\n      add\n        /* \"#utility.yul\":4012:4041   */\n      swap1\n      pop\n        /* \"#utility.yul\":3837:4047   */\n      swap3\n      swap2\n      pop\n      pop\n      jump\t// out\n        /* \"#utility.yul\":4053:4211   */\n    tag_402:\n        /* \"#utility.yul\":4146:4150   */\n      0x00\n        /* \"#utility.yul\":4169:4172   */\n      dup2\n        /* \"#utility.yul\":4161:4172   */\n      swap1\n      pop\n        /* \"#utility.yul\":4199:4203   */\n      0x20\n        /* \"#utility.yul\":4194:4197   */\n      dup3\n        /* \"#utility.yul\":4190:4204   */\n      add\n        /* \"#utility.yul\":4182:4204   */\n      swap1\n      pop\n        /* \"#utility.yul\":4053:4211   */\n      swap2\n      swap1\n      pop\n      jump\t// out\n        /* \"#utility.yul\":4217:4376   */\n    tag_403:\n        /* \"#utility.yul\":4291:4302   */\n      0x00\n        /* \"#utility.yul\":4325:4331   */\n      dup3\n        /* \"#utility.yul\":4320:4323   */\n      dup3\n        /* \"#utility.yul\":4313:4332   */\n      mstore\n        /* \"#utility.yul\":4365:4369   */\n      0x20\n        /* \"#utility.yul\":4360:4363   */\n      dup3\n        /* \"#utility.yul\":4356:4370   */\n      add\n        /* \"#utility.yul\":4341:4370   */\n      swap1\n      pop\n        /* \"#utility.yul\":4217:4376   */\n      swap3\n      swap2\n      pop\n      pop\n      jump\t// out\n        /* \"#utility.yul\":4382:4739   */\n    tag_404:\n        /* \"#utility.yul\":4460:4463   */\n      0x00\n        /* \"#utility.yul\":4488:4527   */\n      tag_519\n        /* \"#utility.yul\":4521:4526   */\n      dup3\n        /* \"#utility.yul\":4488:4527   */\n      tag_382\n      jump\t// in\n    tag_519:\n        /* \"#utility.yul\":4543:4604   */\n      tag_520\n        /* \"#utility.yul\":4597:4603   */\n      dup2\n        /* \"#utility.yul\":4592:4595   */\n      dup6\n        /* \"#utility.yul\":4543:4604   */\n      tag_403\n      jump\t// in\n    tag_520:\n        /* \"#utility.yul\":4536:4604   */\n      swap4\n      pop\n        /* \"#utility.yul\":4613:4678   */\n      tag_521\n        /* \"#utility.yul\":4671:4677   */\n      dup2\n        /* \"#utility.yul\":4666:4669   */\n      dup6\n        /* \"#utility.yul\":4659:4663   */\n      0x20\n        /* \"#utility.yul\":4652:4657   */\n      dup7\n        /* \"#utility.yul\":4648:4664   */\n      add\n        /* \"#utility.yul\":4613:4678   */\n      tag_384\n      jump\t// in\n    tag_521:\n        /* \"#utility.yul\":4703:4732   */\n      tag_522\n        /* \"#utility.yul\":4725:4731   */\n      dup2\n        /* \"#utility.yul\":4703:4732   */\n      tag_385\n      jump\t// in\n    tag_522:\n        /* \"#utility.yul\":4698:4701   */\n      dup5\n        /* \"#utility.yul\":4694:4733   */\n      add\n        /* \"#utility.yul\":4687:4733   */\n      swap2\n      pop\n        /* \"#utility.yul\":4464:4739   */\n      pop\n        /* \"#utility.yul\":4382:4739   */\n      swap3\n      swap2\n      pop\n      pop\n      jump\t// out\n        /* \"#utility.yul\":4745:4853   */\n    tag_405:\n        /* \"#utility.yul\":4822:4846   */\n      tag_524\n        /* \"#utility.yul\":4840:4845   */\n      dup2\n        /* \"#utility.yul\":4822:4846   */\n      tag_394\n      jump\t// in\n    tag_524:\n        /* \"#utility.yul\":4817:4820   */\n      dup3\n        /* \"#utility.yul\":4810:4847   */\n      mstore\n        /* \"#utility.yul\":4745:4853   */\n      pop\n      pop\n      jump\t// out\n        /* \"#utility.yul\":4925:5524   */\n    tag_406:\n        /* \"#utility.yul\":5036:5039   */\n      0x00\n        /* \"#utility.yul\":5072:5076   */\n      0x40\n        /* \"#utility.yul\":5067:5070   */\n      dup4\n        /* \"#utility.yul\":5063:5077   */\n      add\n        /* \"#utility.yul\":5159:5163   */\n      0x00\n        /* \"#utility.yul\":5152:5157   */\n      dup4\n        /* \"#utility.yul\":5148:5164   */\n      add\n        /* \"#utility.yul\":5142:5165   */\n      mload\n        /* \"#utility.yul\":5212:5215   */\n      dup5\n        /* \"#utility.yul\":5206:5210   */\n      dup3\n        /* \"#utility.yul\":5202:5216   */\n      sub\n        /* \"#utility.yul\":5195:5199   */\n      0x00\n        /* \"#utility.yul\":5190:5193   */\n      dup7\n        /* \"#utility.yul\":5186:5200   */\n      add\n        /* \"#utility.yul\":5179:5217   */\n      mstore\n        /* \"#utility.yul\":5238:5311   */\n      tag_526\n        /* \"#utility.yul\":5306:5310   */\n      dup3\n        /* \"#utility.yul\":5292:5304   */\n      dup3\n        /* \"#utility.yul\":5238:5311   */\n      tag_404\n      jump\t// in\n    tag_526:\n        /* \"#utility.yul\":5230:5311   */\n      swap2\n      pop\n        /* \"#utility.yul\":5087:5322   */\n      pop\n        /* \"#utility.yul\":5405:5409   */\n      0x20\n        /* \"#utility.yul\":5398:5403   */\n      dup4\n        /* \"#utility.yul\":5394:5410   */\n      add\n        /* \"#utility.yul\":5388:5411   */\n      mload\n        /* \"#utility.yul\":5424:5487   */\n      tag_527\n        /* \"#utility.yul\":5481:5485   */\n      0x20\n        /* \"#utility.yul\":5476:5479   */\n      dup7\n        /* \"#utility.yul\":5472:5486   */\n      add\n        /* \"#utility.yul\":5458:5470   */\n      dup3\n        /* \"#utility.yul\":5424:5487   */\n      tag_405\n      jump\t// in\n    tag_527:\n        /* \"#utility.yul\":5332:5497   */\n      pop\n        /* \"#utility.yul\":5514:5518   */\n      dup1\n        /* \"#utility.yul\":5507:5518   */\n      swap2\n      pop\n        /* \"#utility.yul\":5041:5524   */\n      pop\n        /* \"#utility.yul\":4925:5524   */\n      swap3\n      swap2\n      pop\n      pop\n      jump\t// out\n        /* \"#utility.yul\":5530:5790   */\n    tag_407:\n        /* \"#utility.yul\":5651:5661   */\n      0x00\n        /* \"#utility.yul\":5686:5784   */\n      tag_529\n        /* \"#utility.yul\":5780:5783   */\n      dup4\n        /* \"#utility.yul\":5772:5778   */\n      dup4\n        /* \"#utility.yul\":5686:5784   */\n      tag_406\n      jump\t// in\n    tag_529:\n        /* \"#utility.yul\":5672:5784   */\n      swap1\n      pop\n        /* \"#utility.yul\":5530:5790   */\n      swap3\n      swap2\n      pop\n      pop\n      jump\t// out\n        /* \"#utility.yul\":5796:5935   */\n    tag_408:\n        /* \"#utility.yul\":5892:5896   */\n      0x00\n        /* \"#utility.yul\":5924:5928   */\n      0x20\n        /* \"#utility.yul\":5919:5922   */\n      dup3\n        /* \"#utility.yul\":5915:5929   */\n      add\n        /* \"#utility.yul\":5907:5929   */\n      swap1\n      pop\n        /* \"#utility.yul\":5796:5935   */\n      swap2\n      swap1\n      pop\n      jump\t// out\n        /* \"#utility.yul\":6011:7130   */\n    tag_409:\n        /* \"#utility.yul\":6182:6185   */\n      0x00\n        /* \"#utility.yul\":6211:6291   */\n      tag_532\n        /* \"#utility.yul\":6285:6290   */\n      dup3\n        /* \"#utility.yul\":6211:6291   */\n      tag_400\n      jump\t// in\n    tag_532:\n        /* \"#utility.yul\":6307:6419   */\n      tag_533\n        /* \"#utility.yul\":6412:6418   */\n      dup2\n        /* \"#utility.yul\":6407:6410   */\n      dup6\n        /* \"#utility.yul\":6307:6419   */\n      tag_401\n      jump\t// in\n    tag_533:\n        /* \"#utility.yul\":6300:6419   */\n      swap4\n      pop\n        /* \"#utility.yul\":6445:6448   */\n      dup4\n        /* \"#utility.yul\":6490:6494   */\n      0x20\n        /* \"#utility.yul\":6482:6488   */\n      dup3\n        /* \"#utility.yul\":6478:6495   */\n      mul\n        /* \"#utility.yul\":6473:6476   */\n      dup6\n        /* \"#utility.yul\":6469:6496   */\n      add\n        /* \"#utility.yul\":6520:6602   */\n      tag_534\n        /* \"#utility.yul\":6596:6601   */\n      dup6\n        /* \"#utility.yul\":6520:6602   */\n      tag_402\n      jump\t// in\n    tag_534:\n        /* \"#utility.yul\":6625:6632   */\n      dup1\n        /* \"#utility.yul\":6656:6657   */\n      0x00\n        /* \"#utility.yul\":6641:7085   */\n    tag_535:\n        /* \"#utility.yul\":6666:6672   */\n      dup6\n        /* \"#utility.yul\":6663:6664   */\n      dup2\n        /* \"#utility.yul\":6660:6673   */\n      lt\n        /* \"#utility.yul\":6641:7085   */\n      iszero\n      tag_537\n      jumpi\n        /* \"#utility.yul\":6737:6746   */\n      dup5\n        /* \"#utility.yul\":6731:6735   */\n      dup5\n        /* \"#utility.yul\":6727:6747   */\n      sub\n        /* \"#utility.yul\":6722:6725   */\n      dup10\n        /* \"#utility.yul\":6715:6748   */\n      mstore\n        /* \"#utility.yul\":6788:6794   */\n      dup2\n        /* \"#utility.yul\":6782:6795   */\n      mload\n        /* \"#utility.yul\":6816:6932   */\n      tag_538\n        /* \"#utility.yul\":6927:6931   */\n      dup6\n        /* \"#utility.yul\":6912:6925   */\n      dup3\n        /* \"#utility.yul\":6816:6932   */\n      tag_407\n      jump\t// in\n    tag_538:\n        /* \"#utility.yul\":6808:6932   */\n      swap5\n      pop\n        /* \"#utility.yul\":6955:7041   */\n      tag_539\n        /* \"#utility.yul\":7034:7040   */\n      dup4\n        /* \"#utility.yul\":6955:7041   */\n      tag_408\n      jump\t// in\n    tag_539:\n        /* \"#utility.yul\":6945:7041   */\n      swap3\n      pop\n        /* \"#utility.yul\":7070:7074   */\n      0x20\n        /* \"#utility.yul\":7065:7068   */\n      dup11\n        /* \"#utility.yul\":7061:7075   */\n      add\n        /* \"#utility.yul\":7054:7075   */\n      swap10\n      pop\n        /* \"#utility.yul\":6701:7085   */\n      pop\n        /* \"#utility.yul\":6688:6689   */\n      0x01\n        /* \"#utility.yul\":6685:6686   */\n      dup2\n        /* \"#utility.yul\":6681:6690   */\n      add\n        /* \"#utility.yul\":6676:6690   */\n      swap1\n      pop\n        /* \"#utility.yul\":6641:7085   */\n      jump(tag_535)\n    tag_537:\n        /* \"#utility.yul\":6645:6659   */\n      pop\n        /* \"#utility.yul\":7101:7105   */\n      dup3\n        /* \"#utility.yul\":7094:7105   */\n      swap8\n      pop\n        /* \"#utility.yul\":7121:7124   */\n      dup8\n        /* \"#utility.yul\":7114:7124   */\n      swap6\n      pop\n        /* \"#utility.yul\":6187:7130   */\n      pop\n      pop\n      pop\n      pop\n      pop\n        /* \"#utility.yul\":6011:7130   */\n      swap3\n      swap2\n      pop\n      pop\n      jump\t// out\n        /* \"#utility.yul\":7136:7613   */\n    tag_52:\n        /* \"#utility.yul\":7331:7335   */\n      0x00\n        /* \"#utility.yul\":7369:7371   */\n      0x20\n        /* \"#utility.yul\":7358:7367   */\n      dup3\n        /* \"#utility.yul\":7354:7372   */\n      add\n        /* \"#utility.yul\":7346:7372   */\n      swap1\n      pop\n        /* \"#utility.yul\":7418:7427   */\n      dup2\n        /* \"#utility.yul\":7412:7416   */\n      dup2\n        /* \"#utility.yul\":7408:7428   */\n      sub\n        /* \"#utility.yul\":7404:7405   */\n      0x00\n        /* \"#utility.yul\":7393:7402   */\n      dup4\n        /* \"#utility.yul\":7389:7406   */\n      add\n        /* \"#utility.yul\":7382:7429   */\n      mstore\n        /* \"#utility.yul\":7446:7606   */\n      tag_541\n        /* \"#utility.yul\":7601:7605   */\n      dup2\n        /* \"#utility.yul\":7592:7598   */\n      dup5\n        /* \"#utility.yul\":7446:7606   */\n      tag_409\n      jump\t// in\n    tag_541:\n        /* \"#utility.yul\":7438:7606   */\n      swap1\n      pop\n        /* \"#utility.yul\":7136:7613   */\n      swap3\n      swap2\n      pop\n      pop\n      jump\t// out\n        /* \"#utility.yul\":7619:8238   */\n    tag_56:\n        /* \"#utility.yul\":7696:7702   */\n      0x00\n        /* \"#utility.yul\":7704:7710   */\n      dup1\n        /* \"#utility.yul\":7712:7718   */\n      0x00\n        /* \"#utility.yul\":7761:7763   */\n      0x60\n        /* \"#utility.yul\":7749:7758   */\n      dup5\n        /* \"#utility.yul\":7740:7747   */\n      dup7\n        /* \"#utility.yul\":7736:7759   */\n      sub\n        /* \"#utility.yul\":7732:7764   */\n      slt\n        /* \"#utility.yul\":7729:7848   */\n      iszero\n      tag_543\n      jumpi\n        /* \"#utility.yul\":7767:7846   */\n      tag_544\n      tag_388\n      jump\t// in\n    tag_544:\n        /* \"#utility.yul\":7729:7848   */\n    tag_543:\n        /* \"#utility.yul\":7887:7888   */\n      0x00\n        /* \"#utility.yul\":7912:7965   */\n      tag_545\n        /* \"#utility.yul\":7957:7964   */\n      dup7\n        /* \"#utility.yul\":7948:7954   */\n      dup3\n        /* \"#utility.yul\":7937:7946   */\n      dup8\n        /* \"#utility.yul\":7933:7955   */\n      add\n        /* \"#utility.yul\":7912:7965   */\n      tag_393\n      jump\t// in\n    tag_545:\n        /* \"#utility.yul\":7902:7965   */\n      swap4\n      pop\n        /* \"#utility.yul\":7858:7975   */\n      pop\n        /* \"#utility.yul\":8014:8016   */\n      0x20\n        /* \"#utility.yul\":8040:8093   */\n      tag_546\n        /* \"#utility.yul\":8085:8092   */\n      dup7\n        /* \"#utility.yul\":8076:8082   */\n      dup3\n        /* \"#utility.yul\":8065:8074   */\n      dup8\n        /* \"#utility.yul\":8061:8083   */\n      add\n        /* \"#utility.yul\":8040:8093   */\n      tag_393\n      jump\t// in\n    tag_546:\n        /* \"#utility.yul\":8030:8093   */\n      swap3\n      pop\n        /* \"#utility.yul\":7985:8103   */\n      pop\n        /* \"#utility.yul\":8142:8144   */\n      0x40\n        /* \"#utility.yul\":8168:8221   */\n      tag_547\n        /* \"#utility.yul\":8213:8220   */\n      dup7\n        /* \"#utility.yul\":8204:8210   */\n      dup3\n        /* \"#utility.yul\":8193:8202   */\n      dup8\n        /* \"#utility.yul\":8189:8211   */\n      add\n        /* \"#utility.yul\":8168:8221   */\n      tag_396\n      jump\t// in\n    tag_547:\n        /* \"#utility.yul\":8158:8221   */\n      swap2\n      pop\n        /* \"#utility.yul\":8113:8231   */\n      pop\n        /* \"#utility.yul\":7619:8238   */\n      swap3\n      pop\n      swap3\n      pop\n      swap3\n      jump\t// out\n        /* \"#utility.yul\":8244:8330   */\n    tag_410:\n        /* \"#utility.yul\":8279:8286   */\n      0x00\n        /* \"#utility.yul\":8319:8323   */\n      0xff\n        /* \"#utility.yul\":8312:8317   */\n      dup3\n        /* \"#utility.yul\":8308:8324   */\n      and\n        /* \"#utility.yul\":8297:8324   */\n      swap1\n      pop\n        /* \"#utility.yul\":8244:8330   */\n      swap2\n      swap1\n      pop\n      jump\t// out\n        /* \"#utility.yul\":8336:8448   */\n    tag_411:\n        /* \"#utility.yul\":8419:8441   */\n      tag_550\n        /* \"#utility.yul\":8435:8440   */\n      dup2\n        /* \"#utility.yul\":8419:8441   */\n      tag_410\n      jump\t// in\n    tag_550:\n        /* \"#utility.yul\":8414:8417   */\n      dup3\n        /* \"#utility.yul\":8407:8442   */\n      mstore\n        /* \"#utility.yul\":8336:8448   */\n      pop\n      pop\n      jump\t// out\n        /* \"#utility.yul\":8454:8668   */\n    tag_63:\n        /* \"#utility.yul\":8543:8547   */\n      0x00\n        /* \"#utility.yul\":8581:8583   */\n      0x20\n        /* \"#utility.yul\":8570:8579   */\n      dup3\n        /* \"#utility.yul\":8566:8584   */\n      add\n        /* \"#utility.yul\":8558:8584   */\n      swap1\n      pop\n        /* \"#utility.yul\":8594:8661   */\n      tag_552\n        /* \"#utility.yul\":8658:8659   */\n      0x00\n        /* \"#utility.yul\":8647:8656   */\n      dup4\n        /* \"#utility.yul\":8643:8660   */\n      add\n        /* \"#utility.yul\":8634:8640   */\n      dup5\n        /* \"#utility.yul\":8594:8661   */\n      tag_411\n      jump\t// in\n    tag_552:\n        /* \"#utility.yul\":8454:8668   */\n      swap3\n      swap2\n      pop\n      pop\n      jump\t// out\n        /* \"#utility.yul\":8674:8788   */\n    tag_412:\n        /* \"#utility.yul\":8741:8747   */\n      0x00\n        /* \"#utility.yul\":8775:8780   */\n      dup2\n        /* \"#utility.yul\":8769:8781   */\n      mload\n        /* \"#utility.yul\":8759:8781   */\n      swap1\n      pop\n        /* \"#utility.yul\":8674:8788   */\n      swap2\n      swap1\n      pop\n      jump\t// out\n        /* \"#utility.yul\":8794:8978   */\n    tag_413:\n        /* \"#utility.yul\":8893:8904   */\n      0x00\n        /* \"#utility.yul\":8927:8933   */\n      dup3\n        /* \"#utility.yul\":8922:8925   */\n      dup3\n        /* \"#utility.yul\":8915:8934   */\n      mstore\n        /* \"#utility.yul\":8967:8971   */\n      0x20\n        /* \"#utility.yul\":8962:8965   */\n      dup3\n        /* \"#utility.yul\":8958:8972   */\n      add\n        /* \"#utility.yul\":8943:8972   */\n      swap1\n      pop\n        /* \"#utility.yul\":8794:8978   */\n      swap3\n      swap2\n      pop\n      pop\n      jump\t// out\n        /* \"#utility.yul\":8984:9116   */\n    tag_414:\n        /* \"#utility.yul\":9051:9055   */\n      0x00\n        /* \"#utility.yul\":9074:9077   */\n      dup2\n        /* \"#utility.yul\":9066:9077   */\n      swap1\n      pop\n        /* \"#utility.yul\":9104:9108   */\n      0x20\n        /* \"#utility.yul\":9099:9102   */\n      dup3\n        /* \"#utility.yul\":9095:9109   */\n      add\n        /* \"#utility.yul\":9087:9109   */\n      swap1\n      pop\n        /* \"#utility.yul\":8984:9116   */\n      swap2\n      swap1\n      pop\n      jump\t// out\n        /* \"#utility.yul\":9122:9230   */\n    tag_415:\n        /* \"#utility.yul\":9199:9223   */\n      tag_557\n        /* \"#utility.yul\":9217:9222   */\n      dup2\n        /* \"#utility.yul\":9199:9223   */\n      tag_391\n      jump\t// in\n    tag_557:\n        /* \"#utility.yul\":9194:9197   */\n      dup3\n        /* \"#utility.yul\":9187:9224   */\n      mstore\n        /* \"#utility.yul\":9122:9230   */\n      pop\n      pop\n      jump\t// out\n        /* \"#utility.yul\":9236:9415   */\n    tag_416:\n        /* \"#utility.yul\":9305:9315   */\n      0x00\n        /* \"#utility.yul\":9326:9372   */\n      tag_559\n        /* \"#utility.yul\":9368:9371   */\n      dup4\n        /* \"#utility.yul\":9360:9366   */\n      dup4\n        /* \"#utility.yul\":9326:9372   */\n      tag_415\n      jump\t// in\n    tag_559:\n        /* \"#utility.yul\":9404:9408   */\n      0x20\n        /* \"#utility.yul\":9399:9402   */\n      dup4\n        /* \"#utility.yul\":9395:9409   */\n      add\n        /* \"#utility.yul\":9381:9409   */\n      swap1\n      pop\n        /* \"#utility.yul\":9236:9415   */\n      swap3\n      swap2\n      pop\n      pop\n      jump\t// out\n        /* \"#utility.yul\":9421:9534   */\n    tag_417:\n        /* \"#utility.yul\":9491:9495   */\n      0x00\n        /* \"#utility.yul\":9523:9527   */\n      0x20\n        /* \"#utility.yul\":9518:9521   */\n      dup3\n        /* \"#utility.yul\":9514:9528   */\n      add\n        /* \"#utility.yul\":9506:9528   */\n      swap1\n      pop\n        /* \"#utility.yul\":9421:9534   */\n      swap2\n      swap1\n      pop\n      jump\t// out\n        /* \"#utility.yul\":9570:10302   */\n    tag_418:\n        /* \"#utility.yul\":9689:9692   */\n      0x00\n        /* \"#utility.yul\":9718:9772   */\n      tag_562\n        /* \"#utility.yul\":9766:9771   */\n      dup3\n        /* \"#utility.yul\":9718:9772   */\n      tag_412\n      jump\t// in\n    tag_562:\n        /* \"#utility.yul\":9788:9874   */\n      tag_563\n        /* \"#utility.yul\":9867:9873   */\n      dup2\n        /* \"#utility.yul\":9862:9865   */\n      dup6\n        /* \"#utility.yul\":9788:9874   */\n      tag_413\n      jump\t// in\n    tag_563:\n        /* \"#utility.yul\":9781:9874   */\n      swap4\n      pop\n        /* \"#utility.yul\":9898:9954   */\n      tag_564\n        /* \"#utility.yul\":9948:9953   */\n      dup4\n        /* \"#utility.yul\":9898:9954   */\n      tag_414\n      jump\t// in\n    tag_564:\n        /* \"#utility.yul\":9977:9984   */\n      dup1\n        /* \"#utility.yul\":10008:10009   */\n      0x00\n        /* \"#utility.yul\":9993:10277   */\n    tag_565:\n        /* \"#utility.yul\":10018:10024   */\n      dup4\n        /* \"#utility.yul\":10015:10016   */\n      dup2\n        /* \"#utility.yul\":10012:10025   */\n      lt\n        /* \"#utility.yul\":9993:10277   */\n      iszero\n      tag_567\n      jumpi\n        /* \"#utility.yul\":10094:10100   */\n      dup2\n        /* \"#utility.yul\":10088:10101   */\n      mload\n        /* \"#utility.yul\":10121:10184   */\n      tag_568\n        /* \"#utility.yul\":10180:10183   */\n      dup9\n        /* \"#utility.yul\":10165:10178   */\n      dup3\n        /* \"#utility.yul\":10121:10184   */\n      tag_416\n      jump\t// in\n    tag_568:\n        /* \"#utility.yul\":10114:10184   */\n      swap8\n      pop\n        /* \"#utility.yul\":10207:10267   */\n      tag_569\n        /* \"#utility.yul\":10260:10266   */\n      dup4\n        /* \"#utility.yul\":10207:10267   */\n      tag_417\n      jump\t// in\n    tag_569:\n        /* \"#utility.yul\":10197:10267   */\n      swap3\n      pop\n        /* \"#utility.yul\":10053:10277   */\n      pop\n        /* \"#utility.yul\":10040:10041   */\n      0x01\n        /* \"#utility.yul\":10037:10038   */\n      dup2\n        /* \"#utility.yul\":10033:10042   */\n      add\n        /* \"#utility.yul\":10028:10042   */\n      swap1\n      pop\n        /* \"#utility.yul\":9993:10277   */\n      jump(tag_565)\n    tag_567:\n        /* \"#utility.yul\":9997:10011   */\n      pop\n        /* \"#utility.yul\":10293:10296   */\n      dup6\n        /* \"#utility.yul\":10286:10296   */\n      swap4\n      pop\n        /* \"#utility.yul\":9694:10302   */\n      pop\n      pop\n      pop\n        /* \"#utility.yul\":9570:10302   */\n      swap3\n      swap2\n      pop\n      pop\n      jump\t// out\n        /* \"#utility.yul\":10308:10681   */\n    tag_68:\n        /* \"#utility.yul\":10451:10455   */\n      0x00\n        /* \"#utility.yul\":10489:10491   */\n      0x20\n        /* \"#utility.yul\":10478:10487   */\n      dup3\n        /* \"#utility.yul\":10474:10492   */\n      add\n        /* \"#utility.yul\":10466:10492   */\n      swap1\n      pop\n        /* \"#utility.yul\":10538:10547   */\n      dup2\n        /* \"#utility.yul\":10532:10536   */\n      dup2\n        /* \"#utility.yul\":10528:10548   */\n      sub\n        /* \"#utility.yul\":10524:10525   */\n      0x00\n        /* \"#utility.yul\":10513:10522   */\n      dup4\n        /* \"#utility.yul\":10509:10526   */\n      add\n        /* \"#utility.yul\":10502:10549   */\n      mstore\n        /* \"#utility.yul\":10566:10674   */\n      tag_571\n        /* \"#utility.yul\":10669:10673   */\n      dup2\n        /* \"#utility.yul\":10660:10666   */\n      dup5\n        /* \"#utility.yul\":10566:10674   */\n      tag_418\n      jump\t// in\n    tag_571:\n        /* \"#utility.yul\":10558:10674   */\n      swap1\n      pop\n        /* \"#utility.yul\":10308:10681   */\n      swap3\n      swap2\n      pop\n      pop\n      jump\t// out\n        /* \"#utility.yul\":10687:10804   */\n    tag_419:\n        /* \"#utility.yul\":10796:10797   */\n      0x00\n        /* \"#utility.yul\":10793:10794   */\n      dup1\n        /* \"#utility.yul\":10786:10798   */\n      revert\n        /* \"#utility.yul\":10810:10927   */\n    tag_420:\n        /* \"#utility.yul\":10919:10920   */\n      0x00\n        /* \"#utility.yul\":10916:10917   */\n      dup1\n        /* \"#utility.yul\":10909:10921   */\n      revert\n        /* \"#utility.yul\":10933:11113   */\n    tag_238:\n        /* \"#utility.yul\":10981:11058   */\n      0x4e487b7100000000000000000000000000000000000000000000000000000000\n        /* \"#utility.yul\":10978:10979   */\n      0x00\n        /* \"#utility.yul\":10971:11059   */\n      mstore\n        /* \"#utility.yul\":11078:11082   */\n      0x41\n        /* \"#utility.yul\":11075:11076   */\n      0x04\n        /* \"#utility.yul\":11068:11083   */\n      mstore\n        /* \"#utility.yul\":11102:11106   */\n      0x24\n        /* \"#utility.yul\":11099:11100   */\n      0x00\n        /* \"#utility.yul\":11092:11107   */\n      revert\n        /* \"#utility.yul\":11119:11400   */\n    tag_421:\n        /* \"#utility.yul\":11202:11229   */\n      tag_576\n        /* \"#utility.yul\":11224:11228   */\n      dup3\n        /* \"#utility.yul\":11202:11229   */\n      tag_385\n      jump\t// in\n    tag_576:\n        /* \"#utility.yul\":11194:11200   */\n      dup2\n        /* \"#utility.yul\":11190:11230   */\n      add\n        /* \"#utility.yul\":11332:11338   */\n      dup2\n        /* \"#utility.yul\":11320:11330   */\n      dup2\n        /* \"#utility.yul\":11317:11339   */\n      lt\n        /* \"#utility.yul\":11296:11314   */\n      0xffffffffffffffff\n        /* \"#utility.yul\":11284:11294   */\n      dup3\n        /* \"#utility.yul\":11281:11315   */\n      gt\n        /* \"#utility.yul\":11278:11340   */\n      or\n        /* \"#utility.yul\":11275:11363   */\n      iszero\n      tag_577\n      jumpi\n        /* \"#utility.yul\":11343:11361   */\n      tag_578\n      tag_238\n      jump\t// in\n    tag_578:\n        /* \"#utility.yul\":11275:11363   */\n    tag_577:\n        /* \"#utility.yul\":11383:11393   */\n      dup1\n        /* \"#utility.yul\":11379:11381   */\n      0x40\n        /* \"#utility.yul\":11372:11394   */\n      mstore\n        /* \"#utility.yul\":11162:11400   */\n      pop\n        /* \"#utility.yul\":11119:11400   */\n      pop\n      pop\n      jump\t// out\n        /* \"#utility.yul\":11406:11535   */\n    tag_422:\n        /* \"#utility.yul\":11440:11446   */\n      0x00\n        /* \"#utility.yul\":11467:11487   */\n      tag_580\n      tag_387\n      jump\t// in\n    tag_580:\n        /* \"#utility.yul\":11457:11487   */\n      swap1\n      pop\n        /* \"#utility.yul\":11496:11529   */\n      tag_581\n        /* \"#utility.yul\":11524:11528   */\n      dup3\n        /* \"#utility.yul\":11516:11522   */\n      dup3\n        /* \"#utility.yul\":11496:11529   */\n      tag_421\n      jump\t// in\n    tag_581:\n        /* \"#utility.yul\":11406:11535   */\n      swap2\n      swap1\n      pop\n      jump\t// out\n        /* \"#utility.yul\":11541:11849   */\n    tag_423:\n        /* \"#utility.yul\":11603:11607   */\n      0x00\n        /* \"#utility.yul\":11693:11711   */\n      0xffffffffffffffff\n        /* \"#utility.yul\":11685:11691   */\n      dup3\n        /* \"#utility.yul\":11682:11712   */\n      gt\n        /* \"#utility.yul\":11679:11735   */\n      iszero\n      tag_583\n      jumpi\n        /* \"#utility.yul\":11715:11733   */\n      tag_584\n      tag_238\n      jump\t// in\n    tag_584:\n        /* \"#utility.yul\":11679:11735   */\n    tag_583:\n        /* \"#utility.yul\":11753:11782   */\n      tag_585\n        /* \"#utility.yul\":11775:11781   */\n      dup3\n        /* \"#utility.yul\":11753:11782   */\n      tag_385\n      jump\t// in\n    tag_585:\n        /* \"#utility.yul\":11745:11782   */\n      swap1\n      pop\n        /* \"#utility.yul\":11837:11841   */\n      0x20\n        /* \"#utility.yul\":11831:11835   */\n      dup2\n        /* \"#utility.yul\":11827:11842   */\n      add\n        /* \"#utility.yul\":11819:11842   */\n      swap1\n      pop\n        /* \"#utility.yul\":11541:11849   */\n      swap2\n      swap1\n      pop\n      jump\t// out\n        /* \"#utility.yul\":11855:12003   */\n    tag_424:\n        /* \"#utility.yul\":11953:11959   */\n      dup3\n        /* \"#utility.yul\":11948:11951   */\n      dup2\n        /* \"#utility.yul\":11943:11946   */\n      dup4\n        /* \"#utility.yul\":11930:11960   */\n      calldatacopy\n        /* \"#utility.yul\":11994:11995   */\n      0x00\n        /* \"#utility.yul\":11985:11991   */\n      dup4\n        /* \"#utility.yul\":11980:11983   */\n      dup4\n        /* \"#utility.yul\":11976:11992   */\n      add\n        /* \"#utility.yul\":11969:11996   */\n      mstore\n        /* \"#utility.yul\":11855:12003   */\n      pop\n      pop\n      pop\n      jump\t// out\n        /* \"#utility.yul\":12009:12434   */\n    tag_425:\n        /* \"#utility.yul\":12087:12092   */\n      0x00\n        /* \"#utility.yul\":12112:12178   */\n      tag_588\n        /* \"#utility.yul\":12128:12177   */\n      tag_589\n        /* \"#utility.yul\":12170:12176   */\n      dup5\n        /* \"#utility.yul\":12128:12177   */\n      tag_423\n      jump\t// in\n    tag_589:\n        /* \"#utility.yul\":12112:12178   */\n      tag_422\n      jump\t// in\n    tag_588:\n        /* \"#utility.yul\":12103:12178   */\n      swap1\n      pop\n        /* \"#utility.yul\":12201:12207   */\n      dup3\n        /* \"#utility.yul\":12194:12199   */\n      dup2\n        /* \"#utility.yul\":12187:12208   */\n      mstore\n        /* \"#utility.yul\":12239:12243   */\n      0x20\n        /* \"#utility.yul\":12232:12237   */\n      dup2\n        /* \"#utility.yul\":12228:12244   */\n      add\n        /* \"#utility.yul\":12277:12280   */\n      dup5\n        /* \"#utility.yul\":12268:12274   */\n      dup5\n        /* \"#utility.yul\":12263:12266   */\n      dup5\n        /* \"#utility.yul\":12259:12275   */\n      add\n        /* \"#utility.yul\":12256:12281   */\n      gt\n        /* \"#utility.yul\":12253:12365   */\n      iszero\n      tag_590\n      jumpi\n        /* \"#utility.yul\":12284:12363   */\n      tag_591\n      tag_420\n      jump\t// in\n    tag_591:\n        /* \"#utility.yul\":12253:12365   */\n    tag_590:\n        /* \"#utility.yul\":12374:12428   */\n      tag_592\n        /* \"#utility.yul\":12421:12427   */\n      dup5\n        /* \"#utility.yul\":12416:12419   */\n      dup3\n        /* \"#utility.yul\":12411:12414   */\n      dup6\n        /* \"#utility.yul\":12374:12428   */\n      tag_424\n      jump\t// in\n    tag_592:\n        /* \"#utility.yul\":12093:12434   */\n      pop\n        /* \"#utility.yul\":12009:12434   */\n      swap4\n      swap3\n      pop\n      pop\n      pop\n      jump\t// out\n        /* \"#utility.yul\":12454:12794   */\n    tag_426:\n        /* \"#utility.yul\":12510:12515   */\n      0x00\n        /* \"#utility.yul\":12559:12562   */\n      dup3\n        /* \"#utility.yul\":12552:12556   */\n      0x1f\n        /* \"#utility.yul\":12544:12550   */\n      dup4\n        /* \"#utility.yul\":12540:12557   */\n      add\n        /* \"#utility.yul\":12536:12563   */\n      slt\n        /* \"#utility.yul\":12526:12648   */\n      tag_594\n      jumpi\n        /* \"#utility.yul\":12567:12646   */\n      tag_595\n      tag_419\n      jump\t// in\n    tag_595:\n        /* \"#utility.yul\":12526:12648   */\n    tag_594:\n        /* \"#utility.yul\":12684:12690   */\n      dup2\n        /* \"#utility.yul\":12671:12691   */\n      calldataload\n        /* \"#utility.yul\":12709:12788   */\n      tag_596\n        /* \"#utility.yul\":12784:12787   */\n      dup5\n        /* \"#utility.yul\":12776:12782   */\n      dup3\n        /* \"#utility.yul\":12769:12773   */\n      0x20\n        /* \"#utility.yul\":12761:12767   */\n      dup7\n        /* \"#utility.yul\":12757:12774   */\n      add\n        /* \"#utility.yul\":12709:12788   */\n      tag_425\n      jump\t// in\n    tag_596:\n        /* \"#utility.yul\":12700:12788   */\n      swap2\n      pop\n        /* \"#utility.yul\":12516:12794   */\n      pop\n        /* \"#utility.yul\":12454:12794   */\n      swap3\n      swap2\n      pop\n      pop\n      jump\t// out\n        /* \"#utility.yul\":12800:13309   */\n    tag_72:\n        /* \"#utility.yul\":12869:12875   */\n      0x00\n        /* \"#utility.yul\":12918:12920   */\n      0x20\n        /* \"#utility.yul\":12906:12915   */\n      dup3\n        /* \"#utility.yul\":12897:12904   */\n      dup5\n        /* \"#utility.yul\":12893:12916   */\n      sub\n        /* \"#utility.yul\":12889:12921   */\n      slt\n        /* \"#utility.yul\":12886:13005   */\n      iszero\n      tag_598\n      jumpi\n        /* \"#utility.yul\":12924:13003   */\n      tag_599\n      tag_388\n      jump\t// in\n    tag_599:\n        /* \"#utility.yul\":12886:13005   */\n    tag_598:\n        /* \"#utility.yul\":13072:13073   */\n      0x00\n        /* \"#utility.yul\":13061:13070   */\n      dup3\n        /* \"#utility.yul\":13057:13074   */\n      add\n        /* \"#utility.yul\":13044:13075   */\n      calldataload\n        /* \"#utility.yul\":13102:13120   */\n      0xffffffffffffffff\n        /* \"#utility.yul\":13094:13100   */\n      dup2\n        /* \"#utility.yul\":13091:13121   */\n      gt\n        /* \"#utility.yul\":13088:13205   */\n      iszero\n      tag_600\n      jumpi\n        /* \"#utility.yul\":13124:13203   */\n      tag_601\n      tag_389\n      jump\t// in\n    tag_601:\n        /* \"#utility.yul\":13088:13205   */\n    tag_600:\n        /* \"#utility.yul\":13229:13292   */\n      tag_602\n        /* \"#utility.yul\":13284:13291   */\n      dup5\n        /* \"#utility.yul\":13275:13281   */\n      dup3\n        /* \"#utility.yul\":13264:13273   */\n      dup6\n        /* \"#utility.yul\":13260:13282   */\n      add\n        /* \"#utility.yul\":13229:13292   */\n      tag_426\n      jump\t// in\n    tag_602:\n        /* \"#utility.yul\":13219:13292   */\n      swap2\n      pop\n        /* \"#utility.yul\":13015:13302   */\n      pop\n        /* \"#utility.yul\":12800:13309   */\n      swap3\n      swap2\n      pop\n      pop\n      jump\t// out\n        /* \"#utility.yul\":13315:13644   */\n    tag_77:\n        /* \"#utility.yul\":13374:13380   */\n      0x00\n        /* \"#utility.yul\":13423:13425   */\n      0x20\n        /* \"#utility.yul\":13411:13420   */\n      dup3\n        /* \"#utility.yul\":13402:13409   */\n      dup5\n        /* \"#utility.yul\":13398:13421   */\n      sub\n        /* \"#utility.yul\":13394:13426   */\n      slt\n        /* \"#utility.yul\":13391:13510   */\n      iszero\n      tag_604\n      jumpi\n        /* \"#utility.yul\":13429:13508   */\n      tag_605\n      tag_388\n      jump\t// in\n    tag_605:\n        /* \"#utility.yul\":13391:13510   */\n    tag_604:\n        /* \"#utility.yul\":13549:13550   */\n      0x00\n        /* \"#utility.yul\":13574:13627   */\n      tag_606\n        /* \"#utility.yul\":13619:13626   */\n      dup5\n        /* \"#utility.yul\":13610:13616   */\n      dup3\n        /* \"#utility.yul\":13599:13608   */\n      dup6\n        /* \"#utility.yul\":13595:13617   */\n      add\n        /* \"#utility.yul\":13574:13627   */\n      tag_396\n      jump\t// in\n    tag_606:\n        /* \"#utility.yul\":13564:13627   */\n      swap2\n      pop\n        /* \"#utility.yul\":13520:13637   */\n      pop\n        /* \"#utility.yul\":13315:13644   */\n      swap3\n      swap2\n      pop\n      pop\n      jump\t// out\n        /* \"#utility.yul\":13650:13768   */\n    tag_427:\n        /* \"#utility.yul\":13737:13761   */\n      tag_608\n        /* \"#utility.yul\":13755:13760   */\n      dup2\n        /* \"#utility.yul\":13737:13761   */\n      tag_391\n      jump\t// in\n    tag_608:\n        /* \"#utility.yul\":13732:13735   */\n      dup3\n        /* \"#utility.yul\":13725:13762   */\n      mstore\n        /* \"#utility.yul\":13650:13768   */\n      pop\n      pop\n      jump\t// out\n        /* \"#utility.yul\":13774:14094   */\n    tag_80:\n        /* \"#utility.yul\":13889:13893   */\n      0x00\n        /* \"#utility.yul\":13927:13929   */\n      0x40\n        /* \"#utility.yul\":13916:13925   */\n      dup3\n        /* \"#utility.yul\":13912:13930   */\n      add\n        /* \"#utility.yul\":13904:13930   */\n      swap1\n      pop\n        /* \"#utility.yul\":13940:14011   */\n      tag_610\n        /* \"#utility.yul\":14008:14009   */\n      0x00\n        /* \"#utility.yul\":13997:14006   */\n      dup4\n        /* \"#utility.yul\":13993:14010   */\n      add\n        /* \"#utility.yul\":13984:13990   */\n      dup6\n        /* \"#utility.yul\":13940:14011   */\n      tag_427\n      jump\t// in\n    tag_610:\n        /* \"#utility.yul\":14021:14087   */\n      tag_611\n        /* \"#utility.yul\":14083:14085   */\n      0x20\n        /* \"#utility.yul\":14072:14081   */\n      dup4\n        /* \"#utility.yul\":14068:14086   */\n      add\n        /* \"#utility.yul\":14059:14065   */\n      dup5\n        /* \"#utility.yul\":14021:14087   */\n      tag_398\n      jump\t// in\n    tag_611:\n        /* \"#utility.yul\":13774:14094   */\n      swap4\n      swap3\n      pop\n      pop\n      pop\n      jump\t// out\n        /* \"#utility.yul\":14100:14429   */\n    tag_84:\n        /* \"#utility.yul\":14159:14165   */\n      0x00\n        /* \"#utility.yul\":14208:14210   */\n      0x20\n        /* \"#utility.yul\":14196:14205   */\n      dup3\n        /* \"#utility.yul\":14187:14194   */\n      dup5\n        /* \"#utility.yul\":14183:14206   */\n      sub\n        /* \"#utility.yul\":14179:14211   */\n      slt\n        /* \"#utility.yul\":14176:14295   */\n      iszero\n      tag_613\n      jumpi\n        /* \"#utility.yul\":14214:14293   */\n      tag_614\n      tag_388\n      jump\t// in\n    tag_614:\n        /* \"#utility.yul\":14176:14295   */\n    tag_613:\n        /* \"#utility.yul\":14334:14335   */\n      0x00\n        /* \"#utility.yul\":14359:14412   */\n      tag_615\n        /* \"#utility.yul\":14404:14411   */\n      dup5\n        /* \"#utility.yul\":14395:14401   */\n      dup3\n        /* \"#utility.yul\":14384:14393   */\n      dup6\n        /* \"#utility.yul\":14380:14402   */\n      add\n        /* \"#utility.yul\":14359:14412   */\n      tag_393\n      jump\t// in\n    tag_615:\n        /* \"#utility.yul\":14349:14412   */\n      swap2\n      pop\n        /* \"#utility.yul\":14305:14422   */\n      pop\n        /* \"#utility.yul\":14100:14429   */\n      swap3\n      swap2\n      pop\n      pop\n      jump\t// out\n        /* \"#utility.yul\":14435:14657   */\n    tag_98:\n        /* \"#utility.yul\":14528:14532   */\n      0x00\n        /* \"#utility.yul\":14566:14568   */\n      0x20\n        /* \"#utility.yul\":14555:14564   */\n      dup3\n        /* \"#utility.yul\":14551:14569   */\n      add\n        /* \"#utility.yul\":14543:14569   */\n      swap1\n      pop\n        /* \"#utility.yul\":14579:14650   */\n      tag_617\n        /* \"#utility.yul\":14647:14648   */\n      0x00\n        /* \"#utility.yul\":14636:14645   */\n      dup4\n        /* \"#utility.yul\":14632:14649   */\n      add\n        /* \"#utility.yul\":14623:14629   */\n      dup5\n        /* \"#utility.yul\":14579:14650   */\n      tag_427\n      jump\t// in\n    tag_617:\n        /* \"#utility.yul\":14435:14657   */\n      swap3\n      swap2\n      pop\n      pop\n      jump\t// out\n        /* \"#utility.yul\":14663:15086   */\n    tag_104:\n        /* \"#utility.yul\":14804:14808   */\n      0x00\n        /* \"#utility.yul\":14842:14844   */\n      0x40\n        /* \"#utility.yul\":14831:14840   */\n      dup3\n        /* \"#utility.yul\":14827:14845   */\n      add\n        /* \"#utility.yul\":14819:14845   */\n      swap1\n      pop\n        /* \"#utility.yul\":14891:14900   */\n      dup2\n        /* \"#utility.yul\":14885:14889   */\n      dup2\n        /* \"#utility.yul\":14881:14901   */\n      sub\n        /* \"#utility.yul\":14877:14878   */\n      0x00\n        /* \"#utility.yul\":14866:14875   */\n      dup4\n        /* \"#utility.yul\":14862:14879   */\n      add\n        /* \"#utility.yul\":14855:14902   */\n      mstore\n        /* \"#utility.yul\":14919:14997   */\n      tag_619\n        /* \"#utility.yul\":14992:14996   */\n      dup2\n        /* \"#utility.yul\":14983:14989   */\n      dup6\n        /* \"#utility.yul\":14919:14997   */\n      tag_386\n      jump\t// in\n    tag_619:\n        /* \"#utility.yul\":14911:14997   */\n      swap1\n      pop\n        /* \"#utility.yul\":15007:15079   */\n      tag_620\n        /* \"#utility.yul\":15075:15077   */\n      0x20\n        /* \"#utility.yul\":15064:15073   */\n      dup4\n        /* \"#utility.yul\":15060:15078   */\n      add\n        /* \"#utility.yul\":15051:15057   */\n      dup5\n        /* \"#utility.yul\":15007:15079   */\n      tag_399\n      jump\t// in\n    tag_620:\n        /* \"#utility.yul\":14663:15086   */\n      swap4\n      swap3\n      pop\n      pop\n      pop\n      jump\t// out\n        /* \"#utility.yul\":15092:15746   */\n    tag_116:\n        /* \"#utility.yul\":15170:15176   */\n      0x00\n        /* \"#utility.yul\":15178:15184   */\n      dup1\n        /* \"#utility.yul\":15227:15229   */\n      0x40\n        /* \"#utility.yul\":15215:15224   */\n      dup4\n        /* \"#utility.yul\":15206:15213   */\n      dup6\n        /* \"#utility.yul\":15202:15225   */\n      sub\n        /* \"#utility.yul\":15198:15230   */\n      slt\n        /* \"#utility.yul\":15195:15314   */\n      iszero\n      tag_622\n      jumpi\n        /* \"#utility.yul\":15233:15312   */\n      tag_623\n      tag_388\n      jump\t// in\n    tag_623:\n        /* \"#utility.yul\":15195:15314   */\n    tag_622:\n        /* \"#utility.yul\":15381:15382   */\n      0x00\n        /* \"#utility.yul\":15370:15379   */\n      dup4\n        /* \"#utility.yul\":15366:15383   */\n      add\n        /* \"#utility.yul\":15353:15384   */\n      calldataload\n        /* \"#utility.yul\":15411:15429   */\n      0xffffffffffffffff\n        /* \"#utility.yul\":15403:15409   */\n      dup2\n        /* \"#utility.yul\":15400:15430   */\n      gt\n        /* \"#utility.yul\":15397:15514   */\n      iszero\n      tag_624\n      jumpi\n        /* \"#utility.yul\":15433:15512   */\n      tag_625\n      tag_389\n      jump\t// in\n    tag_625:\n        /* \"#utility.yul\":15397:15514   */\n    tag_624:\n        /* \"#utility.yul\":15538:15601   */\n      tag_626\n        /* \"#utility.yul\":15593:15600   */\n      dup6\n        /* \"#utility.yul\":15584:15590   */\n      dup3\n        /* \"#utility.yul\":15573:15582   */\n      dup7\n        /* \"#utility.yul\":15569:15591   */\n      add\n        /* \"#utility.yul\":15538:15601   */\n      tag_426\n      jump\t// in\n    tag_626:\n        /* \"#utility.yul\":15528:15601   */\n      swap3\n      pop\n        /* \"#utility.yul\":15324:15611   */\n      pop\n        /* \"#utility.yul\":15650:15652   */\n      0x20\n        /* \"#utility.yul\":15676:15729   */\n      tag_627\n        /* \"#utility.yul\":15721:15728   */\n      dup6\n        /* \"#utility.yul\":15712:15718   */\n      dup3\n        /* \"#utility.yul\":15701:15710   */\n      dup7\n        /* \"#utility.yul\":15697:15719   */\n      add\n        /* \"#utility.yul\":15676:15729   */\n      tag_393\n      jump\t// in\n    tag_627:\n        /* \"#utility.yul\":15666:15729   */\n      swap2\n      pop\n        /* \"#utility.yul\":15621:15739   */\n      pop\n        /* \"#utility.yul\":15092:15746   */\n      swap3\n      pop\n      swap3\n      swap1\n      pop\n      jump\t// out\n        /* \"#utility.yul\":15752:16226   */\n    tag_125:\n        /* \"#utility.yul\":15820:15826   */\n      0x00\n        /* \"#utility.yul\":15828:15834   */\n      dup1\n        /* \"#utility.yul\":15877:15879   */\n      0x40\n        /* \"#utility.yul\":15865:15874   */\n      dup4\n        /* \"#utility.yul\":15856:15863   */\n      dup6\n        /* \"#utility.yul\":15852:15875   */\n      sub\n        /* \"#utility.yul\":15848:15880   */\n      slt\n        /* \"#utility.yul\":15845:15964   */\n      iszero\n      tag_629\n      jumpi\n        /* \"#utility.yul\":15883:15962   */\n      tag_630\n      tag_388\n      jump\t// in\n    tag_630:\n        /* \"#utility.yul\":15845:15964   */\n    tag_629:\n        /* \"#utility.yul\":16003:16004   */\n      0x00\n        /* \"#utility.yul\":16028:16081   */\n      tag_631\n        /* \"#utility.yul\":16073:16080   */\n      dup6\n        /* \"#utility.yul\":16064:16070   */\n      dup3\n        /* \"#utility.yul\":16053:16062   */\n      dup7\n        /* \"#utility.yul\":16049:16071   */\n      add\n        /* \"#utility.yul\":16028:16081   */\n      tag_396\n      jump\t// in\n    tag_631:\n        /* \"#utility.yul\":16018:16081   */\n      swap3\n      pop\n        /* \"#utility.yul\":15974:16091   */\n      pop\n        /* \"#utility.yul\":16130:16132   */\n      0x20\n        /* \"#utility.yul\":16156:16209   */\n      tag_632\n        /* \"#utility.yul\":16201:16208   */\n      dup6\n        /* \"#utility.yul\":16192:16198   */\n      dup3\n        /* \"#utility.yul\":16181:16190   */\n      dup7\n        /* \"#utility.yul\":16177:16199   */\n      add\n        /* \"#utility.yul\":16156:16209   */\n      tag_396\n      jump\t// in\n    tag_632:\n        /* \"#utility.yul\":16146:16209   */\n      swap2\n      pop\n        /* \"#utility.yul\":16101:16219   */\n      pop\n        /* \"#utility.yul\":15752:16226   */\n      swap3\n      pop\n      swap3\n      swap1\n      pop\n      jump\t// out\n        /* \"#utility.yul\":16232:16706   */\n    tag_130:\n        /* \"#utility.yul\":16300:16306   */\n      0x00\n        /* \"#utility.yul\":16308:16314   */\n      dup1\n        /* \"#utility.yul\":16357:16359   */\n      0x40\n        /* \"#utility.yul\":16345:16354   */\n      dup4\n        /* \"#utility.yul\":16336:16343   */\n      dup6\n        /* \"#utility.yul\":16332:16355   */\n      sub\n        /* \"#utility.yul\":16328:16360   */\n      slt\n        /* \"#utility.yul\":16325:16444   */\n      iszero\n      tag_634\n      jumpi\n        /* \"#utility.yul\":16363:16442   */\n      tag_635\n      tag_388\n      jump\t// in\n    tag_635:\n        /* \"#utility.yul\":16325:16444   */\n    tag_634:\n        /* \"#utility.yul\":16483:16484   */\n      0x00\n        /* \"#utility.yul\":16508:16561   */\n      tag_636\n        /* \"#utility.yul\":16553:16560   */\n      dup6\n        /* \"#utility.yul\":16544:16550   */\n      dup3\n        /* \"#utility.yul\":16533:16542   */\n      dup7\n        /* \"#utility.yul\":16529:16551   */\n      add\n        /* \"#utility.yul\":16508:16561   */\n      tag_393\n      jump\t// in\n    tag_636:\n        /* \"#utility.yul\":16498:16561   */\n      swap3\n      pop\n        /* \"#utility.yul\":16454:16571   */\n      pop\n        /* \"#utility.yul\":16610:16612   */\n      0x20\n        /* \"#utility.yul\":16636:16689   */\n      tag_637\n        /* \"#utility.yul\":16681:16688   */\n      dup6\n        /* \"#utility.yul\":16672:16678   */\n      dup3\n        /* \"#utility.yul\":16661:16670   */\n      dup7\n        /* \"#utility.yul\":16657:16679   */\n      add\n        /* \"#utility.yul\":16636:16689   */\n      tag_393\n      jump\t// in\n    tag_637:\n        /* \"#utility.yul\":16626:16689   */\n      swap2\n      pop\n        /* \"#utility.yul\":16581:16699   */\n      pop\n        /* \"#utility.yul\":16232:16706   */\n      swap3\n      pop\n      swap3\n      swap1\n      pop\n      jump\t// out\n        /* \"#utility.yul\":16712:16826   */\n    tag_428:\n        /* \"#utility.yul\":16779:16785   */\n      0x00\n        /* \"#utility.yul\":16813:16818   */\n      dup2\n        /* \"#utility.yul\":16807:16819   */\n      mload\n        /* \"#utility.yul\":16797:16819   */\n      swap1\n      pop\n        /* \"#utility.yul\":16712:16826   */\n      swap2\n      swap1\n      pop\n      jump\t// out\n        /* \"#utility.yul\":16832:17016   */\n    tag_429:\n        /* \"#utility.yul\":16931:16942   */\n      0x00\n        /* \"#utility.yul\":16965:16971   */\n      dup3\n        /* \"#utility.yul\":16960:16963   */\n      dup3\n        /* \"#utility.yul\":16953:16972   */\n      mstore\n        /* \"#utility.yul\":17005:17009   */\n      0x20\n        /* \"#utility.yul\":17000:17003   */\n      dup3\n        /* \"#utility.yul\":16996:17010   */\n      add\n        /* \"#utility.yul\":16981:17010   */\n      swap1\n      pop\n        /* \"#utility.yul\":16832:17016   */\n      swap3\n      swap2\n      pop\n      pop\n      jump\t// out\n        /* \"#utility.yul\":17022:17154   */\n    tag_430:\n        /* \"#utility.yul\":17089:17093   */\n      0x00\n        /* \"#utility.yul\":17112:17115   */\n      dup2\n        /* \"#utility.yul\":17104:17115   */\n      swap1\n      pop\n        /* \"#utility.yul\":17142:17146   */\n      0x20\n        /* \"#utility.yul\":17137:17140   */\n      dup3\n        /* \"#utility.yul\":17133:17147   */\n      add\n        /* \"#utility.yul\":17125:17147   */\n      swap1\n      pop\n        /* \"#utility.yul\":17022:17154   */\n      swap2\n      swap1\n      pop\n      jump\t// out\n        /* \"#utility.yul\":17160:17339   */\n    tag_431:\n        /* \"#utility.yul\":17229:17239   */\n      0x00\n        /* \"#utility.yul\":17250:17296   */\n      tag_642\n        /* \"#utility.yul\":17292:17295   */\n      dup4\n        /* \"#utility.yul\":17284:17290   */\n      dup4\n        /* \"#utility.yul\":17250:17296   */\n      tag_405\n      jump\t// in\n    tag_642:\n        /* \"#utility.yul\":17328:17332   */\n      0x20\n        /* \"#utility.yul\":17323:17326   */\n      dup4\n        /* \"#utility.yul\":17319:17333   */\n      add\n        /* \"#utility.yul\":17305:17333   */\n      swap1\n      pop\n        /* \"#utility.yul\":17160:17339   */\n      swap3\n      swap2\n      pop\n      pop\n      jump\t// out\n        /* \"#utility.yul\":17345:17458   */\n    tag_432:\n        /* \"#utility.yul\":17415:17419   */\n      0x00\n        /* \"#utility.yul\":17447:17451   */\n      0x20\n        /* \"#utility.yul\":17442:17445   */\n      dup3\n        /* \"#utility.yul\":17438:17452   */\n      add\n        /* \"#utility.yul\":17430:17452   */\n      swap1\n      pop\n        /* \"#utility.yul\":17345:17458   */\n      swap2\n      swap1\n      pop\n      jump\t// out\n        /* \"#utility.yul\":17494:18226   */\n    tag_433:\n        /* \"#utility.yul\":17613:17616   */\n      0x00\n        /* \"#utility.yul\":17642:17696   */\n      tag_645\n        /* \"#utility.yul\":17690:17695   */\n      dup3\n        /* \"#utility.yul\":17642:17696   */\n      tag_428\n      jump\t// in\n    tag_645:\n        /* \"#utility.yul\":17712:17798   */\n      tag_646\n        /* \"#utility.yul\":17791:17797   */\n      dup2\n        /* \"#utility.yul\":17786:17789   */\n      dup6\n        /* \"#utility.yul\":17712:17798   */\n      tag_429\n      jump\t// in\n    tag_646:\n        /* \"#utility.yul\":17705:17798   */\n      swap4\n      pop\n        /* \"#utility.yul\":17822:17878   */\n      tag_647\n        /* \"#utility.yul\":17872:17877   */\n      dup4\n        /* \"#utility.yul\":17822:17878   */\n      tag_430\n      jump\t// in\n    tag_647:\n        /* \"#utility.yul\":17901:17908   */\n      dup1\n        /* \"#utility.yul\":17932:17933   */\n      0x00\n        /* \"#utility.yul\":17917:18201   */\n    tag_648:\n        /* \"#utility.yul\":17942:17948   */\n      dup4\n        /* \"#utility.yul\":17939:17940   */\n      dup2\n        /* \"#utility.yul\":17936:17949   */\n      lt\n        /* \"#utility.yul\":17917:18201   */\n      iszero\n      tag_650\n      jumpi\n        /* \"#utility.yul\":18018:18024   */\n      dup2\n        /* \"#utility.yul\":18012:18025   */\n      mload\n        /* \"#utility.yul\":18045:18108   */\n      tag_651\n        /* \"#utility.yul\":18104:18107   */\n      dup9\n        /* \"#utility.yul\":18089:18102   */\n      dup3\n        /* \"#utility.yul\":18045:18108   */\n      tag_431\n      jump\t// in\n    tag_651:\n        /* \"#utility.yul\":18038:18108   */\n      swap8\n      pop\n        /* \"#utility.yul\":18131:18191   */\n      tag_652\n        /* \"#utility.yul\":18184:18190   */\n      dup4\n        /* \"#utility.yul\":18131:18191   */\n      tag_432\n      jump\t// in\n    tag_652:\n        /* \"#utility.yul\":18121:18191   */\n      swap3\n      pop\n        /* \"#utility.yul\":17977:18201   */\n      pop\n        /* \"#utility.yul\":17964:17965   */\n      0x01\n        /* \"#utility.yul\":17961:17962   */\n      dup2\n        /* \"#utility.yul\":17957:17966   */\n      add\n        /* \"#utility.yul\":17952:17966   */\n      swap1\n      pop\n        /* \"#utility.yul\":17917:18201   */\n      jump(tag_648)\n    tag_650:\n        /* \"#utility.yul\":17921:17935   */\n      pop\n        /* \"#utility.yul\":18217:18220   */\n      dup6\n        /* \"#utility.yul\":18210:18220   */\n      swap4\n      pop\n        /* \"#utility.yul\":17618:18226   */\n      pop\n      pop\n      pop\n        /* \"#utility.yul\":17494:18226   */\n      swap3\n      swap2\n      pop\n      pop\n      jump\t// out\n        /* \"#utility.yul\":18232:18605   */\n    tag_147:\n        /* \"#utility.yul\":18375:18379   */\n      0x00\n        /* \"#utility.yul\":18413:18415   */\n      0x20\n        /* \"#utility.yul\":18402:18411   */\n      dup3\n        /* \"#utility.yul\":18398:18416   */\n      add\n        /* \"#utility.yul\":18390:18416   */\n      swap1\n      pop\n        /* \"#utility.yul\":18462:18471   */\n      dup2\n        /* \"#utility.yul\":18456:18460   */\n      dup2\n        /* \"#utility.yul\":18452:18472   */\n      sub\n        /* \"#utility.yul\":18448:18449   */\n      0x00\n        /* \"#utility.yul\":18437:18446   */\n      dup4\n        /* \"#utility.yul\":18433:18450   */\n      add\n        /* \"#utility.yul\":18426:18473   */\n      mstore\n        /* \"#utility.yul\":18490:18598   */\n      tag_654\n        /* \"#utility.yul\":18593:18597   */\n      dup2\n        /* \"#utility.yul\":18584:18590   */\n      dup5\n        /* \"#utility.yul\":18490:18598   */\n      tag_433\n      jump\t// in\n    tag_654:\n        /* \"#utility.yul\":18482:18598   */\n      swap1\n      pop\n        /* \"#utility.yul\":18232:18605   */\n      swap3\n      swap2\n      pop\n      pop\n      jump\t// out\n        /* \"#utility.yul\":18611:18735   */\n    tag_434:\n        /* \"#utility.yul\":18688:18694   */\n      0x00\n        /* \"#utility.yul\":18722:18727   */\n      dup2\n        /* \"#utility.yul\":18716:18728   */\n      mload\n        /* \"#utility.yul\":18706:18728   */\n      swap1\n      pop\n        /* \"#utility.yul\":18611:18735   */\n      swap2\n      swap1\n      pop\n      jump\t// out\n        /* \"#utility.yul\":18741:18935   */\n    tag_435:\n        /* \"#utility.yul\":18850:18861   */\n      0x00\n        /* \"#utility.yul\":18884:18890   */\n      dup3\n        /* \"#utility.yul\":18879:18882   */\n      dup3\n        /* \"#utility.yul\":18872:18891   */\n      mstore\n        /* \"#utility.yul\":18924:18928   */\n      0x20\n        /* \"#utility.yul\":18919:18922   */\n      dup3\n        /* \"#utility.yul\":18915:18929   */\n      add\n        /* \"#utility.yul\":18900:18929   */\n      swap1\n      pop\n        /* \"#utility.yul\":18741:18935   */\n      swap3\n      swap2\n      pop\n      pop\n      jump\t// out\n        /* \"#utility.yul\":18941:19083   */\n    tag_436:\n        /* \"#utility.yul\":19018:19022   */\n      0x00\n        /* \"#utility.yul\":19041:19044   */\n      dup2\n        /* \"#utility.yul\":19033:19044   */\n      swap1\n      pop\n        /* \"#utility.yul\":19071:19075   */\n      0x20\n        /* \"#utility.yul\":19066:19069   */\n      dup3\n        /* \"#utility.yul\":19062:19076   */\n      add\n        /* \"#utility.yul\":19054:19076   */\n      swap1\n      pop\n        /* \"#utility.yul\":18941:19083   */\n      swap2\n      swap1\n      pop\n      jump\t// out\n        /* \"#utility.yul\":19089:19285   */\n    tag_437:\n        /* \"#utility.yul\":19178:19188   */\n      0x00\n        /* \"#utility.yul\":19213:19279   */\n      tag_659\n        /* \"#utility.yul\":19275:19278   */\n      dup4\n        /* \"#utility.yul\":19267:19273   */\n      dup4\n        /* \"#utility.yul\":19213:19279   */\n      tag_404\n      jump\t// in\n    tag_659:\n        /* \"#utility.yul\":19199:19279   */\n      swap1\n      pop\n        /* \"#utility.yul\":19089:19285   */\n      swap3\n      swap2\n      pop\n      pop\n      jump\t// out\n        /* \"#utility.yul\":19291:19414   */\n    tag_438:\n        /* \"#utility.yul\":19371:19375   */\n      0x00\n        /* \"#utility.yul\":19403:19407   */\n      0x20\n        /* \"#utility.yul\":19398:19401   */\n      dup3\n        /* \"#utility.yul\":19394:19408   */\n      add\n        /* \"#utility.yul\":19386:19408   */\n      swap1\n      pop\n        /* \"#utility.yul\":19291:19414   */\n      swap2\n      swap1\n      pop\n      jump\t// out\n        /* \"#utility.yul\":19448:20439   */\n    tag_439:\n        /* \"#utility.yul\":19587:19590   */\n      0x00\n        /* \"#utility.yul\":19616:19680   */\n      tag_662\n        /* \"#utility.yul\":19674:19679   */\n      dup3\n        /* \"#utility.yul\":19616:19680   */\n      tag_434\n      jump\t// in\n    tag_662:\n        /* \"#utility.yul\":19696:19792   */\n      tag_663\n        /* \"#utility.yul\":19785:19791   */\n      dup2\n        /* \"#utility.yul\":19780:19783   */\n      dup6\n        /* \"#utility.yul\":19696:19792   */\n      tag_435\n      jump\t// in\n    tag_663:\n        /* \"#utility.yul\":19689:19792   */\n      swap4\n      pop\n        /* \"#utility.yul\":19818:19821   */\n      dup4\n        /* \"#utility.yul\":19863:19867   */\n      0x20\n        /* \"#utility.yul\":19855:19861   */\n      dup3\n        /* \"#utility.yul\":19851:19868   */\n      mul\n        /* \"#utility.yul\":19846:19849   */\n      dup6\n        /* \"#utility.yul\":19842:19869   */\n      add\n        /* \"#utility.yul\":19893:19959   */\n      tag_664\n        /* \"#utility.yul\":19953:19958   */\n      dup6\n        /* \"#utility.yul\":19893:19959   */\n      tag_436\n      jump\t// in\n    tag_664:\n        /* \"#utility.yul\":19982:19989   */\n      dup1\n        /* \"#utility.yul\":20013:20014   */\n      0x00\n        /* \"#utility.yul\":19998:20394   */\n    tag_665:\n        /* \"#utility.yul\":20023:20029   */\n      dup6\n        /* \"#utility.yul\":20020:20021   */\n      dup2\n        /* \"#utility.yul\":20017:20030   */\n      lt\n        /* \"#utility.yul\":19998:20394   */\n      iszero\n      tag_667\n      jumpi\n        /* \"#utility.yul\":20094:20103   */\n      dup5\n        /* \"#utility.yul\":20088:20092   */\n      dup5\n        /* \"#utility.yul\":20084:20104   */\n      sub\n        /* \"#utility.yul\":20079:20082   */\n      dup10\n        /* \"#utility.yul\":20072:20105   */\n      mstore\n        /* \"#utility.yul\":20145:20151   */\n      dup2\n        /* \"#utility.yul\":20139:20152   */\n      mload\n        /* \"#utility.yul\":20173:20257   */\n      tag_668\n        /* \"#utility.yul\":20252:20256   */\n      dup6\n        /* \"#utility.yul\":20237:20250   */\n      dup3\n        /* \"#utility.yul\":20173:20257   */\n      tag_437\n      jump\t// in\n    tag_668:\n        /* \"#utility.yul\":20165:20257   */\n      swap5\n      pop\n        /* \"#utility.yul\":20280:20350   */\n      tag_669\n        /* \"#utility.yul\":20343:20349   */\n      dup4\n        /* \"#utility.yul\":20280:20350   */\n      tag_438\n      jump\t// in\n    tag_669:\n        /* \"#utility.yul\":20270:20350   */\n      swap3\n      pop\n        /* \"#utility.yul\":20379:20383   */\n      0x20\n        /* \"#utility.yul\":20374:20377   */\n      dup11\n        /* \"#utility.yul\":20370:20384   */\n      add\n        /* \"#utility.yul\":20363:20384   */\n      swap10\n      pop\n        /* \"#utility.yul\":20058:20394   */\n      pop\n        /* \"#utility.yul\":20045:20046   */\n      0x01\n        /* \"#utility.yul\":20042:20043   */\n      dup2\n        /* \"#utility.yul\":20038:20047   */\n      add\n        /* \"#utility.yul\":20033:20047   */\n      swap1\n      pop\n        /* \"#utility.yul\":19998:20394   */\n      jump(tag_665)\n    tag_667:\n        /* \"#utility.yul\":20002:20016   */\n      pop\n        /* \"#utility.yul\":20410:20414   */\n      dup3\n        /* \"#utility.yul\":20403:20414   */\n      swap8\n      pop\n        /* \"#utility.yul\":20430:20433   */\n      dup8\n        /* \"#utility.yul\":20423:20433   */\n      swap6\n      pop\n        /* \"#utility.yul\":19592:20439   */\n      pop\n      pop\n      pop\n      pop\n      pop\n        /* \"#utility.yul\":19448:20439   */\n      swap3\n      swap2\n      pop\n      pop\n      jump\t// out\n        /* \"#utility.yul\":20445:21119   */\n    tag_156:\n        /* \"#utility.yul\":20686:20690   */\n      0x00\n        /* \"#utility.yul\":20724:20726   */\n      0x40\n        /* \"#utility.yul\":20713:20722   */\n      dup3\n        /* \"#utility.yul\":20709:20727   */\n      add\n        /* \"#utility.yul\":20701:20727   */\n      swap1\n      pop\n        /* \"#utility.yul\":20773:20782   */\n      dup2\n        /* \"#utility.yul\":20767:20771   */\n      dup2\n        /* \"#utility.yul\":20763:20783   */\n      sub\n        /* \"#utility.yul\":20759:20760   */\n      0x00\n        /* \"#utility.yul\":20748:20757   */\n      dup4\n        /* \"#utility.yul\":20744:20761   */\n      add\n        /* \"#utility.yul\":20737:20784   */\n      mstore\n        /* \"#utility.yul\":20801:20929   */\n      tag_671\n        /* \"#utility.yul\":20924:20928   */\n      dup2\n        /* \"#utility.yul\":20915:20921   */\n      dup6\n        /* \"#utility.yul\":20801:20929   */\n      tag_439\n      jump\t// in\n    tag_671:\n        /* \"#utility.yul\":20793:20929   */\n      swap1\n      pop\n        /* \"#utility.yul\":20976:20985   */\n      dup2\n        /* \"#utility.yul\":20970:20974   */\n      dup2\n        /* \"#utility.yul\":20966:20986   */\n      sub\n        /* \"#utility.yul\":20961:20963   */\n      0x20\n        /* \"#utility.yul\":20950:20959   */\n      dup4\n        /* \"#utility.yul\":20946:20964   */\n      add\n        /* \"#utility.yul\":20939:20987   */\n      mstore\n        /* \"#utility.yul\":21004:21112   */\n      tag_672\n        /* \"#utility.yul\":21107:21111   */\n      dup2\n        /* \"#utility.yul\":21098:21104   */\n      dup5\n        /* \"#utility.yul\":21004:21112   */\n      tag_433\n      jump\t// in\n    tag_672:\n        /* \"#utility.yul\":20996:21112   */\n      swap1\n      pop\n        /* \"#utility.yul\":20445:21119   */\n      swap4\n      swap3\n      pop\n      pop\n      pop\n      jump\t// out\n        /* \"#utility.yul\":21125:21305   */\n    tag_440:\n        /* \"#utility.yul\":21173:21250   */\n      0x4e487b7100000000000000000000000000000000000000000000000000000000\n        /* \"#utility.yul\":21170:21171   */\n      0x00\n        /* \"#utility.yul\":21163:21251   */\n      mstore\n        /* \"#utility.yul\":21270:21274   */\n      0x22\n        /* \"#utility.yul\":21267:21268   */\n      0x04\n        /* \"#utility.yul\":21260:21275   */\n      mstore\n        /* \"#utility.yul\":21294:21298   */\n      0x24\n        /* \"#utility.yul\":21291:21292   */\n      0x00\n        /* \"#utility.yul\":21284:21299   */\n      revert\n        /* \"#utility.yul\":21311:21631   */\n    tag_159:\n        /* \"#utility.yul\":21355:21361   */\n      0x00\n        /* \"#utility.yul\":21392:21393   */\n      0x02\n        /* \"#utility.yul\":21386:21390   */\n      dup3\n        /* \"#utility.yul\":21382:21394   */\n      div\n        /* \"#utility.yul\":21372:21394   */\n      swap1\n      pop\n        /* \"#utility.yul\":21439:21440   */\n      0x01\n        /* \"#utility.yul\":21433:21437   */\n      dup3\n        /* \"#utility.yul\":21429:21441   */\n      and\n        /* \"#utility.yul\":21460:21478   */\n      dup1\n        /* \"#utility.yul\":21450:21531   */\n      tag_675\n      jumpi\n        /* \"#utility.yul\":21516:21520   */\n      0x7f\n        /* \"#utility.yul\":21508:21514   */\n      dup3\n        /* \"#utility.yul\":21504:21521   */\n      and\n        /* \"#utility.yul\":21494:21521   */\n      swap2\n      pop\n        /* \"#utility.yul\":21450:21531   */\n    tag_675:\n        /* \"#utility.yul\":21578:21580   */\n      0x20\n        /* \"#utility.yul\":21570:21576   */\n      dup3\n        /* \"#utility.yul\":21567:21581   */\n      lt\n        /* \"#utility.yul\":21547:21565   */\n      dup2\n        /* \"#utility.yul\":21544:21582   */\n      sub\n        /* \"#utility.yul\":21541:21625   */\n      tag_676\n      jumpi\n        /* \"#utility.yul\":21597:21615   */\n      tag_677\n      tag_440\n      jump\t// in\n    tag_677:\n        /* \"#utility.yul\":21541:21625   */\n    tag_676:\n        /* \"#utility.yul\":21362:21631   */\n      pop\n        /* \"#utility.yul\":21311:21631   */\n      swap2\n      swap1\n      pop\n      jump\t// out\n        /* \"#utility.yul\":21637:21778   */\n    tag_441:\n        /* \"#utility.yul\":21686:21690   */\n      0x00\n        /* \"#utility.yul\":21709:21712   */\n      dup2\n        /* \"#utility.yul\":21701:21712   */\n      swap1\n      pop\n        /* \"#utility.yul\":21732:21735   */\n      dup2\n        /* \"#utility.yul\":21729:21730   */\n      0x00\n        /* \"#utility.yul\":21722:21736   */\n      mstore\n        /* \"#utility.yul\":21766:21770   */\n      0x20\n        /* \"#utility.yul\":21763:21764   */\n      0x00\n        /* \"#utility.yul\":21753:21771   */\n      keccak256\n        /* \"#utility.yul\":21745:21771   */\n      swap1\n      pop\n        /* \"#utility.yul\":21637:21778   */\n      swap2\n      swap1\n      pop\n      jump\t// out\n        /* \"#utility.yul\":21784:21877   */\n    tag_442:\n        /* \"#utility.yul\":21821:21827   */\n      0x00\n        /* \"#utility.yul\":21868:21870   */\n      0x20\n        /* \"#utility.yul\":21863:21865   */\n      0x1f\n        /* \"#utility.yul\":21856:21861   */\n      dup4\n        /* \"#utility.yul\":21852:21866   */\n      add\n        /* \"#utility.yul\":21848:21871   */\n      div\n        /* \"#utility.yul\":21838:21871   */\n      swap1\n      pop\n        /* \"#utility.yul\":21784:21877   */\n      swap2\n      swap1\n      pop\n      jump\t// out\n        /* \"#utility.yul\":21883:21990   */\n    tag_443:\n        /* \"#utility.yul\":21927:21935   */\n      0x00\n        /* \"#utility.yul\":21977:21982   */\n      dup3\n        /* \"#utility.yul\":21971:21975   */\n      dup3\n        /* \"#utility.yul\":21967:21983   */\n      shl\n        /* \"#utility.yul\":21946:21983   */\n      swap1\n      pop\n        /* \"#utility.yul\":21883:21990   */\n      swap3\n      swap2\n      pop\n      pop\n      jump\t// out\n        /* \"#utility.yul\":21996:22389   */\n    tag_444:\n        /* \"#utility.yul\":22065:22071   */\n      0x00\n        /* \"#utility.yul\":22115:22116   */\n      0x08\n        /* \"#utility.yul\":22103:22113   */\n      dup4\n        /* \"#utility.yul\":22099:22117   */\n      mul\n        /* \"#utility.yul\":22138:22235   */\n      tag_682\n        /* \"#utility.yul\":22168:22234   */\n      0xffffffffffffffffffffffffffffffffffffffffffffffffffffffffffffffff\n        /* \"#utility.yul\":22157:22166   */\n      dup3\n        /* \"#utility.yul\":22138:22235   */\n      tag_443\n      jump\t// in\n    tag_682:\n        /* \"#utility.yul\":22256:22295   */\n      tag_683\n        /* \"#utility.yul\":22286:22294   */\n      dup7\n        /* \"#utility.yul\":22275:22284   */\n      dup4\n        /* \"#utility.yul\":22256:22295   */\n      tag_443\n      jump\t// in\n    tag_683:\n        /* \"#utility.yul\":22244:22295   */\n      swap6\n      pop\n        /* \"#utility.yul\":22328:22332   */\n      dup1\n        /* \"#utility.yul\":22324:22333   */\n      not\n        /* \"#utility.yul\":22317:22322   */\n      dup5\n        /* \"#utility.yul\":22313:22334   */\n      and\n        /* \"#utility.yul\":22304:22334   */\n      swap4\n      pop\n        /* \"#utility.yul\":22377:22381   */\n      dup1\n        /* \"#utility.yul\":22367:22375   */\n      dup7\n        /* \"#utility.yul\":22363:22382   */\n      and\n        /* \"#utility.yul\":22356:22361   */\n      dup5\n        /* \"#utility.yul\":22353:22383   */\n      or\n        /* \"#utility.yul\":22343:22383   */\n      swap3\n      pop\n        /* \"#utility.yul\":22072:22389   */\n      pop\n      pop\n        /* \"#utility.yul\":21996:22389   */\n      swap4\n      swap3\n      pop\n      pop\n      pop\n      jump\t// out\n        /* \"#utility.yul\":22395:22455   */\n    tag_445:\n        /* \"#utility.yul\":22423:22426   */\n      0x00\n        /* \"#utility.yul\":22444:22449   */\n      dup2\n        /* \"#utility.yul\":22437:22449   */\n      swap1\n      pop\n        /* \"#utility.yul\":22395:22455   */\n      swap2\n      swap1\n      pop\n      jump\t// out\n        /* \"#utility.yul\":22461:22603   */\n    tag_446:\n        /* \"#utility.yul\":22511:22520   */\n      0x00\n        /* \"#utility.yul\":22544:22597   */\n      tag_686\n        /* \"#utility.yul\":22562:22596   */\n      tag_687\n        /* \"#utility.yul\":22571:22595   */\n      tag_688\n        /* \"#utility.yul\":22589:22594   */\n      dup5\n        /* \"#utility.yul\":22571:22595   */\n      tag_394\n      jump\t// in\n    tag_688:\n        /* \"#utility.yul\":22562:22596   */\n      tag_445\n      jump\t// in\n    tag_687:\n        /* \"#utility.yul\":22544:22597   */\n      tag_394\n      jump\t// in\n    tag_686:\n        /* \"#utility.yul\":22531:22597   */\n      swap1\n      pop\n        /* \"#utility.yul\":22461:22603   */\n      swap2\n      swap1\n      pop\n      jump\t// out\n        /* \"#utility.yul\":22609:22684   */\n    tag_447:\n        /* \"#utility.yul\":22652:22655   */\n      0x00\n        /* \"#utility.yul\":22673:22678   */\n      dup2\n        /* \"#utility.yul\":22666:22678   */\n      swap1\n      pop\n        /* \"#utility.yul\":22609:22684   */\n      swap2\n      swap1\n      pop\n      jump\t// out\n        /* \"#utility.yul\":22690:22959   */\n    tag_448:\n        /* \"#utility.yul\":22800:22839   */\n      tag_691\n        /* \"#utility.yul\":22831:22838   */\n      dup4\n        /* \"#utility.yul\":22800:22839   */\n      tag_446\n      jump\t// in\n    tag_691:\n        /* \"#utility.yul\":22861:22952   */\n      tag_692\n        /* \"#utility.yul\":22910:22951   */\n      tag_693\n        /* \"#utility.yul\":22934:22950   */\n      dup3\n        /* \"#utility.yul\":22910:22951   */\n      tag_447\n      jump\t// in\n    tag_693:\n        /* \"#utility.yul\":22902:22908   */\n      dup5\n        /* \"#utility.yul\":22895:22899   */\n      dup5\n        /* \"#utility.yul\":22889:22900   */\n      sload\n        /* \"#utility.yul\":22861:22952   */\n      tag_444\n      jump\t// in\n    tag_692:\n        /* \"#utility.yul\":22855:22859   */\n      dup3\n        /* \"#utility.yul\":22848:22953   */\n      sstore\n        /* \"#utility.yul\":22766:22959   */\n      pop\n        /* \"#utility.yul\":22690:22959   */\n      pop\n      pop\n      pop\n      jump\t// out\n        /* \"#utility.yul\":22965:23038   */\n    tag_449:\n        /* \"#utility.yul\":23010:23013   */\n      0x00\n        /* \"#utility.yul\":22965:23038   */\n      swap1\n      jump\t// out\n        /* \"#utility.yul\":23044:23233   */\n    tag_450:\n        /* \"#utility.yul\":23121:23153   */\n      tag_696\n      tag_449\n      jump\t// in\n    tag_696:\n        /* \"#utility.yul\":23162:23227   */\n      tag_697\n        /* \"#utility.yul\":23220:23226   */\n      dup2\n        /* \"#utility.yul\":23212:23218   */\n      dup5\n        /* \"#utility.yul\":23206:23210   */\n      dup5\n        /* \"#utility.yul\":23162:23227   */\n      tag_448\n      jump\t// in\n    tag_697:\n        /* \"#utility.yul\":23097:23233   */\n      pop\n        /* \"#utility.yul\":23044:23233   */\n      pop\n      pop\n      jump\t// out\n        /* \"#utility.yul\":23239:23425   */\n    tag_451:\n        /* \"#utility.yul\":23299:23419   */\n    tag_699:\n        /* \"#utility.yul\":23316:23319   */\n      dup2\n        /* \"#utility.yul\":23309:23314   */\n      dup2\n        /* \"#utility.yul\":23306:23320   */\n      lt\n        /* \"#utility.yul\":23299:23419   */\n      iszero\n      tag_701\n      jumpi\n        /* \"#utility.yul\":23370:23409   */\n      tag_702\n        /* \"#utility.yul\":23407:23408   */\n      0x00\n        /* \"#utility.yul\":23400:23405   */\n      dup3\n        /* \"#utility.yul\":23370:23409   */\n      tag_450\n      jump\t// in\n    tag_702:\n        /* \"#utility.yul\":23343:23344   */\n      0x01\n        /* \"#utility.yul\":23336:23341   */\n      dup2\n        /* \"#utility.yul\":23332:23345   */\n      add\n        /* \"#utility.yul\":23323:23345   */\n      swap1\n      pop\n        /* \"#utility.yul\":23299:23419   */\n      jump(tag_699)\n    tag_701:\n        /* \"#utility.yul\":23239:23425   */\n      pop\n      pop\n      jump\t// out\n        /* \"#utility.yul\":23431:23974   */\n    tag_452:\n        /* \"#utility.yul\":23532:23534   */\n      0x1f\n        /* \"#utility.yul\":23527:23530   */\n      dup3\n        /* \"#utility.yul\":23524:23535   */\n      gt\n        /* \"#utility.yul\":23521:23967   */\n      iszero\n      tag_704\n      jumpi\n        /* \"#utility.yul\":23566:23604   */\n      tag_705\n        /* \"#utility.yul\":23598:23603   */\n      dup2\n        /* \"#utility.yul\":23566:23604   */\n      tag_441\n      jump\t// in\n    tag_705:\n        /* \"#utility.yul\":23650:23679   */\n      tag_706\n        /* \"#utility.yul\":23668:23678   */\n      dup5\n        /* \"#utility.yul\":23650:23679   */\n      tag_442\n      jump\t// in\n    tag_706:\n        /* \"#utility.yul\":23640:23648   */\n      dup2\n        /* \"#utility.yul\":23636:23680   */\n      add\n        /* \"#utility.yul\":23833:23835   */\n      0x20\n        /* \"#utility.yul\":23821:23831   */\n      dup6\n        /* \"#utility.yul\":23818:23836   */\n      lt\n        /* \"#utility.yul\":23815:23864   */\n      iszero\n      tag_707\n      jumpi\n        /* \"#utility.yul\":23854:23862   */\n      dup2\n        /* \"#utility.yul\":23839:23862   */\n      swap1\n      pop\n        /* \"#utility.yul\":23815:23864   */\n    tag_707:\n        /* \"#utility.yul\":23877:23957   */\n      tag_708\n        /* \"#utility.yul\":23933:23955   */\n      tag_709\n        /* \"#utility.yul\":23951:23954   */\n      dup6\n        /* \"#utility.yul\":23933:23955   */\n      tag_442\n      jump\t// in\n    tag_709:\n        /* \"#utility.yul\":23923:23931   */\n      dup4\n        /* \"#utility.yul\":23919:23956   */\n      add\n        /* \"#utility.yul\":23906:23917   */\n      dup3\n        /* \"#utility.yul\":23877:23957   */\n      tag_451\n      jump\t// in\n    tag_708:\n        /* \"#utility.yul\":23536:23967   */\n      pop\n      pop\n        /* \"#utility.yul\":23521:23967   */\n    tag_704:\n        /* \"#utility.yul\":23431:23974   */\n      pop\n      pop\n      pop\n      jump\t// out\n        /* \"#utility.yul\":23980:24097   */\n    tag_453:\n        /* \"#utility.yul\":24034:24042   */\n      0x00\n        /* \"#utility.yul\":24084:24089   */\n      dup3\n        /* \"#utility.yul\":24078:24082   */\n      dup3\n        /* \"#utility.yul\":24074:24090   */\n      shr\n        /* \"#utility.yul\":24053:24090   */\n      swap1\n      pop\n        /* \"#utility.yul\":23980:24097   */\n      swap3\n      swap2\n      pop\n      pop\n      jump\t// out\n        /* \"#utility.yul\":24103:24272   */\n    tag_454:\n        /* \"#utility.yul\":24147:24153   */\n      0x00\n        /* \"#utility.yul\":24180:24231   */\n      tag_712\n        /* \"#utility.yul\":24228:24229   */\n      0x00\n        /* \"#utility.yul\":24224:24230   */\n      not\n        /* \"#utility.yul\":24216:24221   */\n      dup5\n        /* \"#utility.yul\":24213:24214   */\n      0x08\n        /* \"#utility.yul\":24209:24222   */\n      mul\n        /* \"#utility.yul\":24180:24231   */\n      tag_453\n      jump\t// in\n    tag_712:\n        /* \"#utility.yul\":24176:24232   */\n      not\n        /* \"#utility.yul\":24261:24265   */\n      dup1\n        /* \"#utility.yul\":24255:24259   */\n      dup4\n        /* \"#utility.yul\":24251:24266   */\n      and\n        /* \"#utility.yul\":24241:24266   */\n      swap2\n      pop\n        /* \"#utility.yul\":24154:24272   */\n      pop\n        /* \"#utility.yul\":24103:24272   */\n      swap3\n      swap2\n      pop\n      pop\n      jump\t// out\n        /* \"#utility.yul\":24277:24572   */\n    tag_455:\n        /* \"#utility.yul\":24353:24357   */\n      0x00\n        /* \"#utility.yul\":24499:24528   */\n      tag_714\n        /* \"#utility.yul\":24524:24527   */\n      dup4\n        /* \"#utility.yul\":24518:24522   */\n      dup4\n        /* \"#utility.yul\":24499:24528   */\n      tag_454\n      jump\t// in\n    tag_714:\n        /* \"#utility.yul\":24491:24528   */\n      swap2\n      pop\n        /* \"#utility.yul\":24561:24564   */\n      dup3\n        /* \"#utility.yul\":24558:24559   */\n      0x02\n        /* \"#utility.yul\":24554:24565   */\n      mul\n        /* \"#utility.yul\":24548:24552   */\n      dup3\n        /* \"#utility.yul\":24545:24566   */\n      or\n        /* \"#utility.yul\":24537:24566   */\n      swap1\n      pop\n        /* \"#utility.yul\":24277:24572   */\n      swap3\n      swap2\n      pop\n      pop\n      jump\t// out\n        /* \"#utility.yul\":24577:25972   */\n    tag_195:\n        /* \"#utility.yul\":24694:24731   */\n      tag_716\n        /* \"#utility.yul\":24727:24730   */\n      dup3\n        /* \"#utility.yul\":24694:24731   */\n      tag_382\n      jump\t// in\n    tag_716:\n        /* \"#utility.yul\":24796:24814   */\n      0xffffffffffffffff\n        /* \"#utility.yul\":24788:24794   */\n      dup2\n        /* \"#utility.yul\":24785:24815   */\n      gt\n        /* \"#utility.yul\":24782:24838   */\n      iszero\n      tag_717\n      jumpi\n        /* \"#utility.yul\":24818:24836   */\n      tag_718\n      tag_238\n      jump\t// in\n    tag_718:\n        /* \"#utility.yul\":24782:24838   */\n    tag_717:\n        /* \"#utility.yul\":24862:24900   */\n      tag_719\n        /* \"#utility.yul\":24894:24898   */\n      dup3\n        /* \"#utility.yul\":24888:24899   */\n      sload\n        /* \"#utility.yul\":24862:24900   */\n      tag_159\n      jump\t// in\n    tag_719:\n        /* \"#utility.yul\":24947:25014   */\n      tag_720\n        /* \"#utility.yul\":25007:25013   */\n      dup3\n        /* \"#utility.yul\":24999:25005   */\n      dup3\n        /* \"#utility.yul\":24993:24997   */\n      dup6\n        /* \"#utility.yul\":24947:25014   */\n      tag_452\n      jump\t// in\n    tag_720:\n        /* \"#utility.yul\":25041:25042   */\n      0x00\n        /* \"#utility.yul\":25065:25069   */\n      0x20\n        /* \"#utility.yul\":25052:25069   */\n      swap1\n      pop\n        /* \"#utility.yul\":25097:25099   */\n      0x1f\n        /* \"#utility.yul\":25089:25095   */\n      dup4\n        /* \"#utility.yul\":25086:25100   */\n      gt\n        /* \"#utility.yul\":25114:25115   */\n      0x01\n        /* \"#utility.yul\":25109:25727   */\n      dup2\n      eq\n      tag_722\n      jumpi\n        /* \"#utility.yul\":25771:25772   */\n      0x00\n        /* \"#utility.yul\":25788:25794   */\n      dup5\n        /* \"#utility.yul\":25785:25862   */\n      iszero\n      tag_723\n      jumpi\n        /* \"#utility.yul\":25837:25846   */\n      dup3\n        /* \"#utility.yul\":25832:25835   */\n      dup8\n        /* \"#utility.yul\":25828:25847   */\n      add\n        /* \"#utility.yul\":25822:25848   */\n      mload\n        /* \"#utility.yul\":25813:25848   */\n      swap1\n      pop\n        /* \"#utility.yul\":25785:25862   */\n    tag_723:\n        /* \"#utility.yul\":25888:25955   */\n      tag_724\n        /* \"#utility.yul\":25948:25954   */\n      dup6\n        /* \"#utility.yul\":25941:25946   */\n      dup3\n        /* \"#utility.yul\":25888:25955   */\n      tag_455\n      jump\t// in\n    tag_724:\n        /* \"#utility.yul\":25882:25886   */\n      dup7\n        /* \"#utility.yul\":25875:25956   */\n      sstore\n        /* \"#utility.yul\":25744:25966   */\n      pop\n        /* \"#utility.yul\":25079:25966   */\n      jump(tag_721)\n        /* \"#utility.yul\":25109:25727   */\n    tag_722:\n        /* \"#utility.yul\":25161:25165   */\n      0x1f\n        /* \"#utility.yul\":25157:25166   */\n      not\n        /* \"#utility.yul\":25149:25155   */\n      dup5\n        /* \"#utility.yul\":25145:25167   */\n      and\n        /* \"#utility.yul\":25195:25232   */\n      tag_725\n        /* \"#utility.yul\":25227:25231   */\n      dup7\n        /* \"#utility.yul\":25195:25232   */\n      tag_441\n      jump\t// in\n    tag_725:\n        /* \"#utility.yul\":25254:25255   */\n      0x00\n        /* \"#utility.yul\":25268:25476   */\n    tag_726:\n        /* \"#utility.yul\":25282:25289   */\n      dup3\n        /* \"#utility.yul\":25279:25280   */\n      dup2\n        /* \"#utility.yul\":25276:25290   */\n      lt\n        /* \"#utility.yul\":25268:25476   */\n      iszero\n      tag_728\n      jumpi\n        /* \"#utility.yul\":25361:25370   */\n      dup5\n        /* \"#utility.yul\":25356:25359   */\n      dup10\n        /* \"#utility.yul\":25352:25371   */\n      add\n        /* \"#utility.yul\":25346:25372   */\n      mload\n        /* \"#utility.yul\":25338:25344   */\n      dup3\n        /* \"#utility.yul\":25331:25373   */\n      sstore\n        /* \"#utility.yul\":25412:25413   */\n      0x01\n        /* \"#utility.yul\":25404:25410   */\n      dup3\n        /* \"#utility.yul\":25400:25414   */\n      add\n        /* \"#utility.yul\":25390:25414   */\n      swap2\n      pop\n        /* \"#utility.yul\":25459:25461   */\n      0x20\n        /* \"#utility.yul\":25448:25457   */\n      dup6\n        /* \"#utility.yul\":25444:25462   */\n      add\n        /* \"#utility.yul\":25431:25462   */\n      swap5\n      pop\n        /* \"#utility.yul\":25305:25309   */\n      0x20\n        /* \"#utility.yul\":25302:25303   */\n      dup2\n        /* \"#utility.yul\":25298:25310   */\n      add\n        /* \"#utility.yul\":25293:25310   */\n      swap1\n      pop\n        /* \"#utility.yul\":25268:25476   */\n      jump(tag_726)\n    tag_728:\n        /* \"#utility.yul\":25504:25510   */\n      dup7\n        /* \"#utility.yul\":25495:25502   */\n      dup4\n        /* \"#utility.yul\":25492:25511   */\n      lt\n        /* \"#utility.yul\":25489:25668   */\n      iszero\n      tag_729\n      jumpi\n        /* \"#utility.yul\":25562:25571   */\n      dup5\n        /* \"#utility.yul\":25557:25560   */\n      dup10\n        /* \"#utility.yul\":25553:25572   */\n      add\n        /* \"#utility.yul\":25547:25573   */\n      mload\n        /* \"#utility.yul\":25605:25653   */\n      tag_730\n        /* \"#utility.yul\":25647:25651   */\n      0x1f\n        /* \"#utility.yul\":25639:25645   */\n      dup10\n        /* \"#utility.yul\":25635:25652   */\n      and\n        /* \"#utility.yul\":25624:25633   */\n      dup3\n        /* \"#utility.yul\":25605:25653   */\n      tag_454\n      jump\t// in\n    tag_730:\n        /* \"#utility.yul\":25597:25603   */\n      dup4\n        /* \"#utility.yul\":25590:25654   */\n      sstore\n        /* \"#utility.yul\":25512:25668   */\n      pop\n        /* \"#utility.yul\":25489:25668   */\n    tag_729:\n        /* \"#utility.yul\":25714:25715   */\n      0x01\n        /* \"#utility.yul\":25710:25711   */\n      0x02\n        /* \"#utility.yul\":25702:25708   */\n      dup9\n        /* \"#utility.yul\":25698:25712   */\n      mul\n        /* \"#utility.yul\":25694:25716   */\n      add\n        /* \"#utility.yul\":25688:25692   */\n      dup9\n        /* \"#utility.yul\":25681:25717   */\n      sstore\n        /* \"#utility.yul\":25116:25727   */\n      pop\n      pop\n      pop\n        /* \"#utility.yul\":25079:25966   */\n    tag_721:\n      pop\n        /* \"#utility.yul\":24669:25972   */\n      pop\n      pop\n      pop\n        /* \"#utility.yul\":24577:25972   */\n      pop\n      pop\n      jump\t// out\n        /* \"#utility.yul\":25978:26200   */\n    tag_456:\n        /* \"#utility.yul\":26118:26152   */\n      0x4e6f206572657320656c2070726f706965746172696f2064652065737461206d\n        /* \"#utility.yul\":26114:26115   */\n      0x00\n        /* \"#utility.yul\":26106:26112   */\n      dup3\n        /* \"#utility.yul\":26102:26116   */\n      add\n        /* \"#utility.yul\":26095:26153   */\n      mstore\n        /* \"#utility.yul\":26187:26192   */\n      0x6573610000000000000000000000000000000000000000000000000000000000\n        /* \"#utility.yul\":26182:26184   */\n      0x20\n        /* \"#utility.yul\":26174:26180   */\n      dup3\n        /* \"#utility.yul\":26170:26185   */\n      add\n        /* \"#utility.yul\":26163:26193   */\n      mstore\n        /* \"#utility.yul\":25978:26200   */\n      pop\n      jump\t// out\n        /* \"#utility.yul\":26206:26572   */\n    tag_457:\n        /* \"#utility.yul\":26348:26351   */\n      0x00\n        /* \"#utility.yul\":26369:26436   */\n      tag_733\n        /* \"#utility.yul\":26433:26435   */\n      0x23\n        /* \"#utility.yul\":26428:26431   */\n      dup4\n        /* \"#utility.yul\":26369:26436   */\n      tag_383\n      jump\t// in\n    tag_733:\n        /* \"#utility.yul\":26362:26436   */\n      swap2\n      pop\n        /* \"#utility.yul\":26445:26538   */\n      tag_734\n        /* \"#utility.yul\":26534:26537   */\n      dup3\n        /* \"#utility.yul\":26445:26538   */\n      tag_456\n      jump\t// in\n    tag_734:\n        /* \"#utility.yul\":26563:26565   */\n      0x40\n        /* \"#utility.yul\":26558:26561   */\n      dup3\n        /* \"#utility.yul\":26554:26566   */\n      add\n        /* \"#utility.yul\":26547:26566   */\n      swap1\n      pop\n        /* \"#utility.yul\":26206:26572   */\n      swap2\n      swap1\n      pop\n      jump\t// out\n        /* \"#utility.yul\":26578:26997   */\n    tag_206:\n        /* \"#utility.yul\":26744:26748   */\n      0x00\n        /* \"#utility.yul\":26782:26784   */\n      0x20\n        /* \"#utility.yul\":26771:26780   */\n      dup3\n        /* \"#utility.yul\":26767:26785   */\n      add\n        /* \"#utility.yul\":26759:26785   */\n      swap1\n      pop\n        /* \"#utility.yul\":26831:26840   */\n      dup2\n        /* \"#utility.yul\":26825:26829   */\n      dup2\n        /* \"#utility.yul\":26821:26841   */\n      sub\n        /* \"#utility.yul\":26817:26818   */\n      0x00\n        /* \"#utility.yul\":26806:26815   */\n      dup4\n        /* \"#utility.yul\":26802:26819   */\n      add\n        /* \"#utility.yul\":26795:26842   */\n      mstore\n        /* \"#utility.yul\":26859:26990   */\n      tag_736\n        /* \"#utility.yul\":26985:26989   */\n      dup2\n        /* \"#utility.yul\":26859:26990   */\n      tag_457\n      jump\t// in\n    tag_736:\n        /* \"#utility.yul\":26851:26990   */\n      swap1\n      pop\n        /* \"#utility.yul\":26578:26997   */\n      swap2\n      swap1\n      pop\n      jump\t// out\n        /* \"#utility.yul\":27003:27178   */\n    tag_458:\n        /* \"#utility.yul\":27143:27170   */\n      0x45737461206d6573612079612065737461206365727261646100000000000000\n        /* \"#utility.yul\":27139:27140   */\n      0x00\n        /* \"#utility.yul\":27131:27137   */\n      dup3\n        /* \"#utility.yul\":27127:27141   */\n      add\n        /* \"#utility.yul\":27120:27171   */\n      mstore\n        /* \"#utility.yul\":27003:27178   */\n      pop\n      jump\t// out\n        /* \"#utility.yul\":27184:27550   */\n    tag_459:\n        /* \"#utility.yul\":27326:27329   */\n      0x00\n        /* \"#utility.yul\":27347:27414   */\n      tag_739\n        /* \"#utility.yul\":27411:27413   */\n      0x19\n        /* \"#utility.yul\":27406:27409   */\n      dup4\n        /* \"#utility.yul\":27347:27414   */\n      tag_383\n      jump\t// in\n    tag_739:\n        /* \"#utility.yul\":27340:27414   */\n      swap2\n      pop\n        /* \"#utility.yul\":27423:27516   */\n      tag_740\n        /* \"#utility.yul\":27512:27515   */\n      dup3\n        /* \"#utility.yul\":27423:27516   */\n      tag_458\n      jump\t// in\n    tag_740:\n        /* \"#utility.yul\":27541:27543   */\n      0x20\n        /* \"#utility.yul\":27536:27539   */\n      dup3\n        /* \"#utility.yul\":27532:27544   */\n      add\n        /* \"#utility.yul\":27525:27544   */\n      swap1\n      pop\n        /* \"#utility.yul\":27184:27550   */\n      swap2\n      swap1\n      pop\n      jump\t// out\n        /* \"#utility.yul\":27556:27975   */\n    tag_209:\n        /* \"#utility.yul\":27722:27726   */\n      0x00\n        /* \"#utility.yul\":27760:27762   */\n      0x20\n        /* \"#utility.yul\":27749:27758   */\n      dup3\n        /* \"#utility.yul\":27745:27763   */\n      add\n        /* \"#utility.yul\":27737:27763   */\n      swap1\n      pop\n        /* \"#utility.yul\":27809:27818   */\n      dup2\n        /* \"#utility.yul\":27803:27807   */\n      dup2\n        /* \"#utility.yul\":27799:27819   */\n      sub\n        /* \"#utility.yul\":27795:27796   */\n      0x00\n        /* \"#utility.yul\":27784:27793   */\n      dup4\n        /* \"#utility.yul\":27780:27797   */\n      add\n        /* \"#utility.yul\":27773:27820   */\n      mstore\n        /* \"#utility.yul\":27837:27968   */\n      tag_742\n        /* \"#utility.yul\":27963:27967   */\n      dup2\n        /* \"#utility.yul\":27837:27968   */\n      tag_459\n      jump\t// in\n    tag_742:\n        /* \"#utility.yul\":27829:27968   */\n      swap1\n      pop\n        /* \"#utility.yul\":27556:27975   */\n      swap2\n      swap1\n      pop\n      jump\t// out\n        /* \"#utility.yul\":27981:28161   */\n    tag_460:\n        /* \"#utility.yul\":28029:28106   */\n      0x4e487b7100000000000000000000000000000000000000000000000000000000\n        /* \"#utility.yul\":28026:28027   */\n      0x00\n        /* \"#utility.yul\":28019:28107   */\n      mstore\n        /* \"#utility.yul\":28126:28130   */\n      0x11\n        /* \"#utility.yul\":28123:28124   */\n      0x04\n        /* \"#utility.yul\":28116:28131   */\n      mstore\n        /* \"#utility.yul\":28150:28154   */\n      0x24\n        /* \"#utility.yul\":28147:28148   */\n      0x00\n        /* \"#utility.yul\":28140:28155   */\n      revert\n        /* \"#utility.yul\":28167:28400   */\n    tag_233:\n        /* \"#utility.yul\":28206:28209   */\n      0x00\n        /* \"#utility.yul\":28229:28253   */\n      tag_745\n        /* \"#utility.yul\":28247:28252   */\n      dup3\n        /* \"#utility.yul\":28229:28253   */\n      tag_394\n      jump\t// in\n    tag_745:\n        /* \"#utility.yul\":28220:28253   */\n      swap2\n      pop\n        /* \"#utility.yul\":28275:28341   */\n      0xffffffffffffffffffffffffffffffffffffffffffffffffffffffffffffffff\n        /* \"#utility.yul\":28268:28273   */\n      dup3\n        /* \"#utility.yul\":28265:28342   */\n      sub\n        /* \"#utility.yul\":28262:28365   */\n      tag_746\n      jumpi\n        /* \"#utility.yul\":28345:28363   */\n      tag_747\n      tag_460\n      jump\t// in\n    tag_747:\n        /* \"#utility.yul\":28262:28365   */\n    tag_746:\n        /* \"#utility.yul\":28392:28393   */\n      0x01\n        /* \"#utility.yul\":28385:28390   */\n      dup3\n        /* \"#utility.yul\":28381:28394   */\n      add\n        /* \"#utility.yul\":28374:28394   */\n      swap1\n      pop\n        /* \"#utility.yul\":28167:28400   */\n      swap2\n      swap1\n      pop\n      jump\t// out\n        /* \"#utility.yul\":28406:28600   */\n    tag_235:\n        /* \"#utility.yul\":28446:28450   */\n      0x00\n        /* \"#utility.yul\":28466:28486   */\n      tag_749\n        /* \"#utility.yul\":28484:28485   */\n      dup3\n        /* \"#utility.yul\":28466:28486   */\n      tag_394\n      jump\t// in\n    tag_749:\n        /* \"#utility.yul\":28461:28486   */\n      swap2\n      pop\n        /* \"#utility.yul\":28500:28520   */\n      tag_750\n        /* \"#utility.yul\":28518:28519   */\n      dup4\n        /* \"#utility.yul\":28500:28520   */\n      tag_394\n      jump\t// in\n    tag_750:\n        /* \"#utility.yul\":28495:28520   */\n      swap3\n      pop\n        /* \"#utility.yul\":28544:28545   */\n      dup3\n        /* \"#utility.yul\":28541:28542   */\n      dup3\n        /* \"#utility.yul\":28537:28546   */\n      sub\n        /* \"#utility.yul\":28529:28546   */\n      swap1\n      pop\n        /* \"#utility.yul\":28568:28569   */\n      dup2\n        /* \"#utility.yul\":28562:28566   */\n      dup2\n        /* \"#utility.yul\":28559:28570   */\n      gt\n        /* \"#utility.yul\":28556:28593   */\n      iszero\n      tag_751\n      jumpi\n        /* \"#utility.yul\":28573:28591   */\n      tag_752\n      tag_460\n      jump\t// in\n    tag_752:\n        /* \"#utility.yul\":28556:28593   */\n    tag_751:\n        /* \"#utility.yul\":28406:28600   */\n      swap3\n      swap2\n      pop\n      pop\n      jump\t// out\n        /* \"#utility.yul\":28606:28832   */\n    tag_461:\n        /* \"#utility.yul\":28746:28780   */\n      0x4e6f207469656e657320737566696369656e74657320746f6b656e7320706172\n        /* \"#utility.yul\":28742:28743   */\n      0x00\n        /* \"#utility.yul\":28734:28740   */\n      dup3\n        /* \"#utility.yul\":28730:28744   */\n      add\n        /* \"#utility.yul\":28723:28781   */\n      mstore\n        /* \"#utility.yul\":28815:28824   */\n      0x6120766f74617200000000000000000000000000000000000000000000000000\n        /* \"#utility.yul\":28810:28812   */\n      0x20\n        /* \"#utility.yul\":28802:28808   */\n      dup3\n        /* \"#utility.yul\":28798:28813   */\n      add\n        /* \"#utility.yul\":28791:28825   */\n      mstore\n        /* \"#utility.yul\":28606:28832   */\n      pop\n      jump\t// out\n        /* \"#utility.yul\":28838:29204   */\n    tag_462:\n        /* \"#utility.yul\":28980:28983   */\n      0x00\n        /* \"#utility.yul\":29001:29068   */\n      tag_755\n        /* \"#utility.yul\":29065:29067   */\n      0x27\n        /* \"#utility.yul\":29060:29063   */\n      dup4\n        /* \"#utility.yul\":29001:29068   */\n      tag_383\n      jump\t// in\n    tag_755:\n        /* \"#utility.yul\":28994:29068   */\n      swap2\n      pop\n        /* \"#utility.yul\":29077:29170   */\n      tag_756\n        /* \"#utility.yul\":29166:29169   */\n      dup3\n        /* \"#utility.yul\":29077:29170   */\n      tag_461\n      jump\t// in\n    tag_756:\n        /* \"#utility.yul\":29195:29197   */\n      0x40\n        /* \"#utility.yul\":29190:29193   */\n      dup3\n        /* \"#utility.yul\":29186:29198   */\n      add\n        /* \"#utility.yul\":29179:29198   */\n      swap1\n      pop\n        /* \"#utility.yul\":28838:29204   */\n      swap2\n      swap1\n      pop\n      jump\t// out\n        /* \"#utility.yul\":29210:29629   */\n    tag_250:\n        /* \"#utility.yul\":29376:29380   */\n      0x00\n        /* \"#utility.yul\":29414:29416   */\n      0x20\n        /* \"#utility.yul\":29403:29412   */\n      dup3\n        /* \"#utility.yul\":29399:29417   */\n      add\n        /* \"#utility.yul\":29391:29417   */\n      swap1\n      pop\n        /* \"#utility.yul\":29463:29472   */\n      dup2\n        /* \"#utility.yul\":29457:29461   */\n      dup2\n        /* \"#utility.yul\":29453:29473   */\n      sub\n        /* \"#utility.yul\":29449:29450   */\n      0x00\n        /* \"#utility.yul\":29438:29447   */\n      dup4\n        /* \"#utility.yul\":29434:29451   */\n      add\n        /* \"#utility.yul\":29427:29474   */\n      mstore\n        /* \"#utility.yul\":29491:29622   */\n      tag_758\n        /* \"#utility.yul\":29617:29621   */\n      dup2\n        /* \"#utility.yul\":29491:29622   */\n      tag_462\n      jump\t// in\n    tag_758:\n        /* \"#utility.yul\":29483:29622   */\n      swap1\n      pop\n        /* \"#utility.yul\":29210:29629   */\n      swap2\n      swap1\n      pop\n      jump\t// out\n        /* \"#utility.yul\":29635:29811   */\n    tag_463:\n        /* \"#utility.yul\":29775:29803   */\n      0x59612068617320766f7461646f20656e2065737461206d657361000000000000\n        /* \"#utility.yul\":29771:29772   */\n      0x00\n        /* \"#utility.yul\":29763:29769   */\n      dup3\n        /* \"#utility.yul\":29759:29773   */\n      add\n        /* \"#utility.yul\":29752:29804   */\n      mstore\n        /* \"#utility.yul\":29635:29811   */\n      pop\n      jump\t// out\n        /* \"#utility.yul\":29817:30183   */\n    tag_464:\n        /* \"#utility.yul\":29959:29962   */\n      0x00\n        /* \"#utility.yul\":29980:30047   */\n      tag_761\n        /* \"#utility.yul\":30044:30046   */\n      0x1a\n        /* \"#utility.yul\":30039:30042   */\n      dup4\n        /* \"#utility.yul\":29980:30047   */\n      tag_383\n      jump\t// in\n    tag_761:\n        /* \"#utility.yul\":29973:30047   */\n      swap2\n      pop\n        /* \"#utility.yul\":30056:30149   */\n      tag_762\n        /* \"#utility.yul\":30145:30148   */\n      dup3\n        /* \"#utility.yul\":30056:30149   */\n      tag_463\n      jump\t// in\n    tag_762:\n        /* \"#utility.yul\":30174:30176   */\n      0x20\n        /* \"#utility.yul\":30169:30172   */\n      dup3\n        /* \"#utility.yul\":30165:30177   */\n      add\n        /* \"#utility.yul\":30158:30177   */\n      swap1\n      pop\n        /* \"#utility.yul\":29817:30183   */\n      swap2\n      swap1\n      pop\n      jump\t// out\n        /* \"#utility.yul\":30189:30608   */\n    tag_253:\n        /* \"#utility.yul\":30355:30359   */\n      0x00\n        /* \"#utility.yul\":30393:30395   */\n      0x20\n        /* \"#utility.yul\":30382:30391   */\n      dup3\n        /* \"#utility.yul\":30378:30396   */\n      add\n        /* \"#utility.yul\":30370:30396   */\n      swap1\n      pop\n        /* \"#utility.yul\":30442:30451   */\n      dup2\n        /* \"#utility.yul\":30436:30440   */\n      dup2\n        /* \"#utility.yul\":30432:30452   */\n      sub\n        /* \"#utility.yul\":30428:30429   */\n      0x00\n        /* \"#utility.yul\":30417:30426   */\n      dup4\n        /* \"#utility.yul\":30413:30430   */\n      add\n        /* \"#utility.yul\":30406:30453   */\n      mstore\n        /* \"#utility.yul\":30470:30601   */\n      tag_764\n        /* \"#utility.yul\":30596:30600   */\n      dup2\n        /* \"#utility.yul\":30470:30601   */\n      tag_464\n      jump\t// in\n    tag_764:\n        /* \"#utility.yul\":30462:30601   */\n      swap1\n      pop\n        /* \"#utility.yul\":30189:30608   */\n      swap2\n      swap1\n      pop\n      jump\t// out\n        /* \"#utility.yul\":30614:30787   */\n    tag_465:\n        /* \"#utility.yul\":30754:30779   */\n      0x43616e64696461746f206e6f20656e636f6e747261646f000000000000000000\n        /* \"#utility.yul\":30750:30751   */\n      0x00\n        /* \"#utility.yul\":30742:30748   */\n      dup3\n        /* \"#utility.yul\":30738:30752   */\n      add\n        /* \"#utility.yul\":30731:30780   */\n      mstore\n        /* \"#utility.yul\":30614:30787   */\n      pop\n      jump\t// out\n        /* \"#utility.yul\":30793:31159   */\n    tag_466:\n        /* \"#utility.yul\":30935:30938   */\n      0x00\n        /* \"#utility.yul\":30956:31023   */\n      tag_767\n        /* \"#utility.yul\":31020:31022   */\n      0x17\n        /* \"#utility.yul\":31015:31018   */\n      dup4\n        /* \"#utility.yul\":30956:31023   */\n      tag_383\n      jump\t// in\n    tag_767:\n        /* \"#utility.yul\":30949:31023   */\n      swap2\n      pop\n        /* \"#utility.yul\":31032:31125   */\n      tag_768\n        /* \"#utility.yul\":31121:31124   */\n      dup3\n        /* \"#utility.yul\":31032:31125   */\n      tag_465\n      jump\t// in\n    tag_768:\n        /* \"#utility.yul\":31150:31152   */\n      0x20\n        /* \"#utility.yul\":31145:31148   */\n      dup3\n        /* \"#utility.yul\":31141:31153   */\n      add\n        /* \"#utility.yul\":31134:31153   */\n      swap1\n      pop\n        /* \"#utility.yul\":30793:31159   */\n      swap2\n      swap1\n      pop\n      jump\t// out\n        /* \"#utility.yul\":31165:31584   */\n    tag_256:\n        /* \"#utility.yul\":31331:31335   */\n      0x00\n        /* \"#utility.yul\":31369:31371   */\n      0x20\n        /* \"#utility.yul\":31358:31367   */\n      dup3\n        /* \"#utility.yul\":31354:31372   */\n      add\n        /* \"#utility.yul\":31346:31372   */\n      swap1\n      pop\n        /* \"#utility.yul\":31418:31427   */\n      dup2\n        /* \"#utility.yul\":31412:31416   */\n      dup2\n        /* \"#utility.yul\":31408:31428   */\n      sub\n        /* \"#utility.yul\":31404:31405   */\n      0x00\n        /* \"#utility.yul\":31393:31402   */\n      dup4\n        /* \"#utility.yul\":31389:31406   */\n      add\n        /* \"#utility.yul\":31382:31429   */\n      mstore\n        /* \"#utility.yul\":31446:31577   */\n      tag_770\n        /* \"#utility.yul\":31572:31576   */\n      dup2\n        /* \"#utility.yul\":31446:31577   */\n      tag_466\n      jump\t// in\n    tag_770:\n        /* \"#utility.yul\":31438:31577   */\n      swap1\n      pop\n        /* \"#utility.yul\":31165:31584   */\n      swap2\n      swap1\n      pop\n      jump\t// out\n        /* \"#utility.yul\":31590:31816   */\n    tag_467:\n        /* \"#utility.yul\":31730:31764   */\n      0x45737461206d657361206e6f2065737461206162696572746120706172612076\n        /* \"#utility.yul\":31726:31727   */\n      0x00\n        /* \"#utility.yul\":31718:31724   */\n      dup3\n        /* \"#utility.yul\":31714:31728   */\n      add\n        /* \"#utility.yul\":31707:31765   */\n      mstore\n        /* \"#utility.yul\":31799:31808   */\n      0x6f746163696f6e00000000000000000000000000000000000000000000000000\n        /* \"#utility.yul\":31794:31796   */\n      0x20\n        /* \"#utility.yul\":31786:31792   */\n      dup3\n        /* \"#utility.yul\":31782:31797   */\n      add\n        /* \"#utility.yul\":31775:31809   */\n      mstore\n        /* \"#utility.yul\":31590:31816   */\n      pop\n      jump\t// out\n        /* \"#utility.yul\":31822:32188   */\n    tag_468:\n        /* \"#utility.yul\":31964:31967   */\n      0x00\n        /* \"#utility.yul\":31985:32052   */\n      tag_773\n        /* \"#utility.yul\":32049:32051   */\n      0x27\n        /* \"#utility.yul\":32044:32047   */\n      dup4\n        /* \"#utility.yul\":31985:32052   */\n      tag_383\n      jump\t// in\n    tag_773:\n        /* \"#utility.yul\":31978:32052   */\n      swap2\n      pop\n        /* \"#utility.yul\":32061:32154   */\n      tag_774\n        /* \"#utility.yul\":32150:32153   */\n      dup3\n        /* \"#utility.yul\":32061:32154   */\n      tag_467\n      jump\t// in\n    tag_774:\n        /* \"#utility.yul\":32179:32181   */\n      0x40\n        /* \"#utility.yul\":32174:32177   */\n      dup3\n        /* \"#utility.yul\":32170:32182   */\n      add\n        /* \"#utility.yul\":32163:32182   */\n      swap1\n      pop\n        /* \"#utility.yul\":31822:32188   */\n      swap2\n      swap1\n      pop\n      jump\t// out\n        /* \"#utility.yul\":32194:32613   */\n    tag_259:\n        /* \"#utility.yul\":32360:32364   */\n      0x00\n        /* \"#utility.yul\":32398:32400   */\n      0x20\n        /* \"#utility.yul\":32387:32396   */\n      dup3\n        /* \"#utility.yul\":32383:32401   */\n      add\n        /* \"#utility.yul\":32375:32401   */\n      swap1\n      pop\n        /* \"#utility.yul\":32447:32456   */\n      dup2\n        /* \"#utility.yul\":32441:32445   */\n      dup2\n        /* \"#utility.yul\":32437:32457   */\n      sub\n        /* \"#utility.yul\":32433:32434   */\n      0x00\n        /* \"#utility.yul\":32422:32431   */\n      dup4\n        /* \"#utility.yul\":32418:32435   */\n      add\n        /* \"#utility.yul\":32411:32458   */\n      mstore\n        /* \"#utility.yul\":32475:32606   */\n      tag_776\n        /* \"#utility.yul\":32601:32605   */\n      dup2\n        /* \"#utility.yul\":32475:32606   */\n      tag_468\n      jump\t// in\n    tag_776:\n        /* \"#utility.yul\":32467:32606   */\n      swap1\n      pop\n        /* \"#utility.yul\":32194:32613   */\n      swap2\n      swap1\n      pop\n      jump\t// out\n        /* \"#utility.yul\":32619:32799   */\n    tag_264:\n        /* \"#utility.yul\":32667:32744   */\n      0x4e487b7100000000000000000000000000000000000000000000000000000000\n        /* \"#utility.yul\":32664:32665   */\n      0x00\n        /* \"#utility.yul\":32657:32745   */\n      mstore\n        /* \"#utility.yul\":32764:32768   */\n      0x32\n        /* \"#utility.yul\":32761:32762   */\n      0x04\n        /* \"#utility.yul\":32754:32769   */\n      mstore\n        /* \"#utility.yul\":32788:32792   */\n      0x24\n        /* \"#utility.yul\":32785:32786   */\n      0x00\n        /* \"#utility.yul\":32778:32793   */\n      revert\n        /* \"#utility.yul\":32805:33048   */\n    tag_469:\n        /* \"#utility.yul\":32945:32979   */\n      0x4573746120646972656363696f6e207961207265636962696f20737520746f6b\n        /* \"#utility.yul\":32941:32942   */\n      0x00\n        /* \"#utility.yul\":32933:32939   */\n      dup3\n        /* \"#utility.yul\":32929:32943   */\n      add\n        /* \"#utility.yul\":32922:32980   */\n      mstore\n        /* \"#utility.yul\":33014:33040   */\n      0x656e2079206e6f20736520707565646520646172206d61730000000000000000\n        /* \"#utility.yul\":33009:33011   */\n      0x20\n        /* \"#utility.yul\":33001:33007   */\n      dup3\n        /* \"#utility.yul\":32997:33012   */\n      add\n        /* \"#utility.yul\":32990:33041   */\n      mstore\n        /* \"#utility.yul\":32805:33048   */\n      pop\n      jump\t// out\n        /* \"#utility.yul\":33054:33420   */\n    tag_470:\n        /* \"#utility.yul\":33196:33199   */\n      0x00\n        /* \"#utility.yul\":33217:33284   */\n      tag_780\n        /* \"#utility.yul\":33281:33283   */\n      0x38\n        /* \"#utility.yul\":33276:33279   */\n      dup4\n        /* \"#utility.yul\":33217:33284   */\n      tag_383\n      jump\t// in\n    tag_780:\n        /* \"#utility.yul\":33210:33284   */\n      swap2\n      pop\n        /* \"#utility.yul\":33293:33386   */\n      tag_781\n        /* \"#utility.yul\":33382:33385   */\n      dup3\n        /* \"#utility.yul\":33293:33386   */\n      tag_469\n      jump\t// in\n    tag_781:\n        /* \"#utility.yul\":33411:33413   */\n      0x40\n        /* \"#utility.yul\":33406:33409   */\n      dup3\n        /* \"#utility.yul\":33402:33414   */\n      add\n        /* \"#utility.yul\":33395:33414   */\n      swap1\n      pop\n        /* \"#utility.yul\":33054:33420   */\n      swap2\n      swap1\n      pop\n      jump\t// out\n        /* \"#utility.yul\":33426:33845   */\n    tag_279:\n        /* \"#utility.yul\":33592:33596   */\n      0x00\n        /* \"#utility.yul\":33630:33632   */\n      0x20\n        /* \"#utility.yul\":33619:33628   */\n      dup3\n        /* \"#utility.yul\":33615:33633   */\n      add\n        /* \"#utility.yul\":33607:33633   */\n      swap1\n      pop\n        /* \"#utility.yul\":33679:33688   */\n      dup2\n        /* \"#utility.yul\":33673:33677   */\n      dup2\n        /* \"#utility.yul\":33669:33689   */\n      sub\n        /* \"#utility.yul\":33665:33666   */\n      0x00\n        /* \"#utility.yul\":33654:33663   */\n      dup4\n        /* \"#utility.yul\":33650:33667   */\n      add\n        /* \"#utility.yul\":33643:33690   */\n      mstore\n        /* \"#utility.yul\":33707:33838   */\n      tag_783\n        /* \"#utility.yul\":33833:33837   */\n      dup2\n        /* \"#utility.yul\":33707:33838   */\n      tag_470\n      jump\t// in\n    tag_783:\n        /* \"#utility.yul\":33699:33838   */\n      swap1\n      pop\n        /* \"#utility.yul\":33426:33845   */\n      swap2\n      swap1\n      pop\n      jump\t// out\n        /* \"#utility.yul\":33851:34042   */\n    tag_324:\n        /* \"#utility.yul\":33891:33894   */\n      0x00\n        /* \"#utility.yul\":33910:33930   */\n      tag_785\n        /* \"#utility.yul\":33928:33929   */\n      dup3\n        /* \"#utility.yul\":33910:33930   */\n      tag_394\n      jump\t// in\n    tag_785:\n        /* \"#utility.yul\":33905:33930   */\n      swap2\n      pop\n        /* \"#utility.yul\":33944:33964   */\n      tag_786\n        /* \"#utility.yul\":33962:33963   */\n      dup4\n        /* \"#utility.yul\":33944:33964   */\n      tag_394\n      jump\t// in\n    tag_786:\n        /* \"#utility.yul\":33939:33964   */\n      swap3\n      pop\n        /* \"#utility.yul\":33987:33988   */\n      dup3\n        /* \"#utility.yul\":33984:33985   */\n      dup3\n        /* \"#utility.yul\":33980:33989   */\n      add\n        /* \"#utility.yul\":33973:33989   */\n      swap1\n      pop\n        /* \"#utility.yul\":34008:34011   */\n      dup1\n        /* \"#utility.yul\":34005:34006   */\n      dup3\n        /* \"#utility.yul\":34002:34012   */\n      gt\n        /* \"#utility.yul\":33999:34035   */\n      iszero\n      tag_787\n      jumpi\n        /* \"#utility.yul\":34015:34033   */\n      tag_788\n      tag_460\n      jump\t// in\n    tag_788:\n        /* \"#utility.yul\":33999:34035   */\n    tag_787:\n        /* \"#utility.yul\":33851:34042   */\n      swap3\n      swap2\n      pop\n      pop\n      jump\t// out\n        /* \"#utility.yul\":34048:34490   */\n    tag_335:\n        /* \"#utility.yul\":34197:34201   */\n      0x00\n        /* \"#utility.yul\":34235:34237   */\n      0x60\n        /* \"#utility.yul\":34224:34233   */\n      dup3\n        /* \"#utility.yul\":34220:34238   */\n      add\n        /* \"#utility.yul\":34212:34238   */\n      swap1\n      pop\n        /* \"#utility.yul\":34248:34319   */\n      tag_790\n        /* \"#utility.yul\":34316:34317   */\n      0x00\n        /* \"#utility.yul\":34305:34314   */\n      dup4\n        /* \"#utility.yul\":34301:34318   */\n      add\n        /* \"#utility.yul\":34292:34298   */\n      dup7\n        /* \"#utility.yul\":34248:34319   */\n      tag_427\n      jump\t// in\n    tag_790:\n        /* \"#utility.yul\":34329:34401   */\n      tag_791\n        /* \"#utility.yul\":34397:34399   */\n      0x20\n        /* \"#utility.yul\":34386:34395   */\n      dup4\n        /* \"#utility.yul\":34382:34400   */\n      add\n        /* \"#utility.yul\":34373:34379   */\n      dup6\n        /* \"#utility.yul\":34329:34401   */\n      tag_399\n      jump\t// in\n    tag_791:\n        /* \"#utility.yul\":34411:34483   */\n      tag_792\n        /* \"#utility.yul\":34479:34481   */\n      0x40\n        /* \"#utility.yul\":34468:34477   */\n      dup4\n        /* \"#utility.yul\":34464:34482   */\n      add\n        /* \"#utility.yul\":34455:34461   */\n      dup5\n        /* \"#utility.yul\":34411:34483   */\n      tag_399\n      jump\t// in\n    tag_792:\n        /* \"#utility.yul\":34048:34490   */\n      swap5\n      swap4\n      pop\n      pop\n      pop\n      pop\n      jump\t// out\n\n    auxdata: 0xa2646970667358221220b653d504ac7dba7109bd6af9bc41d6a92cecd2e7d77895d4e7f7729a5b03e8c164736f6c63430008190033\n}\n",
				"bytecode": {
					"linkReferences": {},
					"object": "608060405234801561000f575f80fd5b50336040518060400160405280600781526020017f4d79546f6b656e000000000000000000000000000000000000000000000000008152506040518060400160405280600381526020017f4d544b0000000000000000000000000000000000000000000000000000000000815250816003908161008c91906106d1565b50806004908161009c91906106d1565b5050505f73ffffffffffffffffffffffffffffffffffffffff168173ffffffffffffffffffffffffffffffffffffffff160361010f575f6040517f1e4fbdf700000000000000000000000000000000000000000000000000000000815260040161010691906107df565b60405180910390fd5b61011e8161013660201b60201c565b50610131306103e86101f960201b60201c565b6108b5565b5f60055f9054906101000a900473ffffffffffffffffffffffffffffffffffffffff1690508160055f6101000a81548173ffffffffffffffffffffffffffffffffffffffff021916908373ffffffffffffffffffffffffffffffffffffffff1602179055508173ffffffffffffffffffffffffffffffffffffffff168173ffffffffffffffffffffffffffffffffffffffff167f8be0079c531659141344cd1fd0a4f28419497f9722a3daafe3b4186f6b6457e060405160405180910390a35050565b5f73ffffffffffffffffffffffffffffffffffffffff168273ffffffffffffffffffffffffffffffffffffffff1603610269575f6040517fec442f0500000000000000000000000000000000000000000000000000000000815260040161026091906107df565b60405180910390fd5b61027a5f838361027e60201b60201c565b5050565b5f73ffffffffffffffffffffffffffffffffffffffff168373ffffffffffffffffffffffffffffffffffffffff16036102ce578060025f8282546102c29190610825565b9250508190555061039c565b5f805f8573ffffffffffffffffffffffffffffffffffffffff1673ffffffffffffffffffffffffffffffffffffffff1681526020019081526020015f2054905081811015610357578381836040517fe450d38c00000000000000000000000000000000000000000000000000000000815260040161034e93929190610867565b60405180910390fd5b8181035f808673ffffffffffffffffffffffffffffffffffffffff1673ffffffffffffffffffffffffffffffffffffffff1681526020019081526020015f2081905550505b5f73ffffffffffffffffffffffffffffffffffffffff168273ffffffffffffffffffffffffffffffffffffffff16036103e3578060025f828254039250508190555061042d565b805f808473ffffffffffffffffffffffffffffffffffffffff1673ffffffffffffffffffffffffffffffffffffffff1681526020019081526020015f205f82825401925050819055505b8173ffffffffffffffffffffffffffffffffffffffff168373ffffffffffffffffffffffffffffffffffffffff167fddf252ad1be2c89b69c2b068fc378daa952ba7f163c4a11628f55a4df523b3ef8360405161048a919061089c565b60405180910390a3505050565b5f81519050919050565b7f4e487b71000000000000000000000000000000000000000000000000000000005f52604160045260245ffd5b7f4e487b71000000000000000000000000000000000000000000000000000000005f52602260045260245ffd5b5f600282049050600182168061051257607f821691505b602082108103610525576105246104ce565b5b50919050565b5f819050815f5260205f209050919050565b5f6020601f8301049050919050565b5f82821b905092915050565b5f600883026105877fffffffffffffffffffffffffffffffffffffffffffffffffffffffffffffffff8261054c565b610591868361054c565b95508019841693508086168417925050509392505050565b5f819050919050565b5f819050919050565b5f6105d56105d06105cb846105a9565b6105b2565b6105a9565b9050919050565b5f819050919050565b6105ee836105bb565b6106026105fa826105dc565b848454610558565b825550505050565b5f90565b61061661060a565b6106218184846105e5565b505050565b5b81811015610644576106395f8261060e565b600181019050610627565b5050565b601f8211156106895761065a8161052b565b6106638461053d565b81016020851015610672578190505b61068661067e8561053d565b830182610626565b50505b505050565b5f82821c905092915050565b5f6106a95f198460080261068e565b1980831691505092915050565b5f6106c1838361069a565b9150826002028217905092915050565b6106da82610497565b67ffffffffffffffff8111156106f3576106f26104a1565b5b6106fd82546104fb565b610708828285610648565b5f60209050601f831160018114610739575f8415610727578287015190505b61073185826106b6565b865550610798565b601f1984166107478661052b565b5f5b8281101561076e57848901518255600182019150602085019450602081019050610749565b8683101561078b5784890151610787601f89168261069a565b8355505b6001600288020188555050505b505050505050565b5f73ffffffffffffffffffffffffffffffffffffffff82169050919050565b5f6107c9826107a0565b9050919050565b6107d9816107bf565b82525050565b5f6020820190506107f25f8301846107d0565b92915050565b7f4e487b71000000000000000000000000000000000000000000000000000000005f52601160045260245ffd5b5f61082f826105a9565b915061083a836105a9565b9250828201905080821115610852576108516107f8565b5b92915050565b610861816105a9565b82525050565b5f60608201905061087a5f8301866107d0565b6108876020830185610858565b6108946040830184610858565b949350505050565b5f6020820190506108af5f830184610858565b92915050565b612e26806108c25f395ff3fe608060405260043610610165575f3560e01c80638da5cb5b116100d0578063b384abef11610089578063deebeac911610063578063deebeac914610531578063ebc34d241461056d578063f2fde38b146105a9578063fac07d2a146105d157610165565b8063b384abef146104af578063dd62ed3e146104cb578063dd670ed71461050757610165565b80638da5cb5b146103925780638f023f85146103bc57806395d89b41146103f9578063a0712d6814610423578063a0bdafda1461044b578063a9059cbb1461047357610165565b806332bf68d41161012257806332bf68d414610289578063503c560f146102b35780635b94ea10146102db57806370a0823114610318578063715018a6146103545780638a9ac1d21461036a57610165565b806306fdde0314610169578063095ea7b31461019357806318160ddd146101cf578063198cc691146101f957806323b872dd14610223578063313ce5671461025f575b5f80fd5b348015610174575f80fd5b5061017d6105fc565b60405161018a9190611d89565b60405180910390f35b34801561019e575f80fd5b506101b960048036038101906101b49190611e47565b61068c565b6040516101c69190611e9f565b60405180910390f35b3480156101da575f80fd5b506101e36106ae565b6040516101f09190611ec7565b60405180910390f35b348015610204575f80fd5b5061020d6106b7565b60405161021a919061202c565b60405180910390f35b34801561022e575f80fd5b506102496004803603810190610244919061204c565b6107ac565b6040516102569190611e9f565b60405180910390f35b34801561026a575f80fd5b506102736107da565b60405161028091906120b7565b60405180910390f35b348015610294575f80fd5b5061029d6107e2565b6040516102aa9190612187565b60405180910390f35b3480156102be575f80fd5b506102d960048036038101906102d491906122d3565b61086d565b005b3480156102e6575f80fd5b5061030160048036038101906102fc919061231a565b61090c565b60405161030f929190612354565b60405180910390f35b348015610323575f80fd5b5061033e6004803603810190610339919061237b565b610957565b60405161034b9190611ec7565b60405180910390f35b34801561035f575f80fd5b5061036861099c565b005b348015610375575f80fd5b50610390600480360381019061038b919061231a565b6109af565b005b34801561039d575f80fd5b506103a6610add565b6040516103b391906123a6565b60405180910390f35b3480156103c7575f80fd5b506103e260048036038101906103dd919061231a565b610b05565b6040516103f09291906123bf565b60405180910390f35b348015610404575f80fd5b5061040d610bba565b60405161041a9190611d89565b60405180910390f35b34801561042e575f80fd5b506104496004803603810190610444919061231a565b610c4a565b005b348015610456575f80fd5b50610471600480360381019061046c91906123ed565b610c5f565b005b34801561047e575f80fd5b5061049960048036038101906104949190611e47565b610da2565b6040516104a69190611e9f565b60405180910390f35b6104c960048036038101906104c49190612447565b610dc4565b005b3480156104d6575f80fd5b506104f160048036038101906104ec9190612485565b61100c565b6040516104fe9190611ec7565b60405180910390f35b348015610512575f80fd5b5061051b61108e565b6040516105289190611ec7565b60405180910390f35b34801561053c575f80fd5b506105576004803603810190610552919061237b565b611094565b6040516105649190611e9f565b60405180910390f35b348015610578575f80fd5b50610593600480360381019061058e919061231a565b6111d8565b6040516105a0919061256b565b60405180910390f35b3480156105b4575f80fd5b506105cf60048036038101906105ca919061237b565b611242565b005b3480156105dc575f80fd5b506105e56112c6565b6040516105f3929190612646565b60405180910390f35b60606003805461060b906126a8565b80601f0160208091040260200160405190810160405280929190818152602001828054610637906126a8565b80156106825780601f1061065957610100808354040283529160200191610682565b820191905f5260205f20905b81548152906001019060200180831161066557829003601f168201915b5050505050905090565b5f806106966114e8565b90506106a38185856114ef565b600191505092915050565b5f600254905090565b60606006805480602002602001604051908101604052809291908181526020015f905b828210156107a3578382905f5260205f2090600202016040518060400160405290815f8201805461070a906126a8565b80601f0160208091040260200160405190810160405280929190818152602001828054610736906126a8565b80156107815780601f1061075857610100808354040283529160200191610781565b820191905f5260205f20905b81548152906001019060200180831161076457829003601f168201915b50505050508152602001600182015481525050815260200190600101906106da565b50505050905090565b5f806107b66114e8565b90506107c3858285611501565b6107ce858585611593565b60019150509392505050565b5f6012905090565b6060600980548060200260200160405190810160405280929190818152602001828054801561086357602002820191905f5260205f20905b815f9054906101000a900473ffffffffffffffffffffffffffffffffffffffff1673ffffffffffffffffffffffffffffffffffffffff168152602001906001019080831161081a575b5050505050905090565b610875611683565b600660405180604001604052808381526020015f815250908060018154018082558091505060019003905f5260205f2090600202015f909190919091505f820151815f0190816108c59190612875565b506020820151816001015550507f566c2d39711b082cc685ade507dee6291f47044333d9aba4037034cdc3cfac9e816040516109019190611d89565b60405180910390a150565b6008602052805f5260405f205f91509050805f015f9054906101000a900473ffffffffffffffffffffffffffffffffffffffff1690806003015f9054906101000a900460ff16905082565b5f805f8373ffffffffffffffffffffffffffffffffffffffff1673ffffffffffffffffffffffffffffffffffffffff1681526020019081526020015f20549050919050565b6109a4611683565b6109ad5f61170a565b565b60085f8281526020019081526020015f205f015f9054906101000a900473ffffffffffffffffffffffffffffffffffffffff1673ffffffffffffffffffffffffffffffffffffffff163373ffffffffffffffffffffffffffffffffffffffff1614610a4f576040517f08c379a0000000000000000000000000000000000000000000000000000000008152600401610a46906129b4565b60405180910390fd5b60085f8281526020019081526020015f206003015f9054906101000a900460ff16610aaf576040517f08c379a0000000000000000000000000000000000000000000000000000000008152600401610aa690612a1c565b60405180910390fd5b5f60085f8381526020019081526020015f206003015f6101000a81548160ff02191690831515021790555050565b5f60055f9054906101000a900473ffffffffffffffffffffffffffffffffffffffff16905090565b60068181548110610b14575f80fd5b905f5260205f2090600202015f91509050805f018054610b33906126a8565b80601f0160208091040260200160405190810160405280929190818152602001828054610b5f906126a8565b8015610baa5780601f10610b8157610100808354040283529160200191610baa565b820191905f5260205f20905b815481529060010190602001808311610b8d57829003601f168201915b5050505050908060010154905082565b606060048054610bc9906126a8565b80601f0160208091040260200160405190810160405280929190818152602001828054610bf5906126a8565b8015610c405780601f10610c1757610100808354040283529160200191610c40565b820191905f5260205f20905b815481529060010190602001808311610c2357829003601f168201915b5050505050905090565b610c52611683565b610c5c30826117cd565b50565b610c67611683565b600a5f815480929190610c7990612a67565b91905055505f60085f6001600a54610c919190612aae565b81526020019081526020015f20905081815f015f6101000a81548173ffffffffffffffffffffffffffffffffffffffff021916908373ffffffffffffffffffffffffffffffffffffffff1602179055506001816003015f6101000a81548160ff02191690831515021790555060068054905067ffffffffffffffff811115610d1c57610d1b6121af565b5b604051908082528060200260200182016040528015610d4a5781602001602082028036833780820191505090505b50816002019080519060200190610d62929190611cb3565b50600a547f475e637cd3c90ecc459eddf548f62cfca3117407751685fce1ff08330f83f3c784604051610d959190611d89565b60405180910390a2505050565b5f80610dac6114e8565b9050610db9818585611593565b600191505092915050565b6001610dcf33610957565b1015610e10576040517f08c379a0000000000000000000000000000000000000000000000000000000008152600401610e0790612b51565b60405180910390fd5b60085f8281526020019081526020015f206001015f3373ffffffffffffffffffffffffffffffffffffffff1673ffffffffffffffffffffffffffffffffffffffff1681526020019081526020015f205f9054906101000a900460ff1615610eac576040517f08c379a0000000000000000000000000000000000000000000000000000000008152600401610ea390612bb9565b60405180910390fd5b6006805490508210610ef3576040517f08c379a0000000000000000000000000000000000000000000000000000000008152600401610eea90612c21565b60405180910390fd5b60085f8281526020019081526020015f206003015f9054906101000a900460ff16610f53576040517f08c379a0000000000000000000000000000000000000000000000000000000008152600401610f4a90612caf565b60405180910390fd5b610f5e33600161184c565b60085f8281526020019081526020015f206002018281548110610f8457610f83612ccd565b5b905f5260205f20015f815480929190610f9c90612a67565b9190505550600160085f8381526020019081526020015f206001015f3373ffffffffffffffffffffffffffffffffffffffff1673ffffffffffffffffffffffffffffffffffffffff1681526020019081526020015f205f6101000a81548160ff0219169083151502179055505050565b5f60015f8473ffffffffffffffffffffffffffffffffffffffff1673ffffffffffffffffffffffffffffffffffffffff1681526020019081526020015f205f8373ffffffffffffffffffffffffffffffffffffffff1673ffffffffffffffffffffffffffffffffffffffff1681526020019081526020015f2054905092915050565b600a5481565b5f61109d611683565b5f5b600980549050811015611162578273ffffffffffffffffffffffffffffffffffffffff16600982815481106110d7576110d6612ccd565b5b905f5260205f20015f9054906101000a900473ffffffffffffffffffffffffffffffffffffffff1673ffffffffffffffffffffffffffffffffffffffff1603611155576040517f08c379a000000000000000000000000000000000000000000000000000000000815260040161114c90612d6a565b60405180910390fd5b808060010191505061109f565b5061116f30836001611593565b600982908060018154018082558091505060019003905f5260205f20015f9091909190916101000a81548173ffffffffffffffffffffffffffffffffffffffff021916908373ffffffffffffffffffffffffffffffffffffffff16021790555060019050919050565b606060085f8381526020019081526020015f2060020180548060200260200160405190810160405280929190818152602001828054801561123657602002820191905f5260205f20905b815481526020019060010190808311611222575b50505050509050919050565b61124a611683565b5f73ffffffffffffffffffffffffffffffffffffffff168173ffffffffffffffffffffffffffffffffffffffff16036112ba575f6040517f1e4fbdf70000000000000000000000000000000000000000000000000000000081526004016112b191906123a6565b60405180910390fd5b6112c38161170a565b50565b60608060068054905067ffffffffffffffff8111156112e8576112e76121af565b5b60405190808252806020026020018201604052801561131b57816020015b60608152602001906001900390816113065790505b50915060068054905067ffffffffffffffff81111561133d5761133c6121af565b5b60405190808252806020026020018201604052801561136b5781602001602082028036833780820191505090505b5090505f5b600680549050811015611451576006818154811061139157611390612ccd565b5b905f5260205f2090600202015f0180546113aa906126a8565b80601f01602080910402602001604051908101604052809291908181526020018280546113d6906126a8565b80156114215780601f106113f857610100808354040283529160200191611421565b820191905f5260205f20905b81548152906001019060200180831161140457829003601f168201915b505050505083828151811061143957611438612ccd565b5b60200260200101819052508080600101915050611370565b505f600190505b600a5481116114e3575f61146b826111d8565b90505f5b81518110156114ce5781818151811061148b5761148a612ccd565b5b60200260200101518482815181106114a6576114a5612ccd565b5b602002602001018181516114ba9190612d88565b91508181525050808060010191505061146f565b505080806114db90612a67565b915050611458565b509091565b5f33905090565b6114fc83838360016118cb565b505050565b5f61150c848461100c565b90507fffffffffffffffffffffffffffffffffffffffffffffffffffffffffffffffff811461158d578181101561157e578281836040517ffb8f41b200000000000000000000000000000000000000000000000000000000815260040161157593929190612dbb565b60405180910390fd5b61158c84848484035f6118cb565b5b50505050565b5f73ffffffffffffffffffffffffffffffffffffffff168373ffffffffffffffffffffffffffffffffffffffff1603611603575f6040517f96c6fd1e0000000000000000000000000000000000000000000000000000000081526004016115fa91906123a6565b60405180910390fd5b5f73ffffffffffffffffffffffffffffffffffffffff168273ffffffffffffffffffffffffffffffffffffffff1603611673575f6040517fec442f0500000000000000000000000000000000000000000000000000000000815260040161166a91906123a6565b60405180910390fd5b61167e838383611a9a565b505050565b61168b6114e8565b73ffffffffffffffffffffffffffffffffffffffff166116a9610add565b73ffffffffffffffffffffffffffffffffffffffff1614611708576116cc6114e8565b6040517f118cdaa70000000000000000000000000000000000000000000000000000000081526004016116ff91906123a6565b60405180910390fd5b565b5f60055f9054906101000a900473ffffffffffffffffffffffffffffffffffffffff1690508160055f6101000a81548173ffffffffffffffffffffffffffffffffffffffff021916908373ffffffffffffffffffffffffffffffffffffffff1602179055508173ffffffffffffffffffffffffffffffffffffffff168173ffffffffffffffffffffffffffffffffffffffff167f8be0079c531659141344cd1fd0a4f28419497f9722a3daafe3b4186f6b6457e060405160405180910390a35050565b5f73ffffffffffffffffffffffffffffffffffffffff168273ffffffffffffffffffffffffffffffffffffffff160361183d575f6040517fec442f0500000000000000000000000000000000000000000000000000000000815260040161183491906123a6565b60405180910390fd5b6118485f8383611a9a565b5050565b5f73ffffffffffffffffffffffffffffffffffffffff168273ffffffffffffffffffffffffffffffffffffffff16036118bc575f6040517f96c6fd1e0000000000000000000000000000000000000000000000000000000081526004016118b391906123a6565b60405180910390fd5b6118c7825f83611a9a565b5050565b5f73ffffffffffffffffffffffffffffffffffffffff168473ffffffffffffffffffffffffffffffffffffffff160361193b575f6040517fe602df0500000000000000000000000000000000000000000000000000000000815260040161193291906123a6565b60405180910390fd5b5f73ffffffffffffffffffffffffffffffffffffffff168373ffffffffffffffffffffffffffffffffffffffff16036119ab575f6040517f94280d620000000000000000000000000000000000000000000000000000000081526004016119a291906123a6565b60405180910390fd5b8160015f8673ffffffffffffffffffffffffffffffffffffffff1673ffffffffffffffffffffffffffffffffffffffff1681526020019081526020015f205f8573ffffffffffffffffffffffffffffffffffffffff1673ffffffffffffffffffffffffffffffffffffffff1681526020019081526020015f20819055508015611a94578273ffffffffffffffffffffffffffffffffffffffff168473ffffffffffffffffffffffffffffffffffffffff167f8c5be1e5ebec7d5bd14f71427d1e84f3dd0314c0f7b2291e5b200ac8c7c3b92584604051611a8b9190611ec7565b60405180910390a35b50505050565b5f73ffffffffffffffffffffffffffffffffffffffff168373ffffffffffffffffffffffffffffffffffffffff1603611aea578060025f828254611ade9190612d88565b92505081905550611bb8565b5f805f8573ffffffffffffffffffffffffffffffffffffffff1673ffffffffffffffffffffffffffffffffffffffff1681526020019081526020015f2054905081811015611b73578381836040517fe450d38c000000000000000000000000000000000000000000000000000000008152600401611b6a93929190612dbb565b60405180910390fd5b8181035f808673ffffffffffffffffffffffffffffffffffffffff1673ffffffffffffffffffffffffffffffffffffffff1681526020019081526020015f2081905550505b5f73ffffffffffffffffffffffffffffffffffffffff168273ffffffffffffffffffffffffffffffffffffffff1603611bff578060025f8282540392505081905550611c49565b805f808473ffffffffffffffffffffffffffffffffffffffff1673ffffffffffffffffffffffffffffffffffffffff1681526020019081526020015f205f82825401925050819055505b8173ffffffffffffffffffffffffffffffffffffffff168373ffffffffffffffffffffffffffffffffffffffff167fddf252ad1be2c89b69c2b068fc378daa952ba7f163c4a11628f55a4df523b3ef83604051611ca69190611ec7565b60405180910390a3505050565b828054828255905f5260205f20908101928215611ced579160200282015b82811115611cec578251825591602001919060010190611cd1565b5b509050611cfa9190611cfe565b5090565b5b80821115611d15575f815f905550600101611cff565b5090565b5f81519050919050565b5f82825260208201905092915050565b8281835e5f83830152505050565b5f601f19601f8301169050919050565b5f611d5b82611d19565b611d658185611d23565b9350611d75818560208601611d33565b611d7e81611d41565b840191505092915050565b5f6020820190508181035f830152611da18184611d51565b905092915050565b5f604051905090565b5f80fd5b5f80fd5b5f73ffffffffffffffffffffffffffffffffffffffff82169050919050565b5f611de382611dba565b9050919050565b611df381611dd9565b8114611dfd575f80fd5b50565b5f81359050611e0e81611dea565b92915050565b5f819050919050565b611e2681611e14565b8114611e30575f80fd5b50565b5f81359050611e4181611e1d565b92915050565b5f8060408385031215611e5d57611e5c611db2565b5b5f611e6a85828601611e00565b9250506020611e7b85828601611e33565b9150509250929050565b5f8115159050919050565b611e9981611e85565b82525050565b5f602082019050611eb25f830184611e90565b92915050565b611ec181611e14565b82525050565b5f602082019050611eda5f830184611eb8565b92915050565b5f81519050919050565b5f82825260208201905092915050565b5f819050602082019050919050565b5f82825260208201905092915050565b5f611f2382611d19565b611f2d8185611f09565b9350611f3d818560208601611d33565b611f4681611d41565b840191505092915050565b611f5a81611e14565b82525050565b5f604083015f8301518482035f860152611f7a8282611f19565b9150506020830151611f8f6020860182611f51565b508091505092915050565b5f611fa58383611f60565b905092915050565b5f602082019050919050565b5f611fc382611ee0565b611fcd8185611eea565b935083602082028501611fdf85611efa565b805f5b8581101561201a5784840389528151611ffb8582611f9a565b945061200683611fad565b925060208a01995050600181019050611fe2565b50829750879550505050505092915050565b5f6020820190508181035f8301526120448184611fb9565b905092915050565b5f805f6060848603121561206357612062611db2565b5b5f61207086828701611e00565b935050602061208186828701611e00565b925050604061209286828701611e33565b9150509250925092565b5f60ff82169050919050565b6120b18161209c565b82525050565b5f6020820190506120ca5f8301846120a8565b92915050565b5f81519050919050565b5f82825260208201905092915050565b5f819050602082019050919050565b61210281611dd9565b82525050565b5f61211383836120f9565b60208301905092915050565b5f602082019050919050565b5f612135826120d0565b61213f81856120da565b935061214a836120ea565b805f5b8381101561217a5781516121618882612108565b975061216c8361211f565b92505060018101905061214d565b5085935050505092915050565b5f6020820190508181035f83015261219f818461212b565b905092915050565b5f80fd5b5f80fd5b7f4e487b71000000000000000000000000000000000000000000000000000000005f52604160045260245ffd5b6121e582611d41565b810181811067ffffffffffffffff82111715612204576122036121af565b5b80604052505050565b5f612216611da9565b905061222282826121dc565b919050565b5f67ffffffffffffffff821115612241576122406121af565b5b61224a82611d41565b9050602081019050919050565b828183375f83830152505050565b5f61227761227284612227565b61220d565b905082815260208101848484011115612293576122926121ab565b5b61229e848285612257565b509392505050565b5f82601f8301126122ba576122b96121a7565b5b81356122ca848260208601612265565b91505092915050565b5f602082840312156122e8576122e7611db2565b5b5f82013567ffffffffffffffff81111561230557612304611db6565b5b612311848285016122a6565b91505092915050565b5f6020828403121561232f5761232e611db2565b5b5f61233c84828501611e33565b91505092915050565b61234e81611dd9565b82525050565b5f6040820190506123675f830185612345565b6123746020830184611e90565b9392505050565b5f602082840312156123905761238f611db2565b5b5f61239d84828501611e00565b91505092915050565b5f6020820190506123b95f830184612345565b92915050565b5f6040820190508181035f8301526123d78185611d51565b90506123e66020830184611eb8565b9392505050565b5f806040838503121561240357612402611db2565b5b5f83013567ffffffffffffffff8111156124205761241f611db6565b5b61242c858286016122a6565b925050602061243d85828601611e00565b9150509250929050565b5f806040838503121561245d5761245c611db2565b5b5f61246a85828601611e33565b925050602061247b85828601611e33565b9150509250929050565b5f806040838503121561249b5761249a611db2565b5b5f6124a885828601611e00565b92505060206124b985828601611e00565b9150509250929050565b5f81519050919050565b5f82825260208201905092915050565b5f819050602082019050919050565b5f6124f78383611f51565b60208301905092915050565b5f602082019050919050565b5f612519826124c3565b61252381856124cd565b935061252e836124dd565b805f5b8381101561255e57815161254588826124ec565b975061255083612503565b925050600181019050612531565b5085935050505092915050565b5f6020820190508181035f830152612583818461250f565b905092915050565b5f81519050919050565b5f82825260208201905092915050565b5f819050602082019050919050565b5f6125bf8383611f19565b905092915050565b5f602082019050919050565b5f6125dd8261258b565b6125e78185612595565b9350836020820285016125f9856125a5565b805f5b85811015612634578484038952815161261585826125b4565b9450612620836125c7565b925060208a019950506001810190506125fc565b50829750879550505050505092915050565b5f6040820190508181035f83015261265e81856125d3565b90508181036020830152612672818461250f565b90509392505050565b7f4e487b71000000000000000000000000000000000000000000000000000000005f52602260045260245ffd5b5f60028204905060018216806126bf57607f821691505b6020821081036126d2576126d161267b565b5b50919050565b5f819050815f5260205f209050919050565b5f6020601f8301049050919050565b5f82821b905092915050565b5f600883026127347fffffffffffffffffffffffffffffffffffffffffffffffffffffffffffffffff826126f9565b61273e86836126f9565b95508019841693508086168417925050509392505050565b5f819050919050565b5f61277961277461276f84611e14565b612756565b611e14565b9050919050565b5f819050919050565b6127928361275f565b6127a661279e82612780565b848454612705565b825550505050565b5f90565b6127ba6127ae565b6127c5818484612789565b505050565b5b818110156127e8576127dd5f826127b2565b6001810190506127cb565b5050565b601f82111561282d576127fe816126d8565b612807846126ea565b81016020851015612816578190505b61282a612822856126ea565b8301826127ca565b50505b505050565b5f82821c905092915050565b5f61284d5f1984600802612832565b1980831691505092915050565b5f612865838361283e565b9150826002028217905092915050565b61287e82611d19565b67ffffffffffffffff811115612897576128966121af565b5b6128a182546126a8565b6128ac8282856127ec565b5f60209050601f8311600181146128dd575f84156128cb578287015190505b6128d5858261285a565b86555061293c565b601f1984166128eb866126d8565b5f5b82811015612912578489015182556001820191506020850194506020810190506128ed565b8683101561292f578489015161292b601f89168261283e565b8355505b6001600288020188555050505b505050505050565b7f4e6f206572657320656c2070726f706965746172696f2064652065737461206d5f8201527f6573610000000000000000000000000000000000000000000000000000000000602082015250565b5f61299e602383611d23565b91506129a982612944565b604082019050919050565b5f6020820190508181035f8301526129cb81612992565b9050919050565b7f45737461206d65736120796120657374612063657272616461000000000000005f82015250565b5f612a06601983611d23565b9150612a11826129d2565b602082019050919050565b5f6020820190508181035f830152612a33816129fa565b9050919050565b7f4e487b71000000000000000000000000000000000000000000000000000000005f52601160045260245ffd5b5f612a7182611e14565b91507fffffffffffffffffffffffffffffffffffffffffffffffffffffffffffffffff8203612aa357612aa2612a3a565b5b600182019050919050565b5f612ab882611e14565b9150612ac383611e14565b9250828203905081811115612adb57612ada612a3a565b5b92915050565b7f4e6f207469656e657320737566696369656e74657320746f6b656e73207061725f8201527f6120766f74617200000000000000000000000000000000000000000000000000602082015250565b5f612b3b602783611d23565b9150612b4682612ae1565b604082019050919050565b5f6020820190508181035f830152612b6881612b2f565b9050919050565b7f59612068617320766f7461646f20656e2065737461206d6573610000000000005f82015250565b5f612ba3601a83611d23565b9150612bae82612b6f565b602082019050919050565b5f6020820190508181035f830152612bd081612b97565b9050919050565b7f43616e64696461746f206e6f20656e636f6e747261646f0000000000000000005f82015250565b5f612c0b601783611d23565b9150612c1682612bd7565b602082019050919050565b5f6020820190508181035f830152612c3881612bff565b9050919050565b7f45737461206d657361206e6f20657374612061626965727461207061726120765f8201527f6f746163696f6e00000000000000000000000000000000000000000000000000602082015250565b5f612c99602783611d23565b9150612ca482612c3f565b604082019050919050565b5f6020820190508181035f830152612cc681612c8d565b9050919050565b7f4e487b71000000000000000000000000000000000000000000000000000000005f52603260045260245ffd5b7f4573746120646972656363696f6e207961207265636962696f20737520746f6b5f8201527f656e2079206e6f20736520707565646520646172206d61730000000000000000602082015250565b5f612d54603883611d23565b9150612d5f82612cfa565b604082019050919050565b5f6020820190508181035f830152612d8181612d48565b9050919050565b5f612d9282611e14565b9150612d9d83611e14565b9250828201905080821115612db557612db4612a3a565b5b92915050565b5f606082019050612dce5f830186612345565b612ddb6020830185611eb8565b612de86040830184611eb8565b94935050505056fea2646970667358221220b653d504ac7dba7109bd6af9bc41d6a92cecd2e7d77895d4e7f7729a5b03e8c164736f6c63430008190033",
					"opcodes": "PUSH1 0x80 PUSH1 0x40 MSTORE CALLVALUE DUP1 ISZERO PUSH2 0xF JUMPI PUSH0 DUP1 REVERT JUMPDEST POP CALLER PUSH1 0x40 MLOAD DUP1 PUSH1 0x40 ADD PUSH1 0x40 MSTORE DUP1 PUSH1 0x7 DUP2 MSTORE PUSH1 0x20 ADD PUSH32 0x4D79546F6B656E00000000000000000000000000000000000000000000000000 DUP2 MSTORE POP PUSH1 0x40 MLOAD DUP1 PUSH1 0x40 ADD PUSH1 0x40 MSTORE DUP1 PUSH1 0x3 DUP2 MSTORE PUSH1 0x20 ADD PUSH32 0x4D544B0000000000000000000000000000000000000000000000000000000000 DUP2 MSTORE POP DUP2 PUSH1 0x3 SWAP1 DUP2 PUSH2 0x8C SWAP2 SWAP1 PUSH2 0x6D1 JUMP JUMPDEST POP DUP1 PUSH1 0x4 SWAP1 DUP2 PUSH2 0x9C SWAP2 SWAP1 PUSH2 0x6D1 JUMP JUMPDEST POP POP POP PUSH0 PUSH20 0xFFFFFFFFFFFFFFFFFFFFFFFFFFFFFFFFFFFFFFFF AND DUP2 PUSH20 0xFFFFFFFFFFFFFFFFFFFFFFFFFFFFFFFFFFFFFFFF AND SUB PUSH2 0x10F JUMPI PUSH0 PUSH1 0x40 MLOAD PUSH32 0x1E4FBDF700000000000000000000000000000000000000000000000000000000 DUP2 MSTORE PUSH1 0x4 ADD PUSH2 0x106 SWAP2 SWAP1 PUSH2 0x7DF JUMP JUMPDEST PUSH1 0x40 MLOAD DUP1 SWAP2 SUB SWAP1 REVERT JUMPDEST PUSH2 0x11E DUP2 PUSH2 0x136 PUSH1 0x20 SHL PUSH1 0x20 SHR JUMP JUMPDEST POP PUSH2 0x131 ADDRESS PUSH2 0x3E8 PUSH2 0x1F9 PUSH1 0x20 SHL PUSH1 0x20 SHR JUMP JUMPDEST PUSH2 0x8B5 JUMP JUMPDEST PUSH0 PUSH1 0x5 PUSH0 SWAP1 SLOAD SWAP1 PUSH2 0x100 EXP SWAP1 DIV PUSH20 0xFFFFFFFFFFFFFFFFFFFFFFFFFFFFFFFFFFFFFFFF AND SWAP1 POP DUP2 PUSH1 0x5 PUSH0 PUSH2 0x100 EXP DUP2 SLOAD DUP2 PUSH20 0xFFFFFFFFFFFFFFFFFFFFFFFFFFFFFFFFFFFFFFFF MUL NOT AND SWAP1 DUP4 PUSH20 0xFFFFFFFFFFFFFFFFFFFFFFFFFFFFFFFFFFFFFFFF AND MUL OR SWAP1 SSTORE POP DUP2 PUSH20 0xFFFFFFFFFFFFFFFFFFFFFFFFFFFFFFFFFFFFFFFF AND DUP2 PUSH20 0xFFFFFFFFFFFFFFFFFFFFFFFFFFFFFFFFFFFFFFFF AND PUSH32 0x8BE0079C531659141344CD1FD0A4F28419497F9722A3DAAFE3B4186F6B6457E0 PUSH1 0x40 MLOAD PUSH1 0x40 MLOAD DUP1 SWAP2 SUB SWAP1 LOG3 POP POP JUMP JUMPDEST PUSH0 PUSH20 0xFFFFFFFFFFFFFFFFFFFFFFFFFFFFFFFFFFFFFFFF AND DUP3 PUSH20 0xFFFFFFFFFFFFFFFFFFFFFFFFFFFFFFFFFFFFFFFF AND SUB PUSH2 0x269 JUMPI PUSH0 PUSH1 0x40 MLOAD PUSH32 0xEC442F0500000000000000000000000000000000000000000000000000000000 DUP2 MSTORE PUSH1 0x4 ADD PUSH2 0x260 SWAP2 SWAP1 PUSH2 0x7DF JUMP JUMPDEST PUSH1 0x40 MLOAD DUP1 SWAP2 SUB SWAP1 REVERT JUMPDEST PUSH2 0x27A PUSH0 DUP4 DUP4 PUSH2 0x27E PUSH1 0x20 SHL PUSH1 0x20 SHR JUMP JUMPDEST POP POP JUMP JUMPDEST PUSH0 PUSH20 0xFFFFFFFFFFFFFFFFFFFFFFFFFFFFFFFFFFFFFFFF AND DUP4 PUSH20 0xFFFFFFFFFFFFFFFFFFFFFFFFFFFFFFFFFFFFFFFF AND SUB PUSH2 0x2CE JUMPI DUP1 PUSH1 0x2 PUSH0 DUP3 DUP3 SLOAD PUSH2 0x2C2 SWAP2 SWAP1 PUSH2 0x825 JUMP JUMPDEST SWAP3 POP POP DUP2 SWAP1 SSTORE POP PUSH2 0x39C JUMP JUMPDEST PUSH0 DUP1 PUSH0 DUP6 PUSH20 0xFFFFFFFFFFFFFFFFFFFFFFFFFFFFFFFFFFFFFFFF AND PUSH20 0xFFFFFFFFFFFFFFFFFFFFFFFFFFFFFFFFFFFFFFFF AND DUP2 MSTORE PUSH1 0x20 ADD SWAP1 DUP2 MSTORE PUSH1 0x20 ADD PUSH0 KECCAK256 SLOAD SWAP1 POP DUP2 DUP2 LT ISZERO PUSH2 0x357 JUMPI DUP4 DUP2 DUP4 PUSH1 0x40 MLOAD PUSH32 0xE450D38C00000000000000000000000000000000000000000000000000000000 DUP2 MSTORE PUSH1 0x4 ADD PUSH2 0x34E SWAP4 SWAP3 SWAP2 SWAP1 PUSH2 0x867 JUMP JUMPDEST PUSH1 0x40 MLOAD DUP1 SWAP2 SUB SWAP1 REVERT JUMPDEST DUP2 DUP2 SUB PUSH0 DUP1 DUP7 PUSH20 0xFFFFFFFFFFFFFFFFFFFFFFFFFFFFFFFFFFFFFFFF AND PUSH20 0xFFFFFFFFFFFFFFFFFFFFFFFFFFFFFFFFFFFFFFFF AND DUP2 MSTORE PUSH1 0x20 ADD SWAP1 DUP2 MSTORE PUSH1 0x20 ADD PUSH0 KECCAK256 DUP2 SWAP1 SSTORE POP POP JUMPDEST PUSH0 PUSH20 0xFFFFFFFFFFFFFFFFFFFFFFFFFFFFFFFFFFFFFFFF AND DUP3 PUSH20 0xFFFFFFFFFFFFFFFFFFFFFFFFFFFFFFFFFFFFFFFF AND SUB PUSH2 0x3E3 JUMPI DUP1 PUSH1 0x2 PUSH0 DUP3 DUP3 SLOAD SUB SWAP3 POP POP DUP2 SWAP1 SSTORE POP PUSH2 0x42D JUMP JUMPDEST DUP1 PUSH0 DUP1 DUP5 PUSH20 0xFFFFFFFFFFFFFFFFFFFFFFFFFFFFFFFFFFFFFFFF AND PUSH20 0xFFFFFFFFFFFFFFFFFFFFFFFFFFFFFFFFFFFFFFFF AND DUP2 MSTORE PUSH1 0x20 ADD SWAP1 DUP2 MSTORE PUSH1 0x20 ADD PUSH0 KECCAK256 PUSH0 DUP3 DUP3 SLOAD ADD SWAP3 POP POP DUP2 SWAP1 SSTORE POP JUMPDEST DUP2 PUSH20 0xFFFFFFFFFFFFFFFFFFFFFFFFFFFFFFFFFFFFFFFF AND DUP4 PUSH20 0xFFFFFFFFFFFFFFFFFFFFFFFFFFFFFFFFFFFFFFFF AND PUSH32 0xDDF252AD1BE2C89B69C2B068FC378DAA952BA7F163C4A11628F55A4DF523B3EF DUP4 PUSH1 0x40 MLOAD PUSH2 0x48A SWAP2 SWAP1 PUSH2 0x89C JUMP JUMPDEST PUSH1 0x40 MLOAD DUP1 SWAP2 SUB SWAP1 LOG3 POP POP POP JUMP JUMPDEST PUSH0 DUP2 MLOAD SWAP1 POP SWAP2 SWAP1 POP JUMP JUMPDEST PUSH32 0x4E487B7100000000000000000000000000000000000000000000000000000000 PUSH0 MSTORE PUSH1 0x41 PUSH1 0x4 MSTORE PUSH1 0x24 PUSH0 REVERT JUMPDEST PUSH32 0x4E487B7100000000000000000000000000000000000000000000000000000000 PUSH0 MSTORE PUSH1 0x22 PUSH1 0x4 MSTORE PUSH1 0x24 PUSH0 REVERT JUMPDEST PUSH0 PUSH1 0x2 DUP3 DIV SWAP1 POP PUSH1 0x1 DUP3 AND DUP1 PUSH2 0x512 JUMPI PUSH1 0x7F DUP3 AND SWAP2 POP JUMPDEST PUSH1 0x20 DUP3 LT DUP2 SUB PUSH2 0x525 JUMPI PUSH2 0x524 PUSH2 0x4CE JUMP JUMPDEST JUMPDEST POP SWAP2 SWAP1 POP JUMP JUMPDEST PUSH0 DUP2 SWAP1 POP DUP2 PUSH0 MSTORE PUSH1 0x20 PUSH0 KECCAK256 SWAP1 POP SWAP2 SWAP1 POP JUMP JUMPDEST PUSH0 PUSH1 0x20 PUSH1 0x1F DUP4 ADD DIV SWAP1 POP SWAP2 SWAP1 POP JUMP JUMPDEST PUSH0 DUP3 DUP3 SHL SWAP1 POP SWAP3 SWAP2 POP POP JUMP JUMPDEST PUSH0 PUSH1 0x8 DUP4 MUL PUSH2 0x587 PUSH32 0xFFFFFFFFFFFFFFFFFFFFFFFFFFFFFFFFFFFFFFFFFFFFFFFFFFFFFFFFFFFFFFFF DUP3 PUSH2 0x54C JUMP JUMPDEST PUSH2 0x591 DUP7 DUP4 PUSH2 0x54C JUMP JUMPDEST SWAP6 POP DUP1 NOT DUP5 AND SWAP4 POP DUP1 DUP7 AND DUP5 OR SWAP3 POP POP POP SWAP4 SWAP3 POP POP POP JUMP JUMPDEST PUSH0 DUP2 SWAP1 POP SWAP2 SWAP1 POP JUMP JUMPDEST PUSH0 DUP2 SWAP1 POP SWAP2 SWAP1 POP JUMP JUMPDEST PUSH0 PUSH2 0x5D5 PUSH2 0x5D0 PUSH2 0x5CB DUP5 PUSH2 0x5A9 JUMP JUMPDEST PUSH2 0x5B2 JUMP JUMPDEST PUSH2 0x5A9 JUMP JUMPDEST SWAP1 POP SWAP2 SWAP1 POP JUMP JUMPDEST PUSH0 DUP2 SWAP1 POP SWAP2 SWAP1 POP JUMP JUMPDEST PUSH2 0x5EE DUP4 PUSH2 0x5BB JUMP JUMPDEST PUSH2 0x602 PUSH2 0x5FA DUP3 PUSH2 0x5DC JUMP JUMPDEST DUP5 DUP5 SLOAD PUSH2 0x558 JUMP JUMPDEST DUP3 SSTORE POP POP POP POP JUMP JUMPDEST PUSH0 SWAP1 JUMP JUMPDEST PUSH2 0x616 PUSH2 0x60A JUMP JUMPDEST PUSH2 0x621 DUP2 DUP5 DUP5 PUSH2 0x5E5 JUMP JUMPDEST POP POP POP JUMP JUMPDEST JUMPDEST DUP2 DUP2 LT ISZERO PUSH2 0x644 JUMPI PUSH2 0x639 PUSH0 DUP3 PUSH2 0x60E JUMP JUMPDEST PUSH1 0x1 DUP2 ADD SWAP1 POP PUSH2 0x627 JUMP JUMPDEST POP POP JUMP JUMPDEST PUSH1 0x1F DUP3 GT ISZERO PUSH2 0x689 JUMPI PUSH2 0x65A DUP2 PUSH2 0x52B JUMP JUMPDEST PUSH2 0x663 DUP5 PUSH2 0x53D JUMP JUMPDEST DUP2 ADD PUSH1 0x20 DUP6 LT ISZERO PUSH2 0x672 JUMPI DUP2 SWAP1 POP JUMPDEST PUSH2 0x686 PUSH2 0x67E DUP6 PUSH2 0x53D JUMP JUMPDEST DUP4 ADD DUP3 PUSH2 0x626 JUMP JUMPDEST POP POP JUMPDEST POP POP POP JUMP JUMPDEST PUSH0 DUP3 DUP3 SHR SWAP1 POP SWAP3 SWAP2 POP POP JUMP JUMPDEST PUSH0 PUSH2 0x6A9 PUSH0 NOT DUP5 PUSH1 0x8 MUL PUSH2 0x68E JUMP JUMPDEST NOT DUP1 DUP4 AND SWAP2 POP POP SWAP3 SWAP2 POP POP JUMP JUMPDEST PUSH0 PUSH2 0x6C1 DUP4 DUP4 PUSH2 0x69A JUMP JUMPDEST SWAP2 POP DUP3 PUSH1 0x2 MUL DUP3 OR SWAP1 POP SWAP3 SWAP2 POP POP JUMP JUMPDEST PUSH2 0x6DA DUP3 PUSH2 0x497 JUMP JUMPDEST PUSH8 0xFFFFFFFFFFFFFFFF DUP2 GT ISZERO PUSH2 0x6F3 JUMPI PUSH2 0x6F2 PUSH2 0x4A1 JUMP JUMPDEST JUMPDEST PUSH2 0x6FD DUP3 SLOAD PUSH2 0x4FB JUMP JUMPDEST PUSH2 0x708 DUP3 DUP3 DUP6 PUSH2 0x648 JUMP JUMPDEST PUSH0 PUSH1 0x20 SWAP1 POP PUSH1 0x1F DUP4 GT PUSH1 0x1 DUP2 EQ PUSH2 0x739 JUMPI PUSH0 DUP5 ISZERO PUSH2 0x727 JUMPI DUP3 DUP8 ADD MLOAD SWAP1 POP JUMPDEST PUSH2 0x731 DUP6 DUP3 PUSH2 0x6B6 JUMP JUMPDEST DUP7 SSTORE POP PUSH2 0x798 JUMP JUMPDEST PUSH1 0x1F NOT DUP5 AND PUSH2 0x747 DUP7 PUSH2 0x52B JUMP JUMPDEST PUSH0 JUMPDEST DUP3 DUP2 LT ISZERO PUSH2 0x76E JUMPI DUP5 DUP10 ADD MLOAD DUP3 SSTORE PUSH1 0x1 DUP3 ADD SWAP2 POP PUSH1 0x20 DUP6 ADD SWAP5 POP PUSH1 0x20 DUP2 ADD SWAP1 POP PUSH2 0x749 JUMP JUMPDEST DUP7 DUP4 LT ISZERO PUSH2 0x78B JUMPI DUP5 DUP10 ADD MLOAD PUSH2 0x787 PUSH1 0x1F DUP10 AND DUP3 PUSH2 0x69A JUMP JUMPDEST DUP4 SSTORE POP JUMPDEST PUSH1 0x1 PUSH1 0x2 DUP9 MUL ADD DUP9 SSTORE POP POP POP JUMPDEST POP POP POP POP POP POP JUMP JUMPDEST PUSH0 PUSH20 0xFFFFFFFFFFFFFFFFFFFFFFFFFFFFFFFFFFFFFFFF DUP3 AND SWAP1 POP SWAP2 SWAP1 POP JUMP JUMPDEST PUSH0 PUSH2 0x7C9 DUP3 PUSH2 0x7A0 JUMP JUMPDEST SWAP1 POP SWAP2 SWAP1 POP JUMP JUMPDEST PUSH2 0x7D9 DUP2 PUSH2 0x7BF JUMP JUMPDEST DUP3 MSTORE POP POP JUMP JUMPDEST PUSH0 PUSH1 0x20 DUP3 ADD SWAP1 POP PUSH2 0x7F2 PUSH0 DUP4 ADD DUP5 PUSH2 0x7D0 JUMP JUMPDEST SWAP3 SWAP2 POP POP JUMP JUMPDEST PUSH32 0x4E487B7100000000000000000000000000000000000000000000000000000000 PUSH0 MSTORE PUSH1 0x11 PUSH1 0x4 MSTORE PUSH1 0x24 PUSH0 REVERT JUMPDEST PUSH0 PUSH2 0x82F DUP3 PUSH2 0x5A9 JUMP JUMPDEST SWAP2 POP PUSH2 0x83A DUP4 PUSH2 0x5A9 JUMP JUMPDEST SWAP3 POP DUP3 DUP3 ADD SWAP1 POP DUP1 DUP3 GT ISZERO PUSH2 0x852 JUMPI PUSH2 0x851 PUSH2 0x7F8 JUMP JUMPDEST JUMPDEST SWAP3 SWAP2 POP POP JUMP JUMPDEST PUSH2 0x861 DUP2 PUSH2 0x5A9 JUMP JUMPDEST DUP3 MSTORE POP POP JUMP JUMPDEST PUSH0 PUSH1 0x60 DUP3 ADD SWAP1 POP PUSH2 0x87A PUSH0 DUP4 ADD DUP7 PUSH2 0x7D0 JUMP JUMPDEST PUSH2 0x887 PUSH1 0x20 DUP4 ADD DUP6 PUSH2 0x858 JUMP JUMPDEST PUSH2 0x894 PUSH1 0x40 DUP4 ADD DUP5 PUSH2 0x858 JUMP JUMPDEST SWAP5 SWAP4 POP POP POP POP JUMP JUMPDEST PUSH0 PUSH1 0x20 DUP3 ADD SWAP1 POP PUSH2 0x8AF PUSH0 DUP4 ADD DUP5 PUSH2 0x858 JUMP JUMPDEST SWAP3 SWAP2 POP POP JUMP JUMPDEST PUSH2 0x2E26 DUP1 PUSH2 0x8C2 PUSH0 CODECOPY PUSH0 RETURN INVALID PUSH1 0x80 PUSH1 0x40 MSTORE PUSH1 0x4 CALLDATASIZE LT PUSH2 0x165 JUMPI PUSH0 CALLDATALOAD PUSH1 0xE0 SHR DUP1 PUSH4 0x8DA5CB5B GT PUSH2 0xD0 JUMPI DUP1 PUSH4 0xB384ABEF GT PUSH2 0x89 JUMPI DUP1 PUSH4 0xDEEBEAC9 GT PUSH2 0x63 JUMPI DUP1 PUSH4 0xDEEBEAC9 EQ PUSH2 0x531 JUMPI DUP1 PUSH4 0xEBC34D24 EQ PUSH2 0x56D JUMPI DUP1 PUSH4 0xF2FDE38B EQ PUSH2 0x5A9 JUMPI DUP1 PUSH4 0xFAC07D2A EQ PUSH2 0x5D1 JUMPI PUSH2 0x165 JUMP JUMPDEST DUP1 PUSH4 0xB384ABEF EQ PUSH2 0x4AF JUMPI DUP1 PUSH4 0xDD62ED3E EQ PUSH2 0x4CB JUMPI DUP1 PUSH4 0xDD670ED7 EQ PUSH2 0x507 JUMPI PUSH2 0x165 JUMP JUMPDEST DUP1 PUSH4 0x8DA5CB5B EQ PUSH2 0x392 JUMPI DUP1 PUSH4 0x8F023F85 EQ PUSH2 0x3BC JUMPI DUP1 PUSH4 0x95D89B41 EQ PUSH2 0x3F9 JUMPI DUP1 PUSH4 0xA0712D68 EQ PUSH2 0x423 JUMPI DUP1 PUSH4 0xA0BDAFDA EQ PUSH2 0x44B JUMPI DUP1 PUSH4 0xA9059CBB EQ PUSH2 0x473 JUMPI PUSH2 0x165 JUMP JUMPDEST DUP1 PUSH4 0x32BF68D4 GT PUSH2 0x122 JUMPI DUP1 PUSH4 0x32BF68D4 EQ PUSH2 0x289 JUMPI DUP1 PUSH4 0x503C560F EQ PUSH2 0x2B3 JUMPI DUP1 PUSH4 0x5B94EA10 EQ PUSH2 0x2DB JUMPI DUP1 PUSH4 0x70A08231 EQ PUSH2 0x318 JUMPI DUP1 PUSH4 0x715018A6 EQ PUSH2 0x354 JUMPI DUP1 PUSH4 0x8A9AC1D2 EQ PUSH2 0x36A JUMPI PUSH2 0x165 JUMP JUMPDEST DUP1 PUSH4 0x6FDDE03 EQ PUSH2 0x169 JUMPI DUP1 PUSH4 0x95EA7B3 EQ PUSH2 0x193 JUMPI DUP1 PUSH4 0x18160DDD EQ PUSH2 0x1CF JUMPI DUP1 PUSH4 0x198CC691 EQ PUSH2 0x1F9 JUMPI DUP1 PUSH4 0x23B872DD EQ PUSH2 0x223 JUMPI DUP1 PUSH4 0x313CE567 EQ PUSH2 0x25F JUMPI JUMPDEST PUSH0 DUP1 REVERT JUMPDEST CALLVALUE DUP1 ISZERO PUSH2 0x174 JUMPI PUSH0 DUP1 REVERT JUMPDEST POP PUSH2 0x17D PUSH2 0x5FC JUMP JUMPDEST PUSH1 0x40 MLOAD PUSH2 0x18A SWAP2 SWAP1 PUSH2 0x1D89 JUMP JUMPDEST PUSH1 0x40 MLOAD DUP1 SWAP2 SUB SWAP1 RETURN JUMPDEST CALLVALUE DUP1 ISZERO PUSH2 0x19E JUMPI PUSH0 DUP1 REVERT JUMPDEST POP PUSH2 0x1B9 PUSH1 0x4 DUP1 CALLDATASIZE SUB DUP2 ADD SWAP1 PUSH2 0x1B4 SWAP2 SWAP1 PUSH2 0x1E47 JUMP JUMPDEST PUSH2 0x68C JUMP JUMPDEST PUSH1 0x40 MLOAD PUSH2 0x1C6 SWAP2 SWAP1 PUSH2 0x1E9F JUMP JUMPDEST PUSH1 0x40 MLOAD DUP1 SWAP2 SUB SWAP1 RETURN JUMPDEST CALLVALUE DUP1 ISZERO PUSH2 0x1DA JUMPI PUSH0 DUP1 REVERT JUMPDEST POP PUSH2 0x1E3 PUSH2 0x6AE JUMP JUMPDEST PUSH1 0x40 MLOAD PUSH2 0x1F0 SWAP2 SWAP1 PUSH2 0x1EC7 JUMP JUMPDEST PUSH1 0x40 MLOAD DUP1 SWAP2 SUB SWAP1 RETURN JUMPDEST CALLVALUE DUP1 ISZERO PUSH2 0x204 JUMPI PUSH0 DUP1 REVERT JUMPDEST POP PUSH2 0x20D PUSH2 0x6B7 JUMP JUMPDEST PUSH1 0x40 MLOAD PUSH2 0x21A SWAP2 SWAP1 PUSH2 0x202C JUMP JUMPDEST PUSH1 0x40 MLOAD DUP1 SWAP2 SUB SWAP1 RETURN JUMPDEST CALLVALUE DUP1 ISZERO PUSH2 0x22E JUMPI PUSH0 DUP1 REVERT JUMPDEST POP PUSH2 0x249 PUSH1 0x4 DUP1 CALLDATASIZE SUB DUP2 ADD SWAP1 PUSH2 0x244 SWAP2 SWAP1 PUSH2 0x204C JUMP JUMPDEST PUSH2 0x7AC JUMP JUMPDEST PUSH1 0x40 MLOAD PUSH2 0x256 SWAP2 SWAP1 PUSH2 0x1E9F JUMP JUMPDEST PUSH1 0x40 MLOAD DUP1 SWAP2 SUB SWAP1 RETURN JUMPDEST CALLVALUE DUP1 ISZERO PUSH2 0x26A JUMPI PUSH0 DUP1 REVERT JUMPDEST POP PUSH2 0x273 PUSH2 0x7DA JUMP JUMPDEST PUSH1 0x40 MLOAD PUSH2 0x280 SWAP2 SWAP1 PUSH2 0x20B7 JUMP JUMPDEST PUSH1 0x40 MLOAD DUP1 SWAP2 SUB SWAP1 RETURN JUMPDEST CALLVALUE DUP1 ISZERO PUSH2 0x294 JUMPI PUSH0 DUP1 REVERT JUMPDEST POP PUSH2 0x29D PUSH2 0x7E2 JUMP JUMPDEST PUSH1 0x40 MLOAD PUSH2 0x2AA SWAP2 SWAP1 PUSH2 0x2187 JUMP JUMPDEST PUSH1 0x40 MLOAD DUP1 SWAP2 SUB SWAP1 RETURN JUMPDEST CALLVALUE DUP1 ISZERO PUSH2 0x2BE JUMPI PUSH0 DUP1 REVERT JUMPDEST POP PUSH2 0x2D9 PUSH1 0x4 DUP1 CALLDATASIZE SUB DUP2 ADD SWAP1 PUSH2 0x2D4 SWAP2 SWAP1 PUSH2 0x22D3 JUMP JUMPDEST PUSH2 0x86D JUMP JUMPDEST STOP JUMPDEST CALLVALUE DUP1 ISZERO PUSH2 0x2E6 JUMPI PUSH0 DUP1 REVERT JUMPDEST POP PUSH2 0x301 PUSH1 0x4 DUP1 CALLDATASIZE SUB DUP2 ADD SWAP1 PUSH2 0x2FC SWAP2 SWAP1 PUSH2 0x231A JUMP JUMPDEST PUSH2 0x90C JUMP JUMPDEST PUSH1 0x40 MLOAD PUSH2 0x30F SWAP3 SWAP2 SWAP1 PUSH2 0x2354 JUMP JUMPDEST PUSH1 0x40 MLOAD DUP1 SWAP2 SUB SWAP1 RETURN JUMPDEST CALLVALUE DUP1 ISZERO PUSH2 0x323 JUMPI PUSH0 DUP1 REVERT JUMPDEST POP PUSH2 0x33E PUSH1 0x4 DUP1 CALLDATASIZE SUB DUP2 ADD SWAP1 PUSH2 0x339 SWAP2 SWAP1 PUSH2 0x237B JUMP JUMPDEST PUSH2 0x957 JUMP JUMPDEST PUSH1 0x40 MLOAD PUSH2 0x34B SWAP2 SWAP1 PUSH2 0x1EC7 JUMP JUMPDEST PUSH1 0x40 MLOAD DUP1 SWAP2 SUB SWAP1 RETURN JUMPDEST CALLVALUE DUP1 ISZERO PUSH2 0x35F JUMPI PUSH0 DUP1 REVERT JUMPDEST POP PUSH2 0x368 PUSH2 0x99C JUMP JUMPDEST STOP JUMPDEST CALLVALUE DUP1 ISZERO PUSH2 0x375 JUMPI PUSH0 DUP1 REVERT JUMPDEST POP PUSH2 0x390 PUSH1 0x4 DUP1 CALLDATASIZE SUB DUP2 ADD SWAP1 PUSH2 0x38B SWAP2 SWAP1 PUSH2 0x231A JUMP JUMPDEST PUSH2 0x9AF JUMP JUMPDEST STOP JUMPDEST CALLVALUE DUP1 ISZERO PUSH2 0x39D JUMPI PUSH0 DUP1 REVERT JUMPDEST POP PUSH2 0x3A6 PUSH2 0xADD JUMP JUMPDEST PUSH1 0x40 MLOAD PUSH2 0x3B3 SWAP2 SWAP1 PUSH2 0x23A6 JUMP JUMPDEST PUSH1 0x40 MLOAD DUP1 SWAP2 SUB SWAP1 RETURN JUMPDEST CALLVALUE DUP1 ISZERO PUSH2 0x3C7 JUMPI PUSH0 DUP1 REVERT JUMPDEST POP PUSH2 0x3E2 PUSH1 0x4 DUP1 CALLDATASIZE SUB DUP2 ADD SWAP1 PUSH2 0x3DD SWAP2 SWAP1 PUSH2 0x231A JUMP JUMPDEST PUSH2 0xB05 JUMP JUMPDEST PUSH1 0x40 MLOAD PUSH2 0x3F0 SWAP3 SWAP2 SWAP1 PUSH2 0x23BF JUMP JUMPDEST PUSH1 0x40 MLOAD DUP1 SWAP2 SUB SWAP1 RETURN JUMPDEST CALLVALUE DUP1 ISZERO PUSH2 0x404 JUMPI PUSH0 DUP1 REVERT JUMPDEST POP PUSH2 0x40D PUSH2 0xBBA JUMP JUMPDEST PUSH1 0x40 MLOAD PUSH2 0x41A SWAP2 SWAP1 PUSH2 0x1D89 JUMP JUMPDEST PUSH1 0x40 MLOAD DUP1 SWAP2 SUB SWAP1 RETURN JUMPDEST CALLVALUE DUP1 ISZERO PUSH2 0x42E JUMPI PUSH0 DUP1 REVERT JUMPDEST POP PUSH2 0x449 PUSH1 0x4 DUP1 CALLDATASIZE SUB DUP2 ADD SWAP1 PUSH2 0x444 SWAP2 SWAP1 PUSH2 0x231A JUMP JUMPDEST PUSH2 0xC4A JUMP JUMPDEST STOP JUMPDEST CALLVALUE DUP1 ISZERO PUSH2 0x456 JUMPI PUSH0 DUP1 REVERT JUMPDEST POP PUSH2 0x471 PUSH1 0x4 DUP1 CALLDATASIZE SUB DUP2 ADD SWAP1 PUSH2 0x46C SWAP2 SWAP1 PUSH2 0x23ED JUMP JUMPDEST PUSH2 0xC5F JUMP JUMPDEST STOP JUMPDEST CALLVALUE DUP1 ISZERO PUSH2 0x47E JUMPI PUSH0 DUP1 REVERT JUMPDEST POP PUSH2 0x499 PUSH1 0x4 DUP1 CALLDATASIZE SUB DUP2 ADD SWAP1 PUSH2 0x494 SWAP2 SWAP1 PUSH2 0x1E47 JUMP JUMPDEST PUSH2 0xDA2 JUMP JUMPDEST PUSH1 0x40 MLOAD PUSH2 0x4A6 SWAP2 SWAP1 PUSH2 0x1E9F JUMP JUMPDEST PUSH1 0x40 MLOAD DUP1 SWAP2 SUB SWAP1 RETURN JUMPDEST PUSH2 0x4C9 PUSH1 0x4 DUP1 CALLDATASIZE SUB DUP2 ADD SWAP1 PUSH2 0x4C4 SWAP2 SWAP1 PUSH2 0x2447 JUMP JUMPDEST PUSH2 0xDC4 JUMP JUMPDEST STOP JUMPDEST CALLVALUE DUP1 ISZERO PUSH2 0x4D6 JUMPI PUSH0 DUP1 REVERT JUMPDEST POP PUSH2 0x4F1 PUSH1 0x4 DUP1 CALLDATASIZE SUB DUP2 ADD SWAP1 PUSH2 0x4EC SWAP2 SWAP1 PUSH2 0x2485 JUMP JUMPDEST PUSH2 0x100C JUMP JUMPDEST PUSH1 0x40 MLOAD PUSH2 0x4FE SWAP2 SWAP1 PUSH2 0x1EC7 JUMP JUMPDEST PUSH1 0x40 MLOAD DUP1 SWAP2 SUB SWAP1 RETURN JUMPDEST CALLVALUE DUP1 ISZERO PUSH2 0x512 JUMPI PUSH0 DUP1 REVERT JUMPDEST POP PUSH2 0x51B PUSH2 0x108E JUMP JUMPDEST PUSH1 0x40 MLOAD PUSH2 0x528 SWAP2 SWAP1 PUSH2 0x1EC7 JUMP JUMPDEST PUSH1 0x40 MLOAD DUP1 SWAP2 SUB SWAP1 RETURN JUMPDEST CALLVALUE DUP1 ISZERO PUSH2 0x53C JUMPI PUSH0 DUP1 REVERT JUMPDEST POP PUSH2 0x557 PUSH1 0x4 DUP1 CALLDATASIZE SUB DUP2 ADD SWAP1 PUSH2 0x552 SWAP2 SWAP1 PUSH2 0x237B JUMP JUMPDEST PUSH2 0x1094 JUMP JUMPDEST PUSH1 0x40 MLOAD PUSH2 0x564 SWAP2 SWAP1 PUSH2 0x1E9F JUMP JUMPDEST PUSH1 0x40 MLOAD DUP1 SWAP2 SUB SWAP1 RETURN JUMPDEST CALLVALUE DUP1 ISZERO PUSH2 0x578 JUMPI PUSH0 DUP1 REVERT JUMPDEST POP PUSH2 0x593 PUSH1 0x4 DUP1 CALLDATASIZE SUB DUP2 ADD SWAP1 PUSH2 0x58E SWAP2 SWAP1 PUSH2 0x231A JUMP JUMPDEST PUSH2 0x11D8 JUMP JUMPDEST PUSH1 0x40 MLOAD PUSH2 0x5A0 SWAP2 SWAP1 PUSH2 0x256B JUMP JUMPDEST PUSH1 0x40 MLOAD DUP1 SWAP2 SUB SWAP1 RETURN JUMPDEST CALLVALUE DUP1 ISZERO PUSH2 0x5B4 JUMPI PUSH0 DUP1 REVERT JUMPDEST POP PUSH2 0x5CF PUSH1 0x4 DUP1 CALLDATASIZE SUB DUP2 ADD SWAP1 PUSH2 0x5CA SWAP2 SWAP1 PUSH2 0x237B JUMP JUMPDEST PUSH2 0x1242 JUMP JUMPDEST STOP JUMPDEST CALLVALUE DUP1 ISZERO PUSH2 0x5DC JUMPI PUSH0 DUP1 REVERT JUMPDEST POP PUSH2 0x5E5 PUSH2 0x12C6 JUMP JUMPDEST PUSH1 0x40 MLOAD PUSH2 0x5F3 SWAP3 SWAP2 SWAP1 PUSH2 0x2646 JUMP JUMPDEST PUSH1 0x40 MLOAD DUP1 SWAP2 SUB SWAP1 RETURN JUMPDEST PUSH1 0x60 PUSH1 0x3 DUP1 SLOAD PUSH2 0x60B SWAP1 PUSH2 0x26A8 JUMP JUMPDEST DUP1 PUSH1 0x1F ADD PUSH1 0x20 DUP1 SWAP2 DIV MUL PUSH1 0x20 ADD PUSH1 0x40 MLOAD SWAP1 DUP2 ADD PUSH1 0x40 MSTORE DUP1 SWAP3 SWAP2 SWAP1 DUP2 DUP2 MSTORE PUSH1 0x20 ADD DUP3 DUP1 SLOAD PUSH2 0x637 SWAP1 PUSH2 0x26A8 JUMP JUMPDEST DUP1 ISZERO PUSH2 0x682 JUMPI DUP1 PUSH1 0x1F LT PUSH2 0x659 JUMPI PUSH2 0x100 DUP1 DUP4 SLOAD DIV MUL DUP4 MSTORE SWAP2 PUSH1 0x20 ADD SWAP2 PUSH2 0x682 JUMP JUMPDEST DUP3 ADD SWAP2 SWAP1 PUSH0 MSTORE PUSH1 0x20 PUSH0 KECCAK256 SWAP1 JUMPDEST DUP2 SLOAD DUP2 MSTORE SWAP1 PUSH1 0x1 ADD SWAP1 PUSH1 0x20 ADD DUP1 DUP4 GT PUSH2 0x665 JUMPI DUP3 SWAP1 SUB PUSH1 0x1F AND DUP3 ADD SWAP2 JUMPDEST POP POP POP POP POP SWAP1 POP SWAP1 JUMP JUMPDEST PUSH0 DUP1 PUSH2 0x696 PUSH2 0x14E8 JUMP JUMPDEST SWAP1 POP PUSH2 0x6A3 DUP2 DUP6 DUP6 PUSH2 0x14EF JUMP JUMPDEST PUSH1 0x1 SWAP2 POP POP SWAP3 SWAP2 POP POP JUMP JUMPDEST PUSH0 PUSH1 0x2 SLOAD SWAP1 POP SWAP1 JUMP JUMPDEST PUSH1 0x60 PUSH1 0x6 DUP1 SLOAD DUP1 PUSH1 0x20 MUL PUSH1 0x20 ADD PUSH1 0x40 MLOAD SWAP1 DUP2 ADD PUSH1 0x40 MSTORE DUP1 SWAP3 SWAP2 SWAP1 DUP2 DUP2 MSTORE PUSH1 0x20 ADD PUSH0 SWAP1 JUMPDEST DUP3 DUP3 LT ISZERO PUSH2 0x7A3 JUMPI DUP4 DUP3 SWAP1 PUSH0 MSTORE PUSH1 0x20 PUSH0 KECCAK256 SWAP1 PUSH1 0x2 MUL ADD PUSH1 0x40 MLOAD DUP1 PUSH1 0x40 ADD PUSH1 0x40 MSTORE SWAP1 DUP2 PUSH0 DUP3 ADD DUP1 SLOAD PUSH2 0x70A SWAP1 PUSH2 0x26A8 JUMP JUMPDEST DUP1 PUSH1 0x1F ADD PUSH1 0x20 DUP1 SWAP2 DIV MUL PUSH1 0x20 ADD PUSH1 0x40 MLOAD SWAP1 DUP2 ADD PUSH1 0x40 MSTORE DUP1 SWAP3 SWAP2 SWAP1 DUP2 DUP2 MSTORE PUSH1 0x20 ADD DUP3 DUP1 SLOAD PUSH2 0x736 SWAP1 PUSH2 0x26A8 JUMP JUMPDEST DUP1 ISZERO PUSH2 0x781 JUMPI DUP1 PUSH1 0x1F LT PUSH2 0x758 JUMPI PUSH2 0x100 DUP1 DUP4 SLOAD DIV MUL DUP4 MSTORE SWAP2 PUSH1 0x20 ADD SWAP2 PUSH2 0x781 JUMP JUMPDEST DUP3 ADD SWAP2 SWAP1 PUSH0 MSTORE PUSH1 0x20 PUSH0 KECCAK256 SWAP1 JUMPDEST DUP2 SLOAD DUP2 MSTORE SWAP1 PUSH1 0x1 ADD SWAP1 PUSH1 0x20 ADD DUP1 DUP4 GT PUSH2 0x764 JUMPI DUP3 SWAP1 SUB PUSH1 0x1F AND DUP3 ADD SWAP2 JUMPDEST POP POP POP POP POP DUP2 MSTORE PUSH1 0x20 ADD PUSH1 0x1 DUP3 ADD SLOAD DUP2 MSTORE POP POP DUP2 MSTORE PUSH1 0x20 ADD SWAP1 PUSH1 0x1 ADD SWAP1 PUSH2 0x6DA JUMP JUMPDEST POP POP POP POP SWAP1 POP SWAP1 JUMP JUMPDEST PUSH0 DUP1 PUSH2 0x7B6 PUSH2 0x14E8 JUMP JUMPDEST SWAP1 POP PUSH2 0x7C3 DUP6 DUP3 DUP6 PUSH2 0x1501 JUMP JUMPDEST PUSH2 0x7CE DUP6 DUP6 DUP6 PUSH2 0x1593 JUMP JUMPDEST PUSH1 0x1 SWAP2 POP POP SWAP4 SWAP3 POP POP POP JUMP JUMPDEST PUSH0 PUSH1 0x12 SWAP1 POP SWAP1 JUMP JUMPDEST PUSH1 0x60 PUSH1 0x9 DUP1 SLOAD DUP1 PUSH1 0x20 MUL PUSH1 0x20 ADD PUSH1 0x40 MLOAD SWAP1 DUP2 ADD PUSH1 0x40 MSTORE DUP1 SWAP3 SWAP2 SWAP1 DUP2 DUP2 MSTORE PUSH1 0x20 ADD DUP3 DUP1 SLOAD DUP1 ISZERO PUSH2 0x863 JUMPI PUSH1 0x20 MUL DUP3 ADD SWAP2 SWAP1 PUSH0 MSTORE PUSH1 0x20 PUSH0 KECCAK256 SWAP1 JUMPDEST DUP2 PUSH0 SWAP1 SLOAD SWAP1 PUSH2 0x100 EXP SWAP1 DIV PUSH20 0xFFFFFFFFFFFFFFFFFFFFFFFFFFFFFFFFFFFFFFFF AND PUSH20 0xFFFFFFFFFFFFFFFFFFFFFFFFFFFFFFFFFFFFFFFF AND DUP2 MSTORE PUSH1 0x20 ADD SWAP1 PUSH1 0x1 ADD SWAP1 DUP1 DUP4 GT PUSH2 0x81A JUMPI JUMPDEST POP POP POP POP POP SWAP1 POP SWAP1 JUMP JUMPDEST PUSH2 0x875 PUSH2 0x1683 JUMP JUMPDEST PUSH1 0x6 PUSH1 0x40 MLOAD DUP1 PUSH1 0x40 ADD PUSH1 0x40 MSTORE DUP1 DUP4 DUP2 MSTORE PUSH1 0x20 ADD PUSH0 DUP2 MSTORE POP SWAP1 DUP1 PUSH1 0x1 DUP2 SLOAD ADD DUP1 DUP3 SSTORE DUP1 SWAP2 POP POP PUSH1 0x1 SWAP1 SUB SWAP1 PUSH0 MSTORE PUSH1 0x20 PUSH0 KECCAK256 SWAP1 PUSH1 0x2 MUL ADD PUSH0 SWAP1 SWAP2 SWAP1 SWAP2 SWAP1 SWAP2 POP PUSH0 DUP3 ADD MLOAD DUP2 PUSH0 ADD SWAP1 DUP2 PUSH2 0x8C5 SWAP2 SWAP1 PUSH2 0x2875 JUMP JUMPDEST POP PUSH1 0x20 DUP3 ADD MLOAD DUP2 PUSH1 0x1 ADD SSTORE POP POP PUSH32 0x566C2D39711B082CC685ADE507DEE6291F47044333D9ABA4037034CDC3CFAC9E DUP2 PUSH1 0x40 MLOAD PUSH2 0x901 SWAP2 SWAP1 PUSH2 0x1D89 JUMP JUMPDEST PUSH1 0x40 MLOAD DUP1 SWAP2 SUB SWAP1 LOG1 POP JUMP JUMPDEST PUSH1 0x8 PUSH1 0x20 MSTORE DUP1 PUSH0 MSTORE PUSH1 0x40 PUSH0 KECCAK256 PUSH0 SWAP2 POP SWAP1 POP DUP1 PUSH0 ADD PUSH0 SWAP1 SLOAD SWAP1 PUSH2 0x100 EXP SWAP1 DIV PUSH20 0xFFFFFFFFFFFFFFFFFFFFFFFFFFFFFFFFFFFFFFFF AND SWAP1 DUP1 PUSH1 0x3 ADD PUSH0 SWAP1 SLOAD SWAP1 PUSH2 0x100 EXP SWAP1 DIV PUSH1 0xFF AND SWAP1 POP DUP3 JUMP JUMPDEST PUSH0 DUP1 PUSH0 DUP4 PUSH20 0xFFFFFFFFFFFFFFFFFFFFFFFFFFFFFFFFFFFFFFFF AND PUSH20 0xFFFFFFFFFFFFFFFFFFFFFFFFFFFFFFFFFFFFFFFF AND DUP2 MSTORE PUSH1 0x20 ADD SWAP1 DUP2 MSTORE PUSH1 0x20 ADD PUSH0 KECCAK256 SLOAD SWAP1 POP SWAP2 SWAP1 POP JUMP JUMPDEST PUSH2 0x9A4 PUSH2 0x1683 JUMP JUMPDEST PUSH2 0x9AD PUSH0 PUSH2 0x170A JUMP JUMPDEST JUMP JUMPDEST PUSH1 0x8 PUSH0 DUP3 DUP2 MSTORE PUSH1 0x20 ADD SWAP1 DUP2 MSTORE PUSH1 0x20 ADD PUSH0 KECCAK256 PUSH0 ADD PUSH0 SWAP1 SLOAD SWAP1 PUSH2 0x100 EXP SWAP1 DIV PUSH20 0xFFFFFFFFFFFFFFFFFFFFFFFFFFFFFFFFFFFFFFFF AND PUSH20 0xFFFFFFFFFFFFFFFFFFFFFFFFFFFFFFFFFFFFFFFF AND CALLER PUSH20 0xFFFFFFFFFFFFFFFFFFFFFFFFFFFFFFFFFFFFFFFF AND EQ PUSH2 0xA4F JUMPI PUSH1 0x40 MLOAD PUSH32 0x8C379A000000000000000000000000000000000000000000000000000000000 DUP2 MSTORE PUSH1 0x4 ADD PUSH2 0xA46 SWAP1 PUSH2 0x29B4 JUMP JUMPDEST PUSH1 0x40 MLOAD DUP1 SWAP2 SUB SWAP1 REVERT JUMPDEST PUSH1 0x8 PUSH0 DUP3 DUP2 MSTORE PUSH1 0x20 ADD SWAP1 DUP2 MSTORE PUSH1 0x20 ADD PUSH0 KECCAK256 PUSH1 0x3 ADD PUSH0 SWAP1 SLOAD SWAP1 PUSH2 0x100 EXP SWAP1 DIV PUSH1 0xFF AND PUSH2 0xAAF JUMPI PUSH1 0x40 MLOAD PUSH32 0x8C379A000000000000000000000000000000000000000000000000000000000 DUP2 MSTORE PUSH1 0x4 ADD PUSH2 0xAA6 SWAP1 PUSH2 0x2A1C JUMP JUMPDEST PUSH1 0x40 MLOAD DUP1 SWAP2 SUB SWAP1 REVERT JUMPDEST PUSH0 PUSH1 0x8 PUSH0 DUP4 DUP2 MSTORE PUSH1 0x20 ADD SWAP1 DUP2 MSTORE PUSH1 0x20 ADD PUSH0 KECCAK256 PUSH1 0x3 ADD PUSH0 PUSH2 0x100 EXP DUP2 SLOAD DUP2 PUSH1 0xFF MUL NOT AND SWAP1 DUP4 ISZERO ISZERO MUL OR SWAP1 SSTORE POP POP JUMP JUMPDEST PUSH0 PUSH1 0x5 PUSH0 SWAP1 SLOAD SWAP1 PUSH2 0x100 EXP SWAP1 DIV PUSH20 0xFFFFFFFFFFFFFFFFFFFFFFFFFFFFFFFFFFFFFFFF AND SWAP1 POP SWAP1 JUMP JUMPDEST PUSH1 0x6 DUP2 DUP2 SLOAD DUP2 LT PUSH2 0xB14 JUMPI PUSH0 DUP1 REVERT JUMPDEST SWAP1 PUSH0 MSTORE PUSH1 0x20 PUSH0 KECCAK256 SWAP1 PUSH1 0x2 MUL ADD PUSH0 SWAP2 POP SWAP1 POP DUP1 PUSH0 ADD DUP1 SLOAD PUSH2 0xB33 SWAP1 PUSH2 0x26A8 JUMP JUMPDEST DUP1 PUSH1 0x1F ADD PUSH1 0x20 DUP1 SWAP2 DIV MUL PUSH1 0x20 ADD PUSH1 0x40 MLOAD SWAP1 DUP2 ADD PUSH1 0x40 MSTORE DUP1 SWAP3 SWAP2 SWAP1 DUP2 DUP2 MSTORE PUSH1 0x20 ADD DUP3 DUP1 SLOAD PUSH2 0xB5F SWAP1 PUSH2 0x26A8 JUMP JUMPDEST DUP1 ISZERO PUSH2 0xBAA JUMPI DUP1 PUSH1 0x1F LT PUSH2 0xB81 JUMPI PUSH2 0x100 DUP1 DUP4 SLOAD DIV MUL DUP4 MSTORE SWAP2 PUSH1 0x20 ADD SWAP2 PUSH2 0xBAA JUMP JUMPDEST DUP3 ADD SWAP2 SWAP1 PUSH0 MSTORE PUSH1 0x20 PUSH0 KECCAK256 SWAP1 JUMPDEST DUP2 SLOAD DUP2 MSTORE SWAP1 PUSH1 0x1 ADD SWAP1 PUSH1 0x20 ADD DUP1 DUP4 GT PUSH2 0xB8D JUMPI DUP3 SWAP1 SUB PUSH1 0x1F AND DUP3 ADD SWAP2 JUMPDEST POP POP POP POP POP SWAP1 DUP1 PUSH1 0x1 ADD SLOAD SWAP1 POP DUP3 JUMP JUMPDEST PUSH1 0x60 PUSH1 0x4 DUP1 SLOAD PUSH2 0xBC9 SWAP1 PUSH2 0x26A8 JUMP JUMPDEST DUP1 PUSH1 0x1F ADD PUSH1 0x20 DUP1 SWAP2 DIV MUL PUSH1 0x20 ADD PUSH1 0x40 MLOAD SWAP1 DUP2 ADD PUSH1 0x40 MSTORE DUP1 SWAP3 SWAP2 SWAP1 DUP2 DUP2 MSTORE PUSH1 0x20 ADD DUP3 DUP1 SLOAD PUSH2 0xBF5 SWAP1 PUSH2 0x26A8 JUMP JUMPDEST DUP1 ISZERO PUSH2 0xC40 JUMPI DUP1 PUSH1 0x1F LT PUSH2 0xC17 JUMPI PUSH2 0x100 DUP1 DUP4 SLOAD DIV MUL DUP4 MSTORE SWAP2 PUSH1 0x20 ADD SWAP2 PUSH2 0xC40 JUMP JUMPDEST DUP3 ADD SWAP2 SWAP1 PUSH0 MSTORE PUSH1 0x20 PUSH0 KECCAK256 SWAP1 JUMPDEST DUP2 SLOAD DUP2 MSTORE SWAP1 PUSH1 0x1 ADD SWAP1 PUSH1 0x20 ADD DUP1 DUP4 GT PUSH2 0xC23 JUMPI DUP3 SWAP1 SUB PUSH1 0x1F AND DUP3 ADD SWAP2 JUMPDEST POP POP POP POP POP SWAP1 POP SWAP1 JUMP JUMPDEST PUSH2 0xC52 PUSH2 0x1683 JUMP JUMPDEST PUSH2 0xC5C ADDRESS DUP3 PUSH2 0x17CD JUMP JUMPDEST POP JUMP JUMPDEST PUSH2 0xC67 PUSH2 0x1683 JUMP JUMPDEST PUSH1 0xA PUSH0 DUP2 SLOAD DUP1 SWAP3 SWAP2 SWAP1 PUSH2 0xC79 SWAP1 PUSH2 0x2A67 JUMP JUMPDEST SWAP2 SWAP1 POP SSTORE POP PUSH0 PUSH1 0x8 PUSH0 PUSH1 0x1 PUSH1 0xA SLOAD PUSH2 0xC91 SWAP2 SWAP1 PUSH2 0x2AAE JUMP JUMPDEST DUP2 MSTORE PUSH1 0x20 ADD SWAP1 DUP2 MSTORE PUSH1 0x20 ADD PUSH0 KECCAK256 SWAP1 POP DUP2 DUP2 PUSH0 ADD PUSH0 PUSH2 0x100 EXP DUP2 SLOAD DUP2 PUSH20 0xFFFFFFFFFFFFFFFFFFFFFFFFFFFFFFFFFFFFFFFF MUL NOT AND SWAP1 DUP4 PUSH20 0xFFFFFFFFFFFFFFFFFFFFFFFFFFFFFFFFFFFFFFFF AND MUL OR SWAP1 SSTORE POP PUSH1 0x1 DUP2 PUSH1 0x3 ADD PUSH0 PUSH2 0x100 EXP DUP2 SLOAD DUP2 PUSH1 0xFF MUL NOT AND SWAP1 DUP4 ISZERO ISZERO MUL OR SWAP1 SSTORE POP PUSH1 0x6 DUP1 SLOAD SWAP1 POP PUSH8 0xFFFFFFFFFFFFFFFF DUP2 GT ISZERO PUSH2 0xD1C JUMPI PUSH2 0xD1B PUSH2 0x21AF JUMP JUMPDEST JUMPDEST PUSH1 0x40 MLOAD SWAP1 DUP1 DUP3 MSTORE DUP1 PUSH1 0x20 MUL PUSH1 0x20 ADD DUP3 ADD PUSH1 0x40 MSTORE DUP1 ISZERO PUSH2 0xD4A JUMPI DUP2 PUSH1 0x20 ADD PUSH1 0x20 DUP3 MUL DUP1 CALLDATASIZE DUP4 CALLDATACOPY DUP1 DUP3 ADD SWAP2 POP POP SWAP1 POP JUMPDEST POP DUP2 PUSH1 0x2 ADD SWAP1 DUP1 MLOAD SWAP1 PUSH1 0x20 ADD SWAP1 PUSH2 0xD62 SWAP3 SWAP2 SWAP1 PUSH2 0x1CB3 JUMP JUMPDEST POP PUSH1 0xA SLOAD PUSH32 0x475E637CD3C90ECC459EDDF548F62CFCA3117407751685FCE1FF08330F83F3C7 DUP5 PUSH1 0x40 MLOAD PUSH2 0xD95 SWAP2 SWAP1 PUSH2 0x1D89 JUMP JUMPDEST PUSH1 0x40 MLOAD DUP1 SWAP2 SUB SWAP1 LOG2 POP POP POP JUMP JUMPDEST PUSH0 DUP1 PUSH2 0xDAC PUSH2 0x14E8 JUMP JUMPDEST SWAP1 POP PUSH2 0xDB9 DUP2 DUP6 DUP6 PUSH2 0x1593 JUMP JUMPDEST PUSH1 0x1 SWAP2 POP POP SWAP3 SWAP2 POP POP JUMP JUMPDEST PUSH1 0x1 PUSH2 0xDCF CALLER PUSH2 0x957 JUMP JUMPDEST LT ISZERO PUSH2 0xE10 JUMPI PUSH1 0x40 MLOAD PUSH32 0x8C379A000000000000000000000000000000000000000000000000000000000 DUP2 MSTORE PUSH1 0x4 ADD PUSH2 0xE07 SWAP1 PUSH2 0x2B51 JUMP JUMPDEST PUSH1 0x40 MLOAD DUP1 SWAP2 SUB SWAP1 REVERT JUMPDEST PUSH1 0x8 PUSH0 DUP3 DUP2 MSTORE PUSH1 0x20 ADD SWAP1 DUP2 MSTORE PUSH1 0x20 ADD PUSH0 KECCAK256 PUSH1 0x1 ADD PUSH0 CALLER PUSH20 0xFFFFFFFFFFFFFFFFFFFFFFFFFFFFFFFFFFFFFFFF AND PUSH20 0xFFFFFFFFFFFFFFFFFFFFFFFFFFFFFFFFFFFFFFFF AND DUP2 MSTORE PUSH1 0x20 ADD SWAP1 DUP2 MSTORE PUSH1 0x20 ADD PUSH0 KECCAK256 PUSH0 SWAP1 SLOAD SWAP1 PUSH2 0x100 EXP SWAP1 DIV PUSH1 0xFF AND ISZERO PUSH2 0xEAC JUMPI PUSH1 0x40 MLOAD PUSH32 0x8C379A000000000000000000000000000000000000000000000000000000000 DUP2 MSTORE PUSH1 0x4 ADD PUSH2 0xEA3 SWAP1 PUSH2 0x2BB9 JUMP JUMPDEST PUSH1 0x40 MLOAD DUP1 SWAP2 SUB SWAP1 REVERT JUMPDEST PUSH1 0x6 DUP1 SLOAD SWAP1 POP DUP3 LT PUSH2 0xEF3 JUMPI PUSH1 0x40 MLOAD PUSH32 0x8C379A000000000000000000000000000000000000000000000000000000000 DUP2 MSTORE PUSH1 0x4 ADD PUSH2 0xEEA SWAP1 PUSH2 0x2C21 JUMP JUMPDEST PUSH1 0x40 MLOAD DUP1 SWAP2 SUB SWAP1 REVERT JUMPDEST PUSH1 0x8 PUSH0 DUP3 DUP2 MSTORE PUSH1 0x20 ADD SWAP1 DUP2 MSTORE PUSH1 0x20 ADD PUSH0 KECCAK256 PUSH1 0x3 ADD PUSH0 SWAP1 SLOAD SWAP1 PUSH2 0x100 EXP SWAP1 DIV PUSH1 0xFF AND PUSH2 0xF53 JUMPI PUSH1 0x40 MLOAD PUSH32 0x8C379A000000000000000000000000000000000000000000000000000000000 DUP2 MSTORE PUSH1 0x4 ADD PUSH2 0xF4A SWAP1 PUSH2 0x2CAF JUMP JUMPDEST PUSH1 0x40 MLOAD DUP1 SWAP2 SUB SWAP1 REVERT JUMPDEST PUSH2 0xF5E CALLER PUSH1 0x1 PUSH2 0x184C JUMP JUMPDEST PUSH1 0x8 PUSH0 DUP3 DUP2 MSTORE PUSH1 0x20 ADD SWAP1 DUP2 MSTORE PUSH1 0x20 ADD PUSH0 KECCAK256 PUSH1 0x2 ADD DUP3 DUP2 SLOAD DUP2 LT PUSH2 0xF84 JUMPI PUSH2 0xF83 PUSH2 0x2CCD JUMP JUMPDEST JUMPDEST SWAP1 PUSH0 MSTORE PUSH1 0x20 PUSH0 KECCAK256 ADD PUSH0 DUP2 SLOAD DUP1 SWAP3 SWAP2 SWAP1 PUSH2 0xF9C SWAP1 PUSH2 0x2A67 JUMP JUMPDEST SWAP2 SWAP1 POP SSTORE POP PUSH1 0x1 PUSH1 0x8 PUSH0 DUP4 DUP2 MSTORE PUSH1 0x20 ADD SWAP1 DUP2 MSTORE PUSH1 0x20 ADD PUSH0 KECCAK256 PUSH1 0x1 ADD PUSH0 CALLER PUSH20 0xFFFFFFFFFFFFFFFFFFFFFFFFFFFFFFFFFFFFFFFF AND PUSH20 0xFFFFFFFFFFFFFFFFFFFFFFFFFFFFFFFFFFFFFFFF AND DUP2 MSTORE PUSH1 0x20 ADD SWAP1 DUP2 MSTORE PUSH1 0x20 ADD PUSH0 KECCAK256 PUSH0 PUSH2 0x100 EXP DUP2 SLOAD DUP2 PUSH1 0xFF MUL NOT AND SWAP1 DUP4 ISZERO ISZERO MUL OR SWAP1 SSTORE POP POP POP JUMP JUMPDEST PUSH0 PUSH1 0x1 PUSH0 DUP5 PUSH20 0xFFFFFFFFFFFFFFFFFFFFFFFFFFFFFFFFFFFFFFFF AND PUSH20 0xFFFFFFFFFFFFFFFFFFFFFFFFFFFFFFFFFFFFFFFF AND DUP2 MSTORE PUSH1 0x20 ADD SWAP1 DUP2 MSTORE PUSH1 0x20 ADD PUSH0 KECCAK256 PUSH0 DUP4 PUSH20 0xFFFFFFFFFFFFFFFFFFFFFFFFFFFFFFFFFFFFFFFF AND PUSH20 0xFFFFFFFFFFFFFFFFFFFFFFFFFFFFFFFFFFFFFFFF AND DUP2 MSTORE PUSH1 0x20 ADD SWAP1 DUP2 MSTORE PUSH1 0x20 ADD PUSH0 KECCAK256 SLOAD SWAP1 POP SWAP3 SWAP2 POP POP JUMP JUMPDEST PUSH1 0xA SLOAD DUP2 JUMP JUMPDEST PUSH0 PUSH2 0x109D PUSH2 0x1683 JUMP JUMPDEST PUSH0 JUMPDEST PUSH1 0x9 DUP1 SLOAD SWAP1 POP DUP2 LT ISZERO PUSH2 0x1162 JUMPI DUP3 PUSH20 0xFFFFFFFFFFFFFFFFFFFFFFFFFFFFFFFFFFFFFFFF AND PUSH1 0x9 DUP3 DUP2 SLOAD DUP2 LT PUSH2 0x10D7 JUMPI PUSH2 0x10D6 PUSH2 0x2CCD JUMP JUMPDEST JUMPDEST SWAP1 PUSH0 MSTORE PUSH1 0x20 PUSH0 KECCAK256 ADD PUSH0 SWAP1 SLOAD SWAP1 PUSH2 0x100 EXP SWAP1 DIV PUSH20 0xFFFFFFFFFFFFFFFFFFFFFFFFFFFFFFFFFFFFFFFF AND PUSH20 0xFFFFFFFFFFFFFFFFFFFFFFFFFFFFFFFFFFFFFFFF AND SUB PUSH2 0x1155 JUMPI PUSH1 0x40 MLOAD PUSH32 0x8C379A000000000000000000000000000000000000000000000000000000000 DUP2 MSTORE PUSH1 0x4 ADD PUSH2 0x114C SWAP1 PUSH2 0x2D6A JUMP JUMPDEST PUSH1 0x40 MLOAD DUP1 SWAP2 SUB SWAP1 REVERT JUMPDEST DUP1 DUP1 PUSH1 0x1 ADD SWAP2 POP POP PUSH2 0x109F JUMP JUMPDEST POP PUSH2 0x116F ADDRESS DUP4 PUSH1 0x1 PUSH2 0x1593 JUMP JUMPDEST PUSH1 0x9 DUP3 SWAP1 DUP1 PUSH1 0x1 DUP2 SLOAD ADD DUP1 DUP3 SSTORE DUP1 SWAP2 POP POP PUSH1 0x1 SWAP1 SUB SWAP1 PUSH0 MSTORE PUSH1 0x20 PUSH0 KECCAK256 ADD PUSH0 SWAP1 SWAP2 SWAP1 SWAP2 SWAP1 SWAP2 PUSH2 0x100 EXP DUP2 SLOAD DUP2 PUSH20 0xFFFFFFFFFFFFFFFFFFFFFFFFFFFFFFFFFFFFFFFF MUL NOT AND SWAP1 DUP4 PUSH20 0xFFFFFFFFFFFFFFFFFFFFFFFFFFFFFFFFFFFFFFFF AND MUL OR SWAP1 SSTORE POP PUSH1 0x1 SWAP1 POP SWAP2 SWAP1 POP JUMP JUMPDEST PUSH1 0x60 PUSH1 0x8 PUSH0 DUP4 DUP2 MSTORE PUSH1 0x20 ADD SWAP1 DUP2 MSTORE PUSH1 0x20 ADD PUSH0 KECCAK256 PUSH1 0x2 ADD DUP1 SLOAD DUP1 PUSH1 0x20 MUL PUSH1 0x20 ADD PUSH1 0x40 MLOAD SWAP1 DUP2 ADD PUSH1 0x40 MSTORE DUP1 SWAP3 SWAP2 SWAP1 DUP2 DUP2 MSTORE PUSH1 0x20 ADD DUP3 DUP1 SLOAD DUP1 ISZERO PUSH2 0x1236 JUMPI PUSH1 0x20 MUL DUP3 ADD SWAP2 SWAP1 PUSH0 MSTORE PUSH1 0x20 PUSH0 KECCAK256 SWAP1 JUMPDEST DUP2 SLOAD DUP2 MSTORE PUSH1 0x20 ADD SWAP1 PUSH1 0x1 ADD SWAP1 DUP1 DUP4 GT PUSH2 0x1222 JUMPI JUMPDEST POP POP POP POP POP SWAP1 POP SWAP2 SWAP1 POP JUMP JUMPDEST PUSH2 0x124A PUSH2 0x1683 JUMP JUMPDEST PUSH0 PUSH20 0xFFFFFFFFFFFFFFFFFFFFFFFFFFFFFFFFFFFFFFFF AND DUP2 PUSH20 0xFFFFFFFFFFFFFFFFFFFFFFFFFFFFFFFFFFFFFFFF AND SUB PUSH2 0x12BA JUMPI PUSH0 PUSH1 0x40 MLOAD PUSH32 0x1E4FBDF700000000000000000000000000000000000000000000000000000000 DUP2 MSTORE PUSH1 0x4 ADD PUSH2 0x12B1 SWAP2 SWAP1 PUSH2 0x23A6 JUMP JUMPDEST PUSH1 0x40 MLOAD DUP1 SWAP2 SUB SWAP1 REVERT JUMPDEST PUSH2 0x12C3 DUP2 PUSH2 0x170A JUMP JUMPDEST POP JUMP JUMPDEST PUSH1 0x60 DUP1 PUSH1 0x6 DUP1 SLOAD SWAP1 POP PUSH8 0xFFFFFFFFFFFFFFFF DUP2 GT ISZERO PUSH2 0x12E8 JUMPI PUSH2 0x12E7 PUSH2 0x21AF JUMP JUMPDEST JUMPDEST PUSH1 0x40 MLOAD SWAP1 DUP1 DUP3 MSTORE DUP1 PUSH1 0x20 MUL PUSH1 0x20 ADD DUP3 ADD PUSH1 0x40 MSTORE DUP1 ISZERO PUSH2 0x131B JUMPI DUP2 PUSH1 0x20 ADD JUMPDEST PUSH1 0x60 DUP2 MSTORE PUSH1 0x20 ADD SWAP1 PUSH1 0x1 SWAP1 SUB SWAP1 DUP2 PUSH2 0x1306 JUMPI SWAP1 POP JUMPDEST POP SWAP2 POP PUSH1 0x6 DUP1 SLOAD SWAP1 POP PUSH8 0xFFFFFFFFFFFFFFFF DUP2 GT ISZERO PUSH2 0x133D JUMPI PUSH2 0x133C PUSH2 0x21AF JUMP JUMPDEST JUMPDEST PUSH1 0x40 MLOAD SWAP1 DUP1 DUP3 MSTORE DUP1 PUSH1 0x20 MUL PUSH1 0x20 ADD DUP3 ADD PUSH1 0x40 MSTORE DUP1 ISZERO PUSH2 0x136B JUMPI DUP2 PUSH1 0x20 ADD PUSH1 0x20 DUP3 MUL DUP1 CALLDATASIZE DUP4 CALLDATACOPY DUP1 DUP3 ADD SWAP2 POP POP SWAP1 POP JUMPDEST POP SWAP1 POP PUSH0 JUMPDEST PUSH1 0x6 DUP1 SLOAD SWAP1 POP DUP2 LT ISZERO PUSH2 0x1451 JUMPI PUSH1 0x6 DUP2 DUP2 SLOAD DUP2 LT PUSH2 0x1391 JUMPI PUSH2 0x1390 PUSH2 0x2CCD JUMP JUMPDEST JUMPDEST SWAP1 PUSH0 MSTORE PUSH1 0x20 PUSH0 KECCAK256 SWAP1 PUSH1 0x2 MUL ADD PUSH0 ADD DUP1 SLOAD PUSH2 0x13AA SWAP1 PUSH2 0x26A8 JUMP JUMPDEST DUP1 PUSH1 0x1F ADD PUSH1 0x20 DUP1 SWAP2 DIV MUL PUSH1 0x20 ADD PUSH1 0x40 MLOAD SWAP1 DUP2 ADD PUSH1 0x40 MSTORE DUP1 SWAP3 SWAP2 SWAP1 DUP2 DUP2 MSTORE PUSH1 0x20 ADD DUP3 DUP1 SLOAD PUSH2 0x13D6 SWAP1 PUSH2 0x26A8 JUMP JUMPDEST DUP1 ISZERO PUSH2 0x1421 JUMPI DUP1 PUSH1 0x1F LT PUSH2 0x13F8 JUMPI PUSH2 0x100 DUP1 DUP4 SLOAD DIV MUL DUP4 MSTORE SWAP2 PUSH1 0x20 ADD SWAP2 PUSH2 0x1421 JUMP JUMPDEST DUP3 ADD SWAP2 SWAP1 PUSH0 MSTORE PUSH1 0x20 PUSH0 KECCAK256 SWAP1 JUMPDEST DUP2 SLOAD DUP2 MSTORE SWAP1 PUSH1 0x1 ADD SWAP1 PUSH1 0x20 ADD DUP1 DUP4 GT PUSH2 0x1404 JUMPI DUP3 SWAP1 SUB PUSH1 0x1F AND DUP3 ADD SWAP2 JUMPDEST POP POP POP POP POP DUP4 DUP3 DUP2 MLOAD DUP2 LT PUSH2 0x1439 JUMPI PUSH2 0x1438 PUSH2 0x2CCD JUMP JUMPDEST JUMPDEST PUSH1 0x20 MUL PUSH1 0x20 ADD ADD DUP2 SWAP1 MSTORE POP DUP1 DUP1 PUSH1 0x1 ADD SWAP2 POP POP PUSH2 0x1370 JUMP JUMPDEST POP PUSH0 PUSH1 0x1 SWAP1 POP JUMPDEST PUSH1 0xA SLOAD DUP2 GT PUSH2 0x14E3 JUMPI PUSH0 PUSH2 0x146B DUP3 PUSH2 0x11D8 JUMP JUMPDEST SWAP1 POP PUSH0 JUMPDEST DUP2 MLOAD DUP2 LT ISZERO PUSH2 0x14CE JUMPI DUP2 DUP2 DUP2 MLOAD DUP2 LT PUSH2 0x148B JUMPI PUSH2 0x148A PUSH2 0x2CCD JUMP JUMPDEST JUMPDEST PUSH1 0x20 MUL PUSH1 0x20 ADD ADD MLOAD DUP5 DUP3 DUP2 MLOAD DUP2 LT PUSH2 0x14A6 JUMPI PUSH2 0x14A5 PUSH2 0x2CCD JUMP JUMPDEST JUMPDEST PUSH1 0x20 MUL PUSH1 0x20 ADD ADD DUP2 DUP2 MLOAD PUSH2 0x14BA SWAP2 SWAP1 PUSH2 0x2D88 JUMP JUMPDEST SWAP2 POP DUP2 DUP2 MSTORE POP POP DUP1 DUP1 PUSH1 0x1 ADD SWAP2 POP POP PUSH2 0x146F JUMP JUMPDEST POP POP DUP1 DUP1 PUSH2 0x14DB SWAP1 PUSH2 0x2A67 JUMP JUMPDEST SWAP2 POP POP PUSH2 0x1458 JUMP JUMPDEST POP SWAP1 SWAP2 JUMP JUMPDEST PUSH0 CALLER SWAP1 POP SWAP1 JUMP JUMPDEST PUSH2 0x14FC DUP4 DUP4 DUP4 PUSH1 0x1 PUSH2 0x18CB JUMP JUMPDEST POP POP POP JUMP JUMPDEST PUSH0 PUSH2 0x150C DUP5 DUP5 PUSH2 0x100C JUMP JUMPDEST SWAP1 POP PUSH32 0xFFFFFFFFFFFFFFFFFFFFFFFFFFFFFFFFFFFFFFFFFFFFFFFFFFFFFFFFFFFFFFFF DUP2 EQ PUSH2 0x158D JUMPI DUP2 DUP2 LT ISZERO PUSH2 0x157E JUMPI DUP3 DUP2 DUP4 PUSH1 0x40 MLOAD PUSH32 0xFB8F41B200000000000000000000000000000000000000000000000000000000 DUP2 MSTORE PUSH1 0x4 ADD PUSH2 0x1575 SWAP4 SWAP3 SWAP2 SWAP1 PUSH2 0x2DBB JUMP JUMPDEST PUSH1 0x40 MLOAD DUP1 SWAP2 SUB SWAP1 REVERT JUMPDEST PUSH2 0x158C DUP5 DUP5 DUP5 DUP5 SUB PUSH0 PUSH2 0x18CB JUMP JUMPDEST JUMPDEST POP POP POP POP JUMP JUMPDEST PUSH0 PUSH20 0xFFFFFFFFFFFFFFFFFFFFFFFFFFFFFFFFFFFFFFFF AND DUP4 PUSH20 0xFFFFFFFFFFFFFFFFFFFFFFFFFFFFFFFFFFFFFFFF AND SUB PUSH2 0x1603 JUMPI PUSH0 PUSH1 0x40 MLOAD PUSH32 0x96C6FD1E00000000000000000000000000000000000000000000000000000000 DUP2 MSTORE PUSH1 0x4 ADD PUSH2 0x15FA SWAP2 SWAP1 PUSH2 0x23A6 JUMP JUMPDEST PUSH1 0x40 MLOAD DUP1 SWAP2 SUB SWAP1 REVERT JUMPDEST PUSH0 PUSH20 0xFFFFFFFFFFFFFFFFFFFFFFFFFFFFFFFFFFFFFFFF AND DUP3 PUSH20 0xFFFFFFFFFFFFFFFFFFFFFFFFFFFFFFFFFFFFFFFF AND SUB PUSH2 0x1673 JUMPI PUSH0 PUSH1 0x40 MLOAD PUSH32 0xEC442F0500000000000000000000000000000000000000000000000000000000 DUP2 MSTORE PUSH1 0x4 ADD PUSH2 0x166A SWAP2 SWAP1 PUSH2 0x23A6 JUMP JUMPDEST PUSH1 0x40 MLOAD DUP1 SWAP2 SUB SWAP1 REVERT JUMPDEST PUSH2 0x167E DUP4 DUP4 DUP4 PUSH2 0x1A9A JUMP JUMPDEST POP POP POP JUMP JUMPDEST PUSH2 0x168B PUSH2 0x14E8 JUMP JUMPDEST PUSH20 0xFFFFFFFFFFFFFFFFFFFFFFFFFFFFFFFFFFFFFFFF AND PUSH2 0x16A9 PUSH2 0xADD JUMP JUMPDEST PUSH20 0xFFFFFFFFFFFFFFFFFFFFFFFFFFFFFFFFFFFFFFFF AND EQ PUSH2 0x1708 JUMPI PUSH2 0x16CC PUSH2 0x14E8 JUMP JUMPDEST PUSH1 0x40 MLOAD PUSH32 0x118CDAA700000000000000000000000000000000000000000000000000000000 DUP2 MSTORE PUSH1 0x4 ADD PUSH2 0x16FF SWAP2 SWAP1 PUSH2 0x23A6 JUMP JUMPDEST PUSH1 0x40 MLOAD DUP1 SWAP2 SUB SWAP1 REVERT JUMPDEST JUMP JUMPDEST PUSH0 PUSH1 0x5 PUSH0 SWAP1 SLOAD SWAP1 PUSH2 0x100 EXP SWAP1 DIV PUSH20 0xFFFFFFFFFFFFFFFFFFFFFFFFFFFFFFFFFFFFFFFF AND SWAP1 POP DUP2 PUSH1 0x5 PUSH0 PUSH2 0x100 EXP DUP2 SLOAD DUP2 PUSH20 0xFFFFFFFFFFFFFFFFFFFFFFFFFFFFFFFFFFFFFFFF MUL NOT AND SWAP1 DUP4 PUSH20 0xFFFFFFFFFFFFFFFFFFFFFFFFFFFFFFFFFFFFFFFF AND MUL OR SWAP1 SSTORE POP DUP2 PUSH20 0xFFFFFFFFFFFFFFFFFFFFFFFFFFFFFFFFFFFFFFFF AND DUP2 PUSH20 0xFFFFFFFFFFFFFFFFFFFFFFFFFFFFFFFFFFFFFFFF AND PUSH32 0x8BE0079C531659141344CD1FD0A4F28419497F9722A3DAAFE3B4186F6B6457E0 PUSH1 0x40 MLOAD PUSH1 0x40 MLOAD DUP1 SWAP2 SUB SWAP1 LOG3 POP POP JUMP JUMPDEST PUSH0 PUSH20 0xFFFFFFFFFFFFFFFFFFFFFFFFFFFFFFFFFFFFFFFF AND DUP3 PUSH20 0xFFFFFFFFFFFFFFFFFFFFFFFFFFFFFFFFFFFFFFFF AND SUB PUSH2 0x183D JUMPI PUSH0 PUSH1 0x40 MLOAD PUSH32 0xEC442F0500000000000000000000000000000000000000000000000000000000 DUP2 MSTORE PUSH1 0x4 ADD PUSH2 0x1834 SWAP2 SWAP1 PUSH2 0x23A6 JUMP JUMPDEST PUSH1 0x40 MLOAD DUP1 SWAP2 SUB SWAP1 REVERT JUMPDEST PUSH2 0x1848 PUSH0 DUP4 DUP4 PUSH2 0x1A9A JUMP JUMPDEST POP POP JUMP JUMPDEST PUSH0 PUSH20 0xFFFFFFFFFFFFFFFFFFFFFFFFFFFFFFFFFFFFFFFF AND DUP3 PUSH20 0xFFFFFFFFFFFFFFFFFFFFFFFFFFFFFFFFFFFFFFFF AND SUB PUSH2 0x18BC JUMPI PUSH0 PUSH1 0x40 MLOAD PUSH32 0x96C6FD1E00000000000000000000000000000000000000000000000000000000 DUP2 MSTORE PUSH1 0x4 ADD PUSH2 0x18B3 SWAP2 SWAP1 PUSH2 0x23A6 JUMP JUMPDEST PUSH1 0x40 MLOAD DUP1 SWAP2 SUB SWAP1 REVERT JUMPDEST PUSH2 0x18C7 DUP3 PUSH0 DUP4 PUSH2 0x1A9A JUMP JUMPDEST POP POP JUMP JUMPDEST PUSH0 PUSH20 0xFFFFFFFFFFFFFFFFFFFFFFFFFFFFFFFFFFFFFFFF AND DUP5 PUSH20 0xFFFFFFFFFFFFFFFFFFFFFFFFFFFFFFFFFFFFFFFF AND SUB PUSH2 0x193B JUMPI PUSH0 PUSH1 0x40 MLOAD PUSH32 0xE602DF0500000000000000000000000000000000000000000000000000000000 DUP2 MSTORE PUSH1 0x4 ADD PUSH2 0x1932 SWAP2 SWAP1 PUSH2 0x23A6 JUMP JUMPDEST PUSH1 0x40 MLOAD DUP1 SWAP2 SUB SWAP1 REVERT JUMPDEST PUSH0 PUSH20 0xFFFFFFFFFFFFFFFFFFFFFFFFFFFFFFFFFFFFFFFF AND DUP4 PUSH20 0xFFFFFFFFFFFFFFFFFFFFFFFFFFFFFFFFFFFFFFFF AND SUB PUSH2 0x19AB JUMPI PUSH0 PUSH1 0x40 MLOAD PUSH32 0x94280D6200000000000000000000000000000000000000000000000000000000 DUP2 MSTORE PUSH1 0x4 ADD PUSH2 0x19A2 SWAP2 SWAP1 PUSH2 0x23A6 JUMP JUMPDEST PUSH1 0x40 MLOAD DUP1 SWAP2 SUB SWAP1 REVERT JUMPDEST DUP2 PUSH1 0x1 PUSH0 DUP7 PUSH20 0xFFFFFFFFFFFFFFFFFFFFFFFFFFFFFFFFFFFFFFFF AND PUSH20 0xFFFFFFFFFFFFFFFFFFFFFFFFFFFFFFFFFFFFFFFF AND DUP2 MSTORE PUSH1 0x20 ADD SWAP1 DUP2 MSTORE PUSH1 0x20 ADD PUSH0 KECCAK256 PUSH0 DUP6 PUSH20 0xFFFFFFFFFFFFFFFFFFFFFFFFFFFFFFFFFFFFFFFF AND PUSH20 0xFFFFFFFFFFFFFFFFFFFFFFFFFFFFFFFFFFFFFFFF AND DUP2 MSTORE PUSH1 0x20 ADD SWAP1 DUP2 MSTORE PUSH1 0x20 ADD PUSH0 KECCAK256 DUP2 SWAP1 SSTORE POP DUP1 ISZERO PUSH2 0x1A94 JUMPI DUP3 PUSH20 0xFFFFFFFFFFFFFFFFFFFFFFFFFFFFFFFFFFFFFFFF AND DUP5 PUSH20 0xFFFFFFFFFFFFFFFFFFFFFFFFFFFFFFFFFFFFFFFF AND PUSH32 0x8C5BE1E5EBEC7D5BD14F71427D1E84F3DD0314C0F7B2291E5B200AC8C7C3B925 DUP5 PUSH1 0x40 MLOAD PUSH2 0x1A8B SWAP2 SWAP1 PUSH2 0x1EC7 JUMP JUMPDEST PUSH1 0x40 MLOAD DUP1 SWAP2 SUB SWAP1 LOG3 JUMPDEST POP POP POP POP JUMP JUMPDEST PUSH0 PUSH20 0xFFFFFFFFFFFFFFFFFFFFFFFFFFFFFFFFFFFFFFFF AND DUP4 PUSH20 0xFFFFFFFFFFFFFFFFFFFFFFFFFFFFFFFFFFFFFFFF AND SUB PUSH2 0x1AEA JUMPI DUP1 PUSH1 0x2 PUSH0 DUP3 DUP3 SLOAD PUSH2 0x1ADE SWAP2 SWAP1 PUSH2 0x2D88 JUMP JUMPDEST SWAP3 POP POP DUP2 SWAP1 SSTORE POP PUSH2 0x1BB8 JUMP JUMPDEST PUSH0 DUP1 PUSH0 DUP6 PUSH20 0xFFFFFFFFFFFFFFFFFFFFFFFFFFFFFFFFFFFFFFFF AND PUSH20 0xFFFFFFFFFFFFFFFFFFFFFFFFFFFFFFFFFFFFFFFF AND DUP2 MSTORE PUSH1 0x20 ADD SWAP1 DUP2 MSTORE PUSH1 0x20 ADD PUSH0 KECCAK256 SLOAD SWAP1 POP DUP2 DUP2 LT ISZERO PUSH2 0x1B73 JUMPI DUP4 DUP2 DUP4 PUSH1 0x40 MLOAD PUSH32 0xE450D38C00000000000000000000000000000000000000000000000000000000 DUP2 MSTORE PUSH1 0x4 ADD PUSH2 0x1B6A SWAP4 SWAP3 SWAP2 SWAP1 PUSH2 0x2DBB JUMP JUMPDEST PUSH1 0x40 MLOAD DUP1 SWAP2 SUB SWAP1 REVERT JUMPDEST DUP2 DUP2 SUB PUSH0 DUP1 DUP7 PUSH20 0xFFFFFFFFFFFFFFFFFFFFFFFFFFFFFFFFFFFFFFFF AND PUSH20 0xFFFFFFFFFFFFFFFFFFFFFFFFFFFFFFFFFFFFFFFF AND DUP2 MSTORE PUSH1 0x20 ADD SWAP1 DUP2 MSTORE PUSH1 0x20 ADD PUSH0 KECCAK256 DUP2 SWAP1 SSTORE POP POP JUMPDEST PUSH0 PUSH20 0xFFFFFFFFFFFFFFFFFFFFFFFFFFFFFFFFFFFFFFFF AND DUP3 PUSH20 0xFFFFFFFFFFFFFFFFFFFFFFFFFFFFFFFFFFFFFFFF AND SUB PUSH2 0x1BFF JUMPI DUP1 PUSH1 0x2 PUSH0 DUP3 DUP3 SLOAD SUB SWAP3 POP POP DUP2 SWAP1 SSTORE POP PUSH2 0x1C49 JUMP JUMPDEST DUP1 PUSH0 DUP1 DUP5 PUSH20 0xFFFFFFFFFFFFFFFFFFFFFFFFFFFFFFFFFFFFFFFF AND PUSH20 0xFFFFFFFFFFFFFFFFFFFFFFFFFFFFFFFFFFFFFFFF AND DUP2 MSTORE PUSH1 0x20 ADD SWAP1 DUP2 MSTORE PUSH1 0x20 ADD PUSH0 KECCAK256 PUSH0 DUP3 DUP3 SLOAD ADD SWAP3 POP POP DUP2 SWAP1 SSTORE POP JUMPDEST DUP2 PUSH20 0xFFFFFFFFFFFFFFFFFFFFFFFFFFFFFFFFFFFFFFFF AND DUP4 PUSH20 0xFFFFFFFFFFFFFFFFFFFFFFFFFFFFFFFFFFFFFFFF AND PUSH32 0xDDF252AD1BE2C89B69C2B068FC378DAA952BA7F163C4A11628F55A4DF523B3EF DUP4 PUSH1 0x40 MLOAD PUSH2 0x1CA6 SWAP2 SWAP1 PUSH2 0x1EC7 JUMP JUMPDEST PUSH1 0x40 MLOAD DUP1 SWAP2 SUB SWAP1 LOG3 POP POP POP JUMP JUMPDEST DUP3 DUP1 SLOAD DUP3 DUP3 SSTORE SWAP1 PUSH0 MSTORE PUSH1 0x20 PUSH0 KECCAK256 SWAP1 DUP2 ADD SWAP3 DUP3 ISZERO PUSH2 0x1CED JUMPI SWAP2 PUSH1 0x20 MUL DUP3 ADD JUMPDEST DUP3 DUP2 GT ISZERO PUSH2 0x1CEC JUMPI DUP3 MLOAD DUP3 SSTORE SWAP2 PUSH1 0x20 ADD SWAP2 SWAP1 PUSH1 0x1 ADD SWAP1 PUSH2 0x1CD1 JUMP JUMPDEST JUMPDEST POP SWAP1 POP PUSH2 0x1CFA SWAP2 SWAP1 PUSH2 0x1CFE JUMP JUMPDEST POP SWAP1 JUMP JUMPDEST JUMPDEST DUP1 DUP3 GT ISZERO PUSH2 0x1D15 JUMPI PUSH0 DUP2 PUSH0 SWAP1 SSTORE POP PUSH1 0x1 ADD PUSH2 0x1CFF JUMP JUMPDEST POP SWAP1 JUMP JUMPDEST PUSH0 DUP2 MLOAD SWAP1 POP SWAP2 SWAP1 POP JUMP JUMPDEST PUSH0 DUP3 DUP3 MSTORE PUSH1 0x20 DUP3 ADD SWAP1 POP SWAP3 SWAP2 POP POP JUMP JUMPDEST DUP3 DUP2 DUP4 MCOPY PUSH0 DUP4 DUP4 ADD MSTORE POP POP POP JUMP JUMPDEST PUSH0 PUSH1 0x1F NOT PUSH1 0x1F DUP4 ADD AND SWAP1 POP SWAP2 SWAP1 POP JUMP JUMPDEST PUSH0 PUSH2 0x1D5B DUP3 PUSH2 0x1D19 JUMP JUMPDEST PUSH2 0x1D65 DUP2 DUP6 PUSH2 0x1D23 JUMP JUMPDEST SWAP4 POP PUSH2 0x1D75 DUP2 DUP6 PUSH1 0x20 DUP7 ADD PUSH2 0x1D33 JUMP JUMPDEST PUSH2 0x1D7E DUP2 PUSH2 0x1D41 JUMP JUMPDEST DUP5 ADD SWAP2 POP POP SWAP3 SWAP2 POP POP JUMP JUMPDEST PUSH0 PUSH1 0x20 DUP3 ADD SWAP1 POP DUP2 DUP2 SUB PUSH0 DUP4 ADD MSTORE PUSH2 0x1DA1 DUP2 DUP5 PUSH2 0x1D51 JUMP JUMPDEST SWAP1 POP SWAP3 SWAP2 POP POP JUMP JUMPDEST PUSH0 PUSH1 0x40 MLOAD SWAP1 POP SWAP1 JUMP JUMPDEST PUSH0 DUP1 REVERT JUMPDEST PUSH0 DUP1 REVERT JUMPDEST PUSH0 PUSH20 0xFFFFFFFFFFFFFFFFFFFFFFFFFFFFFFFFFFFFFFFF DUP3 AND SWAP1 POP SWAP2 SWAP1 POP JUMP JUMPDEST PUSH0 PUSH2 0x1DE3 DUP3 PUSH2 0x1DBA JUMP JUMPDEST SWAP1 POP SWAP2 SWAP1 POP JUMP JUMPDEST PUSH2 0x1DF3 DUP2 PUSH2 0x1DD9 JUMP JUMPDEST DUP2 EQ PUSH2 0x1DFD JUMPI PUSH0 DUP1 REVERT JUMPDEST POP JUMP JUMPDEST PUSH0 DUP2 CALLDATALOAD SWAP1 POP PUSH2 0x1E0E DUP2 PUSH2 0x1DEA JUMP JUMPDEST SWAP3 SWAP2 POP POP JUMP JUMPDEST PUSH0 DUP2 SWAP1 POP SWAP2 SWAP1 POP JUMP JUMPDEST PUSH2 0x1E26 DUP2 PUSH2 0x1E14 JUMP JUMPDEST DUP2 EQ PUSH2 0x1E30 JUMPI PUSH0 DUP1 REVERT JUMPDEST POP JUMP JUMPDEST PUSH0 DUP2 CALLDATALOAD SWAP1 POP PUSH2 0x1E41 DUP2 PUSH2 0x1E1D JUMP JUMPDEST SWAP3 SWAP2 POP POP JUMP JUMPDEST PUSH0 DUP1 PUSH1 0x40 DUP4 DUP6 SUB SLT ISZERO PUSH2 0x1E5D JUMPI PUSH2 0x1E5C PUSH2 0x1DB2 JUMP JUMPDEST JUMPDEST PUSH0 PUSH2 0x1E6A DUP6 DUP3 DUP7 ADD PUSH2 0x1E00 JUMP JUMPDEST SWAP3 POP POP PUSH1 0x20 PUSH2 0x1E7B DUP6 DUP3 DUP7 ADD PUSH2 0x1E33 JUMP JUMPDEST SWAP2 POP POP SWAP3 POP SWAP3 SWAP1 POP JUMP JUMPDEST PUSH0 DUP2 ISZERO ISZERO SWAP1 POP SWAP2 SWAP1 POP JUMP JUMPDEST PUSH2 0x1E99 DUP2 PUSH2 0x1E85 JUMP JUMPDEST DUP3 MSTORE POP POP JUMP JUMPDEST PUSH0 PUSH1 0x20 DUP3 ADD SWAP1 POP PUSH2 0x1EB2 PUSH0 DUP4 ADD DUP5 PUSH2 0x1E90 JUMP JUMPDEST SWAP3 SWAP2 POP POP JUMP JUMPDEST PUSH2 0x1EC1 DUP2 PUSH2 0x1E14 JUMP JUMPDEST DUP3 MSTORE POP POP JUMP JUMPDEST PUSH0 PUSH1 0x20 DUP3 ADD SWAP1 POP PUSH2 0x1EDA PUSH0 DUP4 ADD DUP5 PUSH2 0x1EB8 JUMP JUMPDEST SWAP3 SWAP2 POP POP JUMP JUMPDEST PUSH0 DUP2 MLOAD SWAP1 POP SWAP2 SWAP1 POP JUMP JUMPDEST PUSH0 DUP3 DUP3 MSTORE PUSH1 0x20 DUP3 ADD SWAP1 POP SWAP3 SWAP2 POP POP JUMP JUMPDEST PUSH0 DUP2 SWAP1 POP PUSH1 0x20 DUP3 ADD SWAP1 POP SWAP2 SWAP1 POP JUMP JUMPDEST PUSH0 DUP3 DUP3 MSTORE PUSH1 0x20 DUP3 ADD SWAP1 POP SWAP3 SWAP2 POP POP JUMP JUMPDEST PUSH0 PUSH2 0x1F23 DUP3 PUSH2 0x1D19 JUMP JUMPDEST PUSH2 0x1F2D DUP2 DUP6 PUSH2 0x1F09 JUMP JUMPDEST SWAP4 POP PUSH2 0x1F3D DUP2 DUP6 PUSH1 0x20 DUP7 ADD PUSH2 0x1D33 JUMP JUMPDEST PUSH2 0x1F46 DUP2 PUSH2 0x1D41 JUMP JUMPDEST DUP5 ADD SWAP2 POP POP SWAP3 SWAP2 POP POP JUMP JUMPDEST PUSH2 0x1F5A DUP2 PUSH2 0x1E14 JUMP JUMPDEST DUP3 MSTORE POP POP JUMP JUMPDEST PUSH0 PUSH1 0x40 DUP4 ADD PUSH0 DUP4 ADD MLOAD DUP5 DUP3 SUB PUSH0 DUP7 ADD MSTORE PUSH2 0x1F7A DUP3 DUP3 PUSH2 0x1F19 JUMP JUMPDEST SWAP2 POP POP PUSH1 0x20 DUP4 ADD MLOAD PUSH2 0x1F8F PUSH1 0x20 DUP7 ADD DUP3 PUSH2 0x1F51 JUMP JUMPDEST POP DUP1 SWAP2 POP POP SWAP3 SWAP2 POP POP JUMP JUMPDEST PUSH0 PUSH2 0x1FA5 DUP4 DUP4 PUSH2 0x1F60 JUMP JUMPDEST SWAP1 POP SWAP3 SWAP2 POP POP JUMP JUMPDEST PUSH0 PUSH1 0x20 DUP3 ADD SWAP1 POP SWAP2 SWAP1 POP JUMP JUMPDEST PUSH0 PUSH2 0x1FC3 DUP3 PUSH2 0x1EE0 JUMP JUMPDEST PUSH2 0x1FCD DUP2 DUP6 PUSH2 0x1EEA JUMP JUMPDEST SWAP4 POP DUP4 PUSH1 0x20 DUP3 MUL DUP6 ADD PUSH2 0x1FDF DUP6 PUSH2 0x1EFA JUMP JUMPDEST DUP1 PUSH0 JUMPDEST DUP6 DUP2 LT ISZERO PUSH2 0x201A JUMPI DUP5 DUP5 SUB DUP10 MSTORE DUP2 MLOAD PUSH2 0x1FFB DUP6 DUP3 PUSH2 0x1F9A JUMP JUMPDEST SWAP5 POP PUSH2 0x2006 DUP4 PUSH2 0x1FAD JUMP JUMPDEST SWAP3 POP PUSH1 0x20 DUP11 ADD SWAP10 POP POP PUSH1 0x1 DUP2 ADD SWAP1 POP PUSH2 0x1FE2 JUMP JUMPDEST POP DUP3 SWAP8 POP DUP8 SWAP6 POP POP POP POP POP POP SWAP3 SWAP2 POP POP JUMP JUMPDEST PUSH0 PUSH1 0x20 DUP3 ADD SWAP1 POP DUP2 DUP2 SUB PUSH0 DUP4 ADD MSTORE PUSH2 0x2044 DUP2 DUP5 PUSH2 0x1FB9 JUMP JUMPDEST SWAP1 POP SWAP3 SWAP2 POP POP JUMP JUMPDEST PUSH0 DUP1 PUSH0 PUSH1 0x60 DUP5 DUP7 SUB SLT ISZERO PUSH2 0x2063 JUMPI PUSH2 0x2062 PUSH2 0x1DB2 JUMP JUMPDEST JUMPDEST PUSH0 PUSH2 0x2070 DUP7 DUP3 DUP8 ADD PUSH2 0x1E00 JUMP JUMPDEST SWAP4 POP POP PUSH1 0x20 PUSH2 0x2081 DUP7 DUP3 DUP8 ADD PUSH2 0x1E00 JUMP JUMPDEST SWAP3 POP POP PUSH1 0x40 PUSH2 0x2092 DUP7 DUP3 DUP8 ADD PUSH2 0x1E33 JUMP JUMPDEST SWAP2 POP POP SWAP3 POP SWAP3 POP SWAP3 JUMP JUMPDEST PUSH0 PUSH1 0xFF DUP3 AND SWAP1 POP SWAP2 SWAP1 POP JUMP JUMPDEST PUSH2 0x20B1 DUP2 PUSH2 0x209C JUMP JUMPDEST DUP3 MSTORE POP POP JUMP JUMPDEST PUSH0 PUSH1 0x20 DUP3 ADD SWAP1 POP PUSH2 0x20CA PUSH0 DUP4 ADD DUP5 PUSH2 0x20A8 JUMP JUMPDEST SWAP3 SWAP2 POP POP JUMP JUMPDEST PUSH0 DUP2 MLOAD SWAP1 POP SWAP2 SWAP1 POP JUMP JUMPDEST PUSH0 DUP3 DUP3 MSTORE PUSH1 0x20 DUP3 ADD SWAP1 POP SWAP3 SWAP2 POP POP JUMP JUMPDEST PUSH0 DUP2 SWAP1 POP PUSH1 0x20 DUP3 ADD SWAP1 POP SWAP2 SWAP1 POP JUMP JUMPDEST PUSH2 0x2102 DUP2 PUSH2 0x1DD9 JUMP JUMPDEST DUP3 MSTORE POP POP JUMP JUMPDEST PUSH0 PUSH2 0x2113 DUP4 DUP4 PUSH2 0x20F9 JUMP JUMPDEST PUSH1 0x20 DUP4 ADD SWAP1 POP SWAP3 SWAP2 POP POP JUMP JUMPDEST PUSH0 PUSH1 0x20 DUP3 ADD SWAP1 POP SWAP2 SWAP1 POP JUMP JUMPDEST PUSH0 PUSH2 0x2135 DUP3 PUSH2 0x20D0 JUMP JUMPDEST PUSH2 0x213F DUP2 DUP6 PUSH2 0x20DA JUMP JUMPDEST SWAP4 POP PUSH2 0x214A DUP4 PUSH2 0x20EA JUMP JUMPDEST DUP1 PUSH0 JUMPDEST DUP4 DUP2 LT ISZERO PUSH2 0x217A JUMPI DUP2 MLOAD PUSH2 0x2161 DUP9 DUP3 PUSH2 0x2108 JUMP JUMPDEST SWAP8 POP PUSH2 0x216C DUP4 PUSH2 0x211F JUMP JUMPDEST SWAP3 POP POP PUSH1 0x1 DUP2 ADD SWAP1 POP PUSH2 0x214D JUMP JUMPDEST POP DUP6 SWAP4 POP POP POP POP SWAP3 SWAP2 POP POP JUMP JUMPDEST PUSH0 PUSH1 0x20 DUP3 ADD SWAP1 POP DUP2 DUP2 SUB PUSH0 DUP4 ADD MSTORE PUSH2 0x219F DUP2 DUP5 PUSH2 0x212B JUMP JUMPDEST SWAP1 POP SWAP3 SWAP2 POP POP JUMP JUMPDEST PUSH0 DUP1 REVERT JUMPDEST PUSH0 DUP1 REVERT JUMPDEST PUSH32 0x4E487B7100000000000000000000000000000000000000000000000000000000 PUSH0 MSTORE PUSH1 0x41 PUSH1 0x4 MSTORE PUSH1 0x24 PUSH0 REVERT JUMPDEST PUSH2 0x21E5 DUP3 PUSH2 0x1D41 JUMP JUMPDEST DUP2 ADD DUP2 DUP2 LT PUSH8 0xFFFFFFFFFFFFFFFF DUP3 GT OR ISZERO PUSH2 0x2204 JUMPI PUSH2 0x2203 PUSH2 0x21AF JUMP JUMPDEST JUMPDEST DUP1 PUSH1 0x40 MSTORE POP POP POP JUMP JUMPDEST PUSH0 PUSH2 0x2216 PUSH2 0x1DA9 JUMP JUMPDEST SWAP1 POP PUSH2 0x2222 DUP3 DUP3 PUSH2 0x21DC JUMP JUMPDEST SWAP2 SWAP1 POP JUMP JUMPDEST PUSH0 PUSH8 0xFFFFFFFFFFFFFFFF DUP3 GT ISZERO PUSH2 0x2241 JUMPI PUSH2 0x2240 PUSH2 0x21AF JUMP JUMPDEST JUMPDEST PUSH2 0x224A DUP3 PUSH2 0x1D41 JUMP JUMPDEST SWAP1 POP PUSH1 0x20 DUP2 ADD SWAP1 POP SWAP2 SWAP1 POP JUMP JUMPDEST DUP3 DUP2 DUP4 CALLDATACOPY PUSH0 DUP4 DUP4 ADD MSTORE POP POP POP JUMP JUMPDEST PUSH0 PUSH2 0x2277 PUSH2 0x2272 DUP5 PUSH2 0x2227 JUMP JUMPDEST PUSH2 0x220D JUMP JUMPDEST SWAP1 POP DUP3 DUP2 MSTORE PUSH1 0x20 DUP2 ADD DUP5 DUP5 DUP5 ADD GT ISZERO PUSH2 0x2293 JUMPI PUSH2 0x2292 PUSH2 0x21AB JUMP JUMPDEST JUMPDEST PUSH2 0x229E DUP5 DUP3 DUP6 PUSH2 0x2257 JUMP JUMPDEST POP SWAP4 SWAP3 POP POP POP JUMP JUMPDEST PUSH0 DUP3 PUSH1 0x1F DUP4 ADD SLT PUSH2 0x22BA JUMPI PUSH2 0x22B9 PUSH2 0x21A7 JUMP JUMPDEST JUMPDEST DUP2 CALLDATALOAD PUSH2 0x22CA DUP5 DUP3 PUSH1 0x20 DUP7 ADD PUSH2 0x2265 JUMP JUMPDEST SWAP2 POP POP SWAP3 SWAP2 POP POP JUMP JUMPDEST PUSH0 PUSH1 0x20 DUP3 DUP5 SUB SLT ISZERO PUSH2 0x22E8 JUMPI PUSH2 0x22E7 PUSH2 0x1DB2 JUMP JUMPDEST JUMPDEST PUSH0 DUP3 ADD CALLDATALOAD PUSH8 0xFFFFFFFFFFFFFFFF DUP2 GT ISZERO PUSH2 0x2305 JUMPI PUSH2 0x2304 PUSH2 0x1DB6 JUMP JUMPDEST JUMPDEST PUSH2 0x2311 DUP5 DUP3 DUP6 ADD PUSH2 0x22A6 JUMP JUMPDEST SWAP2 POP POP SWAP3 SWAP2 POP POP JUMP JUMPDEST PUSH0 PUSH1 0x20 DUP3 DUP5 SUB SLT ISZERO PUSH2 0x232F JUMPI PUSH2 0x232E PUSH2 0x1DB2 JUMP JUMPDEST JUMPDEST PUSH0 PUSH2 0x233C DUP5 DUP3 DUP6 ADD PUSH2 0x1E33 JUMP JUMPDEST SWAP2 POP POP SWAP3 SWAP2 POP POP JUMP JUMPDEST PUSH2 0x234E DUP2 PUSH2 0x1DD9 JUMP JUMPDEST DUP3 MSTORE POP POP JUMP JUMPDEST PUSH0 PUSH1 0x40 DUP3 ADD SWAP1 POP PUSH2 0x2367 PUSH0 DUP4 ADD DUP6 PUSH2 0x2345 JUMP JUMPDEST PUSH2 0x2374 PUSH1 0x20 DUP4 ADD DUP5 PUSH2 0x1E90 JUMP JUMPDEST SWAP4 SWAP3 POP POP POP JUMP JUMPDEST PUSH0 PUSH1 0x20 DUP3 DUP5 SUB SLT ISZERO PUSH2 0x2390 JUMPI PUSH2 0x238F PUSH2 0x1DB2 JUMP JUMPDEST JUMPDEST PUSH0 PUSH2 0x239D DUP5 DUP3 DUP6 ADD PUSH2 0x1E00 JUMP JUMPDEST SWAP2 POP POP SWAP3 SWAP2 POP POP JUMP JUMPDEST PUSH0 PUSH1 0x20 DUP3 ADD SWAP1 POP PUSH2 0x23B9 PUSH0 DUP4 ADD DUP5 PUSH2 0x2345 JUMP JUMPDEST SWAP3 SWAP2 POP POP JUMP JUMPDEST PUSH0 PUSH1 0x40 DUP3 ADD SWAP1 POP DUP2 DUP2 SUB PUSH0 DUP4 ADD MSTORE PUSH2 0x23D7 DUP2 DUP6 PUSH2 0x1D51 JUMP JUMPDEST SWAP1 POP PUSH2 0x23E6 PUSH1 0x20 DUP4 ADD DUP5 PUSH2 0x1EB8 JUMP JUMPDEST SWAP4 SWAP3 POP POP POP JUMP JUMPDEST PUSH0 DUP1 PUSH1 0x40 DUP4 DUP6 SUB SLT ISZERO PUSH2 0x2403 JUMPI PUSH2 0x2402 PUSH2 0x1DB2 JUMP JUMPDEST JUMPDEST PUSH0 DUP4 ADD CALLDATALOAD PUSH8 0xFFFFFFFFFFFFFFFF DUP2 GT ISZERO PUSH2 0x2420 JUMPI PUSH2 0x241F PUSH2 0x1DB6 JUMP JUMPDEST JUMPDEST PUSH2 0x242C DUP6 DUP3 DUP7 ADD PUSH2 0x22A6 JUMP JUMPDEST SWAP3 POP POP PUSH1 0x20 PUSH2 0x243D DUP6 DUP3 DUP7 ADD PUSH2 0x1E00 JUMP JUMPDEST SWAP2 POP POP SWAP3 POP SWAP3 SWAP1 POP JUMP JUMPDEST PUSH0 DUP1 PUSH1 0x40 DUP4 DUP6 SUB SLT ISZERO PUSH2 0x245D JUMPI PUSH2 0x245C PUSH2 0x1DB2 JUMP JUMPDEST JUMPDEST PUSH0 PUSH2 0x246A DUP6 DUP3 DUP7 ADD PUSH2 0x1E33 JUMP JUMPDEST SWAP3 POP POP PUSH1 0x20 PUSH2 0x247B DUP6 DUP3 DUP7 ADD PUSH2 0x1E33 JUMP JUMPDEST SWAP2 POP POP SWAP3 POP SWAP3 SWAP1 POP JUMP JUMPDEST PUSH0 DUP1 PUSH1 0x40 DUP4 DUP6 SUB SLT ISZERO PUSH2 0x249B JUMPI PUSH2 0x249A PUSH2 0x1DB2 JUMP JUMPDEST JUMPDEST PUSH0 PUSH2 0x24A8 DUP6 DUP3 DUP7 ADD PUSH2 0x1E00 JUMP JUMPDEST SWAP3 POP POP PUSH1 0x20 PUSH2 0x24B9 DUP6 DUP3 DUP7 ADD PUSH2 0x1E00 JUMP JUMPDEST SWAP2 POP POP SWAP3 POP SWAP3 SWAP1 POP JUMP JUMPDEST PUSH0 DUP2 MLOAD SWAP1 POP SWAP2 SWAP1 POP JUMP JUMPDEST PUSH0 DUP3 DUP3 MSTORE PUSH1 0x20 DUP3 ADD SWAP1 POP SWAP3 SWAP2 POP POP JUMP JUMPDEST PUSH0 DUP2 SWAP1 POP PUSH1 0x20 DUP3 ADD SWAP1 POP SWAP2 SWAP1 POP JUMP JUMPDEST PUSH0 PUSH2 0x24F7 DUP4 DUP4 PUSH2 0x1F51 JUMP JUMPDEST PUSH1 0x20 DUP4 ADD SWAP1 POP SWAP3 SWAP2 POP POP JUMP JUMPDEST PUSH0 PUSH1 0x20 DUP3 ADD SWAP1 POP SWAP2 SWAP1 POP JUMP JUMPDEST PUSH0 PUSH2 0x2519 DUP3 PUSH2 0x24C3 JUMP JUMPDEST PUSH2 0x2523 DUP2 DUP6 PUSH2 0x24CD JUMP JUMPDEST SWAP4 POP PUSH2 0x252E DUP4 PUSH2 0x24DD JUMP JUMPDEST DUP1 PUSH0 JUMPDEST DUP4 DUP2 LT ISZERO PUSH2 0x255E JUMPI DUP2 MLOAD PUSH2 0x2545 DUP9 DUP3 PUSH2 0x24EC JUMP JUMPDEST SWAP8 POP PUSH2 0x2550 DUP4 PUSH2 0x2503 JUMP JUMPDEST SWAP3 POP POP PUSH1 0x1 DUP2 ADD SWAP1 POP PUSH2 0x2531 JUMP JUMPDEST POP DUP6 SWAP4 POP POP POP POP SWAP3 SWAP2 POP POP JUMP JUMPDEST PUSH0 PUSH1 0x20 DUP3 ADD SWAP1 POP DUP2 DUP2 SUB PUSH0 DUP4 ADD MSTORE PUSH2 0x2583 DUP2 DUP5 PUSH2 0x250F JUMP JUMPDEST SWAP1 POP SWAP3 SWAP2 POP POP JUMP JUMPDEST PUSH0 DUP2 MLOAD SWAP1 POP SWAP2 SWAP1 POP JUMP JUMPDEST PUSH0 DUP3 DUP3 MSTORE PUSH1 0x20 DUP3 ADD SWAP1 POP SWAP3 SWAP2 POP POP JUMP JUMPDEST PUSH0 DUP2 SWAP1 POP PUSH1 0x20 DUP3 ADD SWAP1 POP SWAP2 SWAP1 POP JUMP JUMPDEST PUSH0 PUSH2 0x25BF DUP4 DUP4 PUSH2 0x1F19 JUMP JUMPDEST SWAP1 POP SWAP3 SWAP2 POP POP JUMP JUMPDEST PUSH0 PUSH1 0x20 DUP3 ADD SWAP1 POP SWAP2 SWAP1 POP JUMP JUMPDEST PUSH0 PUSH2 0x25DD DUP3 PUSH2 0x258B JUMP JUMPDEST PUSH2 0x25E7 DUP2 DUP6 PUSH2 0x2595 JUMP JUMPDEST SWAP4 POP DUP4 PUSH1 0x20 DUP3 MUL DUP6 ADD PUSH2 0x25F9 DUP6 PUSH2 0x25A5 JUMP JUMPDEST DUP1 PUSH0 JUMPDEST DUP6 DUP2 LT ISZERO PUSH2 0x2634 JUMPI DUP5 DUP5 SUB DUP10 MSTORE DUP2 MLOAD PUSH2 0x2615 DUP6 DUP3 PUSH2 0x25B4 JUMP JUMPDEST SWAP5 POP PUSH2 0x2620 DUP4 PUSH2 0x25C7 JUMP JUMPDEST SWAP3 POP PUSH1 0x20 DUP11 ADD SWAP10 POP POP PUSH1 0x1 DUP2 ADD SWAP1 POP PUSH2 0x25FC JUMP JUMPDEST POP DUP3 SWAP8 POP DUP8 SWAP6 POP POP POP POP POP POP SWAP3 SWAP2 POP POP JUMP JUMPDEST PUSH0 PUSH1 0x40 DUP3 ADD SWAP1 POP DUP2 DUP2 SUB PUSH0 DUP4 ADD MSTORE PUSH2 0x265E DUP2 DUP6 PUSH2 0x25D3 JUMP JUMPDEST SWAP1 POP DUP2 DUP2 SUB PUSH1 0x20 DUP4 ADD MSTORE PUSH2 0x2672 DUP2 DUP5 PUSH2 0x250F JUMP JUMPDEST SWAP1 POP SWAP4 SWAP3 POP POP POP JUMP JUMPDEST PUSH32 0x4E487B7100000000000000000000000000000000000000000000000000000000 PUSH0 MSTORE PUSH1 0x22 PUSH1 0x4 MSTORE PUSH1 0x24 PUSH0 REVERT JUMPDEST PUSH0 PUSH1 0x2 DUP3 DIV SWAP1 POP PUSH1 0x1 DUP3 AND DUP1 PUSH2 0x26BF JUMPI PUSH1 0x7F DUP3 AND SWAP2 POP JUMPDEST PUSH1 0x20 DUP3 LT DUP2 SUB PUSH2 0x26D2 JUMPI PUSH2 0x26D1 PUSH2 0x267B JUMP JUMPDEST JUMPDEST POP SWAP2 SWAP1 POP JUMP JUMPDEST PUSH0 DUP2 SWAP1 POP DUP2 PUSH0 MSTORE PUSH1 0x20 PUSH0 KECCAK256 SWAP1 POP SWAP2 SWAP1 POP JUMP JUMPDEST PUSH0 PUSH1 0x20 PUSH1 0x1F DUP4 ADD DIV SWAP1 POP SWAP2 SWAP1 POP JUMP JUMPDEST PUSH0 DUP3 DUP3 SHL SWAP1 POP SWAP3 SWAP2 POP POP JUMP JUMPDEST PUSH0 PUSH1 0x8 DUP4 MUL PUSH2 0x2734 PUSH32 0xFFFFFFFFFFFFFFFFFFFFFFFFFFFFFFFFFFFFFFFFFFFFFFFFFFFFFFFFFFFFFFFF DUP3 PUSH2 0x26F9 JUMP JUMPDEST PUSH2 0x273E DUP7 DUP4 PUSH2 0x26F9 JUMP JUMPDEST SWAP6 POP DUP1 NOT DUP5 AND SWAP4 POP DUP1 DUP7 AND DUP5 OR SWAP3 POP POP POP SWAP4 SWAP3 POP POP POP JUMP JUMPDEST PUSH0 DUP2 SWAP1 POP SWAP2 SWAP1 POP JUMP JUMPDEST PUSH0 PUSH2 0x2779 PUSH2 0x2774 PUSH2 0x276F DUP5 PUSH2 0x1E14 JUMP JUMPDEST PUSH2 0x2756 JUMP JUMPDEST PUSH2 0x1E14 JUMP JUMPDEST SWAP1 POP SWAP2 SWAP1 POP JUMP JUMPDEST PUSH0 DUP2 SWAP1 POP SWAP2 SWAP1 POP JUMP JUMPDEST PUSH2 0x2792 DUP4 PUSH2 0x275F JUMP JUMPDEST PUSH2 0x27A6 PUSH2 0x279E DUP3 PUSH2 0x2780 JUMP JUMPDEST DUP5 DUP5 SLOAD PUSH2 0x2705 JUMP JUMPDEST DUP3 SSTORE POP POP POP POP JUMP JUMPDEST PUSH0 SWAP1 JUMP JUMPDEST PUSH2 0x27BA PUSH2 0x27AE JUMP JUMPDEST PUSH2 0x27C5 DUP2 DUP5 DUP5 PUSH2 0x2789 JUMP JUMPDEST POP POP POP JUMP JUMPDEST JUMPDEST DUP2 DUP2 LT ISZERO PUSH2 0x27E8 JUMPI PUSH2 0x27DD PUSH0 DUP3 PUSH2 0x27B2 JUMP JUMPDEST PUSH1 0x1 DUP2 ADD SWAP1 POP PUSH2 0x27CB JUMP JUMPDEST POP POP JUMP JUMPDEST PUSH1 0x1F DUP3 GT ISZERO PUSH2 0x282D JUMPI PUSH2 0x27FE DUP2 PUSH2 0x26D8 JUMP JUMPDEST PUSH2 0x2807 DUP5 PUSH2 0x26EA JUMP JUMPDEST DUP2 ADD PUSH1 0x20 DUP6 LT ISZERO PUSH2 0x2816 JUMPI DUP2 SWAP1 POP JUMPDEST PUSH2 0x282A PUSH2 0x2822 DUP6 PUSH2 0x26EA JUMP JUMPDEST DUP4 ADD DUP3 PUSH2 0x27CA JUMP JUMPDEST POP POP JUMPDEST POP POP POP JUMP JUMPDEST PUSH0 DUP3 DUP3 SHR SWAP1 POP SWAP3 SWAP2 POP POP JUMP JUMPDEST PUSH0 PUSH2 0x284D PUSH0 NOT DUP5 PUSH1 0x8 MUL PUSH2 0x2832 JUMP JUMPDEST NOT DUP1 DUP4 AND SWAP2 POP POP SWAP3 SWAP2 POP POP JUMP JUMPDEST PUSH0 PUSH2 0x2865 DUP4 DUP4 PUSH2 0x283E JUMP JUMPDEST SWAP2 POP DUP3 PUSH1 0x2 MUL DUP3 OR SWAP1 POP SWAP3 SWAP2 POP POP JUMP JUMPDEST PUSH2 0x287E DUP3 PUSH2 0x1D19 JUMP JUMPDEST PUSH8 0xFFFFFFFFFFFFFFFF DUP2 GT ISZERO PUSH2 0x2897 JUMPI PUSH2 0x2896 PUSH2 0x21AF JUMP JUMPDEST JUMPDEST PUSH2 0x28A1 DUP3 SLOAD PUSH2 0x26A8 JUMP JUMPDEST PUSH2 0x28AC DUP3 DUP3 DUP6 PUSH2 0x27EC JUMP JUMPDEST PUSH0 PUSH1 0x20 SWAP1 POP PUSH1 0x1F DUP4 GT PUSH1 0x1 DUP2 EQ PUSH2 0x28DD JUMPI PUSH0 DUP5 ISZERO PUSH2 0x28CB JUMPI DUP3 DUP8 ADD MLOAD SWAP1 POP JUMPDEST PUSH2 0x28D5 DUP6 DUP3 PUSH2 0x285A JUMP JUMPDEST DUP7 SSTORE POP PUSH2 0x293C JUMP JUMPDEST PUSH1 0x1F NOT DUP5 AND PUSH2 0x28EB DUP7 PUSH2 0x26D8 JUMP JUMPDEST PUSH0 JUMPDEST DUP3 DUP2 LT ISZERO PUSH2 0x2912 JUMPI DUP5 DUP10 ADD MLOAD DUP3 SSTORE PUSH1 0x1 DUP3 ADD SWAP2 POP PUSH1 0x20 DUP6 ADD SWAP5 POP PUSH1 0x20 DUP2 ADD SWAP1 POP PUSH2 0x28ED JUMP JUMPDEST DUP7 DUP4 LT ISZERO PUSH2 0x292F JUMPI DUP5 DUP10 ADD MLOAD PUSH2 0x292B PUSH1 0x1F DUP10 AND DUP3 PUSH2 0x283E JUMP JUMPDEST DUP4 SSTORE POP JUMPDEST PUSH1 0x1 PUSH1 0x2 DUP9 MUL ADD DUP9 SSTORE POP POP POP JUMPDEST POP POP POP POP POP POP JUMP JUMPDEST PUSH32 0x4E6F206572657320656C2070726F706965746172696F2064652065737461206D PUSH0 DUP3 ADD MSTORE PUSH32 0x6573610000000000000000000000000000000000000000000000000000000000 PUSH1 0x20 DUP3 ADD MSTORE POP JUMP JUMPDEST PUSH0 PUSH2 0x299E PUSH1 0x23 DUP4 PUSH2 0x1D23 JUMP JUMPDEST SWAP2 POP PUSH2 0x29A9 DUP3 PUSH2 0x2944 JUMP JUMPDEST PUSH1 0x40 DUP3 ADD SWAP1 POP SWAP2 SWAP1 POP JUMP JUMPDEST PUSH0 PUSH1 0x20 DUP3 ADD SWAP1 POP DUP2 DUP2 SUB PUSH0 DUP4 ADD MSTORE PUSH2 0x29CB DUP2 PUSH2 0x2992 JUMP JUMPDEST SWAP1 POP SWAP2 SWAP1 POP JUMP JUMPDEST PUSH32 0x45737461206D6573612079612065737461206365727261646100000000000000 PUSH0 DUP3 ADD MSTORE POP JUMP JUMPDEST PUSH0 PUSH2 0x2A06 PUSH1 0x19 DUP4 PUSH2 0x1D23 JUMP JUMPDEST SWAP2 POP PUSH2 0x2A11 DUP3 PUSH2 0x29D2 JUMP JUMPDEST PUSH1 0x20 DUP3 ADD SWAP1 POP SWAP2 SWAP1 POP JUMP JUMPDEST PUSH0 PUSH1 0x20 DUP3 ADD SWAP1 POP DUP2 DUP2 SUB PUSH0 DUP4 ADD MSTORE PUSH2 0x2A33 DUP2 PUSH2 0x29FA JUMP JUMPDEST SWAP1 POP SWAP2 SWAP1 POP JUMP JUMPDEST PUSH32 0x4E487B7100000000000000000000000000000000000000000000000000000000 PUSH0 MSTORE PUSH1 0x11 PUSH1 0x4 MSTORE PUSH1 0x24 PUSH0 REVERT JUMPDEST PUSH0 PUSH2 0x2A71 DUP3 PUSH2 0x1E14 JUMP JUMPDEST SWAP2 POP PUSH32 0xFFFFFFFFFFFFFFFFFFFFFFFFFFFFFFFFFFFFFFFFFFFFFFFFFFFFFFFFFFFFFFFF DUP3 SUB PUSH2 0x2AA3 JUMPI PUSH2 0x2AA2 PUSH2 0x2A3A JUMP JUMPDEST JUMPDEST PUSH1 0x1 DUP3 ADD SWAP1 POP SWAP2 SWAP1 POP JUMP JUMPDEST PUSH0 PUSH2 0x2AB8 DUP3 PUSH2 0x1E14 JUMP JUMPDEST SWAP2 POP PUSH2 0x2AC3 DUP4 PUSH2 0x1E14 JUMP JUMPDEST SWAP3 POP DUP3 DUP3 SUB SWAP1 POP DUP2 DUP2 GT ISZERO PUSH2 0x2ADB JUMPI PUSH2 0x2ADA PUSH2 0x2A3A JUMP JUMPDEST JUMPDEST SWAP3 SWAP2 POP POP JUMP JUMPDEST PUSH32 0x4E6F207469656E657320737566696369656E74657320746F6B656E7320706172 PUSH0 DUP3 ADD MSTORE PUSH32 0x6120766F74617200000000000000000000000000000000000000000000000000 PUSH1 0x20 DUP3 ADD MSTORE POP JUMP JUMPDEST PUSH0 PUSH2 0x2B3B PUSH1 0x27 DUP4 PUSH2 0x1D23 JUMP JUMPDEST SWAP2 POP PUSH2 0x2B46 DUP3 PUSH2 0x2AE1 JUMP JUMPDEST PUSH1 0x40 DUP3 ADD SWAP1 POP SWAP2 SWAP1 POP JUMP JUMPDEST PUSH0 PUSH1 0x20 DUP3 ADD SWAP1 POP DUP2 DUP2 SUB PUSH0 DUP4 ADD MSTORE PUSH2 0x2B68 DUP2 PUSH2 0x2B2F JUMP JUMPDEST SWAP1 POP SWAP2 SWAP1 POP JUMP JUMPDEST PUSH32 0x59612068617320766F7461646F20656E2065737461206D657361000000000000 PUSH0 DUP3 ADD MSTORE POP JUMP JUMPDEST PUSH0 PUSH2 0x2BA3 PUSH1 0x1A DUP4 PUSH2 0x1D23 JUMP JUMPDEST SWAP2 POP PUSH2 0x2BAE DUP3 PUSH2 0x2B6F JUMP JUMPDEST PUSH1 0x20 DUP3 ADD SWAP1 POP SWAP2 SWAP1 POP JUMP JUMPDEST PUSH0 PUSH1 0x20 DUP3 ADD SWAP1 POP DUP2 DUP2 SUB PUSH0 DUP4 ADD MSTORE PUSH2 0x2BD0 DUP2 PUSH2 0x2B97 JUMP JUMPDEST SWAP1 POP SWAP2 SWAP1 POP JUMP JUMPDEST PUSH32 0x43616E64696461746F206E6F20656E636F6E747261646F000000000000000000 PUSH0 DUP3 ADD MSTORE POP JUMP JUMPDEST PUSH0 PUSH2 0x2C0B PUSH1 0x17 DUP4 PUSH2 0x1D23 JUMP JUMPDEST SWAP2 POP PUSH2 0x2C16 DUP3 PUSH2 0x2BD7 JUMP JUMPDEST PUSH1 0x20 DUP3 ADD SWAP1 POP SWAP2 SWAP1 POP JUMP JUMPDEST PUSH0 PUSH1 0x20 DUP3 ADD SWAP1 POP DUP2 DUP2 SUB PUSH0 DUP4 ADD MSTORE PUSH2 0x2C38 DUP2 PUSH2 0x2BFF JUMP JUMPDEST SWAP1 POP SWAP2 SWAP1 POP JUMP JUMPDEST PUSH32 0x45737461206D657361206E6F2065737461206162696572746120706172612076 PUSH0 DUP3 ADD MSTORE PUSH32 0x6F746163696F6E00000000000000000000000000000000000000000000000000 PUSH1 0x20 DUP3 ADD MSTORE POP JUMP JUMPDEST PUSH0 PUSH2 0x2C99 PUSH1 0x27 DUP4 PUSH2 0x1D23 JUMP JUMPDEST SWAP2 POP PUSH2 0x2CA4 DUP3 PUSH2 0x2C3F JUMP JUMPDEST PUSH1 0x40 DUP3 ADD SWAP1 POP SWAP2 SWAP1 POP JUMP JUMPDEST PUSH0 PUSH1 0x20 DUP3 ADD SWAP1 POP DUP2 DUP2 SUB PUSH0 DUP4 ADD MSTORE PUSH2 0x2CC6 DUP2 PUSH2 0x2C8D JUMP JUMPDEST SWAP1 POP SWAP2 SWAP1 POP JUMP JUMPDEST PUSH32 0x4E487B7100000000000000000000000000000000000000000000000000000000 PUSH0 MSTORE PUSH1 0x32 PUSH1 0x4 MSTORE PUSH1 0x24 PUSH0 REVERT JUMPDEST PUSH32 0x4573746120646972656363696F6E207961207265636962696F20737520746F6B PUSH0 DUP3 ADD MSTORE PUSH32 0x656E2079206E6F20736520707565646520646172206D61730000000000000000 PUSH1 0x20 DUP3 ADD MSTORE POP JUMP JUMPDEST PUSH0 PUSH2 0x2D54 PUSH1 0x38 DUP4 PUSH2 0x1D23 JUMP JUMPDEST SWAP2 POP PUSH2 0x2D5F DUP3 PUSH2 0x2CFA JUMP JUMPDEST PUSH1 0x40 DUP3 ADD SWAP1 POP SWAP2 SWAP1 POP JUMP JUMPDEST PUSH0 PUSH1 0x20 DUP3 ADD SWAP1 POP DUP2 DUP2 SUB PUSH0 DUP4 ADD MSTORE PUSH2 0x2D81 DUP2 PUSH2 0x2D48 JUMP JUMPDEST SWAP1 POP SWAP2 SWAP1 POP JUMP JUMPDEST PUSH0 PUSH2 0x2D92 DUP3 PUSH2 0x1E14 JUMP JUMPDEST SWAP2 POP PUSH2 0x2D9D DUP4 PUSH2 0x1E14 JUMP JUMPDEST SWAP3 POP DUP3 DUP3 ADD SWAP1 POP DUP1 DUP3 GT ISZERO PUSH2 0x2DB5 JUMPI PUSH2 0x2DB4 PUSH2 0x2A3A JUMP JUMPDEST JUMPDEST SWAP3 SWAP2 POP POP JUMP JUMPDEST PUSH0 PUSH1 0x60 DUP3 ADD SWAP1 POP PUSH2 0x2DCE PUSH0 DUP4 ADD DUP7 PUSH2 0x2345 JUMP JUMPDEST PUSH2 0x2DDB PUSH1 0x20 DUP4 ADD DUP6 PUSH2 0x1EB8 JUMP JUMPDEST PUSH2 0x2DE8 PUSH1 0x40 DUP4 ADD DUP5 PUSH2 0x1EB8 JUMP JUMPDEST SWAP5 SWAP4 POP POP POP POP JUMP INVALID LOG2 PUSH5 0x6970667358 0x22 SLT KECCAK256 0xB6 MSTORE8 0xD5 DIV 0xAC PUSH30 0xBA7109BD6AF9BC41D6A92CECD2E7D77895D4E7F7729A5B03E8C164736F6C PUSH4 0x43000819 STOP CALLER "
				},
				"gasEstimates": {
					"creation": {
						"codeDepositCost": "2362800",
						"executionCost": "infinite",
						"totalCost": "infinite"
					},
					"external": {
						"agregarCandidato(string)": "infinite",
						"agregarMesa(string,address)": "infinite",
						"allowance(address,address)": "infinite",
						"approve(address,uint256)": "infinite",
						"balanceOf(address)": "2918",
						"candidatos(uint256)": "infinite",
						"cerrarMesa(uint256)": "29365",
						"contarRecuentoTotal()": "infinite",
						"decimals()": "472",
						"getAllCandidatos()": "infinite",
						"getTokenRecipients()": "infinite",
						"mesas(uint256)": "5169",
						"mint(uint256)": "infinite",
						"name()": "infinite",
						"numMesas()": "2514",
						"obtenerRecuentoVotos(uint256)": "infinite",
						"owner()": "2538",
						"renounceOwnership()": "infinite",
						"symbol()": "infinite",
						"totalSupply()": "2500",
						"transfer(address,uint256)": "infinite",
						"transferFrom(address,address,uint256)": "infinite",
						"transferOwnership(address)": "infinite",
						"transferToken(address)": "infinite",
						"vote(uint256,uint256)": "infinite"
					}
				},
				"methodIdentifiers": {
					"agregarCandidato(string)": "503c560f",
					"agregarMesa(string,address)": "a0bdafda",
					"allowance(address,address)": "dd62ed3e",
					"approve(address,uint256)": "095ea7b3",
					"balanceOf(address)": "70a08231",
					"candidatos(uint256)": "8f023f85",
					"cerrarMesa(uint256)": "8a9ac1d2",
					"contarRecuentoTotal()": "fac07d2a",
					"decimals()": "313ce567",
					"getAllCandidatos()": "198cc691",
					"getTokenRecipients()": "32bf68d4",
					"mesas(uint256)": "5b94ea10",
					"mint(uint256)": "a0712d68",
					"name()": "06fdde03",
					"numMesas()": "dd670ed7",
					"obtenerRecuentoVotos(uint256)": "ebc34d24",
					"owner()": "8da5cb5b",
					"renounceOwnership()": "715018a6",
					"symbol()": "95d89b41",
					"totalSupply()": "18160ddd",
					"transfer(address,uint256)": "a9059cbb",
					"transferFrom(address,address,uint256)": "23b872dd",
					"transferOwnership(address)": "f2fde38b",
					"transferToken(address)": "deebeac9",
					"vote(uint256,uint256)": "b384abef"
				}
			},
			"storageLayout": {
				"storage": [
					{
						"astId": 307,
						"contract": "contracts/Mesa_Votantes.sol:Mesa_Votantes",
						"label": "_balances",
						"offset": 0,
						"slot": "0",
						"type": "t_mapping(t_address,t_uint256)"
					},
					{
						"astId": 313,
						"contract": "contracts/Mesa_Votantes.sol:Mesa_Votantes",
						"label": "_allowances",
						"offset": 0,
						"slot": "1",
						"type": "t_mapping(t_address,t_mapping(t_address,t_uint256))"
					},
					{
						"astId": 315,
						"contract": "contracts/Mesa_Votantes.sol:Mesa_Votantes",
						"label": "_totalSupply",
						"offset": 0,
						"slot": "2",
						"type": "t_uint256"
					},
					{
						"astId": 317,
						"contract": "contracts/Mesa_Votantes.sol:Mesa_Votantes",
						"label": "_name",
						"offset": 0,
						"slot": "3",
						"type": "t_string_storage"
					},
					{
						"astId": 319,
						"contract": "contracts/Mesa_Votantes.sol:Mesa_Votantes",
						"label": "_symbol",
						"offset": 0,
						"slot": "4",
						"type": "t_string_storage"
					},
					{
						"astId": 8,
						"contract": "contracts/Mesa_Votantes.sol:Mesa_Votantes",
						"label": "_owner",
						"offset": 0,
						"slot": "5",
						"type": "t_address"
					},
					{
						"astId": 947,
						"contract": "contracts/Mesa_Votantes.sol:Mesa_Votantes",
						"label": "candidatos",
						"offset": 0,
						"slot": "6",
						"type": "t_array(t_struct(Candidato)943_storage)dyn_storage"
					},
					{
						"astId": 955,
						"contract": "contracts/Mesa_Votantes.sol:Mesa_Votantes",
						"label": "hasVoted",
						"offset": 0,
						"slot": "7",
						"type": "t_mapping(t_address,t_bool)"
					},
					{
						"astId": 1020,
						"contract": "contracts/Mesa_Votantes.sol:Mesa_Votantes",
						"label": "mesas",
						"offset": 0,
						"slot": "8",
						"type": "t_mapping(t_uint256,t_struct(Mesa)1015_storage)"
					},
					{
						"astId": 1023,
						"contract": "contracts/Mesa_Votantes.sol:Mesa_Votantes",
						"label": "tokenRecipients",
						"offset": 0,
						"slot": "9",
						"type": "t_array(t_address)dyn_storage"
					},
					{
						"astId": 1025,
						"contract": "contracts/Mesa_Votantes.sol:Mesa_Votantes",
						"label": "numMesas",
						"offset": 0,
						"slot": "10",
						"type": "t_uint256"
					}
				],
				"types": {
					"t_address": {
						"encoding": "inplace",
						"label": "address",
						"numberOfBytes": "20"
					},
					"t_array(t_address)dyn_storage": {
						"base": "t_address",
						"encoding": "dynamic_array",
						"label": "address[]",
						"numberOfBytes": "32"
					},
					"t_array(t_struct(Candidato)943_storage)dyn_storage": {
						"base": "t_struct(Candidato)943_storage",
						"encoding": "dynamic_array",
						"label": "struct Candidatos.Candidato[]",
						"numberOfBytes": "32"
					},
					"t_array(t_uint256)dyn_storage": {
						"base": "t_uint256",
						"encoding": "dynamic_array",
						"label": "uint256[]",
						"numberOfBytes": "32"
					},
					"t_bool": {
						"encoding": "inplace",
						"label": "bool",
						"numberOfBytes": "1"
					},
					"t_mapping(t_address,t_bool)": {
						"encoding": "mapping",
						"key": "t_address",
						"label": "mapping(address => bool)",
						"numberOfBytes": "32",
						"value": "t_bool"
					},
					"t_mapping(t_address,t_mapping(t_address,t_uint256))": {
						"encoding": "mapping",
						"key": "t_address",
						"label": "mapping(address => mapping(address => uint256))",
						"numberOfBytes": "32",
						"value": "t_mapping(t_address,t_uint256)"
					},
					"t_mapping(t_address,t_uint256)": {
						"encoding": "mapping",
						"key": "t_address",
						"label": "mapping(address => uint256)",
						"numberOfBytes": "32",
						"value": "t_uint256"
					},
					"t_mapping(t_uint256,t_struct(Mesa)1015_storage)": {
						"encoding": "mapping",
						"key": "t_uint256",
						"label": "mapping(uint256 => struct Mesa_Votantes.Mesa)",
						"numberOfBytes": "32",
						"value": "t_struct(Mesa)1015_storage"
					},
					"t_string_storage": {
						"encoding": "bytes",
						"label": "string",
						"numberOfBytes": "32"
					},
					"t_struct(Candidato)943_storage": {
						"encoding": "inplace",
						"label": "struct Candidatos.Candidato",
						"members": [
							{
								"astId": 940,
								"contract": "contracts/Mesa_Votantes.sol:Mesa_Votantes",
								"label": "name",
								"offset": 0,
								"slot": "0",
								"type": "t_string_storage"
							},
							{
								"astId": 942,
								"contract": "contracts/Mesa_Votantes.sol:Mesa_Votantes",
								"label": "votos",
								"offset": 0,
								"slot": "1",
								"type": "t_uint256"
							}
						],
						"numberOfBytes": "64"
					},
					"t_struct(Mesa)1015_storage": {
						"encoding": "inplace",
						"label": "struct Mesa_Votantes.Mesa",
						"members": [
							{
								"astId": 1005,
								"contract": "contracts/Mesa_Votantes.sol:Mesa_Votantes",
								"label": "owner",
								"offset": 0,
								"slot": "0",
								"type": "t_address"
							},
							{
								"astId": 1009,
								"contract": "contracts/Mesa_Votantes.sol:Mesa_Votantes",
								"label": "hasVoted",
								"offset": 0,
								"slot": "1",
								"type": "t_mapping(t_address,t_bool)"
							},
							{
								"astId": 1012,
								"contract": "contracts/Mesa_Votantes.sol:Mesa_Votantes",
								"label": "votosCandidatos",
								"offset": 0,
								"slot": "2",
								"type": "t_array(t_uint256)dyn_storage"
							},
							{
								"astId": 1014,
								"contract": "contracts/Mesa_Votantes.sol:Mesa_Votantes",
								"label": "isOpen",
								"offset": 0,
								"slot": "3",
								"type": "t_bool"
							}
						],
						"numberOfBytes": "128"
					},
					"t_uint256": {
						"encoding": "inplace",
						"label": "uint256",
						"numberOfBytes": "32"
					}
				}
			},
			"userdoc": {
				"kind": "user",
				"methods": {},
				"version": 1
			}
		}
	}
}