{
	"contracts/CandidatosFactory.sol": {
		"Candidatos": {
			"abi": [
				{
					"anonymous": false,
					"inputs": [
						{
							"indexed": false,
							"internalType": "string",
							"name": "nombre",
							"type": "string"
						}
					],
					"name": "CandidatoAgregado",
					"type": "event"
				},
				{
					"inputs": [
						{
							"internalType": "string",
							"name": "_nombre",
							"type": "string"
						}
					],
					"name": "agregarCandidato",
					"outputs": [],
					"stateMutability": "nonpayable",
					"type": "function"
				},
				{
					"inputs": [
						{
							"internalType": "uint256",
							"name": "",
							"type": "uint256"
						}
					],
					"name": "candidatos",
					"outputs": [
						{
							"internalType": "string",
							"name": "name",
							"type": "string"
						},
						{
							"internalType": "uint256",
							"name": "votos",
							"type": "uint256"
						}
					],
					"stateMutability": "view",
					"type": "function"
				},
				{
					"inputs": [],
					"name": "getAllCandidatos",
					"outputs": [
						{
							"components": [
								{
									"internalType": "string",
									"name": "name",
									"type": "string"
								},
								{
									"internalType": "uint256",
									"name": "votos",
									"type": "uint256"
								}
							],
							"internalType": "struct Candidatos.Candidato[]",
							"name": "",
							"type": "tuple[]"
						}
					],
					"stateMutability": "view",
					"type": "function"
				}
			],
			"devdoc": {
				"kind": "dev",
				"methods": {},
				"version": 1
			},
			"evm": {
				"assembly": "    /* \"contracts/CandidatosFactory.sol\":120:901  contract Candidatos {... */\n  mstore(0x40, 0x80)\n  callvalue\n  dup1\n  iszero\n  tag_1\n  jumpi\n  0x00\n  dup1\n  revert\ntag_1:\n  pop\n  dataSize(sub_0)\n  dup1\n  dataOffset(sub_0)\n  0x00\n  codecopy\n  0x00\n  return\nstop\n\nsub_0: assembly {\n        /* \"contracts/CandidatosFactory.sol\":120:901  contract Candidatos {... */\n      mstore(0x40, 0x80)\n      callvalue\n      dup1\n      iszero\n      tag_1\n      jumpi\n      0x00\n      dup1\n      revert\n    tag_1:\n      pop\n      jumpi(tag_2, lt(calldatasize, 0x04))\n      shr(0xe0, calldataload(0x00))\n      dup1\n      0x198cc691\n      eq\n      tag_3\n      jumpi\n      dup1\n      0x503c560f\n      eq\n      tag_4\n      jumpi\n      dup1\n      0x8f023f85\n      eq\n      tag_5\n      jumpi\n    tag_2:\n      0x00\n      dup1\n      revert\n        /* \"contracts/CandidatosFactory.sol\":785:898  function getAllCandidatos() public view virtual returns (Candidato[] memory) {... */\n    tag_3:\n      tag_6\n      tag_7\n      jump\t// in\n    tag_6:\n      mload(0x40)\n      tag_8\n      swap2\n      swap1\n      tag_9\n      jump\t// in\n    tag_8:\n      mload(0x40)\n      dup1\n      swap2\n      sub\n      swap1\n      return\n        /* \"contracts/CandidatosFactory.sol\":544:707  function agregarCandidato(string memory _nombre) public virtual {... */\n    tag_4:\n      tag_10\n      0x04\n      dup1\n      calldatasize\n      sub\n      dup2\n      add\n      swap1\n      tag_11\n      swap2\n      swap1\n      tag_12\n      jump\t// in\n    tag_11:\n      tag_13\n      jump\t// in\n    tag_10:\n      stop\n        /* \"contracts/CandidatosFactory.sol\":357:386  Candidato[] public candidatos */\n    tag_5:\n      tag_14\n      0x04\n      dup1\n      calldatasize\n      sub\n      dup2\n      add\n      swap1\n      tag_15\n      swap2\n      swap1\n      tag_16\n      jump\t// in\n    tag_15:\n      tag_17\n      jump\t// in\n    tag_14:\n      mload(0x40)\n      tag_18\n      swap3\n      swap2\n      swap1\n      tag_19\n      jump\t// in\n    tag_18:\n      mload(0x40)\n      dup1\n      swap2\n      sub\n      swap1\n      return\n        /* \"contracts/CandidatosFactory.sol\":785:898  function getAllCandidatos() public view virtual returns (Candidato[] memory) {... */\n    tag_7:\n        /* \"contracts/CandidatosFactory.sol\":842:860  Candidato[] memory */\n      0x60\n        /* \"contracts/CandidatosFactory.sol\":880:890  candidatos */\n      0x00\n        /* \"contracts/CandidatosFactory.sol\":873:890  return candidatos */\n      dup1\n      sload\n      dup1\n      0x20\n      mul\n      0x20\n      add\n      mload(0x40)\n      swap1\n      dup2\n      add\n      0x40\n      mstore\n      dup1\n      swap3\n      swap2\n      swap1\n      dup2\n      dup2\n      mstore\n      0x20\n      add\n      0x00\n      swap1\n    tag_21:\n      dup3\n      dup3\n      lt\n      iszero\n      tag_22\n      jumpi\n      dup4\n      dup3\n      swap1\n      0x00\n      mstore\n      keccak256(0x00, 0x20)\n      swap1\n      0x02\n      mul\n      add\n      mload(0x40)\n      dup1\n      0x40\n      add\n      0x40\n      mstore\n      swap1\n      dup2\n      0x00\n      dup3\n      add\n      dup1\n      sload\n      tag_24\n      swap1\n      tag_25\n      jump\t// in\n    tag_24:\n      dup1\n      0x1f\n      add\n      0x20\n      dup1\n      swap2\n      div\n      mul\n      0x20\n      add\n      mload(0x40)\n      swap1\n      dup2\n      add\n      0x40\n      mstore\n      dup1\n      swap3\n      swap2\n      swap1\n      dup2\n      dup2\n      mstore\n      0x20\n      add\n      dup3\n      dup1\n      sload\n      tag_26\n      swap1\n      tag_25\n      jump\t// in\n    tag_26:\n      dup1\n      iszero\n      tag_27\n      jumpi\n      dup1\n      0x1f\n      lt\n      tag_28\n      jumpi\n      0x0100\n      dup1\n      dup4\n      sload\n      div\n      mul\n      dup4\n      mstore\n      swap2\n      0x20\n      add\n      swap2\n      jump(tag_27)\n    tag_28:\n      dup3\n      add\n      swap2\n      swap1\n      0x00\n      mstore\n      keccak256(0x00, 0x20)\n      swap1\n    tag_29:\n      dup2\n      sload\n      dup2\n      mstore\n      swap1\n      0x01\n      add\n      swap1\n      0x20\n      add\n      dup1\n      dup4\n      gt\n      tag_29\n      jumpi\n      dup3\n      swap1\n      sub\n      0x1f\n      and\n      dup3\n      add\n      swap2\n    tag_27:\n      pop\n      pop\n      pop\n      pop\n      pop\n      dup2\n      mstore\n      0x20\n      add\n      0x01\n      dup3\n      add\n      sload\n      dup2\n      mstore\n      pop\n      pop\n      dup2\n      mstore\n      0x20\n      add\n      swap1\n      0x01\n      add\n      swap1\n      jump(tag_21)\n    tag_22:\n      pop\n      pop\n      pop\n      pop\n      swap1\n      pop\n        /* \"contracts/CandidatosFactory.sol\":785:898  function getAllCandidatos() public view virtual returns (Candidato[] memory) {... */\n      swap1\n      jump\t// out\n        /* \"contracts/CandidatosFactory.sol\":544:707  function agregarCandidato(string memory _nombre) public virtual {... */\n    tag_13:\n        /* \"contracts/CandidatosFactory.sol\":619:629  candidatos */\n      0x00\n        /* \"contracts/CandidatosFactory.sol\":635:656  Candidato(_nombre, 0) */\n      mload(0x40)\n      dup1\n      0x40\n      add\n      0x40\n      mstore\n      dup1\n        /* \"contracts/CandidatosFactory.sol\":645:652  _nombre */\n      dup4\n        /* \"contracts/CandidatosFactory.sol\":635:656  Candidato(_nombre, 0) */\n      dup2\n      mstore\n      0x20\n      add\n        /* \"contracts/CandidatosFactory.sol\":654:655  0 */\n      0x00\n        /* \"contracts/CandidatosFactory.sol\":635:656  Candidato(_nombre, 0) */\n      dup2\n      mstore\n      pop\n        /* \"contracts/CandidatosFactory.sol\":619:657  candidatos.push(Candidato(_nombre, 0)) */\n      swap1\n      dup1\n      0x01\n      dup2\n      sload\n      add\n      dup1\n      dup3\n      sstore\n      dup1\n      swap2\n      pop\n      pop\n      0x01\n      swap1\n      sub\n      swap1\n      0x00\n      mstore\n      keccak256(0x00, 0x20)\n      swap1\n      0x02\n      mul\n      add\n      0x00\n      swap1\n      swap2\n      swap1\n      swap2\n      swap1\n      swap2\n      pop\n      0x00\n      dup3\n      add\n      mload\n      dup2\n      0x00\n      add\n      swap1\n      dup2\n      tag_32\n      swap2\n      swap1\n      tag_33\n      jump\t// in\n    tag_32:\n      pop\n      0x20\n      dup3\n      add\n      mload\n      dup2\n      0x01\n      add\n      sstore\n      pop\n      pop\n        /* \"contracts/CandidatosFactory.sol\":673:699  CandidatoAgregado(_nombre) */\n      0x566c2d39711b082cc685ade507dee6291f47044333d9aba4037034cdc3cfac9e\n        /* \"contracts/CandidatosFactory.sol\":691:698  _nombre */\n      dup2\n        /* \"contracts/CandidatosFactory.sol\":673:699  CandidatoAgregado(_nombre) */\n      mload(0x40)\n      tag_34\n      swap2\n      swap1\n      tag_35\n      jump\t// in\n    tag_34:\n      mload(0x40)\n      dup1\n      swap2\n      sub\n      swap1\n      log1\n        /* \"contracts/CandidatosFactory.sol\":544:707  function agregarCandidato(string memory _nombre) public virtual {... */\n      pop\n      jump\t// out\n        /* \"contracts/CandidatosFactory.sol\":357:386  Candidato[] public candidatos */\n    tag_17:\n      0x00\n      dup2\n      dup2\n      sload\n      dup2\n      lt\n      tag_36\n      jumpi\n      0x00\n      dup1\n      revert\n    tag_36:\n      swap1\n      0x00\n      mstore\n      keccak256(0x00, 0x20)\n      swap1\n      0x02\n      mul\n      add\n      0x00\n      swap2\n      pop\n      swap1\n      pop\n      dup1\n      0x00\n      add\n      dup1\n      sload\n      tag_38\n      swap1\n      tag_25\n      jump\t// in\n    tag_38:\n      dup1\n      0x1f\n      add\n      0x20\n      dup1\n      swap2\n      div\n      mul\n      0x20\n      add\n      mload(0x40)\n      swap1\n      dup2\n      add\n      0x40\n      mstore\n      dup1\n      swap3\n      swap2\n      swap1\n      dup2\n      dup2\n      mstore\n      0x20\n      add\n      dup3\n      dup1\n      sload\n      tag_39\n      swap1\n      tag_25\n      jump\t// in\n    tag_39:\n      dup1\n      iszero\n      tag_40\n      jumpi\n      dup1\n      0x1f\n      lt\n      tag_41\n      jumpi\n      0x0100\n      dup1\n      dup4\n      sload\n      div\n      mul\n      dup4\n      mstore\n      swap2\n      0x20\n      add\n      swap2\n      jump(tag_40)\n    tag_41:\n      dup3\n      add\n      swap2\n      swap1\n      0x00\n      mstore\n      keccak256(0x00, 0x20)\n      swap1\n    tag_42:\n      dup2\n      sload\n      dup2\n      mstore\n      swap1\n      0x01\n      add\n      swap1\n      0x20\n      add\n      dup1\n      dup4\n      gt\n      tag_42\n      jumpi\n      dup3\n      swap1\n      sub\n      0x1f\n      and\n      dup3\n      add\n      swap2\n    tag_40:\n      pop\n      pop\n      pop\n      pop\n      pop\n      swap1\n      dup1\n      0x01\n      add\n      sload\n      swap1\n      pop\n      dup3\n      jump\t// out\n        /* \"#utility.yul\":7:147   */\n    tag_43:\n        /* \"#utility.yul\":100:106   */\n      0x00\n        /* \"#utility.yul\":134:139   */\n      dup2\n        /* \"#utility.yul\":128:140   */\n      mload\n        /* \"#utility.yul\":118:140   */\n      swap1\n      pop\n        /* \"#utility.yul\":7:147   */\n      swap2\n      swap1\n      pop\n      jump\t// out\n        /* \"#utility.yul\":153:363   */\n    tag_44:\n        /* \"#utility.yul\":278:289   */\n      0x00\n        /* \"#utility.yul\":312:318   */\n      dup3\n        /* \"#utility.yul\":307:310   */\n      dup3\n        /* \"#utility.yul\":300:319   */\n      mstore\n        /* \"#utility.yul\":352:356   */\n      0x20\n        /* \"#utility.yul\":347:350   */\n      dup3\n        /* \"#utility.yul\":343:357   */\n      add\n        /* \"#utility.yul\":328:357   */\n      swap1\n      pop\n        /* \"#utility.yul\":153:363   */\n      swap3\n      swap2\n      pop\n      pop\n      jump\t// out\n        /* \"#utility.yul\":369:527   */\n    tag_45:\n        /* \"#utility.yul\":462:466   */\n      0x00\n        /* \"#utility.yul\":485:488   */\n      dup2\n        /* \"#utility.yul\":477:488   */\n      swap1\n      pop\n        /* \"#utility.yul\":515:519   */\n      0x20\n        /* \"#utility.yul\":510:513   */\n      dup3\n        /* \"#utility.yul\":506:520   */\n      add\n        /* \"#utility.yul\":498:520   */\n      swap1\n      pop\n        /* \"#utility.yul\":369:527   */\n      swap2\n      swap1\n      pop\n      jump\t// out\n        /* \"#utility.yul\":533:632   */\n    tag_46:\n        /* \"#utility.yul\":585:591   */\n      0x00\n        /* \"#utility.yul\":619:624   */\n      dup2\n        /* \"#utility.yul\":613:625   */\n      mload\n        /* \"#utility.yul\":603:625   */\n      swap1\n      pop\n        /* \"#utility.yul\":533:632   */\n      swap2\n      swap1\n      pop\n      jump\t// out\n        /* \"#utility.yul\":638:797   */\n    tag_47:\n        /* \"#utility.yul\":712:723   */\n      0x00\n        /* \"#utility.yul\":746:752   */\n      dup3\n        /* \"#utility.yul\":741:744   */\n      dup3\n        /* \"#utility.yul\":734:753   */\n      mstore\n        /* \"#utility.yul\":786:790   */\n      0x20\n        /* \"#utility.yul\":781:784   */\n      dup3\n        /* \"#utility.yul\":777:791   */\n      add\n        /* \"#utility.yul\":762:791   */\n      swap1\n      pop\n        /* \"#utility.yul\":638:797   */\n      swap3\n      swap2\n      pop\n      pop\n      jump\t// out\n        /* \"#utility.yul\":803:942   */\n    tag_48:\n        /* \"#utility.yul\":892:898   */\n      dup3\n        /* \"#utility.yul\":887:890   */\n      dup2\n        /* \"#utility.yul\":882:885   */\n      dup4\n        /* \"#utility.yul\":876:899   */\n      mcopy\n        /* \"#utility.yul\":933:934   */\n      0x00\n        /* \"#utility.yul\":924:930   */\n      dup4\n        /* \"#utility.yul\":919:922   */\n      dup4\n        /* \"#utility.yul\":915:931   */\n      add\n        /* \"#utility.yul\":908:935   */\n      mstore\n        /* \"#utility.yul\":803:942   */\n      pop\n      pop\n      pop\n      jump\t// out\n        /* \"#utility.yul\":948:1050   */\n    tag_49:\n        /* \"#utility.yul\":989:995   */\n      0x00\n        /* \"#utility.yul\":1040:1042   */\n      0x1f\n        /* \"#utility.yul\":1036:1043   */\n      not\n        /* \"#utility.yul\":1031:1033   */\n      0x1f\n        /* \"#utility.yul\":1024:1029   */\n      dup4\n        /* \"#utility.yul\":1020:1034   */\n      add\n        /* \"#utility.yul\":1016:1044   */\n      and\n        /* \"#utility.yul\":1006:1044   */\n      swap1\n      pop\n        /* \"#utility.yul\":948:1050   */\n      swap2\n      swap1\n      pop\n      jump\t// out\n        /* \"#utility.yul\":1056:1413   */\n    tag_50:\n        /* \"#utility.yul\":1134:1137   */\n      0x00\n        /* \"#utility.yul\":1162:1201   */\n      tag_99\n        /* \"#utility.yul\":1195:1200   */\n      dup3\n        /* \"#utility.yul\":1162:1201   */\n      tag_46\n      jump\t// in\n    tag_99:\n        /* \"#utility.yul\":1217:1278   */\n      tag_100\n        /* \"#utility.yul\":1271:1277   */\n      dup2\n        /* \"#utility.yul\":1266:1269   */\n      dup6\n        /* \"#utility.yul\":1217:1278   */\n      tag_47\n      jump\t// in\n    tag_100:\n        /* \"#utility.yul\":1210:1278   */\n      swap4\n      pop\n        /* \"#utility.yul\":1287:1352   */\n      tag_101\n        /* \"#utility.yul\":1345:1351   */\n      dup2\n        /* \"#utility.yul\":1340:1343   */\n      dup6\n        /* \"#utility.yul\":1333:1337   */\n      0x20\n        /* \"#utility.yul\":1326:1331   */\n      dup7\n        /* \"#utility.yul\":1322:1338   */\n      add\n        /* \"#utility.yul\":1287:1352   */\n      tag_48\n      jump\t// in\n    tag_101:\n        /* \"#utility.yul\":1377:1406   */\n      tag_102\n        /* \"#utility.yul\":1399:1405   */\n      dup2\n        /* \"#utility.yul\":1377:1406   */\n      tag_49\n      jump\t// in\n    tag_102:\n        /* \"#utility.yul\":1372:1375   */\n      dup5\n        /* \"#utility.yul\":1368:1407   */\n      add\n        /* \"#utility.yul\":1361:1407   */\n      swap2\n      pop\n        /* \"#utility.yul\":1138:1413   */\n      pop\n        /* \"#utility.yul\":1056:1413   */\n      swap3\n      swap2\n      pop\n      pop\n      jump\t// out\n        /* \"#utility.yul\":1419:1496   */\n    tag_51:\n        /* \"#utility.yul\":1456:1463   */\n      0x00\n        /* \"#utility.yul\":1485:1490   */\n      dup2\n        /* \"#utility.yul\":1474:1490   */\n      swap1\n      pop\n        /* \"#utility.yul\":1419:1496   */\n      swap2\n      swap1\n      pop\n      jump\t// out\n        /* \"#utility.yul\":1502:1610   */\n    tag_52:\n        /* \"#utility.yul\":1579:1603   */\n      tag_105\n        /* \"#utility.yul\":1597:1602   */\n      dup2\n        /* \"#utility.yul\":1579:1603   */\n      tag_51\n      jump\t// in\n    tag_105:\n        /* \"#utility.yul\":1574:1577   */\n      dup3\n        /* \"#utility.yul\":1567:1604   */\n      mstore\n        /* \"#utility.yul\":1502:1610   */\n      pop\n      pop\n      jump\t// out\n        /* \"#utility.yul\":1682:2281   */\n    tag_53:\n        /* \"#utility.yul\":1793:1796   */\n      0x00\n        /* \"#utility.yul\":1829:1833   */\n      0x40\n        /* \"#utility.yul\":1824:1827   */\n      dup4\n        /* \"#utility.yul\":1820:1834   */\n      add\n        /* \"#utility.yul\":1916:1920   */\n      0x00\n        /* \"#utility.yul\":1909:1914   */\n      dup4\n        /* \"#utility.yul\":1905:1921   */\n      add\n        /* \"#utility.yul\":1899:1922   */\n      mload\n        /* \"#utility.yul\":1969:1972   */\n      dup5\n        /* \"#utility.yul\":1963:1967   */\n      dup3\n        /* \"#utility.yul\":1959:1973   */\n      sub\n        /* \"#utility.yul\":1952:1956   */\n      0x00\n        /* \"#utility.yul\":1947:1950   */\n      dup7\n        /* \"#utility.yul\":1943:1957   */\n      add\n        /* \"#utility.yul\":1936:1974   */\n      mstore\n        /* \"#utility.yul\":1995:2068   */\n      tag_107\n        /* \"#utility.yul\":2063:2067   */\n      dup3\n        /* \"#utility.yul\":2049:2061   */\n      dup3\n        /* \"#utility.yul\":1995:2068   */\n      tag_50\n      jump\t// in\n    tag_107:\n        /* \"#utility.yul\":1987:2068   */\n      swap2\n      pop\n        /* \"#utility.yul\":1844:2079   */\n      pop\n        /* \"#utility.yul\":2162:2166   */\n      0x20\n        /* \"#utility.yul\":2155:2160   */\n      dup4\n        /* \"#utility.yul\":2151:2167   */\n      add\n        /* \"#utility.yul\":2145:2168   */\n      mload\n        /* \"#utility.yul\":2181:2244   */\n      tag_108\n        /* \"#utility.yul\":2238:2242   */\n      0x20\n        /* \"#utility.yul\":2233:2236   */\n      dup7\n        /* \"#utility.yul\":2229:2243   */\n      add\n        /* \"#utility.yul\":2215:2227   */\n      dup3\n        /* \"#utility.yul\":2181:2244   */\n      tag_52\n      jump\t// in\n    tag_108:\n        /* \"#utility.yul\":2089:2254   */\n      pop\n        /* \"#utility.yul\":2271:2275   */\n      dup1\n        /* \"#utility.yul\":2264:2275   */\n      swap2\n      pop\n        /* \"#utility.yul\":1798:2281   */\n      pop\n        /* \"#utility.yul\":1682:2281   */\n      swap3\n      swap2\n      pop\n      pop\n      jump\t// out\n        /* \"#utility.yul\":2287:2547   */\n    tag_54:\n        /* \"#utility.yul\":2408:2418   */\n      0x00\n        /* \"#utility.yul\":2443:2541   */\n      tag_110\n        /* \"#utility.yul\":2537:2540   */\n      dup4\n        /* \"#utility.yul\":2529:2535   */\n      dup4\n        /* \"#utility.yul\":2443:2541   */\n      tag_53\n      jump\t// in\n    tag_110:\n        /* \"#utility.yul\":2429:2541   */\n      swap1\n      pop\n        /* \"#utility.yul\":2287:2547   */\n      swap3\n      swap2\n      pop\n      pop\n      jump\t// out\n        /* \"#utility.yul\":2553:2692   */\n    tag_55:\n        /* \"#utility.yul\":2649:2653   */\n      0x00\n        /* \"#utility.yul\":2681:2685   */\n      0x20\n        /* \"#utility.yul\":2676:2679   */\n      dup3\n        /* \"#utility.yul\":2672:2686   */\n      add\n        /* \"#utility.yul\":2664:2686   */\n      swap1\n      pop\n        /* \"#utility.yul\":2553:2692   */\n      swap2\n      swap1\n      pop\n      jump\t// out\n        /* \"#utility.yul\":2768:3887   */\n    tag_56:\n        /* \"#utility.yul\":2939:2942   */\n      0x00\n        /* \"#utility.yul\":2968:3048   */\n      tag_113\n        /* \"#utility.yul\":3042:3047   */\n      dup3\n        /* \"#utility.yul\":2968:3048   */\n      tag_43\n      jump\t// in\n    tag_113:\n        /* \"#utility.yul\":3064:3176   */\n      tag_114\n        /* \"#utility.yul\":3169:3175   */\n      dup2\n        /* \"#utility.yul\":3164:3167   */\n      dup6\n        /* \"#utility.yul\":3064:3176   */\n      tag_44\n      jump\t// in\n    tag_114:\n        /* \"#utility.yul\":3057:3176   */\n      swap4\n      pop\n        /* \"#utility.yul\":3202:3205   */\n      dup4\n        /* \"#utility.yul\":3247:3251   */\n      0x20\n        /* \"#utility.yul\":3239:3245   */\n      dup3\n        /* \"#utility.yul\":3235:3252   */\n      mul\n        /* \"#utility.yul\":3230:3233   */\n      dup6\n        /* \"#utility.yul\":3226:3253   */\n      add\n        /* \"#utility.yul\":3277:3359   */\n      tag_115\n        /* \"#utility.yul\":3353:3358   */\n      dup6\n        /* \"#utility.yul\":3277:3359   */\n      tag_45\n      jump\t// in\n    tag_115:\n        /* \"#utility.yul\":3382:3389   */\n      dup1\n        /* \"#utility.yul\":3413:3414   */\n      0x00\n        /* \"#utility.yul\":3398:3842   */\n    tag_116:\n        /* \"#utility.yul\":3423:3429   */\n      dup6\n        /* \"#utility.yul\":3420:3421   */\n      dup2\n        /* \"#utility.yul\":3417:3430   */\n      lt\n        /* \"#utility.yul\":3398:3842   */\n      iszero\n      tag_118\n      jumpi\n        /* \"#utility.yul\":3494:3503   */\n      dup5\n        /* \"#utility.yul\":3488:3492   */\n      dup5\n        /* \"#utility.yul\":3484:3504   */\n      sub\n        /* \"#utility.yul\":3479:3482   */\n      dup10\n        /* \"#utility.yul\":3472:3505   */\n      mstore\n        /* \"#utility.yul\":3545:3551   */\n      dup2\n        /* \"#utility.yul\":3539:3552   */\n      mload\n        /* \"#utility.yul\":3573:3689   */\n      tag_119\n        /* \"#utility.yul\":3684:3688   */\n      dup6\n        /* \"#utility.yul\":3669:3682   */\n      dup3\n        /* \"#utility.yul\":3573:3689   */\n      tag_54\n      jump\t// in\n    tag_119:\n        /* \"#utility.yul\":3565:3689   */\n      swap5\n      pop\n        /* \"#utility.yul\":3712:3798   */\n      tag_120\n        /* \"#utility.yul\":3791:3797   */\n      dup4\n        /* \"#utility.yul\":3712:3798   */\n      tag_55\n      jump\t// in\n    tag_120:\n        /* \"#utility.yul\":3702:3798   */\n      swap3\n      pop\n        /* \"#utility.yul\":3827:3831   */\n      0x20\n        /* \"#utility.yul\":3822:3825   */\n      dup11\n        /* \"#utility.yul\":3818:3832   */\n      add\n        /* \"#utility.yul\":3811:3832   */\n      swap10\n      pop\n        /* \"#utility.yul\":3458:3842   */\n      pop\n        /* \"#utility.yul\":3445:3446   */\n      0x01\n        /* \"#utility.yul\":3442:3443   */\n      dup2\n        /* \"#utility.yul\":3438:3447   */\n      add\n        /* \"#utility.yul\":3433:3447   */\n      swap1\n      pop\n        /* \"#utility.yul\":3398:3842   */\n      jump(tag_116)\n    tag_118:\n        /* \"#utility.yul\":3402:3416   */\n      pop\n        /* \"#utility.yul\":3858:3862   */\n      dup3\n        /* \"#utility.yul\":3851:3862   */\n      swap8\n      pop\n        /* \"#utility.yul\":3878:3881   */\n      dup8\n        /* \"#utility.yul\":3871:3881   */\n      swap6\n      pop\n        /* \"#utility.yul\":2944:3887   */\n      pop\n      pop\n      pop\n      pop\n      pop\n        /* \"#utility.yul\":2768:3887   */\n      swap3\n      swap2\n      pop\n      pop\n      jump\t// out\n        /* \"#utility.yul\":3893:4370   */\n    tag_9:\n        /* \"#utility.yul\":4088:4092   */\n      0x00\n        /* \"#utility.yul\":4126:4128   */\n      0x20\n        /* \"#utility.yul\":4115:4124   */\n      dup3\n        /* \"#utility.yul\":4111:4129   */\n      add\n        /* \"#utility.yul\":4103:4129   */\n      swap1\n      pop\n        /* \"#utility.yul\":4175:4184   */\n      dup2\n        /* \"#utility.yul\":4169:4173   */\n      dup2\n        /* \"#utility.yul\":4165:4185   */\n      sub\n        /* \"#utility.yul\":4161:4162   */\n      0x00\n        /* \"#utility.yul\":4150:4159   */\n      dup4\n        /* \"#utility.yul\":4146:4163   */\n      add\n        /* \"#utility.yul\":4139:4186   */\n      mstore\n        /* \"#utility.yul\":4203:4363   */\n      tag_122\n        /* \"#utility.yul\":4358:4362   */\n      dup2\n        /* \"#utility.yul\":4349:4355   */\n      dup5\n        /* \"#utility.yul\":4203:4363   */\n      tag_56\n      jump\t// in\n    tag_122:\n        /* \"#utility.yul\":4195:4363   */\n      swap1\n      pop\n        /* \"#utility.yul\":3893:4370   */\n      swap3\n      swap2\n      pop\n      pop\n      jump\t// out\n        /* \"#utility.yul\":4376:4451   */\n    tag_57:\n        /* \"#utility.yul\":4409:4415   */\n      0x00\n        /* \"#utility.yul\":4442:4444   */\n      0x40\n        /* \"#utility.yul\":4436:4445   */\n      mload\n        /* \"#utility.yul\":4426:4445   */\n      swap1\n      pop\n        /* \"#utility.yul\":4376:4451   */\n      swap1\n      jump\t// out\n        /* \"#utility.yul\":4457:4574   */\n    tag_58:\n        /* \"#utility.yul\":4566:4567   */\n      0x00\n        /* \"#utility.yul\":4563:4564   */\n      dup1\n        /* \"#utility.yul\":4556:4568   */\n      revert\n        /* \"#utility.yul\":4580:4697   */\n    tag_59:\n        /* \"#utility.yul\":4689:4690   */\n      0x00\n        /* \"#utility.yul\":4686:4687   */\n      dup1\n        /* \"#utility.yul\":4679:4691   */\n      revert\n        /* \"#utility.yul\":4703:4820   */\n    tag_60:\n        /* \"#utility.yul\":4812:4813   */\n      0x00\n        /* \"#utility.yul\":4809:4810   */\n      dup1\n        /* \"#utility.yul\":4802:4814   */\n      revert\n        /* \"#utility.yul\":4826:4943   */\n    tag_61:\n        /* \"#utility.yul\":4935:4936   */\n      0x00\n        /* \"#utility.yul\":4932:4933   */\n      dup1\n        /* \"#utility.yul\":4925:4937   */\n      revert\n        /* \"#utility.yul\":4949:5129   */\n    tag_62:\n        /* \"#utility.yul\":4997:5074   */\n      0x4e487b7100000000000000000000000000000000000000000000000000000000\n        /* \"#utility.yul\":4994:4995   */\n      0x00\n        /* \"#utility.yul\":4987:5075   */\n      mstore\n        /* \"#utility.yul\":5094:5098   */\n      0x41\n        /* \"#utility.yul\":5091:5092   */\n      0x04\n        /* \"#utility.yul\":5084:5099   */\n      mstore\n        /* \"#utility.yul\":5118:5122   */\n      0x24\n        /* \"#utility.yul\":5115:5116   */\n      0x00\n        /* \"#utility.yul\":5108:5123   */\n      revert\n        /* \"#utility.yul\":5135:5416   */\n    tag_63:\n        /* \"#utility.yul\":5218:5245   */\n      tag_130\n        /* \"#utility.yul\":5240:5244   */\n      dup3\n        /* \"#utility.yul\":5218:5245   */\n      tag_49\n      jump\t// in\n    tag_130:\n        /* \"#utility.yul\":5210:5216   */\n      dup2\n        /* \"#utility.yul\":5206:5246   */\n      add\n        /* \"#utility.yul\":5348:5354   */\n      dup2\n        /* \"#utility.yul\":5336:5346   */\n      dup2\n        /* \"#utility.yul\":5333:5355   */\n      lt\n        /* \"#utility.yul\":5312:5330   */\n      0xffffffffffffffff\n        /* \"#utility.yul\":5300:5310   */\n      dup3\n        /* \"#utility.yul\":5297:5331   */\n      gt\n        /* \"#utility.yul\":5294:5356   */\n      or\n        /* \"#utility.yul\":5291:5379   */\n      iszero\n      tag_131\n      jumpi\n        /* \"#utility.yul\":5359:5377   */\n      tag_132\n      tag_62\n      jump\t// in\n    tag_132:\n        /* \"#utility.yul\":5291:5379   */\n    tag_131:\n        /* \"#utility.yul\":5399:5409   */\n      dup1\n        /* \"#utility.yul\":5395:5397   */\n      0x40\n        /* \"#utility.yul\":5388:5410   */\n      mstore\n        /* \"#utility.yul\":5178:5416   */\n      pop\n        /* \"#utility.yul\":5135:5416   */\n      pop\n      pop\n      jump\t// out\n        /* \"#utility.yul\":5422:5551   */\n    tag_64:\n        /* \"#utility.yul\":5456:5462   */\n      0x00\n        /* \"#utility.yul\":5483:5503   */\n      tag_134\n      tag_57\n      jump\t// in\n    tag_134:\n        /* \"#utility.yul\":5473:5503   */\n      swap1\n      pop\n        /* \"#utility.yul\":5512:5545   */\n      tag_135\n        /* \"#utility.yul\":5540:5544   */\n      dup3\n        /* \"#utility.yul\":5532:5538   */\n      dup3\n        /* \"#utility.yul\":5512:5545   */\n      tag_63\n      jump\t// in\n    tag_135:\n        /* \"#utility.yul\":5422:5551   */\n      swap2\n      swap1\n      pop\n      jump\t// out\n        /* \"#utility.yul\":5557:5865   */\n    tag_65:\n        /* \"#utility.yul\":5619:5623   */\n      0x00\n        /* \"#utility.yul\":5709:5727   */\n      0xffffffffffffffff\n        /* \"#utility.yul\":5701:5707   */\n      dup3\n        /* \"#utility.yul\":5698:5728   */\n      gt\n        /* \"#utility.yul\":5695:5751   */\n      iszero\n      tag_137\n      jumpi\n        /* \"#utility.yul\":5731:5749   */\n      tag_138\n      tag_62\n      jump\t// in\n    tag_138:\n        /* \"#utility.yul\":5695:5751   */\n    tag_137:\n        /* \"#utility.yul\":5769:5798   */\n      tag_139\n        /* \"#utility.yul\":5791:5797   */\n      dup3\n        /* \"#utility.yul\":5769:5798   */\n      tag_49\n      jump\t// in\n    tag_139:\n        /* \"#utility.yul\":5761:5798   */\n      swap1\n      pop\n        /* \"#utility.yul\":5853:5857   */\n      0x20\n        /* \"#utility.yul\":5847:5851   */\n      dup2\n        /* \"#utility.yul\":5843:5858   */\n      add\n        /* \"#utility.yul\":5835:5858   */\n      swap1\n      pop\n        /* \"#utility.yul\":5557:5865   */\n      swap2\n      swap1\n      pop\n      jump\t// out\n        /* \"#utility.yul\":5871:6019   */\n    tag_66:\n        /* \"#utility.yul\":5969:5975   */\n      dup3\n        /* \"#utility.yul\":5964:5967   */\n      dup2\n        /* \"#utility.yul\":5959:5962   */\n      dup4\n        /* \"#utility.yul\":5946:5976   */\n      calldatacopy\n        /* \"#utility.yul\":6010:6011   */\n      0x00\n        /* \"#utility.yul\":6001:6007   */\n      dup4\n        /* \"#utility.yul\":5996:5999   */\n      dup4\n        /* \"#utility.yul\":5992:6008   */\n      add\n        /* \"#utility.yul\":5985:6012   */\n      mstore\n        /* \"#utility.yul\":5871:6019   */\n      pop\n      pop\n      pop\n      jump\t// out\n        /* \"#utility.yul\":6025:6450   */\n    tag_67:\n        /* \"#utility.yul\":6103:6108   */\n      0x00\n        /* \"#utility.yul\":6128:6194   */\n      tag_142\n        /* \"#utility.yul\":6144:6193   */\n      tag_143\n        /* \"#utility.yul\":6186:6192   */\n      dup5\n        /* \"#utility.yul\":6144:6193   */\n      tag_65\n      jump\t// in\n    tag_143:\n        /* \"#utility.yul\":6128:6194   */\n      tag_64\n      jump\t// in\n    tag_142:\n        /* \"#utility.yul\":6119:6194   */\n      swap1\n      pop\n        /* \"#utility.yul\":6217:6223   */\n      dup3\n        /* \"#utility.yul\":6210:6215   */\n      dup2\n        /* \"#utility.yul\":6203:6224   */\n      mstore\n        /* \"#utility.yul\":6255:6259   */\n      0x20\n        /* \"#utility.yul\":6248:6253   */\n      dup2\n        /* \"#utility.yul\":6244:6260   */\n      add\n        /* \"#utility.yul\":6293:6296   */\n      dup5\n        /* \"#utility.yul\":6284:6290   */\n      dup5\n        /* \"#utility.yul\":6279:6282   */\n      dup5\n        /* \"#utility.yul\":6275:6291   */\n      add\n        /* \"#utility.yul\":6272:6297   */\n      gt\n        /* \"#utility.yul\":6269:6381   */\n      iszero\n      tag_144\n      jumpi\n        /* \"#utility.yul\":6300:6379   */\n      tag_145\n      tag_61\n      jump\t// in\n    tag_145:\n        /* \"#utility.yul\":6269:6381   */\n    tag_144:\n        /* \"#utility.yul\":6390:6444   */\n      tag_146\n        /* \"#utility.yul\":6437:6443   */\n      dup5\n        /* \"#utility.yul\":6432:6435   */\n      dup3\n        /* \"#utility.yul\":6427:6430   */\n      dup6\n        /* \"#utility.yul\":6390:6444   */\n      tag_66\n      jump\t// in\n    tag_146:\n        /* \"#utility.yul\":6109:6450   */\n      pop\n        /* \"#utility.yul\":6025:6450   */\n      swap4\n      swap3\n      pop\n      pop\n      pop\n      jump\t// out\n        /* \"#utility.yul\":6470:6810   */\n    tag_68:\n        /* \"#utility.yul\":6526:6531   */\n      0x00\n        /* \"#utility.yul\":6575:6578   */\n      dup3\n        /* \"#utility.yul\":6568:6572   */\n      0x1f\n        /* \"#utility.yul\":6560:6566   */\n      dup4\n        /* \"#utility.yul\":6556:6573   */\n      add\n        /* \"#utility.yul\":6552:6579   */\n      slt\n        /* \"#utility.yul\":6542:6664   */\n      tag_148\n      jumpi\n        /* \"#utility.yul\":6583:6662   */\n      tag_149\n      tag_60\n      jump\t// in\n    tag_149:\n        /* \"#utility.yul\":6542:6664   */\n    tag_148:\n        /* \"#utility.yul\":6700:6706   */\n      dup2\n        /* \"#utility.yul\":6687:6707   */\n      calldataload\n        /* \"#utility.yul\":6725:6804   */\n      tag_150\n        /* \"#utility.yul\":6800:6803   */\n      dup5\n        /* \"#utility.yul\":6792:6798   */\n      dup3\n        /* \"#utility.yul\":6785:6789   */\n      0x20\n        /* \"#utility.yul\":6777:6783   */\n      dup7\n        /* \"#utility.yul\":6773:6790   */\n      add\n        /* \"#utility.yul\":6725:6804   */\n      tag_67\n      jump\t// in\n    tag_150:\n        /* \"#utility.yul\":6716:6804   */\n      swap2\n      pop\n        /* \"#utility.yul\":6532:6810   */\n      pop\n        /* \"#utility.yul\":6470:6810   */\n      swap3\n      swap2\n      pop\n      pop\n      jump\t// out\n        /* \"#utility.yul\":6816:7325   */\n    tag_12:\n        /* \"#utility.yul\":6885:6891   */\n      0x00\n        /* \"#utility.yul\":6934:6936   */\n      0x20\n        /* \"#utility.yul\":6922:6931   */\n      dup3\n        /* \"#utility.yul\":6913:6920   */\n      dup5\n        /* \"#utility.yul\":6909:6932   */\n      sub\n        /* \"#utility.yul\":6905:6937   */\n      slt\n        /* \"#utility.yul\":6902:7021   */\n      iszero\n      tag_152\n      jumpi\n        /* \"#utility.yul\":6940:7019   */\n      tag_153\n      tag_58\n      jump\t// in\n    tag_153:\n        /* \"#utility.yul\":6902:7021   */\n    tag_152:\n        /* \"#utility.yul\":7088:7089   */\n      0x00\n        /* \"#utility.yul\":7077:7086   */\n      dup3\n        /* \"#utility.yul\":7073:7090   */\n      add\n        /* \"#utility.yul\":7060:7091   */\n      calldataload\n        /* \"#utility.yul\":7118:7136   */\n      0xffffffffffffffff\n        /* \"#utility.yul\":7110:7116   */\n      dup2\n        /* \"#utility.yul\":7107:7137   */\n      gt\n        /* \"#utility.yul\":7104:7221   */\n      iszero\n      tag_154\n      jumpi\n        /* \"#utility.yul\":7140:7219   */\n      tag_155\n      tag_59\n      jump\t// in\n    tag_155:\n        /* \"#utility.yul\":7104:7221   */\n    tag_154:\n        /* \"#utility.yul\":7245:7308   */\n      tag_156\n        /* \"#utility.yul\":7300:7307   */\n      dup5\n        /* \"#utility.yul\":7291:7297   */\n      dup3\n        /* \"#utility.yul\":7280:7289   */\n      dup6\n        /* \"#utility.yul\":7276:7298   */\n      add\n        /* \"#utility.yul\":7245:7308   */\n      tag_68\n      jump\t// in\n    tag_156:\n        /* \"#utility.yul\":7235:7308   */\n      swap2\n      pop\n        /* \"#utility.yul\":7031:7318   */\n      pop\n        /* \"#utility.yul\":6816:7325   */\n      swap3\n      swap2\n      pop\n      pop\n      jump\t// out\n        /* \"#utility.yul\":7331:7453   */\n    tag_69:\n        /* \"#utility.yul\":7404:7428   */\n      tag_158\n        /* \"#utility.yul\":7422:7427   */\n      dup2\n        /* \"#utility.yul\":7404:7428   */\n      tag_51\n      jump\t// in\n    tag_158:\n        /* \"#utility.yul\":7397:7402   */\n      dup2\n        /* \"#utility.yul\":7394:7429   */\n      eq\n        /* \"#utility.yul\":7384:7447   */\n      tag_159\n      jumpi\n        /* \"#utility.yul\":7443:7444   */\n      0x00\n        /* \"#utility.yul\":7440:7441   */\n      dup1\n        /* \"#utility.yul\":7433:7445   */\n      revert\n        /* \"#utility.yul\":7384:7447   */\n    tag_159:\n        /* \"#utility.yul\":7331:7453   */\n      pop\n      jump\t// out\n        /* \"#utility.yul\":7459:7598   */\n    tag_70:\n        /* \"#utility.yul\":7505:7510   */\n      0x00\n        /* \"#utility.yul\":7543:7549   */\n      dup2\n        /* \"#utility.yul\":7530:7550   */\n      calldataload\n        /* \"#utility.yul\":7521:7550   */\n      swap1\n      pop\n        /* \"#utility.yul\":7559:7592   */\n      tag_161\n        /* \"#utility.yul\":7586:7591   */\n      dup2\n        /* \"#utility.yul\":7559:7592   */\n      tag_69\n      jump\t// in\n    tag_161:\n        /* \"#utility.yul\":7459:7598   */\n      swap3\n      swap2\n      pop\n      pop\n      jump\t// out\n        /* \"#utility.yul\":7604:7933   */\n    tag_16:\n        /* \"#utility.yul\":7663:7669   */\n      0x00\n        /* \"#utility.yul\":7712:7714   */\n      0x20\n        /* \"#utility.yul\":7700:7709   */\n      dup3\n        /* \"#utility.yul\":7691:7698   */\n      dup5\n        /* \"#utility.yul\":7687:7710   */\n      sub\n        /* \"#utility.yul\":7683:7715   */\n      slt\n        /* \"#utility.yul\":7680:7799   */\n      iszero\n      tag_163\n      jumpi\n        /* \"#utility.yul\":7718:7797   */\n      tag_164\n      tag_58\n      jump\t// in\n    tag_164:\n        /* \"#utility.yul\":7680:7799   */\n    tag_163:\n        /* \"#utility.yul\":7838:7839   */\n      0x00\n        /* \"#utility.yul\":7863:7916   */\n      tag_165\n        /* \"#utility.yul\":7908:7915   */\n      dup5\n        /* \"#utility.yul\":7899:7905   */\n      dup3\n        /* \"#utility.yul\":7888:7897   */\n      dup6\n        /* \"#utility.yul\":7884:7906   */\n      add\n        /* \"#utility.yul\":7863:7916   */\n      tag_70\n      jump\t// in\n    tag_165:\n        /* \"#utility.yul\":7853:7916   */\n      swap2\n      pop\n        /* \"#utility.yul\":7809:7926   */\n      pop\n        /* \"#utility.yul\":7604:7933   */\n      swap3\n      swap2\n      pop\n      pop\n      jump\t// out\n        /* \"#utility.yul\":7939:8108   */\n    tag_71:\n        /* \"#utility.yul\":8023:8034   */\n      0x00\n        /* \"#utility.yul\":8057:8063   */\n      dup3\n        /* \"#utility.yul\":8052:8055   */\n      dup3\n        /* \"#utility.yul\":8045:8064   */\n      mstore\n        /* \"#utility.yul\":8097:8101   */\n      0x20\n        /* \"#utility.yul\":8092:8095   */\n      dup3\n        /* \"#utility.yul\":8088:8102   */\n      add\n        /* \"#utility.yul\":8073:8102   */\n      swap1\n      pop\n        /* \"#utility.yul\":7939:8108   */\n      swap3\n      swap2\n      pop\n      pop\n      jump\t// out\n        /* \"#utility.yul\":8114:8491   */\n    tag_72:\n        /* \"#utility.yul\":8202:8205   */\n      0x00\n        /* \"#utility.yul\":8230:8269   */\n      tag_168\n        /* \"#utility.yul\":8263:8268   */\n      dup3\n        /* \"#utility.yul\":8230:8269   */\n      tag_46\n      jump\t// in\n    tag_168:\n        /* \"#utility.yul\":8285:8356   */\n      tag_169\n        /* \"#utility.yul\":8349:8355   */\n      dup2\n        /* \"#utility.yul\":8344:8347   */\n      dup6\n        /* \"#utility.yul\":8285:8356   */\n      tag_71\n      jump\t// in\n    tag_169:\n        /* \"#utility.yul\":8278:8356   */\n      swap4\n      pop\n        /* \"#utility.yul\":8365:8430   */\n      tag_170\n        /* \"#utility.yul\":8423:8429   */\n      dup2\n        /* \"#utility.yul\":8418:8421   */\n      dup6\n        /* \"#utility.yul\":8411:8415   */\n      0x20\n        /* \"#utility.yul\":8404:8409   */\n      dup7\n        /* \"#utility.yul\":8400:8416   */\n      add\n        /* \"#utility.yul\":8365:8430   */\n      tag_48\n      jump\t// in\n    tag_170:\n        /* \"#utility.yul\":8455:8484   */\n      tag_171\n        /* \"#utility.yul\":8477:8483   */\n      dup2\n        /* \"#utility.yul\":8455:8484   */\n      tag_49\n      jump\t// in\n    tag_171:\n        /* \"#utility.yul\":8450:8453   */\n      dup5\n        /* \"#utility.yul\":8446:8485   */\n      add\n        /* \"#utility.yul\":8439:8485   */\n      swap2\n      pop\n        /* \"#utility.yul\":8206:8491   */\n      pop\n        /* \"#utility.yul\":8114:8491   */\n      swap3\n      swap2\n      pop\n      pop\n      jump\t// out\n        /* \"#utility.yul\":8497:8615   */\n    tag_73:\n        /* \"#utility.yul\":8584:8608   */\n      tag_173\n        /* \"#utility.yul\":8602:8607   */\n      dup2\n        /* \"#utility.yul\":8584:8608   */\n      tag_51\n      jump\t// in\n    tag_173:\n        /* \"#utility.yul\":8579:8582   */\n      dup3\n        /* \"#utility.yul\":8572:8609   */\n      mstore\n        /* \"#utility.yul\":8497:8615   */\n      pop\n      pop\n      jump\t// out\n        /* \"#utility.yul\":8621:9044   */\n    tag_19:\n        /* \"#utility.yul\":8762:8766   */\n      0x00\n        /* \"#utility.yul\":8800:8802   */\n      0x40\n        /* \"#utility.yul\":8789:8798   */\n      dup3\n        /* \"#utility.yul\":8785:8803   */\n      add\n        /* \"#utility.yul\":8777:8803   */\n      swap1\n      pop\n        /* \"#utility.yul\":8849:8858   */\n      dup2\n        /* \"#utility.yul\":8843:8847   */\n      dup2\n        /* \"#utility.yul\":8839:8859   */\n      sub\n        /* \"#utility.yul\":8835:8836   */\n      0x00\n        /* \"#utility.yul\":8824:8833   */\n      dup4\n        /* \"#utility.yul\":8820:8837   */\n      add\n        /* \"#utility.yul\":8813:8860   */\n      mstore\n        /* \"#utility.yul\":8877:8955   */\n      tag_175\n        /* \"#utility.yul\":8950:8954   */\n      dup2\n        /* \"#utility.yul\":8941:8947   */\n      dup6\n        /* \"#utility.yul\":8877:8955   */\n      tag_72\n      jump\t// in\n    tag_175:\n        /* \"#utility.yul\":8869:8955   */\n      swap1\n      pop\n        /* \"#utility.yul\":8965:9037   */\n      tag_176\n        /* \"#utility.yul\":9033:9035   */\n      0x20\n        /* \"#utility.yul\":9022:9031   */\n      dup4\n        /* \"#utility.yul\":9018:9036   */\n      add\n        /* \"#utility.yul\":9009:9015   */\n      dup5\n        /* \"#utility.yul\":8965:9037   */\n      tag_73\n      jump\t// in\n    tag_176:\n        /* \"#utility.yul\":8621:9044   */\n      swap4\n      swap3\n      pop\n      pop\n      pop\n      jump\t// out\n        /* \"#utility.yul\":9050:9230   */\n    tag_74:\n        /* \"#utility.yul\":9098:9175   */\n      0x4e487b7100000000000000000000000000000000000000000000000000000000\n        /* \"#utility.yul\":9095:9096   */\n      0x00\n        /* \"#utility.yul\":9088:9176   */\n      mstore\n        /* \"#utility.yul\":9195:9199   */\n      0x22\n        /* \"#utility.yul\":9192:9193   */\n      0x04\n        /* \"#utility.yul\":9185:9200   */\n      mstore\n        /* \"#utility.yul\":9219:9223   */\n      0x24\n        /* \"#utility.yul\":9216:9217   */\n      0x00\n        /* \"#utility.yul\":9209:9224   */\n      revert\n        /* \"#utility.yul\":9236:9556   */\n    tag_25:\n        /* \"#utility.yul\":9280:9286   */\n      0x00\n        /* \"#utility.yul\":9317:9318   */\n      0x02\n        /* \"#utility.yul\":9311:9315   */\n      dup3\n        /* \"#utility.yul\":9307:9319   */\n      div\n        /* \"#utility.yul\":9297:9319   */\n      swap1\n      pop\n        /* \"#utility.yul\":9364:9365   */\n      0x01\n        /* \"#utility.yul\":9358:9362   */\n      dup3\n        /* \"#utility.yul\":9354:9366   */\n      and\n        /* \"#utility.yul\":9385:9403   */\n      dup1\n        /* \"#utility.yul\":9375:9456   */\n      tag_179\n      jumpi\n        /* \"#utility.yul\":9441:9445   */\n      0x7f\n        /* \"#utility.yul\":9433:9439   */\n      dup3\n        /* \"#utility.yul\":9429:9446   */\n      and\n        /* \"#utility.yul\":9419:9446   */\n      swap2\n      pop\n        /* \"#utility.yul\":9375:9456   */\n    tag_179:\n        /* \"#utility.yul\":9503:9505   */\n      0x20\n        /* \"#utility.yul\":9495:9501   */\n      dup3\n        /* \"#utility.yul\":9492:9506   */\n      lt\n        /* \"#utility.yul\":9472:9490   */\n      dup2\n        /* \"#utility.yul\":9469:9507   */\n      sub\n        /* \"#utility.yul\":9466:9550   */\n      tag_180\n      jumpi\n        /* \"#utility.yul\":9522:9540   */\n      tag_181\n      tag_74\n      jump\t// in\n    tag_181:\n        /* \"#utility.yul\":9466:9550   */\n    tag_180:\n        /* \"#utility.yul\":9287:9556   */\n      pop\n        /* \"#utility.yul\":9236:9556   */\n      swap2\n      swap1\n      pop\n      jump\t// out\n        /* \"#utility.yul\":9562:9703   */\n    tag_75:\n        /* \"#utility.yul\":9611:9615   */\n      0x00\n        /* \"#utility.yul\":9634:9637   */\n      dup2\n        /* \"#utility.yul\":9626:9637   */\n      swap1\n      pop\n        /* \"#utility.yul\":9657:9660   */\n      dup2\n        /* \"#utility.yul\":9654:9655   */\n      0x00\n        /* \"#utility.yul\":9647:9661   */\n      mstore\n        /* \"#utility.yul\":9691:9695   */\n      0x20\n        /* \"#utility.yul\":9688:9689   */\n      0x00\n        /* \"#utility.yul\":9678:9696   */\n      keccak256\n        /* \"#utility.yul\":9670:9696   */\n      swap1\n      pop\n        /* \"#utility.yul\":9562:9703   */\n      swap2\n      swap1\n      pop\n      jump\t// out\n        /* \"#utility.yul\":9709:9802   */\n    tag_76:\n        /* \"#utility.yul\":9746:9752   */\n      0x00\n        /* \"#utility.yul\":9793:9795   */\n      0x20\n        /* \"#utility.yul\":9788:9790   */\n      0x1f\n        /* \"#utility.yul\":9781:9786   */\n      dup4\n        /* \"#utility.yul\":9777:9791   */\n      add\n        /* \"#utility.yul\":9773:9796   */\n      div\n        /* \"#utility.yul\":9763:9796   */\n      swap1\n      pop\n        /* \"#utility.yul\":9709:9802   */\n      swap2\n      swap1\n      pop\n      jump\t// out\n        /* \"#utility.yul\":9808:9915   */\n    tag_77:\n        /* \"#utility.yul\":9852:9860   */\n      0x00\n        /* \"#utility.yul\":9902:9907   */\n      dup3\n        /* \"#utility.yul\":9896:9900   */\n      dup3\n        /* \"#utility.yul\":9892:9908   */\n      shl\n        /* \"#utility.yul\":9871:9908   */\n      swap1\n      pop\n        /* \"#utility.yul\":9808:9915   */\n      swap3\n      swap2\n      pop\n      pop\n      jump\t// out\n        /* \"#utility.yul\":9921:10314   */\n    tag_78:\n        /* \"#utility.yul\":9990:9996   */\n      0x00\n        /* \"#utility.yul\":10040:10041   */\n      0x08\n        /* \"#utility.yul\":10028:10038   */\n      dup4\n        /* \"#utility.yul\":10024:10042   */\n      mul\n        /* \"#utility.yul\":10063:10160   */\n      tag_186\n        /* \"#utility.yul\":10093:10159   */\n      0xffffffffffffffffffffffffffffffffffffffffffffffffffffffffffffffff\n        /* \"#utility.yul\":10082:10091   */\n      dup3\n        /* \"#utility.yul\":10063:10160   */\n      tag_77\n      jump\t// in\n    tag_186:\n        /* \"#utility.yul\":10181:10220   */\n      tag_187\n        /* \"#utility.yul\":10211:10219   */\n      dup7\n        /* \"#utility.yul\":10200:10209   */\n      dup4\n        /* \"#utility.yul\":10181:10220   */\n      tag_77\n      jump\t// in\n    tag_187:\n        /* \"#utility.yul\":10169:10220   */\n      swap6\n      pop\n        /* \"#utility.yul\":10253:10257   */\n      dup1\n        /* \"#utility.yul\":10249:10258   */\n      not\n        /* \"#utility.yul\":10242:10247   */\n      dup5\n        /* \"#utility.yul\":10238:10259   */\n      and\n        /* \"#utility.yul\":10229:10259   */\n      swap4\n      pop\n        /* \"#utility.yul\":10302:10306   */\n      dup1\n        /* \"#utility.yul\":10292:10300   */\n      dup7\n        /* \"#utility.yul\":10288:10307   */\n      and\n        /* \"#utility.yul\":10281:10286   */\n      dup5\n        /* \"#utility.yul\":10278:10308   */\n      or\n        /* \"#utility.yul\":10268:10308   */\n      swap3\n      pop\n        /* \"#utility.yul\":9997:10314   */\n      pop\n      pop\n        /* \"#utility.yul\":9921:10314   */\n      swap4\n      swap3\n      pop\n      pop\n      pop\n      jump\t// out\n        /* \"#utility.yul\":10320:10380   */\n    tag_79:\n        /* \"#utility.yul\":10348:10351   */\n      0x00\n        /* \"#utility.yul\":10369:10374   */\n      dup2\n        /* \"#utility.yul\":10362:10374   */\n      swap1\n      pop\n        /* \"#utility.yul\":10320:10380   */\n      swap2\n      swap1\n      pop\n      jump\t// out\n        /* \"#utility.yul\":10386:10528   */\n    tag_80:\n        /* \"#utility.yul\":10436:10445   */\n      0x00\n        /* \"#utility.yul\":10469:10522   */\n      tag_190\n        /* \"#utility.yul\":10487:10521   */\n      tag_191\n        /* \"#utility.yul\":10496:10520   */\n      tag_192\n        /* \"#utility.yul\":10514:10519   */\n      dup5\n        /* \"#utility.yul\":10496:10520   */\n      tag_51\n      jump\t// in\n    tag_192:\n        /* \"#utility.yul\":10487:10521   */\n      tag_79\n      jump\t// in\n    tag_191:\n        /* \"#utility.yul\":10469:10522   */\n      tag_51\n      jump\t// in\n    tag_190:\n        /* \"#utility.yul\":10456:10522   */\n      swap1\n      pop\n        /* \"#utility.yul\":10386:10528   */\n      swap2\n      swap1\n      pop\n      jump\t// out\n        /* \"#utility.yul\":10534:10609   */\n    tag_81:\n        /* \"#utility.yul\":10577:10580   */\n      0x00\n        /* \"#utility.yul\":10598:10603   */\n      dup2\n        /* \"#utility.yul\":10591:10603   */\n      swap1\n      pop\n        /* \"#utility.yul\":10534:10609   */\n      swap2\n      swap1\n      pop\n      jump\t// out\n        /* \"#utility.yul\":10615:10884   */\n    tag_82:\n        /* \"#utility.yul\":10725:10764   */\n      tag_195\n        /* \"#utility.yul\":10756:10763   */\n      dup4\n        /* \"#utility.yul\":10725:10764   */\n      tag_80\n      jump\t// in\n    tag_195:\n        /* \"#utility.yul\":10786:10877   */\n      tag_196\n        /* \"#utility.yul\":10835:10876   */\n      tag_197\n        /* \"#utility.yul\":10859:10875   */\n      dup3\n        /* \"#utility.yul\":10835:10876   */\n      tag_81\n      jump\t// in\n    tag_197:\n        /* \"#utility.yul\":10827:10833   */\n      dup5\n        /* \"#utility.yul\":10820:10824   */\n      dup5\n        /* \"#utility.yul\":10814:10825   */\n      sload\n        /* \"#utility.yul\":10786:10877   */\n      tag_78\n      jump\t// in\n    tag_196:\n        /* \"#utility.yul\":10780:10784   */\n      dup3\n        /* \"#utility.yul\":10773:10878   */\n      sstore\n        /* \"#utility.yul\":10691:10884   */\n      pop\n        /* \"#utility.yul\":10615:10884   */\n      pop\n      pop\n      pop\n      jump\t// out\n        /* \"#utility.yul\":10890:10963   */\n    tag_83:\n        /* \"#utility.yul\":10935:10938   */\n      0x00\n        /* \"#utility.yul\":10890:10963   */\n      swap1\n      jump\t// out\n        /* \"#utility.yul\":10969:11158   */\n    tag_84:\n        /* \"#utility.yul\":11046:11078   */\n      tag_200\n      tag_83\n      jump\t// in\n    tag_200:\n        /* \"#utility.yul\":11087:11152   */\n      tag_201\n        /* \"#utility.yul\":11145:11151   */\n      dup2\n        /* \"#utility.yul\":11137:11143   */\n      dup5\n        /* \"#utility.yul\":11131:11135   */\n      dup5\n        /* \"#utility.yul\":11087:11152   */\n      tag_82\n      jump\t// in\n    tag_201:\n        /* \"#utility.yul\":11022:11158   */\n      pop\n        /* \"#utility.yul\":10969:11158   */\n      pop\n      pop\n      jump\t// out\n        /* \"#utility.yul\":11164:11350   */\n    tag_85:\n        /* \"#utility.yul\":11224:11344   */\n    tag_203:\n        /* \"#utility.yul\":11241:11244   */\n      dup2\n        /* \"#utility.yul\":11234:11239   */\n      dup2\n        /* \"#utility.yul\":11231:11245   */\n      lt\n        /* \"#utility.yul\":11224:11344   */\n      iszero\n      tag_205\n      jumpi\n        /* \"#utility.yul\":11295:11334   */\n      tag_206\n        /* \"#utility.yul\":11332:11333   */\n      0x00\n        /* \"#utility.yul\":11325:11330   */\n      dup3\n        /* \"#utility.yul\":11295:11334   */\n      tag_84\n      jump\t// in\n    tag_206:\n        /* \"#utility.yul\":11268:11269   */\n      0x01\n        /* \"#utility.yul\":11261:11266   */\n      dup2\n        /* \"#utility.yul\":11257:11270   */\n      add\n        /* \"#utility.yul\":11248:11270   */\n      swap1\n      pop\n        /* \"#utility.yul\":11224:11344   */\n      jump(tag_203)\n    tag_205:\n        /* \"#utility.yul\":11164:11350   */\n      pop\n      pop\n      jump\t// out\n        /* \"#utility.yul\":11356:11899   */\n    tag_86:\n        /* \"#utility.yul\":11457:11459   */\n      0x1f\n        /* \"#utility.yul\":11452:11455   */\n      dup3\n        /* \"#utility.yul\":11449:11460   */\n      gt\n        /* \"#utility.yul\":11446:11892   */\n      iszero\n      tag_208\n      jumpi\n        /* \"#utility.yul\":11491:11529   */\n      tag_209\n        /* \"#utility.yul\":11523:11528   */\n      dup2\n        /* \"#utility.yul\":11491:11529   */\n      tag_75\n      jump\t// in\n    tag_209:\n        /* \"#utility.yul\":11575:11604   */\n      tag_210\n        /* \"#utility.yul\":11593:11603   */\n      dup5\n        /* \"#utility.yul\":11575:11604   */\n      tag_76\n      jump\t// in\n    tag_210:\n        /* \"#utility.yul\":11565:11573   */\n      dup2\n        /* \"#utility.yul\":11561:11605   */\n      add\n        /* \"#utility.yul\":11758:11760   */\n      0x20\n        /* \"#utility.yul\":11746:11756   */\n      dup6\n        /* \"#utility.yul\":11743:11761   */\n      lt\n        /* \"#utility.yul\":11740:11789   */\n      iszero\n      tag_211\n      jumpi\n        /* \"#utility.yul\":11779:11787   */\n      dup2\n        /* \"#utility.yul\":11764:11787   */\n      swap1\n      pop\n        /* \"#utility.yul\":11740:11789   */\n    tag_211:\n        /* \"#utility.yul\":11802:11882   */\n      tag_212\n        /* \"#utility.yul\":11858:11880   */\n      tag_213\n        /* \"#utility.yul\":11876:11879   */\n      dup6\n        /* \"#utility.yul\":11858:11880   */\n      tag_76\n      jump\t// in\n    tag_213:\n        /* \"#utility.yul\":11848:11856   */\n      dup4\n        /* \"#utility.yul\":11844:11881   */\n      add\n        /* \"#utility.yul\":11831:11842   */\n      dup3\n        /* \"#utility.yul\":11802:11882   */\n      tag_85\n      jump\t// in\n    tag_212:\n        /* \"#utility.yul\":11461:11892   */\n      pop\n      pop\n        /* \"#utility.yul\":11446:11892   */\n    tag_208:\n        /* \"#utility.yul\":11356:11899   */\n      pop\n      pop\n      pop\n      jump\t// out\n        /* \"#utility.yul\":11905:12022   */\n    tag_87:\n        /* \"#utility.yul\":11959:11967   */\n      0x00\n        /* \"#utility.yul\":12009:12014   */\n      dup3\n        /* \"#utility.yul\":12003:12007   */\n      dup3\n        /* \"#utility.yul\":11999:12015   */\n      shr\n        /* \"#utility.yul\":11978:12015   */\n      swap1\n      pop\n        /* \"#utility.yul\":11905:12022   */\n      swap3\n      swap2\n      pop\n      pop\n      jump\t// out\n        /* \"#utility.yul\":12028:12197   */\n    tag_88:\n        /* \"#utility.yul\":12072:12078   */\n      0x00\n        /* \"#utility.yul\":12105:12156   */\n      tag_216\n        /* \"#utility.yul\":12153:12154   */\n      0x00\n        /* \"#utility.yul\":12149:12155   */\n      not\n        /* \"#utility.yul\":12141:12146   */\n      dup5\n        /* \"#utility.yul\":12138:12139   */\n      0x08\n        /* \"#utility.yul\":12134:12147   */\n      mul\n        /* \"#utility.yul\":12105:12156   */\n      tag_87\n      jump\t// in\n    tag_216:\n        /* \"#utility.yul\":12101:12157   */\n      not\n        /* \"#utility.yul\":12186:12190   */\n      dup1\n        /* \"#utility.yul\":12180:12184   */\n      dup4\n        /* \"#utility.yul\":12176:12191   */\n      and\n        /* \"#utility.yul\":12166:12191   */\n      swap2\n      pop\n        /* \"#utility.yul\":12079:12197   */\n      pop\n        /* \"#utility.yul\":12028:12197   */\n      swap3\n      swap2\n      pop\n      pop\n      jump\t// out\n        /* \"#utility.yul\":12202:12497   */\n    tag_89:\n        /* \"#utility.yul\":12278:12282   */\n      0x00\n        /* \"#utility.yul\":12424:12453   */\n      tag_218\n        /* \"#utility.yul\":12449:12452   */\n      dup4\n        /* \"#utility.yul\":12443:12447   */\n      dup4\n        /* \"#utility.yul\":12424:12453   */\n      tag_88\n      jump\t// in\n    tag_218:\n        /* \"#utility.yul\":12416:12453   */\n      swap2\n      pop\n        /* \"#utility.yul\":12486:12489   */\n      dup3\n        /* \"#utility.yul\":12483:12484   */\n      0x02\n        /* \"#utility.yul\":12479:12490   */\n      mul\n        /* \"#utility.yul\":12473:12477   */\n      dup3\n        /* \"#utility.yul\":12470:12491   */\n      or\n        /* \"#utility.yul\":12462:12491   */\n      swap1\n      pop\n        /* \"#utility.yul\":12202:12497   */\n      swap3\n      swap2\n      pop\n      pop\n      jump\t// out\n        /* \"#utility.yul\":12502:13897   */\n    tag_33:\n        /* \"#utility.yul\":12619:12656   */\n      tag_220\n        /* \"#utility.yul\":12652:12655   */\n      dup3\n        /* \"#utility.yul\":12619:12656   */\n      tag_46\n      jump\t// in\n    tag_220:\n        /* \"#utility.yul\":12721:12739   */\n      0xffffffffffffffff\n        /* \"#utility.yul\":12713:12719   */\n      dup2\n        /* \"#utility.yul\":12710:12740   */\n      gt\n        /* \"#utility.yul\":12707:12763   */\n      iszero\n      tag_221\n      jumpi\n        /* \"#utility.yul\":12743:12761   */\n      tag_222\n      tag_62\n      jump\t// in\n    tag_222:\n        /* \"#utility.yul\":12707:12763   */\n    tag_221:\n        /* \"#utility.yul\":12787:12825   */\n      tag_223\n        /* \"#utility.yul\":12819:12823   */\n      dup3\n        /* \"#utility.yul\":12813:12824   */\n      sload\n        /* \"#utility.yul\":12787:12825   */\n      tag_25\n      jump\t// in\n    tag_223:\n        /* \"#utility.yul\":12872:12939   */\n      tag_224\n        /* \"#utility.yul\":12932:12938   */\n      dup3\n        /* \"#utility.yul\":12924:12930   */\n      dup3\n        /* \"#utility.yul\":12918:12922   */\n      dup6\n        /* \"#utility.yul\":12872:12939   */\n      tag_86\n      jump\t// in\n    tag_224:\n        /* \"#utility.yul\":12966:12967   */\n      0x00\n        /* \"#utility.yul\":12990:12994   */\n      0x20\n        /* \"#utility.yul\":12977:12994   */\n      swap1\n      pop\n        /* \"#utility.yul\":13022:13024   */\n      0x1f\n        /* \"#utility.yul\":13014:13020   */\n      dup4\n        /* \"#utility.yul\":13011:13025   */\n      gt\n        /* \"#utility.yul\":13039:13040   */\n      0x01\n        /* \"#utility.yul\":13034:13652   */\n      dup2\n      eq\n      tag_226\n      jumpi\n        /* \"#utility.yul\":13696:13697   */\n      0x00\n        /* \"#utility.yul\":13713:13719   */\n      dup5\n        /* \"#utility.yul\":13710:13787   */\n      iszero\n      tag_227\n      jumpi\n        /* \"#utility.yul\":13762:13771   */\n      dup3\n        /* \"#utility.yul\":13757:13760   */\n      dup8\n        /* \"#utility.yul\":13753:13772   */\n      add\n        /* \"#utility.yul\":13747:13773   */\n      mload\n        /* \"#utility.yul\":13738:13773   */\n      swap1\n      pop\n        /* \"#utility.yul\":13710:13787   */\n    tag_227:\n        /* \"#utility.yul\":13813:13880   */\n      tag_228\n        /* \"#utility.yul\":13873:13879   */\n      dup6\n        /* \"#utility.yul\":13866:13871   */\n      dup3\n        /* \"#utility.yul\":13813:13880   */\n      tag_89\n      jump\t// in\n    tag_228:\n        /* \"#utility.yul\":13807:13811   */\n      dup7\n        /* \"#utility.yul\":13800:13881   */\n      sstore\n        /* \"#utility.yul\":13669:13891   */\n      pop\n        /* \"#utility.yul\":13004:13891   */\n      jump(tag_225)\n        /* \"#utility.yul\":13034:13652   */\n    tag_226:\n        /* \"#utility.yul\":13086:13090   */\n      0x1f\n        /* \"#utility.yul\":13082:13091   */\n      not\n        /* \"#utility.yul\":13074:13080   */\n      dup5\n        /* \"#utility.yul\":13070:13092   */\n      and\n        /* \"#utility.yul\":13120:13157   */\n      tag_229\n        /* \"#utility.yul\":13152:13156   */\n      dup7\n        /* \"#utility.yul\":13120:13157   */\n      tag_75\n      jump\t// in\n    tag_229:\n        /* \"#utility.yul\":13179:13180   */\n      0x00\n        /* \"#utility.yul\":13193:13401   */\n    tag_230:\n        /* \"#utility.yul\":13207:13214   */\n      dup3\n        /* \"#utility.yul\":13204:13205   */\n      dup2\n        /* \"#utility.yul\":13201:13215   */\n      lt\n        /* \"#utility.yul\":13193:13401   */\n      iszero\n      tag_232\n      jumpi\n        /* \"#utility.yul\":13286:13295   */\n      dup5\n        /* \"#utility.yul\":13281:13284   */\n      dup10\n        /* \"#utility.yul\":13277:13296   */\n      add\n        /* \"#utility.yul\":13271:13297   */\n      mload\n        /* \"#utility.yul\":13263:13269   */\n      dup3\n        /* \"#utility.yul\":13256:13298   */\n      sstore\n        /* \"#utility.yul\":13337:13338   */\n      0x01\n        /* \"#utility.yul\":13329:13335   */\n      dup3\n        /* \"#utility.yul\":13325:13339   */\n      add\n        /* \"#utility.yul\":13315:13339   */\n      swap2\n      pop\n        /* \"#utility.yul\":13384:13386   */\n      0x20\n        /* \"#utility.yul\":13373:13382   */\n      dup6\n        /* \"#utility.yul\":13369:13387   */\n      add\n        /* \"#utility.yul\":13356:13387   */\n      swap5\n      pop\n        /* \"#utility.yul\":13230:13234   */\n      0x20\n        /* \"#utility.yul\":13227:13228   */\n      dup2\n        /* \"#utility.yul\":13223:13235   */\n      add\n        /* \"#utility.yul\":13218:13235   */\n      swap1\n      pop\n        /* \"#utility.yul\":13193:13401   */\n      jump(tag_230)\n    tag_232:\n        /* \"#utility.yul\":13429:13435   */\n      dup7\n        /* \"#utility.yul\":13420:13427   */\n      dup4\n        /* \"#utility.yul\":13417:13436   */\n      lt\n        /* \"#utility.yul\":13414:13593   */\n      iszero\n      tag_233\n      jumpi\n        /* \"#utility.yul\":13487:13496   */\n      dup5\n        /* \"#utility.yul\":13482:13485   */\n      dup10\n        /* \"#utility.yul\":13478:13497   */\n      add\n        /* \"#utility.yul\":13472:13498   */\n      mload\n        /* \"#utility.yul\":13530:13578   */\n      tag_234\n        /* \"#utility.yul\":13572:13576   */\n      0x1f\n        /* \"#utility.yul\":13564:13570   */\n      dup10\n        /* \"#utility.yul\":13560:13577   */\n      and\n        /* \"#utility.yul\":13549:13558   */\n      dup3\n        /* \"#utility.yul\":13530:13578   */\n      tag_88\n      jump\t// in\n    tag_234:\n        /* \"#utility.yul\":13522:13528   */\n      dup4\n        /* \"#utility.yul\":13515:13579   */\n      sstore\n        /* \"#utility.yul\":13437:13593   */\n      pop\n        /* \"#utility.yul\":13414:13593   */\n    tag_233:\n        /* \"#utility.yul\":13639:13640   */\n      0x01\n        /* \"#utility.yul\":13635:13636   */\n      0x02\n        /* \"#utility.yul\":13627:13633   */\n      dup9\n        /* \"#utility.yul\":13623:13637   */\n      mul\n        /* \"#utility.yul\":13619:13641   */\n      add\n        /* \"#utility.yul\":13613:13617   */\n      dup9\n        /* \"#utility.yul\":13606:13642   */\n      sstore\n        /* \"#utility.yul\":13041:13652   */\n      pop\n      pop\n      pop\n        /* \"#utility.yul\":13004:13891   */\n    tag_225:\n      pop\n        /* \"#utility.yul\":12594:13897   */\n      pop\n      pop\n      pop\n        /* \"#utility.yul\":12502:13897   */\n      pop\n      pop\n      jump\t// out\n        /* \"#utility.yul\":13903:14216   */\n    tag_35:\n        /* \"#utility.yul\":14016:14020   */\n      0x00\n        /* \"#utility.yul\":14054:14056   */\n      0x20\n        /* \"#utility.yul\":14043:14052   */\n      dup3\n        /* \"#utility.yul\":14039:14057   */\n      add\n        /* \"#utility.yul\":14031:14057   */\n      swap1\n      pop\n        /* \"#utility.yul\":14103:14112   */\n      dup2\n        /* \"#utility.yul\":14097:14101   */\n      dup2\n        /* \"#utility.yul\":14093:14113   */\n      sub\n        /* \"#utility.yul\":14089:14090   */\n      0x00\n        /* \"#utility.yul\":14078:14087   */\n      dup4\n        /* \"#utility.yul\":14074:14091   */\n      add\n        /* \"#utility.yul\":14067:14114   */\n      mstore\n        /* \"#utility.yul\":14131:14209   */\n      tag_236\n        /* \"#utility.yul\":14204:14208   */\n      dup2\n        /* \"#utility.yul\":14195:14201   */\n      dup5\n        /* \"#utility.yul\":14131:14209   */\n      tag_72\n      jump\t// in\n    tag_236:\n        /* \"#utility.yul\":14123:14209   */\n      swap1\n      pop\n        /* \"#utility.yul\":13903:14216   */\n      swap3\n      swap2\n      pop\n      pop\n      jump\t// out\n\n    auxdata: 0xa264697066735822122072265078d568fd3eed930ff89df0eacbd131fad9a98f6d722efc76b280b53dba64736f6c63430008190033\n}\n",
				"bytecode": {
					"linkReferences": {},
					"object": "6080604052348015600e575f80fd5b50610a068061001c5f395ff3fe608060405234801561000f575f80fd5b506004361061003f575f3560e01c8063198cc69114610043578063503c560f146100615780638f023f851461007d575b5f80fd5b61004b6100ae565b6040516100589190610469565b60405180910390f35b61007b600480360381019061007691906105c6565b6101a2565b005b61009760048036038101906100929190610637565b610238565b6040516100a59291906106b9565b60405180910390f35b60605f805480602002602001604051908101604052809291908181526020015f905b82821015610199578382905f5260205f2090600202016040518060400160405290815f8201805461010090610714565b80601f016020809104026020016040519081016040528092919081815260200182805461012c90610714565b80156101775780601f1061014e57610100808354040283529160200191610177565b820191905f5260205f20905b81548152906001019060200180831161015a57829003601f168201915b50505050508152602001600182015481525050815260200190600101906100d0565b50505050905090565b5f60405180604001604052808381526020015f815250908060018154018082558091505060019003905f5260205f2090600202015f909190919091505f820151815f0190816101f191906108e1565b506020820151816001015550507f566c2d39711b082cc685ade507dee6291f47044333d9aba4037034cdc3cfac9e8160405161022d91906109b0565b60405180910390a150565b5f8181548110610246575f80fd5b905f5260205f2090600202015f91509050805f01805461026590610714565b80601f016020809104026020016040519081016040528092919081815260200182805461029190610714565b80156102dc5780601f106102b3576101008083540402835291602001916102dc565b820191905f5260205f20905b8154815290600101906020018083116102bf57829003601f168201915b5050505050908060010154905082565b5f81519050919050565b5f82825260208201905092915050565b5f819050602082019050919050565b5f81519050919050565b5f82825260208201905092915050565b8281835e5f83830152505050565b5f601f19601f8301169050919050565b5f61035782610315565b610361818561031f565b935061037181856020860161032f565b61037a8161033d565b840191505092915050565b5f819050919050565b61039781610385565b82525050565b5f604083015f8301518482035f8601526103b7828261034d565b91505060208301516103cc602086018261038e565b508091505092915050565b5f6103e2838361039d565b905092915050565b5f602082019050919050565b5f610400826102ec565b61040a81856102f6565b93508360208202850161041c85610306565b805f5b85811015610457578484038952815161043885826103d7565b9450610443836103ea565b925060208a0199505060018101905061041f565b50829750879550505050505092915050565b5f6020820190508181035f83015261048181846103f6565b905092915050565b5f604051905090565b5f80fd5b5f80fd5b5f80fd5b5f80fd5b7f4e487b71000000000000000000000000000000000000000000000000000000005f52604160045260245ffd5b6104d88261033d565b810181811067ffffffffffffffff821117156104f7576104f66104a2565b5b80604052505050565b5f610509610489565b905061051582826104cf565b919050565b5f67ffffffffffffffff821115610534576105336104a2565b5b61053d8261033d565b9050602081019050919050565b828183375f83830152505050565b5f61056a6105658461051a565b610500565b9050828152602081018484840111156105865761058561049e565b5b61059184828561054a565b509392505050565b5f82601f8301126105ad576105ac61049a565b5b81356105bd848260208601610558565b91505092915050565b5f602082840312156105db576105da610492565b5b5f82013567ffffffffffffffff8111156105f8576105f7610496565b5b61060484828501610599565b91505092915050565b61061681610385565b8114610620575f80fd5b50565b5f813590506106318161060d565b92915050565b5f6020828403121561064c5761064b610492565b5b5f61065984828501610623565b91505092915050565b5f82825260208201905092915050565b5f61067c82610315565b6106868185610662565b935061069681856020860161032f565b61069f8161033d565b840191505092915050565b6106b381610385565b82525050565b5f6040820190508181035f8301526106d18185610672565b90506106e060208301846106aa565b9392505050565b7f4e487b71000000000000000000000000000000000000000000000000000000005f52602260045260245ffd5b5f600282049050600182168061072b57607f821691505b60208210810361073e5761073d6106e7565b5b50919050565b5f819050815f5260205f209050919050565b5f6020601f8301049050919050565b5f82821b905092915050565b5f600883026107a07fffffffffffffffffffffffffffffffffffffffffffffffffffffffffffffffff82610765565b6107aa8683610765565b95508019841693508086168417925050509392505050565b5f819050919050565b5f6107e56107e06107db84610385565b6107c2565b610385565b9050919050565b5f819050919050565b6107fe836107cb565b61081261080a826107ec565b848454610771565b825550505050565b5f90565b61082661081a565b6108318184846107f5565b505050565b5b81811015610854576108495f8261081e565b600181019050610837565b5050565b601f8211156108995761086a81610744565b61087384610756565b81016020851015610882578190505b61089661088e85610756565b830182610836565b50505b505050565b5f82821c905092915050565b5f6108b95f198460080261089e565b1980831691505092915050565b5f6108d183836108aa565b9150826002028217905092915050565b6108ea82610315565b67ffffffffffffffff811115610903576109026104a2565b5b61090d8254610714565b610918828285610858565b5f60209050601f831160018114610949575f8415610937578287015190505b61094185826108c6565b8655506109a8565b601f19841661095786610744565b5f5b8281101561097e57848901518255600182019150602085019450602081019050610959565b8683101561099b5784890151610997601f8916826108aa565b8355505b6001600288020188555050505b505050505050565b5f6020820190508181035f8301526109c88184610672565b90509291505056fea264697066735822122072265078d568fd3eed930ff89df0eacbd131fad9a98f6d722efc76b280b53dba64736f6c63430008190033",
					"opcodes": "PUSH1 0x80 PUSH1 0x40 MSTORE CALLVALUE DUP1 ISZERO PUSH1 0xE JUMPI PUSH0 DUP1 REVERT JUMPDEST POP PUSH2 0xA06 DUP1 PUSH2 0x1C PUSH0 CODECOPY PUSH0 RETURN INVALID PUSH1 0x80 PUSH1 0x40 MSTORE CALLVALUE DUP1 ISZERO PUSH2 0xF JUMPI PUSH0 DUP1 REVERT JUMPDEST POP PUSH1 0x4 CALLDATASIZE LT PUSH2 0x3F JUMPI PUSH0 CALLDATALOAD PUSH1 0xE0 SHR DUP1 PUSH4 0x198CC691 EQ PUSH2 0x43 JUMPI DUP1 PUSH4 0x503C560F EQ PUSH2 0x61 JUMPI DUP1 PUSH4 0x8F023F85 EQ PUSH2 0x7D JUMPI JUMPDEST PUSH0 DUP1 REVERT JUMPDEST PUSH2 0x4B PUSH2 0xAE JUMP JUMPDEST PUSH1 0x40 MLOAD PUSH2 0x58 SWAP2 SWAP1 PUSH2 0x469 JUMP JUMPDEST PUSH1 0x40 MLOAD DUP1 SWAP2 SUB SWAP1 RETURN JUMPDEST PUSH2 0x7B PUSH1 0x4 DUP1 CALLDATASIZE SUB DUP2 ADD SWAP1 PUSH2 0x76 SWAP2 SWAP1 PUSH2 0x5C6 JUMP JUMPDEST PUSH2 0x1A2 JUMP JUMPDEST STOP JUMPDEST PUSH2 0x97 PUSH1 0x4 DUP1 CALLDATASIZE SUB DUP2 ADD SWAP1 PUSH2 0x92 SWAP2 SWAP1 PUSH2 0x637 JUMP JUMPDEST PUSH2 0x238 JUMP JUMPDEST PUSH1 0x40 MLOAD PUSH2 0xA5 SWAP3 SWAP2 SWAP1 PUSH2 0x6B9 JUMP JUMPDEST PUSH1 0x40 MLOAD DUP1 SWAP2 SUB SWAP1 RETURN JUMPDEST PUSH1 0x60 PUSH0 DUP1 SLOAD DUP1 PUSH1 0x20 MUL PUSH1 0x20 ADD PUSH1 0x40 MLOAD SWAP1 DUP2 ADD PUSH1 0x40 MSTORE DUP1 SWAP3 SWAP2 SWAP1 DUP2 DUP2 MSTORE PUSH1 0x20 ADD PUSH0 SWAP1 JUMPDEST DUP3 DUP3 LT ISZERO PUSH2 0x199 JUMPI DUP4 DUP3 SWAP1 PUSH0 MSTORE PUSH1 0x20 PUSH0 KECCAK256 SWAP1 PUSH1 0x2 MUL ADD PUSH1 0x40 MLOAD DUP1 PUSH1 0x40 ADD PUSH1 0x40 MSTORE SWAP1 DUP2 PUSH0 DUP3 ADD DUP1 SLOAD PUSH2 0x100 SWAP1 PUSH2 0x714 JUMP JUMPDEST DUP1 PUSH1 0x1F ADD PUSH1 0x20 DUP1 SWAP2 DIV MUL PUSH1 0x20 ADD PUSH1 0x40 MLOAD SWAP1 DUP2 ADD PUSH1 0x40 MSTORE DUP1 SWAP3 SWAP2 SWAP1 DUP2 DUP2 MSTORE PUSH1 0x20 ADD DUP3 DUP1 SLOAD PUSH2 0x12C SWAP1 PUSH2 0x714 JUMP JUMPDEST DUP1 ISZERO PUSH2 0x177 JUMPI DUP1 PUSH1 0x1F LT PUSH2 0x14E JUMPI PUSH2 0x100 DUP1 DUP4 SLOAD DIV MUL DUP4 MSTORE SWAP2 PUSH1 0x20 ADD SWAP2 PUSH2 0x177 JUMP JUMPDEST DUP3 ADD SWAP2 SWAP1 PUSH0 MSTORE PUSH1 0x20 PUSH0 KECCAK256 SWAP1 JUMPDEST DUP2 SLOAD DUP2 MSTORE SWAP1 PUSH1 0x1 ADD SWAP1 PUSH1 0x20 ADD DUP1 DUP4 GT PUSH2 0x15A JUMPI DUP3 SWAP1 SUB PUSH1 0x1F AND DUP3 ADD SWAP2 JUMPDEST POP POP POP POP POP DUP2 MSTORE PUSH1 0x20 ADD PUSH1 0x1 DUP3 ADD SLOAD DUP2 MSTORE POP POP DUP2 MSTORE PUSH1 0x20 ADD SWAP1 PUSH1 0x1 ADD SWAP1 PUSH2 0xD0 JUMP JUMPDEST POP POP POP POP SWAP1 POP SWAP1 JUMP JUMPDEST PUSH0 PUSH1 0x40 MLOAD DUP1 PUSH1 0x40 ADD PUSH1 0x40 MSTORE DUP1 DUP4 DUP2 MSTORE PUSH1 0x20 ADD PUSH0 DUP2 MSTORE POP SWAP1 DUP1 PUSH1 0x1 DUP2 SLOAD ADD DUP1 DUP3 SSTORE DUP1 SWAP2 POP POP PUSH1 0x1 SWAP1 SUB SWAP1 PUSH0 MSTORE PUSH1 0x20 PUSH0 KECCAK256 SWAP1 PUSH1 0x2 MUL ADD PUSH0 SWAP1 SWAP2 SWAP1 SWAP2 SWAP1 SWAP2 POP PUSH0 DUP3 ADD MLOAD DUP2 PUSH0 ADD SWAP1 DUP2 PUSH2 0x1F1 SWAP2 SWAP1 PUSH2 0x8E1 JUMP JUMPDEST POP PUSH1 0x20 DUP3 ADD MLOAD DUP2 PUSH1 0x1 ADD SSTORE POP POP PUSH32 0x566C2D39711B082CC685ADE507DEE6291F47044333D9ABA4037034CDC3CFAC9E DUP2 PUSH1 0x40 MLOAD PUSH2 0x22D SWAP2 SWAP1 PUSH2 0x9B0 JUMP JUMPDEST PUSH1 0x40 MLOAD DUP1 SWAP2 SUB SWAP1 LOG1 POP JUMP JUMPDEST PUSH0 DUP2 DUP2 SLOAD DUP2 LT PUSH2 0x246 JUMPI PUSH0 DUP1 REVERT JUMPDEST SWAP1 PUSH0 MSTORE PUSH1 0x20 PUSH0 KECCAK256 SWAP1 PUSH1 0x2 MUL ADD PUSH0 SWAP2 POP SWAP1 POP DUP1 PUSH0 ADD DUP1 SLOAD PUSH2 0x265 SWAP1 PUSH2 0x714 JUMP JUMPDEST DUP1 PUSH1 0x1F ADD PUSH1 0x20 DUP1 SWAP2 DIV MUL PUSH1 0x20 ADD PUSH1 0x40 MLOAD SWAP1 DUP2 ADD PUSH1 0x40 MSTORE DUP1 SWAP3 SWAP2 SWAP1 DUP2 DUP2 MSTORE PUSH1 0x20 ADD DUP3 DUP1 SLOAD PUSH2 0x291 SWAP1 PUSH2 0x714 JUMP JUMPDEST DUP1 ISZERO PUSH2 0x2DC JUMPI DUP1 PUSH1 0x1F LT PUSH2 0x2B3 JUMPI PUSH2 0x100 DUP1 DUP4 SLOAD DIV MUL DUP4 MSTORE SWAP2 PUSH1 0x20 ADD SWAP2 PUSH2 0x2DC JUMP JUMPDEST DUP3 ADD SWAP2 SWAP1 PUSH0 MSTORE PUSH1 0x20 PUSH0 KECCAK256 SWAP1 JUMPDEST DUP2 SLOAD DUP2 MSTORE SWAP1 PUSH1 0x1 ADD SWAP1 PUSH1 0x20 ADD DUP1 DUP4 GT PUSH2 0x2BF JUMPI DUP3 SWAP1 SUB PUSH1 0x1F AND DUP3 ADD SWAP2 JUMPDEST POP POP POP POP POP SWAP1 DUP1 PUSH1 0x1 ADD SLOAD SWAP1 POP DUP3 JUMP JUMPDEST PUSH0 DUP2 MLOAD SWAP1 POP SWAP2 SWAP1 POP JUMP JUMPDEST PUSH0 DUP3 DUP3 MSTORE PUSH1 0x20 DUP3 ADD SWAP1 POP SWAP3 SWAP2 POP POP JUMP JUMPDEST PUSH0 DUP2 SWAP1 POP PUSH1 0x20 DUP3 ADD SWAP1 POP SWAP2 SWAP1 POP JUMP JUMPDEST PUSH0 DUP2 MLOAD SWAP1 POP SWAP2 SWAP1 POP JUMP JUMPDEST PUSH0 DUP3 DUP3 MSTORE PUSH1 0x20 DUP3 ADD SWAP1 POP SWAP3 SWAP2 POP POP JUMP JUMPDEST DUP3 DUP2 DUP4 MCOPY PUSH0 DUP4 DUP4 ADD MSTORE POP POP POP JUMP JUMPDEST PUSH0 PUSH1 0x1F NOT PUSH1 0x1F DUP4 ADD AND SWAP1 POP SWAP2 SWAP1 POP JUMP JUMPDEST PUSH0 PUSH2 0x357 DUP3 PUSH2 0x315 JUMP JUMPDEST PUSH2 0x361 DUP2 DUP6 PUSH2 0x31F JUMP JUMPDEST SWAP4 POP PUSH2 0x371 DUP2 DUP6 PUSH1 0x20 DUP7 ADD PUSH2 0x32F JUMP JUMPDEST PUSH2 0x37A DUP2 PUSH2 0x33D JUMP JUMPDEST DUP5 ADD SWAP2 POP POP SWAP3 SWAP2 POP POP JUMP JUMPDEST PUSH0 DUP2 SWAP1 POP SWAP2 SWAP1 POP JUMP JUMPDEST PUSH2 0x397 DUP2 PUSH2 0x385 JUMP JUMPDEST DUP3 MSTORE POP POP JUMP JUMPDEST PUSH0 PUSH1 0x40 DUP4 ADD PUSH0 DUP4 ADD MLOAD DUP5 DUP3 SUB PUSH0 DUP7 ADD MSTORE PUSH2 0x3B7 DUP3 DUP3 PUSH2 0x34D JUMP JUMPDEST SWAP2 POP POP PUSH1 0x20 DUP4 ADD MLOAD PUSH2 0x3CC PUSH1 0x20 DUP7 ADD DUP3 PUSH2 0x38E JUMP JUMPDEST POP DUP1 SWAP2 POP POP SWAP3 SWAP2 POP POP JUMP JUMPDEST PUSH0 PUSH2 0x3E2 DUP4 DUP4 PUSH2 0x39D JUMP JUMPDEST SWAP1 POP SWAP3 SWAP2 POP POP JUMP JUMPDEST PUSH0 PUSH1 0x20 DUP3 ADD SWAP1 POP SWAP2 SWAP1 POP JUMP JUMPDEST PUSH0 PUSH2 0x400 DUP3 PUSH2 0x2EC JUMP JUMPDEST PUSH2 0x40A DUP2 DUP6 PUSH2 0x2F6 JUMP JUMPDEST SWAP4 POP DUP4 PUSH1 0x20 DUP3 MUL DUP6 ADD PUSH2 0x41C DUP6 PUSH2 0x306 JUMP JUMPDEST DUP1 PUSH0 JUMPDEST DUP6 DUP2 LT ISZERO PUSH2 0x457 JUMPI DUP5 DUP5 SUB DUP10 MSTORE DUP2 MLOAD PUSH2 0x438 DUP6 DUP3 PUSH2 0x3D7 JUMP JUMPDEST SWAP5 POP PUSH2 0x443 DUP4 PUSH2 0x3EA JUMP JUMPDEST SWAP3 POP PUSH1 0x20 DUP11 ADD SWAP10 POP POP PUSH1 0x1 DUP2 ADD SWAP1 POP PUSH2 0x41F JUMP JUMPDEST POP DUP3 SWAP8 POP DUP8 SWAP6 POP POP POP POP POP POP SWAP3 SWAP2 POP POP JUMP JUMPDEST PUSH0 PUSH1 0x20 DUP3 ADD SWAP1 POP DUP2 DUP2 SUB PUSH0 DUP4 ADD MSTORE PUSH2 0x481 DUP2 DUP5 PUSH2 0x3F6 JUMP JUMPDEST SWAP1 POP SWAP3 SWAP2 POP POP JUMP JUMPDEST PUSH0 PUSH1 0x40 MLOAD SWAP1 POP SWAP1 JUMP JUMPDEST PUSH0 DUP1 REVERT JUMPDEST PUSH0 DUP1 REVERT JUMPDEST PUSH0 DUP1 REVERT JUMPDEST PUSH0 DUP1 REVERT JUMPDEST PUSH32 0x4E487B7100000000000000000000000000000000000000000000000000000000 PUSH0 MSTORE PUSH1 0x41 PUSH1 0x4 MSTORE PUSH1 0x24 PUSH0 REVERT JUMPDEST PUSH2 0x4D8 DUP3 PUSH2 0x33D JUMP JUMPDEST DUP2 ADD DUP2 DUP2 LT PUSH8 0xFFFFFFFFFFFFFFFF DUP3 GT OR ISZERO PUSH2 0x4F7 JUMPI PUSH2 0x4F6 PUSH2 0x4A2 JUMP JUMPDEST JUMPDEST DUP1 PUSH1 0x40 MSTORE POP POP POP JUMP JUMPDEST PUSH0 PUSH2 0x509 PUSH2 0x489 JUMP JUMPDEST SWAP1 POP PUSH2 0x515 DUP3 DUP3 PUSH2 0x4CF JUMP JUMPDEST SWAP2 SWAP1 POP JUMP JUMPDEST PUSH0 PUSH8 0xFFFFFFFFFFFFFFFF DUP3 GT ISZERO PUSH2 0x534 JUMPI PUSH2 0x533 PUSH2 0x4A2 JUMP JUMPDEST JUMPDEST PUSH2 0x53D DUP3 PUSH2 0x33D JUMP JUMPDEST SWAP1 POP PUSH1 0x20 DUP2 ADD SWAP1 POP SWAP2 SWAP1 POP JUMP JUMPDEST DUP3 DUP2 DUP4 CALLDATACOPY PUSH0 DUP4 DUP4 ADD MSTORE POP POP POP JUMP JUMPDEST PUSH0 PUSH2 0x56A PUSH2 0x565 DUP5 PUSH2 0x51A JUMP JUMPDEST PUSH2 0x500 JUMP JUMPDEST SWAP1 POP DUP3 DUP2 MSTORE PUSH1 0x20 DUP2 ADD DUP5 DUP5 DUP5 ADD GT ISZERO PUSH2 0x586 JUMPI PUSH2 0x585 PUSH2 0x49E JUMP JUMPDEST JUMPDEST PUSH2 0x591 DUP5 DUP3 DUP6 PUSH2 0x54A JUMP JUMPDEST POP SWAP4 SWAP3 POP POP POP JUMP JUMPDEST PUSH0 DUP3 PUSH1 0x1F DUP4 ADD SLT PUSH2 0x5AD JUMPI PUSH2 0x5AC PUSH2 0x49A JUMP JUMPDEST JUMPDEST DUP2 CALLDATALOAD PUSH2 0x5BD DUP5 DUP3 PUSH1 0x20 DUP7 ADD PUSH2 0x558 JUMP JUMPDEST SWAP2 POP POP SWAP3 SWAP2 POP POP JUMP JUMPDEST PUSH0 PUSH1 0x20 DUP3 DUP5 SUB SLT ISZERO PUSH2 0x5DB JUMPI PUSH2 0x5DA PUSH2 0x492 JUMP JUMPDEST JUMPDEST PUSH0 DUP3 ADD CALLDATALOAD PUSH8 0xFFFFFFFFFFFFFFFF DUP2 GT ISZERO PUSH2 0x5F8 JUMPI PUSH2 0x5F7 PUSH2 0x496 JUMP JUMPDEST JUMPDEST PUSH2 0x604 DUP5 DUP3 DUP6 ADD PUSH2 0x599 JUMP JUMPDEST SWAP2 POP POP SWAP3 SWAP2 POP POP JUMP JUMPDEST PUSH2 0x616 DUP2 PUSH2 0x385 JUMP JUMPDEST DUP2 EQ PUSH2 0x620 JUMPI PUSH0 DUP1 REVERT JUMPDEST POP JUMP JUMPDEST PUSH0 DUP2 CALLDATALOAD SWAP1 POP PUSH2 0x631 DUP2 PUSH2 0x60D JUMP JUMPDEST SWAP3 SWAP2 POP POP JUMP JUMPDEST PUSH0 PUSH1 0x20 DUP3 DUP5 SUB SLT ISZERO PUSH2 0x64C JUMPI PUSH2 0x64B PUSH2 0x492 JUMP JUMPDEST JUMPDEST PUSH0 PUSH2 0x659 DUP5 DUP3 DUP6 ADD PUSH2 0x623 JUMP JUMPDEST SWAP2 POP POP SWAP3 SWAP2 POP POP JUMP JUMPDEST PUSH0 DUP3 DUP3 MSTORE PUSH1 0x20 DUP3 ADD SWAP1 POP SWAP3 SWAP2 POP POP JUMP JUMPDEST PUSH0 PUSH2 0x67C DUP3 PUSH2 0x315 JUMP JUMPDEST PUSH2 0x686 DUP2 DUP6 PUSH2 0x662 JUMP JUMPDEST SWAP4 POP PUSH2 0x696 DUP2 DUP6 PUSH1 0x20 DUP7 ADD PUSH2 0x32F JUMP JUMPDEST PUSH2 0x69F DUP2 PUSH2 0x33D JUMP JUMPDEST DUP5 ADD SWAP2 POP POP SWAP3 SWAP2 POP POP JUMP JUMPDEST PUSH2 0x6B3 DUP2 PUSH2 0x385 JUMP JUMPDEST DUP3 MSTORE POP POP JUMP JUMPDEST PUSH0 PUSH1 0x40 DUP3 ADD SWAP1 POP DUP2 DUP2 SUB PUSH0 DUP4 ADD MSTORE PUSH2 0x6D1 DUP2 DUP6 PUSH2 0x672 JUMP JUMPDEST SWAP1 POP PUSH2 0x6E0 PUSH1 0x20 DUP4 ADD DUP5 PUSH2 0x6AA JUMP JUMPDEST SWAP4 SWAP3 POP POP POP JUMP JUMPDEST PUSH32 0x4E487B7100000000000000000000000000000000000000000000000000000000 PUSH0 MSTORE PUSH1 0x22 PUSH1 0x4 MSTORE PUSH1 0x24 PUSH0 REVERT JUMPDEST PUSH0 PUSH1 0x2 DUP3 DIV SWAP1 POP PUSH1 0x1 DUP3 AND DUP1 PUSH2 0x72B JUMPI PUSH1 0x7F DUP3 AND SWAP2 POP JUMPDEST PUSH1 0x20 DUP3 LT DUP2 SUB PUSH2 0x73E JUMPI PUSH2 0x73D PUSH2 0x6E7 JUMP JUMPDEST JUMPDEST POP SWAP2 SWAP1 POP JUMP JUMPDEST PUSH0 DUP2 SWAP1 POP DUP2 PUSH0 MSTORE PUSH1 0x20 PUSH0 KECCAK256 SWAP1 POP SWAP2 SWAP1 POP JUMP JUMPDEST PUSH0 PUSH1 0x20 PUSH1 0x1F DUP4 ADD DIV SWAP1 POP SWAP2 SWAP1 POP JUMP JUMPDEST PUSH0 DUP3 DUP3 SHL SWAP1 POP SWAP3 SWAP2 POP POP JUMP JUMPDEST PUSH0 PUSH1 0x8 DUP4 MUL PUSH2 0x7A0 PUSH32 0xFFFFFFFFFFFFFFFFFFFFFFFFFFFFFFFFFFFFFFFFFFFFFFFFFFFFFFFFFFFFFFFF DUP3 PUSH2 0x765 JUMP JUMPDEST PUSH2 0x7AA DUP7 DUP4 PUSH2 0x765 JUMP JUMPDEST SWAP6 POP DUP1 NOT DUP5 AND SWAP4 POP DUP1 DUP7 AND DUP5 OR SWAP3 POP POP POP SWAP4 SWAP3 POP POP POP JUMP JUMPDEST PUSH0 DUP2 SWAP1 POP SWAP2 SWAP1 POP JUMP JUMPDEST PUSH0 PUSH2 0x7E5 PUSH2 0x7E0 PUSH2 0x7DB DUP5 PUSH2 0x385 JUMP JUMPDEST PUSH2 0x7C2 JUMP JUMPDEST PUSH2 0x385 JUMP JUMPDEST SWAP1 POP SWAP2 SWAP1 POP JUMP JUMPDEST PUSH0 DUP2 SWAP1 POP SWAP2 SWAP1 POP JUMP JUMPDEST PUSH2 0x7FE DUP4 PUSH2 0x7CB JUMP JUMPDEST PUSH2 0x812 PUSH2 0x80A DUP3 PUSH2 0x7EC JUMP JUMPDEST DUP5 DUP5 SLOAD PUSH2 0x771 JUMP JUMPDEST DUP3 SSTORE POP POP POP POP JUMP JUMPDEST PUSH0 SWAP1 JUMP JUMPDEST PUSH2 0x826 PUSH2 0x81A JUMP JUMPDEST PUSH2 0x831 DUP2 DUP5 DUP5 PUSH2 0x7F5 JUMP JUMPDEST POP POP POP JUMP JUMPDEST JUMPDEST DUP2 DUP2 LT ISZERO PUSH2 0x854 JUMPI PUSH2 0x849 PUSH0 DUP3 PUSH2 0x81E JUMP JUMPDEST PUSH1 0x1 DUP2 ADD SWAP1 POP PUSH2 0x837 JUMP JUMPDEST POP POP JUMP JUMPDEST PUSH1 0x1F DUP3 GT ISZERO PUSH2 0x899 JUMPI PUSH2 0x86A DUP2 PUSH2 0x744 JUMP JUMPDEST PUSH2 0x873 DUP5 PUSH2 0x756 JUMP JUMPDEST DUP2 ADD PUSH1 0x20 DUP6 LT ISZERO PUSH2 0x882 JUMPI DUP2 SWAP1 POP JUMPDEST PUSH2 0x896 PUSH2 0x88E DUP6 PUSH2 0x756 JUMP JUMPDEST DUP4 ADD DUP3 PUSH2 0x836 JUMP JUMPDEST POP POP JUMPDEST POP POP POP JUMP JUMPDEST PUSH0 DUP3 DUP3 SHR SWAP1 POP SWAP3 SWAP2 POP POP JUMP JUMPDEST PUSH0 PUSH2 0x8B9 PUSH0 NOT DUP5 PUSH1 0x8 MUL PUSH2 0x89E JUMP JUMPDEST NOT DUP1 DUP4 AND SWAP2 POP POP SWAP3 SWAP2 POP POP JUMP JUMPDEST PUSH0 PUSH2 0x8D1 DUP4 DUP4 PUSH2 0x8AA JUMP JUMPDEST SWAP2 POP DUP3 PUSH1 0x2 MUL DUP3 OR SWAP1 POP SWAP3 SWAP2 POP POP JUMP JUMPDEST PUSH2 0x8EA DUP3 PUSH2 0x315 JUMP JUMPDEST PUSH8 0xFFFFFFFFFFFFFFFF DUP2 GT ISZERO PUSH2 0x903 JUMPI PUSH2 0x902 PUSH2 0x4A2 JUMP JUMPDEST JUMPDEST PUSH2 0x90D DUP3 SLOAD PUSH2 0x714 JUMP JUMPDEST PUSH2 0x918 DUP3 DUP3 DUP6 PUSH2 0x858 JUMP JUMPDEST PUSH0 PUSH1 0x20 SWAP1 POP PUSH1 0x1F DUP4 GT PUSH1 0x1 DUP2 EQ PUSH2 0x949 JUMPI PUSH0 DUP5 ISZERO PUSH2 0x937 JUMPI DUP3 DUP8 ADD MLOAD SWAP1 POP JUMPDEST PUSH2 0x941 DUP6 DUP3 PUSH2 0x8C6 JUMP JUMPDEST DUP7 SSTORE POP PUSH2 0x9A8 JUMP JUMPDEST PUSH1 0x1F NOT DUP5 AND PUSH2 0x957 DUP7 PUSH2 0x744 JUMP JUMPDEST PUSH0 JUMPDEST DUP3 DUP2 LT ISZERO PUSH2 0x97E JUMPI DUP5 DUP10 ADD MLOAD DUP3 SSTORE PUSH1 0x1 DUP3 ADD SWAP2 POP PUSH1 0x20 DUP6 ADD SWAP5 POP PUSH1 0x20 DUP2 ADD SWAP1 POP PUSH2 0x959 JUMP JUMPDEST DUP7 DUP4 LT ISZERO PUSH2 0x99B JUMPI DUP5 DUP10 ADD MLOAD PUSH2 0x997 PUSH1 0x1F DUP10 AND DUP3 PUSH2 0x8AA JUMP JUMPDEST DUP4 SSTORE POP JUMPDEST PUSH1 0x1 PUSH1 0x2 DUP9 MUL ADD DUP9 SSTORE POP POP POP JUMPDEST POP POP POP POP POP POP JUMP JUMPDEST PUSH0 PUSH1 0x20 DUP3 ADD SWAP1 POP DUP2 DUP2 SUB PUSH0 DUP4 ADD MSTORE PUSH2 0x9C8 DUP2 DUP5 PUSH2 0x672 JUMP JUMPDEST SWAP1 POP SWAP3 SWAP2 POP POP JUMP INVALID LOG2 PUSH5 0x6970667358 0x22 SLT KECCAK256 PUSH19 0x265078D568FD3EED930FF89DF0EACBD131FAD9 0xA9 DUP16 PUSH14 0x722EFC76B280B53DBA64736F6C63 NUMBER STOP ADDMOD NOT STOP CALLER "
				},
				"gasEstimates": {
					"creation": {
						"codeDepositCost": "513200",
						"executionCost": "547",
						"totalCost": "513747"
					},
					"external": {
						"agregarCandidato(string)": "infinite",
						"candidatos(uint256)": "infinite",
						"getAllCandidatos()": "infinite"
					}
				},
				"methodIdentifiers": {
					"agregarCandidato(string)": "503c560f",
					"candidatos(uint256)": "8f023f85",
					"getAllCandidatos()": "198cc691"
				}
			},
			"storageLayout": {
				"storage": [
					{
						"astId": 797,
						"contract": "contracts/CandidatosFactory.sol:Candidatos",
						"label": "candidatos",
						"offset": 0,
						"slot": "0",
						"type": "t_array(t_struct(Candidato)793_storage)dyn_storage"
					}
				],
				"types": {
					"t_array(t_struct(Candidato)793_storage)dyn_storage": {
						"base": "t_struct(Candidato)793_storage",
						"encoding": "dynamic_array",
						"label": "struct Candidatos.Candidato[]",
						"numberOfBytes": "32"
					},
					"t_string_storage": {
						"encoding": "bytes",
						"label": "string",
						"numberOfBytes": "32"
					},
					"t_struct(Candidato)793_storage": {
						"encoding": "inplace",
						"label": "struct Candidatos.Candidato",
						"members": [
							{
								"astId": 790,
								"contract": "contracts/CandidatosFactory.sol:Candidatos",
								"label": "name",
								"offset": 0,
								"slot": "0",
								"type": "t_string_storage"
							},
							{
								"astId": 792,
								"contract": "contracts/CandidatosFactory.sol:Candidatos",
								"label": "votos",
								"offset": 0,
								"slot": "1",
								"type": "t_uint256"
							}
						],
						"numberOfBytes": "64"
					},
					"t_uint256": {
						"encoding": "inplace",
						"label": "uint256",
						"numberOfBytes": "32"
					}
				}
			},
			"userdoc": {
				"kind": "user",
				"methods": {},
				"version": 1
			}
		}
	}
}