{
	"data": {
		"bytecode": {
			"linkReferences": {},
			"object": "608060405234801561000f575f80fd5b50336040518060400160405280600b81526020017f556e6976657273696461640000000000000000000000000000000000000000008152506040518060400160405280600381526020017f554e490000000000000000000000000000000000000000000000000000000000815250816003908161008c9190610421565b50806004908161009c9190610421565b5050505f73ffffffffffffffffffffffffffffffffffffffff168173ffffffffffffffffffffffffffffffffffffffff160361010f575f6040517f1e4fbdf7000000000000000000000000000000000000000000000000000000008152600401610106919061052f565b60405180910390fd5b61011e8161012460201b60201c565b50610548565b5f60055f9054906101000a900473ffffffffffffffffffffffffffffffffffffffff1690508160055f6101000a81548173ffffffffffffffffffffffffffffffffffffffff021916908373ffffffffffffffffffffffffffffffffffffffff1602179055508173ffffffffffffffffffffffffffffffffffffffff168173ffffffffffffffffffffffffffffffffffffffff167f8be0079c531659141344cd1fd0a4f28419497f9722a3daafe3b4186f6b6457e060405160405180910390a35050565b5f81519050919050565b7f4e487b71000000000000000000000000000000000000000000000000000000005f52604160045260245ffd5b7f4e487b71000000000000000000000000000000000000000000000000000000005f52602260045260245ffd5b5f600282049050600182168061026257607f821691505b6020821081036102755761027461021e565b5b50919050565b5f819050815f5260205f209050919050565b5f6020601f8301049050919050565b5f82821b905092915050565b5f600883026102d77fffffffffffffffffffffffffffffffffffffffffffffffffffffffffffffffff8261029c565b6102e1868361029c565b95508019841693508086168417925050509392505050565b5f819050919050565b5f819050919050565b5f61032561032061031b846102f9565b610302565b6102f9565b9050919050565b5f819050919050565b61033e8361030b565b61035261034a8261032c565b8484546102a8565b825550505050565b5f90565b61036661035a565b610371818484610335565b505050565b5b81811015610394576103895f8261035e565b600181019050610377565b5050565b601f8211156103d9576103aa8161027b565b6103b38461028d565b810160208510156103c2578190505b6103d66103ce8561028d565b830182610376565b50505b505050565b5f82821c905092915050565b5f6103f95f19846008026103de565b1980831691505092915050565b5f61041183836103ea565b9150826002028217905092915050565b61042a826101e7565b67ffffffffffffffff811115610443576104426101f1565b5b61044d825461024b565b610458828285610398565b5f60209050601f831160018114610489575f8415610477578287015190505b6104818582610406565b8655506104e8565b601f1984166104978661027b565b5f5b828110156104be57848901518255600182019150602085019450602081019050610499565b868310156104db57848901516104d7601f8916826103ea565b8355505b6001600288020188555050505b505050505050565b5f73ffffffffffffffffffffffffffffffffffffffff82169050919050565b5f610519826104f0565b9050919050565b6105298161050f565b82525050565b5f6020820190506105425f830184610520565b92915050565b61363b806105555f395ff3fe6080604052600436106101c1575f3560e01c80637847a2c4116100f6578063aaac5fc611610094578063deebeac911610063578063deebeac91461060e578063e44b52521461064a578063f2fde38b14610675578063fac07d2a1461069d576101c1565b8063aaac5fc614610563578063b384abef146105a0578063b3f179ba146105bc578063dd62ed3e146105d2576101c1565b806395d89b41116100d057806395d89b41146104ad578063a0712d68146104d7578063a0bdafda146104ff578063a9059cbb14610527576101c1565b80637847a2c4146104315780638a9ac1d21461045b5780638da5cb5b14610483576101c1565b806332bf68d411610163578063503c560f1161013d578063503c560f1461038d5780636e34a44d146103b557806370a08231146103df578063715018a61461041b576101c1565b806332bf68d4146102fb578063445bef35146103255780634ff7bcb11461034d576101c1565b80631a90c25a1161019f5780631a90c25a1461025557806323b872dd1461027f5780632580e9fb146102bb578063313ce567146102d1576101c1565b806306fdde03146101c5578063095ea7b3146101ef57806318160ddd1461022b575b5f80fd5b3480156101d0575f80fd5b506101d96106c8565b6040516101e6919061250e565b60405180910390f35b3480156101fa575f80fd5b50610215600480360381019061021091906125cc565b610758565b6040516102229190612624565b60405180910390f35b348015610236575f80fd5b5061023f61077a565b60405161024c919061264c565b60405180910390f35b348015610260575f80fd5b50610269610783565b604051610276919061264c565b60405180910390f35b34801561028a575f80fd5b506102a560048036038101906102a09190612665565b6107a6565b6040516102b29190612624565b60405180910390f35b3480156102c6575f80fd5b506102cf6107d4565b005b3480156102dc575f80fd5b506102e561084a565b6040516102f291906126d0565b60405180910390f35b348015610306575f80fd5b5061030f610852565b60405161031c91906127a0565b60405180910390f35b348015610330575f80fd5b5061034b600480360381019061034691906127c0565b6108dd565b005b348015610358575f80fd5b50610373600480360381019061036e91906127c0565b6109e2565b6040516103849594939291906129b4565b60405180910390f35b348015610398575f80fd5b506103b360048036038101906103ae9190612b46565b610cc7565b005b3480156103c0575f80fd5b506103c9610d66565b6040516103d6919061264c565b60405180910390f35b3480156103ea575f80fd5b5061040560048036038101906104009190612b8d565b610d6c565b604051610412919061264c565b60405180910390f35b348015610426575f80fd5b5061042f610db1565b005b34801561043c575f80fd5b50610445610dc4565b6040516104529190612bb8565b60405180910390f35b348015610466575f80fd5b50610481600480360381019061047c91906127c0565b610f02565b005b34801561048e575f80fd5b5061049761106d565b6040516104a49190612bd8565b60405180910390f35b3480156104b8575f80fd5b506104c1611095565b6040516104ce919061250e565b60405180910390f35b3480156104e2575f80fd5b506104fd60048036038101906104f891906127c0565b611125565b005b34801561050a575f80fd5b5061052560048036038101906105209190612bf1565b611152565b005b348015610532575f80fd5b5061054d600480360381019061054891906125cc565b6112a6565b60405161055a9190612624565b60405180910390f35b34801561056e575f80fd5b50610589600480360381019061058491906127c0565b6112c8565b604051610597929190612c4b565b60405180910390f35b6105ba60048036038101906105b59190612c79565b61141b565b005b3480156105c7575f80fd5b506105d0611663565b005b3480156105dd575f80fd5b506105f860048036038101906105f39190612cb7565b6116d9565b604051610605919061264c565b60405180910390f35b348015610619575f80fd5b50610634600480360381019061062f9190612b8d565b61175b565b6040516106419190612624565b60405180910390f35b348015610655575f80fd5b5061065e61189f565b60405161066c929190612cf5565b60405180910390f35b348015610680575f80fd5b5061069b60048036038101906106969190612b8d565b6119cc565b005b3480156106a8575f80fd5b506106b1611a50565b6040516106bf929190612d23565b60405180910390f35b6060600380546106d790612d85565b80601f016020809104026020016040519081016040528092919081815260200182805461070390612d85565b801561074e5780601f106107255761010080835404028352916020019161074e565b820191905f5260205f20905b81548152906001019060200180831161073157829003601f168201915b5050505050905090565b5f80610762611c6d565b905061076f818585611c74565b600191505092915050565b5f600254905090565b5f805f905061079061077a565b600b5461079d9190612de2565b90508091505090565b5f806107b0611c6d565b90506107bd858285611c86565b6107c8858585611d18565b60019150509392505050565b6107dc611e08565b5f5b600a548110156108475760085f8281526020019081526020015f206004015f9054906101000a900460ff161561083a575f60085f8381526020019081526020015f206004015f6101000a81548160ff0219169083151502179055505b80806001019150506107de565b50565b5f6012905090565b606060098054806020026020016040519081016040528092919081815260200182805480156108d357602002820191905f5260205f20905b815f9054906101000a900473ffffffffffffffffffffffffffffffffffffffff1673ffffffffffffffffffffffffffffffffffffffff168152602001906001019080831161088a575b5050505050905090565b6108e561106d565b73ffffffffffffffffffffffffffffffffffffffff163373ffffffffffffffffffffffffffffffffffffffff1614610952576040517f08c379a000000000000000000000000000000000000000000000000000000000815260040161094990612e5f565b60405180910390fd5b60085f8281526020019081526020015f206004015f9054906101000a900460ff16156109b3576040517f08c379a00000000000000000000000000000000000000000000000000000000081526004016109aa90612ec7565b60405180910390fd5b600160085f8381526020019081526020015f206004015f6101000a81548160ff02191690831515021790555050565b60605f80606080600a548610610a2d576040517f08c379a0000000000000000000000000000000000000000000000000000000008152600401610a2490612f2f565b60405180910390fd5b60085f8781526020019081526020015f206001018054610a4c90612d85565b80601f0160208091040260200160405190810160405280929190818152602001828054610a7890612d85565b8015610ac35780601f10610a9a57610100808354040283529160200191610ac3565b820191905f5260205f20905b815481529060010190602001808311610aa657829003601f168201915b5050505050945060085f8781526020019081526020015f205f015f9054906101000a900473ffffffffffffffffffffffffffffffffffffffff16935060085f8781526020019081526020015f206004015f9054906101000a900460ff16925060085f8781526020019081526020015f20600301805480602002602001604051908101604052809291908181526020018280548015610b7e57602002820191905f5260205f20905b815481526020019060010190808311610b6a575b5050505050915060068054905067ffffffffffffffff811115610ba457610ba3612a22565b5b604051908082528060200260200182016040528015610bd757816020015b6060815260200190600190039081610bc25790505b5090505f5b600680549050811015610cbd5760068181548110610bfd57610bfc612f4d565b5b905f5260205f2090600202015f018054610c1690612d85565b80601f0160208091040260200160405190810160405280929190818152602001828054610c4290612d85565b8015610c8d5780601f10610c6457610100808354040283529160200191610c8d565b820191905f5260205f20905b815481529060010190602001808311610c7057829003601f168201915b5050505050828281518110610ca557610ca4612f4d565b5b60200260200101819052508080600101915050610bdc565b5091939590929450565b610ccf611e08565b600660405180604001604052808381526020015f815250908060018154018082558091505060019003905f5260205f2090600202015f909190919091505f820151815f019081610d1f9190613117565b506020820151816001015550507f566c2d39711b082cc685ade507dee6291f47044333d9aba4037034cdc3cfac9e81604051610d5b919061250e565b60405180910390a150565b600b5481565b5f805f8373ffffffffffffffffffffffffffffffffffffffff1673ffffffffffffffffffffffffffffffffffffffff1681526020019081526020015f20549050919050565b610db9611e08565b610dc25f611e8f565b565b606060068054905067ffffffffffffffff811115610de557610de4612a22565b5b604051908082528060200260200182016040528015610e1857816020015b6060815260200190600190039081610e035790505b5090505f5b600680549050811015610efe5760068181548110610e3e57610e3d612f4d565b5b905f5260205f2090600202015f018054610e5790612d85565b80601f0160208091040260200160405190810160405280929190818152602001828054610e8390612d85565b8015610ece5780601f10610ea557610100808354040283529160200191610ece565b820191905f5260205f20905b815481529060010190602001808311610eb157829003601f168201915b5050505050828281518110610ee657610ee5612f4d565b5b60200260200101819052508080600101915050610e1d565b5090565b60085f8281526020019081526020015f205f015f9054906101000a900473ffffffffffffffffffffffffffffffffffffffff1673ffffffffffffffffffffffffffffffffffffffff163373ffffffffffffffffffffffffffffffffffffffff161480610fa05750610f7161106d565b73ffffffffffffffffffffffffffffffffffffffff163373ffffffffffffffffffffffffffffffffffffffff16145b610fdf576040517f08c379a0000000000000000000000000000000000000000000000000000000008152600401610fd690613256565b60405180910390fd5b60085f8281526020019081526020015f206004015f9054906101000a900460ff1661103f576040517f08c379a0000000000000000000000000000000000000000000000000000000008152600401611036906132be565b60405180910390fd5b5f60085f8381526020019081526020015f206004015f6101000a81548160ff02191690831515021790555050565b5f60055f9054906101000a900473ffffffffffffffffffffffffffffffffffffffff16905090565b6060600480546110a490612d85565b80601f01602080910402602001604051908101604052809291908181526020018280546110d090612d85565b801561111b5780601f106110f25761010080835404028352916020019161111b565b820191905f5260205f20905b8154815290600101906020018083116110fe57829003601f168201915b5050505050905090565b61112d611e08565b6111373082611f52565b80600b5f82825461114891906132dc565b9250508190555050565b61115a611e08565b600a5f81548092919061116c9061330f565b91905055505f60085f6001600a546111849190612de2565b81526020019081526020015f20905081815f015f6101000a81548173ffffffffffffffffffffffffffffffffffffffff021916908373ffffffffffffffffffffffffffffffffffffffff160217905550828160010190816111e59190613117565b505f816004015f6101000a81548160ff02191690831515021790555060068054905067ffffffffffffffff8111156112205761121f612a22565b5b60405190808252806020026020018201604052801561124e5781602001602082028036833780820191505090505b50816003019080519060200190611266929190612438565b50600a547f475e637cd3c90ecc459eddf548f62cfca3117407751685fce1ff08330f83f3c784604051611299919061250e565b60405180910390a2505050565b5f806112b0611c6d565b90506112bd818585611d18565b600191505092915050565b60605f6006805490508310611312576040517f08c379a0000000000000000000000000000000000000000000000000000000008152600401611309906133a0565b60405180910390fd5b6006838154811061132657611325612f4d565b5b905f5260205f2090600202015f01805461133f90612d85565b80601f016020809104026020016040519081016040528092919081815260200182805461136b90612d85565b80156113b65780601f1061138d576101008083540402835291602001916113b6565b820191905f5260205f20905b81548152906001019060200180831161139957829003601f168201915b505050505091505f90505f5b600a548110156114155760085f8281526020019081526020015f2060030184815481106113f2576113f1612f4d565b5b905f5260205f2001548261140691906132dc565b915080806001019150506113c2565b50915091565b600161142633610d6c565b1015611467576040517f08c379a000000000000000000000000000000000000000000000000000000000815260040161145e9061342e565b60405180910390fd5b60085f8281526020019081526020015f206002015f3373ffffffffffffffffffffffffffffffffffffffff1673ffffffffffffffffffffffffffffffffffffffff1681526020019081526020015f205f9054906101000a900460ff1615611503576040517f08c379a00000000000000000000000000000000000000000000000000000000081526004016114fa90613496565b60405180910390fd5b600680549050821061154a576040517f08c379a0000000000000000000000000000000000000000000000000000000008152600401611541906133a0565b60405180910390fd5b60085f8281526020019081526020015f206004015f9054906101000a900460ff166115aa576040517f08c379a00000000000000000000000000000000000000000000000000000000081526004016115a190613524565b60405180910390fd5b6115b5336001611fd1565b60085f8281526020019081526020015f2060030182815481106115db576115da612f4d565b5b905f5260205f20015f8154809291906115f39061330f565b9190505550600160085f8381526020019081526020015f206002015f3373ffffffffffffffffffffffffffffffffffffffff1673ffffffffffffffffffffffffffffffffffffffff1681526020019081526020015f205f6101000a81548160ff0219169083151502179055505050565b61166b611e08565b5f5b600a548110156116d65760085f8281526020019081526020015f206004015f9054906101000a900460ff166116c957600160085f8381526020019081526020015f206004015f6101000a81548160ff0219169083151502179055505b808060010191505061166d565b50565b5f60015f8473ffffffffffffffffffffffffffffffffffffffff1673ffffffffffffffffffffffffffffffffffffffff1681526020019081526020015f205f8373ffffffffffffffffffffffffffffffffffffffff1673ffffffffffffffffffffffffffffffffffffffff1681526020019081526020015f2054905092915050565b5f611764611e08565b5f5b600980549050811015611829578273ffffffffffffffffffffffffffffffffffffffff166009828154811061179e5761179d612f4d565b5b905f5260205f20015f9054906101000a900473ffffffffffffffffffffffffffffffffffffffff1673ffffffffffffffffffffffffffffffffffffffff160361181c576040517f08c379a0000000000000000000000000000000000000000000000000000000008152600401611813906135b2565b60405180910390fd5b8080600101915050611766565b5061183630836001611d18565b600982908060018154018082558091505060019003905f5260205f20015f9091909190916101000a81548173ffffffffffffffffffffffffffffffffffffffff021916908373ffffffffffffffffffffffffffffffffffffffff16021790555060019050919050565b5f6060600a5491508167ffffffffffffffff8111156118c1576118c0612a22565b5b6040519080825280602002602001820160405280156118f457816020015b60608152602001906001900390816118df5790505b5090505f5b828110156119c75760085f8281526020019081526020015f20600101805461192090612d85565b80601f016020809104026020016040519081016040528092919081815260200182805461194c90612d85565b80156119975780601f1061196e57610100808354040283529160200191611997565b820191905f5260205f20905b81548152906001019060200180831161197a57829003601f168201915b50505050508282815181106119af576119ae612f4d565b5b602002602001018190525080806001019150506118f9565b509091565b6119d4611e08565b5f73ffffffffffffffffffffffffffffffffffffffff168173ffffffffffffffffffffffffffffffffffffffff1603611a44575f6040517f1e4fbdf7000000000000000000000000000000000000000000000000000000008152600401611a3b9190612bd8565b60405180910390fd5b611a4d81611e8f565b50565b60608060068054905067ffffffffffffffff811115611a7257611a71612a22565b5b604051908082528060200260200182016040528015611aa557816020015b6060815260200190600190039081611a905790505b50915060068054905067ffffffffffffffff811115611ac757611ac6612a22565b5b604051908082528060200260200182016040528015611af55781602001602082028036833780820191505090505b5090505f5b600680549050811015611bdb5760068181548110611b1b57611b1a612f4d565b5b905f5260205f2090600202015f018054611b3490612d85565b80601f0160208091040260200160405190810160405280929190818152602001828054611b6090612d85565b8015611bab5780601f10611b8257610100808354040283529160200191611bab565b820191905f5260205f20905b815481529060010190602001808311611b8e57829003601f168201915b5050505050838281518110611bc357611bc2612f4d565b5b60200260200101819052508080600101915050611afa565b505f5b600a54811015611c68575f611bf2826109e2565b5093505050505f5b8151811015611c5957818181518110611c1657611c15612f4d565b5b6020026020010151848281518110611c3157611c30612f4d565b5b60200260200101818151611c4591906132dc565b915081815250508080600101915050611bfa565b50508080600101915050611bde565b509091565b5f33905090565b611c818383836001612050565b505050565b5f611c9184846116d9565b90507fffffffffffffffffffffffffffffffffffffffffffffffffffffffffffffffff8114611d125781811015611d03578281836040517ffb8f41b2000000000000000000000000000000000000000000000000000000008152600401611cfa939291906135d0565b60405180910390fd5b611d1184848484035f612050565b5b50505050565b5f73ffffffffffffffffffffffffffffffffffffffff168373ffffffffffffffffffffffffffffffffffffffff1603611d88575f6040517f96c6fd1e000000000000000000000000000000000000000000000000000000008152600401611d7f9190612bd8565b60405180910390fd5b5f73ffffffffffffffffffffffffffffffffffffffff168273ffffffffffffffffffffffffffffffffffffffff1603611df8575f6040517fec442f05000000000000000000000000000000000000000000000000000000008152600401611def9190612bd8565b60405180910390fd5b611e0383838361221f565b505050565b611e10611c6d565b73ffffffffffffffffffffffffffffffffffffffff16611e2e61106d565b73ffffffffffffffffffffffffffffffffffffffff1614611e8d57611e51611c6d565b6040517f118cdaa7000000000000000000000000000000000000000000000000000000008152600401611e849190612bd8565b60405180910390fd5b565b5f60055f9054906101000a900473ffffffffffffffffffffffffffffffffffffffff1690508160055f6101000a81548173ffffffffffffffffffffffffffffffffffffffff021916908373ffffffffffffffffffffffffffffffffffffffff1602179055508173ffffffffffffffffffffffffffffffffffffffff168173ffffffffffffffffffffffffffffffffffffffff167f8be0079c531659141344cd1fd0a4f28419497f9722a3daafe3b4186f6b6457e060405160405180910390a35050565b5f73ffffffffffffffffffffffffffffffffffffffff168273ffffffffffffffffffffffffffffffffffffffff1603611fc2575f6040517fec442f05000000000000000000000000000000000000000000000000000000008152600401611fb99190612bd8565b60405180910390fd5b611fcd5f838361221f565b5050565b5f73ffffffffffffffffffffffffffffffffffffffff168273ffffffffffffffffffffffffffffffffffffffff1603612041575f6040517f96c6fd1e0000000000000000000000000000000000000000000000000000000081526004016120389190612bd8565b60405180910390fd5b61204c825f8361221f565b5050565b5f73ffffffffffffffffffffffffffffffffffffffff168473ffffffffffffffffffffffffffffffffffffffff16036120c0575f6040517fe602df050000000000000000000000000000000000000000000000000000000081526004016120b79190612bd8565b60405180910390fd5b5f73ffffffffffffffffffffffffffffffffffffffff168373ffffffffffffffffffffffffffffffffffffffff1603612130575f6040517f94280d620000000000000000000000000000000000000000000000000000000081526004016121279190612bd8565b60405180910390fd5b8160015f8673ffffffffffffffffffffffffffffffffffffffff1673ffffffffffffffffffffffffffffffffffffffff1681526020019081526020015f205f8573ffffffffffffffffffffffffffffffffffffffff1673ffffffffffffffffffffffffffffffffffffffff1681526020019081526020015f20819055508015612219578273ffffffffffffffffffffffffffffffffffffffff168473ffffffffffffffffffffffffffffffffffffffff167f8c5be1e5ebec7d5bd14f71427d1e84f3dd0314c0f7b2291e5b200ac8c7c3b92584604051612210919061264c565b60405180910390a35b50505050565b5f73ffffffffffffffffffffffffffffffffffffffff168373ffffffffffffffffffffffffffffffffffffffff160361226f578060025f82825461226391906132dc565b9250508190555061233d565b5f805f8573ffffffffffffffffffffffffffffffffffffffff1673ffffffffffffffffffffffffffffffffffffffff1681526020019081526020015f20549050818110156122f8578381836040517fe450d38c0000000000000000000000000000000000000000000000000000000081526004016122ef939291906135d0565b60405180910390fd5b8181035f808673ffffffffffffffffffffffffffffffffffffffff1673ffffffffffffffffffffffffffffffffffffffff1681526020019081526020015f2081905550505b5f73ffffffffffffffffffffffffffffffffffffffff168273ffffffffffffffffffffffffffffffffffffffff1603612384578060025f82825403925050819055506123ce565b805f808473ffffffffffffffffffffffffffffffffffffffff1673ffffffffffffffffffffffffffffffffffffffff1681526020019081526020015f205f82825401925050819055505b8173ffffffffffffffffffffffffffffffffffffffff168373ffffffffffffffffffffffffffffffffffffffff167fddf252ad1be2c89b69c2b068fc378daa952ba7f163c4a11628f55a4df523b3ef8360405161242b919061264c565b60405180910390a3505050565b828054828255905f5260205f20908101928215612472579160200282015b82811115612471578251825591602001919060010190612456565b5b50905061247f9190612483565b5090565b5b8082111561249a575f815f905550600101612484565b5090565b5f81519050919050565b5f82825260208201905092915050565b8281835e5f83830152505050565b5f601f19601f8301169050919050565b5f6124e08261249e565b6124ea81856124a8565b93506124fa8185602086016124b8565b612503816124c6565b840191505092915050565b5f6020820190508181035f83015261252681846124d6565b905092915050565b5f604051905090565b5f80fd5b5f80fd5b5f73ffffffffffffffffffffffffffffffffffffffff82169050919050565b5f6125688261253f565b9050919050565b6125788161255e565b8114612582575f80fd5b50565b5f813590506125938161256f565b92915050565b5f819050919050565b6125ab81612599565b81146125b5575f80fd5b50565b5f813590506125c6816125a2565b92915050565b5f80604083850312156125e2576125e1612537565b5b5f6125ef85828601612585565b9250506020612600858286016125b8565b9150509250929050565b5f8115159050919050565b61261e8161260a565b82525050565b5f6020820190506126375f830184612615565b92915050565b61264681612599565b82525050565b5f60208201905061265f5f83018461263d565b92915050565b5f805f6060848603121561267c5761267b612537565b5b5f61268986828701612585565b935050602061269a86828701612585565b92505060406126ab868287016125b8565b9150509250925092565b5f60ff82169050919050565b6126ca816126b5565b82525050565b5f6020820190506126e35f8301846126c1565b92915050565b5f81519050919050565b5f82825260208201905092915050565b5f819050602082019050919050565b61271b8161255e565b82525050565b5f61272c8383612712565b60208301905092915050565b5f602082019050919050565b5f61274e826126e9565b61275881856126f3565b935061276383612703565b805f5b8381101561279357815161277a8882612721565b975061278583612738565b925050600181019050612766565b5085935050505092915050565b5f6020820190508181035f8301526127b88184612744565b905092915050565b5f602082840312156127d5576127d4612537565b5b5f6127e2848285016125b8565b91505092915050565b6127f48161255e565b82525050565b5f81519050919050565b5f82825260208201905092915050565b5f819050602082019050919050565b61282c81612599565b82525050565b5f61283d8383612823565b60208301905092915050565b5f602082019050919050565b5f61285f826127fa565b6128698185612804565b935061287483612814565b805f5b838110156128a457815161288b8882612832565b975061289683612849565b925050600181019050612877565b5085935050505092915050565b5f81519050919050565b5f82825260208201905092915050565b5f819050602082019050919050565b5f82825260208201905092915050565b5f6128f48261249e565b6128fe81856128da565b935061290e8185602086016124b8565b612917816124c6565b840191505092915050565b5f61292d83836128ea565b905092915050565b5f602082019050919050565b5f61294b826128b1565b61295581856128bb565b935083602082028501612967856128cb565b805f5b858110156129a257848403895281516129838582612922565b945061298e83612935565b925060208a0199505060018101905061296a565b50829750879550505050505092915050565b5f60a0820190508181035f8301526129cc81886124d6565b90506129db60208301876127eb565b6129e86040830186612615565b81810360608301526129fa8185612855565b90508181036080830152612a0e8184612941565b90509695505050505050565b5f80fd5b5f80fd5b7f4e487b71000000000000000000000000000000000000000000000000000000005f52604160045260245ffd5b612a58826124c6565b810181811067ffffffffffffffff82111715612a7757612a76612a22565b5b80604052505050565b5f612a8961252e565b9050612a958282612a4f565b919050565b5f67ffffffffffffffff821115612ab457612ab3612a22565b5b612abd826124c6565b9050602081019050919050565b828183375f83830152505050565b5f612aea612ae584612a9a565b612a80565b905082815260208101848484011115612b0657612b05612a1e565b5b612b11848285612aca565b509392505050565b5f82601f830112612b2d57612b2c612a1a565b5b8135612b3d848260208601612ad8565b91505092915050565b5f60208284031215612b5b57612b5a612537565b5b5f82013567ffffffffffffffff811115612b7857612b7761253b565b5b612b8484828501612b19565b91505092915050565b5f60208284031215612ba257612ba1612537565b5b5f612baf84828501612585565b91505092915050565b5f6020820190508181035f830152612bd08184612941565b905092915050565b5f602082019050612beb5f8301846127eb565b92915050565b5f8060408385031215612c0757612c06612537565b5b5f83013567ffffffffffffffff811115612c2457612c2361253b565b5b612c3085828601612b19565b9250506020612c4185828601612585565b9150509250929050565b5f6040820190508181035f830152612c6381856124d6565b9050612c72602083018461263d565b9392505050565b5f8060408385031215612c8f57612c8e612537565b5b5f612c9c858286016125b8565b9250506020612cad858286016125b8565b9150509250929050565b5f8060408385031215612ccd57612ccc612537565b5b5f612cda85828601612585565b9250506020612ceb85828601612585565b9150509250929050565b5f604082019050612d085f83018561263d565b8181036020830152612d1a8184612941565b90509392505050565b5f6040820190508181035f830152612d3b8185612941565b90508181036020830152612d4f8184612855565b90509392505050565b7f4e487b71000000000000000000000000000000000000000000000000000000005f52602260045260245ffd5b5f6002820490506001821680612d9c57607f821691505b602082108103612daf57612dae612d58565b5b50919050565b7f4e487b71000000000000000000000000000000000000000000000000000000005f52601160045260245ffd5b5f612dec82612599565b9150612df783612599565b9250828203905081811115612e0f57612e0e612db5565b5b92915050565b7f536f6c6f20656c204f776e6572207075656465206162726972206d65736173005f82015250565b5f612e49601f836124a8565b9150612e5482612e15565b602082019050919050565b5f6020820190508181035f830152612e7681612e3d565b9050919050565b7f45737461206d65736120796120657374612061626965727461000000000000005f82015250565b5f612eb16019836124a8565b9150612ebc82612e7d565b602082019050919050565b5f6020820190508181035f830152612ede81612ea5565b9050919050565b7f4d657361206e6f20656e636f6e747261646100000000000000000000000000005f82015250565b5f612f196012836124a8565b9150612f2482612ee5565b602082019050919050565b5f6020820190508181035f830152612f4681612f0d565b9050919050565b7f4e487b71000000000000000000000000000000000000000000000000000000005f52603260045260245ffd5b5f819050815f5260205f209050919050565b5f6020601f8301049050919050565b5f82821b905092915050565b5f60088302612fd67fffffffffffffffffffffffffffffffffffffffffffffffffffffffffffffffff82612f9b565b612fe08683612f9b565b95508019841693508086168417925050509392505050565b5f819050919050565b5f61301b61301661301184612599565b612ff8565b612599565b9050919050565b5f819050919050565b61303483613001565b61304861304082613022565b848454612fa7565b825550505050565b5f90565b61305c613050565b61306781848461302b565b505050565b5b8181101561308a5761307f5f82613054565b60018101905061306d565b5050565b601f8211156130cf576130a081612f7a565b6130a984612f8c565b810160208510156130b8578190505b6130cc6130c485612f8c565b83018261306c565b50505b505050565b5f82821c905092915050565b5f6130ef5f19846008026130d4565b1980831691505092915050565b5f61310783836130e0565b9150826002028217905092915050565b6131208261249e565b67ffffffffffffffff81111561313957613138612a22565b5b6131438254612d85565b61314e82828561308e565b5f60209050601f83116001811461317f575f841561316d578287015190505b61317785826130fc565b8655506131de565b601f19841661318d86612f7a565b5f5b828110156131b45784890151825560018201915060208501945060208101905061318f565b868310156131d157848901516131cd601f8916826130e0565b8355505b6001600288020188555050505b505050505050565b7f4e6f207469656e6573207065726d69736f2070617261206365727261722065735f8201527f7461206d65736100000000000000000000000000000000000000000000000000602082015250565b5f6132406027836124a8565b915061324b826131e6565b604082019050919050565b5f6020820190508181035f83015261326d81613234565b9050919050565b7f45737461206d65736120796120657374612063657272616461000000000000005f82015250565b5f6132a86019836124a8565b91506132b382613274565b602082019050919050565b5f6020820190508181035f8301526132d58161329c565b9050919050565b5f6132e682612599565b91506132f183612599565b925082820190508082111561330957613308612db5565b5b92915050565b5f61331982612599565b91507fffffffffffffffffffffffffffffffffffffffffffffffffffffffffffffffff820361334b5761334a612db5565b5b600182019050919050565b7f43616e64696461746f206e6f20656e636f6e747261646f0000000000000000005f82015250565b5f61338a6017836124a8565b915061339582613356565b602082019050919050565b5f6020820190508181035f8301526133b78161337e565b9050919050565b7f4e6f207469656e657320737566696369656e74657320746f6b656e73207061725f8201527f6120766f74617200000000000000000000000000000000000000000000000000602082015250565b5f6134186027836124a8565b9150613423826133be565b604082019050919050565b5f6020820190508181035f8301526134458161340c565b9050919050565b7f59612068617320766f7461646f20656e2065737461206d6573610000000000005f82015250565b5f613480601a836124a8565b915061348b8261344c565b602082019050919050565b5f6020820190508181035f8301526134ad81613474565b9050919050565b7f45737461206d657361206e6f20657374612061626965727461207061726120765f8201527f6f746163696f6e00000000000000000000000000000000000000000000000000602082015250565b5f61350e6027836124a8565b9150613519826134b4565b604082019050919050565b5f6020820190508181035f83015261353b81613502565b9050919050565b7f4573746120646972656363696f6e207961207265636962696f20737520746f6b5f8201527f656e2079206e6f20736520707565646520646172206d61730000000000000000602082015250565b5f61359c6038836124a8565b91506135a782613542565b604082019050919050565b5f6020820190508181035f8301526135c981613590565b9050919050565b5f6060820190506135e35f8301866127eb565b6135f0602083018561263d565b6135fd604083018461263d565b94935050505056fea2646970667358221220e1074d28c3aed4d308cb3a844e8dbdd7df6000f8dee284e7a219fcb2bb52b40b64736f6c63430008190033",
			"opcodes": "PUSH1 0x80 PUSH1 0x40 MSTORE CALLVALUE DUP1 ISZERO PUSH2 0xF JUMPI PUSH0 DUP1 REVERT JUMPDEST POP CALLER PUSH1 0x40 MLOAD DUP1 PUSH1 0x40 ADD PUSH1 0x40 MSTORE DUP1 PUSH1 0xB DUP2 MSTORE PUSH1 0x20 ADD PUSH32 0x556E697665727369646164000000000000000000000000000000000000000000 DUP2 MSTORE POP PUSH1 0x40 MLOAD DUP1 PUSH1 0x40 ADD PUSH1 0x40 MSTORE DUP1 PUSH1 0x3 DUP2 MSTORE PUSH1 0x20 ADD PUSH32 0x554E490000000000000000000000000000000000000000000000000000000000 DUP2 MSTORE POP DUP2 PUSH1 0x3 SWAP1 DUP2 PUSH2 0x8C SWAP2 SWAP1 PUSH2 0x421 JUMP JUMPDEST POP DUP1 PUSH1 0x4 SWAP1 DUP2 PUSH2 0x9C SWAP2 SWAP1 PUSH2 0x421 JUMP JUMPDEST POP POP POP PUSH0 PUSH20 0xFFFFFFFFFFFFFFFFFFFFFFFFFFFFFFFFFFFFFFFF AND DUP2 PUSH20 0xFFFFFFFFFFFFFFFFFFFFFFFFFFFFFFFFFFFFFFFF AND SUB PUSH2 0x10F JUMPI PUSH0 PUSH1 0x40 MLOAD PUSH32 0x1E4FBDF700000000000000000000000000000000000000000000000000000000 DUP2 MSTORE PUSH1 0x4 ADD PUSH2 0x106 SWAP2 SWAP1 PUSH2 0x52F JUMP JUMPDEST PUSH1 0x40 MLOAD DUP1 SWAP2 SUB SWAP1 REVERT JUMPDEST PUSH2 0x11E DUP2 PUSH2 0x124 PUSH1 0x20 SHL PUSH1 0x20 SHR JUMP JUMPDEST POP PUSH2 0x548 JUMP JUMPDEST PUSH0 PUSH1 0x5 PUSH0 SWAP1 SLOAD SWAP1 PUSH2 0x100 EXP SWAP1 DIV PUSH20 0xFFFFFFFFFFFFFFFFFFFFFFFFFFFFFFFFFFFFFFFF AND SWAP1 POP DUP2 PUSH1 0x5 PUSH0 PUSH2 0x100 EXP DUP2 SLOAD DUP2 PUSH20 0xFFFFFFFFFFFFFFFFFFFFFFFFFFFFFFFFFFFFFFFF MUL NOT AND SWAP1 DUP4 PUSH20 0xFFFFFFFFFFFFFFFFFFFFFFFFFFFFFFFFFFFFFFFF AND MUL OR SWAP1 SSTORE POP DUP2 PUSH20 0xFFFFFFFFFFFFFFFFFFFFFFFFFFFFFFFFFFFFFFFF AND DUP2 PUSH20 0xFFFFFFFFFFFFFFFFFFFFFFFFFFFFFFFFFFFFFFFF AND PUSH32 0x8BE0079C531659141344CD1FD0A4F28419497F9722A3DAAFE3B4186F6B6457E0 PUSH1 0x40 MLOAD PUSH1 0x40 MLOAD DUP1 SWAP2 SUB SWAP1 LOG3 POP POP JUMP JUMPDEST PUSH0 DUP2 MLOAD SWAP1 POP SWAP2 SWAP1 POP JUMP JUMPDEST PUSH32 0x4E487B7100000000000000000000000000000000000000000000000000000000 PUSH0 MSTORE PUSH1 0x41 PUSH1 0x4 MSTORE PUSH1 0x24 PUSH0 REVERT JUMPDEST PUSH32 0x4E487B7100000000000000000000000000000000000000000000000000000000 PUSH0 MSTORE PUSH1 0x22 PUSH1 0x4 MSTORE PUSH1 0x24 PUSH0 REVERT JUMPDEST PUSH0 PUSH1 0x2 DUP3 DIV SWAP1 POP PUSH1 0x1 DUP3 AND DUP1 PUSH2 0x262 JUMPI PUSH1 0x7F DUP3 AND SWAP2 POP JUMPDEST PUSH1 0x20 DUP3 LT DUP2 SUB PUSH2 0x275 JUMPI PUSH2 0x274 PUSH2 0x21E JUMP JUMPDEST JUMPDEST POP SWAP2 SWAP1 POP JUMP JUMPDEST PUSH0 DUP2 SWAP1 POP DUP2 PUSH0 MSTORE PUSH1 0x20 PUSH0 KECCAK256 SWAP1 POP SWAP2 SWAP1 POP JUMP JUMPDEST PUSH0 PUSH1 0x20 PUSH1 0x1F DUP4 ADD DIV SWAP1 POP SWAP2 SWAP1 POP JUMP JUMPDEST PUSH0 DUP3 DUP3 SHL SWAP1 POP SWAP3 SWAP2 POP POP JUMP JUMPDEST PUSH0 PUSH1 0x8 DUP4 MUL PUSH2 0x2D7 PUSH32 0xFFFFFFFFFFFFFFFFFFFFFFFFFFFFFFFFFFFFFFFFFFFFFFFFFFFFFFFFFFFFFFFF DUP3 PUSH2 0x29C JUMP JUMPDEST PUSH2 0x2E1 DUP7 DUP4 PUSH2 0x29C JUMP JUMPDEST SWAP6 POP DUP1 NOT DUP5 AND SWAP4 POP DUP1 DUP7 AND DUP5 OR SWAP3 POP POP POP SWAP4 SWAP3 POP POP POP JUMP JUMPDEST PUSH0 DUP2 SWAP1 POP SWAP2 SWAP1 POP JUMP JUMPDEST PUSH0 DUP2 SWAP1 POP SWAP2 SWAP1 POP JUMP JUMPDEST PUSH0 PUSH2 0x325 PUSH2 0x320 PUSH2 0x31B DUP5 PUSH2 0x2F9 JUMP JUMPDEST PUSH2 0x302 JUMP JUMPDEST PUSH2 0x2F9 JUMP JUMPDEST SWAP1 POP SWAP2 SWAP1 POP JUMP JUMPDEST PUSH0 DUP2 SWAP1 POP SWAP2 SWAP1 POP JUMP JUMPDEST PUSH2 0x33E DUP4 PUSH2 0x30B JUMP JUMPDEST PUSH2 0x352 PUSH2 0x34A DUP3 PUSH2 0x32C JUMP JUMPDEST DUP5 DUP5 SLOAD PUSH2 0x2A8 JUMP JUMPDEST DUP3 SSTORE POP POP POP POP JUMP JUMPDEST PUSH0 SWAP1 JUMP JUMPDEST PUSH2 0x366 PUSH2 0x35A JUMP JUMPDEST PUSH2 0x371 DUP2 DUP5 DUP5 PUSH2 0x335 JUMP JUMPDEST POP POP POP JUMP JUMPDEST JUMPDEST DUP2 DUP2 LT ISZERO PUSH2 0x394 JUMPI PUSH2 0x389 PUSH0 DUP3 PUSH2 0x35E JUMP JUMPDEST PUSH1 0x1 DUP2 ADD SWAP1 POP PUSH2 0x377 JUMP JUMPDEST POP POP JUMP JUMPDEST PUSH1 0x1F DUP3 GT ISZERO PUSH2 0x3D9 JUMPI PUSH2 0x3AA DUP2 PUSH2 0x27B JUMP JUMPDEST PUSH2 0x3B3 DUP5 PUSH2 0x28D JUMP JUMPDEST DUP2 ADD PUSH1 0x20 DUP6 LT ISZERO PUSH2 0x3C2 JUMPI DUP2 SWAP1 POP JUMPDEST PUSH2 0x3D6 PUSH2 0x3CE DUP6 PUSH2 0x28D JUMP JUMPDEST DUP4 ADD DUP3 PUSH2 0x376 JUMP JUMPDEST POP POP JUMPDEST POP POP POP JUMP JUMPDEST PUSH0 DUP3 DUP3 SHR SWAP1 POP SWAP3 SWAP2 POP POP JUMP JUMPDEST PUSH0 PUSH2 0x3F9 PUSH0 NOT DUP5 PUSH1 0x8 MUL PUSH2 0x3DE JUMP JUMPDEST NOT DUP1 DUP4 AND SWAP2 POP POP SWAP3 SWAP2 POP POP JUMP JUMPDEST PUSH0 PUSH2 0x411 DUP4 DUP4 PUSH2 0x3EA JUMP JUMPDEST SWAP2 POP DUP3 PUSH1 0x2 MUL DUP3 OR SWAP1 POP SWAP3 SWAP2 POP POP JUMP JUMPDEST PUSH2 0x42A DUP3 PUSH2 0x1E7 JUMP JUMPDEST PUSH8 0xFFFFFFFFFFFFFFFF DUP2 GT ISZERO PUSH2 0x443 JUMPI PUSH2 0x442 PUSH2 0x1F1 JUMP JUMPDEST JUMPDEST PUSH2 0x44D DUP3 SLOAD PUSH2 0x24B JUMP JUMPDEST PUSH2 0x458 DUP3 DUP3 DUP6 PUSH2 0x398 JUMP JUMPDEST PUSH0 PUSH1 0x20 SWAP1 POP PUSH1 0x1F DUP4 GT PUSH1 0x1 DUP2 EQ PUSH2 0x489 JUMPI PUSH0 DUP5 ISZERO PUSH2 0x477 JUMPI DUP3 DUP8 ADD MLOAD SWAP1 POP JUMPDEST PUSH2 0x481 DUP6 DUP3 PUSH2 0x406 JUMP JUMPDEST DUP7 SSTORE POP PUSH2 0x4E8 JUMP JUMPDEST PUSH1 0x1F NOT DUP5 AND PUSH2 0x497 DUP7 PUSH2 0x27B JUMP JUMPDEST PUSH0 JUMPDEST DUP3 DUP2 LT ISZERO PUSH2 0x4BE JUMPI DUP5 DUP10 ADD MLOAD DUP3 SSTORE PUSH1 0x1 DUP3 ADD SWAP2 POP PUSH1 0x20 DUP6 ADD SWAP5 POP PUSH1 0x20 DUP2 ADD SWAP1 POP PUSH2 0x499 JUMP JUMPDEST DUP7 DUP4 LT ISZERO PUSH2 0x4DB JUMPI DUP5 DUP10 ADD MLOAD PUSH2 0x4D7 PUSH1 0x1F DUP10 AND DUP3 PUSH2 0x3EA JUMP JUMPDEST DUP4 SSTORE POP JUMPDEST PUSH1 0x1 PUSH1 0x2 DUP9 MUL ADD DUP9 SSTORE POP POP POP JUMPDEST POP POP POP POP POP POP JUMP JUMPDEST PUSH0 PUSH20 0xFFFFFFFFFFFFFFFFFFFFFFFFFFFFFFFFFFFFFFFF DUP3 AND SWAP1 POP SWAP2 SWAP1 POP JUMP JUMPDEST PUSH0 PUSH2 0x519 DUP3 PUSH2 0x4F0 JUMP JUMPDEST SWAP1 POP SWAP2 SWAP1 POP JUMP JUMPDEST PUSH2 0x529 DUP2 PUSH2 0x50F JUMP JUMPDEST DUP3 MSTORE POP POP JUMP JUMPDEST PUSH0 PUSH1 0x20 DUP3 ADD SWAP1 POP PUSH2 0x542 PUSH0 DUP4 ADD DUP5 PUSH2 0x520 JUMP JUMPDEST SWAP3 SWAP2 POP POP JUMP JUMPDEST PUSH2 0x363B DUP1 PUSH2 0x555 PUSH0 CODECOPY PUSH0 RETURN INVALID PUSH1 0x80 PUSH1 0x40 MSTORE PUSH1 0x4 CALLDATASIZE LT PUSH2 0x1C1 JUMPI PUSH0 CALLDATALOAD PUSH1 0xE0 SHR DUP1 PUSH4 0x7847A2C4 GT PUSH2 0xF6 JUMPI DUP1 PUSH4 0xAAAC5FC6 GT PUSH2 0x94 JUMPI DUP1 PUSH4 0xDEEBEAC9 GT PUSH2 0x63 JUMPI DUP1 PUSH4 0xDEEBEAC9 EQ PUSH2 0x60E JUMPI DUP1 PUSH4 0xE44B5252 EQ PUSH2 0x64A JUMPI DUP1 PUSH4 0xF2FDE38B EQ PUSH2 0x675 JUMPI DUP1 PUSH4 0xFAC07D2A EQ PUSH2 0x69D JUMPI PUSH2 0x1C1 JUMP JUMPDEST DUP1 PUSH4 0xAAAC5FC6 EQ PUSH2 0x563 JUMPI DUP1 PUSH4 0xB384ABEF EQ PUSH2 0x5A0 JUMPI DUP1 PUSH4 0xB3F179BA EQ PUSH2 0x5BC JUMPI DUP1 PUSH4 0xDD62ED3E EQ PUSH2 0x5D2 JUMPI PUSH2 0x1C1 JUMP JUMPDEST DUP1 PUSH4 0x95D89B41 GT PUSH2 0xD0 JUMPI DUP1 PUSH4 0x95D89B41 EQ PUSH2 0x4AD JUMPI DUP1 PUSH4 0xA0712D68 EQ PUSH2 0x4D7 JUMPI DUP1 PUSH4 0xA0BDAFDA EQ PUSH2 0x4FF JUMPI DUP1 PUSH4 0xA9059CBB EQ PUSH2 0x527 JUMPI PUSH2 0x1C1 JUMP JUMPDEST DUP1 PUSH4 0x7847A2C4 EQ PUSH2 0x431 JUMPI DUP1 PUSH4 0x8A9AC1D2 EQ PUSH2 0x45B JUMPI DUP1 PUSH4 0x8DA5CB5B EQ PUSH2 0x483 JUMPI PUSH2 0x1C1 JUMP JUMPDEST DUP1 PUSH4 0x32BF68D4 GT PUSH2 0x163 JUMPI DUP1 PUSH4 0x503C560F GT PUSH2 0x13D JUMPI DUP1 PUSH4 0x503C560F EQ PUSH2 0x38D JUMPI DUP1 PUSH4 0x6E34A44D EQ PUSH2 0x3B5 JUMPI DUP1 PUSH4 0x70A08231 EQ PUSH2 0x3DF JUMPI DUP1 PUSH4 0x715018A6 EQ PUSH2 0x41B JUMPI PUSH2 0x1C1 JUMP JUMPDEST DUP1 PUSH4 0x32BF68D4 EQ PUSH2 0x2FB JUMPI DUP1 PUSH4 0x445BEF35 EQ PUSH2 0x325 JUMPI DUP1 PUSH4 0x4FF7BCB1 EQ PUSH2 0x34D JUMPI PUSH2 0x1C1 JUMP JUMPDEST DUP1 PUSH4 0x1A90C25A GT PUSH2 0x19F JUMPI DUP1 PUSH4 0x1A90C25A EQ PUSH2 0x255 JUMPI DUP1 PUSH4 0x23B872DD EQ PUSH2 0x27F JUMPI DUP1 PUSH4 0x2580E9FB EQ PUSH2 0x2BB JUMPI DUP1 PUSH4 0x313CE567 EQ PUSH2 0x2D1 JUMPI PUSH2 0x1C1 JUMP JUMPDEST DUP1 PUSH4 0x6FDDE03 EQ PUSH2 0x1C5 JUMPI DUP1 PUSH4 0x95EA7B3 EQ PUSH2 0x1EF JUMPI DUP1 PUSH4 0x18160DDD EQ PUSH2 0x22B JUMPI JUMPDEST PUSH0 DUP1 REVERT JUMPDEST CALLVALUE DUP1 ISZERO PUSH2 0x1D0 JUMPI PUSH0 DUP1 REVERT JUMPDEST POP PUSH2 0x1D9 PUSH2 0x6C8 JUMP JUMPDEST PUSH1 0x40 MLOAD PUSH2 0x1E6 SWAP2 SWAP1 PUSH2 0x250E JUMP JUMPDEST PUSH1 0x40 MLOAD DUP1 SWAP2 SUB SWAP1 RETURN JUMPDEST CALLVALUE DUP1 ISZERO PUSH2 0x1FA JUMPI PUSH0 DUP1 REVERT JUMPDEST POP PUSH2 0x215 PUSH1 0x4 DUP1 CALLDATASIZE SUB DUP2 ADD SWAP1 PUSH2 0x210 SWAP2 SWAP1 PUSH2 0x25CC JUMP JUMPDEST PUSH2 0x758 JUMP JUMPDEST PUSH1 0x40 MLOAD PUSH2 0x222 SWAP2 SWAP1 PUSH2 0x2624 JUMP JUMPDEST PUSH1 0x40 MLOAD DUP1 SWAP2 SUB SWAP1 RETURN JUMPDEST CALLVALUE DUP1 ISZERO PUSH2 0x236 JUMPI PUSH0 DUP1 REVERT JUMPDEST POP PUSH2 0x23F PUSH2 0x77A JUMP JUMPDEST PUSH1 0x40 MLOAD PUSH2 0x24C SWAP2 SWAP1 PUSH2 0x264C JUMP JUMPDEST PUSH1 0x40 MLOAD DUP1 SWAP2 SUB SWAP1 RETURN JUMPDEST CALLVALUE DUP1 ISZERO PUSH2 0x260 JUMPI PUSH0 DUP1 REVERT JUMPDEST POP PUSH2 0x269 PUSH2 0x783 JUMP JUMPDEST PUSH1 0x40 MLOAD PUSH2 0x276 SWAP2 SWAP1 PUSH2 0x264C JUMP JUMPDEST PUSH1 0x40 MLOAD DUP1 SWAP2 SUB SWAP1 RETURN JUMPDEST CALLVALUE DUP1 ISZERO PUSH2 0x28A JUMPI PUSH0 DUP1 REVERT JUMPDEST POP PUSH2 0x2A5 PUSH1 0x4 DUP1 CALLDATASIZE SUB DUP2 ADD SWAP1 PUSH2 0x2A0 SWAP2 SWAP1 PUSH2 0x2665 JUMP JUMPDEST PUSH2 0x7A6 JUMP JUMPDEST PUSH1 0x40 MLOAD PUSH2 0x2B2 SWAP2 SWAP1 PUSH2 0x2624 JUMP JUMPDEST PUSH1 0x40 MLOAD DUP1 SWAP2 SUB SWAP1 RETURN JUMPDEST CALLVALUE DUP1 ISZERO PUSH2 0x2C6 JUMPI PUSH0 DUP1 REVERT JUMPDEST POP PUSH2 0x2CF PUSH2 0x7D4 JUMP JUMPDEST STOP JUMPDEST CALLVALUE DUP1 ISZERO PUSH2 0x2DC JUMPI PUSH0 DUP1 REVERT JUMPDEST POP PUSH2 0x2E5 PUSH2 0x84A JUMP JUMPDEST PUSH1 0x40 MLOAD PUSH2 0x2F2 SWAP2 SWAP1 PUSH2 0x26D0 JUMP JUMPDEST PUSH1 0x40 MLOAD DUP1 SWAP2 SUB SWAP1 RETURN JUMPDEST CALLVALUE DUP1 ISZERO PUSH2 0x306 JUMPI PUSH0 DUP1 REVERT JUMPDEST POP PUSH2 0x30F PUSH2 0x852 JUMP JUMPDEST PUSH1 0x40 MLOAD PUSH2 0x31C SWAP2 SWAP1 PUSH2 0x27A0 JUMP JUMPDEST PUSH1 0x40 MLOAD DUP1 SWAP2 SUB SWAP1 RETURN JUMPDEST CALLVALUE DUP1 ISZERO PUSH2 0x330 JUMPI PUSH0 DUP1 REVERT JUMPDEST POP PUSH2 0x34B PUSH1 0x4 DUP1 CALLDATASIZE SUB DUP2 ADD SWAP1 PUSH2 0x346 SWAP2 SWAP1 PUSH2 0x27C0 JUMP JUMPDEST PUSH2 0x8DD JUMP JUMPDEST STOP JUMPDEST CALLVALUE DUP1 ISZERO PUSH2 0x358 JUMPI PUSH0 DUP1 REVERT JUMPDEST POP PUSH2 0x373 PUSH1 0x4 DUP1 CALLDATASIZE SUB DUP2 ADD SWAP1 PUSH2 0x36E SWAP2 SWAP1 PUSH2 0x27C0 JUMP JUMPDEST PUSH2 0x9E2 JUMP JUMPDEST PUSH1 0x40 MLOAD PUSH2 0x384 SWAP6 SWAP5 SWAP4 SWAP3 SWAP2 SWAP1 PUSH2 0x29B4 JUMP JUMPDEST PUSH1 0x40 MLOAD DUP1 SWAP2 SUB SWAP1 RETURN JUMPDEST CALLVALUE DUP1 ISZERO PUSH2 0x398 JUMPI PUSH0 DUP1 REVERT JUMPDEST POP PUSH2 0x3B3 PUSH1 0x4 DUP1 CALLDATASIZE SUB DUP2 ADD SWAP1 PUSH2 0x3AE SWAP2 SWAP1 PUSH2 0x2B46 JUMP JUMPDEST PUSH2 0xCC7 JUMP JUMPDEST STOP JUMPDEST CALLVALUE DUP1 ISZERO PUSH2 0x3C0 JUMPI PUSH0 DUP1 REVERT JUMPDEST POP PUSH2 0x3C9 PUSH2 0xD66 JUMP JUMPDEST PUSH1 0x40 MLOAD PUSH2 0x3D6 SWAP2 SWAP1 PUSH2 0x264C JUMP JUMPDEST PUSH1 0x40 MLOAD DUP1 SWAP2 SUB SWAP1 RETURN JUMPDEST CALLVALUE DUP1 ISZERO PUSH2 0x3EA JUMPI PUSH0 DUP1 REVERT JUMPDEST POP PUSH2 0x405 PUSH1 0x4 DUP1 CALLDATASIZE SUB DUP2 ADD SWAP1 PUSH2 0x400 SWAP2 SWAP1 PUSH2 0x2B8D JUMP JUMPDEST PUSH2 0xD6C JUMP JUMPDEST PUSH1 0x40 MLOAD PUSH2 0x412 SWAP2 SWAP1 PUSH2 0x264C JUMP JUMPDEST PUSH1 0x40 MLOAD DUP1 SWAP2 SUB SWAP1 RETURN JUMPDEST CALLVALUE DUP1 ISZERO PUSH2 0x426 JUMPI PUSH0 DUP1 REVERT JUMPDEST POP PUSH2 0x42F PUSH2 0xDB1 JUMP JUMPDEST STOP JUMPDEST CALLVALUE DUP1 ISZERO PUSH2 0x43C JUMPI PUSH0 DUP1 REVERT JUMPDEST POP PUSH2 0x445 PUSH2 0xDC4 JUMP JUMPDEST PUSH1 0x40 MLOAD PUSH2 0x452 SWAP2 SWAP1 PUSH2 0x2BB8 JUMP JUMPDEST PUSH1 0x40 MLOAD DUP1 SWAP2 SUB SWAP1 RETURN JUMPDEST CALLVALUE DUP1 ISZERO PUSH2 0x466 JUMPI PUSH0 DUP1 REVERT JUMPDEST POP PUSH2 0x481 PUSH1 0x4 DUP1 CALLDATASIZE SUB DUP2 ADD SWAP1 PUSH2 0x47C SWAP2 SWAP1 PUSH2 0x27C0 JUMP JUMPDEST PUSH2 0xF02 JUMP JUMPDEST STOP JUMPDEST CALLVALUE DUP1 ISZERO PUSH2 0x48E JUMPI PUSH0 DUP1 REVERT JUMPDEST POP PUSH2 0x497 PUSH2 0x106D JUMP JUMPDEST PUSH1 0x40 MLOAD PUSH2 0x4A4 SWAP2 SWAP1 PUSH2 0x2BD8 JUMP JUMPDEST PUSH1 0x40 MLOAD DUP1 SWAP2 SUB SWAP1 RETURN JUMPDEST CALLVALUE DUP1 ISZERO PUSH2 0x4B8 JUMPI PUSH0 DUP1 REVERT JUMPDEST POP PUSH2 0x4C1 PUSH2 0x1095 JUMP JUMPDEST PUSH1 0x40 MLOAD PUSH2 0x4CE SWAP2 SWAP1 PUSH2 0x250E JUMP JUMPDEST PUSH1 0x40 MLOAD DUP1 SWAP2 SUB SWAP1 RETURN JUMPDEST CALLVALUE DUP1 ISZERO PUSH2 0x4E2 JUMPI PUSH0 DUP1 REVERT JUMPDEST POP PUSH2 0x4FD PUSH1 0x4 DUP1 CALLDATASIZE SUB DUP2 ADD SWAP1 PUSH2 0x4F8 SWAP2 SWAP1 PUSH2 0x27C0 JUMP JUMPDEST PUSH2 0x1125 JUMP JUMPDEST STOP JUMPDEST CALLVALUE DUP1 ISZERO PUSH2 0x50A JUMPI PUSH0 DUP1 REVERT JUMPDEST POP PUSH2 0x525 PUSH1 0x4 DUP1 CALLDATASIZE SUB DUP2 ADD SWAP1 PUSH2 0x520 SWAP2 SWAP1 PUSH2 0x2BF1 JUMP JUMPDEST PUSH2 0x1152 JUMP JUMPDEST STOP JUMPDEST CALLVALUE DUP1 ISZERO PUSH2 0x532 JUMPI PUSH0 DUP1 REVERT JUMPDEST POP PUSH2 0x54D PUSH1 0x4 DUP1 CALLDATASIZE SUB DUP2 ADD SWAP1 PUSH2 0x548 SWAP2 SWAP1 PUSH2 0x25CC JUMP JUMPDEST PUSH2 0x12A6 JUMP JUMPDEST PUSH1 0x40 MLOAD PUSH2 0x55A SWAP2 SWAP1 PUSH2 0x2624 JUMP JUMPDEST PUSH1 0x40 MLOAD DUP1 SWAP2 SUB SWAP1 RETURN JUMPDEST CALLVALUE DUP1 ISZERO PUSH2 0x56E JUMPI PUSH0 DUP1 REVERT JUMPDEST POP PUSH2 0x589 PUSH1 0x4 DUP1 CALLDATASIZE SUB DUP2 ADD SWAP1 PUSH2 0x584 SWAP2 SWAP1 PUSH2 0x27C0 JUMP JUMPDEST PUSH2 0x12C8 JUMP JUMPDEST PUSH1 0x40 MLOAD PUSH2 0x597 SWAP3 SWAP2 SWAP1 PUSH2 0x2C4B JUMP JUMPDEST PUSH1 0x40 MLOAD DUP1 SWAP2 SUB SWAP1 RETURN JUMPDEST PUSH2 0x5BA PUSH1 0x4 DUP1 CALLDATASIZE SUB DUP2 ADD SWAP1 PUSH2 0x5B5 SWAP2 SWAP1 PUSH2 0x2C79 JUMP JUMPDEST PUSH2 0x141B JUMP JUMPDEST STOP JUMPDEST CALLVALUE DUP1 ISZERO PUSH2 0x5C7 JUMPI PUSH0 DUP1 REVERT JUMPDEST POP PUSH2 0x5D0 PUSH2 0x1663 JUMP JUMPDEST STOP JUMPDEST CALLVALUE DUP1 ISZERO PUSH2 0x5DD JUMPI PUSH0 DUP1 REVERT JUMPDEST POP PUSH2 0x5F8 PUSH1 0x4 DUP1 CALLDATASIZE SUB DUP2 ADD SWAP1 PUSH2 0x5F3 SWAP2 SWAP1 PUSH2 0x2CB7 JUMP JUMPDEST PUSH2 0x16D9 JUMP JUMPDEST PUSH1 0x40 MLOAD PUSH2 0x605 SWAP2 SWAP1 PUSH2 0x264C JUMP JUMPDEST PUSH1 0x40 MLOAD DUP1 SWAP2 SUB SWAP1 RETURN JUMPDEST CALLVALUE DUP1 ISZERO PUSH2 0x619 JUMPI PUSH0 DUP1 REVERT JUMPDEST POP PUSH2 0x634 PUSH1 0x4 DUP1 CALLDATASIZE SUB DUP2 ADD SWAP1 PUSH2 0x62F SWAP2 SWAP1 PUSH2 0x2B8D JUMP JUMPDEST PUSH2 0x175B JUMP JUMPDEST PUSH1 0x40 MLOAD PUSH2 0x641 SWAP2 SWAP1 PUSH2 0x2624 JUMP JUMPDEST PUSH1 0x40 MLOAD DUP1 SWAP2 SUB SWAP1 RETURN JUMPDEST CALLVALUE DUP1 ISZERO PUSH2 0x655 JUMPI PUSH0 DUP1 REVERT JUMPDEST POP PUSH2 0x65E PUSH2 0x189F JUMP JUMPDEST PUSH1 0x40 MLOAD PUSH2 0x66C SWAP3 SWAP2 SWAP1 PUSH2 0x2CF5 JUMP JUMPDEST PUSH1 0x40 MLOAD DUP1 SWAP2 SUB SWAP1 RETURN JUMPDEST CALLVALUE DUP1 ISZERO PUSH2 0x680 JUMPI PUSH0 DUP1 REVERT JUMPDEST POP PUSH2 0x69B PUSH1 0x4 DUP1 CALLDATASIZE SUB DUP2 ADD SWAP1 PUSH2 0x696 SWAP2 SWAP1 PUSH2 0x2B8D JUMP JUMPDEST PUSH2 0x19CC JUMP JUMPDEST STOP JUMPDEST CALLVALUE DUP1 ISZERO PUSH2 0x6A8 JUMPI PUSH0 DUP1 REVERT JUMPDEST POP PUSH2 0x6B1 PUSH2 0x1A50 JUMP JUMPDEST PUSH1 0x40 MLOAD PUSH2 0x6BF SWAP3 SWAP2 SWAP1 PUSH2 0x2D23 JUMP JUMPDEST PUSH1 0x40 MLOAD DUP1 SWAP2 SUB SWAP1 RETURN JUMPDEST PUSH1 0x60 PUSH1 0x3 DUP1 SLOAD PUSH2 0x6D7 SWAP1 PUSH2 0x2D85 JUMP JUMPDEST DUP1 PUSH1 0x1F ADD PUSH1 0x20 DUP1 SWAP2 DIV MUL PUSH1 0x20 ADD PUSH1 0x40 MLOAD SWAP1 DUP2 ADD PUSH1 0x40 MSTORE DUP1 SWAP3 SWAP2 SWAP1 DUP2 DUP2 MSTORE PUSH1 0x20 ADD DUP3 DUP1 SLOAD PUSH2 0x703 SWAP1 PUSH2 0x2D85 JUMP JUMPDEST DUP1 ISZERO PUSH2 0x74E JUMPI DUP1 PUSH1 0x1F LT PUSH2 0x725 JUMPI PUSH2 0x100 DUP1 DUP4 SLOAD DIV MUL DUP4 MSTORE SWAP2 PUSH1 0x20 ADD SWAP2 PUSH2 0x74E JUMP JUMPDEST DUP3 ADD SWAP2 SWAP1 PUSH0 MSTORE PUSH1 0x20 PUSH0 KECCAK256 SWAP1 JUMPDEST DUP2 SLOAD DUP2 MSTORE SWAP1 PUSH1 0x1 ADD SWAP1 PUSH1 0x20 ADD DUP1 DUP4 GT PUSH2 0x731 JUMPI DUP3 SWAP1 SUB PUSH1 0x1F AND DUP3 ADD SWAP2 JUMPDEST POP POP POP POP POP SWAP1 POP SWAP1 JUMP JUMPDEST PUSH0 DUP1 PUSH2 0x762 PUSH2 0x1C6D JUMP JUMPDEST SWAP1 POP PUSH2 0x76F DUP2 DUP6 DUP6 PUSH2 0x1C74 JUMP JUMPDEST PUSH1 0x1 SWAP2 POP POP SWAP3 SWAP2 POP POP JUMP JUMPDEST PUSH0 PUSH1 0x2 SLOAD SWAP1 POP SWAP1 JUMP JUMPDEST PUSH0 DUP1 PUSH0 SWAP1 POP PUSH2 0x790 PUSH2 0x77A JUMP JUMPDEST PUSH1 0xB SLOAD PUSH2 0x79D SWAP2 SWAP1 PUSH2 0x2DE2 JUMP JUMPDEST SWAP1 POP DUP1 SWAP2 POP POP SWAP1 JUMP JUMPDEST PUSH0 DUP1 PUSH2 0x7B0 PUSH2 0x1C6D JUMP JUMPDEST SWAP1 POP PUSH2 0x7BD DUP6 DUP3 DUP6 PUSH2 0x1C86 JUMP JUMPDEST PUSH2 0x7C8 DUP6 DUP6 DUP6 PUSH2 0x1D18 JUMP JUMPDEST PUSH1 0x1 SWAP2 POP POP SWAP4 SWAP3 POP POP POP JUMP JUMPDEST PUSH2 0x7DC PUSH2 0x1E08 JUMP JUMPDEST PUSH0 JUMPDEST PUSH1 0xA SLOAD DUP2 LT ISZERO PUSH2 0x847 JUMPI PUSH1 0x8 PUSH0 DUP3 DUP2 MSTORE PUSH1 0x20 ADD SWAP1 DUP2 MSTORE PUSH1 0x20 ADD PUSH0 KECCAK256 PUSH1 0x4 ADD PUSH0 SWAP1 SLOAD SWAP1 PUSH2 0x100 EXP SWAP1 DIV PUSH1 0xFF AND ISZERO PUSH2 0x83A JUMPI PUSH0 PUSH1 0x8 PUSH0 DUP4 DUP2 MSTORE PUSH1 0x20 ADD SWAP1 DUP2 MSTORE PUSH1 0x20 ADD PUSH0 KECCAK256 PUSH1 0x4 ADD PUSH0 PUSH2 0x100 EXP DUP2 SLOAD DUP2 PUSH1 0xFF MUL NOT AND SWAP1 DUP4 ISZERO ISZERO MUL OR SWAP1 SSTORE POP JUMPDEST DUP1 DUP1 PUSH1 0x1 ADD SWAP2 POP POP PUSH2 0x7DE JUMP JUMPDEST POP JUMP JUMPDEST PUSH0 PUSH1 0x12 SWAP1 POP SWAP1 JUMP JUMPDEST PUSH1 0x60 PUSH1 0x9 DUP1 SLOAD DUP1 PUSH1 0x20 MUL PUSH1 0x20 ADD PUSH1 0x40 MLOAD SWAP1 DUP2 ADD PUSH1 0x40 MSTORE DUP1 SWAP3 SWAP2 SWAP1 DUP2 DUP2 MSTORE PUSH1 0x20 ADD DUP3 DUP1 SLOAD DUP1 ISZERO PUSH2 0x8D3 JUMPI PUSH1 0x20 MUL DUP3 ADD SWAP2 SWAP1 PUSH0 MSTORE PUSH1 0x20 PUSH0 KECCAK256 SWAP1 JUMPDEST DUP2 PUSH0 SWAP1 SLOAD SWAP1 PUSH2 0x100 EXP SWAP1 DIV PUSH20 0xFFFFFFFFFFFFFFFFFFFFFFFFFFFFFFFFFFFFFFFF AND PUSH20 0xFFFFFFFFFFFFFFFFFFFFFFFFFFFFFFFFFFFFFFFF AND DUP2 MSTORE PUSH1 0x20 ADD SWAP1 PUSH1 0x1 ADD SWAP1 DUP1 DUP4 GT PUSH2 0x88A JUMPI JUMPDEST POP POP POP POP POP SWAP1 POP SWAP1 JUMP JUMPDEST PUSH2 0x8E5 PUSH2 0x106D JUMP JUMPDEST PUSH20 0xFFFFFFFFFFFFFFFFFFFFFFFFFFFFFFFFFFFFFFFF AND CALLER PUSH20 0xFFFFFFFFFFFFFFFFFFFFFFFFFFFFFFFFFFFFFFFF AND EQ PUSH2 0x952 JUMPI PUSH1 0x40 MLOAD PUSH32 0x8C379A000000000000000000000000000000000000000000000000000000000 DUP2 MSTORE PUSH1 0x4 ADD PUSH2 0x949 SWAP1 PUSH2 0x2E5F JUMP JUMPDEST PUSH1 0x40 MLOAD DUP1 SWAP2 SUB SWAP1 REVERT JUMPDEST PUSH1 0x8 PUSH0 DUP3 DUP2 MSTORE PUSH1 0x20 ADD SWAP1 DUP2 MSTORE PUSH1 0x20 ADD PUSH0 KECCAK256 PUSH1 0x4 ADD PUSH0 SWAP1 SLOAD SWAP1 PUSH2 0x100 EXP SWAP1 DIV PUSH1 0xFF AND ISZERO PUSH2 0x9B3 JUMPI PUSH1 0x40 MLOAD PUSH32 0x8C379A000000000000000000000000000000000000000000000000000000000 DUP2 MSTORE PUSH1 0x4 ADD PUSH2 0x9AA SWAP1 PUSH2 0x2EC7 JUMP JUMPDEST PUSH1 0x40 MLOAD DUP1 SWAP2 SUB SWAP1 REVERT JUMPDEST PUSH1 0x1 PUSH1 0x8 PUSH0 DUP4 DUP2 MSTORE PUSH1 0x20 ADD SWAP1 DUP2 MSTORE PUSH1 0x20 ADD PUSH0 KECCAK256 PUSH1 0x4 ADD PUSH0 PUSH2 0x100 EXP DUP2 SLOAD DUP2 PUSH1 0xFF MUL NOT AND SWAP1 DUP4 ISZERO ISZERO MUL OR SWAP1 SSTORE POP POP JUMP JUMPDEST PUSH1 0x60 PUSH0 DUP1 PUSH1 0x60 DUP1 PUSH1 0xA SLOAD DUP7 LT PUSH2 0xA2D JUMPI PUSH1 0x40 MLOAD PUSH32 0x8C379A000000000000000000000000000000000000000000000000000000000 DUP2 MSTORE PUSH1 0x4 ADD PUSH2 0xA24 SWAP1 PUSH2 0x2F2F JUMP JUMPDEST PUSH1 0x40 MLOAD DUP1 SWAP2 SUB SWAP1 REVERT JUMPDEST PUSH1 0x8 PUSH0 DUP8 DUP2 MSTORE PUSH1 0x20 ADD SWAP1 DUP2 MSTORE PUSH1 0x20 ADD PUSH0 KECCAK256 PUSH1 0x1 ADD DUP1 SLOAD PUSH2 0xA4C SWAP1 PUSH2 0x2D85 JUMP JUMPDEST DUP1 PUSH1 0x1F ADD PUSH1 0x20 DUP1 SWAP2 DIV MUL PUSH1 0x20 ADD PUSH1 0x40 MLOAD SWAP1 DUP2 ADD PUSH1 0x40 MSTORE DUP1 SWAP3 SWAP2 SWAP1 DUP2 DUP2 MSTORE PUSH1 0x20 ADD DUP3 DUP1 SLOAD PUSH2 0xA78 SWAP1 PUSH2 0x2D85 JUMP JUMPDEST DUP1 ISZERO PUSH2 0xAC3 JUMPI DUP1 PUSH1 0x1F LT PUSH2 0xA9A JUMPI PUSH2 0x100 DUP1 DUP4 SLOAD DIV MUL DUP4 MSTORE SWAP2 PUSH1 0x20 ADD SWAP2 PUSH2 0xAC3 JUMP JUMPDEST DUP3 ADD SWAP2 SWAP1 PUSH0 MSTORE PUSH1 0x20 PUSH0 KECCAK256 SWAP1 JUMPDEST DUP2 SLOAD DUP2 MSTORE SWAP1 PUSH1 0x1 ADD SWAP1 PUSH1 0x20 ADD DUP1 DUP4 GT PUSH2 0xAA6 JUMPI DUP3 SWAP1 SUB PUSH1 0x1F AND DUP3 ADD SWAP2 JUMPDEST POP POP POP POP POP SWAP5 POP PUSH1 0x8 PUSH0 DUP8 DUP2 MSTORE PUSH1 0x20 ADD SWAP1 DUP2 MSTORE PUSH1 0x20 ADD PUSH0 KECCAK256 PUSH0 ADD PUSH0 SWAP1 SLOAD SWAP1 PUSH2 0x100 EXP SWAP1 DIV PUSH20 0xFFFFFFFFFFFFFFFFFFFFFFFFFFFFFFFFFFFFFFFF AND SWAP4 POP PUSH1 0x8 PUSH0 DUP8 DUP2 MSTORE PUSH1 0x20 ADD SWAP1 DUP2 MSTORE PUSH1 0x20 ADD PUSH0 KECCAK256 PUSH1 0x4 ADD PUSH0 SWAP1 SLOAD SWAP1 PUSH2 0x100 EXP SWAP1 DIV PUSH1 0xFF AND SWAP3 POP PUSH1 0x8 PUSH0 DUP8 DUP2 MSTORE PUSH1 0x20 ADD SWAP1 DUP2 MSTORE PUSH1 0x20 ADD PUSH0 KECCAK256 PUSH1 0x3 ADD DUP1 SLOAD DUP1 PUSH1 0x20 MUL PUSH1 0x20 ADD PUSH1 0x40 MLOAD SWAP1 DUP2 ADD PUSH1 0x40 MSTORE DUP1 SWAP3 SWAP2 SWAP1 DUP2 DUP2 MSTORE PUSH1 0x20 ADD DUP3 DUP1 SLOAD DUP1 ISZERO PUSH2 0xB7E JUMPI PUSH1 0x20 MUL DUP3 ADD SWAP2 SWAP1 PUSH0 MSTORE PUSH1 0x20 PUSH0 KECCAK256 SWAP1 JUMPDEST DUP2 SLOAD DUP2 MSTORE PUSH1 0x20 ADD SWAP1 PUSH1 0x1 ADD SWAP1 DUP1 DUP4 GT PUSH2 0xB6A JUMPI JUMPDEST POP POP POP POP POP SWAP2 POP PUSH1 0x6 DUP1 SLOAD SWAP1 POP PUSH8 0xFFFFFFFFFFFFFFFF DUP2 GT ISZERO PUSH2 0xBA4 JUMPI PUSH2 0xBA3 PUSH2 0x2A22 JUMP JUMPDEST JUMPDEST PUSH1 0x40 MLOAD SWAP1 DUP1 DUP3 MSTORE DUP1 PUSH1 0x20 MUL PUSH1 0x20 ADD DUP3 ADD PUSH1 0x40 MSTORE DUP1 ISZERO PUSH2 0xBD7 JUMPI DUP2 PUSH1 0x20 ADD JUMPDEST PUSH1 0x60 DUP2 MSTORE PUSH1 0x20 ADD SWAP1 PUSH1 0x1 SWAP1 SUB SWAP1 DUP2 PUSH2 0xBC2 JUMPI SWAP1 POP JUMPDEST POP SWAP1 POP PUSH0 JUMPDEST PUSH1 0x6 DUP1 SLOAD SWAP1 POP DUP2 LT ISZERO PUSH2 0xCBD JUMPI PUSH1 0x6 DUP2 DUP2 SLOAD DUP2 LT PUSH2 0xBFD JUMPI PUSH2 0xBFC PUSH2 0x2F4D JUMP JUMPDEST JUMPDEST SWAP1 PUSH0 MSTORE PUSH1 0x20 PUSH0 KECCAK256 SWAP1 PUSH1 0x2 MUL ADD PUSH0 ADD DUP1 SLOAD PUSH2 0xC16 SWAP1 PUSH2 0x2D85 JUMP JUMPDEST DUP1 PUSH1 0x1F ADD PUSH1 0x20 DUP1 SWAP2 DIV MUL PUSH1 0x20 ADD PUSH1 0x40 MLOAD SWAP1 DUP2 ADD PUSH1 0x40 MSTORE DUP1 SWAP3 SWAP2 SWAP1 DUP2 DUP2 MSTORE PUSH1 0x20 ADD DUP3 DUP1 SLOAD PUSH2 0xC42 SWAP1 PUSH2 0x2D85 JUMP JUMPDEST DUP1 ISZERO PUSH2 0xC8D JUMPI DUP1 PUSH1 0x1F LT PUSH2 0xC64 JUMPI PUSH2 0x100 DUP1 DUP4 SLOAD DIV MUL DUP4 MSTORE SWAP2 PUSH1 0x20 ADD SWAP2 PUSH2 0xC8D JUMP JUMPDEST DUP3 ADD SWAP2 SWAP1 PUSH0 MSTORE PUSH1 0x20 PUSH0 KECCAK256 SWAP1 JUMPDEST DUP2 SLOAD DUP2 MSTORE SWAP1 PUSH1 0x1 ADD SWAP1 PUSH1 0x20 ADD DUP1 DUP4 GT PUSH2 0xC70 JUMPI DUP3 SWAP1 SUB PUSH1 0x1F AND DUP3 ADD SWAP2 JUMPDEST POP POP POP POP POP DUP3 DUP3 DUP2 MLOAD DUP2 LT PUSH2 0xCA5 JUMPI PUSH2 0xCA4 PUSH2 0x2F4D JUMP JUMPDEST JUMPDEST PUSH1 0x20 MUL PUSH1 0x20 ADD ADD DUP2 SWAP1 MSTORE POP DUP1 DUP1 PUSH1 0x1 ADD SWAP2 POP POP PUSH2 0xBDC JUMP JUMPDEST POP SWAP2 SWAP4 SWAP6 SWAP1 SWAP3 SWAP5 POP JUMP JUMPDEST PUSH2 0xCCF PUSH2 0x1E08 JUMP JUMPDEST PUSH1 0x6 PUSH1 0x40 MLOAD DUP1 PUSH1 0x40 ADD PUSH1 0x40 MSTORE DUP1 DUP4 DUP2 MSTORE PUSH1 0x20 ADD PUSH0 DUP2 MSTORE POP SWAP1 DUP1 PUSH1 0x1 DUP2 SLOAD ADD DUP1 DUP3 SSTORE DUP1 SWAP2 POP POP PUSH1 0x1 SWAP1 SUB SWAP1 PUSH0 MSTORE PUSH1 0x20 PUSH0 KECCAK256 SWAP1 PUSH1 0x2 MUL ADD PUSH0 SWAP1 SWAP2 SWAP1 SWAP2 SWAP1 SWAP2 POP PUSH0 DUP3 ADD MLOAD DUP2 PUSH0 ADD SWAP1 DUP2 PUSH2 0xD1F SWAP2 SWAP1 PUSH2 0x3117 JUMP JUMPDEST POP PUSH1 0x20 DUP3 ADD MLOAD DUP2 PUSH1 0x1 ADD SSTORE POP POP PUSH32 0x566C2D39711B082CC685ADE507DEE6291F47044333D9ABA4037034CDC3CFAC9E DUP2 PUSH1 0x40 MLOAD PUSH2 0xD5B SWAP2 SWAP1 PUSH2 0x250E JUMP JUMPDEST PUSH1 0x40 MLOAD DUP1 SWAP2 SUB SWAP1 LOG1 POP JUMP JUMPDEST PUSH1 0xB SLOAD DUP2 JUMP JUMPDEST PUSH0 DUP1 PUSH0 DUP4 PUSH20 0xFFFFFFFFFFFFFFFFFFFFFFFFFFFFFFFFFFFFFFFF AND PUSH20 0xFFFFFFFFFFFFFFFFFFFFFFFFFFFFFFFFFFFFFFFF AND DUP2 MSTORE PUSH1 0x20 ADD SWAP1 DUP2 MSTORE PUSH1 0x20 ADD PUSH0 KECCAK256 SLOAD SWAP1 POP SWAP2 SWAP1 POP JUMP JUMPDEST PUSH2 0xDB9 PUSH2 0x1E08 JUMP JUMPDEST PUSH2 0xDC2 PUSH0 PUSH2 0x1E8F JUMP JUMPDEST JUMP JUMPDEST PUSH1 0x60 PUSH1 0x6 DUP1 SLOAD SWAP1 POP PUSH8 0xFFFFFFFFFFFFFFFF DUP2 GT ISZERO PUSH2 0xDE5 JUMPI PUSH2 0xDE4 PUSH2 0x2A22 JUMP JUMPDEST JUMPDEST PUSH1 0x40 MLOAD SWAP1 DUP1 DUP3 MSTORE DUP1 PUSH1 0x20 MUL PUSH1 0x20 ADD DUP3 ADD PUSH1 0x40 MSTORE DUP1 ISZERO PUSH2 0xE18 JUMPI DUP2 PUSH1 0x20 ADD JUMPDEST PUSH1 0x60 DUP2 MSTORE PUSH1 0x20 ADD SWAP1 PUSH1 0x1 SWAP1 SUB SWAP1 DUP2 PUSH2 0xE03 JUMPI SWAP1 POP JUMPDEST POP SWAP1 POP PUSH0 JUMPDEST PUSH1 0x6 DUP1 SLOAD SWAP1 POP DUP2 LT ISZERO PUSH2 0xEFE JUMPI PUSH1 0x6 DUP2 DUP2 SLOAD DUP2 LT PUSH2 0xE3E JUMPI PUSH2 0xE3D PUSH2 0x2F4D JUMP JUMPDEST JUMPDEST SWAP1 PUSH0 MSTORE PUSH1 0x20 PUSH0 KECCAK256 SWAP1 PUSH1 0x2 MUL ADD PUSH0 ADD DUP1 SLOAD PUSH2 0xE57 SWAP1 PUSH2 0x2D85 JUMP JUMPDEST DUP1 PUSH1 0x1F ADD PUSH1 0x20 DUP1 SWAP2 DIV MUL PUSH1 0x20 ADD PUSH1 0x40 MLOAD SWAP1 DUP2 ADD PUSH1 0x40 MSTORE DUP1 SWAP3 SWAP2 SWAP1 DUP2 DUP2 MSTORE PUSH1 0x20 ADD DUP3 DUP1 SLOAD PUSH2 0xE83 SWAP1 PUSH2 0x2D85 JUMP JUMPDEST DUP1 ISZERO PUSH2 0xECE JUMPI DUP1 PUSH1 0x1F LT PUSH2 0xEA5 JUMPI PUSH2 0x100 DUP1 DUP4 SLOAD DIV MUL DUP4 MSTORE SWAP2 PUSH1 0x20 ADD SWAP2 PUSH2 0xECE JUMP JUMPDEST DUP3 ADD SWAP2 SWAP1 PUSH0 MSTORE PUSH1 0x20 PUSH0 KECCAK256 SWAP1 JUMPDEST DUP2 SLOAD DUP2 MSTORE SWAP1 PUSH1 0x1 ADD SWAP1 PUSH1 0x20 ADD DUP1 DUP4 GT PUSH2 0xEB1 JUMPI DUP3 SWAP1 SUB PUSH1 0x1F AND DUP3 ADD SWAP2 JUMPDEST POP POP POP POP POP DUP3 DUP3 DUP2 MLOAD DUP2 LT PUSH2 0xEE6 JUMPI PUSH2 0xEE5 PUSH2 0x2F4D JUMP JUMPDEST JUMPDEST PUSH1 0x20 MUL PUSH1 0x20 ADD ADD DUP2 SWAP1 MSTORE POP DUP1 DUP1 PUSH1 0x1 ADD SWAP2 POP POP PUSH2 0xE1D JUMP JUMPDEST POP SWAP1 JUMP JUMPDEST PUSH1 0x8 PUSH0 DUP3 DUP2 MSTORE PUSH1 0x20 ADD SWAP1 DUP2 MSTORE PUSH1 0x20 ADD PUSH0 KECCAK256 PUSH0 ADD PUSH0 SWAP1 SLOAD SWAP1 PUSH2 0x100 EXP SWAP1 DIV PUSH20 0xFFFFFFFFFFFFFFFFFFFFFFFFFFFFFFFFFFFFFFFF AND PUSH20 0xFFFFFFFFFFFFFFFFFFFFFFFFFFFFFFFFFFFFFFFF AND CALLER PUSH20 0xFFFFFFFFFFFFFFFFFFFFFFFFFFFFFFFFFFFFFFFF AND EQ DUP1 PUSH2 0xFA0 JUMPI POP PUSH2 0xF71 PUSH2 0x106D JUMP JUMPDEST PUSH20 0xFFFFFFFFFFFFFFFFFFFFFFFFFFFFFFFFFFFFFFFF AND CALLER PUSH20 0xFFFFFFFFFFFFFFFFFFFFFFFFFFFFFFFFFFFFFFFF AND EQ JUMPDEST PUSH2 0xFDF JUMPI PUSH1 0x40 MLOAD PUSH32 0x8C379A000000000000000000000000000000000000000000000000000000000 DUP2 MSTORE PUSH1 0x4 ADD PUSH2 0xFD6 SWAP1 PUSH2 0x3256 JUMP JUMPDEST PUSH1 0x40 MLOAD DUP1 SWAP2 SUB SWAP1 REVERT JUMPDEST PUSH1 0x8 PUSH0 DUP3 DUP2 MSTORE PUSH1 0x20 ADD SWAP1 DUP2 MSTORE PUSH1 0x20 ADD PUSH0 KECCAK256 PUSH1 0x4 ADD PUSH0 SWAP1 SLOAD SWAP1 PUSH2 0x100 EXP SWAP1 DIV PUSH1 0xFF AND PUSH2 0x103F JUMPI PUSH1 0x40 MLOAD PUSH32 0x8C379A000000000000000000000000000000000000000000000000000000000 DUP2 MSTORE PUSH1 0x4 ADD PUSH2 0x1036 SWAP1 PUSH2 0x32BE JUMP JUMPDEST PUSH1 0x40 MLOAD DUP1 SWAP2 SUB SWAP1 REVERT JUMPDEST PUSH0 PUSH1 0x8 PUSH0 DUP4 DUP2 MSTORE PUSH1 0x20 ADD SWAP1 DUP2 MSTORE PUSH1 0x20 ADD PUSH0 KECCAK256 PUSH1 0x4 ADD PUSH0 PUSH2 0x100 EXP DUP2 SLOAD DUP2 PUSH1 0xFF MUL NOT AND SWAP1 DUP4 ISZERO ISZERO MUL OR SWAP1 SSTORE POP POP JUMP JUMPDEST PUSH0 PUSH1 0x5 PUSH0 SWAP1 SLOAD SWAP1 PUSH2 0x100 EXP SWAP1 DIV PUSH20 0xFFFFFFFFFFFFFFFFFFFFFFFFFFFFFFFFFFFFFFFF AND SWAP1 POP SWAP1 JUMP JUMPDEST PUSH1 0x60 PUSH1 0x4 DUP1 SLOAD PUSH2 0x10A4 SWAP1 PUSH2 0x2D85 JUMP JUMPDEST DUP1 PUSH1 0x1F ADD PUSH1 0x20 DUP1 SWAP2 DIV MUL PUSH1 0x20 ADD PUSH1 0x40 MLOAD SWAP1 DUP2 ADD PUSH1 0x40 MSTORE DUP1 SWAP3 SWAP2 SWAP1 DUP2 DUP2 MSTORE PUSH1 0x20 ADD DUP3 DUP1 SLOAD PUSH2 0x10D0 SWAP1 PUSH2 0x2D85 JUMP JUMPDEST DUP1 ISZERO PUSH2 0x111B JUMPI DUP1 PUSH1 0x1F LT PUSH2 0x10F2 JUMPI PUSH2 0x100 DUP1 DUP4 SLOAD DIV MUL DUP4 MSTORE SWAP2 PUSH1 0x20 ADD SWAP2 PUSH2 0x111B JUMP JUMPDEST DUP3 ADD SWAP2 SWAP1 PUSH0 MSTORE PUSH1 0x20 PUSH0 KECCAK256 SWAP1 JUMPDEST DUP2 SLOAD DUP2 MSTORE SWAP1 PUSH1 0x1 ADD SWAP1 PUSH1 0x20 ADD DUP1 DUP4 GT PUSH2 0x10FE JUMPI DUP3 SWAP1 SUB PUSH1 0x1F AND DUP3 ADD SWAP2 JUMPDEST POP POP POP POP POP SWAP1 POP SWAP1 JUMP JUMPDEST PUSH2 0x112D PUSH2 0x1E08 JUMP JUMPDEST PUSH2 0x1137 ADDRESS DUP3 PUSH2 0x1F52 JUMP JUMPDEST DUP1 PUSH1 0xB PUSH0 DUP3 DUP3 SLOAD PUSH2 0x1148 SWAP2 SWAP1 PUSH2 0x32DC JUMP JUMPDEST SWAP3 POP POP DUP2 SWAP1 SSTORE POP POP JUMP JUMPDEST PUSH2 0x115A PUSH2 0x1E08 JUMP JUMPDEST PUSH1 0xA PUSH0 DUP2 SLOAD DUP1 SWAP3 SWAP2 SWAP1 PUSH2 0x116C SWAP1 PUSH2 0x330F JUMP JUMPDEST SWAP2 SWAP1 POP SSTORE POP PUSH0 PUSH1 0x8 PUSH0 PUSH1 0x1 PUSH1 0xA SLOAD PUSH2 0x1184 SWAP2 SWAP1 PUSH2 0x2DE2 JUMP JUMPDEST DUP2 MSTORE PUSH1 0x20 ADD SWAP1 DUP2 MSTORE PUSH1 0x20 ADD PUSH0 KECCAK256 SWAP1 POP DUP2 DUP2 PUSH0 ADD PUSH0 PUSH2 0x100 EXP DUP2 SLOAD DUP2 PUSH20 0xFFFFFFFFFFFFFFFFFFFFFFFFFFFFFFFFFFFFFFFF MUL NOT AND SWAP1 DUP4 PUSH20 0xFFFFFFFFFFFFFFFFFFFFFFFFFFFFFFFFFFFFFFFF AND MUL OR SWAP1 SSTORE POP DUP3 DUP2 PUSH1 0x1 ADD SWAP1 DUP2 PUSH2 0x11E5 SWAP2 SWAP1 PUSH2 0x3117 JUMP JUMPDEST POP PUSH0 DUP2 PUSH1 0x4 ADD PUSH0 PUSH2 0x100 EXP DUP2 SLOAD DUP2 PUSH1 0xFF MUL NOT AND SWAP1 DUP4 ISZERO ISZERO MUL OR SWAP1 SSTORE POP PUSH1 0x6 DUP1 SLOAD SWAP1 POP PUSH8 0xFFFFFFFFFFFFFFFF DUP2 GT ISZERO PUSH2 0x1220 JUMPI PUSH2 0x121F PUSH2 0x2A22 JUMP JUMPDEST JUMPDEST PUSH1 0x40 MLOAD SWAP1 DUP1 DUP3 MSTORE DUP1 PUSH1 0x20 MUL PUSH1 0x20 ADD DUP3 ADD PUSH1 0x40 MSTORE DUP1 ISZERO PUSH2 0x124E JUMPI DUP2 PUSH1 0x20 ADD PUSH1 0x20 DUP3 MUL DUP1 CALLDATASIZE DUP4 CALLDATACOPY DUP1 DUP3 ADD SWAP2 POP POP SWAP1 POP JUMPDEST POP DUP2 PUSH1 0x3 ADD SWAP1 DUP1 MLOAD SWAP1 PUSH1 0x20 ADD SWAP1 PUSH2 0x1266 SWAP3 SWAP2 SWAP1 PUSH2 0x2438 JUMP JUMPDEST POP PUSH1 0xA SLOAD PUSH32 0x475E637CD3C90ECC459EDDF548F62CFCA3117407751685FCE1FF08330F83F3C7 DUP5 PUSH1 0x40 MLOAD PUSH2 0x1299 SWAP2 SWAP1 PUSH2 0x250E JUMP JUMPDEST PUSH1 0x40 MLOAD DUP1 SWAP2 SUB SWAP1 LOG2 POP POP POP JUMP JUMPDEST PUSH0 DUP1 PUSH2 0x12B0 PUSH2 0x1C6D JUMP JUMPDEST SWAP1 POP PUSH2 0x12BD DUP2 DUP6 DUP6 PUSH2 0x1D18 JUMP JUMPDEST PUSH1 0x1 SWAP2 POP POP SWAP3 SWAP2 POP POP JUMP JUMPDEST PUSH1 0x60 PUSH0 PUSH1 0x6 DUP1 SLOAD SWAP1 POP DUP4 LT PUSH2 0x1312 JUMPI PUSH1 0x40 MLOAD PUSH32 0x8C379A000000000000000000000000000000000000000000000000000000000 DUP2 MSTORE PUSH1 0x4 ADD PUSH2 0x1309 SWAP1 PUSH2 0x33A0 JUMP JUMPDEST PUSH1 0x40 MLOAD DUP1 SWAP2 SUB SWAP1 REVERT JUMPDEST PUSH1 0x6 DUP4 DUP2 SLOAD DUP2 LT PUSH2 0x1326 JUMPI PUSH2 0x1325 PUSH2 0x2F4D JUMP JUMPDEST JUMPDEST SWAP1 PUSH0 MSTORE PUSH1 0x20 PUSH0 KECCAK256 SWAP1 PUSH1 0x2 MUL ADD PUSH0 ADD DUP1 SLOAD PUSH2 0x133F SWAP1 PUSH2 0x2D85 JUMP JUMPDEST DUP1 PUSH1 0x1F ADD PUSH1 0x20 DUP1 SWAP2 DIV MUL PUSH1 0x20 ADD PUSH1 0x40 MLOAD SWAP1 DUP2 ADD PUSH1 0x40 MSTORE DUP1 SWAP3 SWAP2 SWAP1 DUP2 DUP2 MSTORE PUSH1 0x20 ADD DUP3 DUP1 SLOAD PUSH2 0x136B SWAP1 PUSH2 0x2D85 JUMP JUMPDEST DUP1 ISZERO PUSH2 0x13B6 JUMPI DUP1 PUSH1 0x1F LT PUSH2 0x138D JUMPI PUSH2 0x100 DUP1 DUP4 SLOAD DIV MUL DUP4 MSTORE SWAP2 PUSH1 0x20 ADD SWAP2 PUSH2 0x13B6 JUMP JUMPDEST DUP3 ADD SWAP2 SWAP1 PUSH0 MSTORE PUSH1 0x20 PUSH0 KECCAK256 SWAP1 JUMPDEST DUP2 SLOAD DUP2 MSTORE SWAP1 PUSH1 0x1 ADD SWAP1 PUSH1 0x20 ADD DUP1 DUP4 GT PUSH2 0x1399 JUMPI DUP3 SWAP1 SUB PUSH1 0x1F AND DUP3 ADD SWAP2 JUMPDEST POP POP POP POP POP SWAP2 POP PUSH0 SWAP1 POP PUSH0 JUMPDEST PUSH1 0xA SLOAD DUP2 LT ISZERO PUSH2 0x1415 JUMPI PUSH1 0x8 PUSH0 DUP3 DUP2 MSTORE PUSH1 0x20 ADD SWAP1 DUP2 MSTORE PUSH1 0x20 ADD PUSH0 KECCAK256 PUSH1 0x3 ADD DUP5 DUP2 SLOAD DUP2 LT PUSH2 0x13F2 JUMPI PUSH2 0x13F1 PUSH2 0x2F4D JUMP JUMPDEST JUMPDEST SWAP1 PUSH0 MSTORE PUSH1 0x20 PUSH0 KECCAK256 ADD SLOAD DUP3 PUSH2 0x1406 SWAP2 SWAP1 PUSH2 0x32DC JUMP JUMPDEST SWAP2 POP DUP1 DUP1 PUSH1 0x1 ADD SWAP2 POP POP PUSH2 0x13C2 JUMP JUMPDEST POP SWAP2 POP SWAP2 JUMP JUMPDEST PUSH1 0x1 PUSH2 0x1426 CALLER PUSH2 0xD6C JUMP JUMPDEST LT ISZERO PUSH2 0x1467 JUMPI PUSH1 0x40 MLOAD PUSH32 0x8C379A000000000000000000000000000000000000000000000000000000000 DUP2 MSTORE PUSH1 0x4 ADD PUSH2 0x145E SWAP1 PUSH2 0x342E JUMP JUMPDEST PUSH1 0x40 MLOAD DUP1 SWAP2 SUB SWAP1 REVERT JUMPDEST PUSH1 0x8 PUSH0 DUP3 DUP2 MSTORE PUSH1 0x20 ADD SWAP1 DUP2 MSTORE PUSH1 0x20 ADD PUSH0 KECCAK256 PUSH1 0x2 ADD PUSH0 CALLER PUSH20 0xFFFFFFFFFFFFFFFFFFFFFFFFFFFFFFFFFFFFFFFF AND PUSH20 0xFFFFFFFFFFFFFFFFFFFFFFFFFFFFFFFFFFFFFFFF AND DUP2 MSTORE PUSH1 0x20 ADD SWAP1 DUP2 MSTORE PUSH1 0x20 ADD PUSH0 KECCAK256 PUSH0 SWAP1 SLOAD SWAP1 PUSH2 0x100 EXP SWAP1 DIV PUSH1 0xFF AND ISZERO PUSH2 0x1503 JUMPI PUSH1 0x40 MLOAD PUSH32 0x8C379A000000000000000000000000000000000000000000000000000000000 DUP2 MSTORE PUSH1 0x4 ADD PUSH2 0x14FA SWAP1 PUSH2 0x3496 JUMP JUMPDEST PUSH1 0x40 MLOAD DUP1 SWAP2 SUB SWAP1 REVERT JUMPDEST PUSH1 0x6 DUP1 SLOAD SWAP1 POP DUP3 LT PUSH2 0x154A JUMPI PUSH1 0x40 MLOAD PUSH32 0x8C379A000000000000000000000000000000000000000000000000000000000 DUP2 MSTORE PUSH1 0x4 ADD PUSH2 0x1541 SWAP1 PUSH2 0x33A0 JUMP JUMPDEST PUSH1 0x40 MLOAD DUP1 SWAP2 SUB SWAP1 REVERT JUMPDEST PUSH1 0x8 PUSH0 DUP3 DUP2 MSTORE PUSH1 0x20 ADD SWAP1 DUP2 MSTORE PUSH1 0x20 ADD PUSH0 KECCAK256 PUSH1 0x4 ADD PUSH0 SWAP1 SLOAD SWAP1 PUSH2 0x100 EXP SWAP1 DIV PUSH1 0xFF AND PUSH2 0x15AA JUMPI PUSH1 0x40 MLOAD PUSH32 0x8C379A000000000000000000000000000000000000000000000000000000000 DUP2 MSTORE PUSH1 0x4 ADD PUSH2 0x15A1 SWAP1 PUSH2 0x3524 JUMP JUMPDEST PUSH1 0x40 MLOAD DUP1 SWAP2 SUB SWAP1 REVERT JUMPDEST PUSH2 0x15B5 CALLER PUSH1 0x1 PUSH2 0x1FD1 JUMP JUMPDEST PUSH1 0x8 PUSH0 DUP3 DUP2 MSTORE PUSH1 0x20 ADD SWAP1 DUP2 MSTORE PUSH1 0x20 ADD PUSH0 KECCAK256 PUSH1 0x3 ADD DUP3 DUP2 SLOAD DUP2 LT PUSH2 0x15DB JUMPI PUSH2 0x15DA PUSH2 0x2F4D JUMP JUMPDEST JUMPDEST SWAP1 PUSH0 MSTORE PUSH1 0x20 PUSH0 KECCAK256 ADD PUSH0 DUP2 SLOAD DUP1 SWAP3 SWAP2 SWAP1 PUSH2 0x15F3 SWAP1 PUSH2 0x330F JUMP JUMPDEST SWAP2 SWAP1 POP SSTORE POP PUSH1 0x1 PUSH1 0x8 PUSH0 DUP4 DUP2 MSTORE PUSH1 0x20 ADD SWAP1 DUP2 MSTORE PUSH1 0x20 ADD PUSH0 KECCAK256 PUSH1 0x2 ADD PUSH0 CALLER PUSH20 0xFFFFFFFFFFFFFFFFFFFFFFFFFFFFFFFFFFFFFFFF AND PUSH20 0xFFFFFFFFFFFFFFFFFFFFFFFFFFFFFFFFFFFFFFFF AND DUP2 MSTORE PUSH1 0x20 ADD SWAP1 DUP2 MSTORE PUSH1 0x20 ADD PUSH0 KECCAK256 PUSH0 PUSH2 0x100 EXP DUP2 SLOAD DUP2 PUSH1 0xFF MUL NOT AND SWAP1 DUP4 ISZERO ISZERO MUL OR SWAP1 SSTORE POP POP POP JUMP JUMPDEST PUSH2 0x166B PUSH2 0x1E08 JUMP JUMPDEST PUSH0 JUMPDEST PUSH1 0xA SLOAD DUP2 LT ISZERO PUSH2 0x16D6 JUMPI PUSH1 0x8 PUSH0 DUP3 DUP2 MSTORE PUSH1 0x20 ADD SWAP1 DUP2 MSTORE PUSH1 0x20 ADD PUSH0 KECCAK256 PUSH1 0x4 ADD PUSH0 SWAP1 SLOAD SWAP1 PUSH2 0x100 EXP SWAP1 DIV PUSH1 0xFF AND PUSH2 0x16C9 JUMPI PUSH1 0x1 PUSH1 0x8 PUSH0 DUP4 DUP2 MSTORE PUSH1 0x20 ADD SWAP1 DUP2 MSTORE PUSH1 0x20 ADD PUSH0 KECCAK256 PUSH1 0x4 ADD PUSH0 PUSH2 0x100 EXP DUP2 SLOAD DUP2 PUSH1 0xFF MUL NOT AND SWAP1 DUP4 ISZERO ISZERO MUL OR SWAP1 SSTORE POP JUMPDEST DUP1 DUP1 PUSH1 0x1 ADD SWAP2 POP POP PUSH2 0x166D JUMP JUMPDEST POP JUMP JUMPDEST PUSH0 PUSH1 0x1 PUSH0 DUP5 PUSH20 0xFFFFFFFFFFFFFFFFFFFFFFFFFFFFFFFFFFFFFFFF AND PUSH20 0xFFFFFFFFFFFFFFFFFFFFFFFFFFFFFFFFFFFFFFFF AND DUP2 MSTORE PUSH1 0x20 ADD SWAP1 DUP2 MSTORE PUSH1 0x20 ADD PUSH0 KECCAK256 PUSH0 DUP4 PUSH20 0xFFFFFFFFFFFFFFFFFFFFFFFFFFFFFFFFFFFFFFFF AND PUSH20 0xFFFFFFFFFFFFFFFFFFFFFFFFFFFFFFFFFFFFFFFF AND DUP2 MSTORE PUSH1 0x20 ADD SWAP1 DUP2 MSTORE PUSH1 0x20 ADD PUSH0 KECCAK256 SLOAD SWAP1 POP SWAP3 SWAP2 POP POP JUMP JUMPDEST PUSH0 PUSH2 0x1764 PUSH2 0x1E08 JUMP JUMPDEST PUSH0 JUMPDEST PUSH1 0x9 DUP1 SLOAD SWAP1 POP DUP2 LT ISZERO PUSH2 0x1829 JUMPI DUP3 PUSH20 0xFFFFFFFFFFFFFFFFFFFFFFFFFFFFFFFFFFFFFFFF AND PUSH1 0x9 DUP3 DUP2 SLOAD DUP2 LT PUSH2 0x179E JUMPI PUSH2 0x179D PUSH2 0x2F4D JUMP JUMPDEST JUMPDEST SWAP1 PUSH0 MSTORE PUSH1 0x20 PUSH0 KECCAK256 ADD PUSH0 SWAP1 SLOAD SWAP1 PUSH2 0x100 EXP SWAP1 DIV PUSH20 0xFFFFFFFFFFFFFFFFFFFFFFFFFFFFFFFFFFFFFFFF AND PUSH20 0xFFFFFFFFFFFFFFFFFFFFFFFFFFFFFFFFFFFFFFFF AND SUB PUSH2 0x181C JUMPI PUSH1 0x40 MLOAD PUSH32 0x8C379A000000000000000000000000000000000000000000000000000000000 DUP2 MSTORE PUSH1 0x4 ADD PUSH2 0x1813 SWAP1 PUSH2 0x35B2 JUMP JUMPDEST PUSH1 0x40 MLOAD DUP1 SWAP2 SUB SWAP1 REVERT JUMPDEST DUP1 DUP1 PUSH1 0x1 ADD SWAP2 POP POP PUSH2 0x1766 JUMP JUMPDEST POP PUSH2 0x1836 ADDRESS DUP4 PUSH1 0x1 PUSH2 0x1D18 JUMP JUMPDEST PUSH1 0x9 DUP3 SWAP1 DUP1 PUSH1 0x1 DUP2 SLOAD ADD DUP1 DUP3 SSTORE DUP1 SWAP2 POP POP PUSH1 0x1 SWAP1 SUB SWAP1 PUSH0 MSTORE PUSH1 0x20 PUSH0 KECCAK256 ADD PUSH0 SWAP1 SWAP2 SWAP1 SWAP2 SWAP1 SWAP2 PUSH2 0x100 EXP DUP2 SLOAD DUP2 PUSH20 0xFFFFFFFFFFFFFFFFFFFFFFFFFFFFFFFFFFFFFFFF MUL NOT AND SWAP1 DUP4 PUSH20 0xFFFFFFFFFFFFFFFFFFFFFFFFFFFFFFFFFFFFFFFF AND MUL OR SWAP1 SSTORE POP PUSH1 0x1 SWAP1 POP SWAP2 SWAP1 POP JUMP JUMPDEST PUSH0 PUSH1 0x60 PUSH1 0xA SLOAD SWAP2 POP DUP2 PUSH8 0xFFFFFFFFFFFFFFFF DUP2 GT ISZERO PUSH2 0x18C1 JUMPI PUSH2 0x18C0 PUSH2 0x2A22 JUMP JUMPDEST JUMPDEST PUSH1 0x40 MLOAD SWAP1 DUP1 DUP3 MSTORE DUP1 PUSH1 0x20 MUL PUSH1 0x20 ADD DUP3 ADD PUSH1 0x40 MSTORE DUP1 ISZERO PUSH2 0x18F4 JUMPI DUP2 PUSH1 0x20 ADD JUMPDEST PUSH1 0x60 DUP2 MSTORE PUSH1 0x20 ADD SWAP1 PUSH1 0x1 SWAP1 SUB SWAP1 DUP2 PUSH2 0x18DF JUMPI SWAP1 POP JUMPDEST POP SWAP1 POP PUSH0 JUMPDEST DUP3 DUP2 LT ISZERO PUSH2 0x19C7 JUMPI PUSH1 0x8 PUSH0 DUP3 DUP2 MSTORE PUSH1 0x20 ADD SWAP1 DUP2 MSTORE PUSH1 0x20 ADD PUSH0 KECCAK256 PUSH1 0x1 ADD DUP1 SLOAD PUSH2 0x1920 SWAP1 PUSH2 0x2D85 JUMP JUMPDEST DUP1 PUSH1 0x1F ADD PUSH1 0x20 DUP1 SWAP2 DIV MUL PUSH1 0x20 ADD PUSH1 0x40 MLOAD SWAP1 DUP2 ADD PUSH1 0x40 MSTORE DUP1 SWAP3 SWAP2 SWAP1 DUP2 DUP2 MSTORE PUSH1 0x20 ADD DUP3 DUP1 SLOAD PUSH2 0x194C SWAP1 PUSH2 0x2D85 JUMP JUMPDEST DUP1 ISZERO PUSH2 0x1997 JUMPI DUP1 PUSH1 0x1F LT PUSH2 0x196E JUMPI PUSH2 0x100 DUP1 DUP4 SLOAD DIV MUL DUP4 MSTORE SWAP2 PUSH1 0x20 ADD SWAP2 PUSH2 0x1997 JUMP JUMPDEST DUP3 ADD SWAP2 SWAP1 PUSH0 MSTORE PUSH1 0x20 PUSH0 KECCAK256 SWAP1 JUMPDEST DUP2 SLOAD DUP2 MSTORE SWAP1 PUSH1 0x1 ADD SWAP1 PUSH1 0x20 ADD DUP1 DUP4 GT PUSH2 0x197A JUMPI DUP3 SWAP1 SUB PUSH1 0x1F AND DUP3 ADD SWAP2 JUMPDEST POP POP POP POP POP DUP3 DUP3 DUP2 MLOAD DUP2 LT PUSH2 0x19AF JUMPI PUSH2 0x19AE PUSH2 0x2F4D JUMP JUMPDEST JUMPDEST PUSH1 0x20 MUL PUSH1 0x20 ADD ADD DUP2 SWAP1 MSTORE POP DUP1 DUP1 PUSH1 0x1 ADD SWAP2 POP POP PUSH2 0x18F9 JUMP JUMPDEST POP SWAP1 SWAP2 JUMP JUMPDEST PUSH2 0x19D4 PUSH2 0x1E08 JUMP JUMPDEST PUSH0 PUSH20 0xFFFFFFFFFFFFFFFFFFFFFFFFFFFFFFFFFFFFFFFF AND DUP2 PUSH20 0xFFFFFFFFFFFFFFFFFFFFFFFFFFFFFFFFFFFFFFFF AND SUB PUSH2 0x1A44 JUMPI PUSH0 PUSH1 0x40 MLOAD PUSH32 0x1E4FBDF700000000000000000000000000000000000000000000000000000000 DUP2 MSTORE PUSH1 0x4 ADD PUSH2 0x1A3B SWAP2 SWAP1 PUSH2 0x2BD8 JUMP JUMPDEST PUSH1 0x40 MLOAD DUP1 SWAP2 SUB SWAP1 REVERT JUMPDEST PUSH2 0x1A4D DUP2 PUSH2 0x1E8F JUMP JUMPDEST POP JUMP JUMPDEST PUSH1 0x60 DUP1 PUSH1 0x6 DUP1 SLOAD SWAP1 POP PUSH8 0xFFFFFFFFFFFFFFFF DUP2 GT ISZERO PUSH2 0x1A72 JUMPI PUSH2 0x1A71 PUSH2 0x2A22 JUMP JUMPDEST JUMPDEST PUSH1 0x40 MLOAD SWAP1 DUP1 DUP3 MSTORE DUP1 PUSH1 0x20 MUL PUSH1 0x20 ADD DUP3 ADD PUSH1 0x40 MSTORE DUP1 ISZERO PUSH2 0x1AA5 JUMPI DUP2 PUSH1 0x20 ADD JUMPDEST PUSH1 0x60 DUP2 MSTORE PUSH1 0x20 ADD SWAP1 PUSH1 0x1 SWAP1 SUB SWAP1 DUP2 PUSH2 0x1A90 JUMPI SWAP1 POP JUMPDEST POP SWAP2 POP PUSH1 0x6 DUP1 SLOAD SWAP1 POP PUSH8 0xFFFFFFFFFFFFFFFF DUP2 GT ISZERO PUSH2 0x1AC7 JUMPI PUSH2 0x1AC6 PUSH2 0x2A22 JUMP JUMPDEST JUMPDEST PUSH1 0x40 MLOAD SWAP1 DUP1 DUP3 MSTORE DUP1 PUSH1 0x20 MUL PUSH1 0x20 ADD DUP3 ADD PUSH1 0x40 MSTORE DUP1 ISZERO PUSH2 0x1AF5 JUMPI DUP2 PUSH1 0x20 ADD PUSH1 0x20 DUP3 MUL DUP1 CALLDATASIZE DUP4 CALLDATACOPY DUP1 DUP3 ADD SWAP2 POP POP SWAP1 POP JUMPDEST POP SWAP1 POP PUSH0 JUMPDEST PUSH1 0x6 DUP1 SLOAD SWAP1 POP DUP2 LT ISZERO PUSH2 0x1BDB JUMPI PUSH1 0x6 DUP2 DUP2 SLOAD DUP2 LT PUSH2 0x1B1B JUMPI PUSH2 0x1B1A PUSH2 0x2F4D JUMP JUMPDEST JUMPDEST SWAP1 PUSH0 MSTORE PUSH1 0x20 PUSH0 KECCAK256 SWAP1 PUSH1 0x2 MUL ADD PUSH0 ADD DUP1 SLOAD PUSH2 0x1B34 SWAP1 PUSH2 0x2D85 JUMP JUMPDEST DUP1 PUSH1 0x1F ADD PUSH1 0x20 DUP1 SWAP2 DIV MUL PUSH1 0x20 ADD PUSH1 0x40 MLOAD SWAP1 DUP2 ADD PUSH1 0x40 MSTORE DUP1 SWAP3 SWAP2 SWAP1 DUP2 DUP2 MSTORE PUSH1 0x20 ADD DUP3 DUP1 SLOAD PUSH2 0x1B60 SWAP1 PUSH2 0x2D85 JUMP JUMPDEST DUP1 ISZERO PUSH2 0x1BAB JUMPI DUP1 PUSH1 0x1F LT PUSH2 0x1B82 JUMPI PUSH2 0x100 DUP1 DUP4 SLOAD DIV MUL DUP4 MSTORE SWAP2 PUSH1 0x20 ADD SWAP2 PUSH2 0x1BAB JUMP JUMPDEST DUP3 ADD SWAP2 SWAP1 PUSH0 MSTORE PUSH1 0x20 PUSH0 KECCAK256 SWAP1 JUMPDEST DUP2 SLOAD DUP2 MSTORE SWAP1 PUSH1 0x1 ADD SWAP1 PUSH1 0x20 ADD DUP1 DUP4 GT PUSH2 0x1B8E JUMPI DUP3 SWAP1 SUB PUSH1 0x1F AND DUP3 ADD SWAP2 JUMPDEST POP POP POP POP POP DUP4 DUP3 DUP2 MLOAD DUP2 LT PUSH2 0x1BC3 JUMPI PUSH2 0x1BC2 PUSH2 0x2F4D JUMP JUMPDEST JUMPDEST PUSH1 0x20 MUL PUSH1 0x20 ADD ADD DUP2 SWAP1 MSTORE POP DUP1 DUP1 PUSH1 0x1 ADD SWAP2 POP POP PUSH2 0x1AFA JUMP JUMPDEST POP PUSH0 JUMPDEST PUSH1 0xA SLOAD DUP2 LT ISZERO PUSH2 0x1C68 JUMPI PUSH0 PUSH2 0x1BF2 DUP3 PUSH2 0x9E2 JUMP JUMPDEST POP SWAP4 POP POP POP POP PUSH0 JUMPDEST DUP2 MLOAD DUP2 LT ISZERO PUSH2 0x1C59 JUMPI DUP2 DUP2 DUP2 MLOAD DUP2 LT PUSH2 0x1C16 JUMPI PUSH2 0x1C15 PUSH2 0x2F4D JUMP JUMPDEST JUMPDEST PUSH1 0x20 MUL PUSH1 0x20 ADD ADD MLOAD DUP5 DUP3 DUP2 MLOAD DUP2 LT PUSH2 0x1C31 JUMPI PUSH2 0x1C30 PUSH2 0x2F4D JUMP JUMPDEST JUMPDEST PUSH1 0x20 MUL PUSH1 0x20 ADD ADD DUP2 DUP2 MLOAD PUSH2 0x1C45 SWAP2 SWAP1 PUSH2 0x32DC JUMP JUMPDEST SWAP2 POP DUP2 DUP2 MSTORE POP POP DUP1 DUP1 PUSH1 0x1 ADD SWAP2 POP POP PUSH2 0x1BFA JUMP JUMPDEST POP POP DUP1 DUP1 PUSH1 0x1 ADD SWAP2 POP POP PUSH2 0x1BDE JUMP JUMPDEST POP SWAP1 SWAP2 JUMP JUMPDEST PUSH0 CALLER SWAP1 POP SWAP1 JUMP JUMPDEST PUSH2 0x1C81 DUP4 DUP4 DUP4 PUSH1 0x1 PUSH2 0x2050 JUMP JUMPDEST POP POP POP JUMP JUMPDEST PUSH0 PUSH2 0x1C91 DUP5 DUP5 PUSH2 0x16D9 JUMP JUMPDEST SWAP1 POP PUSH32 0xFFFFFFFFFFFFFFFFFFFFFFFFFFFFFFFFFFFFFFFFFFFFFFFFFFFFFFFFFFFFFFFF DUP2 EQ PUSH2 0x1D12 JUMPI DUP2 DUP2 LT ISZERO PUSH2 0x1D03 JUMPI DUP3 DUP2 DUP4 PUSH1 0x40 MLOAD PUSH32 0xFB8F41B200000000000000000000000000000000000000000000000000000000 DUP2 MSTORE PUSH1 0x4 ADD PUSH2 0x1CFA SWAP4 SWAP3 SWAP2 SWAP1 PUSH2 0x35D0 JUMP JUMPDEST PUSH1 0x40 MLOAD DUP1 SWAP2 SUB SWAP1 REVERT JUMPDEST PUSH2 0x1D11 DUP5 DUP5 DUP5 DUP5 SUB PUSH0 PUSH2 0x2050 JUMP JUMPDEST JUMPDEST POP POP POP POP JUMP JUMPDEST PUSH0 PUSH20 0xFFFFFFFFFFFFFFFFFFFFFFFFFFFFFFFFFFFFFFFF AND DUP4 PUSH20 0xFFFFFFFFFFFFFFFFFFFFFFFFFFFFFFFFFFFFFFFF AND SUB PUSH2 0x1D88 JUMPI PUSH0 PUSH1 0x40 MLOAD PUSH32 0x96C6FD1E00000000000000000000000000000000000000000000000000000000 DUP2 MSTORE PUSH1 0x4 ADD PUSH2 0x1D7F SWAP2 SWAP1 PUSH2 0x2BD8 JUMP JUMPDEST PUSH1 0x40 MLOAD DUP1 SWAP2 SUB SWAP1 REVERT JUMPDEST PUSH0 PUSH20 0xFFFFFFFFFFFFFFFFFFFFFFFFFFFFFFFFFFFFFFFF AND DUP3 PUSH20 0xFFFFFFFFFFFFFFFFFFFFFFFFFFFFFFFFFFFFFFFF AND SUB PUSH2 0x1DF8 JUMPI PUSH0 PUSH1 0x40 MLOAD PUSH32 0xEC442F0500000000000000000000000000000000000000000000000000000000 DUP2 MSTORE PUSH1 0x4 ADD PUSH2 0x1DEF SWAP2 SWAP1 PUSH2 0x2BD8 JUMP JUMPDEST PUSH1 0x40 MLOAD DUP1 SWAP2 SUB SWAP1 REVERT JUMPDEST PUSH2 0x1E03 DUP4 DUP4 DUP4 PUSH2 0x221F JUMP JUMPDEST POP POP POP JUMP JUMPDEST PUSH2 0x1E10 PUSH2 0x1C6D JUMP JUMPDEST PUSH20 0xFFFFFFFFFFFFFFFFFFFFFFFFFFFFFFFFFFFFFFFF AND PUSH2 0x1E2E PUSH2 0x106D JUMP JUMPDEST PUSH20 0xFFFFFFFFFFFFFFFFFFFFFFFFFFFFFFFFFFFFFFFF AND EQ PUSH2 0x1E8D JUMPI PUSH2 0x1E51 PUSH2 0x1C6D JUMP JUMPDEST PUSH1 0x40 MLOAD PUSH32 0x118CDAA700000000000000000000000000000000000000000000000000000000 DUP2 MSTORE PUSH1 0x4 ADD PUSH2 0x1E84 SWAP2 SWAP1 PUSH2 0x2BD8 JUMP JUMPDEST PUSH1 0x40 MLOAD DUP1 SWAP2 SUB SWAP1 REVERT JUMPDEST JUMP JUMPDEST PUSH0 PUSH1 0x5 PUSH0 SWAP1 SLOAD SWAP1 PUSH2 0x100 EXP SWAP1 DIV PUSH20 0xFFFFFFFFFFFFFFFFFFFFFFFFFFFFFFFFFFFFFFFF AND SWAP1 POP DUP2 PUSH1 0x5 PUSH0 PUSH2 0x100 EXP DUP2 SLOAD DUP2 PUSH20 0xFFFFFFFFFFFFFFFFFFFFFFFFFFFFFFFFFFFFFFFF MUL NOT AND SWAP1 DUP4 PUSH20 0xFFFFFFFFFFFFFFFFFFFFFFFFFFFFFFFFFFFFFFFF AND MUL OR SWAP1 SSTORE POP DUP2 PUSH20 0xFFFFFFFFFFFFFFFFFFFFFFFFFFFFFFFFFFFFFFFF AND DUP2 PUSH20 0xFFFFFFFFFFFFFFFFFFFFFFFFFFFFFFFFFFFFFFFF AND PUSH32 0x8BE0079C531659141344CD1FD0A4F28419497F9722A3DAAFE3B4186F6B6457E0 PUSH1 0x40 MLOAD PUSH1 0x40 MLOAD DUP1 SWAP2 SUB SWAP1 LOG3 POP POP JUMP JUMPDEST PUSH0 PUSH20 0xFFFFFFFFFFFFFFFFFFFFFFFFFFFFFFFFFFFFFFFF AND DUP3 PUSH20 0xFFFFFFFFFFFFFFFFFFFFFFFFFFFFFFFFFFFFFFFF AND SUB PUSH2 0x1FC2 JUMPI PUSH0 PUSH1 0x40 MLOAD PUSH32 0xEC442F0500000000000000000000000000000000000000000000000000000000 DUP2 MSTORE PUSH1 0x4 ADD PUSH2 0x1FB9 SWAP2 SWAP1 PUSH2 0x2BD8 JUMP JUMPDEST PUSH1 0x40 MLOAD DUP1 SWAP2 SUB SWAP1 REVERT JUMPDEST PUSH2 0x1FCD PUSH0 DUP4 DUP4 PUSH2 0x221F JUMP JUMPDEST POP POP JUMP JUMPDEST PUSH0 PUSH20 0xFFFFFFFFFFFFFFFFFFFFFFFFFFFFFFFFFFFFFFFF AND DUP3 PUSH20 0xFFFFFFFFFFFFFFFFFFFFFFFFFFFFFFFFFFFFFFFF AND SUB PUSH2 0x2041 JUMPI PUSH0 PUSH1 0x40 MLOAD PUSH32 0x96C6FD1E00000000000000000000000000000000000000000000000000000000 DUP2 MSTORE PUSH1 0x4 ADD PUSH2 0x2038 SWAP2 SWAP1 PUSH2 0x2BD8 JUMP JUMPDEST PUSH1 0x40 MLOAD DUP1 SWAP2 SUB SWAP1 REVERT JUMPDEST PUSH2 0x204C DUP3 PUSH0 DUP4 PUSH2 0x221F JUMP JUMPDEST POP POP JUMP JUMPDEST PUSH0 PUSH20 0xFFFFFFFFFFFFFFFFFFFFFFFFFFFFFFFFFFFFFFFF AND DUP5 PUSH20 0xFFFFFFFFFFFFFFFFFFFFFFFFFFFFFFFFFFFFFFFF AND SUB PUSH2 0x20C0 JUMPI PUSH0 PUSH1 0x40 MLOAD PUSH32 0xE602DF0500000000000000000000000000000000000000000000000000000000 DUP2 MSTORE PUSH1 0x4 ADD PUSH2 0x20B7 SWAP2 SWAP1 PUSH2 0x2BD8 JUMP JUMPDEST PUSH1 0x40 MLOAD DUP1 SWAP2 SUB SWAP1 REVERT JUMPDEST PUSH0 PUSH20 0xFFFFFFFFFFFFFFFFFFFFFFFFFFFFFFFFFFFFFFFF AND DUP4 PUSH20 0xFFFFFFFFFFFFFFFFFFFFFFFFFFFFFFFFFFFFFFFF AND SUB PUSH2 0x2130 JUMPI PUSH0 PUSH1 0x40 MLOAD PUSH32 0x94280D6200000000000000000000000000000000000000000000000000000000 DUP2 MSTORE PUSH1 0x4 ADD PUSH2 0x2127 SWAP2 SWAP1 PUSH2 0x2BD8 JUMP JUMPDEST PUSH1 0x40 MLOAD DUP1 SWAP2 SUB SWAP1 REVERT JUMPDEST DUP2 PUSH1 0x1 PUSH0 DUP7 PUSH20 0xFFFFFFFFFFFFFFFFFFFFFFFFFFFFFFFFFFFFFFFF AND PUSH20 0xFFFFFFFFFFFFFFFFFFFFFFFFFFFFFFFFFFFFFFFF AND DUP2 MSTORE PUSH1 0x20 ADD SWAP1 DUP2 MSTORE PUSH1 0x20 ADD PUSH0 KECCAK256 PUSH0 DUP6 PUSH20 0xFFFFFFFFFFFFFFFFFFFFFFFFFFFFFFFFFFFFFFFF AND PUSH20 0xFFFFFFFFFFFFFFFFFFFFFFFFFFFFFFFFFFFFFFFF AND DUP2 MSTORE PUSH1 0x20 ADD SWAP1 DUP2 MSTORE PUSH1 0x20 ADD PUSH0 KECCAK256 DUP2 SWAP1 SSTORE POP DUP1 ISZERO PUSH2 0x2219 JUMPI DUP3 PUSH20 0xFFFFFFFFFFFFFFFFFFFFFFFFFFFFFFFFFFFFFFFF AND DUP5 PUSH20 0xFFFFFFFFFFFFFFFFFFFFFFFFFFFFFFFFFFFFFFFF AND PUSH32 0x8C5BE1E5EBEC7D5BD14F71427D1E84F3DD0314C0F7B2291E5B200AC8C7C3B925 DUP5 PUSH1 0x40 MLOAD PUSH2 0x2210 SWAP2 SWAP1 PUSH2 0x264C JUMP JUMPDEST PUSH1 0x40 MLOAD DUP1 SWAP2 SUB SWAP1 LOG3 JUMPDEST POP POP POP POP JUMP JUMPDEST PUSH0 PUSH20 0xFFFFFFFFFFFFFFFFFFFFFFFFFFFFFFFFFFFFFFFF AND DUP4 PUSH20 0xFFFFFFFFFFFFFFFFFFFFFFFFFFFFFFFFFFFFFFFF AND SUB PUSH2 0x226F JUMPI DUP1 PUSH1 0x2 PUSH0 DUP3 DUP3 SLOAD PUSH2 0x2263 SWAP2 SWAP1 PUSH2 0x32DC JUMP JUMPDEST SWAP3 POP POP DUP2 SWAP1 SSTORE POP PUSH2 0x233D JUMP JUMPDEST PUSH0 DUP1 PUSH0 DUP6 PUSH20 0xFFFFFFFFFFFFFFFFFFFFFFFFFFFFFFFFFFFFFFFF AND PUSH20 0xFFFFFFFFFFFFFFFFFFFFFFFFFFFFFFFFFFFFFFFF AND DUP2 MSTORE PUSH1 0x20 ADD SWAP1 DUP2 MSTORE PUSH1 0x20 ADD PUSH0 KECCAK256 SLOAD SWAP1 POP DUP2 DUP2 LT ISZERO PUSH2 0x22F8 JUMPI DUP4 DUP2 DUP4 PUSH1 0x40 MLOAD PUSH32 0xE450D38C00000000000000000000000000000000000000000000000000000000 DUP2 MSTORE PUSH1 0x4 ADD PUSH2 0x22EF SWAP4 SWAP3 SWAP2 SWAP1 PUSH2 0x35D0 JUMP JUMPDEST PUSH1 0x40 MLOAD DUP1 SWAP2 SUB SWAP1 REVERT JUMPDEST DUP2 DUP2 SUB PUSH0 DUP1 DUP7 PUSH20 0xFFFFFFFFFFFFFFFFFFFFFFFFFFFFFFFFFFFFFFFF AND PUSH20 0xFFFFFFFFFFFFFFFFFFFFFFFFFFFFFFFFFFFFFFFF AND DUP2 MSTORE PUSH1 0x20 ADD SWAP1 DUP2 MSTORE PUSH1 0x20 ADD PUSH0 KECCAK256 DUP2 SWAP1 SSTORE POP POP JUMPDEST PUSH0 PUSH20 0xFFFFFFFFFFFFFFFFFFFFFFFFFFFFFFFFFFFFFFFF AND DUP3 PUSH20 0xFFFFFFFFFFFFFFFFFFFFFFFFFFFFFFFFFFFFFFFF AND SUB PUSH2 0x2384 JUMPI DUP1 PUSH1 0x2 PUSH0 DUP3 DUP3 SLOAD SUB SWAP3 POP POP DUP2 SWAP1 SSTORE POP PUSH2 0x23CE JUMP JUMPDEST DUP1 PUSH0 DUP1 DUP5 PUSH20 0xFFFFFFFFFFFFFFFFFFFFFFFFFFFFFFFFFFFFFFFF AND PUSH20 0xFFFFFFFFFFFFFFFFFFFFFFFFFFFFFFFFFFFFFFFF AND DUP2 MSTORE PUSH1 0x20 ADD SWAP1 DUP2 MSTORE PUSH1 0x20 ADD PUSH0 KECCAK256 PUSH0 DUP3 DUP3 SLOAD ADD SWAP3 POP POP DUP2 SWAP1 SSTORE POP JUMPDEST DUP2 PUSH20 0xFFFFFFFFFFFFFFFFFFFFFFFFFFFFFFFFFFFFFFFF AND DUP4 PUSH20 0xFFFFFFFFFFFFFFFFFFFFFFFFFFFFFFFFFFFFFFFF AND PUSH32 0xDDF252AD1BE2C89B69C2B068FC378DAA952BA7F163C4A11628F55A4DF523B3EF DUP4 PUSH1 0x40 MLOAD PUSH2 0x242B SWAP2 SWAP1 PUSH2 0x264C JUMP JUMPDEST PUSH1 0x40 MLOAD DUP1 SWAP2 SUB SWAP1 LOG3 POP POP POP JUMP JUMPDEST DUP3 DUP1 SLOAD DUP3 DUP3 SSTORE SWAP1 PUSH0 MSTORE PUSH1 0x20 PUSH0 KECCAK256 SWAP1 DUP2 ADD SWAP3 DUP3 ISZERO PUSH2 0x2472 JUMPI SWAP2 PUSH1 0x20 MUL DUP3 ADD JUMPDEST DUP3 DUP2 GT ISZERO PUSH2 0x2471 JUMPI DUP3 MLOAD DUP3 SSTORE SWAP2 PUSH1 0x20 ADD SWAP2 SWAP1 PUSH1 0x1 ADD SWAP1 PUSH2 0x2456 JUMP JUMPDEST JUMPDEST POP SWAP1 POP PUSH2 0x247F SWAP2 SWAP1 PUSH2 0x2483 JUMP JUMPDEST POP SWAP1 JUMP JUMPDEST JUMPDEST DUP1 DUP3 GT ISZERO PUSH2 0x249A JUMPI PUSH0 DUP2 PUSH0 SWAP1 SSTORE POP PUSH1 0x1 ADD PUSH2 0x2484 JUMP JUMPDEST POP SWAP1 JUMP JUMPDEST PUSH0 DUP2 MLOAD SWAP1 POP SWAP2 SWAP1 POP JUMP JUMPDEST PUSH0 DUP3 DUP3 MSTORE PUSH1 0x20 DUP3 ADD SWAP1 POP SWAP3 SWAP2 POP POP JUMP JUMPDEST DUP3 DUP2 DUP4 MCOPY PUSH0 DUP4 DUP4 ADD MSTORE POP POP POP JUMP JUMPDEST PUSH0 PUSH1 0x1F NOT PUSH1 0x1F DUP4 ADD AND SWAP1 POP SWAP2 SWAP1 POP JUMP JUMPDEST PUSH0 PUSH2 0x24E0 DUP3 PUSH2 0x249E JUMP JUMPDEST PUSH2 0x24EA DUP2 DUP6 PUSH2 0x24A8 JUMP JUMPDEST SWAP4 POP PUSH2 0x24FA DUP2 DUP6 PUSH1 0x20 DUP7 ADD PUSH2 0x24B8 JUMP JUMPDEST PUSH2 0x2503 DUP2 PUSH2 0x24C6 JUMP JUMPDEST DUP5 ADD SWAP2 POP POP SWAP3 SWAP2 POP POP JUMP JUMPDEST PUSH0 PUSH1 0x20 DUP3 ADD SWAP1 POP DUP2 DUP2 SUB PUSH0 DUP4 ADD MSTORE PUSH2 0x2526 DUP2 DUP5 PUSH2 0x24D6 JUMP JUMPDEST SWAP1 POP SWAP3 SWAP2 POP POP JUMP JUMPDEST PUSH0 PUSH1 0x40 MLOAD SWAP1 POP SWAP1 JUMP JUMPDEST PUSH0 DUP1 REVERT JUMPDEST PUSH0 DUP1 REVERT JUMPDEST PUSH0 PUSH20 0xFFFFFFFFFFFFFFFFFFFFFFFFFFFFFFFFFFFFFFFF DUP3 AND SWAP1 POP SWAP2 SWAP1 POP JUMP JUMPDEST PUSH0 PUSH2 0x2568 DUP3 PUSH2 0x253F JUMP JUMPDEST SWAP1 POP SWAP2 SWAP1 POP JUMP JUMPDEST PUSH2 0x2578 DUP2 PUSH2 0x255E JUMP JUMPDEST DUP2 EQ PUSH2 0x2582 JUMPI PUSH0 DUP1 REVERT JUMPDEST POP JUMP JUMPDEST PUSH0 DUP2 CALLDATALOAD SWAP1 POP PUSH2 0x2593 DUP2 PUSH2 0x256F JUMP JUMPDEST SWAP3 SWAP2 POP POP JUMP JUMPDEST PUSH0 DUP2 SWAP1 POP SWAP2 SWAP1 POP JUMP JUMPDEST PUSH2 0x25AB DUP2 PUSH2 0x2599 JUMP JUMPDEST DUP2 EQ PUSH2 0x25B5 JUMPI PUSH0 DUP1 REVERT JUMPDEST POP JUMP JUMPDEST PUSH0 DUP2 CALLDATALOAD SWAP1 POP PUSH2 0x25C6 DUP2 PUSH2 0x25A2 JUMP JUMPDEST SWAP3 SWAP2 POP POP JUMP JUMPDEST PUSH0 DUP1 PUSH1 0x40 DUP4 DUP6 SUB SLT ISZERO PUSH2 0x25E2 JUMPI PUSH2 0x25E1 PUSH2 0x2537 JUMP JUMPDEST JUMPDEST PUSH0 PUSH2 0x25EF DUP6 DUP3 DUP7 ADD PUSH2 0x2585 JUMP JUMPDEST SWAP3 POP POP PUSH1 0x20 PUSH2 0x2600 DUP6 DUP3 DUP7 ADD PUSH2 0x25B8 JUMP JUMPDEST SWAP2 POP POP SWAP3 POP SWAP3 SWAP1 POP JUMP JUMPDEST PUSH0 DUP2 ISZERO ISZERO SWAP1 POP SWAP2 SWAP1 POP JUMP JUMPDEST PUSH2 0x261E DUP2 PUSH2 0x260A JUMP JUMPDEST DUP3 MSTORE POP POP JUMP JUMPDEST PUSH0 PUSH1 0x20 DUP3 ADD SWAP1 POP PUSH2 0x2637 PUSH0 DUP4 ADD DUP5 PUSH2 0x2615 JUMP JUMPDEST SWAP3 SWAP2 POP POP JUMP JUMPDEST PUSH2 0x2646 DUP2 PUSH2 0x2599 JUMP JUMPDEST DUP3 MSTORE POP POP JUMP JUMPDEST PUSH0 PUSH1 0x20 DUP3 ADD SWAP1 POP PUSH2 0x265F PUSH0 DUP4 ADD DUP5 PUSH2 0x263D JUMP JUMPDEST SWAP3 SWAP2 POP POP JUMP JUMPDEST PUSH0 DUP1 PUSH0 PUSH1 0x60 DUP5 DUP7 SUB SLT ISZERO PUSH2 0x267C JUMPI PUSH2 0x267B PUSH2 0x2537 JUMP JUMPDEST JUMPDEST PUSH0 PUSH2 0x2689 DUP7 DUP3 DUP8 ADD PUSH2 0x2585 JUMP JUMPDEST SWAP4 POP POP PUSH1 0x20 PUSH2 0x269A DUP7 DUP3 DUP8 ADD PUSH2 0x2585 JUMP JUMPDEST SWAP3 POP POP PUSH1 0x40 PUSH2 0x26AB DUP7 DUP3 DUP8 ADD PUSH2 0x25B8 JUMP JUMPDEST SWAP2 POP POP SWAP3 POP SWAP3 POP SWAP3 JUMP JUMPDEST PUSH0 PUSH1 0xFF DUP3 AND SWAP1 POP SWAP2 SWAP1 POP JUMP JUMPDEST PUSH2 0x26CA DUP2 PUSH2 0x26B5 JUMP JUMPDEST DUP3 MSTORE POP POP JUMP JUMPDEST PUSH0 PUSH1 0x20 DUP3 ADD SWAP1 POP PUSH2 0x26E3 PUSH0 DUP4 ADD DUP5 PUSH2 0x26C1 JUMP JUMPDEST SWAP3 SWAP2 POP POP JUMP JUMPDEST PUSH0 DUP2 MLOAD SWAP1 POP SWAP2 SWAP1 POP JUMP JUMPDEST PUSH0 DUP3 DUP3 MSTORE PUSH1 0x20 DUP3 ADD SWAP1 POP SWAP3 SWAP2 POP POP JUMP JUMPDEST PUSH0 DUP2 SWAP1 POP PUSH1 0x20 DUP3 ADD SWAP1 POP SWAP2 SWAP1 POP JUMP JUMPDEST PUSH2 0x271B DUP2 PUSH2 0x255E JUMP JUMPDEST DUP3 MSTORE POP POP JUMP JUMPDEST PUSH0 PUSH2 0x272C DUP4 DUP4 PUSH2 0x2712 JUMP JUMPDEST PUSH1 0x20 DUP4 ADD SWAP1 POP SWAP3 SWAP2 POP POP JUMP JUMPDEST PUSH0 PUSH1 0x20 DUP3 ADD SWAP1 POP SWAP2 SWAP1 POP JUMP JUMPDEST PUSH0 PUSH2 0x274E DUP3 PUSH2 0x26E9 JUMP JUMPDEST PUSH2 0x2758 DUP2 DUP6 PUSH2 0x26F3 JUMP JUMPDEST SWAP4 POP PUSH2 0x2763 DUP4 PUSH2 0x2703 JUMP JUMPDEST DUP1 PUSH0 JUMPDEST DUP4 DUP2 LT ISZERO PUSH2 0x2793 JUMPI DUP2 MLOAD PUSH2 0x277A DUP9 DUP3 PUSH2 0x2721 JUMP JUMPDEST SWAP8 POP PUSH2 0x2785 DUP4 PUSH2 0x2738 JUMP JUMPDEST SWAP3 POP POP PUSH1 0x1 DUP2 ADD SWAP1 POP PUSH2 0x2766 JUMP JUMPDEST POP DUP6 SWAP4 POP POP POP POP SWAP3 SWAP2 POP POP JUMP JUMPDEST PUSH0 PUSH1 0x20 DUP3 ADD SWAP1 POP DUP2 DUP2 SUB PUSH0 DUP4 ADD MSTORE PUSH2 0x27B8 DUP2 DUP5 PUSH2 0x2744 JUMP JUMPDEST SWAP1 POP SWAP3 SWAP2 POP POP JUMP JUMPDEST PUSH0 PUSH1 0x20 DUP3 DUP5 SUB SLT ISZERO PUSH2 0x27D5 JUMPI PUSH2 0x27D4 PUSH2 0x2537 JUMP JUMPDEST JUMPDEST PUSH0 PUSH2 0x27E2 DUP5 DUP3 DUP6 ADD PUSH2 0x25B8 JUMP JUMPDEST SWAP2 POP POP SWAP3 SWAP2 POP POP JUMP JUMPDEST PUSH2 0x27F4 DUP2 PUSH2 0x255E JUMP JUMPDEST DUP3 MSTORE POP POP JUMP JUMPDEST PUSH0 DUP2 MLOAD SWAP1 POP SWAP2 SWAP1 POP JUMP JUMPDEST PUSH0 DUP3 DUP3 MSTORE PUSH1 0x20 DUP3 ADD SWAP1 POP SWAP3 SWAP2 POP POP JUMP JUMPDEST PUSH0 DUP2 SWAP1 POP PUSH1 0x20 DUP3 ADD SWAP1 POP SWAP2 SWAP1 POP JUMP JUMPDEST PUSH2 0x282C DUP2 PUSH2 0x2599 JUMP JUMPDEST DUP3 MSTORE POP POP JUMP JUMPDEST PUSH0 PUSH2 0x283D DUP4 DUP4 PUSH2 0x2823 JUMP JUMPDEST PUSH1 0x20 DUP4 ADD SWAP1 POP SWAP3 SWAP2 POP POP JUMP JUMPDEST PUSH0 PUSH1 0x20 DUP3 ADD SWAP1 POP SWAP2 SWAP1 POP JUMP JUMPDEST PUSH0 PUSH2 0x285F DUP3 PUSH2 0x27FA JUMP JUMPDEST PUSH2 0x2869 DUP2 DUP6 PUSH2 0x2804 JUMP JUMPDEST SWAP4 POP PUSH2 0x2874 DUP4 PUSH2 0x2814 JUMP JUMPDEST DUP1 PUSH0 JUMPDEST DUP4 DUP2 LT ISZERO PUSH2 0x28A4 JUMPI DUP2 MLOAD PUSH2 0x288B DUP9 DUP3 PUSH2 0x2832 JUMP JUMPDEST SWAP8 POP PUSH2 0x2896 DUP4 PUSH2 0x2849 JUMP JUMPDEST SWAP3 POP POP PUSH1 0x1 DUP2 ADD SWAP1 POP PUSH2 0x2877 JUMP JUMPDEST POP DUP6 SWAP4 POP POP POP POP SWAP3 SWAP2 POP POP JUMP JUMPDEST PUSH0 DUP2 MLOAD SWAP1 POP SWAP2 SWAP1 POP JUMP JUMPDEST PUSH0 DUP3 DUP3 MSTORE PUSH1 0x20 DUP3 ADD SWAP1 POP SWAP3 SWAP2 POP POP JUMP JUMPDEST PUSH0 DUP2 SWAP1 POP PUSH1 0x20 DUP3 ADD SWAP1 POP SWAP2 SWAP1 POP JUMP JUMPDEST PUSH0 DUP3 DUP3 MSTORE PUSH1 0x20 DUP3 ADD SWAP1 POP SWAP3 SWAP2 POP POP JUMP JUMPDEST PUSH0 PUSH2 0x28F4 DUP3 PUSH2 0x249E JUMP JUMPDEST PUSH2 0x28FE DUP2 DUP6 PUSH2 0x28DA JUMP JUMPDEST SWAP4 POP PUSH2 0x290E DUP2 DUP6 PUSH1 0x20 DUP7 ADD PUSH2 0x24B8 JUMP JUMPDEST PUSH2 0x2917 DUP2 PUSH2 0x24C6 JUMP JUMPDEST DUP5 ADD SWAP2 POP POP SWAP3 SWAP2 POP POP JUMP JUMPDEST PUSH0 PUSH2 0x292D DUP4 DUP4 PUSH2 0x28EA JUMP JUMPDEST SWAP1 POP SWAP3 SWAP2 POP POP JUMP JUMPDEST PUSH0 PUSH1 0x20 DUP3 ADD SWAP1 POP SWAP2 SWAP1 POP JUMP JUMPDEST PUSH0 PUSH2 0x294B DUP3 PUSH2 0x28B1 JUMP JUMPDEST PUSH2 0x2955 DUP2 DUP6 PUSH2 0x28BB JUMP JUMPDEST SWAP4 POP DUP4 PUSH1 0x20 DUP3 MUL DUP6 ADD PUSH2 0x2967 DUP6 PUSH2 0x28CB JUMP JUMPDEST DUP1 PUSH0 JUMPDEST DUP6 DUP2 LT ISZERO PUSH2 0x29A2 JUMPI DUP5 DUP5 SUB DUP10 MSTORE DUP2 MLOAD PUSH2 0x2983 DUP6 DUP3 PUSH2 0x2922 JUMP JUMPDEST SWAP5 POP PUSH2 0x298E DUP4 PUSH2 0x2935 JUMP JUMPDEST SWAP3 POP PUSH1 0x20 DUP11 ADD SWAP10 POP POP PUSH1 0x1 DUP2 ADD SWAP1 POP PUSH2 0x296A JUMP JUMPDEST POP DUP3 SWAP8 POP DUP8 SWAP6 POP POP POP POP POP POP SWAP3 SWAP2 POP POP JUMP JUMPDEST PUSH0 PUSH1 0xA0 DUP3 ADD SWAP1 POP DUP2 DUP2 SUB PUSH0 DUP4 ADD MSTORE PUSH2 0x29CC DUP2 DUP9 PUSH2 0x24D6 JUMP JUMPDEST SWAP1 POP PUSH2 0x29DB PUSH1 0x20 DUP4 ADD DUP8 PUSH2 0x27EB JUMP JUMPDEST PUSH2 0x29E8 PUSH1 0x40 DUP4 ADD DUP7 PUSH2 0x2615 JUMP JUMPDEST DUP2 DUP2 SUB PUSH1 0x60 DUP4 ADD MSTORE PUSH2 0x29FA DUP2 DUP6 PUSH2 0x2855 JUMP JUMPDEST SWAP1 POP DUP2 DUP2 SUB PUSH1 0x80 DUP4 ADD MSTORE PUSH2 0x2A0E DUP2 DUP5 PUSH2 0x2941 JUMP JUMPDEST SWAP1 POP SWAP7 SWAP6 POP POP POP POP POP POP JUMP JUMPDEST PUSH0 DUP1 REVERT JUMPDEST PUSH0 DUP1 REVERT JUMPDEST PUSH32 0x4E487B7100000000000000000000000000000000000000000000000000000000 PUSH0 MSTORE PUSH1 0x41 PUSH1 0x4 MSTORE PUSH1 0x24 PUSH0 REVERT JUMPDEST PUSH2 0x2A58 DUP3 PUSH2 0x24C6 JUMP JUMPDEST DUP2 ADD DUP2 DUP2 LT PUSH8 0xFFFFFFFFFFFFFFFF DUP3 GT OR ISZERO PUSH2 0x2A77 JUMPI PUSH2 0x2A76 PUSH2 0x2A22 JUMP JUMPDEST JUMPDEST DUP1 PUSH1 0x40 MSTORE POP POP POP JUMP JUMPDEST PUSH0 PUSH2 0x2A89 PUSH2 0x252E JUMP JUMPDEST SWAP1 POP PUSH2 0x2A95 DUP3 DUP3 PUSH2 0x2A4F JUMP JUMPDEST SWAP2 SWAP1 POP JUMP JUMPDEST PUSH0 PUSH8 0xFFFFFFFFFFFFFFFF DUP3 GT ISZERO PUSH2 0x2AB4 JUMPI PUSH2 0x2AB3 PUSH2 0x2A22 JUMP JUMPDEST JUMPDEST PUSH2 0x2ABD DUP3 PUSH2 0x24C6 JUMP JUMPDEST SWAP1 POP PUSH1 0x20 DUP2 ADD SWAP1 POP SWAP2 SWAP1 POP JUMP JUMPDEST DUP3 DUP2 DUP4 CALLDATACOPY PUSH0 DUP4 DUP4 ADD MSTORE POP POP POP JUMP JUMPDEST PUSH0 PUSH2 0x2AEA PUSH2 0x2AE5 DUP5 PUSH2 0x2A9A JUMP JUMPDEST PUSH2 0x2A80 JUMP JUMPDEST SWAP1 POP DUP3 DUP2 MSTORE PUSH1 0x20 DUP2 ADD DUP5 DUP5 DUP5 ADD GT ISZERO PUSH2 0x2B06 JUMPI PUSH2 0x2B05 PUSH2 0x2A1E JUMP JUMPDEST JUMPDEST PUSH2 0x2B11 DUP5 DUP3 DUP6 PUSH2 0x2ACA JUMP JUMPDEST POP SWAP4 SWAP3 POP POP POP JUMP JUMPDEST PUSH0 DUP3 PUSH1 0x1F DUP4 ADD SLT PUSH2 0x2B2D JUMPI PUSH2 0x2B2C PUSH2 0x2A1A JUMP JUMPDEST JUMPDEST DUP2 CALLDATALOAD PUSH2 0x2B3D DUP5 DUP3 PUSH1 0x20 DUP7 ADD PUSH2 0x2AD8 JUMP JUMPDEST SWAP2 POP POP SWAP3 SWAP2 POP POP JUMP JUMPDEST PUSH0 PUSH1 0x20 DUP3 DUP5 SUB SLT ISZERO PUSH2 0x2B5B JUMPI PUSH2 0x2B5A PUSH2 0x2537 JUMP JUMPDEST JUMPDEST PUSH0 DUP3 ADD CALLDATALOAD PUSH8 0xFFFFFFFFFFFFFFFF DUP2 GT ISZERO PUSH2 0x2B78 JUMPI PUSH2 0x2B77 PUSH2 0x253B JUMP JUMPDEST JUMPDEST PUSH2 0x2B84 DUP5 DUP3 DUP6 ADD PUSH2 0x2B19 JUMP JUMPDEST SWAP2 POP POP SWAP3 SWAP2 POP POP JUMP JUMPDEST PUSH0 PUSH1 0x20 DUP3 DUP5 SUB SLT ISZERO PUSH2 0x2BA2 JUMPI PUSH2 0x2BA1 PUSH2 0x2537 JUMP JUMPDEST JUMPDEST PUSH0 PUSH2 0x2BAF DUP5 DUP3 DUP6 ADD PUSH2 0x2585 JUMP JUMPDEST SWAP2 POP POP SWAP3 SWAP2 POP POP JUMP JUMPDEST PUSH0 PUSH1 0x20 DUP3 ADD SWAP1 POP DUP2 DUP2 SUB PUSH0 DUP4 ADD MSTORE PUSH2 0x2BD0 DUP2 DUP5 PUSH2 0x2941 JUMP JUMPDEST SWAP1 POP SWAP3 SWAP2 POP POP JUMP JUMPDEST PUSH0 PUSH1 0x20 DUP3 ADD SWAP1 POP PUSH2 0x2BEB PUSH0 DUP4 ADD DUP5 PUSH2 0x27EB JUMP JUMPDEST SWAP3 SWAP2 POP POP JUMP JUMPDEST PUSH0 DUP1 PUSH1 0x40 DUP4 DUP6 SUB SLT ISZERO PUSH2 0x2C07 JUMPI PUSH2 0x2C06 PUSH2 0x2537 JUMP JUMPDEST JUMPDEST PUSH0 DUP4 ADD CALLDATALOAD PUSH8 0xFFFFFFFFFFFFFFFF DUP2 GT ISZERO PUSH2 0x2C24 JUMPI PUSH2 0x2C23 PUSH2 0x253B JUMP JUMPDEST JUMPDEST PUSH2 0x2C30 DUP6 DUP3 DUP7 ADD PUSH2 0x2B19 JUMP JUMPDEST SWAP3 POP POP PUSH1 0x20 PUSH2 0x2C41 DUP6 DUP3 DUP7 ADD PUSH2 0x2585 JUMP JUMPDEST SWAP2 POP POP SWAP3 POP SWAP3 SWAP1 POP JUMP JUMPDEST PUSH0 PUSH1 0x40 DUP3 ADD SWAP1 POP DUP2 DUP2 SUB PUSH0 DUP4 ADD MSTORE PUSH2 0x2C63 DUP2 DUP6 PUSH2 0x24D6 JUMP JUMPDEST SWAP1 POP PUSH2 0x2C72 PUSH1 0x20 DUP4 ADD DUP5 PUSH2 0x263D JUMP JUMPDEST SWAP4 SWAP3 POP POP POP JUMP JUMPDEST PUSH0 DUP1 PUSH1 0x40 DUP4 DUP6 SUB SLT ISZERO PUSH2 0x2C8F JUMPI PUSH2 0x2C8E PUSH2 0x2537 JUMP JUMPDEST JUMPDEST PUSH0 PUSH2 0x2C9C DUP6 DUP3 DUP7 ADD PUSH2 0x25B8 JUMP JUMPDEST SWAP3 POP POP PUSH1 0x20 PUSH2 0x2CAD DUP6 DUP3 DUP7 ADD PUSH2 0x25B8 JUMP JUMPDEST SWAP2 POP POP SWAP3 POP SWAP3 SWAP1 POP JUMP JUMPDEST PUSH0 DUP1 PUSH1 0x40 DUP4 DUP6 SUB SLT ISZERO PUSH2 0x2CCD JUMPI PUSH2 0x2CCC PUSH2 0x2537 JUMP JUMPDEST JUMPDEST PUSH0 PUSH2 0x2CDA DUP6 DUP3 DUP7 ADD PUSH2 0x2585 JUMP JUMPDEST SWAP3 POP POP PUSH1 0x20 PUSH2 0x2CEB DUP6 DUP3 DUP7 ADD PUSH2 0x2585 JUMP JUMPDEST SWAP2 POP POP SWAP3 POP SWAP3 SWAP1 POP JUMP JUMPDEST PUSH0 PUSH1 0x40 DUP3 ADD SWAP1 POP PUSH2 0x2D08 PUSH0 DUP4 ADD DUP6 PUSH2 0x263D JUMP JUMPDEST DUP2 DUP2 SUB PUSH1 0x20 DUP4 ADD MSTORE PUSH2 0x2D1A DUP2 DUP5 PUSH2 0x2941 JUMP JUMPDEST SWAP1 POP SWAP4 SWAP3 POP POP POP JUMP JUMPDEST PUSH0 PUSH1 0x40 DUP3 ADD SWAP1 POP DUP2 DUP2 SUB PUSH0 DUP4 ADD MSTORE PUSH2 0x2D3B DUP2 DUP6 PUSH2 0x2941 JUMP JUMPDEST SWAP1 POP DUP2 DUP2 SUB PUSH1 0x20 DUP4 ADD MSTORE PUSH2 0x2D4F DUP2 DUP5 PUSH2 0x2855 JUMP JUMPDEST SWAP1 POP SWAP4 SWAP3 POP POP POP JUMP JUMPDEST PUSH32 0x4E487B7100000000000000000000000000000000000000000000000000000000 PUSH0 MSTORE PUSH1 0x22 PUSH1 0x4 MSTORE PUSH1 0x24 PUSH0 REVERT JUMPDEST PUSH0 PUSH1 0x2 DUP3 DIV SWAP1 POP PUSH1 0x1 DUP3 AND DUP1 PUSH2 0x2D9C JUMPI PUSH1 0x7F DUP3 AND SWAP2 POP JUMPDEST PUSH1 0x20 DUP3 LT DUP2 SUB PUSH2 0x2DAF JUMPI PUSH2 0x2DAE PUSH2 0x2D58 JUMP JUMPDEST JUMPDEST POP SWAP2 SWAP1 POP JUMP JUMPDEST PUSH32 0x4E487B7100000000000000000000000000000000000000000000000000000000 PUSH0 MSTORE PUSH1 0x11 PUSH1 0x4 MSTORE PUSH1 0x24 PUSH0 REVERT JUMPDEST PUSH0 PUSH2 0x2DEC DUP3 PUSH2 0x2599 JUMP JUMPDEST SWAP2 POP PUSH2 0x2DF7 DUP4 PUSH2 0x2599 JUMP JUMPDEST SWAP3 POP DUP3 DUP3 SUB SWAP1 POP DUP2 DUP2 GT ISZERO PUSH2 0x2E0F JUMPI PUSH2 0x2E0E PUSH2 0x2DB5 JUMP JUMPDEST JUMPDEST SWAP3 SWAP2 POP POP JUMP JUMPDEST PUSH32 0x536F6C6F20656C204F776E6572207075656465206162726972206D6573617300 PUSH0 DUP3 ADD MSTORE POP JUMP JUMPDEST PUSH0 PUSH2 0x2E49 PUSH1 0x1F DUP4 PUSH2 0x24A8 JUMP JUMPDEST SWAP2 POP PUSH2 0x2E54 DUP3 PUSH2 0x2E15 JUMP JUMPDEST PUSH1 0x20 DUP3 ADD SWAP1 POP SWAP2 SWAP1 POP JUMP JUMPDEST PUSH0 PUSH1 0x20 DUP3 ADD SWAP1 POP DUP2 DUP2 SUB PUSH0 DUP4 ADD MSTORE PUSH2 0x2E76 DUP2 PUSH2 0x2E3D JUMP JUMPDEST SWAP1 POP SWAP2 SWAP1 POP JUMP JUMPDEST PUSH32 0x45737461206D6573612079612065737461206162696572746100000000000000 PUSH0 DUP3 ADD MSTORE POP JUMP JUMPDEST PUSH0 PUSH2 0x2EB1 PUSH1 0x19 DUP4 PUSH2 0x24A8 JUMP JUMPDEST SWAP2 POP PUSH2 0x2EBC DUP3 PUSH2 0x2E7D JUMP JUMPDEST PUSH1 0x20 DUP3 ADD SWAP1 POP SWAP2 SWAP1 POP JUMP JUMPDEST PUSH0 PUSH1 0x20 DUP3 ADD SWAP1 POP DUP2 DUP2 SUB PUSH0 DUP4 ADD MSTORE PUSH2 0x2EDE DUP2 PUSH2 0x2EA5 JUMP JUMPDEST SWAP1 POP SWAP2 SWAP1 POP JUMP JUMPDEST PUSH32 0x4D657361206E6F20656E636F6E74726164610000000000000000000000000000 PUSH0 DUP3 ADD MSTORE POP JUMP JUMPDEST PUSH0 PUSH2 0x2F19 PUSH1 0x12 DUP4 PUSH2 0x24A8 JUMP JUMPDEST SWAP2 POP PUSH2 0x2F24 DUP3 PUSH2 0x2EE5 JUMP JUMPDEST PUSH1 0x20 DUP3 ADD SWAP1 POP SWAP2 SWAP1 POP JUMP JUMPDEST PUSH0 PUSH1 0x20 DUP3 ADD SWAP1 POP DUP2 DUP2 SUB PUSH0 DUP4 ADD MSTORE PUSH2 0x2F46 DUP2 PUSH2 0x2F0D JUMP JUMPDEST SWAP1 POP SWAP2 SWAP1 POP JUMP JUMPDEST PUSH32 0x4E487B7100000000000000000000000000000000000000000000000000000000 PUSH0 MSTORE PUSH1 0x32 PUSH1 0x4 MSTORE PUSH1 0x24 PUSH0 REVERT JUMPDEST PUSH0 DUP2 SWAP1 POP DUP2 PUSH0 MSTORE PUSH1 0x20 PUSH0 KECCAK256 SWAP1 POP SWAP2 SWAP1 POP JUMP JUMPDEST PUSH0 PUSH1 0x20 PUSH1 0x1F DUP4 ADD DIV SWAP1 POP SWAP2 SWAP1 POP JUMP JUMPDEST PUSH0 DUP3 DUP3 SHL SWAP1 POP SWAP3 SWAP2 POP POP JUMP JUMPDEST PUSH0 PUSH1 0x8 DUP4 MUL PUSH2 0x2FD6 PUSH32 0xFFFFFFFFFFFFFFFFFFFFFFFFFFFFFFFFFFFFFFFFFFFFFFFFFFFFFFFFFFFFFFFF DUP3 PUSH2 0x2F9B JUMP JUMPDEST PUSH2 0x2FE0 DUP7 DUP4 PUSH2 0x2F9B JUMP JUMPDEST SWAP6 POP DUP1 NOT DUP5 AND SWAP4 POP DUP1 DUP7 AND DUP5 OR SWAP3 POP POP POP SWAP4 SWAP3 POP POP POP JUMP JUMPDEST PUSH0 DUP2 SWAP1 POP SWAP2 SWAP1 POP JUMP JUMPDEST PUSH0 PUSH2 0x301B PUSH2 0x3016 PUSH2 0x3011 DUP5 PUSH2 0x2599 JUMP JUMPDEST PUSH2 0x2FF8 JUMP JUMPDEST PUSH2 0x2599 JUMP JUMPDEST SWAP1 POP SWAP2 SWAP1 POP JUMP JUMPDEST PUSH0 DUP2 SWAP1 POP SWAP2 SWAP1 POP JUMP JUMPDEST PUSH2 0x3034 DUP4 PUSH2 0x3001 JUMP JUMPDEST PUSH2 0x3048 PUSH2 0x3040 DUP3 PUSH2 0x3022 JUMP JUMPDEST DUP5 DUP5 SLOAD PUSH2 0x2FA7 JUMP JUMPDEST DUP3 SSTORE POP POP POP POP JUMP JUMPDEST PUSH0 SWAP1 JUMP JUMPDEST PUSH2 0x305C PUSH2 0x3050 JUMP JUMPDEST PUSH2 0x3067 DUP2 DUP5 DUP5 PUSH2 0x302B JUMP JUMPDEST POP POP POP JUMP JUMPDEST JUMPDEST DUP2 DUP2 LT ISZERO PUSH2 0x308A JUMPI PUSH2 0x307F PUSH0 DUP3 PUSH2 0x3054 JUMP JUMPDEST PUSH1 0x1 DUP2 ADD SWAP1 POP PUSH2 0x306D JUMP JUMPDEST POP POP JUMP JUMPDEST PUSH1 0x1F DUP3 GT ISZERO PUSH2 0x30CF JUMPI PUSH2 0x30A0 DUP2 PUSH2 0x2F7A JUMP JUMPDEST PUSH2 0x30A9 DUP5 PUSH2 0x2F8C JUMP JUMPDEST DUP2 ADD PUSH1 0x20 DUP6 LT ISZERO PUSH2 0x30B8 JUMPI DUP2 SWAP1 POP JUMPDEST PUSH2 0x30CC PUSH2 0x30C4 DUP6 PUSH2 0x2F8C JUMP JUMPDEST DUP4 ADD DUP3 PUSH2 0x306C JUMP JUMPDEST POP POP JUMPDEST POP POP POP JUMP JUMPDEST PUSH0 DUP3 DUP3 SHR SWAP1 POP SWAP3 SWAP2 POP POP JUMP JUMPDEST PUSH0 PUSH2 0x30EF PUSH0 NOT DUP5 PUSH1 0x8 MUL PUSH2 0x30D4 JUMP JUMPDEST NOT DUP1 DUP4 AND SWAP2 POP POP SWAP3 SWAP2 POP POP JUMP JUMPDEST PUSH0 PUSH2 0x3107 DUP4 DUP4 PUSH2 0x30E0 JUMP JUMPDEST SWAP2 POP DUP3 PUSH1 0x2 MUL DUP3 OR SWAP1 POP SWAP3 SWAP2 POP POP JUMP JUMPDEST PUSH2 0x3120 DUP3 PUSH2 0x249E JUMP JUMPDEST PUSH8 0xFFFFFFFFFFFFFFFF DUP2 GT ISZERO PUSH2 0x3139 JUMPI PUSH2 0x3138 PUSH2 0x2A22 JUMP JUMPDEST JUMPDEST PUSH2 0x3143 DUP3 SLOAD PUSH2 0x2D85 JUMP JUMPDEST PUSH2 0x314E DUP3 DUP3 DUP6 PUSH2 0x308E JUMP JUMPDEST PUSH0 PUSH1 0x20 SWAP1 POP PUSH1 0x1F DUP4 GT PUSH1 0x1 DUP2 EQ PUSH2 0x317F JUMPI PUSH0 DUP5 ISZERO PUSH2 0x316D JUMPI DUP3 DUP8 ADD MLOAD SWAP1 POP JUMPDEST PUSH2 0x3177 DUP6 DUP3 PUSH2 0x30FC JUMP JUMPDEST DUP7 SSTORE POP PUSH2 0x31DE JUMP JUMPDEST PUSH1 0x1F NOT DUP5 AND PUSH2 0x318D DUP7 PUSH2 0x2F7A JUMP JUMPDEST PUSH0 JUMPDEST DUP3 DUP2 LT ISZERO PUSH2 0x31B4 JUMPI DUP5 DUP10 ADD MLOAD DUP3 SSTORE PUSH1 0x1 DUP3 ADD SWAP2 POP PUSH1 0x20 DUP6 ADD SWAP5 POP PUSH1 0x20 DUP2 ADD SWAP1 POP PUSH2 0x318F JUMP JUMPDEST DUP7 DUP4 LT ISZERO PUSH2 0x31D1 JUMPI DUP5 DUP10 ADD MLOAD PUSH2 0x31CD PUSH1 0x1F DUP10 AND DUP3 PUSH2 0x30E0 JUMP JUMPDEST DUP4 SSTORE POP JUMPDEST PUSH1 0x1 PUSH1 0x2 DUP9 MUL ADD DUP9 SSTORE POP POP POP JUMPDEST POP POP POP POP POP POP JUMP JUMPDEST PUSH32 0x4E6F207469656E6573207065726D69736F207061726120636572726172206573 PUSH0 DUP3 ADD MSTORE PUSH32 0x7461206D65736100000000000000000000000000000000000000000000000000 PUSH1 0x20 DUP3 ADD MSTORE POP JUMP JUMPDEST PUSH0 PUSH2 0x3240 PUSH1 0x27 DUP4 PUSH2 0x24A8 JUMP JUMPDEST SWAP2 POP PUSH2 0x324B DUP3 PUSH2 0x31E6 JUMP JUMPDEST PUSH1 0x40 DUP3 ADD SWAP1 POP SWAP2 SWAP1 POP JUMP JUMPDEST PUSH0 PUSH1 0x20 DUP3 ADD SWAP1 POP DUP2 DUP2 SUB PUSH0 DUP4 ADD MSTORE PUSH2 0x326D DUP2 PUSH2 0x3234 JUMP JUMPDEST SWAP1 POP SWAP2 SWAP1 POP JUMP JUMPDEST PUSH32 0x45737461206D6573612079612065737461206365727261646100000000000000 PUSH0 DUP3 ADD MSTORE POP JUMP JUMPDEST PUSH0 PUSH2 0x32A8 PUSH1 0x19 DUP4 PUSH2 0x24A8 JUMP JUMPDEST SWAP2 POP PUSH2 0x32B3 DUP3 PUSH2 0x3274 JUMP JUMPDEST PUSH1 0x20 DUP3 ADD SWAP1 POP SWAP2 SWAP1 POP JUMP JUMPDEST PUSH0 PUSH1 0x20 DUP3 ADD SWAP1 POP DUP2 DUP2 SUB PUSH0 DUP4 ADD MSTORE PUSH2 0x32D5 DUP2 PUSH2 0x329C JUMP JUMPDEST SWAP1 POP SWAP2 SWAP1 POP JUMP JUMPDEST PUSH0 PUSH2 0x32E6 DUP3 PUSH2 0x2599 JUMP JUMPDEST SWAP2 POP PUSH2 0x32F1 DUP4 PUSH2 0x2599 JUMP JUMPDEST SWAP3 POP DUP3 DUP3 ADD SWAP1 POP DUP1 DUP3 GT ISZERO PUSH2 0x3309 JUMPI PUSH2 0x3308 PUSH2 0x2DB5 JUMP JUMPDEST JUMPDEST SWAP3 SWAP2 POP POP JUMP JUMPDEST PUSH0 PUSH2 0x3319 DUP3 PUSH2 0x2599 JUMP JUMPDEST SWAP2 POP PUSH32 0xFFFFFFFFFFFFFFFFFFFFFFFFFFFFFFFFFFFFFFFFFFFFFFFFFFFFFFFFFFFFFFFF DUP3 SUB PUSH2 0x334B JUMPI PUSH2 0x334A PUSH2 0x2DB5 JUMP JUMPDEST JUMPDEST PUSH1 0x1 DUP3 ADD SWAP1 POP SWAP2 SWAP1 POP JUMP JUMPDEST PUSH32 0x43616E64696461746F206E6F20656E636F6E747261646F000000000000000000 PUSH0 DUP3 ADD MSTORE POP JUMP JUMPDEST PUSH0 PUSH2 0x338A PUSH1 0x17 DUP4 PUSH2 0x24A8 JUMP JUMPDEST SWAP2 POP PUSH2 0x3395 DUP3 PUSH2 0x3356 JUMP JUMPDEST PUSH1 0x20 DUP3 ADD SWAP1 POP SWAP2 SWAP1 POP JUMP JUMPDEST PUSH0 PUSH1 0x20 DUP3 ADD SWAP1 POP DUP2 DUP2 SUB PUSH0 DUP4 ADD MSTORE PUSH2 0x33B7 DUP2 PUSH2 0x337E JUMP JUMPDEST SWAP1 POP SWAP2 SWAP1 POP JUMP JUMPDEST PUSH32 0x4E6F207469656E657320737566696369656E74657320746F6B656E7320706172 PUSH0 DUP3 ADD MSTORE PUSH32 0x6120766F74617200000000000000000000000000000000000000000000000000 PUSH1 0x20 DUP3 ADD MSTORE POP JUMP JUMPDEST PUSH0 PUSH2 0x3418 PUSH1 0x27 DUP4 PUSH2 0x24A8 JUMP JUMPDEST SWAP2 POP PUSH2 0x3423 DUP3 PUSH2 0x33BE JUMP JUMPDEST PUSH1 0x40 DUP3 ADD SWAP1 POP SWAP2 SWAP1 POP JUMP JUMPDEST PUSH0 PUSH1 0x20 DUP3 ADD SWAP1 POP DUP2 DUP2 SUB PUSH0 DUP4 ADD MSTORE PUSH2 0x3445 DUP2 PUSH2 0x340C JUMP JUMPDEST SWAP1 POP SWAP2 SWAP1 POP JUMP JUMPDEST PUSH32 0x59612068617320766F7461646F20656E2065737461206D657361000000000000 PUSH0 DUP3 ADD MSTORE POP JUMP JUMPDEST PUSH0 PUSH2 0x3480 PUSH1 0x1A DUP4 PUSH2 0x24A8 JUMP JUMPDEST SWAP2 POP PUSH2 0x348B DUP3 PUSH2 0x344C JUMP JUMPDEST PUSH1 0x20 DUP3 ADD SWAP1 POP SWAP2 SWAP1 POP JUMP JUMPDEST PUSH0 PUSH1 0x20 DUP3 ADD SWAP1 POP DUP2 DUP2 SUB PUSH0 DUP4 ADD MSTORE PUSH2 0x34AD DUP2 PUSH2 0x3474 JUMP JUMPDEST SWAP1 POP SWAP2 SWAP1 POP JUMP JUMPDEST PUSH32 0x45737461206D657361206E6F2065737461206162696572746120706172612076 PUSH0 DUP3 ADD MSTORE PUSH32 0x6F746163696F6E00000000000000000000000000000000000000000000000000 PUSH1 0x20 DUP3 ADD MSTORE POP JUMP JUMPDEST PUSH0 PUSH2 0x350E PUSH1 0x27 DUP4 PUSH2 0x24A8 JUMP JUMPDEST SWAP2 POP PUSH2 0x3519 DUP3 PUSH2 0x34B4 JUMP JUMPDEST PUSH1 0x40 DUP3 ADD SWAP1 POP SWAP2 SWAP1 POP JUMP JUMPDEST PUSH0 PUSH1 0x20 DUP3 ADD SWAP1 POP DUP2 DUP2 SUB PUSH0 DUP4 ADD MSTORE PUSH2 0x353B DUP2 PUSH2 0x3502 JUMP JUMPDEST SWAP1 POP SWAP2 SWAP1 POP JUMP JUMPDEST PUSH32 0x4573746120646972656363696F6E207961207265636962696F20737520746F6B PUSH0 DUP3 ADD MSTORE PUSH32 0x656E2079206E6F20736520707565646520646172206D61730000000000000000 PUSH1 0x20 DUP3 ADD MSTORE POP JUMP JUMPDEST PUSH0 PUSH2 0x359C PUSH1 0x38 DUP4 PUSH2 0x24A8 JUMP JUMPDEST SWAP2 POP PUSH2 0x35A7 DUP3 PUSH2 0x3542 JUMP JUMPDEST PUSH1 0x40 DUP3 ADD SWAP1 POP SWAP2 SWAP1 POP JUMP JUMPDEST PUSH0 PUSH1 0x20 DUP3 ADD SWAP1 POP DUP2 DUP2 SUB PUSH0 DUP4 ADD MSTORE PUSH2 0x35C9 DUP2 PUSH2 0x3590 JUMP JUMPDEST SWAP1 POP SWAP2 SWAP1 POP JUMP JUMPDEST PUSH0 PUSH1 0x60 DUP3 ADD SWAP1 POP PUSH2 0x35E3 PUSH0 DUP4 ADD DUP7 PUSH2 0x27EB JUMP JUMPDEST PUSH2 0x35F0 PUSH1 0x20 DUP4 ADD DUP6 PUSH2 0x263D JUMP JUMPDEST PUSH2 0x35FD PUSH1 0x40 DUP4 ADD DUP5 PUSH2 0x263D JUMP JUMPDEST SWAP5 SWAP4 POP POP POP POP JUMP INVALID LOG2 PUSH5 0x6970667358 0x22 SLT KECCAK256 0xE1 SMOD 0x4D 0x28 0xC3 0xAE 0xD4 0xD3 ADDMOD 0xCB GASPRICE DUP5 0x4E DUP14 0xBD 0xD7 0xDF PUSH1 0x0 0xF8 0xDE 0xE2 DUP5 0xE7 LOG2 NOT 0xFC 0xB2 0xBB MSTORE 0xB4 SIGNEXTEND PUSH5 0x736F6C6343 STOP ADDMOD NOT STOP CALLER "
		},
		"gasEstimates": {
			"creation": {
				"codeDepositCost": "2776600",
				"executionCost": "infinite",
				"totalCost": "infinite"
			},
			"external": {
				"abrirMesa(uint256)": "29257",
				"abrirTodasLasMesas()": "infinite",
				"agregarCandidato(string)": "infinite",
				"agregarMesa(string,address)": "infinite",
				"allowance(address,address)": "infinite",
				"approve(address,uint256)": "infinite",
				"balanceOf(address)": "2918",
				"cerrarMesa(uint256)": "31508",
				"cerrarTodasLasMesas()": "infinite",
				"contarRecuentoTotal()": "infinite",
				"decimals()": "450",
				"getTokenRecipients()": "infinite",
				"mint(uint256)": "infinite",
				"name()": "infinite",
				"obtenerInfoMesas()": "infinite",
				"obtenerNombresCandidatos()": "infinite",
				"obtenerRecuentoVotosDeMesa(uint256)": "infinite",
				"obtenerTotalTokensQuemados()": "infinite",
				"obtenerVotosPorCandidato(uint256)": "infinite",
				"owner()": "2605",
				"renounceOwnership()": "infinite",
				"symbol()": "infinite",
				"totalSupply()": "2523",
				"totalTokensCreados()": "2492",
				"transfer(address,uint256)": "infinite",
				"transferFrom(address,address,uint256)": "infinite",
				"transferOwnership(address)": "infinite",
				"transferToken(address)": "infinite",
				"vote(uint256,uint256)": "infinite"
			}
		},
		"methodIdentifiers": {
			"abrirMesa(uint256)": "445bef35",
			"abrirTodasLasMesas()": "b3f179ba",
			"agregarCandidato(string)": "503c560f",
			"agregarMesa(string,address)": "a0bdafda",
			"allowance(address,address)": "dd62ed3e",
			"approve(address,uint256)": "095ea7b3",
			"balanceOf(address)": "70a08231",
			"cerrarMesa(uint256)": "8a9ac1d2",
			"cerrarTodasLasMesas()": "2580e9fb",
			"contarRecuentoTotal()": "fac07d2a",
			"decimals()": "313ce567",
			"getTokenRecipients()": "32bf68d4",
			"mint(uint256)": "a0712d68",
			"name()": "06fdde03",
			"obtenerInfoMesas()": "e44b5252",
			"obtenerNombresCandidatos()": "7847a2c4",
			"obtenerRecuentoVotosDeMesa(uint256)": "4ff7bcb1",
			"obtenerTotalTokensQuemados()": "1a90c25a",
			"obtenerVotosPorCandidato(uint256)": "aaac5fc6",
			"owner()": "8da5cb5b",
			"renounceOwnership()": "715018a6",
			"symbol()": "95d89b41",
			"totalSupply()": "18160ddd",
			"totalTokensCreados()": "6e34a44d",
			"transfer(address,uint256)": "a9059cbb",
			"transferFrom(address,address,uint256)": "23b872dd",
			"transferOwnership(address)": "f2fde38b",
			"transferToken(address)": "deebeac9",
			"vote(uint256,uint256)": "b384abef"
		}
	},
	"abi": [
		{
			"inputs": [],
			"stateMutability": "nonpayable",
			"type": "constructor"
		},
		{
			"inputs": [
				{
					"internalType": "address",
					"name": "spender",
					"type": "address"
				},
				{
					"internalType": "uint256",
					"name": "allowance",
					"type": "uint256"
				},
				{
					"internalType": "uint256",
					"name": "needed",
					"type": "uint256"
				}
			],
			"name": "ERC20InsufficientAllowance",
			"type": "error"
		},
		{
			"inputs": [
				{
					"internalType": "address",
					"name": "sender",
					"type": "address"
				},
				{
					"internalType": "uint256",
					"name": "balance",
					"type": "uint256"
				},
				{
					"internalType": "uint256",
					"name": "needed",
					"type": "uint256"
				}
			],
			"name": "ERC20InsufficientBalance",
			"type": "error"
		},
		{
			"inputs": [
				{
					"internalType": "address",
					"name": "approver",
					"type": "address"
				}
			],
			"name": "ERC20InvalidApprover",
			"type": "error"
		},
		{
			"inputs": [
				{
					"internalType": "address",
					"name": "receiver",
					"type": "address"
				}
			],
			"name": "ERC20InvalidReceiver",
			"type": "error"
		},
		{
			"inputs": [
				{
					"internalType": "address",
					"name": "sender",
					"type": "address"
				}
			],
			"name": "ERC20InvalidSender",
			"type": "error"
		},
		{
			"inputs": [
				{
					"internalType": "address",
					"name": "spender",
					"type": "address"
				}
			],
			"name": "ERC20InvalidSpender",
			"type": "error"
		},
		{
			"inputs": [
				{
					"internalType": "address",
					"name": "owner",
					"type": "address"
				}
			],
			"name": "OwnableInvalidOwner",
			"type": "error"
		},
		{
			"inputs": [
				{
					"internalType": "address",
					"name": "account",
					"type": "address"
				}
			],
			"name": "OwnableUnauthorizedAccount",
			"type": "error"
		},
		{
			"anonymous": false,
			"inputs": [
				{
					"indexed": true,
					"internalType": "address",
					"name": "owner",
					"type": "address"
				},
				{
					"indexed": true,
					"internalType": "address",
					"name": "spender",
					"type": "address"
				},
				{
					"indexed": false,
					"internalType": "uint256",
					"name": "value",
					"type": "uint256"
				}
			],
			"name": "Approval",
			"type": "event"
		},
		{
			"anonymous": false,
			"inputs": [
				{
					"indexed": false,
					"internalType": "string",
					"name": "nombre",
					"type": "string"
				}
			],
			"name": "CandidatoAgregado",
			"type": "event"
		},
		{
			"anonymous": false,
			"inputs": [
				{
					"indexed": true,
					"internalType": "uint256",
					"name": "mesaIndex",
					"type": "uint256"
				},
				{
					"indexed": false,
					"internalType": "string",
					"name": "nombreMesa",
					"type": "string"
				}
			],
			"name": "NuevaMesaAbierta",
			"type": "event"
		},
		{
			"anonymous": false,
			"inputs": [
				{
					"indexed": true,
					"internalType": "address",
					"name": "previousOwner",
					"type": "address"
				},
				{
					"indexed": true,
					"internalType": "address",
					"name": "newOwner",
					"type": "address"
				}
			],
			"name": "OwnershipTransferred",
			"type": "event"
		},
		{
			"anonymous": false,
			"inputs": [
				{
					"indexed": true,
					"internalType": "address",
					"name": "from",
					"type": "address"
				},
				{
					"indexed": true,
					"internalType": "address",
					"name": "to",
					"type": "address"
				},
				{
					"indexed": false,
					"internalType": "uint256",
					"name": "value",
					"type": "uint256"
				}
			],
			"name": "Transfer",
			"type": "event"
		},
		{
			"inputs": [
				{
					"internalType": "uint256",
					"name": "_mesaIndex",
					"type": "uint256"
				}
			],
			"name": "abrirMesa",
			"outputs": [],
			"stateMutability": "nonpayable",
			"type": "function"
		},
		{
			"inputs": [],
			"name": "abrirTodasLasMesas",
			"outputs": [],
			"stateMutability": "nonpayable",
			"type": "function"
		},
		{
			"inputs": [
				{
					"internalType": "string",
					"name": "_nombre",
					"type": "string"
				}
			],
			"name": "agregarCandidato",
			"outputs": [],
			"stateMutability": "nonpayable",
			"type": "function"
		},
		{
			"inputs": [
				{
					"internalType": "string",
					"name": "_nombre",
					"type": "string"
				},
				{
					"internalType": "address",
					"name": "_owner",
					"type": "address"
				}
			],
			"name": "agregarMesa",
			"outputs": [],
			"stateMutability": "nonpayable",
			"type": "function"
		},
		{
			"inputs": [
				{
					"internalType": "address",
					"name": "owner",
					"type": "address"
				},
				{
					"internalType": "address",
					"name": "spender",
					"type": "address"
				}
			],
			"name": "allowance",
			"outputs": [
				{
					"internalType": "uint256",
					"name": "",
					"type": "uint256"
				}
			],
			"stateMutability": "view",
			"type": "function"
		},
		{
			"inputs": [
				{
					"internalType": "address",
					"name": "spender",
					"type": "address"
				},
				{
					"internalType": "uint256",
					"name": "value",
					"type": "uint256"
				}
			],
			"name": "approve",
			"outputs": [
				{
					"internalType": "bool",
					"name": "",
					"type": "bool"
				}
			],
			"stateMutability": "nonpayable",
			"type": "function"
		},
		{
			"inputs": [
				{
					"internalType": "address",
					"name": "account",
					"type": "address"
				}
			],
			"name": "balanceOf",
			"outputs": [
				{
					"internalType": "uint256",
					"name": "",
					"type": "uint256"
				}
			],
			"stateMutability": "view",
			"type": "function"
		},
		{
			"inputs": [
				{
					"internalType": "uint256",
					"name": "_mesaIndex",
					"type": "uint256"
				}
			],
			"name": "cerrarMesa",
			"outputs": [],
			"stateMutability": "nonpayable",
			"type": "function"
		},
		{
			"inputs": [],
			"name": "cerrarTodasLasMesas",
			"outputs": [],
			"stateMutability": "nonpayable",
			"type": "function"
		},
		{
			"inputs": [],
			"name": "contarRecuentoTotal",
			"outputs": [
				{
					"internalType": "string[]",
					"name": "nombres",
					"type": "string[]"
				},
				{
					"internalType": "uint256[]",
					"name": "votos",
					"type": "uint256[]"
				}
			],
			"stateMutability": "view",
			"type": "function"
		},
		{
			"inputs": [],
			"name": "decimals",
			"outputs": [
				{
					"internalType": "uint8",
					"name": "",
					"type": "uint8"
				}
			],
			"stateMutability": "view",
			"type": "function"
		},
		{
			"inputs": [],
			"name": "getTokenRecipients",
			"outputs": [
				{
					"internalType": "address[]",
					"name": "",
					"type": "address[]"
				}
			],
			"stateMutability": "view",
			"type": "function"
		},
		{
			"inputs": [
				{
					"internalType": "uint256",
					"name": "_cantidad",
					"type": "uint256"
				}
			],
			"name": "mint",
			"outputs": [],
			"stateMutability": "nonpayable",
			"type": "function"
		},
		{
			"inputs": [],
			"name": "name",
			"outputs": [
				{
					"internalType": "string",
					"name": "",
					"type": "string"
				}
			],
			"stateMutability": "view",
			"type": "function"
		},
		{
			"inputs": [],
			"name": "obtenerInfoMesas",
			"outputs": [
				{
					"internalType": "uint256",
					"name": "cantidadMesas",
					"type": "uint256"
				},
				{
					"internalType": "string[]",
					"name": "nombresMesas",
					"type": "string[]"
				}
			],
			"stateMutability": "view",
			"type": "function"
		},
		{
			"inputs": [],
			"name": "obtenerNombresCandidatos",
			"outputs": [
				{
					"internalType": "string[]",
					"name": "nombres",
					"type": "string[]"
				}
			],
			"stateMutability": "view",
			"type": "function"
		},
		{
			"inputs": [
				{
					"internalType": "uint256",
					"name": "_mesaIndex",
					"type": "uint256"
				}
			],
			"name": "obtenerRecuentoVotosDeMesa",
			"outputs": [
				{
					"internalType": "string",
					"name": "nombreMesa",
					"type": "string"
				},
				{
					"internalType": "address",
					"name": "ownerMesa",
					"type": "address"
				},
				{
					"internalType": "bool",
					"name": "isOpen",
					"type": "bool"
				},
				{
					"internalType": "uint256[]",
					"name": "votosCandidatos",
					"type": "uint256[]"
				},
				{
					"internalType": "string[]",
					"name": "nombresCandidatos",
					"type": "string[]"
				}
			],
			"stateMutability": "view",
			"type": "function"
		},
		{
			"inputs": [],
			"name": "obtenerTotalTokensQuemados",
			"outputs": [
				{
					"internalType": "uint256",
					"name": "Total",
					"type": "uint256"
				}
			],
			"stateMutability": "view",
			"type": "function"
		},
		{
			"inputs": [
				{
					"internalType": "uint256",
					"name": "_candidatoIndex",
					"type": "uint256"
				}
			],
			"name": "obtenerVotosPorCandidato",
			"outputs": [
				{
					"internalType": "string",
					"name": "nombreCandidato",
					"type": "string"
				},
				{
					"internalType": "uint256",
					"name": "votos",
					"type": "uint256"
				}
			],
			"stateMutability": "view",
			"type": "function"
		},
		{
			"inputs": [],
			"name": "owner",
			"outputs": [
				{
					"internalType": "address",
					"name": "",
					"type": "address"
				}
			],
			"stateMutability": "view",
			"type": "function"
		},
		{
			"inputs": [],
			"name": "renounceOwnership",
			"outputs": [],
			"stateMutability": "nonpayable",
			"type": "function"
		},
		{
			"inputs": [],
			"name": "symbol",
			"outputs": [
				{
					"internalType": "string",
					"name": "",
					"type": "string"
				}
			],
			"stateMutability": "view",
			"type": "function"
		},
		{
			"inputs": [],
			"name": "totalSupply",
			"outputs": [
				{
					"internalType": "uint256",
					"name": "",
					"type": "uint256"
				}
			],
			"stateMutability": "view",
			"type": "function"
		},
		{
			"inputs": [],
			"name": "totalTokensCreados",
			"outputs": [
				{
					"internalType": "uint256",
					"name": "",
					"type": "uint256"
				}
			],
			"stateMutability": "view",
			"type": "function"
		},
		{
			"inputs": [
				{
					"internalType": "address",
					"name": "to",
					"type": "address"
				},
				{
					"internalType": "uint256",
					"name": "value",
					"type": "uint256"
				}
			],
			"name": "transfer",
			"outputs": [
				{
					"internalType": "bool",
					"name": "",
					"type": "bool"
				}
			],
			"stateMutability": "nonpayable",
			"type": "function"
		},
		{
			"inputs": [
				{
					"internalType": "address",
					"name": "from",
					"type": "address"
				},
				{
					"internalType": "address",
					"name": "to",
					"type": "address"
				},
				{
					"internalType": "uint256",
					"name": "value",
					"type": "uint256"
				}
			],
			"name": "transferFrom",
			"outputs": [
				{
					"internalType": "bool",
					"name": "",
					"type": "bool"
				}
			],
			"stateMutability": "nonpayable",
			"type": "function"
		},
		{
			"inputs": [
				{
					"internalType": "address",
					"name": "newOwner",
					"type": "address"
				}
			],
			"name": "transferOwnership",
			"outputs": [],
			"stateMutability": "nonpayable",
			"type": "function"
		},
		{
			"inputs": [
				{
					"internalType": "address",
					"name": "_to",
					"type": "address"
				}
			],
			"name": "transferToken",
			"outputs": [
				{
					"internalType": "bool",
					"name": "",
					"type": "bool"
				}
			],
			"stateMutability": "nonpayable",
			"type": "function"
		},
		{
			"inputs": [
				{
					"internalType": "uint256",
					"name": "_candidatoIndex",
					"type": "uint256"
				},
				{
					"internalType": "uint256",
					"name": "_mesaIndex",
					"type": "uint256"
				}
			],
			"name": "vote",
			"outputs": [],
			"stateMutability": "payable",
			"type": "function"
		}
	]
}