{
	"data": {
		"bytecode": {
			"linkReferences": {},
			"object": "608060405234801561000f575f80fd5b50336040518060400160405280600781526020017f4d79546f6b656e000000000000000000000000000000000000000000000000008152506040518060400160405280600381526020017f4d544b0000000000000000000000000000000000000000000000000000000000815250816003908161008c91906106d1565b50806004908161009c91906106d1565b5050505f73ffffffffffffffffffffffffffffffffffffffff168173ffffffffffffffffffffffffffffffffffffffff160361010f575f6040517f1e4fbdf700000000000000000000000000000000000000000000000000000000815260040161010691906107df565b60405180910390fd5b61011e8161013660201b60201c565b50610131306103e86101f960201b60201c565b6108b5565b5f60055f9054906101000a900473ffffffffffffffffffffffffffffffffffffffff1690508160055f6101000a81548173ffffffffffffffffffffffffffffffffffffffff021916908373ffffffffffffffffffffffffffffffffffffffff1602179055508173ffffffffffffffffffffffffffffffffffffffff168173ffffffffffffffffffffffffffffffffffffffff167f8be0079c531659141344cd1fd0a4f28419497f9722a3daafe3b4186f6b6457e060405160405180910390a35050565b5f73ffffffffffffffffffffffffffffffffffffffff168273ffffffffffffffffffffffffffffffffffffffff1603610269575f6040517fec442f0500000000000000000000000000000000000000000000000000000000815260040161026091906107df565b60405180910390fd5b61027a5f838361027e60201b60201c565b5050565b5f73ffffffffffffffffffffffffffffffffffffffff168373ffffffffffffffffffffffffffffffffffffffff16036102ce578060025f8282546102c29190610825565b9250508190555061039c565b5f805f8573ffffffffffffffffffffffffffffffffffffffff1673ffffffffffffffffffffffffffffffffffffffff1681526020019081526020015f2054905081811015610357578381836040517fe450d38c00000000000000000000000000000000000000000000000000000000815260040161034e93929190610867565b60405180910390fd5b8181035f808673ffffffffffffffffffffffffffffffffffffffff1673ffffffffffffffffffffffffffffffffffffffff1681526020019081526020015f2081905550505b5f73ffffffffffffffffffffffffffffffffffffffff168273ffffffffffffffffffffffffffffffffffffffff16036103e3578060025f828254039250508190555061042d565b805f808473ffffffffffffffffffffffffffffffffffffffff1673ffffffffffffffffffffffffffffffffffffffff1681526020019081526020015f205f82825401925050819055505b8173ffffffffffffffffffffffffffffffffffffffff168373ffffffffffffffffffffffffffffffffffffffff167fddf252ad1be2c89b69c2b068fc378daa952ba7f163c4a11628f55a4df523b3ef8360405161048a919061089c565b60405180910390a3505050565b5f81519050919050565b7f4e487b71000000000000000000000000000000000000000000000000000000005f52604160045260245ffd5b7f4e487b71000000000000000000000000000000000000000000000000000000005f52602260045260245ffd5b5f600282049050600182168061051257607f821691505b602082108103610525576105246104ce565b5b50919050565b5f819050815f5260205f209050919050565b5f6020601f8301049050919050565b5f82821b905092915050565b5f600883026105877fffffffffffffffffffffffffffffffffffffffffffffffffffffffffffffffff8261054c565b610591868361054c565b95508019841693508086168417925050509392505050565b5f819050919050565b5f819050919050565b5f6105d56105d06105cb846105a9565b6105b2565b6105a9565b9050919050565b5f819050919050565b6105ee836105bb565b6106026105fa826105dc565b848454610558565b825550505050565b5f90565b61061661060a565b6106218184846105e5565b505050565b5b81811015610644576106395f8261060e565b600181019050610627565b5050565b601f8211156106895761065a8161052b565b6106638461053d565b81016020851015610672578190505b61068661067e8561053d565b830182610626565b50505b505050565b5f82821c905092915050565b5f6106a95f198460080261068e565b1980831691505092915050565b5f6106c1838361069a565b9150826002028217905092915050565b6106da82610497565b67ffffffffffffffff8111156106f3576106f26104a1565b5b6106fd82546104fb565b610708828285610648565b5f60209050601f831160018114610739575f8415610727578287015190505b61073185826106b6565b865550610798565b601f1984166107478661052b565b5f5b8281101561076e57848901518255600182019150602085019450602081019050610749565b8683101561078b5784890151610787601f89168261069a565b8355505b6001600288020188555050505b505050505050565b5f73ffffffffffffffffffffffffffffffffffffffff82169050919050565b5f6107c9826107a0565b9050919050565b6107d9816107bf565b82525050565b5f6020820190506107f25f8301846107d0565b92915050565b7f4e487b71000000000000000000000000000000000000000000000000000000005f52601160045260245ffd5b5f61082f826105a9565b915061083a836105a9565b9250828201905080821115610852576108516107f8565b5b92915050565b610861816105a9565b82525050565b5f60608201905061087a5f8301866107d0565b6108876020830185610858565b6108946040830184610858565b949350505050565b5f6020820190506108af5f830184610858565b92915050565b61314a806108c25f395ff3fe6080604052600436106101b6575f3560e01c80638da5cb5b116100eb578063b3f179ba11610089578063deebeac911610063578063deebeac9146105d6578063ebc34d2414610612578063f2fde38b1461064e578063fac07d2a14610676576101b6565b8063b3f179ba1461055a578063dd62ed3e14610570578063dd670ed7146105ac576101b6565b8063a0712d68116100c5578063a0712d68146104b2578063a0bdafda146104da578063a9059cbb14610502578063b384abef1461053e576101b6565b80638da5cb5b146104215780638f023f851461044b57806395d89b4114610488576101b6565b806332bf68d4116101585780635b94ea10116101325780635b94ea101461036a57806370a08231146103a7578063715018a6146103e35780638a9ac1d2146103f9576101b6565b806332bf68d4146102f0578063445bef351461031a578063503c560f14610342576101b6565b8063198cc69111610194578063198cc6911461024a57806323b872dd146102745780632580e9fb146102b0578063313ce567146102c6576101b6565b806306fdde03146101ba578063095ea7b3146101e457806318160ddd14610220575b5f80fd5b3480156101c5575f80fd5b506101ce6106a1565b6040516101db9190612045565b60405180910390f35b3480156101ef575f80fd5b5061020a60048036038101906102059190612103565b610731565b604051610217919061215b565b60405180910390f35b34801561022b575f80fd5b50610234610753565b6040516102419190612183565b60405180910390f35b348015610255575f80fd5b5061025e61075c565b60405161026b91906122e8565b60405180910390f35b34801561027f575f80fd5b5061029a60048036038101906102959190612308565b610851565b6040516102a7919061215b565b60405180910390f35b3480156102bb575f80fd5b506102c461087f565b005b3480156102d1575f80fd5b506102da6108f5565b6040516102e79190612373565b60405180910390f35b3480156102fb575f80fd5b506103046108fd565b6040516103119190612443565b60405180910390f35b348015610325575f80fd5b50610340600480360381019061033b9190612463565b610988565b005b34801561034d575f80fd5b50610368600480360381019061036391906125ba565b610ab8565b005b348015610375575f80fd5b50610390600480360381019061038b9190612463565b610b57565b60405161039e929190612610565b60405180910390f35b3480156103b2575f80fd5b506103cd60048036038101906103c89190612637565b610ba2565b6040516103da9190612183565b60405180910390f35b3480156103ee575f80fd5b506103f7610be7565b005b348015610404575f80fd5b5061041f600480360381019061041a9190612463565b610bfa565b005b34801561042c575f80fd5b50610435610d28565b6040516104429190612662565b60405180910390f35b348015610456575f80fd5b50610471600480360381019061046c9190612463565b610d50565b60405161047f92919061267b565b60405180910390f35b348015610493575f80fd5b5061049c610e05565b6040516104a99190612045565b60405180910390f35b3480156104bd575f80fd5b506104d860048036038101906104d39190612463565b610e95565b005b3480156104e5575f80fd5b5061050060048036038101906104fb91906126a9565b610eaa565b005b34801561050d575f80fd5b5061052860048036038101906105239190612103565b610fec565b604051610535919061215b565b60405180910390f35b61055860048036038101906105539190612703565b61100e565b005b348015610565575f80fd5b5061056e611256565b005b34801561057b575f80fd5b5061059660048036038101906105919190612741565b6112cc565b6040516105a39190612183565b60405180910390f35b3480156105b7575f80fd5b506105c061134e565b6040516105cd9190612183565b60405180910390f35b3480156105e1575f80fd5b506105fc60048036038101906105f79190612637565b611354565b604051610609919061215b565b60405180910390f35b34801561061d575f80fd5b5061063860048036038101906106339190612463565b611498565b6040516106459190612827565b60405180910390f35b348015610659575f80fd5b50610674600480360381019061066f9190612637565b611502565b005b348015610681575f80fd5b5061068a611586565b604051610698929190612902565b60405180910390f35b6060600380546106b090612964565b80601f01602080910402602001604051908101604052809291908181526020018280546106dc90612964565b80156107275780601f106106fe57610100808354040283529160200191610727565b820191905f5260205f20905b81548152906001019060200180831161070a57829003601f168201915b5050505050905090565b5f8061073b6117a4565b90506107488185856117ab565b600191505092915050565b5f600254905090565b60606006805480602002602001604051908101604052809291908181526020015f905b82821015610848578382905f5260205f2090600202016040518060400160405290815f820180546107af90612964565b80601f01602080910402602001604051908101604052809291908181526020018280546107db90612964565b80156108265780601f106107fd57610100808354040283529160200191610826565b820191905f5260205f20905b81548152906001019060200180831161080957829003601f168201915b505050505081526020016001820154815250508152602001906001019061077f565b50505050905090565b5f8061085b6117a4565b90506108688582856117bd565b61087385858561184f565b60019150509392505050565b61088761193f565b5f5b600a548110156108f25760085f8281526020019081526020015f206003015f9054906101000a900460ff16156108e5575f60085f8381526020019081526020015f206003015f6101000a81548160ff0219169083151502179055505b8080600101915050610889565b50565b5f6012905090565b6060600980548060200260200160405190810160405280929190818152602001828054801561097e57602002820191905f5260205f20905b815f9054906101000a900473ffffffffffffffffffffffffffffffffffffffff1673ffffffffffffffffffffffffffffffffffffffff1681526020019060010190808311610935575b5050505050905090565b60085f8281526020019081526020015f205f015f9054906101000a900473ffffffffffffffffffffffffffffffffffffffff1673ffffffffffffffffffffffffffffffffffffffff163373ffffffffffffffffffffffffffffffffffffffff1614610a28576040517f08c379a0000000000000000000000000000000000000000000000000000000008152600401610a1f90612a04565b60405180910390fd5b60085f8281526020019081526020015f206003015f9054906101000a900460ff1615610a89576040517f08c379a0000000000000000000000000000000000000000000000000000000008152600401610a8090612a6c565b60405180910390fd5b600160085f8381526020019081526020015f206003015f6101000a81548160ff02191690831515021790555050565b610ac061193f565b600660405180604001604052808381526020015f815250908060018154018082558091505060019003905f5260205f2090600202015f909190919091505f820151815f019081610b109190612c27565b506020820151816001015550507f566c2d39711b082cc685ade507dee6291f47044333d9aba4037034cdc3cfac9e81604051610b4c9190612045565b60405180910390a150565b6008602052805f5260405f205f91509050805f015f9054906101000a900473ffffffffffffffffffffffffffffffffffffffff1690806003015f9054906101000a900460ff16905082565b5f805f8373ffffffffffffffffffffffffffffffffffffffff1673ffffffffffffffffffffffffffffffffffffffff1681526020019081526020015f20549050919050565b610bef61193f565b610bf85f6119c6565b565b60085f8281526020019081526020015f205f015f9054906101000a900473ffffffffffffffffffffffffffffffffffffffff1673ffffffffffffffffffffffffffffffffffffffff163373ffffffffffffffffffffffffffffffffffffffff1614610c9a576040517f08c379a0000000000000000000000000000000000000000000000000000000008152600401610c9190612a04565b60405180910390fd5b60085f8281526020019081526020015f206003015f9054906101000a900460ff16610cfa576040517f08c379a0000000000000000000000000000000000000000000000000000000008152600401610cf190612d40565b60405180910390fd5b5f60085f8381526020019081526020015f206003015f6101000a81548160ff02191690831515021790555050565b5f60055f9054906101000a900473ffffffffffffffffffffffffffffffffffffffff16905090565b60068181548110610d5f575f80fd5b905f5260205f2090600202015f91509050805f018054610d7e90612964565b80601f0160208091040260200160405190810160405280929190818152602001828054610daa90612964565b8015610df55780601f10610dcc57610100808354040283529160200191610df5565b820191905f5260205f20905b815481529060010190602001808311610dd857829003601f168201915b5050505050908060010154905082565b606060048054610e1490612964565b80601f0160208091040260200160405190810160405280929190818152602001828054610e4090612964565b8015610e8b5780601f10610e6257610100808354040283529160200191610e8b565b820191905f5260205f20905b815481529060010190602001808311610e6e57829003601f168201915b5050505050905090565b610e9d61193f565b610ea73082611a89565b50565b610eb261193f565b600a5f815480929190610ec490612d8b565b91905055505f60085f6001600a54610edc9190612dd2565b81526020019081526020015f20905081815f015f6101000a81548173ffffffffffffffffffffffffffffffffffffffff021916908373ffffffffffffffffffffffffffffffffffffffff1602179055505f816003015f6101000a81548160ff02191690831515021790555060068054905067ffffffffffffffff811115610f6657610f65612496565b5b604051908082528060200260200182016040528015610f945781602001602082028036833780820191505090505b50816002019080519060200190610fac929190611f6f565b50600a547f475e637cd3c90ecc459eddf548f62cfca3117407751685fce1ff08330f83f3c784604051610fdf9190612045565b60405180910390a2505050565b5f80610ff66117a4565b905061100381858561184f565b600191505092915050565b600161101933610ba2565b101561105a576040517f08c379a000000000000000000000000000000000000000000000000000000000815260040161105190612e75565b60405180910390fd5b60085f8281526020019081526020015f206001015f3373ffffffffffffffffffffffffffffffffffffffff1673ffffffffffffffffffffffffffffffffffffffff1681526020019081526020015f205f9054906101000a900460ff16156110f6576040517f08c379a00000000000000000000000000000000000000000000000000000000081526004016110ed90612edd565b60405180910390fd5b600680549050821061113d576040517f08c379a000000000000000000000000000000000000000000000000000000000815260040161113490612f45565b60405180910390fd5b60085f8281526020019081526020015f206003015f9054906101000a900460ff1661119d576040517f08c379a000000000000000000000000000000000000000000000000000000000815260040161119490612fd3565b60405180910390fd5b6111a8336001611b08565b60085f8281526020019081526020015f2060020182815481106111ce576111cd612ff1565b5b905f5260205f20015f8154809291906111e690612d8b565b9190505550600160085f8381526020019081526020015f206001015f3373ffffffffffffffffffffffffffffffffffffffff1673ffffffffffffffffffffffffffffffffffffffff1681526020019081526020015f205f6101000a81548160ff0219169083151502179055505050565b61125e61193f565b5f5b600a548110156112c95760085f8281526020019081526020015f206003015f9054906101000a900460ff166112bc57600160085f8381526020019081526020015f206003015f6101000a81548160ff0219169083151502179055505b8080600101915050611260565b50565b5f60015f8473ffffffffffffffffffffffffffffffffffffffff1673ffffffffffffffffffffffffffffffffffffffff1681526020019081526020015f205f8373ffffffffffffffffffffffffffffffffffffffff1673ffffffffffffffffffffffffffffffffffffffff1681526020019081526020015f2054905092915050565b600a5481565b5f61135d61193f565b5f5b600980549050811015611422578273ffffffffffffffffffffffffffffffffffffffff166009828154811061139757611396612ff1565b5b905f5260205f20015f9054906101000a900473ffffffffffffffffffffffffffffffffffffffff1673ffffffffffffffffffffffffffffffffffffffff1603611415576040517f08c379a000000000000000000000000000000000000000000000000000000000815260040161140c9061308e565b60405180910390fd5b808060010191505061135f565b5061142f3083600161184f565b600982908060018154018082558091505060019003905f5260205f20015f9091909190916101000a81548173ffffffffffffffffffffffffffffffffffffffff021916908373ffffffffffffffffffffffffffffffffffffffff16021790555060019050919050565b606060085f8381526020019081526020015f206002018054806020026020016040519081016040528092919081815260200182805480156114f657602002820191905f5260205f20905b8154815260200190600101908083116114e2575b50505050509050919050565b61150a61193f565b5f73ffffffffffffffffffffffffffffffffffffffff168173ffffffffffffffffffffffffffffffffffffffff160361157a575f6040517f1e4fbdf70000000000000000000000000000000000000000000000000000000081526004016115719190612662565b60405180910390fd5b611583816119c6565b50565b60608060068054905067ffffffffffffffff8111156115a8576115a7612496565b5b6040519080825280602002602001820160405280156115db57816020015b60608152602001906001900390816115c65790505b50915060068054905067ffffffffffffffff8111156115fd576115fc612496565b5b60405190808252806020026020018201604052801561162b5781602001602082028036833780820191505090505b5090505f5b600680549050811015611711576006818154811061165157611650612ff1565b5b905f5260205f2090600202015f01805461166a90612964565b80601f016020809104026020016040519081016040528092919081815260200182805461169690612964565b80156116e15780601f106116b8576101008083540402835291602001916116e1565b820191905f5260205f20905b8154815290600101906020018083116116c457829003601f168201915b50505050508382815181106116f9576116f8612ff1565b5b60200260200101819052508080600101915050611630565b505f5b600a54811161179f575f61172782611498565b90505f5b815181101561178a5781818151811061174757611746612ff1565b5b602002602001015184828151811061176257611761612ff1565b5b6020026020010181815161177691906130ac565b91508181525050808060010191505061172b565b5050808061179790612d8b565b915050611714565b509091565b5f33905090565b6117b88383836001611b87565b505050565b5f6117c884846112cc565b90507fffffffffffffffffffffffffffffffffffffffffffffffffffffffffffffffff8114611849578181101561183a578281836040517ffb8f41b2000000000000000000000000000000000000000000000000000000008152600401611831939291906130df565b60405180910390fd5b61184884848484035f611b87565b5b50505050565b5f73ffffffffffffffffffffffffffffffffffffffff168373ffffffffffffffffffffffffffffffffffffffff16036118bf575f6040517f96c6fd1e0000000000000000000000000000000000000000000000000000000081526004016118b69190612662565b60405180910390fd5b5f73ffffffffffffffffffffffffffffffffffffffff168273ffffffffffffffffffffffffffffffffffffffff160361192f575f6040517fec442f050000000000000000000000000000000000000000000000000000000081526004016119269190612662565b60405180910390fd5b61193a838383611d56565b505050565b6119476117a4565b73ffffffffffffffffffffffffffffffffffffffff16611965610d28565b73ffffffffffffffffffffffffffffffffffffffff16146119c4576119886117a4565b6040517f118cdaa70000000000000000000000000000000000000000000000000000000081526004016119bb9190612662565b60405180910390fd5b565b5f60055f9054906101000a900473ffffffffffffffffffffffffffffffffffffffff1690508160055f6101000a81548173ffffffffffffffffffffffffffffffffffffffff021916908373ffffffffffffffffffffffffffffffffffffffff1602179055508173ffffffffffffffffffffffffffffffffffffffff168173ffffffffffffffffffffffffffffffffffffffff167f8be0079c531659141344cd1fd0a4f28419497f9722a3daafe3b4186f6b6457e060405160405180910390a35050565b5f73ffffffffffffffffffffffffffffffffffffffff168273ffffffffffffffffffffffffffffffffffffffff1603611af9575f6040517fec442f05000000000000000000000000000000000000000000000000000000008152600401611af09190612662565b60405180910390fd5b611b045f8383611d56565b5050565b5f73ffffffffffffffffffffffffffffffffffffffff168273ffffffffffffffffffffffffffffffffffffffff1603611b78575f6040517f96c6fd1e000000000000000000000000000000000000000000000000000000008152600401611b6f9190612662565b60405180910390fd5b611b83825f83611d56565b5050565b5f73ffffffffffffffffffffffffffffffffffffffff168473ffffffffffffffffffffffffffffffffffffffff1603611bf7575f6040517fe602df05000000000000000000000000000000000000000000000000000000008152600401611bee9190612662565b60405180910390fd5b5f73ffffffffffffffffffffffffffffffffffffffff168373ffffffffffffffffffffffffffffffffffffffff1603611c67575f6040517f94280d62000000000000000000000000000000000000000000000000000000008152600401611c5e9190612662565b60405180910390fd5b8160015f8673ffffffffffffffffffffffffffffffffffffffff1673ffffffffffffffffffffffffffffffffffffffff1681526020019081526020015f205f8573ffffffffffffffffffffffffffffffffffffffff1673ffffffffffffffffffffffffffffffffffffffff1681526020019081526020015f20819055508015611d50578273ffffffffffffffffffffffffffffffffffffffff168473ffffffffffffffffffffffffffffffffffffffff167f8c5be1e5ebec7d5bd14f71427d1e84f3dd0314c0f7b2291e5b200ac8c7c3b92584604051611d479190612183565b60405180910390a35b50505050565b5f73ffffffffffffffffffffffffffffffffffffffff168373ffffffffffffffffffffffffffffffffffffffff1603611da6578060025f828254611d9a91906130ac565b92505081905550611e74565b5f805f8573ffffffffffffffffffffffffffffffffffffffff1673ffffffffffffffffffffffffffffffffffffffff1681526020019081526020015f2054905081811015611e2f578381836040517fe450d38c000000000000000000000000000000000000000000000000000000008152600401611e26939291906130df565b60405180910390fd5b8181035f808673ffffffffffffffffffffffffffffffffffffffff1673ffffffffffffffffffffffffffffffffffffffff1681526020019081526020015f2081905550505b5f73ffffffffffffffffffffffffffffffffffffffff168273ffffffffffffffffffffffffffffffffffffffff1603611ebb578060025f8282540392505081905550611f05565b805f808473ffffffffffffffffffffffffffffffffffffffff1673ffffffffffffffffffffffffffffffffffffffff1681526020019081526020015f205f82825401925050819055505b8173ffffffffffffffffffffffffffffffffffffffff168373ffffffffffffffffffffffffffffffffffffffff167fddf252ad1be2c89b69c2b068fc378daa952ba7f163c4a11628f55a4df523b3ef83604051611f629190612183565b60405180910390a3505050565b828054828255905f5260205f20908101928215611fa9579160200282015b82811115611fa8578251825591602001919060010190611f8d565b5b509050611fb69190611fba565b5090565b5b80821115611fd1575f815f905550600101611fbb565b5090565b5f81519050919050565b5f82825260208201905092915050565b8281835e5f83830152505050565b5f601f19601f8301169050919050565b5f61201782611fd5565b6120218185611fdf565b9350612031818560208601611fef565b61203a81611ffd565b840191505092915050565b5f6020820190508181035f83015261205d818461200d565b905092915050565b5f604051905090565b5f80fd5b5f80fd5b5f73ffffffffffffffffffffffffffffffffffffffff82169050919050565b5f61209f82612076565b9050919050565b6120af81612095565b81146120b9575f80fd5b50565b5f813590506120ca816120a6565b92915050565b5f819050919050565b6120e2816120d0565b81146120ec575f80fd5b50565b5f813590506120fd816120d9565b92915050565b5f80604083850312156121195761211861206e565b5b5f612126858286016120bc565b9250506020612137858286016120ef565b9150509250929050565b5f8115159050919050565b61215581612141565b82525050565b5f60208201905061216e5f83018461214c565b92915050565b61217d816120d0565b82525050565b5f6020820190506121965f830184612174565b92915050565b5f81519050919050565b5f82825260208201905092915050565b5f819050602082019050919050565b5f82825260208201905092915050565b5f6121df82611fd5565b6121e981856121c5565b93506121f9818560208601611fef565b61220281611ffd565b840191505092915050565b612216816120d0565b82525050565b5f604083015f8301518482035f86015261223682826121d5565b915050602083015161224b602086018261220d565b508091505092915050565b5f612261838361221c565b905092915050565b5f602082019050919050565b5f61227f8261219c565b61228981856121a6565b93508360208202850161229b856121b6565b805f5b858110156122d657848403895281516122b78582612256565b94506122c283612269565b925060208a0199505060018101905061229e565b50829750879550505050505092915050565b5f6020820190508181035f8301526123008184612275565b905092915050565b5f805f6060848603121561231f5761231e61206e565b5b5f61232c868287016120bc565b935050602061233d868287016120bc565b925050604061234e868287016120ef565b9150509250925092565b5f60ff82169050919050565b61236d81612358565b82525050565b5f6020820190506123865f830184612364565b92915050565b5f81519050919050565b5f82825260208201905092915050565b5f819050602082019050919050565b6123be81612095565b82525050565b5f6123cf83836123b5565b60208301905092915050565b5f602082019050919050565b5f6123f18261238c565b6123fb8185612396565b9350612406836123a6565b805f5b8381101561243657815161241d88826123c4565b9750612428836123db565b925050600181019050612409565b5085935050505092915050565b5f6020820190508181035f83015261245b81846123e7565b905092915050565b5f602082840312156124785761247761206e565b5b5f612485848285016120ef565b91505092915050565b5f80fd5b5f80fd5b7f4e487b71000000000000000000000000000000000000000000000000000000005f52604160045260245ffd5b6124cc82611ffd565b810181811067ffffffffffffffff821117156124eb576124ea612496565b5b80604052505050565b5f6124fd612065565b905061250982826124c3565b919050565b5f67ffffffffffffffff82111561252857612527612496565b5b61253182611ffd565b9050602081019050919050565b828183375f83830152505050565b5f61255e6125598461250e565b6124f4565b90508281526020810184848401111561257a57612579612492565b5b61258584828561253e565b509392505050565b5f82601f8301126125a1576125a061248e565b5b81356125b184826020860161254c565b91505092915050565b5f602082840312156125cf576125ce61206e565b5b5f82013567ffffffffffffffff8111156125ec576125eb612072565b5b6125f88482850161258d565b91505092915050565b61260a81612095565b82525050565b5f6040820190506126235f830185612601565b612630602083018461214c565b9392505050565b5f6020828403121561264c5761264b61206e565b5b5f612659848285016120bc565b91505092915050565b5f6020820190506126755f830184612601565b92915050565b5f6040820190508181035f830152612693818561200d565b90506126a26020830184612174565b9392505050565b5f80604083850312156126bf576126be61206e565b5b5f83013567ffffffffffffffff8111156126dc576126db612072565b5b6126e88582860161258d565b92505060206126f9858286016120bc565b9150509250929050565b5f80604083850312156127195761271861206e565b5b5f612726858286016120ef565b9250506020612737858286016120ef565b9150509250929050565b5f80604083850312156127575761275661206e565b5b5f612764858286016120bc565b9250506020612775858286016120bc565b9150509250929050565b5f81519050919050565b5f82825260208201905092915050565b5f819050602082019050919050565b5f6127b3838361220d565b60208301905092915050565b5f602082019050919050565b5f6127d58261277f565b6127df8185612789565b93506127ea83612799565b805f5b8381101561281a57815161280188826127a8565b975061280c836127bf565b9250506001810190506127ed565b5085935050505092915050565b5f6020820190508181035f83015261283f81846127cb565b905092915050565b5f81519050919050565b5f82825260208201905092915050565b5f819050602082019050919050565b5f61287b83836121d5565b905092915050565b5f602082019050919050565b5f61289982612847565b6128a38185612851565b9350836020820285016128b585612861565b805f5b858110156128f057848403895281516128d18582612870565b94506128dc83612883565b925060208a019950506001810190506128b8565b50829750879550505050505092915050565b5f6040820190508181035f83015261291a818561288f565b9050818103602083015261292e81846127cb565b90509392505050565b7f4e487b71000000000000000000000000000000000000000000000000000000005f52602260045260245ffd5b5f600282049050600182168061297b57607f821691505b60208210810361298e5761298d612937565b5b50919050565b7f4e6f206572657320656c2070726f706965746172696f2064652065737461206d5f8201527f6573610000000000000000000000000000000000000000000000000000000000602082015250565b5f6129ee602383611fdf565b91506129f982612994565b604082019050919050565b5f6020820190508181035f830152612a1b816129e2565b9050919050565b7f45737461206d65736120796120657374612061626965727461000000000000005f82015250565b5f612a56601983611fdf565b9150612a6182612a22565b602082019050919050565b5f6020820190508181035f830152612a8381612a4a565b9050919050565b5f819050815f5260205f209050919050565b5f6020601f8301049050919050565b5f82821b905092915050565b5f60088302612ae67fffffffffffffffffffffffffffffffffffffffffffffffffffffffffffffffff82612aab565b612af08683612aab565b95508019841693508086168417925050509392505050565b5f819050919050565b5f612b2b612b26612b21846120d0565b612b08565b6120d0565b9050919050565b5f819050919050565b612b4483612b11565b612b58612b5082612b32565b848454612ab7565b825550505050565b5f90565b612b6c612b60565b612b77818484612b3b565b505050565b5b81811015612b9a57612b8f5f82612b64565b600181019050612b7d565b5050565b601f821115612bdf57612bb081612a8a565b612bb984612a9c565b81016020851015612bc8578190505b612bdc612bd485612a9c565b830182612b7c565b50505b505050565b5f82821c905092915050565b5f612bff5f1984600802612be4565b1980831691505092915050565b5f612c178383612bf0565b9150826002028217905092915050565b612c3082611fd5565b67ffffffffffffffff811115612c4957612c48612496565b5b612c538254612964565b612c5e828285612b9e565b5f60209050601f831160018114612c8f575f8415612c7d578287015190505b612c878582612c0c565b865550612cee565b601f198416612c9d86612a8a565b5f5b82811015612cc457848901518255600182019150602085019450602081019050612c9f565b86831015612ce15784890151612cdd601f891682612bf0565b8355505b6001600288020188555050505b505050505050565b7f45737461206d65736120796120657374612063657272616461000000000000005f82015250565b5f612d2a601983611fdf565b9150612d3582612cf6565b602082019050919050565b5f6020820190508181035f830152612d5781612d1e565b9050919050565b7f4e487b71000000000000000000000000000000000000000000000000000000005f52601160045260245ffd5b5f612d95826120d0565b91507fffffffffffffffffffffffffffffffffffffffffffffffffffffffffffffffff8203612dc757612dc6612d5e565b5b600182019050919050565b5f612ddc826120d0565b9150612de7836120d0565b9250828203905081811115612dff57612dfe612d5e565b5b92915050565b7f4e6f207469656e657320737566696369656e74657320746f6b656e73207061725f8201527f6120766f74617200000000000000000000000000000000000000000000000000602082015250565b5f612e5f602783611fdf565b9150612e6a82612e05565b604082019050919050565b5f6020820190508181035f830152612e8c81612e53565b9050919050565b7f59612068617320766f7461646f20656e2065737461206d6573610000000000005f82015250565b5f612ec7601a83611fdf565b9150612ed282612e93565b602082019050919050565b5f6020820190508181035f830152612ef481612ebb565b9050919050565b7f43616e64696461746f206e6f20656e636f6e747261646f0000000000000000005f82015250565b5f612f2f601783611fdf565b9150612f3a82612efb565b602082019050919050565b5f6020820190508181035f830152612f5c81612f23565b9050919050565b7f45737461206d657361206e6f20657374612061626965727461207061726120765f8201527f6f746163696f6e00000000000000000000000000000000000000000000000000602082015250565b5f612fbd602783611fdf565b9150612fc882612f63565b604082019050919050565b5f6020820190508181035f830152612fea81612fb1565b9050919050565b7f4e487b71000000000000000000000000000000000000000000000000000000005f52603260045260245ffd5b7f4573746120646972656363696f6e207961207265636962696f20737520746f6b5f8201527f656e2079206e6f20736520707565646520646172206d61730000000000000000602082015250565b5f613078603883611fdf565b91506130838261301e565b604082019050919050565b5f6020820190508181035f8301526130a58161306c565b9050919050565b5f6130b6826120d0565b91506130c1836120d0565b92508282019050808211156130d9576130d8612d5e565b5b92915050565b5f6060820190506130f25f830186612601565b6130ff6020830185612174565b61310c6040830184612174565b94935050505056fea2646970667358221220b31c390efa2f9dd7baa8d53a61c339766ee5cf127e87d15d6764dee44b2f0c4664736f6c63430008190033",
			"opcodes": "PUSH1 0x80 PUSH1 0x40 MSTORE CALLVALUE DUP1 ISZERO PUSH2 0xF JUMPI PUSH0 DUP1 REVERT JUMPDEST POP CALLER PUSH1 0x40 MLOAD DUP1 PUSH1 0x40 ADD PUSH1 0x40 MSTORE DUP1 PUSH1 0x7 DUP2 MSTORE PUSH1 0x20 ADD PUSH32 0x4D79546F6B656E00000000000000000000000000000000000000000000000000 DUP2 MSTORE POP PUSH1 0x40 MLOAD DUP1 PUSH1 0x40 ADD PUSH1 0x40 MSTORE DUP1 PUSH1 0x3 DUP2 MSTORE PUSH1 0x20 ADD PUSH32 0x4D544B0000000000000000000000000000000000000000000000000000000000 DUP2 MSTORE POP DUP2 PUSH1 0x3 SWAP1 DUP2 PUSH2 0x8C SWAP2 SWAP1 PUSH2 0x6D1 JUMP JUMPDEST POP DUP1 PUSH1 0x4 SWAP1 DUP2 PUSH2 0x9C SWAP2 SWAP1 PUSH2 0x6D1 JUMP JUMPDEST POP POP POP PUSH0 PUSH20 0xFFFFFFFFFFFFFFFFFFFFFFFFFFFFFFFFFFFFFFFF AND DUP2 PUSH20 0xFFFFFFFFFFFFFFFFFFFFFFFFFFFFFFFFFFFFFFFF AND SUB PUSH2 0x10F JUMPI PUSH0 PUSH1 0x40 MLOAD PUSH32 0x1E4FBDF700000000000000000000000000000000000000000000000000000000 DUP2 MSTORE PUSH1 0x4 ADD PUSH2 0x106 SWAP2 SWAP1 PUSH2 0x7DF JUMP JUMPDEST PUSH1 0x40 MLOAD DUP1 SWAP2 SUB SWAP1 REVERT JUMPDEST PUSH2 0x11E DUP2 PUSH2 0x136 PUSH1 0x20 SHL PUSH1 0x20 SHR JUMP JUMPDEST POP PUSH2 0x131 ADDRESS PUSH2 0x3E8 PUSH2 0x1F9 PUSH1 0x20 SHL PUSH1 0x20 SHR JUMP JUMPDEST PUSH2 0x8B5 JUMP JUMPDEST PUSH0 PUSH1 0x5 PUSH0 SWAP1 SLOAD SWAP1 PUSH2 0x100 EXP SWAP1 DIV PUSH20 0xFFFFFFFFFFFFFFFFFFFFFFFFFFFFFFFFFFFFFFFF AND SWAP1 POP DUP2 PUSH1 0x5 PUSH0 PUSH2 0x100 EXP DUP2 SLOAD DUP2 PUSH20 0xFFFFFFFFFFFFFFFFFFFFFFFFFFFFFFFFFFFFFFFF MUL NOT AND SWAP1 DUP4 PUSH20 0xFFFFFFFFFFFFFFFFFFFFFFFFFFFFFFFFFFFFFFFF AND MUL OR SWAP1 SSTORE POP DUP2 PUSH20 0xFFFFFFFFFFFFFFFFFFFFFFFFFFFFFFFFFFFFFFFF AND DUP2 PUSH20 0xFFFFFFFFFFFFFFFFFFFFFFFFFFFFFFFFFFFFFFFF AND PUSH32 0x8BE0079C531659141344CD1FD0A4F28419497F9722A3DAAFE3B4186F6B6457E0 PUSH1 0x40 MLOAD PUSH1 0x40 MLOAD DUP1 SWAP2 SUB SWAP1 LOG3 POP POP JUMP JUMPDEST PUSH0 PUSH20 0xFFFFFFFFFFFFFFFFFFFFFFFFFFFFFFFFFFFFFFFF AND DUP3 PUSH20 0xFFFFFFFFFFFFFFFFFFFFFFFFFFFFFFFFFFFFFFFF AND SUB PUSH2 0x269 JUMPI PUSH0 PUSH1 0x40 MLOAD PUSH32 0xEC442F0500000000000000000000000000000000000000000000000000000000 DUP2 MSTORE PUSH1 0x4 ADD PUSH2 0x260 SWAP2 SWAP1 PUSH2 0x7DF JUMP JUMPDEST PUSH1 0x40 MLOAD DUP1 SWAP2 SUB SWAP1 REVERT JUMPDEST PUSH2 0x27A PUSH0 DUP4 DUP4 PUSH2 0x27E PUSH1 0x20 SHL PUSH1 0x20 SHR JUMP JUMPDEST POP POP JUMP JUMPDEST PUSH0 PUSH20 0xFFFFFFFFFFFFFFFFFFFFFFFFFFFFFFFFFFFFFFFF AND DUP4 PUSH20 0xFFFFFFFFFFFFFFFFFFFFFFFFFFFFFFFFFFFFFFFF AND SUB PUSH2 0x2CE JUMPI DUP1 PUSH1 0x2 PUSH0 DUP3 DUP3 SLOAD PUSH2 0x2C2 SWAP2 SWAP1 PUSH2 0x825 JUMP JUMPDEST SWAP3 POP POP DUP2 SWAP1 SSTORE POP PUSH2 0x39C JUMP JUMPDEST PUSH0 DUP1 PUSH0 DUP6 PUSH20 0xFFFFFFFFFFFFFFFFFFFFFFFFFFFFFFFFFFFFFFFF AND PUSH20 0xFFFFFFFFFFFFFFFFFFFFFFFFFFFFFFFFFFFFFFFF AND DUP2 MSTORE PUSH1 0x20 ADD SWAP1 DUP2 MSTORE PUSH1 0x20 ADD PUSH0 KECCAK256 SLOAD SWAP1 POP DUP2 DUP2 LT ISZERO PUSH2 0x357 JUMPI DUP4 DUP2 DUP4 PUSH1 0x40 MLOAD PUSH32 0xE450D38C00000000000000000000000000000000000000000000000000000000 DUP2 MSTORE PUSH1 0x4 ADD PUSH2 0x34E SWAP4 SWAP3 SWAP2 SWAP1 PUSH2 0x867 JUMP JUMPDEST PUSH1 0x40 MLOAD DUP1 SWAP2 SUB SWAP1 REVERT JUMPDEST DUP2 DUP2 SUB PUSH0 DUP1 DUP7 PUSH20 0xFFFFFFFFFFFFFFFFFFFFFFFFFFFFFFFFFFFFFFFF AND PUSH20 0xFFFFFFFFFFFFFFFFFFFFFFFFFFFFFFFFFFFFFFFF AND DUP2 MSTORE PUSH1 0x20 ADD SWAP1 DUP2 MSTORE PUSH1 0x20 ADD PUSH0 KECCAK256 DUP2 SWAP1 SSTORE POP POP JUMPDEST PUSH0 PUSH20 0xFFFFFFFFFFFFFFFFFFFFFFFFFFFFFFFFFFFFFFFF AND DUP3 PUSH20 0xFFFFFFFFFFFFFFFFFFFFFFFFFFFFFFFFFFFFFFFF AND SUB PUSH2 0x3E3 JUMPI DUP1 PUSH1 0x2 PUSH0 DUP3 DUP3 SLOAD SUB SWAP3 POP POP DUP2 SWAP1 SSTORE POP PUSH2 0x42D JUMP JUMPDEST DUP1 PUSH0 DUP1 DUP5 PUSH20 0xFFFFFFFFFFFFFFFFFFFFFFFFFFFFFFFFFFFFFFFF AND PUSH20 0xFFFFFFFFFFFFFFFFFFFFFFFFFFFFFFFFFFFFFFFF AND DUP2 MSTORE PUSH1 0x20 ADD SWAP1 DUP2 MSTORE PUSH1 0x20 ADD PUSH0 KECCAK256 PUSH0 DUP3 DUP3 SLOAD ADD SWAP3 POP POP DUP2 SWAP1 SSTORE POP JUMPDEST DUP2 PUSH20 0xFFFFFFFFFFFFFFFFFFFFFFFFFFFFFFFFFFFFFFFF AND DUP4 PUSH20 0xFFFFFFFFFFFFFFFFFFFFFFFFFFFFFFFFFFFFFFFF AND PUSH32 0xDDF252AD1BE2C89B69C2B068FC378DAA952BA7F163C4A11628F55A4DF523B3EF DUP4 PUSH1 0x40 MLOAD PUSH2 0x48A SWAP2 SWAP1 PUSH2 0x89C JUMP JUMPDEST PUSH1 0x40 MLOAD DUP1 SWAP2 SUB SWAP1 LOG3 POP POP POP JUMP JUMPDEST PUSH0 DUP2 MLOAD SWAP1 POP SWAP2 SWAP1 POP JUMP JUMPDEST PUSH32 0x4E487B7100000000000000000000000000000000000000000000000000000000 PUSH0 MSTORE PUSH1 0x41 PUSH1 0x4 MSTORE PUSH1 0x24 PUSH0 REVERT JUMPDEST PUSH32 0x4E487B7100000000000000000000000000000000000000000000000000000000 PUSH0 MSTORE PUSH1 0x22 PUSH1 0x4 MSTORE PUSH1 0x24 PUSH0 REVERT JUMPDEST PUSH0 PUSH1 0x2 DUP3 DIV SWAP1 POP PUSH1 0x1 DUP3 AND DUP1 PUSH2 0x512 JUMPI PUSH1 0x7F DUP3 AND SWAP2 POP JUMPDEST PUSH1 0x20 DUP3 LT DUP2 SUB PUSH2 0x525 JUMPI PUSH2 0x524 PUSH2 0x4CE JUMP JUMPDEST JUMPDEST POP SWAP2 SWAP1 POP JUMP JUMPDEST PUSH0 DUP2 SWAP1 POP DUP2 PUSH0 MSTORE PUSH1 0x20 PUSH0 KECCAK256 SWAP1 POP SWAP2 SWAP1 POP JUMP JUMPDEST PUSH0 PUSH1 0x20 PUSH1 0x1F DUP4 ADD DIV SWAP1 POP SWAP2 SWAP1 POP JUMP JUMPDEST PUSH0 DUP3 DUP3 SHL SWAP1 POP SWAP3 SWAP2 POP POP JUMP JUMPDEST PUSH0 PUSH1 0x8 DUP4 MUL PUSH2 0x587 PUSH32 0xFFFFFFFFFFFFFFFFFFFFFFFFFFFFFFFFFFFFFFFFFFFFFFFFFFFFFFFFFFFFFFFF DUP3 PUSH2 0x54C JUMP JUMPDEST PUSH2 0x591 DUP7 DUP4 PUSH2 0x54C JUMP JUMPDEST SWAP6 POP DUP1 NOT DUP5 AND SWAP4 POP DUP1 DUP7 AND DUP5 OR SWAP3 POP POP POP SWAP4 SWAP3 POP POP POP JUMP JUMPDEST PUSH0 DUP2 SWAP1 POP SWAP2 SWAP1 POP JUMP JUMPDEST PUSH0 DUP2 SWAP1 POP SWAP2 SWAP1 POP JUMP JUMPDEST PUSH0 PUSH2 0x5D5 PUSH2 0x5D0 PUSH2 0x5CB DUP5 PUSH2 0x5A9 JUMP JUMPDEST PUSH2 0x5B2 JUMP JUMPDEST PUSH2 0x5A9 JUMP JUMPDEST SWAP1 POP SWAP2 SWAP1 POP JUMP JUMPDEST PUSH0 DUP2 SWAP1 POP SWAP2 SWAP1 POP JUMP JUMPDEST PUSH2 0x5EE DUP4 PUSH2 0x5BB JUMP JUMPDEST PUSH2 0x602 PUSH2 0x5FA DUP3 PUSH2 0x5DC JUMP JUMPDEST DUP5 DUP5 SLOAD PUSH2 0x558 JUMP JUMPDEST DUP3 SSTORE POP POP POP POP JUMP JUMPDEST PUSH0 SWAP1 JUMP JUMPDEST PUSH2 0x616 PUSH2 0x60A JUMP JUMPDEST PUSH2 0x621 DUP2 DUP5 DUP5 PUSH2 0x5E5 JUMP JUMPDEST POP POP POP JUMP JUMPDEST JUMPDEST DUP2 DUP2 LT ISZERO PUSH2 0x644 JUMPI PUSH2 0x639 PUSH0 DUP3 PUSH2 0x60E JUMP JUMPDEST PUSH1 0x1 DUP2 ADD SWAP1 POP PUSH2 0x627 JUMP JUMPDEST POP POP JUMP JUMPDEST PUSH1 0x1F DUP3 GT ISZERO PUSH2 0x689 JUMPI PUSH2 0x65A DUP2 PUSH2 0x52B JUMP JUMPDEST PUSH2 0x663 DUP5 PUSH2 0x53D JUMP JUMPDEST DUP2 ADD PUSH1 0x20 DUP6 LT ISZERO PUSH2 0x672 JUMPI DUP2 SWAP1 POP JUMPDEST PUSH2 0x686 PUSH2 0x67E DUP6 PUSH2 0x53D JUMP JUMPDEST DUP4 ADD DUP3 PUSH2 0x626 JUMP JUMPDEST POP POP JUMPDEST POP POP POP JUMP JUMPDEST PUSH0 DUP3 DUP3 SHR SWAP1 POP SWAP3 SWAP2 POP POP JUMP JUMPDEST PUSH0 PUSH2 0x6A9 PUSH0 NOT DUP5 PUSH1 0x8 MUL PUSH2 0x68E JUMP JUMPDEST NOT DUP1 DUP4 AND SWAP2 POP POP SWAP3 SWAP2 POP POP JUMP JUMPDEST PUSH0 PUSH2 0x6C1 DUP4 DUP4 PUSH2 0x69A JUMP JUMPDEST SWAP2 POP DUP3 PUSH1 0x2 MUL DUP3 OR SWAP1 POP SWAP3 SWAP2 POP POP JUMP JUMPDEST PUSH2 0x6DA DUP3 PUSH2 0x497 JUMP JUMPDEST PUSH8 0xFFFFFFFFFFFFFFFF DUP2 GT ISZERO PUSH2 0x6F3 JUMPI PUSH2 0x6F2 PUSH2 0x4A1 JUMP JUMPDEST JUMPDEST PUSH2 0x6FD DUP3 SLOAD PUSH2 0x4FB JUMP JUMPDEST PUSH2 0x708 DUP3 DUP3 DUP6 PUSH2 0x648 JUMP JUMPDEST PUSH0 PUSH1 0x20 SWAP1 POP PUSH1 0x1F DUP4 GT PUSH1 0x1 DUP2 EQ PUSH2 0x739 JUMPI PUSH0 DUP5 ISZERO PUSH2 0x727 JUMPI DUP3 DUP8 ADD MLOAD SWAP1 POP JUMPDEST PUSH2 0x731 DUP6 DUP3 PUSH2 0x6B6 JUMP JUMPDEST DUP7 SSTORE POP PUSH2 0x798 JUMP JUMPDEST PUSH1 0x1F NOT DUP5 AND PUSH2 0x747 DUP7 PUSH2 0x52B JUMP JUMPDEST PUSH0 JUMPDEST DUP3 DUP2 LT ISZERO PUSH2 0x76E JUMPI DUP5 DUP10 ADD MLOAD DUP3 SSTORE PUSH1 0x1 DUP3 ADD SWAP2 POP PUSH1 0x20 DUP6 ADD SWAP5 POP PUSH1 0x20 DUP2 ADD SWAP1 POP PUSH2 0x749 JUMP JUMPDEST DUP7 DUP4 LT ISZERO PUSH2 0x78B JUMPI DUP5 DUP10 ADD MLOAD PUSH2 0x787 PUSH1 0x1F DUP10 AND DUP3 PUSH2 0x69A JUMP JUMPDEST DUP4 SSTORE POP JUMPDEST PUSH1 0x1 PUSH1 0x2 DUP9 MUL ADD DUP9 SSTORE POP POP POP JUMPDEST POP POP POP POP POP POP JUMP JUMPDEST PUSH0 PUSH20 0xFFFFFFFFFFFFFFFFFFFFFFFFFFFFFFFFFFFFFFFF DUP3 AND SWAP1 POP SWAP2 SWAP1 POP JUMP JUMPDEST PUSH0 PUSH2 0x7C9 DUP3 PUSH2 0x7A0 JUMP JUMPDEST SWAP1 POP SWAP2 SWAP1 POP JUMP JUMPDEST PUSH2 0x7D9 DUP2 PUSH2 0x7BF JUMP JUMPDEST DUP3 MSTORE POP POP JUMP JUMPDEST PUSH0 PUSH1 0x20 DUP3 ADD SWAP1 POP PUSH2 0x7F2 PUSH0 DUP4 ADD DUP5 PUSH2 0x7D0 JUMP JUMPDEST SWAP3 SWAP2 POP POP JUMP JUMPDEST PUSH32 0x4E487B7100000000000000000000000000000000000000000000000000000000 PUSH0 MSTORE PUSH1 0x11 PUSH1 0x4 MSTORE PUSH1 0x24 PUSH0 REVERT JUMPDEST PUSH0 PUSH2 0x82F DUP3 PUSH2 0x5A9 JUMP JUMPDEST SWAP2 POP PUSH2 0x83A DUP4 PUSH2 0x5A9 JUMP JUMPDEST SWAP3 POP DUP3 DUP3 ADD SWAP1 POP DUP1 DUP3 GT ISZERO PUSH2 0x852 JUMPI PUSH2 0x851 PUSH2 0x7F8 JUMP JUMPDEST JUMPDEST SWAP3 SWAP2 POP POP JUMP JUMPDEST PUSH2 0x861 DUP2 PUSH2 0x5A9 JUMP JUMPDEST DUP3 MSTORE POP POP JUMP JUMPDEST PUSH0 PUSH1 0x60 DUP3 ADD SWAP1 POP PUSH2 0x87A PUSH0 DUP4 ADD DUP7 PUSH2 0x7D0 JUMP JUMPDEST PUSH2 0x887 PUSH1 0x20 DUP4 ADD DUP6 PUSH2 0x858 JUMP JUMPDEST PUSH2 0x894 PUSH1 0x40 DUP4 ADD DUP5 PUSH2 0x858 JUMP JUMPDEST SWAP5 SWAP4 POP POP POP POP JUMP JUMPDEST PUSH0 PUSH1 0x20 DUP3 ADD SWAP1 POP PUSH2 0x8AF PUSH0 DUP4 ADD DUP5 PUSH2 0x858 JUMP JUMPDEST SWAP3 SWAP2 POP POP JUMP JUMPDEST PUSH2 0x314A DUP1 PUSH2 0x8C2 PUSH0 CODECOPY PUSH0 RETURN INVALID PUSH1 0x80 PUSH1 0x40 MSTORE PUSH1 0x4 CALLDATASIZE LT PUSH2 0x1B6 JUMPI PUSH0 CALLDATALOAD PUSH1 0xE0 SHR DUP1 PUSH4 0x8DA5CB5B GT PUSH2 0xEB JUMPI DUP1 PUSH4 0xB3F179BA GT PUSH2 0x89 JUMPI DUP1 PUSH4 0xDEEBEAC9 GT PUSH2 0x63 JUMPI DUP1 PUSH4 0xDEEBEAC9 EQ PUSH2 0x5D6 JUMPI DUP1 PUSH4 0xEBC34D24 EQ PUSH2 0x612 JUMPI DUP1 PUSH4 0xF2FDE38B EQ PUSH2 0x64E JUMPI DUP1 PUSH4 0xFAC07D2A EQ PUSH2 0x676 JUMPI PUSH2 0x1B6 JUMP JUMPDEST DUP1 PUSH4 0xB3F179BA EQ PUSH2 0x55A JUMPI DUP1 PUSH4 0xDD62ED3E EQ PUSH2 0x570 JUMPI DUP1 PUSH4 0xDD670ED7 EQ PUSH2 0x5AC JUMPI PUSH2 0x1B6 JUMP JUMPDEST DUP1 PUSH4 0xA0712D68 GT PUSH2 0xC5 JUMPI DUP1 PUSH4 0xA0712D68 EQ PUSH2 0x4B2 JUMPI DUP1 PUSH4 0xA0BDAFDA EQ PUSH2 0x4DA JUMPI DUP1 PUSH4 0xA9059CBB EQ PUSH2 0x502 JUMPI DUP1 PUSH4 0xB384ABEF EQ PUSH2 0x53E JUMPI PUSH2 0x1B6 JUMP JUMPDEST DUP1 PUSH4 0x8DA5CB5B EQ PUSH2 0x421 JUMPI DUP1 PUSH4 0x8F023F85 EQ PUSH2 0x44B JUMPI DUP1 PUSH4 0x95D89B41 EQ PUSH2 0x488 JUMPI PUSH2 0x1B6 JUMP JUMPDEST DUP1 PUSH4 0x32BF68D4 GT PUSH2 0x158 JUMPI DUP1 PUSH4 0x5B94EA10 GT PUSH2 0x132 JUMPI DUP1 PUSH4 0x5B94EA10 EQ PUSH2 0x36A JUMPI DUP1 PUSH4 0x70A08231 EQ PUSH2 0x3A7 JUMPI DUP1 PUSH4 0x715018A6 EQ PUSH2 0x3E3 JUMPI DUP1 PUSH4 0x8A9AC1D2 EQ PUSH2 0x3F9 JUMPI PUSH2 0x1B6 JUMP JUMPDEST DUP1 PUSH4 0x32BF68D4 EQ PUSH2 0x2F0 JUMPI DUP1 PUSH4 0x445BEF35 EQ PUSH2 0x31A JUMPI DUP1 PUSH4 0x503C560F EQ PUSH2 0x342 JUMPI PUSH2 0x1B6 JUMP JUMPDEST DUP1 PUSH4 0x198CC691 GT PUSH2 0x194 JUMPI DUP1 PUSH4 0x198CC691 EQ PUSH2 0x24A JUMPI DUP1 PUSH4 0x23B872DD EQ PUSH2 0x274 JUMPI DUP1 PUSH4 0x2580E9FB EQ PUSH2 0x2B0 JUMPI DUP1 PUSH4 0x313CE567 EQ PUSH2 0x2C6 JUMPI PUSH2 0x1B6 JUMP JUMPDEST DUP1 PUSH4 0x6FDDE03 EQ PUSH2 0x1BA JUMPI DUP1 PUSH4 0x95EA7B3 EQ PUSH2 0x1E4 JUMPI DUP1 PUSH4 0x18160DDD EQ PUSH2 0x220 JUMPI JUMPDEST PUSH0 DUP1 REVERT JUMPDEST CALLVALUE DUP1 ISZERO PUSH2 0x1C5 JUMPI PUSH0 DUP1 REVERT JUMPDEST POP PUSH2 0x1CE PUSH2 0x6A1 JUMP JUMPDEST PUSH1 0x40 MLOAD PUSH2 0x1DB SWAP2 SWAP1 PUSH2 0x2045 JUMP JUMPDEST PUSH1 0x40 MLOAD DUP1 SWAP2 SUB SWAP1 RETURN JUMPDEST CALLVALUE DUP1 ISZERO PUSH2 0x1EF JUMPI PUSH0 DUP1 REVERT JUMPDEST POP PUSH2 0x20A PUSH1 0x4 DUP1 CALLDATASIZE SUB DUP2 ADD SWAP1 PUSH2 0x205 SWAP2 SWAP1 PUSH2 0x2103 JUMP JUMPDEST PUSH2 0x731 JUMP JUMPDEST PUSH1 0x40 MLOAD PUSH2 0x217 SWAP2 SWAP1 PUSH2 0x215B JUMP JUMPDEST PUSH1 0x40 MLOAD DUP1 SWAP2 SUB SWAP1 RETURN JUMPDEST CALLVALUE DUP1 ISZERO PUSH2 0x22B JUMPI PUSH0 DUP1 REVERT JUMPDEST POP PUSH2 0x234 PUSH2 0x753 JUMP JUMPDEST PUSH1 0x40 MLOAD PUSH2 0x241 SWAP2 SWAP1 PUSH2 0x2183 JUMP JUMPDEST PUSH1 0x40 MLOAD DUP1 SWAP2 SUB SWAP1 RETURN JUMPDEST CALLVALUE DUP1 ISZERO PUSH2 0x255 JUMPI PUSH0 DUP1 REVERT JUMPDEST POP PUSH2 0x25E PUSH2 0x75C JUMP JUMPDEST PUSH1 0x40 MLOAD PUSH2 0x26B SWAP2 SWAP1 PUSH2 0x22E8 JUMP JUMPDEST PUSH1 0x40 MLOAD DUP1 SWAP2 SUB SWAP1 RETURN JUMPDEST CALLVALUE DUP1 ISZERO PUSH2 0x27F JUMPI PUSH0 DUP1 REVERT JUMPDEST POP PUSH2 0x29A PUSH1 0x4 DUP1 CALLDATASIZE SUB DUP2 ADD SWAP1 PUSH2 0x295 SWAP2 SWAP1 PUSH2 0x2308 JUMP JUMPDEST PUSH2 0x851 JUMP JUMPDEST PUSH1 0x40 MLOAD PUSH2 0x2A7 SWAP2 SWAP1 PUSH2 0x215B JUMP JUMPDEST PUSH1 0x40 MLOAD DUP1 SWAP2 SUB SWAP1 RETURN JUMPDEST CALLVALUE DUP1 ISZERO PUSH2 0x2BB JUMPI PUSH0 DUP1 REVERT JUMPDEST POP PUSH2 0x2C4 PUSH2 0x87F JUMP JUMPDEST STOP JUMPDEST CALLVALUE DUP1 ISZERO PUSH2 0x2D1 JUMPI PUSH0 DUP1 REVERT JUMPDEST POP PUSH2 0x2DA PUSH2 0x8F5 JUMP JUMPDEST PUSH1 0x40 MLOAD PUSH2 0x2E7 SWAP2 SWAP1 PUSH2 0x2373 JUMP JUMPDEST PUSH1 0x40 MLOAD DUP1 SWAP2 SUB SWAP1 RETURN JUMPDEST CALLVALUE DUP1 ISZERO PUSH2 0x2FB JUMPI PUSH0 DUP1 REVERT JUMPDEST POP PUSH2 0x304 PUSH2 0x8FD JUMP JUMPDEST PUSH1 0x40 MLOAD PUSH2 0x311 SWAP2 SWAP1 PUSH2 0x2443 JUMP JUMPDEST PUSH1 0x40 MLOAD DUP1 SWAP2 SUB SWAP1 RETURN JUMPDEST CALLVALUE DUP1 ISZERO PUSH2 0x325 JUMPI PUSH0 DUP1 REVERT JUMPDEST POP PUSH2 0x340 PUSH1 0x4 DUP1 CALLDATASIZE SUB DUP2 ADD SWAP1 PUSH2 0x33B SWAP2 SWAP1 PUSH2 0x2463 JUMP JUMPDEST PUSH2 0x988 JUMP JUMPDEST STOP JUMPDEST CALLVALUE DUP1 ISZERO PUSH2 0x34D JUMPI PUSH0 DUP1 REVERT JUMPDEST POP PUSH2 0x368 PUSH1 0x4 DUP1 CALLDATASIZE SUB DUP2 ADD SWAP1 PUSH2 0x363 SWAP2 SWAP1 PUSH2 0x25BA JUMP JUMPDEST PUSH2 0xAB8 JUMP JUMPDEST STOP JUMPDEST CALLVALUE DUP1 ISZERO PUSH2 0x375 JUMPI PUSH0 DUP1 REVERT JUMPDEST POP PUSH2 0x390 PUSH1 0x4 DUP1 CALLDATASIZE SUB DUP2 ADD SWAP1 PUSH2 0x38B SWAP2 SWAP1 PUSH2 0x2463 JUMP JUMPDEST PUSH2 0xB57 JUMP JUMPDEST PUSH1 0x40 MLOAD PUSH2 0x39E SWAP3 SWAP2 SWAP1 PUSH2 0x2610 JUMP JUMPDEST PUSH1 0x40 MLOAD DUP1 SWAP2 SUB SWAP1 RETURN JUMPDEST CALLVALUE DUP1 ISZERO PUSH2 0x3B2 JUMPI PUSH0 DUP1 REVERT JUMPDEST POP PUSH2 0x3CD PUSH1 0x4 DUP1 CALLDATASIZE SUB DUP2 ADD SWAP1 PUSH2 0x3C8 SWAP2 SWAP1 PUSH2 0x2637 JUMP JUMPDEST PUSH2 0xBA2 JUMP JUMPDEST PUSH1 0x40 MLOAD PUSH2 0x3DA SWAP2 SWAP1 PUSH2 0x2183 JUMP JUMPDEST PUSH1 0x40 MLOAD DUP1 SWAP2 SUB SWAP1 RETURN JUMPDEST CALLVALUE DUP1 ISZERO PUSH2 0x3EE JUMPI PUSH0 DUP1 REVERT JUMPDEST POP PUSH2 0x3F7 PUSH2 0xBE7 JUMP JUMPDEST STOP JUMPDEST CALLVALUE DUP1 ISZERO PUSH2 0x404 JUMPI PUSH0 DUP1 REVERT JUMPDEST POP PUSH2 0x41F PUSH1 0x4 DUP1 CALLDATASIZE SUB DUP2 ADD SWAP1 PUSH2 0x41A SWAP2 SWAP1 PUSH2 0x2463 JUMP JUMPDEST PUSH2 0xBFA JUMP JUMPDEST STOP JUMPDEST CALLVALUE DUP1 ISZERO PUSH2 0x42C JUMPI PUSH0 DUP1 REVERT JUMPDEST POP PUSH2 0x435 PUSH2 0xD28 JUMP JUMPDEST PUSH1 0x40 MLOAD PUSH2 0x442 SWAP2 SWAP1 PUSH2 0x2662 JUMP JUMPDEST PUSH1 0x40 MLOAD DUP1 SWAP2 SUB SWAP1 RETURN JUMPDEST CALLVALUE DUP1 ISZERO PUSH2 0x456 JUMPI PUSH0 DUP1 REVERT JUMPDEST POP PUSH2 0x471 PUSH1 0x4 DUP1 CALLDATASIZE SUB DUP2 ADD SWAP1 PUSH2 0x46C SWAP2 SWAP1 PUSH2 0x2463 JUMP JUMPDEST PUSH2 0xD50 JUMP JUMPDEST PUSH1 0x40 MLOAD PUSH2 0x47F SWAP3 SWAP2 SWAP1 PUSH2 0x267B JUMP JUMPDEST PUSH1 0x40 MLOAD DUP1 SWAP2 SUB SWAP1 RETURN JUMPDEST CALLVALUE DUP1 ISZERO PUSH2 0x493 JUMPI PUSH0 DUP1 REVERT JUMPDEST POP PUSH2 0x49C PUSH2 0xE05 JUMP JUMPDEST PUSH1 0x40 MLOAD PUSH2 0x4A9 SWAP2 SWAP1 PUSH2 0x2045 JUMP JUMPDEST PUSH1 0x40 MLOAD DUP1 SWAP2 SUB SWAP1 RETURN JUMPDEST CALLVALUE DUP1 ISZERO PUSH2 0x4BD JUMPI PUSH0 DUP1 REVERT JUMPDEST POP PUSH2 0x4D8 PUSH1 0x4 DUP1 CALLDATASIZE SUB DUP2 ADD SWAP1 PUSH2 0x4D3 SWAP2 SWAP1 PUSH2 0x2463 JUMP JUMPDEST PUSH2 0xE95 JUMP JUMPDEST STOP JUMPDEST CALLVALUE DUP1 ISZERO PUSH2 0x4E5 JUMPI PUSH0 DUP1 REVERT JUMPDEST POP PUSH2 0x500 PUSH1 0x4 DUP1 CALLDATASIZE SUB DUP2 ADD SWAP1 PUSH2 0x4FB SWAP2 SWAP1 PUSH2 0x26A9 JUMP JUMPDEST PUSH2 0xEAA JUMP JUMPDEST STOP JUMPDEST CALLVALUE DUP1 ISZERO PUSH2 0x50D JUMPI PUSH0 DUP1 REVERT JUMPDEST POP PUSH2 0x528 PUSH1 0x4 DUP1 CALLDATASIZE SUB DUP2 ADD SWAP1 PUSH2 0x523 SWAP2 SWAP1 PUSH2 0x2103 JUMP JUMPDEST PUSH2 0xFEC JUMP JUMPDEST PUSH1 0x40 MLOAD PUSH2 0x535 SWAP2 SWAP1 PUSH2 0x215B JUMP JUMPDEST PUSH1 0x40 MLOAD DUP1 SWAP2 SUB SWAP1 RETURN JUMPDEST PUSH2 0x558 PUSH1 0x4 DUP1 CALLDATASIZE SUB DUP2 ADD SWAP1 PUSH2 0x553 SWAP2 SWAP1 PUSH2 0x2703 JUMP JUMPDEST PUSH2 0x100E JUMP JUMPDEST STOP JUMPDEST CALLVALUE DUP1 ISZERO PUSH2 0x565 JUMPI PUSH0 DUP1 REVERT JUMPDEST POP PUSH2 0x56E PUSH2 0x1256 JUMP JUMPDEST STOP JUMPDEST CALLVALUE DUP1 ISZERO PUSH2 0x57B JUMPI PUSH0 DUP1 REVERT JUMPDEST POP PUSH2 0x596 PUSH1 0x4 DUP1 CALLDATASIZE SUB DUP2 ADD SWAP1 PUSH2 0x591 SWAP2 SWAP1 PUSH2 0x2741 JUMP JUMPDEST PUSH2 0x12CC JUMP JUMPDEST PUSH1 0x40 MLOAD PUSH2 0x5A3 SWAP2 SWAP1 PUSH2 0x2183 JUMP JUMPDEST PUSH1 0x40 MLOAD DUP1 SWAP2 SUB SWAP1 RETURN JUMPDEST CALLVALUE DUP1 ISZERO PUSH2 0x5B7 JUMPI PUSH0 DUP1 REVERT JUMPDEST POP PUSH2 0x5C0 PUSH2 0x134E JUMP JUMPDEST PUSH1 0x40 MLOAD PUSH2 0x5CD SWAP2 SWAP1 PUSH2 0x2183 JUMP JUMPDEST PUSH1 0x40 MLOAD DUP1 SWAP2 SUB SWAP1 RETURN JUMPDEST CALLVALUE DUP1 ISZERO PUSH2 0x5E1 JUMPI PUSH0 DUP1 REVERT JUMPDEST POP PUSH2 0x5FC PUSH1 0x4 DUP1 CALLDATASIZE SUB DUP2 ADD SWAP1 PUSH2 0x5F7 SWAP2 SWAP1 PUSH2 0x2637 JUMP JUMPDEST PUSH2 0x1354 JUMP JUMPDEST PUSH1 0x40 MLOAD PUSH2 0x609 SWAP2 SWAP1 PUSH2 0x215B JUMP JUMPDEST PUSH1 0x40 MLOAD DUP1 SWAP2 SUB SWAP1 RETURN JUMPDEST CALLVALUE DUP1 ISZERO PUSH2 0x61D JUMPI PUSH0 DUP1 REVERT JUMPDEST POP PUSH2 0x638 PUSH1 0x4 DUP1 CALLDATASIZE SUB DUP2 ADD SWAP1 PUSH2 0x633 SWAP2 SWAP1 PUSH2 0x2463 JUMP JUMPDEST PUSH2 0x1498 JUMP JUMPDEST PUSH1 0x40 MLOAD PUSH2 0x645 SWAP2 SWAP1 PUSH2 0x2827 JUMP JUMPDEST PUSH1 0x40 MLOAD DUP1 SWAP2 SUB SWAP1 RETURN JUMPDEST CALLVALUE DUP1 ISZERO PUSH2 0x659 JUMPI PUSH0 DUP1 REVERT JUMPDEST POP PUSH2 0x674 PUSH1 0x4 DUP1 CALLDATASIZE SUB DUP2 ADD SWAP1 PUSH2 0x66F SWAP2 SWAP1 PUSH2 0x2637 JUMP JUMPDEST PUSH2 0x1502 JUMP JUMPDEST STOP JUMPDEST CALLVALUE DUP1 ISZERO PUSH2 0x681 JUMPI PUSH0 DUP1 REVERT JUMPDEST POP PUSH2 0x68A PUSH2 0x1586 JUMP JUMPDEST PUSH1 0x40 MLOAD PUSH2 0x698 SWAP3 SWAP2 SWAP1 PUSH2 0x2902 JUMP JUMPDEST PUSH1 0x40 MLOAD DUP1 SWAP2 SUB SWAP1 RETURN JUMPDEST PUSH1 0x60 PUSH1 0x3 DUP1 SLOAD PUSH2 0x6B0 SWAP1 PUSH2 0x2964 JUMP JUMPDEST DUP1 PUSH1 0x1F ADD PUSH1 0x20 DUP1 SWAP2 DIV MUL PUSH1 0x20 ADD PUSH1 0x40 MLOAD SWAP1 DUP2 ADD PUSH1 0x40 MSTORE DUP1 SWAP3 SWAP2 SWAP1 DUP2 DUP2 MSTORE PUSH1 0x20 ADD DUP3 DUP1 SLOAD PUSH2 0x6DC SWAP1 PUSH2 0x2964 JUMP JUMPDEST DUP1 ISZERO PUSH2 0x727 JUMPI DUP1 PUSH1 0x1F LT PUSH2 0x6FE JUMPI PUSH2 0x100 DUP1 DUP4 SLOAD DIV MUL DUP4 MSTORE SWAP2 PUSH1 0x20 ADD SWAP2 PUSH2 0x727 JUMP JUMPDEST DUP3 ADD SWAP2 SWAP1 PUSH0 MSTORE PUSH1 0x20 PUSH0 KECCAK256 SWAP1 JUMPDEST DUP2 SLOAD DUP2 MSTORE SWAP1 PUSH1 0x1 ADD SWAP1 PUSH1 0x20 ADD DUP1 DUP4 GT PUSH2 0x70A JUMPI DUP3 SWAP1 SUB PUSH1 0x1F AND DUP3 ADD SWAP2 JUMPDEST POP POP POP POP POP SWAP1 POP SWAP1 JUMP JUMPDEST PUSH0 DUP1 PUSH2 0x73B PUSH2 0x17A4 JUMP JUMPDEST SWAP1 POP PUSH2 0x748 DUP2 DUP6 DUP6 PUSH2 0x17AB JUMP JUMPDEST PUSH1 0x1 SWAP2 POP POP SWAP3 SWAP2 POP POP JUMP JUMPDEST PUSH0 PUSH1 0x2 SLOAD SWAP1 POP SWAP1 JUMP JUMPDEST PUSH1 0x60 PUSH1 0x6 DUP1 SLOAD DUP1 PUSH1 0x20 MUL PUSH1 0x20 ADD PUSH1 0x40 MLOAD SWAP1 DUP2 ADD PUSH1 0x40 MSTORE DUP1 SWAP3 SWAP2 SWAP1 DUP2 DUP2 MSTORE PUSH1 0x20 ADD PUSH0 SWAP1 JUMPDEST DUP3 DUP3 LT ISZERO PUSH2 0x848 JUMPI DUP4 DUP3 SWAP1 PUSH0 MSTORE PUSH1 0x20 PUSH0 KECCAK256 SWAP1 PUSH1 0x2 MUL ADD PUSH1 0x40 MLOAD DUP1 PUSH1 0x40 ADD PUSH1 0x40 MSTORE SWAP1 DUP2 PUSH0 DUP3 ADD DUP1 SLOAD PUSH2 0x7AF SWAP1 PUSH2 0x2964 JUMP JUMPDEST DUP1 PUSH1 0x1F ADD PUSH1 0x20 DUP1 SWAP2 DIV MUL PUSH1 0x20 ADD PUSH1 0x40 MLOAD SWAP1 DUP2 ADD PUSH1 0x40 MSTORE DUP1 SWAP3 SWAP2 SWAP1 DUP2 DUP2 MSTORE PUSH1 0x20 ADD DUP3 DUP1 SLOAD PUSH2 0x7DB SWAP1 PUSH2 0x2964 JUMP JUMPDEST DUP1 ISZERO PUSH2 0x826 JUMPI DUP1 PUSH1 0x1F LT PUSH2 0x7FD JUMPI PUSH2 0x100 DUP1 DUP4 SLOAD DIV MUL DUP4 MSTORE SWAP2 PUSH1 0x20 ADD SWAP2 PUSH2 0x826 JUMP JUMPDEST DUP3 ADD SWAP2 SWAP1 PUSH0 MSTORE PUSH1 0x20 PUSH0 KECCAK256 SWAP1 JUMPDEST DUP2 SLOAD DUP2 MSTORE SWAP1 PUSH1 0x1 ADD SWAP1 PUSH1 0x20 ADD DUP1 DUP4 GT PUSH2 0x809 JUMPI DUP3 SWAP1 SUB PUSH1 0x1F AND DUP3 ADD SWAP2 JUMPDEST POP POP POP POP POP DUP2 MSTORE PUSH1 0x20 ADD PUSH1 0x1 DUP3 ADD SLOAD DUP2 MSTORE POP POP DUP2 MSTORE PUSH1 0x20 ADD SWAP1 PUSH1 0x1 ADD SWAP1 PUSH2 0x77F JUMP JUMPDEST POP POP POP POP SWAP1 POP SWAP1 JUMP JUMPDEST PUSH0 DUP1 PUSH2 0x85B PUSH2 0x17A4 JUMP JUMPDEST SWAP1 POP PUSH2 0x868 DUP6 DUP3 DUP6 PUSH2 0x17BD JUMP JUMPDEST PUSH2 0x873 DUP6 DUP6 DUP6 PUSH2 0x184F JUMP JUMPDEST PUSH1 0x1 SWAP2 POP POP SWAP4 SWAP3 POP POP POP JUMP JUMPDEST PUSH2 0x887 PUSH2 0x193F JUMP JUMPDEST PUSH0 JUMPDEST PUSH1 0xA SLOAD DUP2 LT ISZERO PUSH2 0x8F2 JUMPI PUSH1 0x8 PUSH0 DUP3 DUP2 MSTORE PUSH1 0x20 ADD SWAP1 DUP2 MSTORE PUSH1 0x20 ADD PUSH0 KECCAK256 PUSH1 0x3 ADD PUSH0 SWAP1 SLOAD SWAP1 PUSH2 0x100 EXP SWAP1 DIV PUSH1 0xFF AND ISZERO PUSH2 0x8E5 JUMPI PUSH0 PUSH1 0x8 PUSH0 DUP4 DUP2 MSTORE PUSH1 0x20 ADD SWAP1 DUP2 MSTORE PUSH1 0x20 ADD PUSH0 KECCAK256 PUSH1 0x3 ADD PUSH0 PUSH2 0x100 EXP DUP2 SLOAD DUP2 PUSH1 0xFF MUL NOT AND SWAP1 DUP4 ISZERO ISZERO MUL OR SWAP1 SSTORE POP JUMPDEST DUP1 DUP1 PUSH1 0x1 ADD SWAP2 POP POP PUSH2 0x889 JUMP JUMPDEST POP JUMP JUMPDEST PUSH0 PUSH1 0x12 SWAP1 POP SWAP1 JUMP JUMPDEST PUSH1 0x60 PUSH1 0x9 DUP1 SLOAD DUP1 PUSH1 0x20 MUL PUSH1 0x20 ADD PUSH1 0x40 MLOAD SWAP1 DUP2 ADD PUSH1 0x40 MSTORE DUP1 SWAP3 SWAP2 SWAP1 DUP2 DUP2 MSTORE PUSH1 0x20 ADD DUP3 DUP1 SLOAD DUP1 ISZERO PUSH2 0x97E JUMPI PUSH1 0x20 MUL DUP3 ADD SWAP2 SWAP1 PUSH0 MSTORE PUSH1 0x20 PUSH0 KECCAK256 SWAP1 JUMPDEST DUP2 PUSH0 SWAP1 SLOAD SWAP1 PUSH2 0x100 EXP SWAP1 DIV PUSH20 0xFFFFFFFFFFFFFFFFFFFFFFFFFFFFFFFFFFFFFFFF AND PUSH20 0xFFFFFFFFFFFFFFFFFFFFFFFFFFFFFFFFFFFFFFFF AND DUP2 MSTORE PUSH1 0x20 ADD SWAP1 PUSH1 0x1 ADD SWAP1 DUP1 DUP4 GT PUSH2 0x935 JUMPI JUMPDEST POP POP POP POP POP SWAP1 POP SWAP1 JUMP JUMPDEST PUSH1 0x8 PUSH0 DUP3 DUP2 MSTORE PUSH1 0x20 ADD SWAP1 DUP2 MSTORE PUSH1 0x20 ADD PUSH0 KECCAK256 PUSH0 ADD PUSH0 SWAP1 SLOAD SWAP1 PUSH2 0x100 EXP SWAP1 DIV PUSH20 0xFFFFFFFFFFFFFFFFFFFFFFFFFFFFFFFFFFFFFFFF AND PUSH20 0xFFFFFFFFFFFFFFFFFFFFFFFFFFFFFFFFFFFFFFFF AND CALLER PUSH20 0xFFFFFFFFFFFFFFFFFFFFFFFFFFFFFFFFFFFFFFFF AND EQ PUSH2 0xA28 JUMPI PUSH1 0x40 MLOAD PUSH32 0x8C379A000000000000000000000000000000000000000000000000000000000 DUP2 MSTORE PUSH1 0x4 ADD PUSH2 0xA1F SWAP1 PUSH2 0x2A04 JUMP JUMPDEST PUSH1 0x40 MLOAD DUP1 SWAP2 SUB SWAP1 REVERT JUMPDEST PUSH1 0x8 PUSH0 DUP3 DUP2 MSTORE PUSH1 0x20 ADD SWAP1 DUP2 MSTORE PUSH1 0x20 ADD PUSH0 KECCAK256 PUSH1 0x3 ADD PUSH0 SWAP1 SLOAD SWAP1 PUSH2 0x100 EXP SWAP1 DIV PUSH1 0xFF AND ISZERO PUSH2 0xA89 JUMPI PUSH1 0x40 MLOAD PUSH32 0x8C379A000000000000000000000000000000000000000000000000000000000 DUP2 MSTORE PUSH1 0x4 ADD PUSH2 0xA80 SWAP1 PUSH2 0x2A6C JUMP JUMPDEST PUSH1 0x40 MLOAD DUP1 SWAP2 SUB SWAP1 REVERT JUMPDEST PUSH1 0x1 PUSH1 0x8 PUSH0 DUP4 DUP2 MSTORE PUSH1 0x20 ADD SWAP1 DUP2 MSTORE PUSH1 0x20 ADD PUSH0 KECCAK256 PUSH1 0x3 ADD PUSH0 PUSH2 0x100 EXP DUP2 SLOAD DUP2 PUSH1 0xFF MUL NOT AND SWAP1 DUP4 ISZERO ISZERO MUL OR SWAP1 SSTORE POP POP JUMP JUMPDEST PUSH2 0xAC0 PUSH2 0x193F JUMP JUMPDEST PUSH1 0x6 PUSH1 0x40 MLOAD DUP1 PUSH1 0x40 ADD PUSH1 0x40 MSTORE DUP1 DUP4 DUP2 MSTORE PUSH1 0x20 ADD PUSH0 DUP2 MSTORE POP SWAP1 DUP1 PUSH1 0x1 DUP2 SLOAD ADD DUP1 DUP3 SSTORE DUP1 SWAP2 POP POP PUSH1 0x1 SWAP1 SUB SWAP1 PUSH0 MSTORE PUSH1 0x20 PUSH0 KECCAK256 SWAP1 PUSH1 0x2 MUL ADD PUSH0 SWAP1 SWAP2 SWAP1 SWAP2 SWAP1 SWAP2 POP PUSH0 DUP3 ADD MLOAD DUP2 PUSH0 ADD SWAP1 DUP2 PUSH2 0xB10 SWAP2 SWAP1 PUSH2 0x2C27 JUMP JUMPDEST POP PUSH1 0x20 DUP3 ADD MLOAD DUP2 PUSH1 0x1 ADD SSTORE POP POP PUSH32 0x566C2D39711B082CC685ADE507DEE6291F47044333D9ABA4037034CDC3CFAC9E DUP2 PUSH1 0x40 MLOAD PUSH2 0xB4C SWAP2 SWAP1 PUSH2 0x2045 JUMP JUMPDEST PUSH1 0x40 MLOAD DUP1 SWAP2 SUB SWAP1 LOG1 POP JUMP JUMPDEST PUSH1 0x8 PUSH1 0x20 MSTORE DUP1 PUSH0 MSTORE PUSH1 0x40 PUSH0 KECCAK256 PUSH0 SWAP2 POP SWAP1 POP DUP1 PUSH0 ADD PUSH0 SWAP1 SLOAD SWAP1 PUSH2 0x100 EXP SWAP1 DIV PUSH20 0xFFFFFFFFFFFFFFFFFFFFFFFFFFFFFFFFFFFFFFFF AND SWAP1 DUP1 PUSH1 0x3 ADD PUSH0 SWAP1 SLOAD SWAP1 PUSH2 0x100 EXP SWAP1 DIV PUSH1 0xFF AND SWAP1 POP DUP3 JUMP JUMPDEST PUSH0 DUP1 PUSH0 DUP4 PUSH20 0xFFFFFFFFFFFFFFFFFFFFFFFFFFFFFFFFFFFFFFFF AND PUSH20 0xFFFFFFFFFFFFFFFFFFFFFFFFFFFFFFFFFFFFFFFF AND DUP2 MSTORE PUSH1 0x20 ADD SWAP1 DUP2 MSTORE PUSH1 0x20 ADD PUSH0 KECCAK256 SLOAD SWAP1 POP SWAP2 SWAP1 POP JUMP JUMPDEST PUSH2 0xBEF PUSH2 0x193F JUMP JUMPDEST PUSH2 0xBF8 PUSH0 PUSH2 0x19C6 JUMP JUMPDEST JUMP JUMPDEST PUSH1 0x8 PUSH0 DUP3 DUP2 MSTORE PUSH1 0x20 ADD SWAP1 DUP2 MSTORE PUSH1 0x20 ADD PUSH0 KECCAK256 PUSH0 ADD PUSH0 SWAP1 SLOAD SWAP1 PUSH2 0x100 EXP SWAP1 DIV PUSH20 0xFFFFFFFFFFFFFFFFFFFFFFFFFFFFFFFFFFFFFFFF AND PUSH20 0xFFFFFFFFFFFFFFFFFFFFFFFFFFFFFFFFFFFFFFFF AND CALLER PUSH20 0xFFFFFFFFFFFFFFFFFFFFFFFFFFFFFFFFFFFFFFFF AND EQ PUSH2 0xC9A JUMPI PUSH1 0x40 MLOAD PUSH32 0x8C379A000000000000000000000000000000000000000000000000000000000 DUP2 MSTORE PUSH1 0x4 ADD PUSH2 0xC91 SWAP1 PUSH2 0x2A04 JUMP JUMPDEST PUSH1 0x40 MLOAD DUP1 SWAP2 SUB SWAP1 REVERT JUMPDEST PUSH1 0x8 PUSH0 DUP3 DUP2 MSTORE PUSH1 0x20 ADD SWAP1 DUP2 MSTORE PUSH1 0x20 ADD PUSH0 KECCAK256 PUSH1 0x3 ADD PUSH0 SWAP1 SLOAD SWAP1 PUSH2 0x100 EXP SWAP1 DIV PUSH1 0xFF AND PUSH2 0xCFA JUMPI PUSH1 0x40 MLOAD PUSH32 0x8C379A000000000000000000000000000000000000000000000000000000000 DUP2 MSTORE PUSH1 0x4 ADD PUSH2 0xCF1 SWAP1 PUSH2 0x2D40 JUMP JUMPDEST PUSH1 0x40 MLOAD DUP1 SWAP2 SUB SWAP1 REVERT JUMPDEST PUSH0 PUSH1 0x8 PUSH0 DUP4 DUP2 MSTORE PUSH1 0x20 ADD SWAP1 DUP2 MSTORE PUSH1 0x20 ADD PUSH0 KECCAK256 PUSH1 0x3 ADD PUSH0 PUSH2 0x100 EXP DUP2 SLOAD DUP2 PUSH1 0xFF MUL NOT AND SWAP1 DUP4 ISZERO ISZERO MUL OR SWAP1 SSTORE POP POP JUMP JUMPDEST PUSH0 PUSH1 0x5 PUSH0 SWAP1 SLOAD SWAP1 PUSH2 0x100 EXP SWAP1 DIV PUSH20 0xFFFFFFFFFFFFFFFFFFFFFFFFFFFFFFFFFFFFFFFF AND SWAP1 POP SWAP1 JUMP JUMPDEST PUSH1 0x6 DUP2 DUP2 SLOAD DUP2 LT PUSH2 0xD5F JUMPI PUSH0 DUP1 REVERT JUMPDEST SWAP1 PUSH0 MSTORE PUSH1 0x20 PUSH0 KECCAK256 SWAP1 PUSH1 0x2 MUL ADD PUSH0 SWAP2 POP SWAP1 POP DUP1 PUSH0 ADD DUP1 SLOAD PUSH2 0xD7E SWAP1 PUSH2 0x2964 JUMP JUMPDEST DUP1 PUSH1 0x1F ADD PUSH1 0x20 DUP1 SWAP2 DIV MUL PUSH1 0x20 ADD PUSH1 0x40 MLOAD SWAP1 DUP2 ADD PUSH1 0x40 MSTORE DUP1 SWAP3 SWAP2 SWAP1 DUP2 DUP2 MSTORE PUSH1 0x20 ADD DUP3 DUP1 SLOAD PUSH2 0xDAA SWAP1 PUSH2 0x2964 JUMP JUMPDEST DUP1 ISZERO PUSH2 0xDF5 JUMPI DUP1 PUSH1 0x1F LT PUSH2 0xDCC JUMPI PUSH2 0x100 DUP1 DUP4 SLOAD DIV MUL DUP4 MSTORE SWAP2 PUSH1 0x20 ADD SWAP2 PUSH2 0xDF5 JUMP JUMPDEST DUP3 ADD SWAP2 SWAP1 PUSH0 MSTORE PUSH1 0x20 PUSH0 KECCAK256 SWAP1 JUMPDEST DUP2 SLOAD DUP2 MSTORE SWAP1 PUSH1 0x1 ADD SWAP1 PUSH1 0x20 ADD DUP1 DUP4 GT PUSH2 0xDD8 JUMPI DUP3 SWAP1 SUB PUSH1 0x1F AND DUP3 ADD SWAP2 JUMPDEST POP POP POP POP POP SWAP1 DUP1 PUSH1 0x1 ADD SLOAD SWAP1 POP DUP3 JUMP JUMPDEST PUSH1 0x60 PUSH1 0x4 DUP1 SLOAD PUSH2 0xE14 SWAP1 PUSH2 0x2964 JUMP JUMPDEST DUP1 PUSH1 0x1F ADD PUSH1 0x20 DUP1 SWAP2 DIV MUL PUSH1 0x20 ADD PUSH1 0x40 MLOAD SWAP1 DUP2 ADD PUSH1 0x40 MSTORE DUP1 SWAP3 SWAP2 SWAP1 DUP2 DUP2 MSTORE PUSH1 0x20 ADD DUP3 DUP1 SLOAD PUSH2 0xE40 SWAP1 PUSH2 0x2964 JUMP JUMPDEST DUP1 ISZERO PUSH2 0xE8B JUMPI DUP1 PUSH1 0x1F LT PUSH2 0xE62 JUMPI PUSH2 0x100 DUP1 DUP4 SLOAD DIV MUL DUP4 MSTORE SWAP2 PUSH1 0x20 ADD SWAP2 PUSH2 0xE8B JUMP JUMPDEST DUP3 ADD SWAP2 SWAP1 PUSH0 MSTORE PUSH1 0x20 PUSH0 KECCAK256 SWAP1 JUMPDEST DUP2 SLOAD DUP2 MSTORE SWAP1 PUSH1 0x1 ADD SWAP1 PUSH1 0x20 ADD DUP1 DUP4 GT PUSH2 0xE6E JUMPI DUP3 SWAP1 SUB PUSH1 0x1F AND DUP3 ADD SWAP2 JUMPDEST POP POP POP POP POP SWAP1 POP SWAP1 JUMP JUMPDEST PUSH2 0xE9D PUSH2 0x193F JUMP JUMPDEST PUSH2 0xEA7 ADDRESS DUP3 PUSH2 0x1A89 JUMP JUMPDEST POP JUMP JUMPDEST PUSH2 0xEB2 PUSH2 0x193F JUMP JUMPDEST PUSH1 0xA PUSH0 DUP2 SLOAD DUP1 SWAP3 SWAP2 SWAP1 PUSH2 0xEC4 SWAP1 PUSH2 0x2D8B JUMP JUMPDEST SWAP2 SWAP1 POP SSTORE POP PUSH0 PUSH1 0x8 PUSH0 PUSH1 0x1 PUSH1 0xA SLOAD PUSH2 0xEDC SWAP2 SWAP1 PUSH2 0x2DD2 JUMP JUMPDEST DUP2 MSTORE PUSH1 0x20 ADD SWAP1 DUP2 MSTORE PUSH1 0x20 ADD PUSH0 KECCAK256 SWAP1 POP DUP2 DUP2 PUSH0 ADD PUSH0 PUSH2 0x100 EXP DUP2 SLOAD DUP2 PUSH20 0xFFFFFFFFFFFFFFFFFFFFFFFFFFFFFFFFFFFFFFFF MUL NOT AND SWAP1 DUP4 PUSH20 0xFFFFFFFFFFFFFFFFFFFFFFFFFFFFFFFFFFFFFFFF AND MUL OR SWAP1 SSTORE POP PUSH0 DUP2 PUSH1 0x3 ADD PUSH0 PUSH2 0x100 EXP DUP2 SLOAD DUP2 PUSH1 0xFF MUL NOT AND SWAP1 DUP4 ISZERO ISZERO MUL OR SWAP1 SSTORE POP PUSH1 0x6 DUP1 SLOAD SWAP1 POP PUSH8 0xFFFFFFFFFFFFFFFF DUP2 GT ISZERO PUSH2 0xF66 JUMPI PUSH2 0xF65 PUSH2 0x2496 JUMP JUMPDEST JUMPDEST PUSH1 0x40 MLOAD SWAP1 DUP1 DUP3 MSTORE DUP1 PUSH1 0x20 MUL PUSH1 0x20 ADD DUP3 ADD PUSH1 0x40 MSTORE DUP1 ISZERO PUSH2 0xF94 JUMPI DUP2 PUSH1 0x20 ADD PUSH1 0x20 DUP3 MUL DUP1 CALLDATASIZE DUP4 CALLDATACOPY DUP1 DUP3 ADD SWAP2 POP POP SWAP1 POP JUMPDEST POP DUP2 PUSH1 0x2 ADD SWAP1 DUP1 MLOAD SWAP1 PUSH1 0x20 ADD SWAP1 PUSH2 0xFAC SWAP3 SWAP2 SWAP1 PUSH2 0x1F6F JUMP JUMPDEST POP PUSH1 0xA SLOAD PUSH32 0x475E637CD3C90ECC459EDDF548F62CFCA3117407751685FCE1FF08330F83F3C7 DUP5 PUSH1 0x40 MLOAD PUSH2 0xFDF SWAP2 SWAP1 PUSH2 0x2045 JUMP JUMPDEST PUSH1 0x40 MLOAD DUP1 SWAP2 SUB SWAP1 LOG2 POP POP POP JUMP JUMPDEST PUSH0 DUP1 PUSH2 0xFF6 PUSH2 0x17A4 JUMP JUMPDEST SWAP1 POP PUSH2 0x1003 DUP2 DUP6 DUP6 PUSH2 0x184F JUMP JUMPDEST PUSH1 0x1 SWAP2 POP POP SWAP3 SWAP2 POP POP JUMP JUMPDEST PUSH1 0x1 PUSH2 0x1019 CALLER PUSH2 0xBA2 JUMP JUMPDEST LT ISZERO PUSH2 0x105A JUMPI PUSH1 0x40 MLOAD PUSH32 0x8C379A000000000000000000000000000000000000000000000000000000000 DUP2 MSTORE PUSH1 0x4 ADD PUSH2 0x1051 SWAP1 PUSH2 0x2E75 JUMP JUMPDEST PUSH1 0x40 MLOAD DUP1 SWAP2 SUB SWAP1 REVERT JUMPDEST PUSH1 0x8 PUSH0 DUP3 DUP2 MSTORE PUSH1 0x20 ADD SWAP1 DUP2 MSTORE PUSH1 0x20 ADD PUSH0 KECCAK256 PUSH1 0x1 ADD PUSH0 CALLER PUSH20 0xFFFFFFFFFFFFFFFFFFFFFFFFFFFFFFFFFFFFFFFF AND PUSH20 0xFFFFFFFFFFFFFFFFFFFFFFFFFFFFFFFFFFFFFFFF AND DUP2 MSTORE PUSH1 0x20 ADD SWAP1 DUP2 MSTORE PUSH1 0x20 ADD PUSH0 KECCAK256 PUSH0 SWAP1 SLOAD SWAP1 PUSH2 0x100 EXP SWAP1 DIV PUSH1 0xFF AND ISZERO PUSH2 0x10F6 JUMPI PUSH1 0x40 MLOAD PUSH32 0x8C379A000000000000000000000000000000000000000000000000000000000 DUP2 MSTORE PUSH1 0x4 ADD PUSH2 0x10ED SWAP1 PUSH2 0x2EDD JUMP JUMPDEST PUSH1 0x40 MLOAD DUP1 SWAP2 SUB SWAP1 REVERT JUMPDEST PUSH1 0x6 DUP1 SLOAD SWAP1 POP DUP3 LT PUSH2 0x113D JUMPI PUSH1 0x40 MLOAD PUSH32 0x8C379A000000000000000000000000000000000000000000000000000000000 DUP2 MSTORE PUSH1 0x4 ADD PUSH2 0x1134 SWAP1 PUSH2 0x2F45 JUMP JUMPDEST PUSH1 0x40 MLOAD DUP1 SWAP2 SUB SWAP1 REVERT JUMPDEST PUSH1 0x8 PUSH0 DUP3 DUP2 MSTORE PUSH1 0x20 ADD SWAP1 DUP2 MSTORE PUSH1 0x20 ADD PUSH0 KECCAK256 PUSH1 0x3 ADD PUSH0 SWAP1 SLOAD SWAP1 PUSH2 0x100 EXP SWAP1 DIV PUSH1 0xFF AND PUSH2 0x119D JUMPI PUSH1 0x40 MLOAD PUSH32 0x8C379A000000000000000000000000000000000000000000000000000000000 DUP2 MSTORE PUSH1 0x4 ADD PUSH2 0x1194 SWAP1 PUSH2 0x2FD3 JUMP JUMPDEST PUSH1 0x40 MLOAD DUP1 SWAP2 SUB SWAP1 REVERT JUMPDEST PUSH2 0x11A8 CALLER PUSH1 0x1 PUSH2 0x1B08 JUMP JUMPDEST PUSH1 0x8 PUSH0 DUP3 DUP2 MSTORE PUSH1 0x20 ADD SWAP1 DUP2 MSTORE PUSH1 0x20 ADD PUSH0 KECCAK256 PUSH1 0x2 ADD DUP3 DUP2 SLOAD DUP2 LT PUSH2 0x11CE JUMPI PUSH2 0x11CD PUSH2 0x2FF1 JUMP JUMPDEST JUMPDEST SWAP1 PUSH0 MSTORE PUSH1 0x20 PUSH0 KECCAK256 ADD PUSH0 DUP2 SLOAD DUP1 SWAP3 SWAP2 SWAP1 PUSH2 0x11E6 SWAP1 PUSH2 0x2D8B JUMP JUMPDEST SWAP2 SWAP1 POP SSTORE POP PUSH1 0x1 PUSH1 0x8 PUSH0 DUP4 DUP2 MSTORE PUSH1 0x20 ADD SWAP1 DUP2 MSTORE PUSH1 0x20 ADD PUSH0 KECCAK256 PUSH1 0x1 ADD PUSH0 CALLER PUSH20 0xFFFFFFFFFFFFFFFFFFFFFFFFFFFFFFFFFFFFFFFF AND PUSH20 0xFFFFFFFFFFFFFFFFFFFFFFFFFFFFFFFFFFFFFFFF AND DUP2 MSTORE PUSH1 0x20 ADD SWAP1 DUP2 MSTORE PUSH1 0x20 ADD PUSH0 KECCAK256 PUSH0 PUSH2 0x100 EXP DUP2 SLOAD DUP2 PUSH1 0xFF MUL NOT AND SWAP1 DUP4 ISZERO ISZERO MUL OR SWAP1 SSTORE POP POP POP JUMP JUMPDEST PUSH2 0x125E PUSH2 0x193F JUMP JUMPDEST PUSH0 JUMPDEST PUSH1 0xA SLOAD DUP2 LT ISZERO PUSH2 0x12C9 JUMPI PUSH1 0x8 PUSH0 DUP3 DUP2 MSTORE PUSH1 0x20 ADD SWAP1 DUP2 MSTORE PUSH1 0x20 ADD PUSH0 KECCAK256 PUSH1 0x3 ADD PUSH0 SWAP1 SLOAD SWAP1 PUSH2 0x100 EXP SWAP1 DIV PUSH1 0xFF AND PUSH2 0x12BC JUMPI PUSH1 0x1 PUSH1 0x8 PUSH0 DUP4 DUP2 MSTORE PUSH1 0x20 ADD SWAP1 DUP2 MSTORE PUSH1 0x20 ADD PUSH0 KECCAK256 PUSH1 0x3 ADD PUSH0 PUSH2 0x100 EXP DUP2 SLOAD DUP2 PUSH1 0xFF MUL NOT AND SWAP1 DUP4 ISZERO ISZERO MUL OR SWAP1 SSTORE POP JUMPDEST DUP1 DUP1 PUSH1 0x1 ADD SWAP2 POP POP PUSH2 0x1260 JUMP JUMPDEST POP JUMP JUMPDEST PUSH0 PUSH1 0x1 PUSH0 DUP5 PUSH20 0xFFFFFFFFFFFFFFFFFFFFFFFFFFFFFFFFFFFFFFFF AND PUSH20 0xFFFFFFFFFFFFFFFFFFFFFFFFFFFFFFFFFFFFFFFF AND DUP2 MSTORE PUSH1 0x20 ADD SWAP1 DUP2 MSTORE PUSH1 0x20 ADD PUSH0 KECCAK256 PUSH0 DUP4 PUSH20 0xFFFFFFFFFFFFFFFFFFFFFFFFFFFFFFFFFFFFFFFF AND PUSH20 0xFFFFFFFFFFFFFFFFFFFFFFFFFFFFFFFFFFFFFFFF AND DUP2 MSTORE PUSH1 0x20 ADD SWAP1 DUP2 MSTORE PUSH1 0x20 ADD PUSH0 KECCAK256 SLOAD SWAP1 POP SWAP3 SWAP2 POP POP JUMP JUMPDEST PUSH1 0xA SLOAD DUP2 JUMP JUMPDEST PUSH0 PUSH2 0x135D PUSH2 0x193F JUMP JUMPDEST PUSH0 JUMPDEST PUSH1 0x9 DUP1 SLOAD SWAP1 POP DUP2 LT ISZERO PUSH2 0x1422 JUMPI DUP3 PUSH20 0xFFFFFFFFFFFFFFFFFFFFFFFFFFFFFFFFFFFFFFFF AND PUSH1 0x9 DUP3 DUP2 SLOAD DUP2 LT PUSH2 0x1397 JUMPI PUSH2 0x1396 PUSH2 0x2FF1 JUMP JUMPDEST JUMPDEST SWAP1 PUSH0 MSTORE PUSH1 0x20 PUSH0 KECCAK256 ADD PUSH0 SWAP1 SLOAD SWAP1 PUSH2 0x100 EXP SWAP1 DIV PUSH20 0xFFFFFFFFFFFFFFFFFFFFFFFFFFFFFFFFFFFFFFFF AND PUSH20 0xFFFFFFFFFFFFFFFFFFFFFFFFFFFFFFFFFFFFFFFF AND SUB PUSH2 0x1415 JUMPI PUSH1 0x40 MLOAD PUSH32 0x8C379A000000000000000000000000000000000000000000000000000000000 DUP2 MSTORE PUSH1 0x4 ADD PUSH2 0x140C SWAP1 PUSH2 0x308E JUMP JUMPDEST PUSH1 0x40 MLOAD DUP1 SWAP2 SUB SWAP1 REVERT JUMPDEST DUP1 DUP1 PUSH1 0x1 ADD SWAP2 POP POP PUSH2 0x135F JUMP JUMPDEST POP PUSH2 0x142F ADDRESS DUP4 PUSH1 0x1 PUSH2 0x184F JUMP JUMPDEST PUSH1 0x9 DUP3 SWAP1 DUP1 PUSH1 0x1 DUP2 SLOAD ADD DUP1 DUP3 SSTORE DUP1 SWAP2 POP POP PUSH1 0x1 SWAP1 SUB SWAP1 PUSH0 MSTORE PUSH1 0x20 PUSH0 KECCAK256 ADD PUSH0 SWAP1 SWAP2 SWAP1 SWAP2 SWAP1 SWAP2 PUSH2 0x100 EXP DUP2 SLOAD DUP2 PUSH20 0xFFFFFFFFFFFFFFFFFFFFFFFFFFFFFFFFFFFFFFFF MUL NOT AND SWAP1 DUP4 PUSH20 0xFFFFFFFFFFFFFFFFFFFFFFFFFFFFFFFFFFFFFFFF AND MUL OR SWAP1 SSTORE POP PUSH1 0x1 SWAP1 POP SWAP2 SWAP1 POP JUMP JUMPDEST PUSH1 0x60 PUSH1 0x8 PUSH0 DUP4 DUP2 MSTORE PUSH1 0x20 ADD SWAP1 DUP2 MSTORE PUSH1 0x20 ADD PUSH0 KECCAK256 PUSH1 0x2 ADD DUP1 SLOAD DUP1 PUSH1 0x20 MUL PUSH1 0x20 ADD PUSH1 0x40 MLOAD SWAP1 DUP2 ADD PUSH1 0x40 MSTORE DUP1 SWAP3 SWAP2 SWAP1 DUP2 DUP2 MSTORE PUSH1 0x20 ADD DUP3 DUP1 SLOAD DUP1 ISZERO PUSH2 0x14F6 JUMPI PUSH1 0x20 MUL DUP3 ADD SWAP2 SWAP1 PUSH0 MSTORE PUSH1 0x20 PUSH0 KECCAK256 SWAP1 JUMPDEST DUP2 SLOAD DUP2 MSTORE PUSH1 0x20 ADD SWAP1 PUSH1 0x1 ADD SWAP1 DUP1 DUP4 GT PUSH2 0x14E2 JUMPI JUMPDEST POP POP POP POP POP SWAP1 POP SWAP2 SWAP1 POP JUMP JUMPDEST PUSH2 0x150A PUSH2 0x193F JUMP JUMPDEST PUSH0 PUSH20 0xFFFFFFFFFFFFFFFFFFFFFFFFFFFFFFFFFFFFFFFF AND DUP2 PUSH20 0xFFFFFFFFFFFFFFFFFFFFFFFFFFFFFFFFFFFFFFFF AND SUB PUSH2 0x157A JUMPI PUSH0 PUSH1 0x40 MLOAD PUSH32 0x1E4FBDF700000000000000000000000000000000000000000000000000000000 DUP2 MSTORE PUSH1 0x4 ADD PUSH2 0x1571 SWAP2 SWAP1 PUSH2 0x2662 JUMP JUMPDEST PUSH1 0x40 MLOAD DUP1 SWAP2 SUB SWAP1 REVERT JUMPDEST PUSH2 0x1583 DUP2 PUSH2 0x19C6 JUMP JUMPDEST POP JUMP JUMPDEST PUSH1 0x60 DUP1 PUSH1 0x6 DUP1 SLOAD SWAP1 POP PUSH8 0xFFFFFFFFFFFFFFFF DUP2 GT ISZERO PUSH2 0x15A8 JUMPI PUSH2 0x15A7 PUSH2 0x2496 JUMP JUMPDEST JUMPDEST PUSH1 0x40 MLOAD SWAP1 DUP1 DUP3 MSTORE DUP1 PUSH1 0x20 MUL PUSH1 0x20 ADD DUP3 ADD PUSH1 0x40 MSTORE DUP1 ISZERO PUSH2 0x15DB JUMPI DUP2 PUSH1 0x20 ADD JUMPDEST PUSH1 0x60 DUP2 MSTORE PUSH1 0x20 ADD SWAP1 PUSH1 0x1 SWAP1 SUB SWAP1 DUP2 PUSH2 0x15C6 JUMPI SWAP1 POP JUMPDEST POP SWAP2 POP PUSH1 0x6 DUP1 SLOAD SWAP1 POP PUSH8 0xFFFFFFFFFFFFFFFF DUP2 GT ISZERO PUSH2 0x15FD JUMPI PUSH2 0x15FC PUSH2 0x2496 JUMP JUMPDEST JUMPDEST PUSH1 0x40 MLOAD SWAP1 DUP1 DUP3 MSTORE DUP1 PUSH1 0x20 MUL PUSH1 0x20 ADD DUP3 ADD PUSH1 0x40 MSTORE DUP1 ISZERO PUSH2 0x162B JUMPI DUP2 PUSH1 0x20 ADD PUSH1 0x20 DUP3 MUL DUP1 CALLDATASIZE DUP4 CALLDATACOPY DUP1 DUP3 ADD SWAP2 POP POP SWAP1 POP JUMPDEST POP SWAP1 POP PUSH0 JUMPDEST PUSH1 0x6 DUP1 SLOAD SWAP1 POP DUP2 LT ISZERO PUSH2 0x1711 JUMPI PUSH1 0x6 DUP2 DUP2 SLOAD DUP2 LT PUSH2 0x1651 JUMPI PUSH2 0x1650 PUSH2 0x2FF1 JUMP JUMPDEST JUMPDEST SWAP1 PUSH0 MSTORE PUSH1 0x20 PUSH0 KECCAK256 SWAP1 PUSH1 0x2 MUL ADD PUSH0 ADD DUP1 SLOAD PUSH2 0x166A SWAP1 PUSH2 0x2964 JUMP JUMPDEST DUP1 PUSH1 0x1F ADD PUSH1 0x20 DUP1 SWAP2 DIV MUL PUSH1 0x20 ADD PUSH1 0x40 MLOAD SWAP1 DUP2 ADD PUSH1 0x40 MSTORE DUP1 SWAP3 SWAP2 SWAP1 DUP2 DUP2 MSTORE PUSH1 0x20 ADD DUP3 DUP1 SLOAD PUSH2 0x1696 SWAP1 PUSH2 0x2964 JUMP JUMPDEST DUP1 ISZERO PUSH2 0x16E1 JUMPI DUP1 PUSH1 0x1F LT PUSH2 0x16B8 JUMPI PUSH2 0x100 DUP1 DUP4 SLOAD DIV MUL DUP4 MSTORE SWAP2 PUSH1 0x20 ADD SWAP2 PUSH2 0x16E1 JUMP JUMPDEST DUP3 ADD SWAP2 SWAP1 PUSH0 MSTORE PUSH1 0x20 PUSH0 KECCAK256 SWAP1 JUMPDEST DUP2 SLOAD DUP2 MSTORE SWAP1 PUSH1 0x1 ADD SWAP1 PUSH1 0x20 ADD DUP1 DUP4 GT PUSH2 0x16C4 JUMPI DUP3 SWAP1 SUB PUSH1 0x1F AND DUP3 ADD SWAP2 JUMPDEST POP POP POP POP POP DUP4 DUP3 DUP2 MLOAD DUP2 LT PUSH2 0x16F9 JUMPI PUSH2 0x16F8 PUSH2 0x2FF1 JUMP JUMPDEST JUMPDEST PUSH1 0x20 MUL PUSH1 0x20 ADD ADD DUP2 SWAP1 MSTORE POP DUP1 DUP1 PUSH1 0x1 ADD SWAP2 POP POP PUSH2 0x1630 JUMP JUMPDEST POP PUSH0 JUMPDEST PUSH1 0xA SLOAD DUP2 GT PUSH2 0x179F JUMPI PUSH0 PUSH2 0x1727 DUP3 PUSH2 0x1498 JUMP JUMPDEST SWAP1 POP PUSH0 JUMPDEST DUP2 MLOAD DUP2 LT ISZERO PUSH2 0x178A JUMPI DUP2 DUP2 DUP2 MLOAD DUP2 LT PUSH2 0x1747 JUMPI PUSH2 0x1746 PUSH2 0x2FF1 JUMP JUMPDEST JUMPDEST PUSH1 0x20 MUL PUSH1 0x20 ADD ADD MLOAD DUP5 DUP3 DUP2 MLOAD DUP2 LT PUSH2 0x1762 JUMPI PUSH2 0x1761 PUSH2 0x2FF1 JUMP JUMPDEST JUMPDEST PUSH1 0x20 MUL PUSH1 0x20 ADD ADD DUP2 DUP2 MLOAD PUSH2 0x1776 SWAP2 SWAP1 PUSH2 0x30AC JUMP JUMPDEST SWAP2 POP DUP2 DUP2 MSTORE POP POP DUP1 DUP1 PUSH1 0x1 ADD SWAP2 POP POP PUSH2 0x172B JUMP JUMPDEST POP POP DUP1 DUP1 PUSH2 0x1797 SWAP1 PUSH2 0x2D8B JUMP JUMPDEST SWAP2 POP POP PUSH2 0x1714 JUMP JUMPDEST POP SWAP1 SWAP2 JUMP JUMPDEST PUSH0 CALLER SWAP1 POP SWAP1 JUMP JUMPDEST PUSH2 0x17B8 DUP4 DUP4 DUP4 PUSH1 0x1 PUSH2 0x1B87 JUMP JUMPDEST POP POP POP JUMP JUMPDEST PUSH0 PUSH2 0x17C8 DUP5 DUP5 PUSH2 0x12CC JUMP JUMPDEST SWAP1 POP PUSH32 0xFFFFFFFFFFFFFFFFFFFFFFFFFFFFFFFFFFFFFFFFFFFFFFFFFFFFFFFFFFFFFFFF DUP2 EQ PUSH2 0x1849 JUMPI DUP2 DUP2 LT ISZERO PUSH2 0x183A JUMPI DUP3 DUP2 DUP4 PUSH1 0x40 MLOAD PUSH32 0xFB8F41B200000000000000000000000000000000000000000000000000000000 DUP2 MSTORE PUSH1 0x4 ADD PUSH2 0x1831 SWAP4 SWAP3 SWAP2 SWAP1 PUSH2 0x30DF JUMP JUMPDEST PUSH1 0x40 MLOAD DUP1 SWAP2 SUB SWAP1 REVERT JUMPDEST PUSH2 0x1848 DUP5 DUP5 DUP5 DUP5 SUB PUSH0 PUSH2 0x1B87 JUMP JUMPDEST JUMPDEST POP POP POP POP JUMP JUMPDEST PUSH0 PUSH20 0xFFFFFFFFFFFFFFFFFFFFFFFFFFFFFFFFFFFFFFFF AND DUP4 PUSH20 0xFFFFFFFFFFFFFFFFFFFFFFFFFFFFFFFFFFFFFFFF AND SUB PUSH2 0x18BF JUMPI PUSH0 PUSH1 0x40 MLOAD PUSH32 0x96C6FD1E00000000000000000000000000000000000000000000000000000000 DUP2 MSTORE PUSH1 0x4 ADD PUSH2 0x18B6 SWAP2 SWAP1 PUSH2 0x2662 JUMP JUMPDEST PUSH1 0x40 MLOAD DUP1 SWAP2 SUB SWAP1 REVERT JUMPDEST PUSH0 PUSH20 0xFFFFFFFFFFFFFFFFFFFFFFFFFFFFFFFFFFFFFFFF AND DUP3 PUSH20 0xFFFFFFFFFFFFFFFFFFFFFFFFFFFFFFFFFFFFFFFF AND SUB PUSH2 0x192F JUMPI PUSH0 PUSH1 0x40 MLOAD PUSH32 0xEC442F0500000000000000000000000000000000000000000000000000000000 DUP2 MSTORE PUSH1 0x4 ADD PUSH2 0x1926 SWAP2 SWAP1 PUSH2 0x2662 JUMP JUMPDEST PUSH1 0x40 MLOAD DUP1 SWAP2 SUB SWAP1 REVERT JUMPDEST PUSH2 0x193A DUP4 DUP4 DUP4 PUSH2 0x1D56 JUMP JUMPDEST POP POP POP JUMP JUMPDEST PUSH2 0x1947 PUSH2 0x17A4 JUMP JUMPDEST PUSH20 0xFFFFFFFFFFFFFFFFFFFFFFFFFFFFFFFFFFFFFFFF AND PUSH2 0x1965 PUSH2 0xD28 JUMP JUMPDEST PUSH20 0xFFFFFFFFFFFFFFFFFFFFFFFFFFFFFFFFFFFFFFFF AND EQ PUSH2 0x19C4 JUMPI PUSH2 0x1988 PUSH2 0x17A4 JUMP JUMPDEST PUSH1 0x40 MLOAD PUSH32 0x118CDAA700000000000000000000000000000000000000000000000000000000 DUP2 MSTORE PUSH1 0x4 ADD PUSH2 0x19BB SWAP2 SWAP1 PUSH2 0x2662 JUMP JUMPDEST PUSH1 0x40 MLOAD DUP1 SWAP2 SUB SWAP1 REVERT JUMPDEST JUMP JUMPDEST PUSH0 PUSH1 0x5 PUSH0 SWAP1 SLOAD SWAP1 PUSH2 0x100 EXP SWAP1 DIV PUSH20 0xFFFFFFFFFFFFFFFFFFFFFFFFFFFFFFFFFFFFFFFF AND SWAP1 POP DUP2 PUSH1 0x5 PUSH0 PUSH2 0x100 EXP DUP2 SLOAD DUP2 PUSH20 0xFFFFFFFFFFFFFFFFFFFFFFFFFFFFFFFFFFFFFFFF MUL NOT AND SWAP1 DUP4 PUSH20 0xFFFFFFFFFFFFFFFFFFFFFFFFFFFFFFFFFFFFFFFF AND MUL OR SWAP1 SSTORE POP DUP2 PUSH20 0xFFFFFFFFFFFFFFFFFFFFFFFFFFFFFFFFFFFFFFFF AND DUP2 PUSH20 0xFFFFFFFFFFFFFFFFFFFFFFFFFFFFFFFFFFFFFFFF AND PUSH32 0x8BE0079C531659141344CD1FD0A4F28419497F9722A3DAAFE3B4186F6B6457E0 PUSH1 0x40 MLOAD PUSH1 0x40 MLOAD DUP1 SWAP2 SUB SWAP1 LOG3 POP POP JUMP JUMPDEST PUSH0 PUSH20 0xFFFFFFFFFFFFFFFFFFFFFFFFFFFFFFFFFFFFFFFF AND DUP3 PUSH20 0xFFFFFFFFFFFFFFFFFFFFFFFFFFFFFFFFFFFFFFFF AND SUB PUSH2 0x1AF9 JUMPI PUSH0 PUSH1 0x40 MLOAD PUSH32 0xEC442F0500000000000000000000000000000000000000000000000000000000 DUP2 MSTORE PUSH1 0x4 ADD PUSH2 0x1AF0 SWAP2 SWAP1 PUSH2 0x2662 JUMP JUMPDEST PUSH1 0x40 MLOAD DUP1 SWAP2 SUB SWAP1 REVERT JUMPDEST PUSH2 0x1B04 PUSH0 DUP4 DUP4 PUSH2 0x1D56 JUMP JUMPDEST POP POP JUMP JUMPDEST PUSH0 PUSH20 0xFFFFFFFFFFFFFFFFFFFFFFFFFFFFFFFFFFFFFFFF AND DUP3 PUSH20 0xFFFFFFFFFFFFFFFFFFFFFFFFFFFFFFFFFFFFFFFF AND SUB PUSH2 0x1B78 JUMPI PUSH0 PUSH1 0x40 MLOAD PUSH32 0x96C6FD1E00000000000000000000000000000000000000000000000000000000 DUP2 MSTORE PUSH1 0x4 ADD PUSH2 0x1B6F SWAP2 SWAP1 PUSH2 0x2662 JUMP JUMPDEST PUSH1 0x40 MLOAD DUP1 SWAP2 SUB SWAP1 REVERT JUMPDEST PUSH2 0x1B83 DUP3 PUSH0 DUP4 PUSH2 0x1D56 JUMP JUMPDEST POP POP JUMP JUMPDEST PUSH0 PUSH20 0xFFFFFFFFFFFFFFFFFFFFFFFFFFFFFFFFFFFFFFFF AND DUP5 PUSH20 0xFFFFFFFFFFFFFFFFFFFFFFFFFFFFFFFFFFFFFFFF AND SUB PUSH2 0x1BF7 JUMPI PUSH0 PUSH1 0x40 MLOAD PUSH32 0xE602DF0500000000000000000000000000000000000000000000000000000000 DUP2 MSTORE PUSH1 0x4 ADD PUSH2 0x1BEE SWAP2 SWAP1 PUSH2 0x2662 JUMP JUMPDEST PUSH1 0x40 MLOAD DUP1 SWAP2 SUB SWAP1 REVERT JUMPDEST PUSH0 PUSH20 0xFFFFFFFFFFFFFFFFFFFFFFFFFFFFFFFFFFFFFFFF AND DUP4 PUSH20 0xFFFFFFFFFFFFFFFFFFFFFFFFFFFFFFFFFFFFFFFF AND SUB PUSH2 0x1C67 JUMPI PUSH0 PUSH1 0x40 MLOAD PUSH32 0x94280D6200000000000000000000000000000000000000000000000000000000 DUP2 MSTORE PUSH1 0x4 ADD PUSH2 0x1C5E SWAP2 SWAP1 PUSH2 0x2662 JUMP JUMPDEST PUSH1 0x40 MLOAD DUP1 SWAP2 SUB SWAP1 REVERT JUMPDEST DUP2 PUSH1 0x1 PUSH0 DUP7 PUSH20 0xFFFFFFFFFFFFFFFFFFFFFFFFFFFFFFFFFFFFFFFF AND PUSH20 0xFFFFFFFFFFFFFFFFFFFFFFFFFFFFFFFFFFFFFFFF AND DUP2 MSTORE PUSH1 0x20 ADD SWAP1 DUP2 MSTORE PUSH1 0x20 ADD PUSH0 KECCAK256 PUSH0 DUP6 PUSH20 0xFFFFFFFFFFFFFFFFFFFFFFFFFFFFFFFFFFFFFFFF AND PUSH20 0xFFFFFFFFFFFFFFFFFFFFFFFFFFFFFFFFFFFFFFFF AND DUP2 MSTORE PUSH1 0x20 ADD SWAP1 DUP2 MSTORE PUSH1 0x20 ADD PUSH0 KECCAK256 DUP2 SWAP1 SSTORE POP DUP1 ISZERO PUSH2 0x1D50 JUMPI DUP3 PUSH20 0xFFFFFFFFFFFFFFFFFFFFFFFFFFFFFFFFFFFFFFFF AND DUP5 PUSH20 0xFFFFFFFFFFFFFFFFFFFFFFFFFFFFFFFFFFFFFFFF AND PUSH32 0x8C5BE1E5EBEC7D5BD14F71427D1E84F3DD0314C0F7B2291E5B200AC8C7C3B925 DUP5 PUSH1 0x40 MLOAD PUSH2 0x1D47 SWAP2 SWAP1 PUSH2 0x2183 JUMP JUMPDEST PUSH1 0x40 MLOAD DUP1 SWAP2 SUB SWAP1 LOG3 JUMPDEST POP POP POP POP JUMP JUMPDEST PUSH0 PUSH20 0xFFFFFFFFFFFFFFFFFFFFFFFFFFFFFFFFFFFFFFFF AND DUP4 PUSH20 0xFFFFFFFFFFFFFFFFFFFFFFFFFFFFFFFFFFFFFFFF AND SUB PUSH2 0x1DA6 JUMPI DUP1 PUSH1 0x2 PUSH0 DUP3 DUP3 SLOAD PUSH2 0x1D9A SWAP2 SWAP1 PUSH2 0x30AC JUMP JUMPDEST SWAP3 POP POP DUP2 SWAP1 SSTORE POP PUSH2 0x1E74 JUMP JUMPDEST PUSH0 DUP1 PUSH0 DUP6 PUSH20 0xFFFFFFFFFFFFFFFFFFFFFFFFFFFFFFFFFFFFFFFF AND PUSH20 0xFFFFFFFFFFFFFFFFFFFFFFFFFFFFFFFFFFFFFFFF AND DUP2 MSTORE PUSH1 0x20 ADD SWAP1 DUP2 MSTORE PUSH1 0x20 ADD PUSH0 KECCAK256 SLOAD SWAP1 POP DUP2 DUP2 LT ISZERO PUSH2 0x1E2F JUMPI DUP4 DUP2 DUP4 PUSH1 0x40 MLOAD PUSH32 0xE450D38C00000000000000000000000000000000000000000000000000000000 DUP2 MSTORE PUSH1 0x4 ADD PUSH2 0x1E26 SWAP4 SWAP3 SWAP2 SWAP1 PUSH2 0x30DF JUMP JUMPDEST PUSH1 0x40 MLOAD DUP1 SWAP2 SUB SWAP1 REVERT JUMPDEST DUP2 DUP2 SUB PUSH0 DUP1 DUP7 PUSH20 0xFFFFFFFFFFFFFFFFFFFFFFFFFFFFFFFFFFFFFFFF AND PUSH20 0xFFFFFFFFFFFFFFFFFFFFFFFFFFFFFFFFFFFFFFFF AND DUP2 MSTORE PUSH1 0x20 ADD SWAP1 DUP2 MSTORE PUSH1 0x20 ADD PUSH0 KECCAK256 DUP2 SWAP1 SSTORE POP POP JUMPDEST PUSH0 PUSH20 0xFFFFFFFFFFFFFFFFFFFFFFFFFFFFFFFFFFFFFFFF AND DUP3 PUSH20 0xFFFFFFFFFFFFFFFFFFFFFFFFFFFFFFFFFFFFFFFF AND SUB PUSH2 0x1EBB JUMPI DUP1 PUSH1 0x2 PUSH0 DUP3 DUP3 SLOAD SUB SWAP3 POP POP DUP2 SWAP1 SSTORE POP PUSH2 0x1F05 JUMP JUMPDEST DUP1 PUSH0 DUP1 DUP5 PUSH20 0xFFFFFFFFFFFFFFFFFFFFFFFFFFFFFFFFFFFFFFFF AND PUSH20 0xFFFFFFFFFFFFFFFFFFFFFFFFFFFFFFFFFFFFFFFF AND DUP2 MSTORE PUSH1 0x20 ADD SWAP1 DUP2 MSTORE PUSH1 0x20 ADD PUSH0 KECCAK256 PUSH0 DUP3 DUP3 SLOAD ADD SWAP3 POP POP DUP2 SWAP1 SSTORE POP JUMPDEST DUP2 PUSH20 0xFFFFFFFFFFFFFFFFFFFFFFFFFFFFFFFFFFFFFFFF AND DUP4 PUSH20 0xFFFFFFFFFFFFFFFFFFFFFFFFFFFFFFFFFFFFFFFF AND PUSH32 0xDDF252AD1BE2C89B69C2B068FC378DAA952BA7F163C4A11628F55A4DF523B3EF DUP4 PUSH1 0x40 MLOAD PUSH2 0x1F62 SWAP2 SWAP1 PUSH2 0x2183 JUMP JUMPDEST PUSH1 0x40 MLOAD DUP1 SWAP2 SUB SWAP1 LOG3 POP POP POP JUMP JUMPDEST DUP3 DUP1 SLOAD DUP3 DUP3 SSTORE SWAP1 PUSH0 MSTORE PUSH1 0x20 PUSH0 KECCAK256 SWAP1 DUP2 ADD SWAP3 DUP3 ISZERO PUSH2 0x1FA9 JUMPI SWAP2 PUSH1 0x20 MUL DUP3 ADD JUMPDEST DUP3 DUP2 GT ISZERO PUSH2 0x1FA8 JUMPI DUP3 MLOAD DUP3 SSTORE SWAP2 PUSH1 0x20 ADD SWAP2 SWAP1 PUSH1 0x1 ADD SWAP1 PUSH2 0x1F8D JUMP JUMPDEST JUMPDEST POP SWAP1 POP PUSH2 0x1FB6 SWAP2 SWAP1 PUSH2 0x1FBA JUMP JUMPDEST POP SWAP1 JUMP JUMPDEST JUMPDEST DUP1 DUP3 GT ISZERO PUSH2 0x1FD1 JUMPI PUSH0 DUP2 PUSH0 SWAP1 SSTORE POP PUSH1 0x1 ADD PUSH2 0x1FBB JUMP JUMPDEST POP SWAP1 JUMP JUMPDEST PUSH0 DUP2 MLOAD SWAP1 POP SWAP2 SWAP1 POP JUMP JUMPDEST PUSH0 DUP3 DUP3 MSTORE PUSH1 0x20 DUP3 ADD SWAP1 POP SWAP3 SWAP2 POP POP JUMP JUMPDEST DUP3 DUP2 DUP4 MCOPY PUSH0 DUP4 DUP4 ADD MSTORE POP POP POP JUMP JUMPDEST PUSH0 PUSH1 0x1F NOT PUSH1 0x1F DUP4 ADD AND SWAP1 POP SWAP2 SWAP1 POP JUMP JUMPDEST PUSH0 PUSH2 0x2017 DUP3 PUSH2 0x1FD5 JUMP JUMPDEST PUSH2 0x2021 DUP2 DUP6 PUSH2 0x1FDF JUMP JUMPDEST SWAP4 POP PUSH2 0x2031 DUP2 DUP6 PUSH1 0x20 DUP7 ADD PUSH2 0x1FEF JUMP JUMPDEST PUSH2 0x203A DUP2 PUSH2 0x1FFD JUMP JUMPDEST DUP5 ADD SWAP2 POP POP SWAP3 SWAP2 POP POP JUMP JUMPDEST PUSH0 PUSH1 0x20 DUP3 ADD SWAP1 POP DUP2 DUP2 SUB PUSH0 DUP4 ADD MSTORE PUSH2 0x205D DUP2 DUP5 PUSH2 0x200D JUMP JUMPDEST SWAP1 POP SWAP3 SWAP2 POP POP JUMP JUMPDEST PUSH0 PUSH1 0x40 MLOAD SWAP1 POP SWAP1 JUMP JUMPDEST PUSH0 DUP1 REVERT JUMPDEST PUSH0 DUP1 REVERT JUMPDEST PUSH0 PUSH20 0xFFFFFFFFFFFFFFFFFFFFFFFFFFFFFFFFFFFFFFFF DUP3 AND SWAP1 POP SWAP2 SWAP1 POP JUMP JUMPDEST PUSH0 PUSH2 0x209F DUP3 PUSH2 0x2076 JUMP JUMPDEST SWAP1 POP SWAP2 SWAP1 POP JUMP JUMPDEST PUSH2 0x20AF DUP2 PUSH2 0x2095 JUMP JUMPDEST DUP2 EQ PUSH2 0x20B9 JUMPI PUSH0 DUP1 REVERT JUMPDEST POP JUMP JUMPDEST PUSH0 DUP2 CALLDATALOAD SWAP1 POP PUSH2 0x20CA DUP2 PUSH2 0x20A6 JUMP JUMPDEST SWAP3 SWAP2 POP POP JUMP JUMPDEST PUSH0 DUP2 SWAP1 POP SWAP2 SWAP1 POP JUMP JUMPDEST PUSH2 0x20E2 DUP2 PUSH2 0x20D0 JUMP JUMPDEST DUP2 EQ PUSH2 0x20EC JUMPI PUSH0 DUP1 REVERT JUMPDEST POP JUMP JUMPDEST PUSH0 DUP2 CALLDATALOAD SWAP1 POP PUSH2 0x20FD DUP2 PUSH2 0x20D9 JUMP JUMPDEST SWAP3 SWAP2 POP POP JUMP JUMPDEST PUSH0 DUP1 PUSH1 0x40 DUP4 DUP6 SUB SLT ISZERO PUSH2 0x2119 JUMPI PUSH2 0x2118 PUSH2 0x206E JUMP JUMPDEST JUMPDEST PUSH0 PUSH2 0x2126 DUP6 DUP3 DUP7 ADD PUSH2 0x20BC JUMP JUMPDEST SWAP3 POP POP PUSH1 0x20 PUSH2 0x2137 DUP6 DUP3 DUP7 ADD PUSH2 0x20EF JUMP JUMPDEST SWAP2 POP POP SWAP3 POP SWAP3 SWAP1 POP JUMP JUMPDEST PUSH0 DUP2 ISZERO ISZERO SWAP1 POP SWAP2 SWAP1 POP JUMP JUMPDEST PUSH2 0x2155 DUP2 PUSH2 0x2141 JUMP JUMPDEST DUP3 MSTORE POP POP JUMP JUMPDEST PUSH0 PUSH1 0x20 DUP3 ADD SWAP1 POP PUSH2 0x216E PUSH0 DUP4 ADD DUP5 PUSH2 0x214C JUMP JUMPDEST SWAP3 SWAP2 POP POP JUMP JUMPDEST PUSH2 0x217D DUP2 PUSH2 0x20D0 JUMP JUMPDEST DUP3 MSTORE POP POP JUMP JUMPDEST PUSH0 PUSH1 0x20 DUP3 ADD SWAP1 POP PUSH2 0x2196 PUSH0 DUP4 ADD DUP5 PUSH2 0x2174 JUMP JUMPDEST SWAP3 SWAP2 POP POP JUMP JUMPDEST PUSH0 DUP2 MLOAD SWAP1 POP SWAP2 SWAP1 POP JUMP JUMPDEST PUSH0 DUP3 DUP3 MSTORE PUSH1 0x20 DUP3 ADD SWAP1 POP SWAP3 SWAP2 POP POP JUMP JUMPDEST PUSH0 DUP2 SWAP1 POP PUSH1 0x20 DUP3 ADD SWAP1 POP SWAP2 SWAP1 POP JUMP JUMPDEST PUSH0 DUP3 DUP3 MSTORE PUSH1 0x20 DUP3 ADD SWAP1 POP SWAP3 SWAP2 POP POP JUMP JUMPDEST PUSH0 PUSH2 0x21DF DUP3 PUSH2 0x1FD5 JUMP JUMPDEST PUSH2 0x21E9 DUP2 DUP6 PUSH2 0x21C5 JUMP JUMPDEST SWAP4 POP PUSH2 0x21F9 DUP2 DUP6 PUSH1 0x20 DUP7 ADD PUSH2 0x1FEF JUMP JUMPDEST PUSH2 0x2202 DUP2 PUSH2 0x1FFD JUMP JUMPDEST DUP5 ADD SWAP2 POP POP SWAP3 SWAP2 POP POP JUMP JUMPDEST PUSH2 0x2216 DUP2 PUSH2 0x20D0 JUMP JUMPDEST DUP3 MSTORE POP POP JUMP JUMPDEST PUSH0 PUSH1 0x40 DUP4 ADD PUSH0 DUP4 ADD MLOAD DUP5 DUP3 SUB PUSH0 DUP7 ADD MSTORE PUSH2 0x2236 DUP3 DUP3 PUSH2 0x21D5 JUMP JUMPDEST SWAP2 POP POP PUSH1 0x20 DUP4 ADD MLOAD PUSH2 0x224B PUSH1 0x20 DUP7 ADD DUP3 PUSH2 0x220D JUMP JUMPDEST POP DUP1 SWAP2 POP POP SWAP3 SWAP2 POP POP JUMP JUMPDEST PUSH0 PUSH2 0x2261 DUP4 DUP4 PUSH2 0x221C JUMP JUMPDEST SWAP1 POP SWAP3 SWAP2 POP POP JUMP JUMPDEST PUSH0 PUSH1 0x20 DUP3 ADD SWAP1 POP SWAP2 SWAP1 POP JUMP JUMPDEST PUSH0 PUSH2 0x227F DUP3 PUSH2 0x219C JUMP JUMPDEST PUSH2 0x2289 DUP2 DUP6 PUSH2 0x21A6 JUMP JUMPDEST SWAP4 POP DUP4 PUSH1 0x20 DUP3 MUL DUP6 ADD PUSH2 0x229B DUP6 PUSH2 0x21B6 JUMP JUMPDEST DUP1 PUSH0 JUMPDEST DUP6 DUP2 LT ISZERO PUSH2 0x22D6 JUMPI DUP5 DUP5 SUB DUP10 MSTORE DUP2 MLOAD PUSH2 0x22B7 DUP6 DUP3 PUSH2 0x2256 JUMP JUMPDEST SWAP5 POP PUSH2 0x22C2 DUP4 PUSH2 0x2269 JUMP JUMPDEST SWAP3 POP PUSH1 0x20 DUP11 ADD SWAP10 POP POP PUSH1 0x1 DUP2 ADD SWAP1 POP PUSH2 0x229E JUMP JUMPDEST POP DUP3 SWAP8 POP DUP8 SWAP6 POP POP POP POP POP POP SWAP3 SWAP2 POP POP JUMP JUMPDEST PUSH0 PUSH1 0x20 DUP3 ADD SWAP1 POP DUP2 DUP2 SUB PUSH0 DUP4 ADD MSTORE PUSH2 0x2300 DUP2 DUP5 PUSH2 0x2275 JUMP JUMPDEST SWAP1 POP SWAP3 SWAP2 POP POP JUMP JUMPDEST PUSH0 DUP1 PUSH0 PUSH1 0x60 DUP5 DUP7 SUB SLT ISZERO PUSH2 0x231F JUMPI PUSH2 0x231E PUSH2 0x206E JUMP JUMPDEST JUMPDEST PUSH0 PUSH2 0x232C DUP7 DUP3 DUP8 ADD PUSH2 0x20BC JUMP JUMPDEST SWAP4 POP POP PUSH1 0x20 PUSH2 0x233D DUP7 DUP3 DUP8 ADD PUSH2 0x20BC JUMP JUMPDEST SWAP3 POP POP PUSH1 0x40 PUSH2 0x234E DUP7 DUP3 DUP8 ADD PUSH2 0x20EF JUMP JUMPDEST SWAP2 POP POP SWAP3 POP SWAP3 POP SWAP3 JUMP JUMPDEST PUSH0 PUSH1 0xFF DUP3 AND SWAP1 POP SWAP2 SWAP1 POP JUMP JUMPDEST PUSH2 0x236D DUP2 PUSH2 0x2358 JUMP JUMPDEST DUP3 MSTORE POP POP JUMP JUMPDEST PUSH0 PUSH1 0x20 DUP3 ADD SWAP1 POP PUSH2 0x2386 PUSH0 DUP4 ADD DUP5 PUSH2 0x2364 JUMP JUMPDEST SWAP3 SWAP2 POP POP JUMP JUMPDEST PUSH0 DUP2 MLOAD SWAP1 POP SWAP2 SWAP1 POP JUMP JUMPDEST PUSH0 DUP3 DUP3 MSTORE PUSH1 0x20 DUP3 ADD SWAP1 POP SWAP3 SWAP2 POP POP JUMP JUMPDEST PUSH0 DUP2 SWAP1 POP PUSH1 0x20 DUP3 ADD SWAP1 POP SWAP2 SWAP1 POP JUMP JUMPDEST PUSH2 0x23BE DUP2 PUSH2 0x2095 JUMP JUMPDEST DUP3 MSTORE POP POP JUMP JUMPDEST PUSH0 PUSH2 0x23CF DUP4 DUP4 PUSH2 0x23B5 JUMP JUMPDEST PUSH1 0x20 DUP4 ADD SWAP1 POP SWAP3 SWAP2 POP POP JUMP JUMPDEST PUSH0 PUSH1 0x20 DUP3 ADD SWAP1 POP SWAP2 SWAP1 POP JUMP JUMPDEST PUSH0 PUSH2 0x23F1 DUP3 PUSH2 0x238C JUMP JUMPDEST PUSH2 0x23FB DUP2 DUP6 PUSH2 0x2396 JUMP JUMPDEST SWAP4 POP PUSH2 0x2406 DUP4 PUSH2 0x23A6 JUMP JUMPDEST DUP1 PUSH0 JUMPDEST DUP4 DUP2 LT ISZERO PUSH2 0x2436 JUMPI DUP2 MLOAD PUSH2 0x241D DUP9 DUP3 PUSH2 0x23C4 JUMP JUMPDEST SWAP8 POP PUSH2 0x2428 DUP4 PUSH2 0x23DB JUMP JUMPDEST SWAP3 POP POP PUSH1 0x1 DUP2 ADD SWAP1 POP PUSH2 0x2409 JUMP JUMPDEST POP DUP6 SWAP4 POP POP POP POP SWAP3 SWAP2 POP POP JUMP JUMPDEST PUSH0 PUSH1 0x20 DUP3 ADD SWAP1 POP DUP2 DUP2 SUB PUSH0 DUP4 ADD MSTORE PUSH2 0x245B DUP2 DUP5 PUSH2 0x23E7 JUMP JUMPDEST SWAP1 POP SWAP3 SWAP2 POP POP JUMP JUMPDEST PUSH0 PUSH1 0x20 DUP3 DUP5 SUB SLT ISZERO PUSH2 0x2478 JUMPI PUSH2 0x2477 PUSH2 0x206E JUMP JUMPDEST JUMPDEST PUSH0 PUSH2 0x2485 DUP5 DUP3 DUP6 ADD PUSH2 0x20EF JUMP JUMPDEST SWAP2 POP POP SWAP3 SWAP2 POP POP JUMP JUMPDEST PUSH0 DUP1 REVERT JUMPDEST PUSH0 DUP1 REVERT JUMPDEST PUSH32 0x4E487B7100000000000000000000000000000000000000000000000000000000 PUSH0 MSTORE PUSH1 0x41 PUSH1 0x4 MSTORE PUSH1 0x24 PUSH0 REVERT JUMPDEST PUSH2 0x24CC DUP3 PUSH2 0x1FFD JUMP JUMPDEST DUP2 ADD DUP2 DUP2 LT PUSH8 0xFFFFFFFFFFFFFFFF DUP3 GT OR ISZERO PUSH2 0x24EB JUMPI PUSH2 0x24EA PUSH2 0x2496 JUMP JUMPDEST JUMPDEST DUP1 PUSH1 0x40 MSTORE POP POP POP JUMP JUMPDEST PUSH0 PUSH2 0x24FD PUSH2 0x2065 JUMP JUMPDEST SWAP1 POP PUSH2 0x2509 DUP3 DUP3 PUSH2 0x24C3 JUMP JUMPDEST SWAP2 SWAP1 POP JUMP JUMPDEST PUSH0 PUSH8 0xFFFFFFFFFFFFFFFF DUP3 GT ISZERO PUSH2 0x2528 JUMPI PUSH2 0x2527 PUSH2 0x2496 JUMP JUMPDEST JUMPDEST PUSH2 0x2531 DUP3 PUSH2 0x1FFD JUMP JUMPDEST SWAP1 POP PUSH1 0x20 DUP2 ADD SWAP1 POP SWAP2 SWAP1 POP JUMP JUMPDEST DUP3 DUP2 DUP4 CALLDATACOPY PUSH0 DUP4 DUP4 ADD MSTORE POP POP POP JUMP JUMPDEST PUSH0 PUSH2 0x255E PUSH2 0x2559 DUP5 PUSH2 0x250E JUMP JUMPDEST PUSH2 0x24F4 JUMP JUMPDEST SWAP1 POP DUP3 DUP2 MSTORE PUSH1 0x20 DUP2 ADD DUP5 DUP5 DUP5 ADD GT ISZERO PUSH2 0x257A JUMPI PUSH2 0x2579 PUSH2 0x2492 JUMP JUMPDEST JUMPDEST PUSH2 0x2585 DUP5 DUP3 DUP6 PUSH2 0x253E JUMP JUMPDEST POP SWAP4 SWAP3 POP POP POP JUMP JUMPDEST PUSH0 DUP3 PUSH1 0x1F DUP4 ADD SLT PUSH2 0x25A1 JUMPI PUSH2 0x25A0 PUSH2 0x248E JUMP JUMPDEST JUMPDEST DUP2 CALLDATALOAD PUSH2 0x25B1 DUP5 DUP3 PUSH1 0x20 DUP7 ADD PUSH2 0x254C JUMP JUMPDEST SWAP2 POP POP SWAP3 SWAP2 POP POP JUMP JUMPDEST PUSH0 PUSH1 0x20 DUP3 DUP5 SUB SLT ISZERO PUSH2 0x25CF JUMPI PUSH2 0x25CE PUSH2 0x206E JUMP JUMPDEST JUMPDEST PUSH0 DUP3 ADD CALLDATALOAD PUSH8 0xFFFFFFFFFFFFFFFF DUP2 GT ISZERO PUSH2 0x25EC JUMPI PUSH2 0x25EB PUSH2 0x2072 JUMP JUMPDEST JUMPDEST PUSH2 0x25F8 DUP5 DUP3 DUP6 ADD PUSH2 0x258D JUMP JUMPDEST SWAP2 POP POP SWAP3 SWAP2 POP POP JUMP JUMPDEST PUSH2 0x260A DUP2 PUSH2 0x2095 JUMP JUMPDEST DUP3 MSTORE POP POP JUMP JUMPDEST PUSH0 PUSH1 0x40 DUP3 ADD SWAP1 POP PUSH2 0x2623 PUSH0 DUP4 ADD DUP6 PUSH2 0x2601 JUMP JUMPDEST PUSH2 0x2630 PUSH1 0x20 DUP4 ADD DUP5 PUSH2 0x214C JUMP JUMPDEST SWAP4 SWAP3 POP POP POP JUMP JUMPDEST PUSH0 PUSH1 0x20 DUP3 DUP5 SUB SLT ISZERO PUSH2 0x264C JUMPI PUSH2 0x264B PUSH2 0x206E JUMP JUMPDEST JUMPDEST PUSH0 PUSH2 0x2659 DUP5 DUP3 DUP6 ADD PUSH2 0x20BC JUMP JUMPDEST SWAP2 POP POP SWAP3 SWAP2 POP POP JUMP JUMPDEST PUSH0 PUSH1 0x20 DUP3 ADD SWAP1 POP PUSH2 0x2675 PUSH0 DUP4 ADD DUP5 PUSH2 0x2601 JUMP JUMPDEST SWAP3 SWAP2 POP POP JUMP JUMPDEST PUSH0 PUSH1 0x40 DUP3 ADD SWAP1 POP DUP2 DUP2 SUB PUSH0 DUP4 ADD MSTORE PUSH2 0x2693 DUP2 DUP6 PUSH2 0x200D JUMP JUMPDEST SWAP1 POP PUSH2 0x26A2 PUSH1 0x20 DUP4 ADD DUP5 PUSH2 0x2174 JUMP JUMPDEST SWAP4 SWAP3 POP POP POP JUMP JUMPDEST PUSH0 DUP1 PUSH1 0x40 DUP4 DUP6 SUB SLT ISZERO PUSH2 0x26BF JUMPI PUSH2 0x26BE PUSH2 0x206E JUMP JUMPDEST JUMPDEST PUSH0 DUP4 ADD CALLDATALOAD PUSH8 0xFFFFFFFFFFFFFFFF DUP2 GT ISZERO PUSH2 0x26DC JUMPI PUSH2 0x26DB PUSH2 0x2072 JUMP JUMPDEST JUMPDEST PUSH2 0x26E8 DUP6 DUP3 DUP7 ADD PUSH2 0x258D JUMP JUMPDEST SWAP3 POP POP PUSH1 0x20 PUSH2 0x26F9 DUP6 DUP3 DUP7 ADD PUSH2 0x20BC JUMP JUMPDEST SWAP2 POP POP SWAP3 POP SWAP3 SWAP1 POP JUMP JUMPDEST PUSH0 DUP1 PUSH1 0x40 DUP4 DUP6 SUB SLT ISZERO PUSH2 0x2719 JUMPI PUSH2 0x2718 PUSH2 0x206E JUMP JUMPDEST JUMPDEST PUSH0 PUSH2 0x2726 DUP6 DUP3 DUP7 ADD PUSH2 0x20EF JUMP JUMPDEST SWAP3 POP POP PUSH1 0x20 PUSH2 0x2737 DUP6 DUP3 DUP7 ADD PUSH2 0x20EF JUMP JUMPDEST SWAP2 POP POP SWAP3 POP SWAP3 SWAP1 POP JUMP JUMPDEST PUSH0 DUP1 PUSH1 0x40 DUP4 DUP6 SUB SLT ISZERO PUSH2 0x2757 JUMPI PUSH2 0x2756 PUSH2 0x206E JUMP JUMPDEST JUMPDEST PUSH0 PUSH2 0x2764 DUP6 DUP3 DUP7 ADD PUSH2 0x20BC JUMP JUMPDEST SWAP3 POP POP PUSH1 0x20 PUSH2 0x2775 DUP6 DUP3 DUP7 ADD PUSH2 0x20BC JUMP JUMPDEST SWAP2 POP POP SWAP3 POP SWAP3 SWAP1 POP JUMP JUMPDEST PUSH0 DUP2 MLOAD SWAP1 POP SWAP2 SWAP1 POP JUMP JUMPDEST PUSH0 DUP3 DUP3 MSTORE PUSH1 0x20 DUP3 ADD SWAP1 POP SWAP3 SWAP2 POP POP JUMP JUMPDEST PUSH0 DUP2 SWAP1 POP PUSH1 0x20 DUP3 ADD SWAP1 POP SWAP2 SWAP1 POP JUMP JUMPDEST PUSH0 PUSH2 0x27B3 DUP4 DUP4 PUSH2 0x220D JUMP JUMPDEST PUSH1 0x20 DUP4 ADD SWAP1 POP SWAP3 SWAP2 POP POP JUMP JUMPDEST PUSH0 PUSH1 0x20 DUP3 ADD SWAP1 POP SWAP2 SWAP1 POP JUMP JUMPDEST PUSH0 PUSH2 0x27D5 DUP3 PUSH2 0x277F JUMP JUMPDEST PUSH2 0x27DF DUP2 DUP6 PUSH2 0x2789 JUMP JUMPDEST SWAP4 POP PUSH2 0x27EA DUP4 PUSH2 0x2799 JUMP JUMPDEST DUP1 PUSH0 JUMPDEST DUP4 DUP2 LT ISZERO PUSH2 0x281A JUMPI DUP2 MLOAD PUSH2 0x2801 DUP9 DUP3 PUSH2 0x27A8 JUMP JUMPDEST SWAP8 POP PUSH2 0x280C DUP4 PUSH2 0x27BF JUMP JUMPDEST SWAP3 POP POP PUSH1 0x1 DUP2 ADD SWAP1 POP PUSH2 0x27ED JUMP JUMPDEST POP DUP6 SWAP4 POP POP POP POP SWAP3 SWAP2 POP POP JUMP JUMPDEST PUSH0 PUSH1 0x20 DUP3 ADD SWAP1 POP DUP2 DUP2 SUB PUSH0 DUP4 ADD MSTORE PUSH2 0x283F DUP2 DUP5 PUSH2 0x27CB JUMP JUMPDEST SWAP1 POP SWAP3 SWAP2 POP POP JUMP JUMPDEST PUSH0 DUP2 MLOAD SWAP1 POP SWAP2 SWAP1 POP JUMP JUMPDEST PUSH0 DUP3 DUP3 MSTORE PUSH1 0x20 DUP3 ADD SWAP1 POP SWAP3 SWAP2 POP POP JUMP JUMPDEST PUSH0 DUP2 SWAP1 POP PUSH1 0x20 DUP3 ADD SWAP1 POP SWAP2 SWAP1 POP JUMP JUMPDEST PUSH0 PUSH2 0x287B DUP4 DUP4 PUSH2 0x21D5 JUMP JUMPDEST SWAP1 POP SWAP3 SWAP2 POP POP JUMP JUMPDEST PUSH0 PUSH1 0x20 DUP3 ADD SWAP1 POP SWAP2 SWAP1 POP JUMP JUMPDEST PUSH0 PUSH2 0x2899 DUP3 PUSH2 0x2847 JUMP JUMPDEST PUSH2 0x28A3 DUP2 DUP6 PUSH2 0x2851 JUMP JUMPDEST SWAP4 POP DUP4 PUSH1 0x20 DUP3 MUL DUP6 ADD PUSH2 0x28B5 DUP6 PUSH2 0x2861 JUMP JUMPDEST DUP1 PUSH0 JUMPDEST DUP6 DUP2 LT ISZERO PUSH2 0x28F0 JUMPI DUP5 DUP5 SUB DUP10 MSTORE DUP2 MLOAD PUSH2 0x28D1 DUP6 DUP3 PUSH2 0x2870 JUMP JUMPDEST SWAP5 POP PUSH2 0x28DC DUP4 PUSH2 0x2883 JUMP JUMPDEST SWAP3 POP PUSH1 0x20 DUP11 ADD SWAP10 POP POP PUSH1 0x1 DUP2 ADD SWAP1 POP PUSH2 0x28B8 JUMP JUMPDEST POP DUP3 SWAP8 POP DUP8 SWAP6 POP POP POP POP POP POP SWAP3 SWAP2 POP POP JUMP JUMPDEST PUSH0 PUSH1 0x40 DUP3 ADD SWAP1 POP DUP2 DUP2 SUB PUSH0 DUP4 ADD MSTORE PUSH2 0x291A DUP2 DUP6 PUSH2 0x288F JUMP JUMPDEST SWAP1 POP DUP2 DUP2 SUB PUSH1 0x20 DUP4 ADD MSTORE PUSH2 0x292E DUP2 DUP5 PUSH2 0x27CB JUMP JUMPDEST SWAP1 POP SWAP4 SWAP3 POP POP POP JUMP JUMPDEST PUSH32 0x4E487B7100000000000000000000000000000000000000000000000000000000 PUSH0 MSTORE PUSH1 0x22 PUSH1 0x4 MSTORE PUSH1 0x24 PUSH0 REVERT JUMPDEST PUSH0 PUSH1 0x2 DUP3 DIV SWAP1 POP PUSH1 0x1 DUP3 AND DUP1 PUSH2 0x297B JUMPI PUSH1 0x7F DUP3 AND SWAP2 POP JUMPDEST PUSH1 0x20 DUP3 LT DUP2 SUB PUSH2 0x298E JUMPI PUSH2 0x298D PUSH2 0x2937 JUMP JUMPDEST JUMPDEST POP SWAP2 SWAP1 POP JUMP JUMPDEST PUSH32 0x4E6F206572657320656C2070726F706965746172696F2064652065737461206D PUSH0 DUP3 ADD MSTORE PUSH32 0x6573610000000000000000000000000000000000000000000000000000000000 PUSH1 0x20 DUP3 ADD MSTORE POP JUMP JUMPDEST PUSH0 PUSH2 0x29EE PUSH1 0x23 DUP4 PUSH2 0x1FDF JUMP JUMPDEST SWAP2 POP PUSH2 0x29F9 DUP3 PUSH2 0x2994 JUMP JUMPDEST PUSH1 0x40 DUP3 ADD SWAP1 POP SWAP2 SWAP1 POP JUMP JUMPDEST PUSH0 PUSH1 0x20 DUP3 ADD SWAP1 POP DUP2 DUP2 SUB PUSH0 DUP4 ADD MSTORE PUSH2 0x2A1B DUP2 PUSH2 0x29E2 JUMP JUMPDEST SWAP1 POP SWAP2 SWAP1 POP JUMP JUMPDEST PUSH32 0x45737461206D6573612079612065737461206162696572746100000000000000 PUSH0 DUP3 ADD MSTORE POP JUMP JUMPDEST PUSH0 PUSH2 0x2A56 PUSH1 0x19 DUP4 PUSH2 0x1FDF JUMP JUMPDEST SWAP2 POP PUSH2 0x2A61 DUP3 PUSH2 0x2A22 JUMP JUMPDEST PUSH1 0x20 DUP3 ADD SWAP1 POP SWAP2 SWAP1 POP JUMP JUMPDEST PUSH0 PUSH1 0x20 DUP3 ADD SWAP1 POP DUP2 DUP2 SUB PUSH0 DUP4 ADD MSTORE PUSH2 0x2A83 DUP2 PUSH2 0x2A4A JUMP JUMPDEST SWAP1 POP SWAP2 SWAP1 POP JUMP JUMPDEST PUSH0 DUP2 SWAP1 POP DUP2 PUSH0 MSTORE PUSH1 0x20 PUSH0 KECCAK256 SWAP1 POP SWAP2 SWAP1 POP JUMP JUMPDEST PUSH0 PUSH1 0x20 PUSH1 0x1F DUP4 ADD DIV SWAP1 POP SWAP2 SWAP1 POP JUMP JUMPDEST PUSH0 DUP3 DUP3 SHL SWAP1 POP SWAP3 SWAP2 POP POP JUMP JUMPDEST PUSH0 PUSH1 0x8 DUP4 MUL PUSH2 0x2AE6 PUSH32 0xFFFFFFFFFFFFFFFFFFFFFFFFFFFFFFFFFFFFFFFFFFFFFFFFFFFFFFFFFFFFFFFF DUP3 PUSH2 0x2AAB JUMP JUMPDEST PUSH2 0x2AF0 DUP7 DUP4 PUSH2 0x2AAB JUMP JUMPDEST SWAP6 POP DUP1 NOT DUP5 AND SWAP4 POP DUP1 DUP7 AND DUP5 OR SWAP3 POP POP POP SWAP4 SWAP3 POP POP POP JUMP JUMPDEST PUSH0 DUP2 SWAP1 POP SWAP2 SWAP1 POP JUMP JUMPDEST PUSH0 PUSH2 0x2B2B PUSH2 0x2B26 PUSH2 0x2B21 DUP5 PUSH2 0x20D0 JUMP JUMPDEST PUSH2 0x2B08 JUMP JUMPDEST PUSH2 0x20D0 JUMP JUMPDEST SWAP1 POP SWAP2 SWAP1 POP JUMP JUMPDEST PUSH0 DUP2 SWAP1 POP SWAP2 SWAP1 POP JUMP JUMPDEST PUSH2 0x2B44 DUP4 PUSH2 0x2B11 JUMP JUMPDEST PUSH2 0x2B58 PUSH2 0x2B50 DUP3 PUSH2 0x2B32 JUMP JUMPDEST DUP5 DUP5 SLOAD PUSH2 0x2AB7 JUMP JUMPDEST DUP3 SSTORE POP POP POP POP JUMP JUMPDEST PUSH0 SWAP1 JUMP JUMPDEST PUSH2 0x2B6C PUSH2 0x2B60 JUMP JUMPDEST PUSH2 0x2B77 DUP2 DUP5 DUP5 PUSH2 0x2B3B JUMP JUMPDEST POP POP POP JUMP JUMPDEST JUMPDEST DUP2 DUP2 LT ISZERO PUSH2 0x2B9A JUMPI PUSH2 0x2B8F PUSH0 DUP3 PUSH2 0x2B64 JUMP JUMPDEST PUSH1 0x1 DUP2 ADD SWAP1 POP PUSH2 0x2B7D JUMP JUMPDEST POP POP JUMP JUMPDEST PUSH1 0x1F DUP3 GT ISZERO PUSH2 0x2BDF JUMPI PUSH2 0x2BB0 DUP2 PUSH2 0x2A8A JUMP JUMPDEST PUSH2 0x2BB9 DUP5 PUSH2 0x2A9C JUMP JUMPDEST DUP2 ADD PUSH1 0x20 DUP6 LT ISZERO PUSH2 0x2BC8 JUMPI DUP2 SWAP1 POP JUMPDEST PUSH2 0x2BDC PUSH2 0x2BD4 DUP6 PUSH2 0x2A9C JUMP JUMPDEST DUP4 ADD DUP3 PUSH2 0x2B7C JUMP JUMPDEST POP POP JUMPDEST POP POP POP JUMP JUMPDEST PUSH0 DUP3 DUP3 SHR SWAP1 POP SWAP3 SWAP2 POP POP JUMP JUMPDEST PUSH0 PUSH2 0x2BFF PUSH0 NOT DUP5 PUSH1 0x8 MUL PUSH2 0x2BE4 JUMP JUMPDEST NOT DUP1 DUP4 AND SWAP2 POP POP SWAP3 SWAP2 POP POP JUMP JUMPDEST PUSH0 PUSH2 0x2C17 DUP4 DUP4 PUSH2 0x2BF0 JUMP JUMPDEST SWAP2 POP DUP3 PUSH1 0x2 MUL DUP3 OR SWAP1 POP SWAP3 SWAP2 POP POP JUMP JUMPDEST PUSH2 0x2C30 DUP3 PUSH2 0x1FD5 JUMP JUMPDEST PUSH8 0xFFFFFFFFFFFFFFFF DUP2 GT ISZERO PUSH2 0x2C49 JUMPI PUSH2 0x2C48 PUSH2 0x2496 JUMP JUMPDEST JUMPDEST PUSH2 0x2C53 DUP3 SLOAD PUSH2 0x2964 JUMP JUMPDEST PUSH2 0x2C5E DUP3 DUP3 DUP6 PUSH2 0x2B9E JUMP JUMPDEST PUSH0 PUSH1 0x20 SWAP1 POP PUSH1 0x1F DUP4 GT PUSH1 0x1 DUP2 EQ PUSH2 0x2C8F JUMPI PUSH0 DUP5 ISZERO PUSH2 0x2C7D JUMPI DUP3 DUP8 ADD MLOAD SWAP1 POP JUMPDEST PUSH2 0x2C87 DUP6 DUP3 PUSH2 0x2C0C JUMP JUMPDEST DUP7 SSTORE POP PUSH2 0x2CEE JUMP JUMPDEST PUSH1 0x1F NOT DUP5 AND PUSH2 0x2C9D DUP7 PUSH2 0x2A8A JUMP JUMPDEST PUSH0 JUMPDEST DUP3 DUP2 LT ISZERO PUSH2 0x2CC4 JUMPI DUP5 DUP10 ADD MLOAD DUP3 SSTORE PUSH1 0x1 DUP3 ADD SWAP2 POP PUSH1 0x20 DUP6 ADD SWAP5 POP PUSH1 0x20 DUP2 ADD SWAP1 POP PUSH2 0x2C9F JUMP JUMPDEST DUP7 DUP4 LT ISZERO PUSH2 0x2CE1 JUMPI DUP5 DUP10 ADD MLOAD PUSH2 0x2CDD PUSH1 0x1F DUP10 AND DUP3 PUSH2 0x2BF0 JUMP JUMPDEST DUP4 SSTORE POP JUMPDEST PUSH1 0x1 PUSH1 0x2 DUP9 MUL ADD DUP9 SSTORE POP POP POP JUMPDEST POP POP POP POP POP POP JUMP JUMPDEST PUSH32 0x45737461206D6573612079612065737461206365727261646100000000000000 PUSH0 DUP3 ADD MSTORE POP JUMP JUMPDEST PUSH0 PUSH2 0x2D2A PUSH1 0x19 DUP4 PUSH2 0x1FDF JUMP JUMPDEST SWAP2 POP PUSH2 0x2D35 DUP3 PUSH2 0x2CF6 JUMP JUMPDEST PUSH1 0x20 DUP3 ADD SWAP1 POP SWAP2 SWAP1 POP JUMP JUMPDEST PUSH0 PUSH1 0x20 DUP3 ADD SWAP1 POP DUP2 DUP2 SUB PUSH0 DUP4 ADD MSTORE PUSH2 0x2D57 DUP2 PUSH2 0x2D1E JUMP JUMPDEST SWAP1 POP SWAP2 SWAP1 POP JUMP JUMPDEST PUSH32 0x4E487B7100000000000000000000000000000000000000000000000000000000 PUSH0 MSTORE PUSH1 0x11 PUSH1 0x4 MSTORE PUSH1 0x24 PUSH0 REVERT JUMPDEST PUSH0 PUSH2 0x2D95 DUP3 PUSH2 0x20D0 JUMP JUMPDEST SWAP2 POP PUSH32 0xFFFFFFFFFFFFFFFFFFFFFFFFFFFFFFFFFFFFFFFFFFFFFFFFFFFFFFFFFFFFFFFF DUP3 SUB PUSH2 0x2DC7 JUMPI PUSH2 0x2DC6 PUSH2 0x2D5E JUMP JUMPDEST JUMPDEST PUSH1 0x1 DUP3 ADD SWAP1 POP SWAP2 SWAP1 POP JUMP JUMPDEST PUSH0 PUSH2 0x2DDC DUP3 PUSH2 0x20D0 JUMP JUMPDEST SWAP2 POP PUSH2 0x2DE7 DUP4 PUSH2 0x20D0 JUMP JUMPDEST SWAP3 POP DUP3 DUP3 SUB SWAP1 POP DUP2 DUP2 GT ISZERO PUSH2 0x2DFF JUMPI PUSH2 0x2DFE PUSH2 0x2D5E JUMP JUMPDEST JUMPDEST SWAP3 SWAP2 POP POP JUMP JUMPDEST PUSH32 0x4E6F207469656E657320737566696369656E74657320746F6B656E7320706172 PUSH0 DUP3 ADD MSTORE PUSH32 0x6120766F74617200000000000000000000000000000000000000000000000000 PUSH1 0x20 DUP3 ADD MSTORE POP JUMP JUMPDEST PUSH0 PUSH2 0x2E5F PUSH1 0x27 DUP4 PUSH2 0x1FDF JUMP JUMPDEST SWAP2 POP PUSH2 0x2E6A DUP3 PUSH2 0x2E05 JUMP JUMPDEST PUSH1 0x40 DUP3 ADD SWAP1 POP SWAP2 SWAP1 POP JUMP JUMPDEST PUSH0 PUSH1 0x20 DUP3 ADD SWAP1 POP DUP2 DUP2 SUB PUSH0 DUP4 ADD MSTORE PUSH2 0x2E8C DUP2 PUSH2 0x2E53 JUMP JUMPDEST SWAP1 POP SWAP2 SWAP1 POP JUMP JUMPDEST PUSH32 0x59612068617320766F7461646F20656E2065737461206D657361000000000000 PUSH0 DUP3 ADD MSTORE POP JUMP JUMPDEST PUSH0 PUSH2 0x2EC7 PUSH1 0x1A DUP4 PUSH2 0x1FDF JUMP JUMPDEST SWAP2 POP PUSH2 0x2ED2 DUP3 PUSH2 0x2E93 JUMP JUMPDEST PUSH1 0x20 DUP3 ADD SWAP1 POP SWAP2 SWAP1 POP JUMP JUMPDEST PUSH0 PUSH1 0x20 DUP3 ADD SWAP1 POP DUP2 DUP2 SUB PUSH0 DUP4 ADD MSTORE PUSH2 0x2EF4 DUP2 PUSH2 0x2EBB JUMP JUMPDEST SWAP1 POP SWAP2 SWAP1 POP JUMP JUMPDEST PUSH32 0x43616E64696461746F206E6F20656E636F6E747261646F000000000000000000 PUSH0 DUP3 ADD MSTORE POP JUMP JUMPDEST PUSH0 PUSH2 0x2F2F PUSH1 0x17 DUP4 PUSH2 0x1FDF JUMP JUMPDEST SWAP2 POP PUSH2 0x2F3A DUP3 PUSH2 0x2EFB JUMP JUMPDEST PUSH1 0x20 DUP3 ADD SWAP1 POP SWAP2 SWAP1 POP JUMP JUMPDEST PUSH0 PUSH1 0x20 DUP3 ADD SWAP1 POP DUP2 DUP2 SUB PUSH0 DUP4 ADD MSTORE PUSH2 0x2F5C DUP2 PUSH2 0x2F23 JUMP JUMPDEST SWAP1 POP SWAP2 SWAP1 POP JUMP JUMPDEST PUSH32 0x45737461206D657361206E6F2065737461206162696572746120706172612076 PUSH0 DUP3 ADD MSTORE PUSH32 0x6F746163696F6E00000000000000000000000000000000000000000000000000 PUSH1 0x20 DUP3 ADD MSTORE POP JUMP JUMPDEST PUSH0 PUSH2 0x2FBD PUSH1 0x27 DUP4 PUSH2 0x1FDF JUMP JUMPDEST SWAP2 POP PUSH2 0x2FC8 DUP3 PUSH2 0x2F63 JUMP JUMPDEST PUSH1 0x40 DUP3 ADD SWAP1 POP SWAP2 SWAP1 POP JUMP JUMPDEST PUSH0 PUSH1 0x20 DUP3 ADD SWAP1 POP DUP2 DUP2 SUB PUSH0 DUP4 ADD MSTORE PUSH2 0x2FEA DUP2 PUSH2 0x2FB1 JUMP JUMPDEST SWAP1 POP SWAP2 SWAP1 POP JUMP JUMPDEST PUSH32 0x4E487B7100000000000000000000000000000000000000000000000000000000 PUSH0 MSTORE PUSH1 0x32 PUSH1 0x4 MSTORE PUSH1 0x24 PUSH0 REVERT JUMPDEST PUSH32 0x4573746120646972656363696F6E207961207265636962696F20737520746F6B PUSH0 DUP3 ADD MSTORE PUSH32 0x656E2079206E6F20736520707565646520646172206D61730000000000000000 PUSH1 0x20 DUP3 ADD MSTORE POP JUMP JUMPDEST PUSH0 PUSH2 0x3078 PUSH1 0x38 DUP4 PUSH2 0x1FDF JUMP JUMPDEST SWAP2 POP PUSH2 0x3083 DUP3 PUSH2 0x301E JUMP JUMPDEST PUSH1 0x40 DUP3 ADD SWAP1 POP SWAP2 SWAP1 POP JUMP JUMPDEST PUSH0 PUSH1 0x20 DUP3 ADD SWAP1 POP DUP2 DUP2 SUB PUSH0 DUP4 ADD MSTORE PUSH2 0x30A5 DUP2 PUSH2 0x306C JUMP JUMPDEST SWAP1 POP SWAP2 SWAP1 POP JUMP JUMPDEST PUSH0 PUSH2 0x30B6 DUP3 PUSH2 0x20D0 JUMP JUMPDEST SWAP2 POP PUSH2 0x30C1 DUP4 PUSH2 0x20D0 JUMP JUMPDEST SWAP3 POP DUP3 DUP3 ADD SWAP1 POP DUP1 DUP3 GT ISZERO PUSH2 0x30D9 JUMPI PUSH2 0x30D8 PUSH2 0x2D5E JUMP JUMPDEST JUMPDEST SWAP3 SWAP2 POP POP JUMP JUMPDEST PUSH0 PUSH1 0x60 DUP3 ADD SWAP1 POP PUSH2 0x30F2 PUSH0 DUP4 ADD DUP7 PUSH2 0x2601 JUMP JUMPDEST PUSH2 0x30FF PUSH1 0x20 DUP4 ADD DUP6 PUSH2 0x2174 JUMP JUMPDEST PUSH2 0x310C PUSH1 0x40 DUP4 ADD DUP5 PUSH2 0x2174 JUMP JUMPDEST SWAP5 SWAP4 POP POP POP POP JUMP INVALID LOG2 PUSH5 0x6970667358 0x22 SLT KECCAK256 0xB3 SHR CODECOPY 0xE STATICCALL 0x2F SWAP14 0xD7 0xBA 0xA8 0xD5 GASPRICE PUSH2 0xC339 PUSH23 0x6EE5CF127E87D15D6764DEE44B2F0C4664736F6C634300 ADDMOD NOT STOP CALLER "
		},
		"gasEstimates": {
			"creation": {
				"codeDepositCost": "2523600",
				"executionCost": "infinite",
				"totalCost": "infinite"
			},
			"external": {
				"abrirMesa(uint256)": "29304",
				"abrirTodasLasMesas()": "infinite",
				"agregarCandidato(string)": "infinite",
				"agregarMesa(string,address)": "infinite",
				"allowance(address,address)": "infinite",
				"approve(address,uint256)": "infinite",
				"balanceOf(address)": "2896",
				"candidatos(uint256)": "infinite",
				"cerrarMesa(uint256)": "29343",
				"cerrarTodasLasMesas()": "infinite",
				"contarRecuentoTotal()": "infinite",
				"decimals()": "450",
				"getAllCandidatos()": "infinite",
				"getTokenRecipients()": "infinite",
				"mesas(uint256)": "5147",
				"mint(uint256)": "infinite",
				"name()": "infinite",
				"numMesas()": "2514",
				"obtenerRecuentoVotos(uint256)": "infinite",
				"owner()": "2561",
				"renounceOwnership()": "infinite",
				"symbol()": "infinite",
				"totalSupply()": "2523",
				"transfer(address,uint256)": "infinite",
				"transferFrom(address,address,uint256)": "infinite",
				"transferOwnership(address)": "infinite",
				"transferToken(address)": "infinite",
				"vote(uint256,uint256)": "infinite"
			}
		},
		"methodIdentifiers": {
			"abrirMesa(uint256)": "445bef35",
			"abrirTodasLasMesas()": "b3f179ba",
			"agregarCandidato(string)": "503c560f",
			"agregarMesa(string,address)": "a0bdafda",
			"allowance(address,address)": "dd62ed3e",
			"approve(address,uint256)": "095ea7b3",
			"balanceOf(address)": "70a08231",
			"candidatos(uint256)": "8f023f85",
			"cerrarMesa(uint256)": "8a9ac1d2",
			"cerrarTodasLasMesas()": "2580e9fb",
			"contarRecuentoTotal()": "fac07d2a",
			"decimals()": "313ce567",
			"getAllCandidatos()": "198cc691",
			"getTokenRecipients()": "32bf68d4",
			"mesas(uint256)": "5b94ea10",
			"mint(uint256)": "a0712d68",
			"name()": "06fdde03",
			"numMesas()": "dd670ed7",
			"obtenerRecuentoVotos(uint256)": "ebc34d24",
			"owner()": "8da5cb5b",
			"renounceOwnership()": "715018a6",
			"symbol()": "95d89b41",
			"totalSupply()": "18160ddd",
			"transfer(address,uint256)": "a9059cbb",
			"transferFrom(address,address,uint256)": "23b872dd",
			"transferOwnership(address)": "f2fde38b",
			"transferToken(address)": "deebeac9",
			"vote(uint256,uint256)": "b384abef"
		}
	},
	"abi": [
		{
			"inputs": [],
			"stateMutability": "nonpayable",
			"type": "constructor"
		},
		{
			"inputs": [
				{
					"internalType": "address",
					"name": "spender",
					"type": "address"
				},
				{
					"internalType": "uint256",
					"name": "allowance",
					"type": "uint256"
				},
				{
					"internalType": "uint256",
					"name": "needed",
					"type": "uint256"
				}
			],
			"name": "ERC20InsufficientAllowance",
			"type": "error"
		},
		{
			"inputs": [
				{
					"internalType": "address",
					"name": "sender",
					"type": "address"
				},
				{
					"internalType": "uint256",
					"name": "balance",
					"type": "uint256"
				},
				{
					"internalType": "uint256",
					"name": "needed",
					"type": "uint256"
				}
			],
			"name": "ERC20InsufficientBalance",
			"type": "error"
		},
		{
			"inputs": [
				{
					"internalType": "address",
					"name": "approver",
					"type": "address"
				}
			],
			"name": "ERC20InvalidApprover",
			"type": "error"
		},
		{
			"inputs": [
				{
					"internalType": "address",
					"name": "receiver",
					"type": "address"
				}
			],
			"name": "ERC20InvalidReceiver",
			"type": "error"
		},
		{
			"inputs": [
				{
					"internalType": "address",
					"name": "sender",
					"type": "address"
				}
			],
			"name": "ERC20InvalidSender",
			"type": "error"
		},
		{
			"inputs": [
				{
					"internalType": "address",
					"name": "spender",
					"type": "address"
				}
			],
			"name": "ERC20InvalidSpender",
			"type": "error"
		},
		{
			"inputs": [
				{
					"internalType": "address",
					"name": "owner",
					"type": "address"
				}
			],
			"name": "OwnableInvalidOwner",
			"type": "error"
		},
		{
			"inputs": [
				{
					"internalType": "address",
					"name": "account",
					"type": "address"
				}
			],
			"name": "OwnableUnauthorizedAccount",
			"type": "error"
		},
		{
			"anonymous": false,
			"inputs": [
				{
					"indexed": true,
					"internalType": "address",
					"name": "owner",
					"type": "address"
				},
				{
					"indexed": true,
					"internalType": "address",
					"name": "spender",
					"type": "address"
				},
				{
					"indexed": false,
					"internalType": "uint256",
					"name": "value",
					"type": "uint256"
				}
			],
			"name": "Approval",
			"type": "event"
		},
		{
			"anonymous": false,
			"inputs": [
				{
					"indexed": false,
					"internalType": "string",
					"name": "nombre",
					"type": "string"
				}
			],
			"name": "CandidatoAgregado",
			"type": "event"
		},
		{
			"anonymous": false,
			"inputs": [
				{
					"indexed": true,
					"internalType": "uint256",
					"name": "mesaIndex",
					"type": "uint256"
				},
				{
					"indexed": false,
					"internalType": "string",
					"name": "nombreMesa",
					"type": "string"
				}
			],
			"name": "NuevaMesaAbierta",
			"type": "event"
		},
		{
			"anonymous": false,
			"inputs": [
				{
					"indexed": true,
					"internalType": "address",
					"name": "previousOwner",
					"type": "address"
				},
				{
					"indexed": true,
					"internalType": "address",
					"name": "newOwner",
					"type": "address"
				}
			],
			"name": "OwnershipTransferred",
			"type": "event"
		},
		{
			"anonymous": false,
			"inputs": [
				{
					"indexed": true,
					"internalType": "address",
					"name": "from",
					"type": "address"
				},
				{
					"indexed": true,
					"internalType": "address",
					"name": "to",
					"type": "address"
				},
				{
					"indexed": false,
					"internalType": "uint256",
					"name": "value",
					"type": "uint256"
				}
			],
			"name": "Transfer",
			"type": "event"
		},
		{
			"inputs": [
				{
					"internalType": "uint256",
					"name": "_mesaIndex",
					"type": "uint256"
				}
			],
			"name": "abrirMesa",
			"outputs": [],
			"stateMutability": "nonpayable",
			"type": "function"
		},
		{
			"inputs": [],
			"name": "abrirTodasLasMesas",
			"outputs": [],
			"stateMutability": "nonpayable",
			"type": "function"
		},
		{
			"inputs": [
				{
					"internalType": "string",
					"name": "_nombre",
					"type": "string"
				}
			],
			"name": "agregarCandidato",
			"outputs": [],
			"stateMutability": "nonpayable",
			"type": "function"
		},
		{
			"inputs": [
				{
					"internalType": "string",
					"name": "_nombre",
					"type": "string"
				},
				{
					"internalType": "address",
					"name": "_owner",
					"type": "address"
				}
			],
			"name": "agregarMesa",
			"outputs": [],
			"stateMutability": "nonpayable",
			"type": "function"
		},
		{
			"inputs": [
				{
					"internalType": "address",
					"name": "owner",
					"type": "address"
				},
				{
					"internalType": "address",
					"name": "spender",
					"type": "address"
				}
			],
			"name": "allowance",
			"outputs": [
				{
					"internalType": "uint256",
					"name": "",
					"type": "uint256"
				}
			],
			"stateMutability": "view",
			"type": "function"
		},
		{
			"inputs": [
				{
					"internalType": "address",
					"name": "spender",
					"type": "address"
				},
				{
					"internalType": "uint256",
					"name": "value",
					"type": "uint256"
				}
			],
			"name": "approve",
			"outputs": [
				{
					"internalType": "bool",
					"name": "",
					"type": "bool"
				}
			],
			"stateMutability": "nonpayable",
			"type": "function"
		},
		{
			"inputs": [
				{
					"internalType": "address",
					"name": "account",
					"type": "address"
				}
			],
			"name": "balanceOf",
			"outputs": [
				{
					"internalType": "uint256",
					"name": "",
					"type": "uint256"
				}
			],
			"stateMutability": "view",
			"type": "function"
		},
		{
			"inputs": [
				{
					"internalType": "uint256",
					"name": "",
					"type": "uint256"
				}
			],
			"name": "candidatos",
			"outputs": [
				{
					"internalType": "string",
					"name": "name",
					"type": "string"
				},
				{
					"internalType": "uint256",
					"name": "votos",
					"type": "uint256"
				}
			],
			"stateMutability": "view",
			"type": "function"
		},
		{
			"inputs": [
				{
					"internalType": "uint256",
					"name": "_mesaIndex",
					"type": "uint256"
				}
			],
			"name": "cerrarMesa",
			"outputs": [],
			"stateMutability": "nonpayable",
			"type": "function"
		},
		{
			"inputs": [],
			"name": "cerrarTodasLasMesas",
			"outputs": [],
			"stateMutability": "nonpayable",
			"type": "function"
		},
		{
			"inputs": [],
			"name": "contarRecuentoTotal",
			"outputs": [
				{
					"internalType": "string[]",
					"name": "nombres",
					"type": "string[]"
				},
				{
					"internalType": "uint256[]",
					"name": "votos",
					"type": "uint256[]"
				}
			],
			"stateMutability": "view",
			"type": "function"
		},
		{
			"inputs": [],
			"name": "decimals",
			"outputs": [
				{
					"internalType": "uint8",
					"name": "",
					"type": "uint8"
				}
			],
			"stateMutability": "view",
			"type": "function"
		},
		{
			"inputs": [],
			"name": "getAllCandidatos",
			"outputs": [
				{
					"components": [
						{
							"internalType": "string",
							"name": "name",
							"type": "string"
						},
						{
							"internalType": "uint256",
							"name": "votos",
							"type": "uint256"
						}
					],
					"internalType": "struct Candidatos.Candidato[]",
					"name": "",
					"type": "tuple[]"
				}
			],
			"stateMutability": "view",
			"type": "function"
		},
		{
			"inputs": [],
			"name": "getTokenRecipients",
			"outputs": [
				{
					"internalType": "address[]",
					"name": "",
					"type": "address[]"
				}
			],
			"stateMutability": "view",
			"type": "function"
		},
		{
			"inputs": [
				{
					"internalType": "uint256",
					"name": "",
					"type": "uint256"
				}
			],
			"name": "mesas",
			"outputs": [
				{
					"internalType": "address",
					"name": "owner",
					"type": "address"
				},
				{
					"internalType": "bool",
					"name": "isOpen",
					"type": "bool"
				}
			],
			"stateMutability": "view",
			"type": "function"
		},
		{
			"inputs": [
				{
					"internalType": "uint256",
					"name": "_cantidad",
					"type": "uint256"
				}
			],
			"name": "mint",
			"outputs": [],
			"stateMutability": "nonpayable",
			"type": "function"
		},
		{
			"inputs": [],
			"name": "name",
			"outputs": [
				{
					"internalType": "string",
					"name": "",
					"type": "string"
				}
			],
			"stateMutability": "view",
			"type": "function"
		},
		{
			"inputs": [],
			"name": "numMesas",
			"outputs": [
				{
					"internalType": "uint256",
					"name": "",
					"type": "uint256"
				}
			],
			"stateMutability": "view",
			"type": "function"
		},
		{
			"inputs": [
				{
					"internalType": "uint256",
					"name": "_mesaIndex",
					"type": "uint256"
				}
			],
			"name": "obtenerRecuentoVotos",
			"outputs": [
				{
					"internalType": "uint256[]",
					"name": "",
					"type": "uint256[]"
				}
			],
			"stateMutability": "view",
			"type": "function"
		},
		{
			"inputs": [],
			"name": "owner",
			"outputs": [
				{
					"internalType": "address",
					"name": "",
					"type": "address"
				}
			],
			"stateMutability": "view",
			"type": "function"
		},
		{
			"inputs": [],
			"name": "renounceOwnership",
			"outputs": [],
			"stateMutability": "nonpayable",
			"type": "function"
		},
		{
			"inputs": [],
			"name": "symbol",
			"outputs": [
				{
					"internalType": "string",
					"name": "",
					"type": "string"
				}
			],
			"stateMutability": "view",
			"type": "function"
		},
		{
			"inputs": [],
			"name": "totalSupply",
			"outputs": [
				{
					"internalType": "uint256",
					"name": "",
					"type": "uint256"
				}
			],
			"stateMutability": "view",
			"type": "function"
		},
		{
			"inputs": [
				{
					"internalType": "address",
					"name": "to",
					"type": "address"
				},
				{
					"internalType": "uint256",
					"name": "value",
					"type": "uint256"
				}
			],
			"name": "transfer",
			"outputs": [
				{
					"internalType": "bool",
					"name": "",
					"type": "bool"
				}
			],
			"stateMutability": "nonpayable",
			"type": "function"
		},
		{
			"inputs": [
				{
					"internalType": "address",
					"name": "from",
					"type": "address"
				},
				{
					"internalType": "address",
					"name": "to",
					"type": "address"
				},
				{
					"internalType": "uint256",
					"name": "value",
					"type": "uint256"
				}
			],
			"name": "transferFrom",
			"outputs": [
				{
					"internalType": "bool",
					"name": "",
					"type": "bool"
				}
			],
			"stateMutability": "nonpayable",
			"type": "function"
		},
		{
			"inputs": [
				{
					"internalType": "address",
					"name": "newOwner",
					"type": "address"
				}
			],
			"name": "transferOwnership",
			"outputs": [],
			"stateMutability": "nonpayable",
			"type": "function"
		},
		{
			"inputs": [
				{
					"internalType": "address",
					"name": "_to",
					"type": "address"
				}
			],
			"name": "transferToken",
			"outputs": [
				{
					"internalType": "bool",
					"name": "",
					"type": "bool"
				}
			],
			"stateMutability": "nonpayable",
			"type": "function"
		},
		{
			"inputs": [
				{
					"internalType": "uint256",
					"name": "_candidatoIndex",
					"type": "uint256"
				},
				{
					"internalType": "uint256",
					"name": "_mesaIndex",
					"type": "uint256"
				}
			],
			"name": "vote",
			"outputs": [],
			"stateMutability": "payable",
			"type": "function"
		}
	]
}