{
	"data": {
		"bytecode": {
			"linkReferences": {},
			"object": "6080604052348015600e575f80fd5b50612f508061001c5f395ff3fe608060405234801561000f575f80fd5b506004361061004a575f3560e01c80631c039ed01461004e5780631cd3f8ae1461007e5780638ec91c29146100ae57806399ab8fa1146100b8575b5f80fd5b6100686004803603810190610063919061035b565b6100d6565b60405161007591906103a0565b60405180910390f35b610098600480360381019061009391906103ec565b6100f3565b6040516100a59190610426565b60405180910390f35b6100b661012d565b005b6100c0610266565b6040516100cd91906104f6565b60405180910390f35b6001602052805f5260405f205f915054906101000a900460ff1681565b5f8181548110610101575f80fd5b905f5260205f20015f915054906101000a900473ffffffffffffffffffffffffffffffffffffffff1681565b5f60405161013a906102f0565b604051809103905ff080158015610153573d5f803e3d5ffd5b5090505f81908060018154018082558091505060019003905f5260205f20015f9091909190916101000a81548173ffffffffffffffffffffffffffffffffffffffff021916908373ffffffffffffffffffffffffffffffffffffffff1602179055506001805f8373ffffffffffffffffffffffffffffffffffffffff1673ffffffffffffffffffffffffffffffffffffffff1681526020019081526020015f205f6101000a81548160ff0219169083151502179055503373ffffffffffffffffffffffffffffffffffffffff168173ffffffffffffffffffffffffffffffffffffffff167feae12937b704941e79edd16eab80437032495c0e717dedf69ad688ff936fdd3160405160405180910390a350565b60605f8054806020026020016040519081016040528092919081815260200182805480156102e657602002820191905f5260205f20905b815f9054906101000a900473ffffffffffffffffffffffffffffffffffffffff1673ffffffffffffffffffffffffffffffffffffffff168152602001906001019080831161029d575b5050505050905090565b612a048061051783390190565b5f80fd5b5f73ffffffffffffffffffffffffffffffffffffffff82169050919050565b5f61032a82610301565b9050919050565b61033a81610320565b8114610344575f80fd5b50565b5f8135905061035581610331565b92915050565b5f602082840312156103705761036f6102fd565b5b5f61037d84828501610347565b91505092915050565b5f8115159050919050565b61039a81610386565b82525050565b5f6020820190506103b35f830184610391565b92915050565b5f819050919050565b6103cb816103b9565b81146103d5575f80fd5b50565b5f813590506103e6816103c2565b92915050565b5f60208284031215610401576104006102fd565b5b5f61040e848285016103d8565b91505092915050565b61042081610320565b82525050565b5f6020820190506104395f830184610417565b92915050565b5f81519050919050565b5f82825260208201905092915050565b5f819050602082019050919050565b61047181610320565b82525050565b5f6104828383610468565b60208301905092915050565b5f602082019050919050565b5f6104a48261043f565b6104ae8185610449565b93506104b983610459565b805f5b838110156104e95781516104d08882610477565b97506104db8361048e565b9250506001810190506104bc565b5085935050505092915050565b5f6020820190508181035f83015261050e818461049a565b90509291505056fe608060405234801561000f575f80fd5b506040518060400160405280600781526020017f4d79546f6b656e000000000000000000000000000000000000000000000000008152506040518060400160405280600381526020017f4d544b0000000000000000000000000000000000000000000000000000000000815250816003908161008b91906105cd565b50806004908161009b91906105cd565b5050503360065f6101000a81548173ffffffffffffffffffffffffffffffffffffffff021916908373ffffffffffffffffffffffffffffffffffffffff1602179055506100f0306103e86100f560201b60201c565b6107b1565b5f73ffffffffffffffffffffffffffffffffffffffff168273ffffffffffffffffffffffffffffffffffffffff1603610165575f6040517fec442f0500000000000000000000000000000000000000000000000000000000815260040161015c91906106db565b60405180910390fd5b6101765f838361017a60201b60201c565b5050565b5f73ffffffffffffffffffffffffffffffffffffffff168373ffffffffffffffffffffffffffffffffffffffff16036101ca578060025f8282546101be9190610721565b92505081905550610298565b5f805f8573ffffffffffffffffffffffffffffffffffffffff1673ffffffffffffffffffffffffffffffffffffffff1681526020019081526020015f2054905081811015610253578381836040517fe450d38c00000000000000000000000000000000000000000000000000000000815260040161024a93929190610763565b60405180910390fd5b8181035f808673ffffffffffffffffffffffffffffffffffffffff1673ffffffffffffffffffffffffffffffffffffffff1681526020019081526020015f2081905550505b5f73ffffffffffffffffffffffffffffffffffffffff168273ffffffffffffffffffffffffffffffffffffffff16036102df578060025f8282540392505081905550610329565b805f808473ffffffffffffffffffffffffffffffffffffffff1673ffffffffffffffffffffffffffffffffffffffff1681526020019081526020015f205f82825401925050819055505b8173ffffffffffffffffffffffffffffffffffffffff168373ffffffffffffffffffffffffffffffffffffffff167fddf252ad1be2c89b69c2b068fc378daa952ba7f163c4a11628f55a4df523b3ef836040516103869190610798565b60405180910390a3505050565b5f81519050919050565b7f4e487b71000000000000000000000000000000000000000000000000000000005f52604160045260245ffd5b7f4e487b71000000000000000000000000000000000000000000000000000000005f52602260045260245ffd5b5f600282049050600182168061040e57607f821691505b602082108103610421576104206103ca565b5b50919050565b5f819050815f5260205f209050919050565b5f6020601f8301049050919050565b5f82821b905092915050565b5f600883026104837fffffffffffffffffffffffffffffffffffffffffffffffffffffffffffffffff82610448565b61048d8683610448565b95508019841693508086168417925050509392505050565b5f819050919050565b5f819050919050565b5f6104d16104cc6104c7846104a5565b6104ae565b6104a5565b9050919050565b5f819050919050565b6104ea836104b7565b6104fe6104f6826104d8565b848454610454565b825550505050565b5f90565b610512610506565b61051d8184846104e1565b505050565b5b81811015610540576105355f8261050a565b600181019050610523565b5050565b601f8211156105855761055681610427565b61055f84610439565b8101602085101561056e578190505b61058261057a85610439565b830182610522565b50505b505050565b5f82821c905092915050565b5f6105a55f198460080261058a565b1980831691505092915050565b5f6105bd8383610596565b9150826002028217905092915050565b6105d682610393565b67ffffffffffffffff8111156105ef576105ee61039d565b5b6105f982546103f7565b610604828285610544565b5f60209050601f831160018114610635575f8415610623578287015190505b61062d85826105b2565b865550610694565b601f19841661064386610427565b5f5b8281101561066a57848901518255600182019150602085019450602081019050610645565b868310156106875784890151610683601f891682610596565b8355505b6001600288020188555050505b505050505050565b5f73ffffffffffffffffffffffffffffffffffffffff82169050919050565b5f6106c58261069c565b9050919050565b6106d5816106bb565b82525050565b5f6020820190506106ee5f8301846106cc565b92915050565b7f4e487b71000000000000000000000000000000000000000000000000000000005f52601160045260245ffd5b5f61072b826104a5565b9150610736836104a5565b925082820190508082111561074e5761074d6106f4565b5b92915050565b61075d816104a5565b82525050565b5f6060820190506107765f8301866106cc565b6107836020830185610754565b6107906040830184610754565b949350505050565b5f6020820190506107ab5f830184610754565b92915050565b612246806107be5f395ff3fe608060405234801561000f575f80fd5b506004361061011f575f3560e01c8063503c560f116100ab578063a9059cbb1161006f578063a9059cbb1461031c578063c45a01551461034c578063dcd8db461461036a578063dd62ed3e1461039a578063deebeac9146103ca5761011f565b8063503c560f1461026557806370a08231146102815780638f023f85146102b157806395d89b41146102e2578063a0712d68146103005761011f565b806318160ddd116100f257806318160ddd146101bd578063198cc691146101db57806323b872dd146101f9578063313ce5671461022957806332bf68d4146102475761011f565b80630121b93f1461012357806306fdde031461013f578063095ea7b31461015d57806309eef43e1461018d575b5f80fd5b61013d6004803603810190610138919061151d565b6103e6565b005b61014761059d565b60405161015491906115b8565b60405180910390f35b61017760048036038101906101729190611632565b61062d565b604051610184919061168a565b60405180910390f35b6101a760048036038101906101a291906116a3565b61064f565b6040516101b4919061168a565b60405180910390f35b6101c561066c565b6040516101d291906116dd565b60405180910390f35b6101e3610675565b6040516101f09190611842565b60405180910390f35b610213600480360381019061020e9190611862565b61076a565b604051610220919061168a565b60405180910390f35b610231610798565b60405161023e91906118cd565b60405180910390f35b61024f6107a0565b60405161025c919061199d565b60405180910390f35b61027f600480360381019061027a9190611ae9565b61082b565b005b61029b600480360381019061029691906116a3565b610951565b6040516102a891906116dd565b60405180910390f35b6102cb60048036038101906102c6919061151d565b610996565b6040516102d9929190611b30565b60405180910390f35b6102ea610a4b565b6040516102f791906115b8565b60405180910390f35b61031a6004803603810190610315919061151d565b610adb565b005b61033660048036038101906103319190611632565b610b77565b604051610343919061168a565b60405180910390f35b610354610b99565b6040516103619190611b6d565b60405180910390f35b610384600480360381019061037f919061151d565b610bbe565b6040516103919190611b6d565b60405180910390f35b6103b460048036038101906103af9190611b86565b610bf9565b6040516103c191906116dd565b60405180910390f35b6103e460048036038101906103df91906116a3565b610c7b565b005b60016103f133610951565b14610431576040517f08c379a000000000000000000000000000000000000000000000000000000000815260040161042890611c34565b60405180910390fd5b60085f3373ffffffffffffffffffffffffffffffffffffffff1673ffffffffffffffffffffffffffffffffffffffff1681526020019081526020015f205f9054906101000a900460ff16156104bb576040517f08c379a00000000000000000000000000000000000000000000000000000000081526004016104b290611c9c565b60405180910390fd5b6005805490508110610502576040517f08c379a00000000000000000000000000000000000000000000000000000000081526004016104f990611d04565b60405180910390fd5b61050d336001610e58565b6005818154811061052157610520611d22565b5b905f5260205f2090600202016001015f81548092919061054090611d7c565b9190505550600160085f3373ffffffffffffffffffffffffffffffffffffffff1673ffffffffffffffffffffffffffffffffffffffff1681526020019081526020015f205f6101000a81548160ff02191690831515021790555050565b6060600380546105ac90611df0565b80601f01602080910402602001604051908101604052809291908181526020018280546105d890611df0565b80156106235780601f106105fa57610100808354040283529160200191610623565b820191905f5260205f20905b81548152906001019060200180831161060657829003601f168201915b5050505050905090565b5f80610637610ed7565b9050610644818585610ede565b600191505092915050565b6008602052805f5260405f205f915054906101000a900460ff1681565b5f600254905090565b60606005805480602002602001604051908101604052809291908181526020015f905b82821015610761578382905f5260205f2090600202016040518060400160405290815f820180546106c890611df0565b80601f01602080910402602001604051908101604052809291908181526020018280546106f490611df0565b801561073f5780601f106107165761010080835404028352916020019161073f565b820191905f5260205f20905b81548152906001019060200180831161072257829003601f168201915b5050505050815260200160018201548152505081526020019060010190610698565b50505050905090565b5f80610774610ed7565b9050610781858285610ef0565b61078c858585610f82565b60019150509392505050565b5f6012905090565b6060600780548060200260200160405190810160405280929190818152602001828054801561082157602002820191905f5260205f20905b815f9054906101000a900473ffffffffffffffffffffffffffffffffffffffff1673ffffffffffffffffffffffffffffffffffffffff16815260200190600101908083116107d8575b5050505050905090565b60065f9054906101000a900473ffffffffffffffffffffffffffffffffffffffff1673ffffffffffffffffffffffffffffffffffffffff163373ffffffffffffffffffffffffffffffffffffffff16146108ba576040517f08c379a00000000000000000000000000000000000000000000000000000000081526004016108b190611e90565b60405180910390fd5b600560405180604001604052808381526020015f815250908060018154018082558091505060019003905f5260205f2090600202015f909190919091505f820151815f01908161090a919061204b565b506020820151816001015550507f566c2d39711b082cc685ade507dee6291f47044333d9aba4037034cdc3cfac9e8160405161094691906115b8565b60405180910390a150565b5f805f8373ffffffffffffffffffffffffffffffffffffffff1673ffffffffffffffffffffffffffffffffffffffff1681526020019081526020015f20549050919050565b600581815481106109a5575f80fd5b905f5260205f2090600202015f91509050805f0180546109c490611df0565b80601f01602080910402602001604051908101604052809291908181526020018280546109f090611df0565b8015610a3b5780601f10610a1257610100808354040283529160200191610a3b565b820191905f5260205f20905b815481529060010190602001808311610a1e57829003601f168201915b5050505050908060010154905082565b606060048054610a5a90611df0565b80601f0160208091040260200160405190810160405280929190818152602001828054610a8690611df0565b8015610ad15780601f10610aa857610100808354040283529160200191610ad1565b820191905f5260205f20905b815481529060010190602001808311610ab457829003601f168201915b5050505050905090565b60065f9054906101000a900473ffffffffffffffffffffffffffffffffffffffff1673ffffffffffffffffffffffffffffffffffffffff163373ffffffffffffffffffffffffffffffffffffffff1614610b6a576040517f08c379a0000000000000000000000000000000000000000000000000000000008152600401610b6190611e90565b60405180910390fd5b610b743082611072565b50565b5f80610b81610ed7565b9050610b8e818585610f82565b600191505092915050565b60065f9054906101000a900473ffffffffffffffffffffffffffffffffffffffff1681565b60078181548110610bcd575f80fd5b905f5260205f20015f915054906101000a900473ffffffffffffffffffffffffffffffffffffffff1681565b5f60015f8473ffffffffffffffffffffffffffffffffffffffff1673ffffffffffffffffffffffffffffffffffffffff1681526020019081526020015f205f8373ffffffffffffffffffffffffffffffffffffffff1673ffffffffffffffffffffffffffffffffffffffff1681526020019081526020015f2054905092915050565b60065f9054906101000a900473ffffffffffffffffffffffffffffffffffffffff1673ffffffffffffffffffffffffffffffffffffffff163373ffffffffffffffffffffffffffffffffffffffff1614610d0a576040517f08c379a0000000000000000000000000000000000000000000000000000000008152600401610d0190611e90565b60405180910390fd5b60085f8273ffffffffffffffffffffffffffffffffffffffff1673ffffffffffffffffffffffffffffffffffffffff1681526020019081526020015f205f9054906101000a900460ff1615610d94576040517f08c379a0000000000000000000000000000000000000000000000000000000008152600401610d8b9061218a565b60405180910390fd5b610da030826001610f82565b600781908060018154018082558091505060019003905f5260205f20015f9091909190916101000a81548173ffffffffffffffffffffffffffffffffffffffff021916908373ffffffffffffffffffffffffffffffffffffffff160217905550600160085f8373ffffffffffffffffffffffffffffffffffffffff1673ffffffffffffffffffffffffffffffffffffffff1681526020019081526020015f205f6101000a81548160ff02191690831515021790555050565b5f73ffffffffffffffffffffffffffffffffffffffff168273ffffffffffffffffffffffffffffffffffffffff1603610ec8575f6040517f96c6fd1e000000000000000000000000000000000000000000000000000000008152600401610ebf9190611b6d565b60405180910390fd5b610ed3825f836110f1565b5050565b5f33905090565b610eeb838383600161130a565b505050565b5f610efb8484610bf9565b90507fffffffffffffffffffffffffffffffffffffffffffffffffffffffffffffffff8114610f7c5781811015610f6d578281836040517ffb8f41b2000000000000000000000000000000000000000000000000000000008152600401610f64939291906121a8565b60405180910390fd5b610f7b84848484035f61130a565b5b50505050565b5f73ffffffffffffffffffffffffffffffffffffffff168373ffffffffffffffffffffffffffffffffffffffff1603610ff2575f6040517f96c6fd1e000000000000000000000000000000000000000000000000000000008152600401610fe99190611b6d565b60405180910390fd5b5f73ffffffffffffffffffffffffffffffffffffffff168273ffffffffffffffffffffffffffffffffffffffff1603611062575f6040517fec442f050000000000000000000000000000000000000000000000000000000081526004016110599190611b6d565b60405180910390fd5b61106d8383836110f1565b505050565b5f73ffffffffffffffffffffffffffffffffffffffff168273ffffffffffffffffffffffffffffffffffffffff16036110e2575f6040517fec442f050000000000000000000000000000000000000000000000000000000081526004016110d99190611b6d565b60405180910390fd5b6110ed5f83836110f1565b5050565b5f73ffffffffffffffffffffffffffffffffffffffff168373ffffffffffffffffffffffffffffffffffffffff1603611141578060025f82825461113591906121dd565b9250508190555061120f565b5f805f8573ffffffffffffffffffffffffffffffffffffffff1673ffffffffffffffffffffffffffffffffffffffff1681526020019081526020015f20549050818110156111ca578381836040517fe450d38c0000000000000000000000000000000000000000000000000000000081526004016111c1939291906121a8565b60405180910390fd5b8181035f808673ffffffffffffffffffffffffffffffffffffffff1673ffffffffffffffffffffffffffffffffffffffff1681526020019081526020015f2081905550505b5f73ffffffffffffffffffffffffffffffffffffffff168273ffffffffffffffffffffffffffffffffffffffff1603611256578060025f82825403925050819055506112a0565b805f808473ffffffffffffffffffffffffffffffffffffffff1673ffffffffffffffffffffffffffffffffffffffff1681526020019081526020015f205f82825401925050819055505b8173ffffffffffffffffffffffffffffffffffffffff168373ffffffffffffffffffffffffffffffffffffffff167fddf252ad1be2c89b69c2b068fc378daa952ba7f163c4a11628f55a4df523b3ef836040516112fd91906116dd565b60405180910390a3505050565b5f73ffffffffffffffffffffffffffffffffffffffff168473ffffffffffffffffffffffffffffffffffffffff160361137a575f6040517fe602df050000000000000000000000000000000000000000000000000000000081526004016113719190611b6d565b60405180910390fd5b5f73ffffffffffffffffffffffffffffffffffffffff168373ffffffffffffffffffffffffffffffffffffffff16036113ea575f6040517f94280d620000000000000000000000000000000000000000000000000000000081526004016113e19190611b6d565b60405180910390fd5b8160015f8673ffffffffffffffffffffffffffffffffffffffff1673ffffffffffffffffffffffffffffffffffffffff1681526020019081526020015f205f8573ffffffffffffffffffffffffffffffffffffffff1673ffffffffffffffffffffffffffffffffffffffff1681526020019081526020015f208190555080156114d3578273ffffffffffffffffffffffffffffffffffffffff168473ffffffffffffffffffffffffffffffffffffffff167f8c5be1e5ebec7d5bd14f71427d1e84f3dd0314c0f7b2291e5b200ac8c7c3b925846040516114ca91906116dd565b60405180910390a35b50505050565b5f604051905090565b5f80fd5b5f80fd5b5f819050919050565b6114fc816114ea565b8114611506575f80fd5b50565b5f81359050611517816114f3565b92915050565b5f60208284031215611532576115316114e2565b5b5f61153f84828501611509565b91505092915050565b5f81519050919050565b5f82825260208201905092915050565b8281835e5f83830152505050565b5f601f19601f8301169050919050565b5f61158a82611548565b6115948185611552565b93506115a4818560208601611562565b6115ad81611570565b840191505092915050565b5f6020820190508181035f8301526115d08184611580565b905092915050565b5f73ffffffffffffffffffffffffffffffffffffffff82169050919050565b5f611601826115d8565b9050919050565b611611816115f7565b811461161b575f80fd5b50565b5f8135905061162c81611608565b92915050565b5f8060408385031215611648576116476114e2565b5b5f6116558582860161161e565b925050602061166685828601611509565b9150509250929050565b5f8115159050919050565b61168481611670565b82525050565b5f60208201905061169d5f83018461167b565b92915050565b5f602082840312156116b8576116b76114e2565b5b5f6116c58482850161161e565b91505092915050565b6116d7816114ea565b82525050565b5f6020820190506116f05f8301846116ce565b92915050565b5f81519050919050565b5f82825260208201905092915050565b5f819050602082019050919050565b5f82825260208201905092915050565b5f61173982611548565b611743818561171f565b9350611753818560208601611562565b61175c81611570565b840191505092915050565b611770816114ea565b82525050565b5f604083015f8301518482035f860152611790828261172f565b91505060208301516117a56020860182611767565b508091505092915050565b5f6117bb8383611776565b905092915050565b5f602082019050919050565b5f6117d9826116f6565b6117e38185611700565b9350836020820285016117f585611710565b805f5b85811015611830578484038952815161181185826117b0565b945061181c836117c3565b925060208a019950506001810190506117f8565b50829750879550505050505092915050565b5f6020820190508181035f83015261185a81846117cf565b905092915050565b5f805f60608486031215611879576118786114e2565b5b5f6118868682870161161e565b93505060206118978682870161161e565b92505060406118a886828701611509565b9150509250925092565b5f60ff82169050919050565b6118c7816118b2565b82525050565b5f6020820190506118e05f8301846118be565b92915050565b5f81519050919050565b5f82825260208201905092915050565b5f819050602082019050919050565b611918816115f7565b82525050565b5f611929838361190f565b60208301905092915050565b5f602082019050919050565b5f61194b826118e6565b61195581856118f0565b935061196083611900565b805f5b83811015611990578151611977888261191e565b975061198283611935565b925050600181019050611963565b5085935050505092915050565b5f6020820190508181035f8301526119b58184611941565b905092915050565b5f80fd5b5f80fd5b7f4e487b71000000000000000000000000000000000000000000000000000000005f52604160045260245ffd5b6119fb82611570565b810181811067ffffffffffffffff82111715611a1a57611a196119c5565b5b80604052505050565b5f611a2c6114d9565b9050611a3882826119f2565b919050565b5f67ffffffffffffffff821115611a5757611a566119c5565b5b611a6082611570565b9050602081019050919050565b828183375f83830152505050565b5f611a8d611a8884611a3d565b611a23565b905082815260208101848484011115611aa957611aa86119c1565b5b611ab4848285611a6d565b509392505050565b5f82601f830112611ad057611acf6119bd565b5b8135611ae0848260208601611a7b565b91505092915050565b5f60208284031215611afe57611afd6114e2565b5b5f82013567ffffffffffffffff811115611b1b57611b1a6114e6565b5b611b2784828501611abc565b91505092915050565b5f6040820190508181035f830152611b488185611580565b9050611b5760208301846116ce565b9392505050565b611b67816115f7565b82525050565b5f602082019050611b805f830184611b5e565b92915050565b5f8060408385031215611b9c57611b9b6114e2565b5b5f611ba98582860161161e565b9250506020611bba8582860161161e565b9150509250929050565b7f4e6f207469656e657320737566696369656e74657320746f6b656e73207061725f8201527f6120766f74617200000000000000000000000000000000000000000000000000602082015250565b5f611c1e602783611552565b9150611c2982611bc4565b604082019050919050565b5f6020820190508181035f830152611c4b81611c12565b9050919050565b7f59612068617320766f7461646f000000000000000000000000000000000000005f82015250565b5f611c86600d83611552565b9150611c9182611c52565b602082019050919050565b5f6020820190508181035f830152611cb381611c7a565b9050919050565b7f43616e64696461746f206e6f20656e636f6e747261646f0000000000000000005f82015250565b5f611cee601783611552565b9150611cf982611cba565b602082019050919050565b5f6020820190508181035f830152611d1b81611ce2565b9050919050565b7f4e487b71000000000000000000000000000000000000000000000000000000005f52603260045260245ffd5b7f4e487b71000000000000000000000000000000000000000000000000000000005f52601160045260245ffd5b5f611d86826114ea565b91507fffffffffffffffffffffffffffffffffffffffffffffffffffffffffffffffff8203611db857611db7611d4f565b5b600182019050919050565b7f4e487b71000000000000000000000000000000000000000000000000000000005f52602260045260245ffd5b5f6002820490506001821680611e0757607f821691505b602082108103611e1a57611e19611dc3565b5b50919050565b7f536f6c6f20656c20466163746f7279207075656465206c6c616d6172206120655f8201527f7374612066756e63696f6e000000000000000000000000000000000000000000602082015250565b5f611e7a602b83611552565b9150611e8582611e20565b604082019050919050565b5f6020820190508181035f830152611ea781611e6e565b9050919050565b5f819050815f5260205f209050919050565b5f6020601f8301049050919050565b5f82821b905092915050565b5f60088302611f0a7fffffffffffffffffffffffffffffffffffffffffffffffffffffffffffffffff82611ecf565b611f148683611ecf565b95508019841693508086168417925050509392505050565b5f819050919050565b5f611f4f611f4a611f45846114ea565b611f2c565b6114ea565b9050919050565b5f819050919050565b611f6883611f35565b611f7c611f7482611f56565b848454611edb565b825550505050565b5f90565b611f90611f84565b611f9b818484611f5f565b505050565b5b81811015611fbe57611fb35f82611f88565b600181019050611fa1565b5050565b601f82111561200357611fd481611eae565b611fdd84611ec0565b81016020851015611fec578190505b612000611ff885611ec0565b830182611fa0565b50505b505050565b5f82821c905092915050565b5f6120235f1984600802612008565b1980831691505092915050565b5f61203b8383612014565b9150826002028217905092915050565b61205482611548565b67ffffffffffffffff81111561206d5761206c6119c5565b5b6120778254611df0565b612082828285611fc2565b5f60209050601f8311600181146120b3575f84156120a1578287015190505b6120ab8582612030565b865550612112565b601f1984166120c186611eae565b5f5b828110156120e8578489015182556001820191506020850194506020810190506120c3565b868310156121055784890151612101601f891682612014565b8355505b6001600288020188555050505b505050505050565b7f4573746120646972656363696f6e207961207265636962696f20737520746f6b5f8201527f656e2079206e6f20736520707565646520646172206d61730000000000000000602082015250565b5f612174603883611552565b915061217f8261211a565b604082019050919050565b5f6020820190508181035f8301526121a181612168565b9050919050565b5f6060820190506121bb5f830186611b5e565b6121c860208301856116ce565b6121d560408301846116ce565b949350505050565b5f6121e7826114ea565b91506121f2836114ea565b925082820190508082111561220a57612209611d4f565b5b9291505056fea2646970667358221220ab33561c3ecf449ebf04443ab80a8d4d004a8ed2b3eb5113ecb76600e941035e64736f6c63430008190033a26469706673582212203fa1097844c38d95bda30d3120201acbb2e756fe22d7ad905c2176340fcf9e2764736f6c63430008190033",
			"opcodes": "PUSH1 0x80 PUSH1 0x40 MSTORE CALLVALUE DUP1 ISZERO PUSH1 0xE JUMPI PUSH0 DUP1 REVERT JUMPDEST POP PUSH2 0x2F50 DUP1 PUSH2 0x1C PUSH0 CODECOPY PUSH0 RETURN INVALID PUSH1 0x80 PUSH1 0x40 MSTORE CALLVALUE DUP1 ISZERO PUSH2 0xF JUMPI PUSH0 DUP1 REVERT JUMPDEST POP PUSH1 0x4 CALLDATASIZE LT PUSH2 0x4A JUMPI PUSH0 CALLDATALOAD PUSH1 0xE0 SHR DUP1 PUSH4 0x1C039ED0 EQ PUSH2 0x4E JUMPI DUP1 PUSH4 0x1CD3F8AE EQ PUSH2 0x7E JUMPI DUP1 PUSH4 0x8EC91C29 EQ PUSH2 0xAE JUMPI DUP1 PUSH4 0x99AB8FA1 EQ PUSH2 0xB8 JUMPI JUMPDEST PUSH0 DUP1 REVERT JUMPDEST PUSH2 0x68 PUSH1 0x4 DUP1 CALLDATASIZE SUB DUP2 ADD SWAP1 PUSH2 0x63 SWAP2 SWAP1 PUSH2 0x35B JUMP JUMPDEST PUSH2 0xD6 JUMP JUMPDEST PUSH1 0x40 MLOAD PUSH2 0x75 SWAP2 SWAP1 PUSH2 0x3A0 JUMP JUMPDEST PUSH1 0x40 MLOAD DUP1 SWAP2 SUB SWAP1 RETURN JUMPDEST PUSH2 0x98 PUSH1 0x4 DUP1 CALLDATASIZE SUB DUP2 ADD SWAP1 PUSH2 0x93 SWAP2 SWAP1 PUSH2 0x3EC JUMP JUMPDEST PUSH2 0xF3 JUMP JUMPDEST PUSH1 0x40 MLOAD PUSH2 0xA5 SWAP2 SWAP1 PUSH2 0x426 JUMP JUMPDEST PUSH1 0x40 MLOAD DUP1 SWAP2 SUB SWAP1 RETURN JUMPDEST PUSH2 0xB6 PUSH2 0x12D JUMP JUMPDEST STOP JUMPDEST PUSH2 0xC0 PUSH2 0x266 JUMP JUMPDEST PUSH1 0x40 MLOAD PUSH2 0xCD SWAP2 SWAP1 PUSH2 0x4F6 JUMP JUMPDEST PUSH1 0x40 MLOAD DUP1 SWAP2 SUB SWAP1 RETURN JUMPDEST PUSH1 0x1 PUSH1 0x20 MSTORE DUP1 PUSH0 MSTORE PUSH1 0x40 PUSH0 KECCAK256 PUSH0 SWAP2 POP SLOAD SWAP1 PUSH2 0x100 EXP SWAP1 DIV PUSH1 0xFF AND DUP2 JUMP JUMPDEST PUSH0 DUP2 DUP2 SLOAD DUP2 LT PUSH2 0x101 JUMPI PUSH0 DUP1 REVERT JUMPDEST SWAP1 PUSH0 MSTORE PUSH1 0x20 PUSH0 KECCAK256 ADD PUSH0 SWAP2 POP SLOAD SWAP1 PUSH2 0x100 EXP SWAP1 DIV PUSH20 0xFFFFFFFFFFFFFFFFFFFFFFFFFFFFFFFFFFFFFFFF AND DUP2 JUMP JUMPDEST PUSH0 PUSH1 0x40 MLOAD PUSH2 0x13A SWAP1 PUSH2 0x2F0 JUMP JUMPDEST PUSH1 0x40 MLOAD DUP1 SWAP2 SUB SWAP1 PUSH0 CREATE DUP1 ISZERO DUP1 ISZERO PUSH2 0x153 JUMPI RETURNDATASIZE PUSH0 DUP1 RETURNDATACOPY RETURNDATASIZE PUSH0 REVERT JUMPDEST POP SWAP1 POP PUSH0 DUP2 SWAP1 DUP1 PUSH1 0x1 DUP2 SLOAD ADD DUP1 DUP3 SSTORE DUP1 SWAP2 POP POP PUSH1 0x1 SWAP1 SUB SWAP1 PUSH0 MSTORE PUSH1 0x20 PUSH0 KECCAK256 ADD PUSH0 SWAP1 SWAP2 SWAP1 SWAP2 SWAP1 SWAP2 PUSH2 0x100 EXP DUP2 SLOAD DUP2 PUSH20 0xFFFFFFFFFFFFFFFFFFFFFFFFFFFFFFFFFFFFFFFF MUL NOT AND SWAP1 DUP4 PUSH20 0xFFFFFFFFFFFFFFFFFFFFFFFFFFFFFFFFFFFFFFFF AND MUL OR SWAP1 SSTORE POP PUSH1 0x1 DUP1 PUSH0 DUP4 PUSH20 0xFFFFFFFFFFFFFFFFFFFFFFFFFFFFFFFFFFFFFFFF AND PUSH20 0xFFFFFFFFFFFFFFFFFFFFFFFFFFFFFFFFFFFFFFFF AND DUP2 MSTORE PUSH1 0x20 ADD SWAP1 DUP2 MSTORE PUSH1 0x20 ADD PUSH0 KECCAK256 PUSH0 PUSH2 0x100 EXP DUP2 SLOAD DUP2 PUSH1 0xFF MUL NOT AND SWAP1 DUP4 ISZERO ISZERO MUL OR SWAP1 SSTORE POP CALLER PUSH20 0xFFFFFFFFFFFFFFFFFFFFFFFFFFFFFFFFFFFFFFFF AND DUP2 PUSH20 0xFFFFFFFFFFFFFFFFFFFFFFFFFFFFFFFFFFFFFFFF AND PUSH32 0xEAE12937B704941E79EDD16EAB80437032495C0E717DEDF69AD688FF936FDD31 PUSH1 0x40 MLOAD PUSH1 0x40 MLOAD DUP1 SWAP2 SUB SWAP1 LOG3 POP JUMP JUMPDEST PUSH1 0x60 PUSH0 DUP1 SLOAD DUP1 PUSH1 0x20 MUL PUSH1 0x20 ADD PUSH1 0x40 MLOAD SWAP1 DUP2 ADD PUSH1 0x40 MSTORE DUP1 SWAP3 SWAP2 SWAP1 DUP2 DUP2 MSTORE PUSH1 0x20 ADD DUP3 DUP1 SLOAD DUP1 ISZERO PUSH2 0x2E6 JUMPI PUSH1 0x20 MUL DUP3 ADD SWAP2 SWAP1 PUSH0 MSTORE PUSH1 0x20 PUSH0 KECCAK256 SWAP1 JUMPDEST DUP2 PUSH0 SWAP1 SLOAD SWAP1 PUSH2 0x100 EXP SWAP1 DIV PUSH20 0xFFFFFFFFFFFFFFFFFFFFFFFFFFFFFFFFFFFFFFFF AND PUSH20 0xFFFFFFFFFFFFFFFFFFFFFFFFFFFFFFFFFFFFFFFF AND DUP2 MSTORE PUSH1 0x20 ADD SWAP1 PUSH1 0x1 ADD SWAP1 DUP1 DUP4 GT PUSH2 0x29D JUMPI JUMPDEST POP POP POP POP POP SWAP1 POP SWAP1 JUMP JUMPDEST PUSH2 0x2A04 DUP1 PUSH2 0x517 DUP4 CODECOPY ADD SWAP1 JUMP JUMPDEST PUSH0 DUP1 REVERT JUMPDEST PUSH0 PUSH20 0xFFFFFFFFFFFFFFFFFFFFFFFFFFFFFFFFFFFFFFFF DUP3 AND SWAP1 POP SWAP2 SWAP1 POP JUMP JUMPDEST PUSH0 PUSH2 0x32A DUP3 PUSH2 0x301 JUMP JUMPDEST SWAP1 POP SWAP2 SWAP1 POP JUMP JUMPDEST PUSH2 0x33A DUP2 PUSH2 0x320 JUMP JUMPDEST DUP2 EQ PUSH2 0x344 JUMPI PUSH0 DUP1 REVERT JUMPDEST POP JUMP JUMPDEST PUSH0 DUP2 CALLDATALOAD SWAP1 POP PUSH2 0x355 DUP2 PUSH2 0x331 JUMP JUMPDEST SWAP3 SWAP2 POP POP JUMP JUMPDEST PUSH0 PUSH1 0x20 DUP3 DUP5 SUB SLT ISZERO PUSH2 0x370 JUMPI PUSH2 0x36F PUSH2 0x2FD JUMP JUMPDEST JUMPDEST PUSH0 PUSH2 0x37D DUP5 DUP3 DUP6 ADD PUSH2 0x347 JUMP JUMPDEST SWAP2 POP POP SWAP3 SWAP2 POP POP JUMP JUMPDEST PUSH0 DUP2 ISZERO ISZERO SWAP1 POP SWAP2 SWAP1 POP JUMP JUMPDEST PUSH2 0x39A DUP2 PUSH2 0x386 JUMP JUMPDEST DUP3 MSTORE POP POP JUMP JUMPDEST PUSH0 PUSH1 0x20 DUP3 ADD SWAP1 POP PUSH2 0x3B3 PUSH0 DUP4 ADD DUP5 PUSH2 0x391 JUMP JUMPDEST SWAP3 SWAP2 POP POP JUMP JUMPDEST PUSH0 DUP2 SWAP1 POP SWAP2 SWAP1 POP JUMP JUMPDEST PUSH2 0x3CB DUP2 PUSH2 0x3B9 JUMP JUMPDEST DUP2 EQ PUSH2 0x3D5 JUMPI PUSH0 DUP1 REVERT JUMPDEST POP JUMP JUMPDEST PUSH0 DUP2 CALLDATALOAD SWAP1 POP PUSH2 0x3E6 DUP2 PUSH2 0x3C2 JUMP JUMPDEST SWAP3 SWAP2 POP POP JUMP JUMPDEST PUSH0 PUSH1 0x20 DUP3 DUP5 SUB SLT ISZERO PUSH2 0x401 JUMPI PUSH2 0x400 PUSH2 0x2FD JUMP JUMPDEST JUMPDEST PUSH0 PUSH2 0x40E DUP5 DUP3 DUP6 ADD PUSH2 0x3D8 JUMP JUMPDEST SWAP2 POP POP SWAP3 SWAP2 POP POP JUMP JUMPDEST PUSH2 0x420 DUP2 PUSH2 0x320 JUMP JUMPDEST DUP3 MSTORE POP POP JUMP JUMPDEST PUSH0 PUSH1 0x20 DUP3 ADD SWAP1 POP PUSH2 0x439 PUSH0 DUP4 ADD DUP5 PUSH2 0x417 JUMP JUMPDEST SWAP3 SWAP2 POP POP JUMP JUMPDEST PUSH0 DUP2 MLOAD SWAP1 POP SWAP2 SWAP1 POP JUMP JUMPDEST PUSH0 DUP3 DUP3 MSTORE PUSH1 0x20 DUP3 ADD SWAP1 POP SWAP3 SWAP2 POP POP JUMP JUMPDEST PUSH0 DUP2 SWAP1 POP PUSH1 0x20 DUP3 ADD SWAP1 POP SWAP2 SWAP1 POP JUMP JUMPDEST PUSH2 0x471 DUP2 PUSH2 0x320 JUMP JUMPDEST DUP3 MSTORE POP POP JUMP JUMPDEST PUSH0 PUSH2 0x482 DUP4 DUP4 PUSH2 0x468 JUMP JUMPDEST PUSH1 0x20 DUP4 ADD SWAP1 POP SWAP3 SWAP2 POP POP JUMP JUMPDEST PUSH0 PUSH1 0x20 DUP3 ADD SWAP1 POP SWAP2 SWAP1 POP JUMP JUMPDEST PUSH0 PUSH2 0x4A4 DUP3 PUSH2 0x43F JUMP JUMPDEST PUSH2 0x4AE DUP2 DUP6 PUSH2 0x449 JUMP JUMPDEST SWAP4 POP PUSH2 0x4B9 DUP4 PUSH2 0x459 JUMP JUMPDEST DUP1 PUSH0 JUMPDEST DUP4 DUP2 LT ISZERO PUSH2 0x4E9 JUMPI DUP2 MLOAD PUSH2 0x4D0 DUP9 DUP3 PUSH2 0x477 JUMP JUMPDEST SWAP8 POP PUSH2 0x4DB DUP4 PUSH2 0x48E JUMP JUMPDEST SWAP3 POP POP PUSH1 0x1 DUP2 ADD SWAP1 POP PUSH2 0x4BC JUMP JUMPDEST POP DUP6 SWAP4 POP POP POP POP SWAP3 SWAP2 POP POP JUMP JUMPDEST PUSH0 PUSH1 0x20 DUP3 ADD SWAP1 POP DUP2 DUP2 SUB PUSH0 DUP4 ADD MSTORE PUSH2 0x50E DUP2 DUP5 PUSH2 0x49A JUMP JUMPDEST SWAP1 POP SWAP3 SWAP2 POP POP JUMP INVALID PUSH1 0x80 PUSH1 0x40 MSTORE CALLVALUE DUP1 ISZERO PUSH2 0xF JUMPI PUSH0 DUP1 REVERT JUMPDEST POP PUSH1 0x40 MLOAD DUP1 PUSH1 0x40 ADD PUSH1 0x40 MSTORE DUP1 PUSH1 0x7 DUP2 MSTORE PUSH1 0x20 ADD PUSH32 0x4D79546F6B656E00000000000000000000000000000000000000000000000000 DUP2 MSTORE POP PUSH1 0x40 MLOAD DUP1 PUSH1 0x40 ADD PUSH1 0x40 MSTORE DUP1 PUSH1 0x3 DUP2 MSTORE PUSH1 0x20 ADD PUSH32 0x4D544B0000000000000000000000000000000000000000000000000000000000 DUP2 MSTORE POP DUP2 PUSH1 0x3 SWAP1 DUP2 PUSH2 0x8B SWAP2 SWAP1 PUSH2 0x5CD JUMP JUMPDEST POP DUP1 PUSH1 0x4 SWAP1 DUP2 PUSH2 0x9B SWAP2 SWAP1 PUSH2 0x5CD JUMP JUMPDEST POP POP POP CALLER PUSH1 0x6 PUSH0 PUSH2 0x100 EXP DUP2 SLOAD DUP2 PUSH20 0xFFFFFFFFFFFFFFFFFFFFFFFFFFFFFFFFFFFFFFFF MUL NOT AND SWAP1 DUP4 PUSH20 0xFFFFFFFFFFFFFFFFFFFFFFFFFFFFFFFFFFFFFFFF AND MUL OR SWAP1 SSTORE POP PUSH2 0xF0 ADDRESS PUSH2 0x3E8 PUSH2 0xF5 PUSH1 0x20 SHL PUSH1 0x20 SHR JUMP JUMPDEST PUSH2 0x7B1 JUMP JUMPDEST PUSH0 PUSH20 0xFFFFFFFFFFFFFFFFFFFFFFFFFFFFFFFFFFFFFFFF AND DUP3 PUSH20 0xFFFFFFFFFFFFFFFFFFFFFFFFFFFFFFFFFFFFFFFF AND SUB PUSH2 0x165 JUMPI PUSH0 PUSH1 0x40 MLOAD PUSH32 0xEC442F0500000000000000000000000000000000000000000000000000000000 DUP2 MSTORE PUSH1 0x4 ADD PUSH2 0x15C SWAP2 SWAP1 PUSH2 0x6DB JUMP JUMPDEST PUSH1 0x40 MLOAD DUP1 SWAP2 SUB SWAP1 REVERT JUMPDEST PUSH2 0x176 PUSH0 DUP4 DUP4 PUSH2 0x17A PUSH1 0x20 SHL PUSH1 0x20 SHR JUMP JUMPDEST POP POP JUMP JUMPDEST PUSH0 PUSH20 0xFFFFFFFFFFFFFFFFFFFFFFFFFFFFFFFFFFFFFFFF AND DUP4 PUSH20 0xFFFFFFFFFFFFFFFFFFFFFFFFFFFFFFFFFFFFFFFF AND SUB PUSH2 0x1CA JUMPI DUP1 PUSH1 0x2 PUSH0 DUP3 DUP3 SLOAD PUSH2 0x1BE SWAP2 SWAP1 PUSH2 0x721 JUMP JUMPDEST SWAP3 POP POP DUP2 SWAP1 SSTORE POP PUSH2 0x298 JUMP JUMPDEST PUSH0 DUP1 PUSH0 DUP6 PUSH20 0xFFFFFFFFFFFFFFFFFFFFFFFFFFFFFFFFFFFFFFFF AND PUSH20 0xFFFFFFFFFFFFFFFFFFFFFFFFFFFFFFFFFFFFFFFF AND DUP2 MSTORE PUSH1 0x20 ADD SWAP1 DUP2 MSTORE PUSH1 0x20 ADD PUSH0 KECCAK256 SLOAD SWAP1 POP DUP2 DUP2 LT ISZERO PUSH2 0x253 JUMPI DUP4 DUP2 DUP4 PUSH1 0x40 MLOAD PUSH32 0xE450D38C00000000000000000000000000000000000000000000000000000000 DUP2 MSTORE PUSH1 0x4 ADD PUSH2 0x24A SWAP4 SWAP3 SWAP2 SWAP1 PUSH2 0x763 JUMP JUMPDEST PUSH1 0x40 MLOAD DUP1 SWAP2 SUB SWAP1 REVERT JUMPDEST DUP2 DUP2 SUB PUSH0 DUP1 DUP7 PUSH20 0xFFFFFFFFFFFFFFFFFFFFFFFFFFFFFFFFFFFFFFFF AND PUSH20 0xFFFFFFFFFFFFFFFFFFFFFFFFFFFFFFFFFFFFFFFF AND DUP2 MSTORE PUSH1 0x20 ADD SWAP1 DUP2 MSTORE PUSH1 0x20 ADD PUSH0 KECCAK256 DUP2 SWAP1 SSTORE POP POP JUMPDEST PUSH0 PUSH20 0xFFFFFFFFFFFFFFFFFFFFFFFFFFFFFFFFFFFFFFFF AND DUP3 PUSH20 0xFFFFFFFFFFFFFFFFFFFFFFFFFFFFFFFFFFFFFFFF AND SUB PUSH2 0x2DF JUMPI DUP1 PUSH1 0x2 PUSH0 DUP3 DUP3 SLOAD SUB SWAP3 POP POP DUP2 SWAP1 SSTORE POP PUSH2 0x329 JUMP JUMPDEST DUP1 PUSH0 DUP1 DUP5 PUSH20 0xFFFFFFFFFFFFFFFFFFFFFFFFFFFFFFFFFFFFFFFF AND PUSH20 0xFFFFFFFFFFFFFFFFFFFFFFFFFFFFFFFFFFFFFFFF AND DUP2 MSTORE PUSH1 0x20 ADD SWAP1 DUP2 MSTORE PUSH1 0x20 ADD PUSH0 KECCAK256 PUSH0 DUP3 DUP3 SLOAD ADD SWAP3 POP POP DUP2 SWAP1 SSTORE POP JUMPDEST DUP2 PUSH20 0xFFFFFFFFFFFFFFFFFFFFFFFFFFFFFFFFFFFFFFFF AND DUP4 PUSH20 0xFFFFFFFFFFFFFFFFFFFFFFFFFFFFFFFFFFFFFFFF AND PUSH32 0xDDF252AD1BE2C89B69C2B068FC378DAA952BA7F163C4A11628F55A4DF523B3EF DUP4 PUSH1 0x40 MLOAD PUSH2 0x386 SWAP2 SWAP1 PUSH2 0x798 JUMP JUMPDEST PUSH1 0x40 MLOAD DUP1 SWAP2 SUB SWAP1 LOG3 POP POP POP JUMP JUMPDEST PUSH0 DUP2 MLOAD SWAP1 POP SWAP2 SWAP1 POP JUMP JUMPDEST PUSH32 0x4E487B7100000000000000000000000000000000000000000000000000000000 PUSH0 MSTORE PUSH1 0x41 PUSH1 0x4 MSTORE PUSH1 0x24 PUSH0 REVERT JUMPDEST PUSH32 0x4E487B7100000000000000000000000000000000000000000000000000000000 PUSH0 MSTORE PUSH1 0x22 PUSH1 0x4 MSTORE PUSH1 0x24 PUSH0 REVERT JUMPDEST PUSH0 PUSH1 0x2 DUP3 DIV SWAP1 POP PUSH1 0x1 DUP3 AND DUP1 PUSH2 0x40E JUMPI PUSH1 0x7F DUP3 AND SWAP2 POP JUMPDEST PUSH1 0x20 DUP3 LT DUP2 SUB PUSH2 0x421 JUMPI PUSH2 0x420 PUSH2 0x3CA JUMP JUMPDEST JUMPDEST POP SWAP2 SWAP1 POP JUMP JUMPDEST PUSH0 DUP2 SWAP1 POP DUP2 PUSH0 MSTORE PUSH1 0x20 PUSH0 KECCAK256 SWAP1 POP SWAP2 SWAP1 POP JUMP JUMPDEST PUSH0 PUSH1 0x20 PUSH1 0x1F DUP4 ADD DIV SWAP1 POP SWAP2 SWAP1 POP JUMP JUMPDEST PUSH0 DUP3 DUP3 SHL SWAP1 POP SWAP3 SWAP2 POP POP JUMP JUMPDEST PUSH0 PUSH1 0x8 DUP4 MUL PUSH2 0x483 PUSH32 0xFFFFFFFFFFFFFFFFFFFFFFFFFFFFFFFFFFFFFFFFFFFFFFFFFFFFFFFFFFFFFFFF DUP3 PUSH2 0x448 JUMP JUMPDEST PUSH2 0x48D DUP7 DUP4 PUSH2 0x448 JUMP JUMPDEST SWAP6 POP DUP1 NOT DUP5 AND SWAP4 POP DUP1 DUP7 AND DUP5 OR SWAP3 POP POP POP SWAP4 SWAP3 POP POP POP JUMP JUMPDEST PUSH0 DUP2 SWAP1 POP SWAP2 SWAP1 POP JUMP JUMPDEST PUSH0 DUP2 SWAP1 POP SWAP2 SWAP1 POP JUMP JUMPDEST PUSH0 PUSH2 0x4D1 PUSH2 0x4CC PUSH2 0x4C7 DUP5 PUSH2 0x4A5 JUMP JUMPDEST PUSH2 0x4AE JUMP JUMPDEST PUSH2 0x4A5 JUMP JUMPDEST SWAP1 POP SWAP2 SWAP1 POP JUMP JUMPDEST PUSH0 DUP2 SWAP1 POP SWAP2 SWAP1 POP JUMP JUMPDEST PUSH2 0x4EA DUP4 PUSH2 0x4B7 JUMP JUMPDEST PUSH2 0x4FE PUSH2 0x4F6 DUP3 PUSH2 0x4D8 JUMP JUMPDEST DUP5 DUP5 SLOAD PUSH2 0x454 JUMP JUMPDEST DUP3 SSTORE POP POP POP POP JUMP JUMPDEST PUSH0 SWAP1 JUMP JUMPDEST PUSH2 0x512 PUSH2 0x506 JUMP JUMPDEST PUSH2 0x51D DUP2 DUP5 DUP5 PUSH2 0x4E1 JUMP JUMPDEST POP POP POP JUMP JUMPDEST JUMPDEST DUP2 DUP2 LT ISZERO PUSH2 0x540 JUMPI PUSH2 0x535 PUSH0 DUP3 PUSH2 0x50A JUMP JUMPDEST PUSH1 0x1 DUP2 ADD SWAP1 POP PUSH2 0x523 JUMP JUMPDEST POP POP JUMP JUMPDEST PUSH1 0x1F DUP3 GT ISZERO PUSH2 0x585 JUMPI PUSH2 0x556 DUP2 PUSH2 0x427 JUMP JUMPDEST PUSH2 0x55F DUP5 PUSH2 0x439 JUMP JUMPDEST DUP2 ADD PUSH1 0x20 DUP6 LT ISZERO PUSH2 0x56E JUMPI DUP2 SWAP1 POP JUMPDEST PUSH2 0x582 PUSH2 0x57A DUP6 PUSH2 0x439 JUMP JUMPDEST DUP4 ADD DUP3 PUSH2 0x522 JUMP JUMPDEST POP POP JUMPDEST POP POP POP JUMP JUMPDEST PUSH0 DUP3 DUP3 SHR SWAP1 POP SWAP3 SWAP2 POP POP JUMP JUMPDEST PUSH0 PUSH2 0x5A5 PUSH0 NOT DUP5 PUSH1 0x8 MUL PUSH2 0x58A JUMP JUMPDEST NOT DUP1 DUP4 AND SWAP2 POP POP SWAP3 SWAP2 POP POP JUMP JUMPDEST PUSH0 PUSH2 0x5BD DUP4 DUP4 PUSH2 0x596 JUMP JUMPDEST SWAP2 POP DUP3 PUSH1 0x2 MUL DUP3 OR SWAP1 POP SWAP3 SWAP2 POP POP JUMP JUMPDEST PUSH2 0x5D6 DUP3 PUSH2 0x393 JUMP JUMPDEST PUSH8 0xFFFFFFFFFFFFFFFF DUP2 GT ISZERO PUSH2 0x5EF JUMPI PUSH2 0x5EE PUSH2 0x39D JUMP JUMPDEST JUMPDEST PUSH2 0x5F9 DUP3 SLOAD PUSH2 0x3F7 JUMP JUMPDEST PUSH2 0x604 DUP3 DUP3 DUP6 PUSH2 0x544 JUMP JUMPDEST PUSH0 PUSH1 0x20 SWAP1 POP PUSH1 0x1F DUP4 GT PUSH1 0x1 DUP2 EQ PUSH2 0x635 JUMPI PUSH0 DUP5 ISZERO PUSH2 0x623 JUMPI DUP3 DUP8 ADD MLOAD SWAP1 POP JUMPDEST PUSH2 0x62D DUP6 DUP3 PUSH2 0x5B2 JUMP JUMPDEST DUP7 SSTORE POP PUSH2 0x694 JUMP JUMPDEST PUSH1 0x1F NOT DUP5 AND PUSH2 0x643 DUP7 PUSH2 0x427 JUMP JUMPDEST PUSH0 JUMPDEST DUP3 DUP2 LT ISZERO PUSH2 0x66A JUMPI DUP5 DUP10 ADD MLOAD DUP3 SSTORE PUSH1 0x1 DUP3 ADD SWAP2 POP PUSH1 0x20 DUP6 ADD SWAP5 POP PUSH1 0x20 DUP2 ADD SWAP1 POP PUSH2 0x645 JUMP JUMPDEST DUP7 DUP4 LT ISZERO PUSH2 0x687 JUMPI DUP5 DUP10 ADD MLOAD PUSH2 0x683 PUSH1 0x1F DUP10 AND DUP3 PUSH2 0x596 JUMP JUMPDEST DUP4 SSTORE POP JUMPDEST PUSH1 0x1 PUSH1 0x2 DUP9 MUL ADD DUP9 SSTORE POP POP POP JUMPDEST POP POP POP POP POP POP JUMP JUMPDEST PUSH0 PUSH20 0xFFFFFFFFFFFFFFFFFFFFFFFFFFFFFFFFFFFFFFFF DUP3 AND SWAP1 POP SWAP2 SWAP1 POP JUMP JUMPDEST PUSH0 PUSH2 0x6C5 DUP3 PUSH2 0x69C JUMP JUMPDEST SWAP1 POP SWAP2 SWAP1 POP JUMP JUMPDEST PUSH2 0x6D5 DUP2 PUSH2 0x6BB JUMP JUMPDEST DUP3 MSTORE POP POP JUMP JUMPDEST PUSH0 PUSH1 0x20 DUP3 ADD SWAP1 POP PUSH2 0x6EE PUSH0 DUP4 ADD DUP5 PUSH2 0x6CC JUMP JUMPDEST SWAP3 SWAP2 POP POP JUMP JUMPDEST PUSH32 0x4E487B7100000000000000000000000000000000000000000000000000000000 PUSH0 MSTORE PUSH1 0x11 PUSH1 0x4 MSTORE PUSH1 0x24 PUSH0 REVERT JUMPDEST PUSH0 PUSH2 0x72B DUP3 PUSH2 0x4A5 JUMP JUMPDEST SWAP2 POP PUSH2 0x736 DUP4 PUSH2 0x4A5 JUMP JUMPDEST SWAP3 POP DUP3 DUP3 ADD SWAP1 POP DUP1 DUP3 GT ISZERO PUSH2 0x74E JUMPI PUSH2 0x74D PUSH2 0x6F4 JUMP JUMPDEST JUMPDEST SWAP3 SWAP2 POP POP JUMP JUMPDEST PUSH2 0x75D DUP2 PUSH2 0x4A5 JUMP JUMPDEST DUP3 MSTORE POP POP JUMP JUMPDEST PUSH0 PUSH1 0x60 DUP3 ADD SWAP1 POP PUSH2 0x776 PUSH0 DUP4 ADD DUP7 PUSH2 0x6CC JUMP JUMPDEST PUSH2 0x783 PUSH1 0x20 DUP4 ADD DUP6 PUSH2 0x754 JUMP JUMPDEST PUSH2 0x790 PUSH1 0x40 DUP4 ADD DUP5 PUSH2 0x754 JUMP JUMPDEST SWAP5 SWAP4 POP POP POP POP JUMP JUMPDEST PUSH0 PUSH1 0x20 DUP3 ADD SWAP1 POP PUSH2 0x7AB PUSH0 DUP4 ADD DUP5 PUSH2 0x754 JUMP JUMPDEST SWAP3 SWAP2 POP POP JUMP JUMPDEST PUSH2 0x2246 DUP1 PUSH2 0x7BE PUSH0 CODECOPY PUSH0 RETURN INVALID PUSH1 0x80 PUSH1 0x40 MSTORE CALLVALUE DUP1 ISZERO PUSH2 0xF JUMPI PUSH0 DUP1 REVERT JUMPDEST POP PUSH1 0x4 CALLDATASIZE LT PUSH2 0x11F JUMPI PUSH0 CALLDATALOAD PUSH1 0xE0 SHR DUP1 PUSH4 0x503C560F GT PUSH2 0xAB JUMPI DUP1 PUSH4 0xA9059CBB GT PUSH2 0x6F JUMPI DUP1 PUSH4 0xA9059CBB EQ PUSH2 0x31C JUMPI DUP1 PUSH4 0xC45A0155 EQ PUSH2 0x34C JUMPI DUP1 PUSH4 0xDCD8DB46 EQ PUSH2 0x36A JUMPI DUP1 PUSH4 0xDD62ED3E EQ PUSH2 0x39A JUMPI DUP1 PUSH4 0xDEEBEAC9 EQ PUSH2 0x3CA JUMPI PUSH2 0x11F JUMP JUMPDEST DUP1 PUSH4 0x503C560F EQ PUSH2 0x265 JUMPI DUP1 PUSH4 0x70A08231 EQ PUSH2 0x281 JUMPI DUP1 PUSH4 0x8F023F85 EQ PUSH2 0x2B1 JUMPI DUP1 PUSH4 0x95D89B41 EQ PUSH2 0x2E2 JUMPI DUP1 PUSH4 0xA0712D68 EQ PUSH2 0x300 JUMPI PUSH2 0x11F JUMP JUMPDEST DUP1 PUSH4 0x18160DDD GT PUSH2 0xF2 JUMPI DUP1 PUSH4 0x18160DDD EQ PUSH2 0x1BD JUMPI DUP1 PUSH4 0x198CC691 EQ PUSH2 0x1DB JUMPI DUP1 PUSH4 0x23B872DD EQ PUSH2 0x1F9 JUMPI DUP1 PUSH4 0x313CE567 EQ PUSH2 0x229 JUMPI DUP1 PUSH4 0x32BF68D4 EQ PUSH2 0x247 JUMPI PUSH2 0x11F JUMP JUMPDEST DUP1 PUSH4 0x121B93F EQ PUSH2 0x123 JUMPI DUP1 PUSH4 0x6FDDE03 EQ PUSH2 0x13F JUMPI DUP1 PUSH4 0x95EA7B3 EQ PUSH2 0x15D JUMPI DUP1 PUSH4 0x9EEF43E EQ PUSH2 0x18D JUMPI JUMPDEST PUSH0 DUP1 REVERT JUMPDEST PUSH2 0x13D PUSH1 0x4 DUP1 CALLDATASIZE SUB DUP2 ADD SWAP1 PUSH2 0x138 SWAP2 SWAP1 PUSH2 0x151D JUMP JUMPDEST PUSH2 0x3E6 JUMP JUMPDEST STOP JUMPDEST PUSH2 0x147 PUSH2 0x59D JUMP JUMPDEST PUSH1 0x40 MLOAD PUSH2 0x154 SWAP2 SWAP1 PUSH2 0x15B8 JUMP JUMPDEST PUSH1 0x40 MLOAD DUP1 SWAP2 SUB SWAP1 RETURN JUMPDEST PUSH2 0x177 PUSH1 0x4 DUP1 CALLDATASIZE SUB DUP2 ADD SWAP1 PUSH2 0x172 SWAP2 SWAP1 PUSH2 0x1632 JUMP JUMPDEST PUSH2 0x62D JUMP JUMPDEST PUSH1 0x40 MLOAD PUSH2 0x184 SWAP2 SWAP1 PUSH2 0x168A JUMP JUMPDEST PUSH1 0x40 MLOAD DUP1 SWAP2 SUB SWAP1 RETURN JUMPDEST PUSH2 0x1A7 PUSH1 0x4 DUP1 CALLDATASIZE SUB DUP2 ADD SWAP1 PUSH2 0x1A2 SWAP2 SWAP1 PUSH2 0x16A3 JUMP JUMPDEST PUSH2 0x64F JUMP JUMPDEST PUSH1 0x40 MLOAD PUSH2 0x1B4 SWAP2 SWAP1 PUSH2 0x168A JUMP JUMPDEST PUSH1 0x40 MLOAD DUP1 SWAP2 SUB SWAP1 RETURN JUMPDEST PUSH2 0x1C5 PUSH2 0x66C JUMP JUMPDEST PUSH1 0x40 MLOAD PUSH2 0x1D2 SWAP2 SWAP1 PUSH2 0x16DD JUMP JUMPDEST PUSH1 0x40 MLOAD DUP1 SWAP2 SUB SWAP1 RETURN JUMPDEST PUSH2 0x1E3 PUSH2 0x675 JUMP JUMPDEST PUSH1 0x40 MLOAD PUSH2 0x1F0 SWAP2 SWAP1 PUSH2 0x1842 JUMP JUMPDEST PUSH1 0x40 MLOAD DUP1 SWAP2 SUB SWAP1 RETURN JUMPDEST PUSH2 0x213 PUSH1 0x4 DUP1 CALLDATASIZE SUB DUP2 ADD SWAP1 PUSH2 0x20E SWAP2 SWAP1 PUSH2 0x1862 JUMP JUMPDEST PUSH2 0x76A JUMP JUMPDEST PUSH1 0x40 MLOAD PUSH2 0x220 SWAP2 SWAP1 PUSH2 0x168A JUMP JUMPDEST PUSH1 0x40 MLOAD DUP1 SWAP2 SUB SWAP1 RETURN JUMPDEST PUSH2 0x231 PUSH2 0x798 JUMP JUMPDEST PUSH1 0x40 MLOAD PUSH2 0x23E SWAP2 SWAP1 PUSH2 0x18CD JUMP JUMPDEST PUSH1 0x40 MLOAD DUP1 SWAP2 SUB SWAP1 RETURN JUMPDEST PUSH2 0x24F PUSH2 0x7A0 JUMP JUMPDEST PUSH1 0x40 MLOAD PUSH2 0x25C SWAP2 SWAP1 PUSH2 0x199D JUMP JUMPDEST PUSH1 0x40 MLOAD DUP1 SWAP2 SUB SWAP1 RETURN JUMPDEST PUSH2 0x27F PUSH1 0x4 DUP1 CALLDATASIZE SUB DUP2 ADD SWAP1 PUSH2 0x27A SWAP2 SWAP1 PUSH2 0x1AE9 JUMP JUMPDEST PUSH2 0x82B JUMP JUMPDEST STOP JUMPDEST PUSH2 0x29B PUSH1 0x4 DUP1 CALLDATASIZE SUB DUP2 ADD SWAP1 PUSH2 0x296 SWAP2 SWAP1 PUSH2 0x16A3 JUMP JUMPDEST PUSH2 0x951 JUMP JUMPDEST PUSH1 0x40 MLOAD PUSH2 0x2A8 SWAP2 SWAP1 PUSH2 0x16DD JUMP JUMPDEST PUSH1 0x40 MLOAD DUP1 SWAP2 SUB SWAP1 RETURN JUMPDEST PUSH2 0x2CB PUSH1 0x4 DUP1 CALLDATASIZE SUB DUP2 ADD SWAP1 PUSH2 0x2C6 SWAP2 SWAP1 PUSH2 0x151D JUMP JUMPDEST PUSH2 0x996 JUMP JUMPDEST PUSH1 0x40 MLOAD PUSH2 0x2D9 SWAP3 SWAP2 SWAP1 PUSH2 0x1B30 JUMP JUMPDEST PUSH1 0x40 MLOAD DUP1 SWAP2 SUB SWAP1 RETURN JUMPDEST PUSH2 0x2EA PUSH2 0xA4B JUMP JUMPDEST PUSH1 0x40 MLOAD PUSH2 0x2F7 SWAP2 SWAP1 PUSH2 0x15B8 JUMP JUMPDEST PUSH1 0x40 MLOAD DUP1 SWAP2 SUB SWAP1 RETURN JUMPDEST PUSH2 0x31A PUSH1 0x4 DUP1 CALLDATASIZE SUB DUP2 ADD SWAP1 PUSH2 0x315 SWAP2 SWAP1 PUSH2 0x151D JUMP JUMPDEST PUSH2 0xADB JUMP JUMPDEST STOP JUMPDEST PUSH2 0x336 PUSH1 0x4 DUP1 CALLDATASIZE SUB DUP2 ADD SWAP1 PUSH2 0x331 SWAP2 SWAP1 PUSH2 0x1632 JUMP JUMPDEST PUSH2 0xB77 JUMP JUMPDEST PUSH1 0x40 MLOAD PUSH2 0x343 SWAP2 SWAP1 PUSH2 0x168A JUMP JUMPDEST PUSH1 0x40 MLOAD DUP1 SWAP2 SUB SWAP1 RETURN JUMPDEST PUSH2 0x354 PUSH2 0xB99 JUMP JUMPDEST PUSH1 0x40 MLOAD PUSH2 0x361 SWAP2 SWAP1 PUSH2 0x1B6D JUMP JUMPDEST PUSH1 0x40 MLOAD DUP1 SWAP2 SUB SWAP1 RETURN JUMPDEST PUSH2 0x384 PUSH1 0x4 DUP1 CALLDATASIZE SUB DUP2 ADD SWAP1 PUSH2 0x37F SWAP2 SWAP1 PUSH2 0x151D JUMP JUMPDEST PUSH2 0xBBE JUMP JUMPDEST PUSH1 0x40 MLOAD PUSH2 0x391 SWAP2 SWAP1 PUSH2 0x1B6D JUMP JUMPDEST PUSH1 0x40 MLOAD DUP1 SWAP2 SUB SWAP1 RETURN JUMPDEST PUSH2 0x3B4 PUSH1 0x4 DUP1 CALLDATASIZE SUB DUP2 ADD SWAP1 PUSH2 0x3AF SWAP2 SWAP1 PUSH2 0x1B86 JUMP JUMPDEST PUSH2 0xBF9 JUMP JUMPDEST PUSH1 0x40 MLOAD PUSH2 0x3C1 SWAP2 SWAP1 PUSH2 0x16DD JUMP JUMPDEST PUSH1 0x40 MLOAD DUP1 SWAP2 SUB SWAP1 RETURN JUMPDEST PUSH2 0x3E4 PUSH1 0x4 DUP1 CALLDATASIZE SUB DUP2 ADD SWAP1 PUSH2 0x3DF SWAP2 SWAP1 PUSH2 0x16A3 JUMP JUMPDEST PUSH2 0xC7B JUMP JUMPDEST STOP JUMPDEST PUSH1 0x1 PUSH2 0x3F1 CALLER PUSH2 0x951 JUMP JUMPDEST EQ PUSH2 0x431 JUMPI PUSH1 0x40 MLOAD PUSH32 0x8C379A000000000000000000000000000000000000000000000000000000000 DUP2 MSTORE PUSH1 0x4 ADD PUSH2 0x428 SWAP1 PUSH2 0x1C34 JUMP JUMPDEST PUSH1 0x40 MLOAD DUP1 SWAP2 SUB SWAP1 REVERT JUMPDEST PUSH1 0x8 PUSH0 CALLER PUSH20 0xFFFFFFFFFFFFFFFFFFFFFFFFFFFFFFFFFFFFFFFF AND PUSH20 0xFFFFFFFFFFFFFFFFFFFFFFFFFFFFFFFFFFFFFFFF AND DUP2 MSTORE PUSH1 0x20 ADD SWAP1 DUP2 MSTORE PUSH1 0x20 ADD PUSH0 KECCAK256 PUSH0 SWAP1 SLOAD SWAP1 PUSH2 0x100 EXP SWAP1 DIV PUSH1 0xFF AND ISZERO PUSH2 0x4BB JUMPI PUSH1 0x40 MLOAD PUSH32 0x8C379A000000000000000000000000000000000000000000000000000000000 DUP2 MSTORE PUSH1 0x4 ADD PUSH2 0x4B2 SWAP1 PUSH2 0x1C9C JUMP JUMPDEST PUSH1 0x40 MLOAD DUP1 SWAP2 SUB SWAP1 REVERT JUMPDEST PUSH1 0x5 DUP1 SLOAD SWAP1 POP DUP2 LT PUSH2 0x502 JUMPI PUSH1 0x40 MLOAD PUSH32 0x8C379A000000000000000000000000000000000000000000000000000000000 DUP2 MSTORE PUSH1 0x4 ADD PUSH2 0x4F9 SWAP1 PUSH2 0x1D04 JUMP JUMPDEST PUSH1 0x40 MLOAD DUP1 SWAP2 SUB SWAP1 REVERT JUMPDEST PUSH2 0x50D CALLER PUSH1 0x1 PUSH2 0xE58 JUMP JUMPDEST PUSH1 0x5 DUP2 DUP2 SLOAD DUP2 LT PUSH2 0x521 JUMPI PUSH2 0x520 PUSH2 0x1D22 JUMP JUMPDEST JUMPDEST SWAP1 PUSH0 MSTORE PUSH1 0x20 PUSH0 KECCAK256 SWAP1 PUSH1 0x2 MUL ADD PUSH1 0x1 ADD PUSH0 DUP2 SLOAD DUP1 SWAP3 SWAP2 SWAP1 PUSH2 0x540 SWAP1 PUSH2 0x1D7C JUMP JUMPDEST SWAP2 SWAP1 POP SSTORE POP PUSH1 0x1 PUSH1 0x8 PUSH0 CALLER PUSH20 0xFFFFFFFFFFFFFFFFFFFFFFFFFFFFFFFFFFFFFFFF AND PUSH20 0xFFFFFFFFFFFFFFFFFFFFFFFFFFFFFFFFFFFFFFFF AND DUP2 MSTORE PUSH1 0x20 ADD SWAP1 DUP2 MSTORE PUSH1 0x20 ADD PUSH0 KECCAK256 PUSH0 PUSH2 0x100 EXP DUP2 SLOAD DUP2 PUSH1 0xFF MUL NOT AND SWAP1 DUP4 ISZERO ISZERO MUL OR SWAP1 SSTORE POP POP JUMP JUMPDEST PUSH1 0x60 PUSH1 0x3 DUP1 SLOAD PUSH2 0x5AC SWAP1 PUSH2 0x1DF0 JUMP JUMPDEST DUP1 PUSH1 0x1F ADD PUSH1 0x20 DUP1 SWAP2 DIV MUL PUSH1 0x20 ADD PUSH1 0x40 MLOAD SWAP1 DUP2 ADD PUSH1 0x40 MSTORE DUP1 SWAP3 SWAP2 SWAP1 DUP2 DUP2 MSTORE PUSH1 0x20 ADD DUP3 DUP1 SLOAD PUSH2 0x5D8 SWAP1 PUSH2 0x1DF0 JUMP JUMPDEST DUP1 ISZERO PUSH2 0x623 JUMPI DUP1 PUSH1 0x1F LT PUSH2 0x5FA JUMPI PUSH2 0x100 DUP1 DUP4 SLOAD DIV MUL DUP4 MSTORE SWAP2 PUSH1 0x20 ADD SWAP2 PUSH2 0x623 JUMP JUMPDEST DUP3 ADD SWAP2 SWAP1 PUSH0 MSTORE PUSH1 0x20 PUSH0 KECCAK256 SWAP1 JUMPDEST DUP2 SLOAD DUP2 MSTORE SWAP1 PUSH1 0x1 ADD SWAP1 PUSH1 0x20 ADD DUP1 DUP4 GT PUSH2 0x606 JUMPI DUP3 SWAP1 SUB PUSH1 0x1F AND DUP3 ADD SWAP2 JUMPDEST POP POP POP POP POP SWAP1 POP SWAP1 JUMP JUMPDEST PUSH0 DUP1 PUSH2 0x637 PUSH2 0xED7 JUMP JUMPDEST SWAP1 POP PUSH2 0x644 DUP2 DUP6 DUP6 PUSH2 0xEDE JUMP JUMPDEST PUSH1 0x1 SWAP2 POP POP SWAP3 SWAP2 POP POP JUMP JUMPDEST PUSH1 0x8 PUSH1 0x20 MSTORE DUP1 PUSH0 MSTORE PUSH1 0x40 PUSH0 KECCAK256 PUSH0 SWAP2 POP SLOAD SWAP1 PUSH2 0x100 EXP SWAP1 DIV PUSH1 0xFF AND DUP2 JUMP JUMPDEST PUSH0 PUSH1 0x2 SLOAD SWAP1 POP SWAP1 JUMP JUMPDEST PUSH1 0x60 PUSH1 0x5 DUP1 SLOAD DUP1 PUSH1 0x20 MUL PUSH1 0x20 ADD PUSH1 0x40 MLOAD SWAP1 DUP2 ADD PUSH1 0x40 MSTORE DUP1 SWAP3 SWAP2 SWAP1 DUP2 DUP2 MSTORE PUSH1 0x20 ADD PUSH0 SWAP1 JUMPDEST DUP3 DUP3 LT ISZERO PUSH2 0x761 JUMPI DUP4 DUP3 SWAP1 PUSH0 MSTORE PUSH1 0x20 PUSH0 KECCAK256 SWAP1 PUSH1 0x2 MUL ADD PUSH1 0x40 MLOAD DUP1 PUSH1 0x40 ADD PUSH1 0x40 MSTORE SWAP1 DUP2 PUSH0 DUP3 ADD DUP1 SLOAD PUSH2 0x6C8 SWAP1 PUSH2 0x1DF0 JUMP JUMPDEST DUP1 PUSH1 0x1F ADD PUSH1 0x20 DUP1 SWAP2 DIV MUL PUSH1 0x20 ADD PUSH1 0x40 MLOAD SWAP1 DUP2 ADD PUSH1 0x40 MSTORE DUP1 SWAP3 SWAP2 SWAP1 DUP2 DUP2 MSTORE PUSH1 0x20 ADD DUP3 DUP1 SLOAD PUSH2 0x6F4 SWAP1 PUSH2 0x1DF0 JUMP JUMPDEST DUP1 ISZERO PUSH2 0x73F JUMPI DUP1 PUSH1 0x1F LT PUSH2 0x716 JUMPI PUSH2 0x100 DUP1 DUP4 SLOAD DIV MUL DUP4 MSTORE SWAP2 PUSH1 0x20 ADD SWAP2 PUSH2 0x73F JUMP JUMPDEST DUP3 ADD SWAP2 SWAP1 PUSH0 MSTORE PUSH1 0x20 PUSH0 KECCAK256 SWAP1 JUMPDEST DUP2 SLOAD DUP2 MSTORE SWAP1 PUSH1 0x1 ADD SWAP1 PUSH1 0x20 ADD DUP1 DUP4 GT PUSH2 0x722 JUMPI DUP3 SWAP1 SUB PUSH1 0x1F AND DUP3 ADD SWAP2 JUMPDEST POP POP POP POP POP DUP2 MSTORE PUSH1 0x20 ADD PUSH1 0x1 DUP3 ADD SLOAD DUP2 MSTORE POP POP DUP2 MSTORE PUSH1 0x20 ADD SWAP1 PUSH1 0x1 ADD SWAP1 PUSH2 0x698 JUMP JUMPDEST POP POP POP POP SWAP1 POP SWAP1 JUMP JUMPDEST PUSH0 DUP1 PUSH2 0x774 PUSH2 0xED7 JUMP JUMPDEST SWAP1 POP PUSH2 0x781 DUP6 DUP3 DUP6 PUSH2 0xEF0 JUMP JUMPDEST PUSH2 0x78C DUP6 DUP6 DUP6 PUSH2 0xF82 JUMP JUMPDEST PUSH1 0x1 SWAP2 POP POP SWAP4 SWAP3 POP POP POP JUMP JUMPDEST PUSH0 PUSH1 0x12 SWAP1 POP SWAP1 JUMP JUMPDEST PUSH1 0x60 PUSH1 0x7 DUP1 SLOAD DUP1 PUSH1 0x20 MUL PUSH1 0x20 ADD PUSH1 0x40 MLOAD SWAP1 DUP2 ADD PUSH1 0x40 MSTORE DUP1 SWAP3 SWAP2 SWAP1 DUP2 DUP2 MSTORE PUSH1 0x20 ADD DUP3 DUP1 SLOAD DUP1 ISZERO PUSH2 0x821 JUMPI PUSH1 0x20 MUL DUP3 ADD SWAP2 SWAP1 PUSH0 MSTORE PUSH1 0x20 PUSH0 KECCAK256 SWAP1 JUMPDEST DUP2 PUSH0 SWAP1 SLOAD SWAP1 PUSH2 0x100 EXP SWAP1 DIV PUSH20 0xFFFFFFFFFFFFFFFFFFFFFFFFFFFFFFFFFFFFFFFF AND PUSH20 0xFFFFFFFFFFFFFFFFFFFFFFFFFFFFFFFFFFFFFFFF AND DUP2 MSTORE PUSH1 0x20 ADD SWAP1 PUSH1 0x1 ADD SWAP1 DUP1 DUP4 GT PUSH2 0x7D8 JUMPI JUMPDEST POP POP POP POP POP SWAP1 POP SWAP1 JUMP JUMPDEST PUSH1 0x6 PUSH0 SWAP1 SLOAD SWAP1 PUSH2 0x100 EXP SWAP1 DIV PUSH20 0xFFFFFFFFFFFFFFFFFFFFFFFFFFFFFFFFFFFFFFFF AND PUSH20 0xFFFFFFFFFFFFFFFFFFFFFFFFFFFFFFFFFFFFFFFF AND CALLER PUSH20 0xFFFFFFFFFFFFFFFFFFFFFFFFFFFFFFFFFFFFFFFF AND EQ PUSH2 0x8BA JUMPI PUSH1 0x40 MLOAD PUSH32 0x8C379A000000000000000000000000000000000000000000000000000000000 DUP2 MSTORE PUSH1 0x4 ADD PUSH2 0x8B1 SWAP1 PUSH2 0x1E90 JUMP JUMPDEST PUSH1 0x40 MLOAD DUP1 SWAP2 SUB SWAP1 REVERT JUMPDEST PUSH1 0x5 PUSH1 0x40 MLOAD DUP1 PUSH1 0x40 ADD PUSH1 0x40 MSTORE DUP1 DUP4 DUP2 MSTORE PUSH1 0x20 ADD PUSH0 DUP2 MSTORE POP SWAP1 DUP1 PUSH1 0x1 DUP2 SLOAD ADD DUP1 DUP3 SSTORE DUP1 SWAP2 POP POP PUSH1 0x1 SWAP1 SUB SWAP1 PUSH0 MSTORE PUSH1 0x20 PUSH0 KECCAK256 SWAP1 PUSH1 0x2 MUL ADD PUSH0 SWAP1 SWAP2 SWAP1 SWAP2 SWAP1 SWAP2 POP PUSH0 DUP3 ADD MLOAD DUP2 PUSH0 ADD SWAP1 DUP2 PUSH2 0x90A SWAP2 SWAP1 PUSH2 0x204B JUMP JUMPDEST POP PUSH1 0x20 DUP3 ADD MLOAD DUP2 PUSH1 0x1 ADD SSTORE POP POP PUSH32 0x566C2D39711B082CC685ADE507DEE6291F47044333D9ABA4037034CDC3CFAC9E DUP2 PUSH1 0x40 MLOAD PUSH2 0x946 SWAP2 SWAP1 PUSH2 0x15B8 JUMP JUMPDEST PUSH1 0x40 MLOAD DUP1 SWAP2 SUB SWAP1 LOG1 POP JUMP JUMPDEST PUSH0 DUP1 PUSH0 DUP4 PUSH20 0xFFFFFFFFFFFFFFFFFFFFFFFFFFFFFFFFFFFFFFFF AND PUSH20 0xFFFFFFFFFFFFFFFFFFFFFFFFFFFFFFFFFFFFFFFF AND DUP2 MSTORE PUSH1 0x20 ADD SWAP1 DUP2 MSTORE PUSH1 0x20 ADD PUSH0 KECCAK256 SLOAD SWAP1 POP SWAP2 SWAP1 POP JUMP JUMPDEST PUSH1 0x5 DUP2 DUP2 SLOAD DUP2 LT PUSH2 0x9A5 JUMPI PUSH0 DUP1 REVERT JUMPDEST SWAP1 PUSH0 MSTORE PUSH1 0x20 PUSH0 KECCAK256 SWAP1 PUSH1 0x2 MUL ADD PUSH0 SWAP2 POP SWAP1 POP DUP1 PUSH0 ADD DUP1 SLOAD PUSH2 0x9C4 SWAP1 PUSH2 0x1DF0 JUMP JUMPDEST DUP1 PUSH1 0x1F ADD PUSH1 0x20 DUP1 SWAP2 DIV MUL PUSH1 0x20 ADD PUSH1 0x40 MLOAD SWAP1 DUP2 ADD PUSH1 0x40 MSTORE DUP1 SWAP3 SWAP2 SWAP1 DUP2 DUP2 MSTORE PUSH1 0x20 ADD DUP3 DUP1 SLOAD PUSH2 0x9F0 SWAP1 PUSH2 0x1DF0 JUMP JUMPDEST DUP1 ISZERO PUSH2 0xA3B JUMPI DUP1 PUSH1 0x1F LT PUSH2 0xA12 JUMPI PUSH2 0x100 DUP1 DUP4 SLOAD DIV MUL DUP4 MSTORE SWAP2 PUSH1 0x20 ADD SWAP2 PUSH2 0xA3B JUMP JUMPDEST DUP3 ADD SWAP2 SWAP1 PUSH0 MSTORE PUSH1 0x20 PUSH0 KECCAK256 SWAP1 JUMPDEST DUP2 SLOAD DUP2 MSTORE SWAP1 PUSH1 0x1 ADD SWAP1 PUSH1 0x20 ADD DUP1 DUP4 GT PUSH2 0xA1E JUMPI DUP3 SWAP1 SUB PUSH1 0x1F AND DUP3 ADD SWAP2 JUMPDEST POP POP POP POP POP SWAP1 DUP1 PUSH1 0x1 ADD SLOAD SWAP1 POP DUP3 JUMP JUMPDEST PUSH1 0x60 PUSH1 0x4 DUP1 SLOAD PUSH2 0xA5A SWAP1 PUSH2 0x1DF0 JUMP JUMPDEST DUP1 PUSH1 0x1F ADD PUSH1 0x20 DUP1 SWAP2 DIV MUL PUSH1 0x20 ADD PUSH1 0x40 MLOAD SWAP1 DUP2 ADD PUSH1 0x40 MSTORE DUP1 SWAP3 SWAP2 SWAP1 DUP2 DUP2 MSTORE PUSH1 0x20 ADD DUP3 DUP1 SLOAD PUSH2 0xA86 SWAP1 PUSH2 0x1DF0 JUMP JUMPDEST DUP1 ISZERO PUSH2 0xAD1 JUMPI DUP1 PUSH1 0x1F LT PUSH2 0xAA8 JUMPI PUSH2 0x100 DUP1 DUP4 SLOAD DIV MUL DUP4 MSTORE SWAP2 PUSH1 0x20 ADD SWAP2 PUSH2 0xAD1 JUMP JUMPDEST DUP3 ADD SWAP2 SWAP1 PUSH0 MSTORE PUSH1 0x20 PUSH0 KECCAK256 SWAP1 JUMPDEST DUP2 SLOAD DUP2 MSTORE SWAP1 PUSH1 0x1 ADD SWAP1 PUSH1 0x20 ADD DUP1 DUP4 GT PUSH2 0xAB4 JUMPI DUP3 SWAP1 SUB PUSH1 0x1F AND DUP3 ADD SWAP2 JUMPDEST POP POP POP POP POP SWAP1 POP SWAP1 JUMP JUMPDEST PUSH1 0x6 PUSH0 SWAP1 SLOAD SWAP1 PUSH2 0x100 EXP SWAP1 DIV PUSH20 0xFFFFFFFFFFFFFFFFFFFFFFFFFFFFFFFFFFFFFFFF AND PUSH20 0xFFFFFFFFFFFFFFFFFFFFFFFFFFFFFFFFFFFFFFFF AND CALLER PUSH20 0xFFFFFFFFFFFFFFFFFFFFFFFFFFFFFFFFFFFFFFFF AND EQ PUSH2 0xB6A JUMPI PUSH1 0x40 MLOAD PUSH32 0x8C379A000000000000000000000000000000000000000000000000000000000 DUP2 MSTORE PUSH1 0x4 ADD PUSH2 0xB61 SWAP1 PUSH2 0x1E90 JUMP JUMPDEST PUSH1 0x40 MLOAD DUP1 SWAP2 SUB SWAP1 REVERT JUMPDEST PUSH2 0xB74 ADDRESS DUP3 PUSH2 0x1072 JUMP JUMPDEST POP JUMP JUMPDEST PUSH0 DUP1 PUSH2 0xB81 PUSH2 0xED7 JUMP JUMPDEST SWAP1 POP PUSH2 0xB8E DUP2 DUP6 DUP6 PUSH2 0xF82 JUMP JUMPDEST PUSH1 0x1 SWAP2 POP POP SWAP3 SWAP2 POP POP JUMP JUMPDEST PUSH1 0x6 PUSH0 SWAP1 SLOAD SWAP1 PUSH2 0x100 EXP SWAP1 DIV PUSH20 0xFFFFFFFFFFFFFFFFFFFFFFFFFFFFFFFFFFFFFFFF AND DUP2 JUMP JUMPDEST PUSH1 0x7 DUP2 DUP2 SLOAD DUP2 LT PUSH2 0xBCD JUMPI PUSH0 DUP1 REVERT JUMPDEST SWAP1 PUSH0 MSTORE PUSH1 0x20 PUSH0 KECCAK256 ADD PUSH0 SWAP2 POP SLOAD SWAP1 PUSH2 0x100 EXP SWAP1 DIV PUSH20 0xFFFFFFFFFFFFFFFFFFFFFFFFFFFFFFFFFFFFFFFF AND DUP2 JUMP JUMPDEST PUSH0 PUSH1 0x1 PUSH0 DUP5 PUSH20 0xFFFFFFFFFFFFFFFFFFFFFFFFFFFFFFFFFFFFFFFF AND PUSH20 0xFFFFFFFFFFFFFFFFFFFFFFFFFFFFFFFFFFFFFFFF AND DUP2 MSTORE PUSH1 0x20 ADD SWAP1 DUP2 MSTORE PUSH1 0x20 ADD PUSH0 KECCAK256 PUSH0 DUP4 PUSH20 0xFFFFFFFFFFFFFFFFFFFFFFFFFFFFFFFFFFFFFFFF AND PUSH20 0xFFFFFFFFFFFFFFFFFFFFFFFFFFFFFFFFFFFFFFFF AND DUP2 MSTORE PUSH1 0x20 ADD SWAP1 DUP2 MSTORE PUSH1 0x20 ADD PUSH0 KECCAK256 SLOAD SWAP1 POP SWAP3 SWAP2 POP POP JUMP JUMPDEST PUSH1 0x6 PUSH0 SWAP1 SLOAD SWAP1 PUSH2 0x100 EXP SWAP1 DIV PUSH20 0xFFFFFFFFFFFFFFFFFFFFFFFFFFFFFFFFFFFFFFFF AND PUSH20 0xFFFFFFFFFFFFFFFFFFFFFFFFFFFFFFFFFFFFFFFF AND CALLER PUSH20 0xFFFFFFFFFFFFFFFFFFFFFFFFFFFFFFFFFFFFFFFF AND EQ PUSH2 0xD0A JUMPI PUSH1 0x40 MLOAD PUSH32 0x8C379A000000000000000000000000000000000000000000000000000000000 DUP2 MSTORE PUSH1 0x4 ADD PUSH2 0xD01 SWAP1 PUSH2 0x1E90 JUMP JUMPDEST PUSH1 0x40 MLOAD DUP1 SWAP2 SUB SWAP1 REVERT JUMPDEST PUSH1 0x8 PUSH0 DUP3 PUSH20 0xFFFFFFFFFFFFFFFFFFFFFFFFFFFFFFFFFFFFFFFF AND PUSH20 0xFFFFFFFFFFFFFFFFFFFFFFFFFFFFFFFFFFFFFFFF AND DUP2 MSTORE PUSH1 0x20 ADD SWAP1 DUP2 MSTORE PUSH1 0x20 ADD PUSH0 KECCAK256 PUSH0 SWAP1 SLOAD SWAP1 PUSH2 0x100 EXP SWAP1 DIV PUSH1 0xFF AND ISZERO PUSH2 0xD94 JUMPI PUSH1 0x40 MLOAD PUSH32 0x8C379A000000000000000000000000000000000000000000000000000000000 DUP2 MSTORE PUSH1 0x4 ADD PUSH2 0xD8B SWAP1 PUSH2 0x218A JUMP JUMPDEST PUSH1 0x40 MLOAD DUP1 SWAP2 SUB SWAP1 REVERT JUMPDEST PUSH2 0xDA0 ADDRESS DUP3 PUSH1 0x1 PUSH2 0xF82 JUMP JUMPDEST PUSH1 0x7 DUP2 SWAP1 DUP1 PUSH1 0x1 DUP2 SLOAD ADD DUP1 DUP3 SSTORE DUP1 SWAP2 POP POP PUSH1 0x1 SWAP1 SUB SWAP1 PUSH0 MSTORE PUSH1 0x20 PUSH0 KECCAK256 ADD PUSH0 SWAP1 SWAP2 SWAP1 SWAP2 SWAP1 SWAP2 PUSH2 0x100 EXP DUP2 SLOAD DUP2 PUSH20 0xFFFFFFFFFFFFFFFFFFFFFFFFFFFFFFFFFFFFFFFF MUL NOT AND SWAP1 DUP4 PUSH20 0xFFFFFFFFFFFFFFFFFFFFFFFFFFFFFFFFFFFFFFFF AND MUL OR SWAP1 SSTORE POP PUSH1 0x1 PUSH1 0x8 PUSH0 DUP4 PUSH20 0xFFFFFFFFFFFFFFFFFFFFFFFFFFFFFFFFFFFFFFFF AND PUSH20 0xFFFFFFFFFFFFFFFFFFFFFFFFFFFFFFFFFFFFFFFF AND DUP2 MSTORE PUSH1 0x20 ADD SWAP1 DUP2 MSTORE PUSH1 0x20 ADD PUSH0 KECCAK256 PUSH0 PUSH2 0x100 EXP DUP2 SLOAD DUP2 PUSH1 0xFF MUL NOT AND SWAP1 DUP4 ISZERO ISZERO MUL OR SWAP1 SSTORE POP POP JUMP JUMPDEST PUSH0 PUSH20 0xFFFFFFFFFFFFFFFFFFFFFFFFFFFFFFFFFFFFFFFF AND DUP3 PUSH20 0xFFFFFFFFFFFFFFFFFFFFFFFFFFFFFFFFFFFFFFFF AND SUB PUSH2 0xEC8 JUMPI PUSH0 PUSH1 0x40 MLOAD PUSH32 0x96C6FD1E00000000000000000000000000000000000000000000000000000000 DUP2 MSTORE PUSH1 0x4 ADD PUSH2 0xEBF SWAP2 SWAP1 PUSH2 0x1B6D JUMP JUMPDEST PUSH1 0x40 MLOAD DUP1 SWAP2 SUB SWAP1 REVERT JUMPDEST PUSH2 0xED3 DUP3 PUSH0 DUP4 PUSH2 0x10F1 JUMP JUMPDEST POP POP JUMP JUMPDEST PUSH0 CALLER SWAP1 POP SWAP1 JUMP JUMPDEST PUSH2 0xEEB DUP4 DUP4 DUP4 PUSH1 0x1 PUSH2 0x130A JUMP JUMPDEST POP POP POP JUMP JUMPDEST PUSH0 PUSH2 0xEFB DUP5 DUP5 PUSH2 0xBF9 JUMP JUMPDEST SWAP1 POP PUSH32 0xFFFFFFFFFFFFFFFFFFFFFFFFFFFFFFFFFFFFFFFFFFFFFFFFFFFFFFFFFFFFFFFF DUP2 EQ PUSH2 0xF7C JUMPI DUP2 DUP2 LT ISZERO PUSH2 0xF6D JUMPI DUP3 DUP2 DUP4 PUSH1 0x40 MLOAD PUSH32 0xFB8F41B200000000000000000000000000000000000000000000000000000000 DUP2 MSTORE PUSH1 0x4 ADD PUSH2 0xF64 SWAP4 SWAP3 SWAP2 SWAP1 PUSH2 0x21A8 JUMP JUMPDEST PUSH1 0x40 MLOAD DUP1 SWAP2 SUB SWAP1 REVERT JUMPDEST PUSH2 0xF7B DUP5 DUP5 DUP5 DUP5 SUB PUSH0 PUSH2 0x130A JUMP JUMPDEST JUMPDEST POP POP POP POP JUMP JUMPDEST PUSH0 PUSH20 0xFFFFFFFFFFFFFFFFFFFFFFFFFFFFFFFFFFFFFFFF AND DUP4 PUSH20 0xFFFFFFFFFFFFFFFFFFFFFFFFFFFFFFFFFFFFFFFF AND SUB PUSH2 0xFF2 JUMPI PUSH0 PUSH1 0x40 MLOAD PUSH32 0x96C6FD1E00000000000000000000000000000000000000000000000000000000 DUP2 MSTORE PUSH1 0x4 ADD PUSH2 0xFE9 SWAP2 SWAP1 PUSH2 0x1B6D JUMP JUMPDEST PUSH1 0x40 MLOAD DUP1 SWAP2 SUB SWAP1 REVERT JUMPDEST PUSH0 PUSH20 0xFFFFFFFFFFFFFFFFFFFFFFFFFFFFFFFFFFFFFFFF AND DUP3 PUSH20 0xFFFFFFFFFFFFFFFFFFFFFFFFFFFFFFFFFFFFFFFF AND SUB PUSH2 0x1062 JUMPI PUSH0 PUSH1 0x40 MLOAD PUSH32 0xEC442F0500000000000000000000000000000000000000000000000000000000 DUP2 MSTORE PUSH1 0x4 ADD PUSH2 0x1059 SWAP2 SWAP1 PUSH2 0x1B6D JUMP JUMPDEST PUSH1 0x40 MLOAD DUP1 SWAP2 SUB SWAP1 REVERT JUMPDEST PUSH2 0x106D DUP4 DUP4 DUP4 PUSH2 0x10F1 JUMP JUMPDEST POP POP POP JUMP JUMPDEST PUSH0 PUSH20 0xFFFFFFFFFFFFFFFFFFFFFFFFFFFFFFFFFFFFFFFF AND DUP3 PUSH20 0xFFFFFFFFFFFFFFFFFFFFFFFFFFFFFFFFFFFFFFFF AND SUB PUSH2 0x10E2 JUMPI PUSH0 PUSH1 0x40 MLOAD PUSH32 0xEC442F0500000000000000000000000000000000000000000000000000000000 DUP2 MSTORE PUSH1 0x4 ADD PUSH2 0x10D9 SWAP2 SWAP1 PUSH2 0x1B6D JUMP JUMPDEST PUSH1 0x40 MLOAD DUP1 SWAP2 SUB SWAP1 REVERT JUMPDEST PUSH2 0x10ED PUSH0 DUP4 DUP4 PUSH2 0x10F1 JUMP JUMPDEST POP POP JUMP JUMPDEST PUSH0 PUSH20 0xFFFFFFFFFFFFFFFFFFFFFFFFFFFFFFFFFFFFFFFF AND DUP4 PUSH20 0xFFFFFFFFFFFFFFFFFFFFFFFFFFFFFFFFFFFFFFFF AND SUB PUSH2 0x1141 JUMPI DUP1 PUSH1 0x2 PUSH0 DUP3 DUP3 SLOAD PUSH2 0x1135 SWAP2 SWAP1 PUSH2 0x21DD JUMP JUMPDEST SWAP3 POP POP DUP2 SWAP1 SSTORE POP PUSH2 0x120F JUMP JUMPDEST PUSH0 DUP1 PUSH0 DUP6 PUSH20 0xFFFFFFFFFFFFFFFFFFFFFFFFFFFFFFFFFFFFFFFF AND PUSH20 0xFFFFFFFFFFFFFFFFFFFFFFFFFFFFFFFFFFFFFFFF AND DUP2 MSTORE PUSH1 0x20 ADD SWAP1 DUP2 MSTORE PUSH1 0x20 ADD PUSH0 KECCAK256 SLOAD SWAP1 POP DUP2 DUP2 LT ISZERO PUSH2 0x11CA JUMPI DUP4 DUP2 DUP4 PUSH1 0x40 MLOAD PUSH32 0xE450D38C00000000000000000000000000000000000000000000000000000000 DUP2 MSTORE PUSH1 0x4 ADD PUSH2 0x11C1 SWAP4 SWAP3 SWAP2 SWAP1 PUSH2 0x21A8 JUMP JUMPDEST PUSH1 0x40 MLOAD DUP1 SWAP2 SUB SWAP1 REVERT JUMPDEST DUP2 DUP2 SUB PUSH0 DUP1 DUP7 PUSH20 0xFFFFFFFFFFFFFFFFFFFFFFFFFFFFFFFFFFFFFFFF AND PUSH20 0xFFFFFFFFFFFFFFFFFFFFFFFFFFFFFFFFFFFFFFFF AND DUP2 MSTORE PUSH1 0x20 ADD SWAP1 DUP2 MSTORE PUSH1 0x20 ADD PUSH0 KECCAK256 DUP2 SWAP1 SSTORE POP POP JUMPDEST PUSH0 PUSH20 0xFFFFFFFFFFFFFFFFFFFFFFFFFFFFFFFFFFFFFFFF AND DUP3 PUSH20 0xFFFFFFFFFFFFFFFFFFFFFFFFFFFFFFFFFFFFFFFF AND SUB PUSH2 0x1256 JUMPI DUP1 PUSH1 0x2 PUSH0 DUP3 DUP3 SLOAD SUB SWAP3 POP POP DUP2 SWAP1 SSTORE POP PUSH2 0x12A0 JUMP JUMPDEST DUP1 PUSH0 DUP1 DUP5 PUSH20 0xFFFFFFFFFFFFFFFFFFFFFFFFFFFFFFFFFFFFFFFF AND PUSH20 0xFFFFFFFFFFFFFFFFFFFFFFFFFFFFFFFFFFFFFFFF AND DUP2 MSTORE PUSH1 0x20 ADD SWAP1 DUP2 MSTORE PUSH1 0x20 ADD PUSH0 KECCAK256 PUSH0 DUP3 DUP3 SLOAD ADD SWAP3 POP POP DUP2 SWAP1 SSTORE POP JUMPDEST DUP2 PUSH20 0xFFFFFFFFFFFFFFFFFFFFFFFFFFFFFFFFFFFFFFFF AND DUP4 PUSH20 0xFFFFFFFFFFFFFFFFFFFFFFFFFFFFFFFFFFFFFFFF AND PUSH32 0xDDF252AD1BE2C89B69C2B068FC378DAA952BA7F163C4A11628F55A4DF523B3EF DUP4 PUSH1 0x40 MLOAD PUSH2 0x12FD SWAP2 SWAP1 PUSH2 0x16DD JUMP JUMPDEST PUSH1 0x40 MLOAD DUP1 SWAP2 SUB SWAP1 LOG3 POP POP POP JUMP JUMPDEST PUSH0 PUSH20 0xFFFFFFFFFFFFFFFFFFFFFFFFFFFFFFFFFFFFFFFF AND DUP5 PUSH20 0xFFFFFFFFFFFFFFFFFFFFFFFFFFFFFFFFFFFFFFFF AND SUB PUSH2 0x137A JUMPI PUSH0 PUSH1 0x40 MLOAD PUSH32 0xE602DF0500000000000000000000000000000000000000000000000000000000 DUP2 MSTORE PUSH1 0x4 ADD PUSH2 0x1371 SWAP2 SWAP1 PUSH2 0x1B6D JUMP JUMPDEST PUSH1 0x40 MLOAD DUP1 SWAP2 SUB SWAP1 REVERT JUMPDEST PUSH0 PUSH20 0xFFFFFFFFFFFFFFFFFFFFFFFFFFFFFFFFFFFFFFFF AND DUP4 PUSH20 0xFFFFFFFFFFFFFFFFFFFFFFFFFFFFFFFFFFFFFFFF AND SUB PUSH2 0x13EA JUMPI PUSH0 PUSH1 0x40 MLOAD PUSH32 0x94280D6200000000000000000000000000000000000000000000000000000000 DUP2 MSTORE PUSH1 0x4 ADD PUSH2 0x13E1 SWAP2 SWAP1 PUSH2 0x1B6D JUMP JUMPDEST PUSH1 0x40 MLOAD DUP1 SWAP2 SUB SWAP1 REVERT JUMPDEST DUP2 PUSH1 0x1 PUSH0 DUP7 PUSH20 0xFFFFFFFFFFFFFFFFFFFFFFFFFFFFFFFFFFFFFFFF AND PUSH20 0xFFFFFFFFFFFFFFFFFFFFFFFFFFFFFFFFFFFFFFFF AND DUP2 MSTORE PUSH1 0x20 ADD SWAP1 DUP2 MSTORE PUSH1 0x20 ADD PUSH0 KECCAK256 PUSH0 DUP6 PUSH20 0xFFFFFFFFFFFFFFFFFFFFFFFFFFFFFFFFFFFFFFFF AND PUSH20 0xFFFFFFFFFFFFFFFFFFFFFFFFFFFFFFFFFFFFFFFF AND DUP2 MSTORE PUSH1 0x20 ADD SWAP1 DUP2 MSTORE PUSH1 0x20 ADD PUSH0 KECCAK256 DUP2 SWAP1 SSTORE POP DUP1 ISZERO PUSH2 0x14D3 JUMPI DUP3 PUSH20 0xFFFFFFFFFFFFFFFFFFFFFFFFFFFFFFFFFFFFFFFF AND DUP5 PUSH20 0xFFFFFFFFFFFFFFFFFFFFFFFFFFFFFFFFFFFFFFFF AND PUSH32 0x8C5BE1E5EBEC7D5BD14F71427D1E84F3DD0314C0F7B2291E5B200AC8C7C3B925 DUP5 PUSH1 0x40 MLOAD PUSH2 0x14CA SWAP2 SWAP1 PUSH2 0x16DD JUMP JUMPDEST PUSH1 0x40 MLOAD DUP1 SWAP2 SUB SWAP1 LOG3 JUMPDEST POP POP POP POP JUMP JUMPDEST PUSH0 PUSH1 0x40 MLOAD SWAP1 POP SWAP1 JUMP JUMPDEST PUSH0 DUP1 REVERT JUMPDEST PUSH0 DUP1 REVERT JUMPDEST PUSH0 DUP2 SWAP1 POP SWAP2 SWAP1 POP JUMP JUMPDEST PUSH2 0x14FC DUP2 PUSH2 0x14EA JUMP JUMPDEST DUP2 EQ PUSH2 0x1506 JUMPI PUSH0 DUP1 REVERT JUMPDEST POP JUMP JUMPDEST PUSH0 DUP2 CALLDATALOAD SWAP1 POP PUSH2 0x1517 DUP2 PUSH2 0x14F3 JUMP JUMPDEST SWAP3 SWAP2 POP POP JUMP JUMPDEST PUSH0 PUSH1 0x20 DUP3 DUP5 SUB SLT ISZERO PUSH2 0x1532 JUMPI PUSH2 0x1531 PUSH2 0x14E2 JUMP JUMPDEST JUMPDEST PUSH0 PUSH2 0x153F DUP5 DUP3 DUP6 ADD PUSH2 0x1509 JUMP JUMPDEST SWAP2 POP POP SWAP3 SWAP2 POP POP JUMP JUMPDEST PUSH0 DUP2 MLOAD SWAP1 POP SWAP2 SWAP1 POP JUMP JUMPDEST PUSH0 DUP3 DUP3 MSTORE PUSH1 0x20 DUP3 ADD SWAP1 POP SWAP3 SWAP2 POP POP JUMP JUMPDEST DUP3 DUP2 DUP4 MCOPY PUSH0 DUP4 DUP4 ADD MSTORE POP POP POP JUMP JUMPDEST PUSH0 PUSH1 0x1F NOT PUSH1 0x1F DUP4 ADD AND SWAP1 POP SWAP2 SWAP1 POP JUMP JUMPDEST PUSH0 PUSH2 0x158A DUP3 PUSH2 0x1548 JUMP JUMPDEST PUSH2 0x1594 DUP2 DUP6 PUSH2 0x1552 JUMP JUMPDEST SWAP4 POP PUSH2 0x15A4 DUP2 DUP6 PUSH1 0x20 DUP7 ADD PUSH2 0x1562 JUMP JUMPDEST PUSH2 0x15AD DUP2 PUSH2 0x1570 JUMP JUMPDEST DUP5 ADD SWAP2 POP POP SWAP3 SWAP2 POP POP JUMP JUMPDEST PUSH0 PUSH1 0x20 DUP3 ADD SWAP1 POP DUP2 DUP2 SUB PUSH0 DUP4 ADD MSTORE PUSH2 0x15D0 DUP2 DUP5 PUSH2 0x1580 JUMP JUMPDEST SWAP1 POP SWAP3 SWAP2 POP POP JUMP JUMPDEST PUSH0 PUSH20 0xFFFFFFFFFFFFFFFFFFFFFFFFFFFFFFFFFFFFFFFF DUP3 AND SWAP1 POP SWAP2 SWAP1 POP JUMP JUMPDEST PUSH0 PUSH2 0x1601 DUP3 PUSH2 0x15D8 JUMP JUMPDEST SWAP1 POP SWAP2 SWAP1 POP JUMP JUMPDEST PUSH2 0x1611 DUP2 PUSH2 0x15F7 JUMP JUMPDEST DUP2 EQ PUSH2 0x161B JUMPI PUSH0 DUP1 REVERT JUMPDEST POP JUMP JUMPDEST PUSH0 DUP2 CALLDATALOAD SWAP1 POP PUSH2 0x162C DUP2 PUSH2 0x1608 JUMP JUMPDEST SWAP3 SWAP2 POP POP JUMP JUMPDEST PUSH0 DUP1 PUSH1 0x40 DUP4 DUP6 SUB SLT ISZERO PUSH2 0x1648 JUMPI PUSH2 0x1647 PUSH2 0x14E2 JUMP JUMPDEST JUMPDEST PUSH0 PUSH2 0x1655 DUP6 DUP3 DUP7 ADD PUSH2 0x161E JUMP JUMPDEST SWAP3 POP POP PUSH1 0x20 PUSH2 0x1666 DUP6 DUP3 DUP7 ADD PUSH2 0x1509 JUMP JUMPDEST SWAP2 POP POP SWAP3 POP SWAP3 SWAP1 POP JUMP JUMPDEST PUSH0 DUP2 ISZERO ISZERO SWAP1 POP SWAP2 SWAP1 POP JUMP JUMPDEST PUSH2 0x1684 DUP2 PUSH2 0x1670 JUMP JUMPDEST DUP3 MSTORE POP POP JUMP JUMPDEST PUSH0 PUSH1 0x20 DUP3 ADD SWAP1 POP PUSH2 0x169D PUSH0 DUP4 ADD DUP5 PUSH2 0x167B JUMP JUMPDEST SWAP3 SWAP2 POP POP JUMP JUMPDEST PUSH0 PUSH1 0x20 DUP3 DUP5 SUB SLT ISZERO PUSH2 0x16B8 JUMPI PUSH2 0x16B7 PUSH2 0x14E2 JUMP JUMPDEST JUMPDEST PUSH0 PUSH2 0x16C5 DUP5 DUP3 DUP6 ADD PUSH2 0x161E JUMP JUMPDEST SWAP2 POP POP SWAP3 SWAP2 POP POP JUMP JUMPDEST PUSH2 0x16D7 DUP2 PUSH2 0x14EA JUMP JUMPDEST DUP3 MSTORE POP POP JUMP JUMPDEST PUSH0 PUSH1 0x20 DUP3 ADD SWAP1 POP PUSH2 0x16F0 PUSH0 DUP4 ADD DUP5 PUSH2 0x16CE JUMP JUMPDEST SWAP3 SWAP2 POP POP JUMP JUMPDEST PUSH0 DUP2 MLOAD SWAP1 POP SWAP2 SWAP1 POP JUMP JUMPDEST PUSH0 DUP3 DUP3 MSTORE PUSH1 0x20 DUP3 ADD SWAP1 POP SWAP3 SWAP2 POP POP JUMP JUMPDEST PUSH0 DUP2 SWAP1 POP PUSH1 0x20 DUP3 ADD SWAP1 POP SWAP2 SWAP1 POP JUMP JUMPDEST PUSH0 DUP3 DUP3 MSTORE PUSH1 0x20 DUP3 ADD SWAP1 POP SWAP3 SWAP2 POP POP JUMP JUMPDEST PUSH0 PUSH2 0x1739 DUP3 PUSH2 0x1548 JUMP JUMPDEST PUSH2 0x1743 DUP2 DUP6 PUSH2 0x171F JUMP JUMPDEST SWAP4 POP PUSH2 0x1753 DUP2 DUP6 PUSH1 0x20 DUP7 ADD PUSH2 0x1562 JUMP JUMPDEST PUSH2 0x175C DUP2 PUSH2 0x1570 JUMP JUMPDEST DUP5 ADD SWAP2 POP POP SWAP3 SWAP2 POP POP JUMP JUMPDEST PUSH2 0x1770 DUP2 PUSH2 0x14EA JUMP JUMPDEST DUP3 MSTORE POP POP JUMP JUMPDEST PUSH0 PUSH1 0x40 DUP4 ADD PUSH0 DUP4 ADD MLOAD DUP5 DUP3 SUB PUSH0 DUP7 ADD MSTORE PUSH2 0x1790 DUP3 DUP3 PUSH2 0x172F JUMP JUMPDEST SWAP2 POP POP PUSH1 0x20 DUP4 ADD MLOAD PUSH2 0x17A5 PUSH1 0x20 DUP7 ADD DUP3 PUSH2 0x1767 JUMP JUMPDEST POP DUP1 SWAP2 POP POP SWAP3 SWAP2 POP POP JUMP JUMPDEST PUSH0 PUSH2 0x17BB DUP4 DUP4 PUSH2 0x1776 JUMP JUMPDEST SWAP1 POP SWAP3 SWAP2 POP POP JUMP JUMPDEST PUSH0 PUSH1 0x20 DUP3 ADD SWAP1 POP SWAP2 SWAP1 POP JUMP JUMPDEST PUSH0 PUSH2 0x17D9 DUP3 PUSH2 0x16F6 JUMP JUMPDEST PUSH2 0x17E3 DUP2 DUP6 PUSH2 0x1700 JUMP JUMPDEST SWAP4 POP DUP4 PUSH1 0x20 DUP3 MUL DUP6 ADD PUSH2 0x17F5 DUP6 PUSH2 0x1710 JUMP JUMPDEST DUP1 PUSH0 JUMPDEST DUP6 DUP2 LT ISZERO PUSH2 0x1830 JUMPI DUP5 DUP5 SUB DUP10 MSTORE DUP2 MLOAD PUSH2 0x1811 DUP6 DUP3 PUSH2 0x17B0 JUMP JUMPDEST SWAP5 POP PUSH2 0x181C DUP4 PUSH2 0x17C3 JUMP JUMPDEST SWAP3 POP PUSH1 0x20 DUP11 ADD SWAP10 POP POP PUSH1 0x1 DUP2 ADD SWAP1 POP PUSH2 0x17F8 JUMP JUMPDEST POP DUP3 SWAP8 POP DUP8 SWAP6 POP POP POP POP POP POP SWAP3 SWAP2 POP POP JUMP JUMPDEST PUSH0 PUSH1 0x20 DUP3 ADD SWAP1 POP DUP2 DUP2 SUB PUSH0 DUP4 ADD MSTORE PUSH2 0x185A DUP2 DUP5 PUSH2 0x17CF JUMP JUMPDEST SWAP1 POP SWAP3 SWAP2 POP POP JUMP JUMPDEST PUSH0 DUP1 PUSH0 PUSH1 0x60 DUP5 DUP7 SUB SLT ISZERO PUSH2 0x1879 JUMPI PUSH2 0x1878 PUSH2 0x14E2 JUMP JUMPDEST JUMPDEST PUSH0 PUSH2 0x1886 DUP7 DUP3 DUP8 ADD PUSH2 0x161E JUMP JUMPDEST SWAP4 POP POP PUSH1 0x20 PUSH2 0x1897 DUP7 DUP3 DUP8 ADD PUSH2 0x161E JUMP JUMPDEST SWAP3 POP POP PUSH1 0x40 PUSH2 0x18A8 DUP7 DUP3 DUP8 ADD PUSH2 0x1509 JUMP JUMPDEST SWAP2 POP POP SWAP3 POP SWAP3 POP SWAP3 JUMP JUMPDEST PUSH0 PUSH1 0xFF DUP3 AND SWAP1 POP SWAP2 SWAP1 POP JUMP JUMPDEST PUSH2 0x18C7 DUP2 PUSH2 0x18B2 JUMP JUMPDEST DUP3 MSTORE POP POP JUMP JUMPDEST PUSH0 PUSH1 0x20 DUP3 ADD SWAP1 POP PUSH2 0x18E0 PUSH0 DUP4 ADD DUP5 PUSH2 0x18BE JUMP JUMPDEST SWAP3 SWAP2 POP POP JUMP JUMPDEST PUSH0 DUP2 MLOAD SWAP1 POP SWAP2 SWAP1 POP JUMP JUMPDEST PUSH0 DUP3 DUP3 MSTORE PUSH1 0x20 DUP3 ADD SWAP1 POP SWAP3 SWAP2 POP POP JUMP JUMPDEST PUSH0 DUP2 SWAP1 POP PUSH1 0x20 DUP3 ADD SWAP1 POP SWAP2 SWAP1 POP JUMP JUMPDEST PUSH2 0x1918 DUP2 PUSH2 0x15F7 JUMP JUMPDEST DUP3 MSTORE POP POP JUMP JUMPDEST PUSH0 PUSH2 0x1929 DUP4 DUP4 PUSH2 0x190F JUMP JUMPDEST PUSH1 0x20 DUP4 ADD SWAP1 POP SWAP3 SWAP2 POP POP JUMP JUMPDEST PUSH0 PUSH1 0x20 DUP3 ADD SWAP1 POP SWAP2 SWAP1 POP JUMP JUMPDEST PUSH0 PUSH2 0x194B DUP3 PUSH2 0x18E6 JUMP JUMPDEST PUSH2 0x1955 DUP2 DUP6 PUSH2 0x18F0 JUMP JUMPDEST SWAP4 POP PUSH2 0x1960 DUP4 PUSH2 0x1900 JUMP JUMPDEST DUP1 PUSH0 JUMPDEST DUP4 DUP2 LT ISZERO PUSH2 0x1990 JUMPI DUP2 MLOAD PUSH2 0x1977 DUP9 DUP3 PUSH2 0x191E JUMP JUMPDEST SWAP8 POP PUSH2 0x1982 DUP4 PUSH2 0x1935 JUMP JUMPDEST SWAP3 POP POP PUSH1 0x1 DUP2 ADD SWAP1 POP PUSH2 0x1963 JUMP JUMPDEST POP DUP6 SWAP4 POP POP POP POP SWAP3 SWAP2 POP POP JUMP JUMPDEST PUSH0 PUSH1 0x20 DUP3 ADD SWAP1 POP DUP2 DUP2 SUB PUSH0 DUP4 ADD MSTORE PUSH2 0x19B5 DUP2 DUP5 PUSH2 0x1941 JUMP JUMPDEST SWAP1 POP SWAP3 SWAP2 POP POP JUMP JUMPDEST PUSH0 DUP1 REVERT JUMPDEST PUSH0 DUP1 REVERT JUMPDEST PUSH32 0x4E487B7100000000000000000000000000000000000000000000000000000000 PUSH0 MSTORE PUSH1 0x41 PUSH1 0x4 MSTORE PUSH1 0x24 PUSH0 REVERT JUMPDEST PUSH2 0x19FB DUP3 PUSH2 0x1570 JUMP JUMPDEST DUP2 ADD DUP2 DUP2 LT PUSH8 0xFFFFFFFFFFFFFFFF DUP3 GT OR ISZERO PUSH2 0x1A1A JUMPI PUSH2 0x1A19 PUSH2 0x19C5 JUMP JUMPDEST JUMPDEST DUP1 PUSH1 0x40 MSTORE POP POP POP JUMP JUMPDEST PUSH0 PUSH2 0x1A2C PUSH2 0x14D9 JUMP JUMPDEST SWAP1 POP PUSH2 0x1A38 DUP3 DUP3 PUSH2 0x19F2 JUMP JUMPDEST SWAP2 SWAP1 POP JUMP JUMPDEST PUSH0 PUSH8 0xFFFFFFFFFFFFFFFF DUP3 GT ISZERO PUSH2 0x1A57 JUMPI PUSH2 0x1A56 PUSH2 0x19C5 JUMP JUMPDEST JUMPDEST PUSH2 0x1A60 DUP3 PUSH2 0x1570 JUMP JUMPDEST SWAP1 POP PUSH1 0x20 DUP2 ADD SWAP1 POP SWAP2 SWAP1 POP JUMP JUMPDEST DUP3 DUP2 DUP4 CALLDATACOPY PUSH0 DUP4 DUP4 ADD MSTORE POP POP POP JUMP JUMPDEST PUSH0 PUSH2 0x1A8D PUSH2 0x1A88 DUP5 PUSH2 0x1A3D JUMP JUMPDEST PUSH2 0x1A23 JUMP JUMPDEST SWAP1 POP DUP3 DUP2 MSTORE PUSH1 0x20 DUP2 ADD DUP5 DUP5 DUP5 ADD GT ISZERO PUSH2 0x1AA9 JUMPI PUSH2 0x1AA8 PUSH2 0x19C1 JUMP JUMPDEST JUMPDEST PUSH2 0x1AB4 DUP5 DUP3 DUP6 PUSH2 0x1A6D JUMP JUMPDEST POP SWAP4 SWAP3 POP POP POP JUMP JUMPDEST PUSH0 DUP3 PUSH1 0x1F DUP4 ADD SLT PUSH2 0x1AD0 JUMPI PUSH2 0x1ACF PUSH2 0x19BD JUMP JUMPDEST JUMPDEST DUP2 CALLDATALOAD PUSH2 0x1AE0 DUP5 DUP3 PUSH1 0x20 DUP7 ADD PUSH2 0x1A7B JUMP JUMPDEST SWAP2 POP POP SWAP3 SWAP2 POP POP JUMP JUMPDEST PUSH0 PUSH1 0x20 DUP3 DUP5 SUB SLT ISZERO PUSH2 0x1AFE JUMPI PUSH2 0x1AFD PUSH2 0x14E2 JUMP JUMPDEST JUMPDEST PUSH0 DUP3 ADD CALLDATALOAD PUSH8 0xFFFFFFFFFFFFFFFF DUP2 GT ISZERO PUSH2 0x1B1B JUMPI PUSH2 0x1B1A PUSH2 0x14E6 JUMP JUMPDEST JUMPDEST PUSH2 0x1B27 DUP5 DUP3 DUP6 ADD PUSH2 0x1ABC JUMP JUMPDEST SWAP2 POP POP SWAP3 SWAP2 POP POP JUMP JUMPDEST PUSH0 PUSH1 0x40 DUP3 ADD SWAP1 POP DUP2 DUP2 SUB PUSH0 DUP4 ADD MSTORE PUSH2 0x1B48 DUP2 DUP6 PUSH2 0x1580 JUMP JUMPDEST SWAP1 POP PUSH2 0x1B57 PUSH1 0x20 DUP4 ADD DUP5 PUSH2 0x16CE JUMP JUMPDEST SWAP4 SWAP3 POP POP POP JUMP JUMPDEST PUSH2 0x1B67 DUP2 PUSH2 0x15F7 JUMP JUMPDEST DUP3 MSTORE POP POP JUMP JUMPDEST PUSH0 PUSH1 0x20 DUP3 ADD SWAP1 POP PUSH2 0x1B80 PUSH0 DUP4 ADD DUP5 PUSH2 0x1B5E JUMP JUMPDEST SWAP3 SWAP2 POP POP JUMP JUMPDEST PUSH0 DUP1 PUSH1 0x40 DUP4 DUP6 SUB SLT ISZERO PUSH2 0x1B9C JUMPI PUSH2 0x1B9B PUSH2 0x14E2 JUMP JUMPDEST JUMPDEST PUSH0 PUSH2 0x1BA9 DUP6 DUP3 DUP7 ADD PUSH2 0x161E JUMP JUMPDEST SWAP3 POP POP PUSH1 0x20 PUSH2 0x1BBA DUP6 DUP3 DUP7 ADD PUSH2 0x161E JUMP JUMPDEST SWAP2 POP POP SWAP3 POP SWAP3 SWAP1 POP JUMP JUMPDEST PUSH32 0x4E6F207469656E657320737566696369656E74657320746F6B656E7320706172 PUSH0 DUP3 ADD MSTORE PUSH32 0x6120766F74617200000000000000000000000000000000000000000000000000 PUSH1 0x20 DUP3 ADD MSTORE POP JUMP JUMPDEST PUSH0 PUSH2 0x1C1E PUSH1 0x27 DUP4 PUSH2 0x1552 JUMP JUMPDEST SWAP2 POP PUSH2 0x1C29 DUP3 PUSH2 0x1BC4 JUMP JUMPDEST PUSH1 0x40 DUP3 ADD SWAP1 POP SWAP2 SWAP1 POP JUMP JUMPDEST PUSH0 PUSH1 0x20 DUP3 ADD SWAP1 POP DUP2 DUP2 SUB PUSH0 DUP4 ADD MSTORE PUSH2 0x1C4B DUP2 PUSH2 0x1C12 JUMP JUMPDEST SWAP1 POP SWAP2 SWAP1 POP JUMP JUMPDEST PUSH32 0x59612068617320766F7461646F00000000000000000000000000000000000000 PUSH0 DUP3 ADD MSTORE POP JUMP JUMPDEST PUSH0 PUSH2 0x1C86 PUSH1 0xD DUP4 PUSH2 0x1552 JUMP JUMPDEST SWAP2 POP PUSH2 0x1C91 DUP3 PUSH2 0x1C52 JUMP JUMPDEST PUSH1 0x20 DUP3 ADD SWAP1 POP SWAP2 SWAP1 POP JUMP JUMPDEST PUSH0 PUSH1 0x20 DUP3 ADD SWAP1 POP DUP2 DUP2 SUB PUSH0 DUP4 ADD MSTORE PUSH2 0x1CB3 DUP2 PUSH2 0x1C7A JUMP JUMPDEST SWAP1 POP SWAP2 SWAP1 POP JUMP JUMPDEST PUSH32 0x43616E64696461746F206E6F20656E636F6E747261646F000000000000000000 PUSH0 DUP3 ADD MSTORE POP JUMP JUMPDEST PUSH0 PUSH2 0x1CEE PUSH1 0x17 DUP4 PUSH2 0x1552 JUMP JUMPDEST SWAP2 POP PUSH2 0x1CF9 DUP3 PUSH2 0x1CBA JUMP JUMPDEST PUSH1 0x20 DUP3 ADD SWAP1 POP SWAP2 SWAP1 POP JUMP JUMPDEST PUSH0 PUSH1 0x20 DUP3 ADD SWAP1 POP DUP2 DUP2 SUB PUSH0 DUP4 ADD MSTORE PUSH2 0x1D1B DUP2 PUSH2 0x1CE2 JUMP JUMPDEST SWAP1 POP SWAP2 SWAP1 POP JUMP JUMPDEST PUSH32 0x4E487B7100000000000000000000000000000000000000000000000000000000 PUSH0 MSTORE PUSH1 0x32 PUSH1 0x4 MSTORE PUSH1 0x24 PUSH0 REVERT JUMPDEST PUSH32 0x4E487B7100000000000000000000000000000000000000000000000000000000 PUSH0 MSTORE PUSH1 0x11 PUSH1 0x4 MSTORE PUSH1 0x24 PUSH0 REVERT JUMPDEST PUSH0 PUSH2 0x1D86 DUP3 PUSH2 0x14EA JUMP JUMPDEST SWAP2 POP PUSH32 0xFFFFFFFFFFFFFFFFFFFFFFFFFFFFFFFFFFFFFFFFFFFFFFFFFFFFFFFFFFFFFFFF DUP3 SUB PUSH2 0x1DB8 JUMPI PUSH2 0x1DB7 PUSH2 0x1D4F JUMP JUMPDEST JUMPDEST PUSH1 0x1 DUP3 ADD SWAP1 POP SWAP2 SWAP1 POP JUMP JUMPDEST PUSH32 0x4E487B7100000000000000000000000000000000000000000000000000000000 PUSH0 MSTORE PUSH1 0x22 PUSH1 0x4 MSTORE PUSH1 0x24 PUSH0 REVERT JUMPDEST PUSH0 PUSH1 0x2 DUP3 DIV SWAP1 POP PUSH1 0x1 DUP3 AND DUP1 PUSH2 0x1E07 JUMPI PUSH1 0x7F DUP3 AND SWAP2 POP JUMPDEST PUSH1 0x20 DUP3 LT DUP2 SUB PUSH2 0x1E1A JUMPI PUSH2 0x1E19 PUSH2 0x1DC3 JUMP JUMPDEST JUMPDEST POP SWAP2 SWAP1 POP JUMP JUMPDEST PUSH32 0x536F6C6F20656C20466163746F7279207075656465206C6C616D617220612065 PUSH0 DUP3 ADD MSTORE PUSH32 0x7374612066756E63696F6E000000000000000000000000000000000000000000 PUSH1 0x20 DUP3 ADD MSTORE POP JUMP JUMPDEST PUSH0 PUSH2 0x1E7A PUSH1 0x2B DUP4 PUSH2 0x1552 JUMP JUMPDEST SWAP2 POP PUSH2 0x1E85 DUP3 PUSH2 0x1E20 JUMP JUMPDEST PUSH1 0x40 DUP3 ADD SWAP1 POP SWAP2 SWAP1 POP JUMP JUMPDEST PUSH0 PUSH1 0x20 DUP3 ADD SWAP1 POP DUP2 DUP2 SUB PUSH0 DUP4 ADD MSTORE PUSH2 0x1EA7 DUP2 PUSH2 0x1E6E JUMP JUMPDEST SWAP1 POP SWAP2 SWAP1 POP JUMP JUMPDEST PUSH0 DUP2 SWAP1 POP DUP2 PUSH0 MSTORE PUSH1 0x20 PUSH0 KECCAK256 SWAP1 POP SWAP2 SWAP1 POP JUMP JUMPDEST PUSH0 PUSH1 0x20 PUSH1 0x1F DUP4 ADD DIV SWAP1 POP SWAP2 SWAP1 POP JUMP JUMPDEST PUSH0 DUP3 DUP3 SHL SWAP1 POP SWAP3 SWAP2 POP POP JUMP JUMPDEST PUSH0 PUSH1 0x8 DUP4 MUL PUSH2 0x1F0A PUSH32 0xFFFFFFFFFFFFFFFFFFFFFFFFFFFFFFFFFFFFFFFFFFFFFFFFFFFFFFFFFFFFFFFF DUP3 PUSH2 0x1ECF JUMP JUMPDEST PUSH2 0x1F14 DUP7 DUP4 PUSH2 0x1ECF JUMP JUMPDEST SWAP6 POP DUP1 NOT DUP5 AND SWAP4 POP DUP1 DUP7 AND DUP5 OR SWAP3 POP POP POP SWAP4 SWAP3 POP POP POP JUMP JUMPDEST PUSH0 DUP2 SWAP1 POP SWAP2 SWAP1 POP JUMP JUMPDEST PUSH0 PUSH2 0x1F4F PUSH2 0x1F4A PUSH2 0x1F45 DUP5 PUSH2 0x14EA JUMP JUMPDEST PUSH2 0x1F2C JUMP JUMPDEST PUSH2 0x14EA JUMP JUMPDEST SWAP1 POP SWAP2 SWAP1 POP JUMP JUMPDEST PUSH0 DUP2 SWAP1 POP SWAP2 SWAP1 POP JUMP JUMPDEST PUSH2 0x1F68 DUP4 PUSH2 0x1F35 JUMP JUMPDEST PUSH2 0x1F7C PUSH2 0x1F74 DUP3 PUSH2 0x1F56 JUMP JUMPDEST DUP5 DUP5 SLOAD PUSH2 0x1EDB JUMP JUMPDEST DUP3 SSTORE POP POP POP POP JUMP JUMPDEST PUSH0 SWAP1 JUMP JUMPDEST PUSH2 0x1F90 PUSH2 0x1F84 JUMP JUMPDEST PUSH2 0x1F9B DUP2 DUP5 DUP5 PUSH2 0x1F5F JUMP JUMPDEST POP POP POP JUMP JUMPDEST JUMPDEST DUP2 DUP2 LT ISZERO PUSH2 0x1FBE JUMPI PUSH2 0x1FB3 PUSH0 DUP3 PUSH2 0x1F88 JUMP JUMPDEST PUSH1 0x1 DUP2 ADD SWAP1 POP PUSH2 0x1FA1 JUMP JUMPDEST POP POP JUMP JUMPDEST PUSH1 0x1F DUP3 GT ISZERO PUSH2 0x2003 JUMPI PUSH2 0x1FD4 DUP2 PUSH2 0x1EAE JUMP JUMPDEST PUSH2 0x1FDD DUP5 PUSH2 0x1EC0 JUMP JUMPDEST DUP2 ADD PUSH1 0x20 DUP6 LT ISZERO PUSH2 0x1FEC JUMPI DUP2 SWAP1 POP JUMPDEST PUSH2 0x2000 PUSH2 0x1FF8 DUP6 PUSH2 0x1EC0 JUMP JUMPDEST DUP4 ADD DUP3 PUSH2 0x1FA0 JUMP JUMPDEST POP POP JUMPDEST POP POP POP JUMP JUMPDEST PUSH0 DUP3 DUP3 SHR SWAP1 POP SWAP3 SWAP2 POP POP JUMP JUMPDEST PUSH0 PUSH2 0x2023 PUSH0 NOT DUP5 PUSH1 0x8 MUL PUSH2 0x2008 JUMP JUMPDEST NOT DUP1 DUP4 AND SWAP2 POP POP SWAP3 SWAP2 POP POP JUMP JUMPDEST PUSH0 PUSH2 0x203B DUP4 DUP4 PUSH2 0x2014 JUMP JUMPDEST SWAP2 POP DUP3 PUSH1 0x2 MUL DUP3 OR SWAP1 POP SWAP3 SWAP2 POP POP JUMP JUMPDEST PUSH2 0x2054 DUP3 PUSH2 0x1548 JUMP JUMPDEST PUSH8 0xFFFFFFFFFFFFFFFF DUP2 GT ISZERO PUSH2 0x206D JUMPI PUSH2 0x206C PUSH2 0x19C5 JUMP JUMPDEST JUMPDEST PUSH2 0x2077 DUP3 SLOAD PUSH2 0x1DF0 JUMP JUMPDEST PUSH2 0x2082 DUP3 DUP3 DUP6 PUSH2 0x1FC2 JUMP JUMPDEST PUSH0 PUSH1 0x20 SWAP1 POP PUSH1 0x1F DUP4 GT PUSH1 0x1 DUP2 EQ PUSH2 0x20B3 JUMPI PUSH0 DUP5 ISZERO PUSH2 0x20A1 JUMPI DUP3 DUP8 ADD MLOAD SWAP1 POP JUMPDEST PUSH2 0x20AB DUP6 DUP3 PUSH2 0x2030 JUMP JUMPDEST DUP7 SSTORE POP PUSH2 0x2112 JUMP JUMPDEST PUSH1 0x1F NOT DUP5 AND PUSH2 0x20C1 DUP7 PUSH2 0x1EAE JUMP JUMPDEST PUSH0 JUMPDEST DUP3 DUP2 LT ISZERO PUSH2 0x20E8 JUMPI DUP5 DUP10 ADD MLOAD DUP3 SSTORE PUSH1 0x1 DUP3 ADD SWAP2 POP PUSH1 0x20 DUP6 ADD SWAP5 POP PUSH1 0x20 DUP2 ADD SWAP1 POP PUSH2 0x20C3 JUMP JUMPDEST DUP7 DUP4 LT ISZERO PUSH2 0x2105 JUMPI DUP5 DUP10 ADD MLOAD PUSH2 0x2101 PUSH1 0x1F DUP10 AND DUP3 PUSH2 0x2014 JUMP JUMPDEST DUP4 SSTORE POP JUMPDEST PUSH1 0x1 PUSH1 0x2 DUP9 MUL ADD DUP9 SSTORE POP POP POP JUMPDEST POP POP POP POP POP POP JUMP JUMPDEST PUSH32 0x4573746120646972656363696F6E207961207265636962696F20737520746F6B PUSH0 DUP3 ADD MSTORE PUSH32 0x656E2079206E6F20736520707565646520646172206D61730000000000000000 PUSH1 0x20 DUP3 ADD MSTORE POP JUMP JUMPDEST PUSH0 PUSH2 0x2174 PUSH1 0x38 DUP4 PUSH2 0x1552 JUMP JUMPDEST SWAP2 POP PUSH2 0x217F DUP3 PUSH2 0x211A JUMP JUMPDEST PUSH1 0x40 DUP3 ADD SWAP1 POP SWAP2 SWAP1 POP JUMP JUMPDEST PUSH0 PUSH1 0x20 DUP3 ADD SWAP1 POP DUP2 DUP2 SUB PUSH0 DUP4 ADD MSTORE PUSH2 0x21A1 DUP2 PUSH2 0x2168 JUMP JUMPDEST SWAP1 POP SWAP2 SWAP1 POP JUMP JUMPDEST PUSH0 PUSH1 0x60 DUP3 ADD SWAP1 POP PUSH2 0x21BB PUSH0 DUP4 ADD DUP7 PUSH2 0x1B5E JUMP JUMPDEST PUSH2 0x21C8 PUSH1 0x20 DUP4 ADD DUP6 PUSH2 0x16CE JUMP JUMPDEST PUSH2 0x21D5 PUSH1 0x40 DUP4 ADD DUP5 PUSH2 0x16CE JUMP JUMPDEST SWAP5 SWAP4 POP POP POP POP JUMP JUMPDEST PUSH0 PUSH2 0x21E7 DUP3 PUSH2 0x14EA JUMP JUMPDEST SWAP2 POP PUSH2 0x21F2 DUP4 PUSH2 0x14EA JUMP JUMPDEST SWAP3 POP DUP3 DUP3 ADD SWAP1 POP DUP1 DUP3 GT ISZERO PUSH2 0x220A JUMPI PUSH2 0x2209 PUSH2 0x1D4F JUMP JUMPDEST JUMPDEST SWAP3 SWAP2 POP POP JUMP INVALID LOG2 PUSH5 0x6970667358 0x22 SLT KECCAK256 0xAB CALLER JUMP SHR RETURNDATACOPY 0xCF PREVRANDAO SWAP15 0xBF DIV PREVRANDAO GASPRICE 0xB8 EXP DUP14 0x4D STOP BLOBBASEFEE DUP15 0xD2 0xB3 0xEB MLOAD SGT 0xEC 0xB7 PUSH7 0xE941035E6473 PUSH16 0x6C63430008190033A264697066735822 SLT KECCAK256 EXTCODEHASH LOG1 MULMOD PUSH25 0x44C38D95BDA30D3120201ACBB2E756FE22D7AD905C2176340F 0xCF SWAP15 0x27 PUSH5 0x736F6C6343 STOP ADDMOD NOT STOP CALLER "
		},
		"gasEstimates": {
			"creation": {
				"codeDepositCost": "2422400",
				"executionCost": "2603",
				"totalCost": "2425003"
			},
			"external": {
				"createVotantesContract()": "infinite",
				"getVotantesContracts()": "infinite",
				"isVotantesContract(address)": "2811",
				"votantesContracts(uint256)": "4943"
			}
		},
		"methodIdentifiers": {
			"createVotantesContract()": "8ec91c29",
			"getVotantesContracts()": "99ab8fa1",
			"isVotantesContract(address)": "1c039ed0",
			"votantesContracts(uint256)": "1cd3f8ae"
		}
	},
	"abi": [
		{
			"anonymous": false,
			"inputs": [
				{
					"indexed": true,
					"internalType": "address",
					"name": "votantesContract",
					"type": "address"
				},
				{
					"indexed": true,
					"internalType": "address",
					"name": "creator",
					"type": "address"
				}
			],
			"name": "VotantesContractCreated",
			"type": "event"
		},
		{
			"inputs": [],
			"name": "createVotantesContract",
			"outputs": [],
			"stateMutability": "nonpayable",
			"type": "function"
		},
		{
			"inputs": [],
			"name": "getVotantesContracts",
			"outputs": [
				{
					"internalType": "address[]",
					"name": "",
					"type": "address[]"
				}
			],
			"stateMutability": "view",
			"type": "function"
		},
		{
			"inputs": [
				{
					"internalType": "address",
					"name": "",
					"type": "address"
				}
			],
			"name": "isVotantesContract",
			"outputs": [
				{
					"internalType": "bool",
					"name": "",
					"type": "bool"
				}
			],
			"stateMutability": "view",
			"type": "function"
		},
		{
			"inputs": [
				{
					"internalType": "uint256",
					"name": "",
					"type": "uint256"
				}
			],
			"name": "votantesContracts",
			"outputs": [
				{
					"internalType": "address",
					"name": "",
					"type": "address"
				}
			],
			"stateMutability": "view",
			"type": "function"
		}
	]
}